:100000000C94C8010C94580F0C94890F0C94BA0FDF
:100010000C94EB0F0C941C100C944D100C947E104F
:100020000C94AF100C94F7010C94F7010C94F701A9
:100030000C94E0100C94F7010C94F7010C943C1113
:100040000C94F7010C94F7010C94F7010C94F70150
:100050000C94F7010C94F7010C94F7010C94171110
:100060000C94F7010C94C8200C94F7010C94F70140
:100070000C94F7010C94F7010C94F7010C94F70120
:100080000C94F7010C94F7010C94F7010C94F70110
:100090000C9403210C94F7010C94F7010C94280E96
:1000A0000C94F7010C94F7010C94F7010C94F701F0
:1000B0000C94F7010C94F7010C94F7010C94F701E0
:1000C0000C94F7010C94F7010C94F70173746172AE
:1000D000740050726573737572653A20006B5061DD
:1000E0000009011D0143016A018A01A201B001C09A
:1000F00001D501EB01FC0108020F022C024A02604B
:10010000026E027E02A102A702416C61726D204D57
:100110006F6465206D61746368657320005B446182
:1001200079203A20686F757273203A206D696E7578
:10013000746573203A207365636F6E64735D202D60
:100140003E20005B44617465203A20686F757273CD
:10015000203A206D696E75746573203A207365636B
:100160006F6E64735D202D3E20005B486F75727367
:10017000203A206D696E75746573203A207365634B
:100180006F6E64735D202D3E20005B4D696E75744B
:100190006573203A207365636F6E64735D202D3E36
:1001A00020005B5365636F6E64735D202D3E2000FD
:1001B0004F6E636520706572207365636F6E6400B7
:1001C000496E636F727265637420616C61726D2039
:1001D0006D6F6465005B253032753A253032753AB3
:1001E000253032753A253032755D005B2530327529
:1001F0003A253032753A253032755D005B25303254
:10020000753A253032755D005B253032755D005BD7
:10021000446179203A20686F757273203A206D69C5
:100220006E75746573205D202D3E20005B44617403
:1002300065203A20686F757273203A206D696E757B
:10024000746573205D202D3E20005B486F757273CE
:10025000203A206D696E757465735D202D3E200017
:100260005B4D696E757465735D202D3E20004F6E89
:10027000636520706572206D696E75746500257305
:100280002C20253032752F253032752F25303275D0
:100290002C20253032753A253032753A25303275AA
:1002A000006572726F720025303275256325303219
:1002B0007525632530327525632530327525632514
:1002C000303275256325303275256325303275004F
:1002D000000008090000000000000000000000000D
:1002E000000000000000000000000000000000000E
:1002F00000000000000000000000000000000000FE
:100300000000000102081010204080040810204066
:1003100002020408102040800102802040042001D5
:1003200001020408102001408040800102080408F6
:100330008004100402010505050503030303010100
:100340000104040306060606060606060104050166
:100350000501030202020202020102020505040471
:1003600003040401030407070700202326292C2F78
:1003700032002225282B2E3134002124272A2D302B
:100380003300830CAE14F819091B851C312051244D
:1003900011241FBECFEFD1E2DEBFCDBF12E0A0E03F
:1003A000B2E0E2EEF5E500E00BBF02C007900D926F
:1003B000A034B107D9F71AE0A0E4B2E001C01D9261
:1003C000A430B107E1F713E0C0E9D3E000E006C0D4
:1003D00022970109FE010BBF0E946C27C238D1078A
:1003E00080E00807A9F70E9492130C94EF2A0C945E
:1003F000000082ED93E00E94161B6CEC70E082ED31
:1004000093E00E94671C64E670E080E090E00E9448
:10041000B31184E492E00E94E70289E393E00C9434
:10042000DD1940E050E160E084E492E00E94E902DE
:1004300064E670E080E090E00E94B31160E070E15B
:1004400084E492E00E94800C609340027093410229
:10045000809342029093430240E050E161E084E4E3
:1004600092E00E94E90262ED70E082ED93E00E946A
:100470008D1B409140025091410260914202709167
:10048000430282ED93E00E94571C6DED70E082ED17
:1004900093E00E94671C68EE73E080E090E00C94AB
:1004A000B31181E08093DF0340E060E087E393E0F5
:1004B0000E94BD1440E061E087E393E00E94BD1418
:1004C00080914C03811106C041E061E089E393E033
:1004D0000E94391561E087E00E94C51281E008950D
:1004E000CF93DF93D82FC92F61E085E00E94AC1233
:1004F00061E084E00E94AC1261E086E00E94AC12F0
:1005000061E087E00E94AC1260E089E00E94AC12DA
:1005100061E08AE00E94AC1260E088E00E94AC12C8
:1005200061E082E00E94AC1261E08EE00E94AC12B9
:1005300060E08FE00E94AC1260E081E10E94AC12AA
:1005400060E083E10E94AC1260E085E00E94C51289
:1005500060E084E00E94C51260E086E00E94C5125F
:1005600060E087E00E94C51260E08AE00E94C51248
:1005700060E082E00E94C51260E08EE00E94C51239
:1005800041E060E087E393E00E94BD1441E061E058
:1005900087E393E00E94BD14ED2FFC2F80E6DF017E
:1005A0001D928A95E9F78091EA059091EB05A0915B
:1005B000EC05B091ED0580628093EA059093EB0520
:1005C000A093EC05B093ED05DF91CF9108950C94C5
:1005D000510261114AC04038510509F43FC0C0F4CE
:1005E00044305105A9F148F44130510599F190F199
:1005F0004230510509F083C02BC04032510561F1F2
:100600004034510549F14830510509F078C020C007
:10061000411588E0580701F168F4411582E0580758
:10062000E9F0411584E05807B9F04115514009F04F
:1006300066C014C0411580E2580771F0411580E48E
:10064000580761F04115504109F059C061E047C0B9
:1006500061E048C061E049C061E04AC061E087E014
:100660000E94C51261E08AE044C0613009F045C0D3
:1006700040385105E1F1B0F44430510591F140F4B6
:100680004130510589F180F142305105C1F529C051
:100690004032510561F14034510549F1483051056E
:1006A00071F51FC0411588E0580709F160F4411544
:1006B00082E05807E1F0411584E05807C1F0411588
:1006C0005140E9F414C0411580E2580781F041150A
:1006D00080E4580761F04115504189F460E084E0FE
:1006E00008C060E082E005C060E08EE002C060E02B
:1006F00087E00E94C51281E0089580E008958FEFA1
:1007000008952F923F924F925F926F927F928F92B5
:100710009F92AF92BF92CF92DF92EF92FF920F9390
:100720001F93CF93DF93CDB7DEB728970FB6F8941A
:10073000DEBF0FBECDBF9A8389830E9461114B013A
:100740005C010E9461112B013C0180E4C82E82E40F
:10075000D82E8FE0E82EF12C212C312C18861F8208
:1007600036C088E00E940B138C018F819885019719
:1007700009F501151105F1F49FEF291A390A0E94B4
:1007800061119B01AC0124193509460957092B83D6
:100790003C834D835E830E9461112B013C012B81C0
:1007A0003C814D815E812C153D054E055F0510F4A1
:1007B00069017A010E946111681579058A059B0516
:1007C00020F40E9461114B015C0118870F830E9485
:1007D0006111681979098A099B09693B7B40810588
:1007E000910508F4BECF64E670E080E090E00E94DE
:1007F000B31109811A810F591F4FC701B6010E9419
:10080000572520E030E04AE754E40E94BE249B01D3
:10081000AC016AE979E989E190E40E94BE24F8011B
:100820006083718382839383B101882777FD8095EC
:10083000982F0E9459252AE939E949E150E40E949C
:100840000D2620E030E040E450E40E94BE242896CB
:100850000FB6F894DEBF0FBECDBFDF91CF911F91D1
:100860000F91FF90EF90DF90CF90BF90AF909F904F
:100870008F907F906F905F904F903F902F90089552
:100880000F931F93CF93DF9300D0CDB7DEB71982BC
:100890001A828091DE03811104C088ED93E00E94EA
:1008A0009A1E66E970E080E090E00E94B31142E099
:1008B00050E064E170E088ED93E00E942F208E010B
:1008C0000F5F1F4F07C088ED93E00E94CF1EF80115
:1008D00081938F0188ED93E00E94C91E8111F3CFAF
:1008E0008091DE03882391F08091320381110EC044
:1008F00080914C03813051F087E393E00E942015F2
:1009000041E060E089E393E00E9439158A81298102
:10091000422F50E060E070E02227342F452F562F01
:10092000280F311D411D511DA9E0B0E00E947C2619
:1009300069507048844091090E94592520E03FEF9A
:100940004FE757E40E94BE240F900F90DF91CF91A4
:100950001F910F910895BF92CF92DF92EF92FF9275
:100960000F931F93CF93DF93C62F60E08FE00E9419
:10097000AC1260E081E10E94AC1260E083E10E9471
:10098000AC1260E08AE00E94C512C43051F0C83059
:1009900029F0C23081F54FE0B42E05C031E1B32E0D
:1009A00002C023E1B22E0E9461116B017C01C0E004
:1009B000D0E000E010E001C08C018B2D0E940B13F1
:1009C0000130110519F4009709F42196C03D27E084
:1009D000D20794F30E9461116C197D098E099F0959
:1009E0000E9457259B01AC0160E074E284EF99E41A
:1009F0000E94BE2404C060E070E080E89FEBDF91BD
:100A0000CF911F910F91FF90EF90DF90CF90BF900B
:100A100008958F929F92AF92BF92CF92DF92EF9202
:100A2000FF92CF93DF9341155105F9F04130510505
:100A300009F047C0882777FD8095982F0E94592597
:100A40006B017C012DEB32E546E15DE30E940D2652
:100A500025EC3EEF42E050E40E9455244B015C013E
:100A600026EF34E246ED55EB1AC0882777FD8095D6
:100A7000982F0E9459256B017C012DEB32E546E150
:100A80005FE30E940D2625EC3EEF42E050E40E9419
:100A900055244B015C012BE335E246ED59EBC701D0
:100AA000B6010E940D26A70196010E940D269B010A
:100AB000AC01C501B4010E9456247B01D82FC92F77
:100AC00004C0E12CF12CD0E0C0E020E030E046ECA6
:100AD00052E4FE016E2D7F2D8F2F9C2F0E94092640
:100AE000181624F4E12CF12CD8ECC2E49E016E2DF2
:100AF0007F2D832F9C2FDF91CF91FF90EF90DF9080
:100B0000CF90BF90AF909F908F9008958F929F92BB
:100B1000AF92BF92CF92DF92EF92FF921F93CF934B
:100B2000DF93EC01162F662319F0613021F402C027
:100B300013E001C015E061E086E00E94AC1261E0C4
:100B400085E00E94AC1261E086E00E94C51261E07F
:100B500085E00E94C51281E090E00E94DD1160E016
:100B600086E00E94C51260E085E00E94C51281E027
:100B700090E00E94DD1161E085E00E94C51261E015
:100B800086E00E94C51281E090E00E94DD1160E0E5
:100B900085E00E94C512212F41E065E086E00E94B9
:100BA000511361E085E00E94C51260E086E00E947A
:100BB000AC120E9461116B017C0186E00E940B1354
:100BC0005C0104C00E9461116B017C01AA94AB28F6
:100BD00009F0B6C00E9461116C197D098E099F0948
:100BE0006A3071058105910508F4B7C0A9C00E945B
:100BF00061116B017C01AB2809F0C9C00E94611131
:100C00006C197D098E099F096A307105810591056E
:100C100008F4B0C0BCC0AA94AB2809F0C6C00E94BA
:100C200061116C197D098E099F0960397140810538
:100C3000910508F4B5C0B9C061E085E00E94C51215
:100C4000EE0CFF1C86E00E940B13E80EF91E60E01C
:100C500085E00E94C51281E0C81AD10869F786E0D4
:100C60000E940B136C010E9461114B015C01CD28A5
:100C700009F0A3C00E946111681979098A099B09CA
:100C80006A3071058105910508F4B9C096C061E02C
:100C900085E00E94C512EE0CFF1C86E00E940B133B
:100CA000E80EF91E60E085E00E94C51221E0C21A3C
:100CB000D10869F761E086E00E94AC1261E086E04D
:100CC0000E94C51261E085E00E94C51280E991E0B2
:100CD0000E94DD1160E085E00E94C51260E086E0C0
:100CE0000E94C5121330A1F4B701882777FD8095C3
:100CF000982F0E9459252AE037ED43E25CE30E94D9
:100D00000D262DEC3CEC4EE152E40E94552484C0AB
:100D1000153089F441E050E0B701CE01DF91CF9169
:100D20001F91FF90EF90DF90CF90BF90AF909F907A
:100D30008F900C94090560E070E080E090E06CC05A
:100D400060E085E00E94C5120E9461116B017C0188
:100D500086E00E940B135C014ECF86E00E940B13CD
:100D60005C010E9461116C157D058E059F0508F0E0
:100D70002DCF28CF86E00E940B135C010E946111E9
:100D80006C157D058E059F0508F035CF30CF86E0C8
:100D90000E940B135C010E9461116B017C013BCF2F
:100DA00086E00E940B135C0136CF0E94611168E05F
:100DB000C62ED12CE12CF12C3FCF61E086E00E94C1
:100DC000AC1260E086E00E94C51281E090E00E94D3
:100DD000DD1161E085E00E94C51280E991E00E948A
:100DE000DD1160E085E00E94C51260E086E00E94AF
:100DF000AC120E94611158E0C52ED12C48CF86E07C
:100E00000E940B136C010E946111681579058A0517
:100E10009B0508F02CCF27CFDF91CF911F91FF903A
:100E2000EF90DF90CF90BF90AF909F908F900895FC
:100E3000AF92BF92CF92DF92EF92FF920F931F93E8
:100E4000CF93DF930E9461116B017C01C0E0D0E081
:100E500000E010E016C089E00E940B135C01013035
:100E6000110519F4009709F421960E9461116C157F
:100E70007D058E059F0520F40E9461116B017C01A8
:100E800085010E9461116C197D098E099F09693BDA
:100E90007B4081059105F8F264E670E080E090E027
:100EA0000E94B311CE01DF91CF911F910F91FF905E
:100EB000EF90DF90CF90BF90AF900895BF92CF9208
:100EC000DF92EF92FF920F931F93CF93DF93DB019B
:100ED000C42F2C91422F50E026FBEE27E0F9F0E0E2
:100EE00011966C91119712960C91029506950695A4
:100EF000037070E080E090E0B2E0660F771F881F1B
:100F0000991FBA95D1F7600F711D811D911D022F98
:100F10000F7310E020E030E0DAE0000F111F221F15
:100F2000331FDA95D1F7600F711F821F931F440F93
:100F3000452F441F550B4130510519F43197C9F025
:100F400006C0EF2BD9F06F5F7F4F810991090E9496
:100F5000592520E030E040EC5FE30E940D2620E0C0
:100F60003FEF4FE757E40E94BE24B62ED72F8C01E7
:100F700009C0B12CD0E000E010E404C0B12CD0E0F6
:100F800000E010ECC13009F053C020E030E44BE742
:100F900054E46B2D7D2F802F912F0E940D2620E091
:100FA00030E44BEF54E40E940D262AE63FE64BE482
:100FB0005AE40E9456246B017C0120E030E44BEFA0
:100FC00054E46B2D7D2F802F912F0E940D269B01C5
:100FD000AC0160E078E48FE495E40E9455249B0125
:100FE000AC01C701B6010E94BE2428E431E64AE7FD
:100FF00054E40E9455242EEA3FEF48EA54E40E944C
:10100000BE2428EB3EEC4AEB54E40E940D262FE868
:1010100032E049E754E40E94562420E030E04AE7F9
:1010200054E40E94552426E931E24AE750E410C016
:10103000C11111C020E030EE4BE256E46B2D7D2F44
:10104000802F912F0E940D2620E030E04AE754E4E3
:101050000E94BE2404C060E070E080E090E0DF9178
:10106000CF911F910F91FF90EF90DF90CF90BF90A5
:101070000895EF92FF920F931F93CF93DF9300D0C9
:101080001F92CDB7DEB77C0119821A821B82809134
:10109000DE03811104C088ED93E00E949A1E6CE289
:1010A00071E080E090E00E94B31166E170E088EDAD
:1010B00093E00E94C71E60EA88ED93E00E94C71F7C
:1010C00065E570E088ED93E00E94F31F88ED93E002
:1010D0000E94F51F6CE271E080E090E00E94B31185
:1010E00043E050E066E170E088ED93E00E942F203D
:1010F0008E010F5F1F4F07C088ED93E00E94CF1E47
:10110000F80181938F0188ED93E00E94C91E81113F
:10111000F3CF8091DE03882391F080913203811117
:101120000EC080914C03813051F087E393E00E9420
:10113000201541E060E089E393E00E94391541E029
:10114000BE016F5F7F4FC7010E945E070F900F9037
:101150000F90DF91CF911F910F91FF90EF90089525
:10116000EF92FF920F931F93CF93DF9300D01F92C4
:10117000CDB7DEB77C0119821A821B828091DE0313
:10118000811104C088ED93E00E949A1E6CE271E028
:1011900080E090E00E94B31166E170E088ED93E09A
:1011A0000E94C71E61EA88ED93E00E94C71F65E5B3
:1011B00070E088ED93E00E94F31F88ED93E00E94B9
:1011C000F51F6CE271E080E090E00E94B31143E013
:1011D00050E066E170E088ED93E00E942F208E01E0
:1011E0000F5F1F4F07C088ED93E00E94CF1EF801EC
:1011F00081938F0188ED93E00E94C91E8111F3CF86
:101200008091DE03882391F08091320381110EC01A
:1012100080914C03813051F087E393E00E942015C8
:1012200041E060E089E393E00E94391540E0BE01AF
:101230006F5F7F4FC7010E945E070F900F900F9066
:10124000DF91CF911F910F91FF90EF900895882724
:1012500077FD8095982F0E94592520E030E44EE4D8
:1012600055E40E940D2620E030EC4FE754E40E9444
:10127000BE242AE939E949E15FE30E94BE2420E067
:1012800030E04AE754E40E94BE2424EF3DEF44E5F9
:101290005EE30E94562422E630E148EF5EE30E94BE
:1012A000562423EA31E04CE35DE30E94BE24089516
:1012B000CF92DF92EF92FF92882777FD8095982F4B
:1012C0000E9459256B017C0120E030E04BE953E49A
:1012D0000E94092618168CF427E53EE94FE05EE3EC
:1012E000C701B6010E940D269B01AC016FE67AE7AB
:1012F0008FE093E40E94552404C060E070E088EC25
:1013000092E4FF90EF90DF90CF900895CF92DF921C
:10131000EF92FF92CF93DF93EC016A017B0120E013
:1013200030E040E85EE3C701B6010E94BA2487FFBF
:1013300004C0C05ADF4F8FE05DC120E030E040E8DC
:101340005EE3C701B6010E94092687FD0EC029E2AF
:101350003CE54FE85EE3C701B6010E94BA2487FF6F
:1013600004C0C05ADF4F81E045C129E23CE54FE8A7
:101370005EE3C701B6010E94092687FD0EC023E384
:1013800033E343EB5EE3C701B6010E94BA2487FF53
:1013900004C0C05ADF4F18822EC123E333E343EB6E
:1013A0005EE3C701B6010E94092687FD0EC020E05A
:1013B00030E040E05FE3C701B6010E94BA2487FF36
:1013C00004C0C05ADF4F8DE015C120E030E040E09E
:1013D0005FE3C701B6010E94092687FD0EC026E61D
:1013E00036E646E25FE3C701B6010E94BA2487FFF2
:1013F00004C0C05ADF4F8EE0FDC026E636E646E266
:101400005FE3C701B6010E94092687FD0EC02AE9E5
:1014100039E949E55FE3C701B6010E94BA2487FFB5
:1014200004C0C05ADF4F8BE0E5C02AE939E949E53D
:101430005FE3C701B6010E94092687FD0EC02DECAF
:101440003CEC4CE85FE3C701B6010E94BA2487FF79
:1014500004C0C05ADF4F8CE0CDC02DEC3CEC4CE812
:101460005FE3C701B6010E94092687FD0EC027ED84
:1014700033EA40EB5FE3C701B6010E94BA2487FF5D
:1014800004C0C05ADF4F83E0B5C027ED33EA40EB1C
:101490005FE3C701B6010E94092687FD0EC02DEC4F
:1014A0003CEC4CEC5FE3C701B6010E94BA2487FF15
:1014B00004C0C05ADF4F82E09DC02DEC3CEC4CECE8
:1014C0005FE3C701B6010E94092687FD0EC028E42C
:1014D00031EE4AEF5FE3C701B6010E94BA2487FFED
:1014E00004C0C05ADF4F89E085C028E431EE4AEFDE
:1014F0005FE3C701B6010E94092687FD0EC02AE9F5
:1015000039E949E050E4C701B6010E94BA2487FFD7
:1015100004C0C05ADF4F8AE06DC02AE939E949E0CA
:1015200050E4C701B6010E94092687FD0EC026E6D9
:1015300036E646E150E4C701B6010E94BA2487FFAF
:1015400004C0C05ADF4F85E055C026E636E646E1C6
:1015500050E4C701B6010E94092687FD0EC026E6A9
:1015600036E646E250E4C701B6010E94BA2487FF7E
:1015700004C0C05ADF4F84E03DC026E636E646E2AE
:1015800050E4C701B6010E94092687FD0EC020E085
:1015900030E040E350E4C701B6010E94BA2487FF5F
:1015A00004C0C05ADF4F87E025C020E030E040E3B0
:1015B00050E4C701B6010E94092687FD0EC02DEC3C
:1015C0003CEC4CE350E4C701B6010E94BA2487FF0B
:1015D00004C0C05ADF4F86E00DC02DEC3CEC4CE35C
:1015E00050E4C701B6010E94092687FD04C0C05A15
:1015F000DF4F88E08883DF91CF91FF90EF90DF90FD
:10160000CF900895882777FD8095982F0E945925BF
:1016100020E030E44EE455E40E940D2620E030EC5A
:101620004FE754E40E94BE242AE939E949E15FE327
:101630000E94BE2420E030E048E454E40E94552497
:1016400020E030E048EF51E40E94BE24089588274E
:1016500077FD8095982F0E94592520E030E44EE4D4
:1016600055E40E940D2620E030EC4FE754E40E9440
:10167000BE2420E030E04AEF53E40E94552420E0ED
:1016800030E040E251E40E94BE24089540E061E170
:1016900087ED93E00C94E41DEF92FF920F931F935C
:1016A000CF93DF93EC016034710509F49EC0E8F438
:1016B0006430710509F455C058F46130710509F4BE
:1016C00065C008F46BC06230710509F00AC143C0FF
:1016D0006031710509F4D1C06032710509F47DC033
:1016E0006830710509F0FDC042C0611584E07807DB
:1016F00009F4AAC078F4611581E0780709F48AC07A
:10170000611582E0780709F492C06038710509F02C
:10171000E8C073C0611580E1780781F028F4611595
:10172000784009F0DEC099C0611580E2780709F4BD
:10173000B8C06115704409F0D4C0CAC083E00E94EB
:101740008112BC01CE01DF91CF911F910F91FF90CB
:10175000EF900C94270960E08AE00E94C51262E0D5
:101760000BC060E08AE00E94C51264E005C060E042
:101770008AE00E94C51268E0CE010E94AB047B01A2
:101780008C0161E08AE00E94C512AFC0DF91CF9169
:101790001F910F91FF90EF900C94810385E00E94C0
:1017A0008112BC0180E090E00E94572523E333E3DF
:1017B00043E550E40E940D2620E030EC4FE754E46E
:1017C0000E94BE247B018C01982F4E2D5F2D692F26
:1017D000712FCE010E94860988C0DF91CF911F91A1
:1017E0000F91FF90EF900C94B008DF91CF911F9173
:1017F0000F91FF90EF900C94390886E00E948112BF
:10180000BC01CE01DF91CF911F910F91FF90EF901E
:101810000C94580984E00E948112BC01CE01DF9132
:10182000CF911F910F91FF90EF900C94270B82E0C6
:101830000E948112BC01CE01DF91CF911F910F91C7
:10184000FF90EF900C94020BCE01DF91CF911F918E
:101850000F91FF90EF900C944004411102C060E0A2
:1018600003C04130F1F561E0CE01DF91CF911F91CE
:101870000F91FF90EF900C9486050E941807BC0111
:1018800080E090E00E94572524E83DE04FE85EE3C9
:101890000E940D2620E030E040EA51E40E940D262F
:1018A00014C087E00E948112BC0180E090E00E9499
:1018B000572523E333E343E550E40E940D2620E05F
:1018C00030EC4FE754E40E94BE247B018C010DC034
:1018D000CE01DF91CF911F910F91FF90EF900C946B
:1018E000460BE12CF12C00E010E06E2D7F2D802FB7
:1018F000912FDF91CF911F910F91FF90EF9008955D
:1019000040E00C944C0B84E492E00C947002109232
:10191000B202E4E6F0E080818F778083589A599A8A
:10192000E9EBF0E080818E7F808380818D7F8083F2
:1019300081E48093B80085E48093BC0080E2E3EB0F
:10194000F2E0DF01982F1D929A95E9F7E3EDF2E0BE
:10195000DF01982F1D929A95E9F7E3EFF2E0DF019E
:101960001D928A95E9F70895613298F42091B202A8
:10197000243089F46093AF02FC0183ED92E0DC0136
:1019800002C021912D932A2F281B2617D0F380E027
:10199000089581E0089582E0089585EC8093BC006D
:1019A0001092B2020895589859988091B9008160B8
:1019B0008093B9008091B90082608093B9008091D2
:1019C000BC0080688093BC008091BC0080618093E3
:1019D000BC008091BC008F7B8093BC008091BC00D8
:1019E0008F7D8093BC008091BC00877F8093BC007A
:1019F0008091EA059091EB05A091EC05B091ED0581
:101A000086FD14C08091EA059091EB05A091EC054C
:101A1000B091ED0590FD0AC08091EA059091EB052B
:101A2000A091EC05B091ED0593FF04C08091BC003E
:101A30008B7F03C08091BC0084608093BC00809148
:101A4000BC008E7F8093BC0080916400806880938E
:101A500064000895882349F01092A9021092AA0206
:101A60001092AB021092AC0213C08091A902909127
:101A7000AA02A091AB02B091AC020196A11DB11DCA
:101A80008093A9029093AA02A093AB02B093AC02F8
:101A90008091A9029091AA02A091AB02B091AC02F0
:101AA000803A9648A140B10560F01092A9021092C8
:101AB000AA021092AB021092AC020E94870C81E045
:101AC000089580E0089585ED8093BC0081E00E9438
:101AD0002A0D08C080E00E942A0D882319F0109278
:101AE000B20208958091BC0084FDF4CFF8CFFF923C
:101AF0000F931F93CF93DF93182F062FF72EC42F2A
:101B0000D22F81E0413208F051C00E942A0D15C049
:101B100080E00E942A0D882381F082E08093B20247
:101B20008FEF8093AD021092B102C0931303E02FA8
:101B3000FF2D63EB72E0DB0107C08091B2028111DF
:101B4000E7CFEBCF81918D938A2F861B8C17D0F333
:101B5000812F90E0880F991F8093140385EE809366
:101B6000BC0081E00E942A0DD11105C08091AD0218
:101B70008F3F59F414C08091B2028230B9F780E0EF
:101B80000E942A0D81110DC0F6CF8091AD028032E6
:101B900051F08091AD02803341F483E007C080E0D2
:101BA00005C085E003C082E001C084E0DF91CF91F1
:101BB0001F910F91FF9008950F931F93CF93DF9381
:101BC000082FD62F172FC42F81E04132E0F50E9455
:101BD0002A0D1DC080E00E942A0D8823C1F081E0FB
:101BE0008093B2028FEF8093AD021092B102C09346
:101BF0001303802F90E0880F991F81608093140356
:101C000085EE8093BC0081E00E942A0D10C0809177
:101C1000B2028111DFCFE3CF80E00E942A0D88233A
:101C200031F083EB92E0ED2FF12FDC0107C08091C2
:101C3000B202813089F3F5CF2D9121932A2F281BF1
:101C40002C17D0F380E0DF91CF911F910F91089571
:101C50001F920F920FB60F9211240BB60F922F9373
:101C60003F934F935F936F937F938F939F93AF9324
:101C7000BF93CF93EF93FF93C091B900C87FC03655
:101C800009F49FC058F5C83209F45BC090F4C03124
:101C900009F452C038F4CC2309F4F2C0C83009F07A
:101CA000F3C04AC0C83109F44CC0C03209F0ECC0DE
:101CB0005DC0C03409F473C038F4C03309F45BC0AC
:101CC000C83309F0E1C05AC0C03509F45CC0C8355A
:101CD00009F46AC0C83409F0D7C0D4C0C83909F4BF
:101CE000C5C0A8F4C83709F46CC038F4C83609F484
:101CF00068C0C03709F0C8C064C0C83809F4B6C0AD
:101D0000C03909F464C0C03809F0BEC060C0C03B2F
:101D100009F484C038F4C03A09F46BC0C83A09F039
:101D2000B3C07CC0C03C09F4A5C0C83C09F4A2C043
:101D3000C83B09F0A9C087C0809114038093BB0001
:101D400013C09091B10280911303981708F09AC0C4
:101D50008091B102E82FF0E0ED54FD4F9081909317
:101D6000BB008F5F8093B10285EC81C00E94630D40
:101D7000C093AD0289C0C093AD0284C0C093AD02D0
:101D80000E94CD0C81C08091B1029091BB00E82FE0
:101D9000F0E0ED54FD4F90838F5F8093B1029091FE
:101DA000B102809113035FC08091B1029091BB009A
:101DB000E82FF0E0ED54FD4F90838F5F8093B102E8
:101DC00061C083E08093B2021092AE02CDCF8091C9
:101DD000AE02803208F04AC08091AE029091BB0002
:101DE000E82FF0E0ED50FD4F90838F5F8093AE02BF
:101DF000BBCF8091AE02803230F4E091AE02F0E0D1
:101E0000ED50FD4F10826091AE02E0911503F0910C
:101E1000160370E083EF92E009952CC084E0809374
:101E2000B2021092B0021092AF02E0911703F0914B
:101E3000180309958091AF02811105C081E080935C
:101E4000AF021092D3028091B002E82FF0E0ED5281
:101E5000FD4F90819093BB008F5F8093B002909173
:101E6000B0028091AF02981708F47ECF85E8809386
:101E7000BC000AC085EC8093BC001092B20204C082
:101E80001092AD020E94630DFF91EF91CF91BF912F
:101E9000AF919F918F917F916F915F914F913F9102
:101EA0002F910F900BBE0F900FBE0F901F901895A3
:101EB0001F920F920FB60F9211240BB60F922F9311
:101EC0003F934F935F936F937F938F939F93AF93C2
:101ED000BF93EF93FF938091190390911A03892B7D
:101EE00029F0E0911903F0911A030995FF91EF9100
:101EF000BF91AF919F918F917F916F915F914F9122
:101F00003F912F910F900BBE0F900FBE0F901F901F
:101F100018951F920F920FB60F9211240BB60F92C5
:101F20002F933F934F935F936F937F938F939F93E1
:101F3000AF93BF93EF93FF9380911B0390911C038A
:101F4000892B29F0E0911B03F0911C030995FF9167
:101F5000EF91BF91AF919F918F917F916F915F9121
:101F60004F913F912F910F900BBE0F900FBE0F908E
:101F70001F9018951F920F920FB60F9211240BB657
:101F80000F922F933F934F935F936F937F938F9312
:101F90009F93AF93BF93EF93FF9380911D03909115
:101FA0001E03892B29F0E0911D03F0911E03099572
:101FB000FF91EF91BF91AF919F918F917F916F9121
:101FC0005F914F913F912F910F900BBE0F900FBEDD
:101FD0000F901F9018951F920F920FB60F92112419
:101FE0000BB60F922F933F934F935F936F937F9313
:101FF0008F939F93AF93BF93EF93FF9380911F03B2
:1020000090912003892B29F0E0911F03F091200388
:102010000995FF91EF91BF91AF919F918F917F9122
:102020006F915F914F913F912F910F900BBE0F9049
:102030000FBE0F901F9018951F920F920FB60F9220
:1020400011240BB60F922F933F934F935F936F938F
:102050007F938F939F93AF93BF93EF93FF93809161
:10206000210390912203892B29F0E0912103F09123
:1020700022030995FF91EF91BF91AF919F918F91AD
:102080007F916F915F914F913F912F910F900BBE78
:102090000F900FBE0F901F9018951F920F920FB6C2
:1020A0000F9211240BB60F922F933F934F935F9390
:1020B0006F937F938F939F93AF93BF93EF93FF9310
:1020C0008091230390912403892B29F0E09123032D
:1020D000F09124030995FF91EF91BF91AF919F91EA
:1020E0008F917F916F915F914F913F912F910F90C1
:1020F0000BBE0F900FBE0F901F9018951F920F925E
:102100000FB60F9211240BB60F922F933F934F935C
:102110005F936F937F938F939F93AF93BF93EF934F
:10212000FF938091250390912603892B29F0E0915C
:102130002503F09126030995FF91EF91BF91AF918F
:102140009F918F917F916F915F914F913F912F91CF
:102150000F900BBE0F900FBE0F901F9018951F92FF
:102160000F920FB60F9211240BB60F922F933F933D
:102170004F935F936F937F938F939F93AF93BF938F
:10218000EF93FF938091270390912803892B29F0E7
:10219000E0912703F09128030995FF91EF91BF91FA
:1021A000AF919F918F917F916F915F914F913F91EF
:1021B0002F910F900BBE0F900FBE0F901F90189590
:1021C0001F920F920FB60F9211240BB60F922F93FE
:1021D0003F934F935F936F937F938F939F93AF93AF
:1021E000BF93EF93FF93F89481E080930A02E0E6B7
:1021F000F0E080818068808380818F7B808360E0D5
:1022000083E00E94C5127894FF91EF91BF91AF9146
:102210009F918F917F916F915F914F913F912F91FE
:102220000F900BBE0F900FBE0F901F9018951F922E
:102230000F920FB60F9211248F939F93AF93BF937A
:102240008091FC059091FD05A091FE05B091FF05E0
:102250000196A11DB11D8093FC059093FD05A093EF
:10226000FE05B093FF05BF91AF919F918F910F90A5
:102270000FBE0F901F9018951F920F920FB60F92DE
:1022800011248F939F93AF93BF93809100069091F9
:102290000106A0910206B09103060196A11DB11D91
:1022A0008093000690930106A0930206B093030664
:1022B000BF91AF919F918F910F900FBE0F901F9084
:1022C00018958F929F92AF92BF92CF92DF92EF922A
:1022D000FF920F931F93CF93DF932FB7F8948091C2
:1022E000FC059091FD05A091FE05B091FF052FBF63
:1022F0009C01AD0160E070E080E090E001E00E94B0
:1023000054274901D42FC52FB62FA72FF82FE92F17
:1023100002E00E94542759016A017B018C0194015B
:102320004D2F5C2F6B2F7A2F8F2F9E2F0E946327AC
:10233000E9E0AE2EB12CC12CD12CE12CF12C00E027
:1023400010E00E94F726952FB901842FDF91CF91DD
:102350001F910F91FF90EF90DF90CF90BF90AF90C3
:102360009F908F9008958F929F92AF92BF92CF923D
:10237000DF92EF92FF924B015C0107C00E94611156
:102380006C157D058E059F0520F40E9461116B017F
:102390007C010E9461116C197D098E099F096815E5
:1023A00079058A059B0550F3FF90EF90DF90CF9061
:1023B000BF90AF909F908F900895019761F0019723
:1023C00051F0880F991F880F991F02972FB7F89423
:1023D0000197F1F72FBF0895789484B7877F84BF62
:1023E0001092FC051092FD051092FE051092FF055B
:1023F00084B5826084BD84B5816084BD85B582600A
:1024000085BD85B5816085BDEEE6F0E080818160A7
:102410008083E1E8F0E08081826080838081816058
:102420008083E0E8F0E0808181608083E1EBF0E090
:10243000808184608083E1E9F0E080818460808332
:10244000E0EBF0E0808181608083E0E9F0E0808172
:1024500081608083E4E6F0E080818E7F8083ECE71A
:10246000F0E080818F778083808180648083EAE7D9
:10247000F0E08081846080838081826080838081BD
:10248000806880831092C1001092C90008959091D5
:102490002903982B9093290380FF32C08091640018
:1024A0008E7F8093640080917C008F7780937C0086
:1024B00080917C00806480937C0080917A008460AD
:1024C00080937A0080917A00826080937A00809174
:1024D0007A00806880937A00809164008F7780937F
:1024E0006400809164008B7F80936400809164001D
:1024F0008D7F80936400809165008E7F809365005E
:10250000089590917C0020917A00206820937A00B1
:102510009F70981769F090917C008F70907F892B45
:1025200080937C0061E070E080E090E00E94B31155
:1025300080917A00806480937A0080917A0086FD91
:10254000FCCF2091780030917900932F80E0AC018E
:10255000422B9A01C901089590E0FC01ED5FFC4F08
:102560002491FC01EA5CFC4FE491EE2369F0F0E079
:10257000E758FC4FA491B0E08C91611103C0209505
:10258000822301C0822B8C93089590E0FC01E053DC
:10259000FD4F2491FC01ED5FFC4F3491FC01EA5C9E
:1025A000FC4F84918823B1F1222331F1233021F4AF
:1025B000909180009F7705C0243031F49091800085
:1025C0009F7D9093800018C0213019F494B59F77B7
:1025D00004C0223021F494B59F7D94BD0DC02630F7
:1025E00021F49091B0009F7705C0273029F4909195
:1025F000B0009F7D9093B000E82FF0E0EF58FC4FC3
:10260000A491B0E08C91611103C03095832301C087
:10261000832B8C93089590E0FC01E053FD4F2491AF
:10262000FC01ED5FFC4F3491FC01EA5CFC4F8491AE
:10263000882399F1222331F1233021F490918000F5
:102640009F7705C0243031F4909180009F7D909356
:10265000800018C0213019F494B59F7704C022304F
:1026600021F494B59F7D94BD0DC0263021F4909146
:10267000B0009F7705C0273029F49091B0009F7D6E
:102680009093B000E82FF0E0E759FC4FE491F0E0C0
:102690008081832321E030E011F420E030E0C901A3
:1026A0000895BF92CF92DF92EF92FF920F931F9304
:1026B000CF93DF93C82ED62EB42EC0E0D0E0022FE9
:1026C00010E087E0E82EF12CB11008C0B8010C2E04
:1026D00002C0759567950A94E2F709C0F701EC1BF3
:1026E000FD0BB80102C075956795EA95E2F7617038
:1026F00077278C2D0E94C51261E08D2D0E94C51296
:1027000060E08D2D0E94C5122196C830D105E1F6FA
:10271000DF91CF911F910F91FF90EF90DF90CF90BD
:10272000BF9008950E94EC1187ED93E00E94921EE5
:10273000853440F061E081E30E94AC1261E081E306
:102740000E94C51261E070E087ED93E00E94C01C1A
:102750008130B1F48091EA059091EB05A091EC05F0
:10276000B091ED0590688093EA059093EB05A093F6
:10277000EC05B093ED0560E081E090E00E94312A25
:1027800087E20E940B13892B59F160E070E087ED1E
:1027900093E00E94C01C8A3019F5C1C06CE3629FAF
:1027A000A001639F500D1124840F951F0EC02115A9
:1027B000310559F06CE3629FA001639F500D112415
:1027C0009A01205F314F820F931F039748F4809145
:1027D000F9059091FA0580629093FA058093F905C6
:1027E00089E393E00E94DD1989E393E00E949E193A
:1027F00089E393E00E94AD1989E393E00E94651597
:1028000063E070E080E090E00E94B3118091EA05FF
:102810009091EB05A091EC05B091ED05A1FF5EC094
:1028200063E070E080E090E00E94B31161E086E137
:102830000E94AC1263E070E080E090E00E94B3116F
:1028400061E086E10E94C51263E070E080E090E004
:102850000E94B3110E94FD1963E070E080E090E0F7
:102860000E94B31181E00E94201A63E070E080E0D2
:1028700090E00E94B31184E00E942E1A63E070E0A1
:1028800080E090E00E94B31180E00E94291A63E08A
:1028900070E080E090E00E94B3110E941C1A63E097
:1028A00070E080E090E00E94B31166E08CEC93E071
:1028B0000E94391A63E070E080E090E00E94B3115A
:1028C00061E086E10E94AC1260E086E10E94C512E0
:1028D00063E070E080E090E00E94B31163E070E09C
:1028E00080E090E00E94B31187ED93E00E94BE1D4E
:1028F00060932A0370932B0380932C0390932D03F2
:1029000080912A0390912B03A0912C03B0912D0369
:102910000E94C4270E94F9010E941102FDCF89E3A1
:1029200093E00E94DD1989E393E00E942F1889E368
:1029300093E00E9424188091520390E02091540368
:10294000821B91092091510330E040915503241BD3
:102950003109121613060CF421CF29CF109233033C
:1029600082E080932F038CE18093340380EC91E02C
:10297000909336038093350308951F93CF93DF938D
:102980001F92CDB7DEB7162F61E08AE149830E941E
:10299000AC1261E088E10E94AC124981112321F060
:1029A000113009F048C020C041110EC061E08AE139
:1029B0000E94C5128091EA059091EB05A091EC056B
:1029C000B091ED0582602FC04130A9F560E08AE149
:1029D0000E94C5128091EA059091EB05A091EC054B
:1029E000B091ED058D7F1FC041110EC061E088E1FF
:1029F0000E94C5128091EA059091EB05A091EC052B
:102A0000B091ED0581600FC04130A9F460E088E12C
:102A10000E94C5128091EA059091EB05A091EC050A
:102A2000B091ED058E7F8093EA059093EB05A0931E
:102A3000EC05B093ED050F90DF91CF911F910895B4
:102A400061E089E20E94AC1261E088E20E94AC126F
:102A500088ED93E00C94E01E8091DE03882341F022
:102A600080913203811104C087E393E00C94201518
:102A700008950F931F93CF93DF93EC01042F68A762
:102A800061E080E30E94AC1218A5112379F01130A7
:102A900091F461E080E30E94C512013019F482E0F4
:102AA0008B8B09C0011107C01B8B05C060E080E360
:102AB0000E94C5121B8A6AE070E080E090E0DF911E
:102AC000CF911F910F910C94B311CF93DF93EC0131
:102AD0000E942C1540E060E0CE01DF91CF910C9474
:102AE0003915FC01148A158A168A178A108E118EE0
:102AF000128E138E148E158E168E178E10A211A2A2
:102B000012A213A214A215A216A217A20895EF9260
:102B1000FF920F931F93CF93DF93CDB7DEB7EC9760
:102B20000FB6F894DEBF0FBECDBF8C01E3E0F1E03D
:102B300085919491BC01EE24E394F12CEC0EFD1EE2
:102B4000C7010E94CF27E5E0F1E085919491BC0197
:102B5000CE0189960E94CF27F8018689843009F436
:102B600066C040F4823029F108F04BC0813009F092
:102B7000B6C009C0863009F486C008F46EC087303C
:102B800009F0ADC096C0F801818D1F928F93808DA2
:102B90001F928F9387891F928F93828D1F928F939D
:102BA00085891F928F9384891F928F938BE092E087
:102BB00015C0F801818D1F928F93808D1F928F9386
:102BC00087891F928F93828D1F928F9385891F9281
:102BD0008F9384891F928F938FE092E09F938F93BE
:102BE000FF92EF921F9284E68F93C80189969F937C
:102BF0008F930E94E1270FB6F894DEBF0FBECDBFC2
:102C000081C0F801818D1F928F93808D1F928F93C9
:102C100087891F928F93828D1F928F9385891F9230
:102C20008F9384891F928F9383E192E0D7CFF8012D
:102C3000818D1F928F93808D1F928F9387891F9212
:102C40008F93828D1F928F9385891F928F93848992
:102C50001F928F9387E192E0C1CFF801818D1F927F
:102C60008F93808D1F928F9387891F928F93828D70
:102C70001F928F9385891F928F9384891F928F93C0
:102C80008BE192E0ABCFF801818D1F928F93808D05
:102C90001F928F9387891F928F93828D1F928F939C
:102CA00085891F928F9384891F928F938FE192E081
:102CB00095CFF801818D1F928F93808D1F928F93F6
:102CC00087891F928F93828D1F928F9385891F9280
:102CD0008F9384891F928F9383E292E07FCFCE01FE
:102CE00089969F938F931F9284E68F93C80189964C
:102CF0009F938F930E94E1270F900F900F900F905A
:102D00000F900F90075D1F4FC801EC960FB6F89417
:102D1000DEBF0FBECDBFDF91CF911F910F91FF900E
:102D2000EF900895CF92DF92EF92FF920F931F934F
:102D3000CF93DF938C01C62E8091DE03811104C0F6
:102D400088ED93E00E949A1E68E670E088ED93E0BB
:102D50000E94C71E60E070E088ED93E00E94F31FC0
:102D600088ED93E00E94F51F43E150E068E670E0D3
:102D700088ED93E00E942F20E12CF12CC0E0D0E000
:102D8000D12CE4C088ED93E00E94CF1EF801EC0F37
:102D9000FD1F8083C630D10509F467C098F4C230A6
:102DA000D10509F43EC038F4209729F1C130D1058E
:102DB00009F0C7C02BC0C430D10509F440C008F0E9
:102DC00049C03AC0CA30D10509F484C048F4282F5C
:102DD00030E0C830D10509F461C008F06DC050C0C2
:102DE000CC30D10509F492C008F482C0CD30D105B1
:102DF00009F0A7C099C0982F92959F708F702AE014
:102E0000929F800D1124F801818F9BC0982F92957D
:102E10009F708F70FAE09F9F800D1124F801808FC2
:102E200090C0982F92959F708F70FAE09F9F800DB1
:102E30001124F801878B85C0F801868B82C0982FFA
:102E400092959F708F70FAE09F9F800D1124F8017A
:102E5000828F77C0982F92959F708F70FAE09F9F16
:102E6000800D1124F801858B6CC0982F92959F706E
:102E70008F70FAE09F9F800D1124F801848B61C050
:102E800054E0359527955A95E1F727708F70FAE051
:102E90002F9F800D1124F801838F53C044E0359596
:102EA00027954A95E1F727708F70FAE02F9F800DE4
:102EB0001124F801848F45C094E0359527959A95A3
:102EC000E1F723708F70FAE02F9F800D1124F80135
:102ED000858F37C0282F2695269526952670922F08
:102EE000990F990F920F8F70980FF801968F29C044
:102EF000282F2695269526952E70922F990F990F9B
:102F0000920F8F70980FF801978F1BC0282F26956E
:102F1000269526952670922F990F990F920F8F70F4
:102F2000980FF80190A30DC0282F26952695269579
:102F30002670922F990F990F920F8F70980FF801AA
:102F400091A3219603C0FFEFEF1AFF0ACC16DD060E
:102F500058F02AE0E216F10438F488ED93E00E947C
:102F6000C91E882381F30ECFDF91CF911F910F915E
:102F7000FF90EF90DF90CF9008951F93CF93DF9352
:102F8000EC01162F8091DE03811104C088ED93E0DF
:102F90000E949A1E68E670E088ED93E00E94C71ECA
:102FA000612F88ED93E00E94C71FC10FD11D68817A
:102FB00088ED93E00E94C71F88ED93E0DF91CF91E9
:102FC0001F910C94F51FFF920F931F93CF93DF93E4
:102FD0008C01F62E8091DE03811104C088ED93E010
:102FE0000E949A1E68E670E088ED93E00E94C71E7A
:102FF0006F2D88ED93E00E94C71F88ED93E00E943B
:10300000F51F41E050E068E670E088ED93E00E9433
:103010002F20CBE0D0E088ED93E00E94C91E811103
:1030200002C02197C1F788ED93E00E94CF1EF801FE
:10303000EF0DF11D808388ED93E0DF91CF911F911B
:103040000F91FF900C94F51FCF93DF93EC0166E096
:103050000E949216CE01DF91CF910C948715CF92EA
:10306000DF92EF92FF920F931F93CF93DF93CDB731
:10307000DEB7C857D1090FB6F894DEBF0FBECDBF7B
:103080007C016AE00E9492168701075D1F4F84E66B
:10309000F80111928A95E9F7E1EEF0E085919491BB
:1030A000BC01CE018F5A9F4F0E94CF27BE016F5A9D
:1030B0007F4FC8010E94D627F70182A1823009F410
:1030C0006AC030F4882369F0813009F00BC122C056
:1030D000843009F4C7C008F493C0853009F002C1F8
:1030E000F0C0E3EEF0E085919491BC01CE018F5ADF
:1030F0009F4F0E94CF27BE016F5A7F4FC8010E9489
:10310000D627E1EFF0E0859194916E01F9E2CF0EC0
:10311000D11C18C0E5EEF0E085919491BC01CE0180
:103120008F5A9F4F0E94CF27BE016F5A7F4FC80111
:103130000E94D627E1EFF0E0859194916E01E9E2DB
:10314000CE0ED11CBC01C6010E94CF27F701838D92
:103150001F928F93848D1F928F93858D1F928F93D3
:10316000868D1F928F93DF92CF921F9288E28F936A
:10317000EE24E394F12CEC0EFD1EFF92EF920E94E0
:10318000E127B701C8010E94D6270FB6F894DEBF29
:103190000FBECDBFC2C0E7EEF0E085919491BC01B7
:1031A000CE018F5A9F4F0E94CF27BE016F5A7F4F8B
:1031B000C8010E94D627E3EFF0E0859194916E015B
:1031C000E9E2CE0ED11CBC01C6010E94CF27F70157
:1031D000838D1F928F93848D1F928F93858D1F9265
:1031E0008F93DF92CF921F9288E28F93EE24E39425
:1031F000F12CEC0EFD1EFF92EF920E94E127C1CF51
:10320000E9EEF0E085919491BC01CE018F5A9F4F79
:103210000E94CF27BE016F5A7F4FC8010E94D62758
:10322000E5EFF0E0859194916E01E9E2CE0ED11CBC
:10323000BC01C6010E94CF27F701838D1F928F9397
:10324000848D1F928F93DF92CF921F9288E28F938B
:10325000EE24E394F12CEC0EFD1EFF92EF920E94FF
:10326000E1278FCFEBEEF0E085919491BC01CE0188
:103270008F5A9F4F0E94CF27BE016F5A7F4FC801C0
:103280000E94D627E7EFF0E0859194916E01E9E284
:10329000CE0ED11CBC01C6010E94CF27F701838D41
:1032A0001F928F93DF92CF921F9288E28F93EE242A
:1032B000E394F12CEC0EFD1EFF92EF920E94E127A9
:1032C00060CFEDEEF0E085919491BC01CE018F5A74
:1032D0009F4F0E94CF27BE016F5A7F4FC8010E94A7
:1032E000D6271BC0EFEEF0E0859194917E01E1E5D9
:1032F000EE0EF11CBC01C7010E94CF27FF92EF9296
:103300001F9284E68F931F930F930E94E1270F90E3
:103310000F900F900F900F900F90C801C858DF4F7B
:103320000FB6F894DEBF0FBECDBFDF91CF911F91D6
:103330000F91FF90EF90DF90CF900895CF93DF93A0
:10334000EC016EE00E94E3178E858E7F8E876EE023
:10335000CE01DF91CF910C94BD17CF93DF93EC0199
:103360006EE00E94E3178E858D7F8E876EE0CE0122
:10337000DF91CF910C94BD17CF93DF93EC016FE0F9
:103380000E94E3178F858370DF91CF910895CF93CB
:10339000DF93EC010E94BC19882319F0CE56DF4F51
:1033A0008883809148038C7F809348036FE089E392
:1033B00093E0DF91CF910C94BD17CF93DF93EC0195
:1033C00040E061E00E943915CE010E94C719CE018C
:1033D0000E9471156DE0CE010E94921661E08BE2B1
:1033E0000E94AC1260E08BE2DF91CF910C94C51289
:1033F0001092CA0310924C03089561E08EE10E947E
:10340000AC1261E08FE10E94AC1261E08DE10E949C
:10341000AC1260E08EE10E94C51260E08FE10E9474
:10342000C51261E08DE10E94C5128CB580618CBD32
:103430008CB580648CBD08958CB58F7B8CBD089550
:10344000811103C08CB5806202C08CB58F7D8CBDAC
:1034500008959CB5937F982B9CBD08952CB5982F0B
:1034600093702C7F922B9CBD9DB580FB90F99DBDE8
:103470000895CF93C62F61E08DE10E94AC1261E008
:1034800082E20E94AC1261E08DE10E94C51261E00F
:1034900082E20E94C5128091EA059091EB05A0910D
:1034A000EC05B091ED05A2FF08C061E088E00E9444
:1034B000AC1261E088E00E94C5128091EA0590910B
:1034C000EB05A091EC05B091ED0596FF08C061E019
:1034D00089E00E94AC1261E089E00E94C5128091EF
:1034E000EA059091EB05A091EC05B091ED05A3FFE5
:1034F00008C061E082E00E94AC1261E082E00E94BC
:10350000C5128091EA059091EB05A091EC05B09170
:10351000ED05A4FF08C061E082E20E94AC1261E008
:1035200082E20E94C512C330C9F020F4C13061F0BC
:1035300070F407C0C53061F1F0F0C63009F067C023
:1035400033C060E08DE160C060E082E25DC087ED85
:1035500093E00E94A81C60E08CE256C08091EA05CE
:103560009091EB05A091EC05B091ED05A2FF4FC045
:1035700060E088E049C08091EA059091EB05A09158
:10358000EC05B091ED0596FF42C060E089E03CC0DB
:103590008091EA059091EB05A091EC05B091ED05C5
:1035A000A3FF35C060E02FC061E08DE10E94C5122D
:1035B00061E082E20E94C5128091EA059091EB05DC
:1035C000A091EC05B091ED05A2FF04C061E088E098
:1035D0000E94C5128091EA059091EB05A091EC053F
:1035E000B091ED0596FF04C061E089E00E94C5122C
:1035F0008091EA059091EB05A091EC05B091ED0565
:10360000A3FF05C061E082E0CF910C94C512CF9179
:1036100008951092CD031092CC031092CE03109215
:10362000CF031092D0031092D1030895FC01408182
:1036300060E072EC81E090E00E94442061E087E16C
:103640000E94AC1261E087E10E94C51261E08BE04C
:103650000E94AC1260E08BE00E94C51261E08DE236
:103660000E94AC1260E08DE20C94C512DC018091E6
:10367000C50011968C9311978091C40012968C937B
:103680001297E2ECF0E0808113968C93139780916F
:10369000CA0014968C93149780818F7D80838081DB
:1036A0008F7E80838081877F80834C9160E072EC85
:1036B00081E090E00E94442061E087E10E94C51211
:1036C00060E08BE00C94C512CF93DF93EC01409146
:1036D000EA055091EB056091EC057091ED0563E012
:1036E00070E080E090E042FF07C00E94B31161E00B
:1036F0008BE00E94C51202C00E94B31189818093A1
:10370000C5008A818093C4008B818093C2008C8124
:103710008093CA00DF91CF910895EF92FF920F93AB
:103720001F93CF93DF938C01EB010E94361B7E0128
:1037300088E1E81A8CEFF80AFE012196849188232B
:1037400039F0F80160810E943E21CE15DF05A1F716
:10375000C8010E94641B60E070E0CB01DF91CF9153
:103760001F910F91FF90EF9008958F929F92AF92CB
:10377000BF92CF92DF92EF92FF920F931F93CF935E
:10378000DF93EC016A017B01122F0E94361B20E0BF
:1037900030E0A901C701B6010E94BA2487FF08C022
:1037A00068818DE20E943E21F7FAF094F7F8F094D8
:1037B000B12C60E070E080E09FE307C020E030E0E3
:1037C00040E251E40E94BE24B394B112F7CF262FF9
:1037D000372F482F592FC701B6010E9456244B019D
:1037E0005C01792D9B2D0E942B256B017C010E9491
:1037F00057259B01AC01682D792D8A2D9B2D0E94A8
:103800005524B62EA72E982E892E08812AE030E066
:1038100040E050E0B601C7010E944B211123B1F1F5
:1038200068818EE20E943E2131C020E030E040E21B
:1038300051E4D501F4016B2F7A2D8F2F982D0E9422
:103840000D264B015C01792D9B2D0E9426256B01D5
:10385000EE24D7FCE094FE2C08812AE030E040E022
:1038600050E0C701B6010E944B21C701B6010E947A
:1038700059259B01AC01682D792D8A2D9B2D0E9425
:103880005524B62EA72E982E892E11501111CDCF6A
:10389000CE01DF91CF911F910F91FF90EF90DF90BC
:1038A000CF90BF90AF909F908F900C94641B2AE0B4
:1038B0000C94B51BCF93DF93EC010E94361B8881DB
:1038C0000E944021CE01DF91CF910C94641BEF92B6
:1038D000FF920F931F93CF93DF9300D0CDB7DEB746
:1038E0007C010E948D1B8C01C70169837A830E9431
:1038F0005A1C69817A81C8010F900F90DF91CF9196
:103900001F910F91FF90EF9008951092D2030895A8
:103910001F93CF93DF931F92CDB7DEB7162F61E0D1
:10392000812F49830E94AC124981413011F461E03A
:1039300003C0411108C060E0812F0F90DF91CF914B
:103940001F910C94C5120F90DF91CF911F91089594
:1039500061E087E10E94AC1261E084E20E94AC1257
:1039600061E085E20E94AC1261E087E10E94C5122D
:1039700061E084E20E94C51261E085E20C94C51208
:10398000CB010C94232A8F929F92AF92BF92CF9239
:10399000DF92EF92FF920F931F93CF93DF93CDB7F8
:1039A000DEB7C75FD1090FB6F894DEBF0FBECDBF3B
:1039B0008E0100511F4F580128E0A20EB11C7E015C
:1039C00081E8E80EF11CCC24C394D12CCC0EDD1E72
:1039D0006DE0CE018F519F4F0E947C2340E06CE050
:1039E00087ED93E00E94881C40E06DE087ED93E056
:1039F0000E94881CF801108211821282138261E0F9
:103A00008CE00E94AC1261E08CE00E94C512CE01F5
:103A10008F519F4F0E94182241E06DE087ED93E0A7
:103A20000E94881C6AE070E080E090E00E94B31180
:103A300040E063E3CE018F519F4F0E94E92262E391
:103A400070E080E090E00E94B3114701CE018F51F9
:103A50009F4F0E94BE22F2E08F1A9108F4018083EA
:103A6000118261E070E080E090E00E94B3118C145C
:103A70009D0461F7FE017196D701C60180599F4FE1
:103A8000219131912D933D93E817F907C9F731EE54
:103A9000832E912C8C0E9D1E81E090E0A0E0B0E082
:103AA000F401329122914F012130310569F4F8017E
:103AB0004081518162817381480F591F6A1F7B1FAA
:103AC0004083518362837383880F991FAA1FBB1F92
:103AD0008E149F0429F7F80180819181A281B3811E
:103AE0008F3F9F4FAF4FBF4F29F4F80110821182D3
:103AF0001282138260E08CE00E94C51240E06CE00C
:103B000087ED93E00E94881C40E06DE087ED93E034
:103B10000E94881C0C5F1F4F0A151B0509F058CF27
:103B2000C051DF4F088119812A813B81C05FD0409D
:103B3000CC50DF4F88819981AA81BB81C45FD0407E
:103B4000081719072A073B0719F000E010E0980151
:103B5000B801C901C950DF4F0FB6F894DEBF0FBEE0
:103B6000CDBFDF91CF911F910F91FF90EF90DF902C
:103B7000CF90BF90AF909F908F900895CF92DF929B
:103B8000EF92FF920E94C31C6B017C0161157105CD
:103B90008105910591F483EE90E00E942B2A6A3012
:103BA0002AE072078207920741F06F3F2FEF7207FA
:103BB0008207920711F06B017C01B601C701FF90EB
:103BC000EF90DF90CF900895AF92BF92DF92EF9287
:103BD000FF920F931F93CF93DF93CDB7DEB7A397D9
:103BE0000FB6F894DEBF0FBECDBF162FD42E4423E0
:103BF00061F040E060E087E393E00E94BD146AE07A
:103C000070E080E090E00E94B311612FCE01019638
:103C10000E947C23BE01645E7F4FCE0101960E940C
:103C20009A23811105C0CE0101960E946F2362C0C4
:103C300067E0CE014C960E9424249BA189135AC0B0
:103C40008C8D803119F0883209F054C08E010F5FDD
:103C50001F4FC8010E94D621BE01645E7F4FC8017C
:103C60000E94472340E064E4C8010E94E9226EEE0E
:103C700072E080E090E00E94B311C8010E94D6215A
:103C8000BE01645E7F4FC8010E94472340E06EEB97
:103C9000C8010E94E9227E0180E1E80EF11C5E016C
:103CA000E9E1AE0EB11CC8010E942B23F7018193FC
:103CB0007F01EA15FB05B9F7C8010E946F237989D6
:103CC00060E08889682B882777FD8095982F0E946F
:103CD000592520E030E040E85DE30E940D267B019D
:103CE0008C01DD2059F041E060E087E393E00E9421
:103CF000BD1404C0E12CF12C0AE714EC6E2D7F2DCD
:103D0000802F912FA3960FB6F894DEBF0FBECDBFC4
:103D1000DF91CF911F910F91FF90EF90DF90BF90B7
:103D2000AF9008958FED90E00E94232A8F3F09F411
:103D300080E00895CF93DF93EC0180E2E6E0F4E0C9
:103D4000DF01982F1D929A95E9F7109205041092C1
:103D50000404E3EEF3E0DF011D928A95E9F7109287
:103D6000E2031092E1030E94870C81E08E8384E0DD
:103D700090E0DF91CF910C94DD1181E08093E0031E
:103D8000609303041092E2031092E10308950C94EF
:103D9000BD1E8091040490910504891B08959091A3
:103DA000050480910404981748F4E92FF0E0EA5FD5
:103DB000FB4F80819F5F90930504089580E00895F4
:103DC000CF93DF93EC010E94D30C1E82DF91CF9141
:103DD00008954091EA055091EB056091EC057091D2
:103DE000ED054170FC0140834091EA055091EB05DF
:103DF0006091EC057091ED0576956795579547951F
:103E0000417041838091EA059091EB05A091EC050A
:103E1000B091ED0584FD49C08091EA059091EB05D4
:103E2000A091EC05B091ED0585FD3FC08091EA05BC
:103E30009091EB05A091EC05B091ED0586FD35C0A4
:103E40008091EA059091EB05A091EC05B091ED050C
:103E500087FD2BC08091EA059091EB05A091EC05C0
:103E6000B091ED0590FD21C08091EA059091EB05A0
:103E7000A091EC05B091ED0591FD17C08091EA0588
:103E80009091EB05A091EC05B091ED0593FD0DC06F
:103E9000089540E060E087E393E00E94BD1440E0B5
:103EA00061E087E393E00C94BD148091DF038823E5
:103EB00081F30895CF93DF93EC018091EA0590910F
:103EC000EB05A091EC05B091ED0584FD58C0809103
:103ED000EA059091EB05A091EC05B091ED0585FD0B
:103EE0004EC08091EA059091EB05A091EC05B09150
:103EF000ED0586FD44C08091EA059091EB05A09107
:103F0000EC05B091ED0587FD3AC08091EA059091EE
:103F1000EB05A091EC05B091ED0590FD30C040910E
:103F2000EA055091EB056091EC057091ED0551FDAE
:103F300026C04091EA055091EB056091EC05709127
:103F4000ED0553FD1CC020C041E060E087E393E035
:103F50000E94BD140CC08981811106C041E060E05F
:103F600087E393E00E94BD14888181110DC041E078
:103F700061E087E393E0DF91CF910C94BD148091D1
:103F8000DF038111E8CFE0CFDF91CF910895CF9388
:103F9000DF931F92CDB7DEB769838091E00388235A
:103FA00089F08091E1038032D0F48091E203E82F20
:103FB000F0E0ED51FC4F60838F5F8093E2038093CC
:103FC000E1030DC088ED93E00E94E91E61E0CE019F
:103FD00001960E94B40C88ED93E00E945A1F0F9046
:103FE000DF91CF9108950C94C71FCF9388ED93E094
:103FF0000E94E91E21E04091E10363EE73E08091AD
:1040000003040E94770DC82F1092E2031092E1037F
:104010001092E00388ED93E00E945A1F8C2FCF91FD
:104020000895CF93DF93D62FC42F88ED93E00E949D
:10403000E91EC13208F0C0E24C2F66E074E08D2F1B
:104040000E94DC0DD82F10920504C093040488ED63
:1040500093E00E945A1F8D2FDF91CF9108950C9409
:1040600011201092DF031092D8031092D9038AEF27
:1040700090E0A0E0B0E08093DA039093DB03A0939C
:10408000DC03B093DD030895CF92DF92EF92FF92AD
:104090006B017C01411134C088E00E944712C701C6
:1040A000B60122E030E040E050E00E94D926305FC7
:1040B000414F5F4FCA01B901A70196010E94D9265D
:1040C000DA01C9010197A109B109892F9A2FAB2FF4
:1040D000BB27A7FDBA958093C50021502093C4004B
:1040E0008091C10080618093C1008091C10088608F
:1040F0008093C1008091C10080688093C10033C06B
:1041000080E10E944712C701B60122E030E040E0A2
:1041100050E00E94D926305F414F5F4FCA01B9017C
:10412000A70196010E94D926DA01C9010197A109C8
:10413000B109892F9A2FAB2FBB27A7FDBA95809382
:10414000CD0021502093CC008091C90080618093E4
:10415000C9008091C90088608093C9008091C9001E
:1041600080688093C900FF90EF90DF90CF90089512
:10417000611107C09091C00095FFFCCF8093C600ED
:1041800008959091C80095FFFCCF8093CE000895CC
:104190001F920F920FB60F9211242F933F934F93BC
:1041A0005F936F937F938F939F93AF93BF93EF939F
:1041B000E091C60020912C0430912D04C901019694
:1041C00060E072E00E94A32640912A0450912B04E3
:1041D0008417950741F0D901AC5FB74FEC939093EA
:1041E0002D0480932C04EF91BF91AF919F918F91FB
:1041F0007F916F915F914F913F912F910F900FBEE3
:104200000F901F9018951F920F920FB60F921124C6
:104210002F933F934F935F936F937F938F939F93CE
:10422000AF93BF93EF93E091CE002091280430919B
:104230002904C901019660E072E00E94A326409122
:104240002604509127048417950741F0D901AC5FEB
:10425000B94FEC939093290480932804EF91BF9178
:10426000AF919F918F917F916F915F914F913F910E
:104270002F910F900FBE0F901F9018950C94B8209F
:10428000CF93C82F682F8DE00E94B8206C2F8AE052
:10429000CF910C94B8204F925F926F927F928F9241
:1042A0009F92AF92BF92CF92DF92EF92FF920F93C5
:1042B000CF93DF93CDB7DEB7A0970FB6F894DEBFEC
:1042C0000FBECDBF29013A01611571058105910528
:1042D000C9F4602F80E3A0960FB6F894DEBF0FBE3E
:1042E000CDBFDF91CF910F91FF90EF90DF90CF90F6
:1042F000BF90AF909F908F907F906F905F904F9006
:104300000C94B820EE24E394F12CEC0EFD1E812CCD
:10431000912C5401A30192010E94B726F7016193E9
:104320007F01FFEF8F1A9F0AAF0ABF0AB901CA01C6
:10433000611571058105910569F7CC24CA94DC2CBF
:104340007601C80CD91CEA1CFB1C14C0E1E0F0E0AB
:10435000EC0FFD1FEC0DFD1D80818A3010F4805D97
:1043600001C0895C602F0E94B82081E0C81AD10882
:10437000E108F108EFEFCE16DE06EE06FE0631F795
:10438000A0960FB6F894DEBF0FBECDBFDF91CF91E0
:104390000F91FF90EF90DF90CF90BF90AF909F90E4
:1043A0008F907F906F905F904F900895FF920F9342
:1043B0001F93CF93DF93FC011081C181D281F894C8
:1043C0008981012F00958023898378948DE7F82EC9
:1043D000FA9431F182E090E00E94DD11888181231E
:1043E000B9F3F8948A8180238A838981812B898318
:1043F00078948AE991E00E94DD11F8948981802304
:1044000089838CE390E00E94DD1188818123C1E0E3
:1044100009F0C0E078948DE591E00E94DD1101C0C3
:10442000C0E08C2FDF91CF911F910F91FF900895E5
:10443000CF92DF92EF92FF921F93CF93DF93EC0125
:1044400060E08E850E94AC120E9461116B017C01BC
:104450001EE7115089F182E090E00E94DD110E9478
:1044600061116C157D058E059F0520F40E94611178
:104470006B017C018E850E940B13892BF9F40E943D
:1044800061116C197D098E099F09643F7140810596
:104490009105F8F213C00E9461116B017C0111308B
:1044A000C1F10E9461116C197D098E099F09643F59
:1044B000714081059105D0F010E02BC061E08E8540
:1044C0000E94AC1260E08E850E94C51284E591E0E6
:1044D0000E94DD110E9461116B017C018E850E949A
:1044E0000B1311E0892BD9F210E0D9CF8E850E94F1
:1044F0000B1311E0892B09F010E089E090E00E9495
:10450000DD110E9461116C157D058E059F0538F641
:10451000C2CF812FDF91CF911F91FF90EF90DF905D
:10452000CF9008951F93CF93DF93FC011081C18139
:10453000D281912F9095F8948A8189238A838981E9
:10454000812B898360FF0BC089E090E00E94DD1120
:104550008A81812B8A8378948FE290E00AC087E376
:1045600090E00E94DD118A81812B8A83789485E016
:1045700090E0DF91CF911F910C94DD110F931F9369
:10458000CF93DF93FC011081C181D281F89489819E
:10459000812B89838A81012F009580238A8382E081
:1045A00090E00E94DD1189818023898387E090E07B
:1045B0000E94DD11C88178948DE290E00E94DD11A7
:1045C0001C2381E009F480E0DF91CF911F910F91CE
:1045D0000895CF92DF92EF92FF920F931F93CF93A4
:1045E000DF931F92CDB7DEB76C01E62E08E010E036
:1045F000FF24F3949F2D9E2161E009F460E0C60141
:1046000049830E949222FF0C015011094981011532
:10461000110581F7411115C0F894D6011196ED915D
:10462000FC91129791818C918095892381831196B9
:10463000ED91FC91129792818C91809589238283D0
:1046400078940F90DF91CF911F910F91FF90EF9091
:10465000DF90CF900895EF92FF920F931F93CF9327
:10466000DF938C01C8E0D0E0F12CEE24E394C80184
:104670000E94BE228111FE28EE0C2197C1F78F2DDA
:10468000DF91CF911F910F91FF90EF900895CF92FE
:10469000DF92FF920F931F93CF93DF931F92CDB7BB
:1046A000DEB78C01F62E40E065E579830E94E922B1
:1046B000CF2C7981D72E98E0F92EF60161916F0108
:1046C00040E0C8010E94E922FA94B9F70F90DF9107
:1046D000CF911F910F91FF90DF90CF900895FC0133
:1046E0001386158614861286118610861782168206
:1046F0001582148213820895CF93DF93EC01862FE5
:104700006E8760E00E94AC128E8590E0FC01ED5F48
:10471000FC4FE491E883FC01EA5CFC4FE491F0E09B
:10472000E759FC4FE491E9831A82CE01DF91CF91E2
:104730000C946F23BF92CF92DF92EF92FF920F9370
:104740001F93CF93DF93EC01C62EB72E8D85811179
:1047500056C0CE010E94D621811104C01B861D8641
:104760001C8668C040E060EFCE010E94E92201E0B3
:10477000F12CE12C11E0CE010E94BE22D82ECE01F8
:104780000E94BE2291E0D91203C08130A1F42FC053
:10479000D81219C08B85181738F4FE01EF0DF11DE2
:1047A0008381802341F402C0181729F060E019309A
:1047B000D0F51C8738C0FE01EF0DF11D8381802BE1
:1047C000838361E009C06D2DFE01EF0DF11D202FE7
:1047D0002095938192239383CE010E9492221F5FA2
:1047E000000F11F4F39401E087E08F1520F61134E7
:1047F00030F0EB86E11019C081E08D8716C01B8672
:104800001D861C8680E0EC2DFB2D20E030E0DE01D3
:10481000A20FB31F13969C9191932F5F3F4F2830A7
:104820003105A9F707C0E12ECFCF8B81882339F35B
:1048300081E0E9CFDF91CF911F910F91FF90EF9031
:10484000DF90CF90BF900895FC0180E00FC04191B0
:1048500098E0282F30E035952795842780FF02C007
:104860008CE82827822F4695915099F7615078F768
:104870000895FC01128A118E138EDC01A356BE4FDF
:1048800089E111968C93119714961C92DF01AE5515
:10489000BE4F1C9212961C92E956FE4F1182108256
:1048A00008958EE294E00C9439245058BB27AA272F
:1048B0000ED075C166D130F06BD120F031F49F3F3E
:1048C00011F41EF45BC10EF4E095E7FB51C1E92F32
:1048D00077D180F3BA17620773078407950718F03A
:1048E00071F49EF58FC10EF4E0950B2EBA2FA02D1A
:1048F0000B01B90190010C01CA01A0011124FF278D
:10490000591B99F0593F50F4503E68F11A16F04087
:10491000A22F232F342F4427585FF3CF4695379586
:104920002795A795F0405395C9F77EF41F16BA0B4B
:10493000620B730B840BBAF09150A1F0FF0FBB1FF9
:10494000661F771F881FC2F70EC0BA0F621F731F42
:10495000841F48F4879577956795B795F7959E3F9F
:1049600008F0B3CF9395880F08F09927EE0F97952D
:1049700087950895D9D008F481E008950CD00FC12F
:1049800007D140F0FED030F021F45F3F19F0F0C0C5
:10499000511139C1F3C014D198F39923C9F35523A8
:1049A000B1F3951B550BBB27AA2762177307840722
:1049B00038F09F5F5F4F220F331F441FAA1FA9F3D8
:1049C00033D00E2E3AF0E0E830D091505040E695CA
:1049D000001CCAF729D0FE2F27D0660F771F881F2B
:1049E000BB1F261737074807AB07B0E809F0BB0B1A
:1049F000802DBF01FF2793585F4F2AF09E3F51053E
:104A000068F0B6C000C15F3FECF3983EDCF38695DA
:104A100077956795B795F7959F5FC9F7880F911DB3
:104A20009695879597F90895E1E0660F771F881F9F
:104A3000BB1F621773078407BA0720F0621B730B52
:104A4000840BBA0BEE1F88F7E095089504D06894A4
:104A5000B111D9C00895BCD088F09F5790F0B92FFC
:104A60009927B751A0F0D1F0660F771F881F991FC3
:104A70001AF0BA95C9F712C0B13081F0C3D0B1E0D5
:104A80000895C0C0672F782F8827B85F39F0B93FE5
:104A9000CCF3869577956795B395D9F73EF49095C5
:104AA0008095709561957F4F8F4F9F4F0895E89443
:104AB00009C097FB3EF490958095709561957F4F66
:104AC0008F4F9F4F9923A9F0F92F96E9BB27939514
:104AD000F695879577956795B795F111F8CFFAF424
:104AE000BB0F11F460FF1BC06F5F7F4F8F4F9F4F55
:104AF00016C0882311F096E911C0772321F09EE8B3
:104B0000872F762F05C0662371F096E8862F70E018
:104B100060E02AF09A95660F771F881FDAF7880FF2
:104B20009695879597F90895990F0008550FAA0B48
:104B3000E0E8FEEF16161706E807F907C0F01216B0
:104B40001306E407F50798F0621B730B840B950BB3
:104B500039F40A2661F0232B242B252B21F4089508
:104B60000A2609F4A140A6958FEF811D811D0895A5
:104B700097F99F6780E870E060E008959FEF80EC10
:104B8000089500240A9416161706180609060895B3
:104B900000240A9412161306140605060895092E19
:104BA0000394000C11F4882352F0BB0F40F4BF2B88
:104BB00011F460FF04C06F5F7F4F8F4F9F4F0895C8
:104BC00057FD9058440F551F59F05F3F71F04795BE
:104BD000880F97FB991F61F09F3F79F087950895A3
:104BE000121613061406551FF2CF4695F1DF08C0C2
:104BF000161617061806991FF1CF869571056105DF
:104C000008940895E894BB2766277727CB0197F986
:104C100008958ADF08F48FEF08950BD0C0CFB1DF7D
:104C200028F0B6DF18F0952309F0A2CFA7CF112402
:104C3000EACFC6DFA0F3959FD1F3950F50E0551F43
:104C4000629FF001729FBB27F00DB11D639FAA27E1
:104C5000F00DB11DAA1F649F6627B00DA11D661F30
:104C6000829F2227B00DA11D621F739FB00DA11D51
:104C7000621F839FA00D611D221F749F3327A00D0B
:104C8000611D231F849F600D211D822F762F6A2FA7
:104C900011249F5750408AF0E1F088234AF0EE0F2C
:104CA000FF1FBB1F661F771F881F91505040A9F739
:104CB0009E3F510570F05CCFA6CF5F3FECF3983E6E
:104CC000DCF3869577956795B795F795E7959F5FA0
:104CD000C1F7FE2B880F911D9695879597F908953A
:104CE000A29FB001B39FC001A39F01D0B29F700DDE
:104CF000811D1124911D08950E947026A59F900D7D
:104D0000B49F900DA49F800D911D11240895B7FFAD
:104D10000C947C260E947C26821B930B0895AA1B70
:104D2000BB1B51E107C0AA1FBB1FA617B70710F096
:104D3000A61BB70B881F991F5A95A9F780959095C8
:104D4000BC01CD01089597FB072E16F4009407D0FF
:104D500077FD09D00E948F2607FC05D03EF4909580
:104D600081959F4F0895709561957F4F0895A1E2B9
:104D70001A2EAA1BBB1BFD010DC0AA1FBB1FEE1FD5
:104D8000FF1FA217B307E407F50720F0A21BB30B20
:104D9000E40BF50B661F771F881F991F1A9469F79C
:104DA00060957095809590959B01AC01BD01CF01F8
:104DB0000895052E97FB16F4009407D057FD0DD0EB
:104DC0000E94B72607FC09D07EF4909580957095D7
:104DD00061957F4F8F4F9F4F089550954095309527
:104DE00021953F4F4F4F5F4F0895689401C0E8945D
:104DF0008F929F92CF93DF930E940327DF91CF91F1
:104E00009F908F90089588249924F401E401B0E4E0
:104E10009F93AA279A158B049C04ED05FE05CF05E8
:104E2000D007A10798F4AD2FDC2FCF2FFE2FE92D4F
:104E3000982C892E982F872F762F652F542F432F4C
:104E4000322F2227B85031F7BF9127C01B2EBF91B8
:104E5000BB27220F331F441F551F661F771F881F54
:104E6000991F881C991CEE1FFF1FCC1FDD1FAA1F56
:104E7000BB1F8A149B04EC05FD05CE05DF05A007CA
:104E8000B10748F08A189B08EC09FD09CE09DF0933
:104E9000A00BB10B21601A94E1F62EF49401AF013E
:104EA000BE01CD01000C08950F930F7351F0220F36
:104EB000331F441F551F661F771F881F991F0A95B0
:104EC000B1F70F9108952A0D3B1D4C1D5D1D6E1D00
:104ED0007F1D801F911F08950790F691E02D099482
:104EE0008F929F92AF92BF92CF92DF92EF92FF92FA
:104EF000CF93DF93EC01688179818A819B81611571
:104F000071058105910521F464E279ED8BE597E067
:104F10002DE133EF41E050E00E94D92649015A01CA
:104F20009B01AC01A7EAB1E40E947C266B017C01E5
:104F3000ACEEB4EFA50194010E948A26C60ED71EDE
:104F4000E81EF91EF7FE06C081E0C81AD108E10884
:104F500080E8F80AC882D982EA82FB82E894D7F80E
:104F6000EE24FF24C601DF91CF91FF90EF90DF90F8
:104F7000CF90BF90AF909F908F9008950C94702722
:104F800086E092E00C947027A0E0B0E080930602E7
:104F900090930702A0930802B09309020895FB01C1
:104FA000DC0105900D920020E1F70895FB01DC0182
:104FB0000D900020E9F7119701900D920020E1F784
:104FC00008950F931F93CF93DF93CDB7DEB72E973E
:104FD0000FB6F894DEBF0FBECDBF0D891E898F8935
:104FE000988D26E02C831A83098397FF02C080E006
:104FF00090E801979E838D83CE014B96AC01698D1D
:105000007A8DCE0101960E941E284D815E8157FD4A
:105010000AC02F813885421753070CF49A01F80112
:10502000E20FF31F10822E960FB6F894DEBF0FBE6C
:10503000CDBFDF91CF911F910F9108952F923F9295
:105040004F925F926F927F928F929F92AF92BF9298
:10505000CF92DF92EF92FF920F931F93CF93DF9344
:10506000CDB7DEB72C970FB6F894DEBF0FBECDBF1D
:105070007C016B018A01FC0117821682838181FF0A
:10508000C6C188248394912C8C0E9D1EF7019381B8
:10509000F60193FD859193FF81916F01882309F4B7
:1050A000B2C1853239F493FD859193FF81916F01EF
:1050B000853229F4B70190E00E94552AE7CF512CA0
:1050C000312C20E02032A8F48B3261F028F48032B9
:1050D00051F0833271F40BC08D3239F0803349F4D2
:1050E000216028C02260246025C0286023C0206180
:1050F00021C027FD27C0382F30533A3078F426FFDF
:1051000006C0FAE05F9E300D1124532E13C08AE0D2
:10511000389E300D1124332E20620CC08E3221F4C3
:1051200026FD71C1206406C08C3611F4206802C0CF
:10513000883641F4F60193FD859193FF81916F01CB
:105140008111C0CF982F9554933018F0905293301E
:1051500028F40C5F1F4FFFE3F9830DC0833631F055
:10516000833771F0833509F05EC023C0F801808178
:1051700089830E5F1F4F44244394512C540115C062
:105180003801F2E06F0E711CF801A080B18026FF9B
:1051900003C0652D70E002C06FEF7FEFC5012C8763
:1051A0000E944A2A2C0183012C856FE7262E222299
:1051B00018C03801F2E06F0E711CF801A080B180B8
:1051C00026FF03C0652D70E002C06FEF7FEFC501C1
:1051D0002C870E943F2A2C012C8550E8252E222A5C
:1051E000830123FC1CC006C0B70180E290E00E944E
:1051F000552A3A94832D90E048165906A8F30FC01B
:10520000F50127FC859127FE81915F01B70190E0B0
:105210000E94552A31103A94F1E04F1A5108411476
:10522000510471F7EDC0843611F0893641F5F8016B
:1052300027FF07C060817181828193810C5F1F4FBE
:1052400008C060817181882777FD8095982F0E5F57
:105250001F4F4FE6B42EB22297FF09C0909580955C
:10526000709561957F4F8F4F9F4FF0E8BF2A2AE0DE
:1052700030E0A4010E94812AA82EA81843C08537D7
:1052800031F43FEEB32EB2222AE030E024C099EF91
:10529000B92EB2228F36B9F020F4883509F0B3C0A8
:1052A0000DC0803721F0883709F0ADC002C020E181
:1052B000B22AB4FE0BC084E0B82A08C024FF09C09B
:1052C000E6E0BE2A06C028E030E005C020E130E07C
:1052D00002C020E132E0F801B7FE07C060817181B1
:1052E000828193810C5F1F4F06C06081718180E0D5
:1052F00090E00E5F1F4FA4010E94812AA82EA818DB
:10530000FFE7BF22B6FE0BC02B2D2E7FA51450F455
:10531000B4FE0AC0B2FC08C02B2D2E7E05C07A2C2C
:105320002B2D03C07A2C01C0752C24FF0DC0FE016B
:10533000EA0DF11D8081803311F4297E09C022FF1E
:1053400006C07394739404C0822F867809F0739416
:1053500023FD14C020FF0FC05A2C731460F4530CAB
:105360005718732C08C0B70180E290E02C870E9488
:10537000552A73942C857314B0F304C0731410F47D
:10538000371801C0312C24FF12C0B70180E390E030
:105390002C870E94552A2C8522FF1EC021FF03C0A6
:1053A00088E590E002C088E790E0B7010CC0822F4A
:1053B000867891F021FD02C080E201C08BE227FDDA
:1053C0008DE2B70190E00E94552A06C0B70180E344
:1053D00090E00E94552A5A94A514C0F3AA94F401AF
:1053E000EA0DF11DB701808190E00E94552AA110BD
:1053F000F5CF06C0B70180E290E00E94552A3A94AA
:105400003110F8CF43CEF7012681378102C02FEF4C
:105410003FEFC9012C960FB6F894DEBF0FBECDBF8B
:10542000DF91CF911F910F91FF90EF90DF90CF9080
:10543000BF90AF909F908F907F906F905F904F90B4
:105440003F902F900895F999FECF92BD81BDF89AB3
:10545000992780B50895A6E1B0E044E050E00C94AF
:10546000E12A262FF999FECF1FBA92BD81BD20BD3A
:105470000FB6F894FA9AF99A0FBE01960895FC01B6
:105480000590615070400110D8F7809590958E0F6F
:105490009F1F0895FC016150704001900110D8F7E2
:1054A000809590958E0F9F1F08950F931F93CF9314
:1054B000DF938C01EB018B8181FD03C00FEF1FEFA8
:1054C0001AC082FF0DC02E813F818C819D812817DB
:1054D000390764F4E881F9810193F983E88306C010
:1054E000E885F985802F0995892B41F78E819F8169
:1054F00001969F838E83C801DF91CF911F910F91F9
:105500000895FA01AA27283051F1203181F1E89459
:105510006F936E7F6E5F7F4F8F4F9F4FAF4FB1E0A6
:105520003ED0B4E03CD0670F781F891F9A1FA11DA1
:10553000680F791F8A1F911DA11D6A0F711D811DA2
:10554000911DA11D20D009F468943F912AE0269F67
:1055500011243019305D3193DEF6CF010895462FC6
:105560004770405D4193B3E00FD0C9F7F6CF462FA7
:105570004F70405D4A3318F0495D31FD4052419310
:1055800002D0A9F7EACFB4E0A695979587957795CD
:105590006795BA95C9F700976105710508959B0154
:1055A000AC010A2E06945795479537952795BA95DD
:1055B000C9F7620F731F841F951FA01D0895DC019A
:1055C000CB01FC01F999FECF06C0F2BDE1BDF89A0E
:1055D000319600B40D9241505040B8F70895F894B8
:0255E000FFCFFB
:1055E2000000040A2000010000000153756E004D06
:1055F2006F6E005475650057656400546875004607
:1056020072690053617400496E76616C6964204767
:105612004D542076616C7565003A3A3A3A3A3A004E
:00000001FF
