:100000000C9486040C94622D0C94932D0C94C42DA6
:100010000C94F52D0C94262E0C94572E0C94882EAF
:100020000C94B92E0C94B5040C94B5040C94B5043E
:100030000C94460D0C94B5040C94B5040C94A20DCC
:100040000C94B5040C94B5040C94B5040C94B5044C
:100050000C94B5040C94B5040C94B5040C947D0D6B
:100060000C94B5040C948C100C94B5040C94B50449
:100070000C94B5040C94B5040C94B5040C94B5041C
:100080000C94B5040C94B5040C94B5040C94B5040C
:100090000C94C7100C94B5040C94B5040C94322C39
:1000A0000C94B5040C94B5040C94B5040C94B504EC
:1000B0000C94B5040C94B5040C94B5040C94B504DC
:1000C0000C94B5040C94B5040C94B504436F6D7096
:1000D0006C657465206578616D706C652028545876
:1000E000206E6F646529000A312E204372656174A9
:1000F0006564206672616D6520746F20626520738F
:10010000656E74000A322E2053656E642061207083
:1001100061636B657420746F207468652052582089
:100120006E6F64653A200073656E64206F6B0073B8
:10013000656E64206572726F72000A332E205761FB
:10014000697420666F7220616E20696E636F6D69DD
:100150006E67206D657373616765002D2D3E2044C9
:100160006174613A20002D2D3E204C656E677468E5
:100170003A20002D2D3E20536F75726365204D414E
:100180004320616464726573733A20004572726F34
:100190007220726563656976696E6720612070619F
:1001A000636B65743A000A2D2D2D2D2D2D2D2D2DCF
:1001B0002D2D2D2D2D2D2D2D2D2D2D2D2D2D2D2D6F
:1001C0002D2D2D2D2D2D2D2D2D00F604F904FD04A2
:1001D0000005040508050C051005140517051B0589
:1001E0001E05220526052A052F05320535053A0587
:1001F0003E054305460549054D055105540558057D
:100200005C056005630568056B056E057105750580
:1002100079057E05840589058C059005930596056D
:1002200099059C05A005A305A705AB05AE05B1057D
:10023000B405B705BB05BF05C405C805CB05CF058B
:10024000D405D905DD05E105E905ED05F405F80559
:10025000FC050206060609060C061006130618061B
:100260001B062006250629062E06330637063D0600
:10027000410647064D0654065A06600664066D069A
:1002800077067B06800685068A068E069306980604
:100290009D06A406AB06B206B906BF06C506CB0688
:1002A000CF06D606DC06E206E806EE06F306F806FA
:1002B000FD06020707070C0713071A072107260781
:1002C0002B072F07340739073F0745074C0752070D
:1002D00059075F0766076D0774077B078107880763
:1002E0008E0795079C07A307A907B007B607BC07A9
:1002F000C307CB07CE07D107D307D707DD07E20730
:10030000E707ED07F307F907FF0705080B081108D2
:1003100017081D08230829082E08330838083E0846
:100320004408020202020202020202020202020265
:1003300002020202000000000200020000020202AB
:100340000201000202020202020202020202020092
:100350000202020202020002010303030000010183
:100360000201040303030303020202020202020267
:100370000202020202020200000004020202020261
:10038000020002020202020202020202020202024F
:10039000020200000000000000000002020402004F
:1003A0000000020202020202020202020202020231
:1003B000020202020202020202020202020202021D
:1003C000020202020202020202020202020245527A
:1003D000522073656E736F722074797065202620C9
:1003E00076616C7565206D69736D617463682C202E
:1003F0000020767320004552522073656E736F7231
:10040000207479706520262076616C7565206D6991
:10041000736D617463682C200020767320000101E5
:1004200001010101010101010101010101010101BC
:1004300001010101010101010101010101030101AA
:10044000010101010101010101010101010101019C
:100450000101010201010101030301010103010185
:10046000010101010101010101010101010101017C
:100470000101010103030101010101010101010168
:10048000010101010101010101010101010101015C
:10049000010101010101010101010101010101014C
:1004A000010101010101010101010101010101013C
:1004B000010101010101010102010101010101012B
:1004C0000101010101010101010145525220736541
:1004D0006E736F7220747970652026206E756D6260
:1004E0006572206F66206669656C6473206D697340
:1004F0006D6174636800434F00434F32004F320018
:10050000434834004C5047004E48330041503100BE
:10051000415032005356004E4F32004F3300564F79
:100520004300544341005446410048554D4100505A
:10053000410050570042454E440056425200484147
:100540004C4C004C50004C4C004C554D0050495206
:10055000005354004D43500043444700435047006C
:100560004C440044555354005553004D46005053DD
:1005700000544342005446420048554D4200534FF8
:10058000494C5400534F494C004C570050415200C5
:10059000555600544400534400464400414E450023
:1005A000575600504C5600524144004355005746A0
:1005B000004C43004446004241540047505300520F
:1005C000535349004D4143004E41004E49440044BD
:1005D0004154450054494D4500474D540052414D4A
:1005E00000494E5F54454D5000414343004D494C36
:1005F0004C495300535452004D4254004D57494604
:100600004900554944005242005048004F525000A2
:10061000444F00434F4E440057540044494E41005C
:100620004449434100444946004449434C0044493D
:100630004252004449490044494355320044494B21
:100640000044494D47320044494E4F330054585FEF
:1006500050575200444D5F535400444D5F53500077
:100660004C55580053504545445F4F4700434F5544
:100670005253455F4F4700414C540048444F50008F
:1006800056444F500050444F500046534D00504C7C
:10069000563100504C563200504C563300534F499F
:1006A0004C5F4300534F494C5F4400534F494C5FEC
:1006B0004500534F494C5F4600534F494C3100535E
:1006C0004F494C3200534F494C330054434300557B
:1006D000535F3356330055535F3556004C554D5FCD
:1006E00044004C554D5F45004C554D5F46004C5005
:1006F0005F44004C505F45004C505F46004C4C5FDF
:1007000044004C4C5F45004C4C5F460048414C4C0B
:100710005F440048414C4C5F450048414C4C5F46AB
:100720000057465F430057465F45005453540054FA
:100730005552420056415049005650524F470056BC
:10074000424F4F540047505F434C320047505F4385
:100750004F0047505F45544F0047505F48320047B5
:10076000505F4832530047505F48434C0047505F4A
:1007700048434E0047505F4E48330047505F4E4F4E
:100780000047505F4E4F320047505F4F3200475096
:100790005F5048330047505F534F320047505F432C
:1007A00048340047505F4F330047505F434F32009B
:1007B00047505F54430047505F54460047505F48DE
:1007C000554D0047505F5052455300544300544626
:1007D000005000504D3100504D325F3500504D31CA
:1007E0003000504152540053574943410053574938
:1007F000464C005357494642005357494E4F005309
:100800005749425200535749434C005357494355A7
:1008100000535749494F00535749504200535749D5
:1008200041470053574950480050485F41005048E5
:100830005F420050485F43004F52505F41004F52AB
:10084000505F42004F52505F430000000809000013
:100850000000000000000000000000000000000098
:100860000000000000000000000000000000000088
:10087000000000000000000000000000000102086D
:1008800010102040800408102040020204081020AC
:100890004080010280204004200101020408102051
:1008A0000140804080010208040880041004020115
:1008B00005050505030303030101010404030606FE
:1008C00006060606060601040501050103020202EA
:1008D00002020201020205050404030404010304E8
:1008E00007070700202326292C2F32002225282B3A
:1008F0002E3134002124272A2D3033007A07420D6F
:10090000021601178C187E2A312F963011241FBE33
:10091000CFEFD1E2DEBFCDBF12E0A0E0B2E0EEEF5C
:10092000F0E700E00BBF02C007900D92A63BB107B5
:10093000D9F71EE0A6EBB2E001C01D92AF3AB107B5
:10094000E1F718E0CCE0D9E000E006C02297010909
:10095000FE010BBF0E944433CC3FD10780E0080763
:10096000A9F70E94F3110C947D380C94000088EFD5
:1009700097E00E9408176CEC70E088EF97E00E9407
:1009800023186CE172E082EA96E00E94280B87EB64
:1009900092E00C947C2561E082EA96E00E94D60BFE
:1009A00044E252E061E482EA96E00E94E9088EE5C2
:1009B00097E00E942313482F50E064E382EA96E018
:1009C0000E942D0A67EE70E088EF97E00E942318DE
:1009D00082EA96E00E949F0720914F0730915007CE
:1009E00048EB56E06AE072E087EB92E00E946928EB
:1009F0008093B60264E071E088EF97E00E942318CC
:100A00008091B60281110BC067E271E088EF97E038
:100A10000E9423188DEF97E00E941C190AC06FE214
:100A200071E088EF97E00E9423188DEF97E00E9415
:100A3000E3186AE371E088EF97E00E94231840E131
:100A400057E260E070E087EB92E00E947F258093A0
:100A5000B60281115DC06BE571E088EF97E00E94FE
:100A6000B117409125065091260669EF74E088EF92
:100A700097E00E947F1766E671E088EF97E00E949A
:100A8000B117409125065091260660E070E02AE0FB
:100A900030E088EF97E00E94D91763E771E088EFB4
:100AA00097E00E94B1176091270688EF97E00E94B7
:100AB00041186091280688EF97E00E9441186091E4
:100AC000290688EF97E00E94411860912A0688EF76
:100AD00097E00E94411860912B0688EF97E00E94F2
:100AE000411860912C0688EF97E00E9441186091B0
:100AF0002D0688EF97E00E94411860912E0688EF3E
:100B000097E00E94411888EF97E00E94161811C0E4
:100B10006CE871E088EF97E00E94B1174091B6024F
:100B200050E060E070E02AE030E088EF97E00E945B
:100B3000D91766EA71E088EF97E00E94231868E809
:100B400073E180E090E00C94190E5F926F927F92B7
:100B50008F929F92AF92BF92CF92DF92EF92FF92CD
:100B60000F931F93CF93DF93CDB7DEB7C957D1094A
:100B70000FB6F894DEBF0FBECDBF6C017B01EA96C5
:100B80001FAEEA973C010E94D91DF601E552FE4FC7
:100B900082E080838E010F5F1F4F98E7D8011D927E
:100BA0009A95E9F79EE7998391E09D83F601ED54CC
:100BB000FC4F11821082F601E752FE4F8083F7014D
:100BC000908588E3A82EBB24B394AE0CBF1CD5013E
:100BD0008C919230E0F5825F8B8380E18C83913041
:100BE00019F48FEF8C8710C0F70184818E83858183
:100BF0008F83868188878781898780818A878181A1
:100C00008B8782818C8783818D878FEF8E878EEF94
:100C10008F8721E1AE014F5F5F4FB701C3010E9493
:100C2000871CF701E85CFE4F008111810F5E1F4FAA
:100C3000BE016F5F7F4FC3010E94C41DE1E0F0E081
:100C4000EC0FFD1FE00FF11F808312E146C08C5EA8
:100C50008B8381E18C83F70184818E8385818F83EF
:100C6000868188878781898780818A8781818B8730
:100C700082818C8783818D878FEF8E878EEF8F8720
:100C8000E65CFE4F8081888BF701E55CFE4F80813A
:100C9000898BF701E45CFE4F80818B8BF701E25C6E
:100CA000FE4F80818C8BF701E15CFE4F80818D8B44
:100CB00027E1A801B701C6010E94871CD501AD90AC
:100CC000BC90B7E1AB0EB11CB801C6010E94C41DB7
:100CD000F801EA0DFB1D808318E1012F9E012758C2
:100CE0003F4FAE014F5F5F4FB701C3010E94A21C8F
:100CF000F601E258FC4F8081813021F48DEF97E0BE
:100D00000E944619512C5701E8ECAE1AEEEFBE0ACC
:100D1000012F10E04601F2E88F1AFCEF9F0A0CC089
:100D2000E1E0F0E0EC0FFD1FE80FF91FD4016C913A
:100D300080810E9402115394852D90E0EA964FAD78
:100D4000EA97F50120813181240F311D200F311FD9
:100D50008217930728F3C3010E94CB22F601E552C4
:100D6000FE4F8083F601EA52FC4F9081F701EE5A64
:100D7000FE4F9083F601E952FC4F9081F701ED5A46
:100D8000FE4F9083F601E852FC4F9081F701EC5A38
:100D9000FE4F9083F601E752FC4F9081F701EB5A2A
:100DA000FE4F9083F601E652FC4F9081F701EA5A1C
:100DB000FE4F9083C758DF4F0FB6F894DEBF0FBECB
:100DC000CDBFDF91CF911F910F91FF90EF90DF90FA
:100DD000CF90BF90AF909F908F907F906F905F90DB
:100DE0000895CF93DF93EC01FC01E358FC4F83E0BF
:100DF0008083FE01E258FC4F6083611104C08DEFD7
:100E000097E00E945E19FE01E158FC4F11821082AA
:100E1000FE01ED54FC4F11821082FE01EB54FC4F99
:100E20001082FE01E95AFF4F1082FE01E25CFE4F84
:100E30001082FE01E45CFE4F1082FE01E35CFE4F77
:100E400082E88083FE01E959FE4F1082FE01E759D6
:100E5000FE4F80E28083FE01EF5DFE4F1082FE01B7
:100E6000EE5DFE4F87E08083FE01ED5DFE4F90ED6D
:100E70009083FE01EC5DFE4F1082FE01EB5DFE4FA4
:100E80001082FE01EA5DFE4F98EC9083FE01EE5861
:100E9000FE4F1082FE01E859FE4F94E09083FE0160
:100EA000E951FC4F8083FE01E851FC4F83E08083D1
:100EB000FE01E751FC4F81E08083FE01E552FC4FCB
:100EC0001082FE01E852FE4F82E08083FE01E7526D
:100ED000FE4F8083FE01E652FE4F8083FE01E55205
:100EE000FE4F8083CE010E94001ECE01DF91CF9184
:100EF0000C94D91D1092B9021092BB021092D30229
:100F00001092D50289E1809395061092980683E0AD
:100F10008093330681E492E09093B8028093B70205
:100F200084E1EFEDF3E0DF011D928A95E9F781E1BD
:100F3000EDE0F4E0DF011D928A95E9F70895EF9264
:100F4000FF920F931F93CF93DF93EC0140E060E09B
:100F500072EC81E090E00E949F0F61E087E10E94C7
:100F6000130F60E08BE00E94130F0FE110E060E0D0
:100F70008DE30E94021101501109C9F760E08DE074
:100F80000E94021160E08AE00E9402118A81813091
:100F900021F460E085E492E00CC0811104C060E0BF
:100FA00083E592E006C0823009F0A0C060E082E6EE
:100FB00092E00E940F1160E084E792E00E940F111E
:100FC00060E08EE792E00E940F117E018DEAE80E4C
:100FD000F11CF7016081718180E090E000E02AE07F
:100FE00030E040E050E00E941F1160E08DE00E9480
:100FF000021160E08AE00E94021160E087E892E05E
:101000000E940F11698D70E080E090E02AE030E0EE
:1010100040E050E00E941F1160E08DE00E9402114C
:1010200060E08AE00E94021160E085E992E00E949F
:101030000F1100E010E009C0FE01E00FF11F60E0B9
:1010400086890E94AA110F5F1F4FF701808191814D
:101050000817190788F360E08DE00E94021160E034
:101060008AE00E94021160E083EA92E00E940F1180
:10107000E12CF12C8E0103551F4F0AC0FE01EE0D2D
:10108000FF1D60E086890E940211FFEFEF1AFF0A40
:10109000F80180819181E816F90680F360E08DE027
:1010A0000E94021160E08AE00E940211CFE1D0E0CC
:1010B00060E08DE30E9402112197D1F760E08DE09E
:1010C0000E94021160E08AE00E94021163E070E079
:1010D00080E090E00E94190E61E08BE0DF91CF91FB
:1010E0001F910F91FF90EF900C94130FDF91CF9110
:1010F0001F910F91FF90EF900895CF93DF93C42F2E
:1011000070E0FB01EE5DFC4F85919491D82F81300A
:10111000A9F44230B0F16EEC73E088EF97E00E94E2
:10112000B1172AE030E041E050E060E070E088EF85
:1011300097E00E94521861EF73E014C0841709F120
:1011400066EF73E088EF97E00E94B1174D2F50E0F3
:1011500060E070E02AE030E088EF97E00E945218EB
:1011600069E174E088EF97E00E94B1174C2F50E0DE
:1011700060E070E02AE030E088EF97E00E94D91745
:101180000DC0FB01E25EFB4F85919491281741F061
:101190006AEC74E088EF97E00E9423188FEF01C09B
:1011A00081E0DF91CF910895FC01E355FF4F20814D
:1011B0003181620F731FDC0113968D919C911497FE
:1011C0008617970720F07183608381E0089580E09F
:1011D00008955F926F927F928F929F92AF92BF928B
:1011E000CF92DF92EF92FF920F931F93CF93DF93F3
:1011F000CDB7DEB72A970FB6F894DEBF0FBECDBFCE
:101200008C01962E542E852EADB6BEB6E42FF52F4A
:10121000DF010D900020E9F7AE1BBF0BA03981E084
:10122000B80710F0A0E9B1E06D0191E0C91AD1084A
:10123000EDB7FEB7EA1BFB0B0FB6F894FEBF0FBE6F
:10124000EDBFEDB6FEB68FEFE81AF80A3701AD0133
:1012500060E070E0C7010E940F35A601652D782D72
:10126000C7010E9416356701D7012FE505C08C9193
:10127000833209F42C931196F30101900020E9F7D1
:101280003197E619F709CD018C199D098E179F0733
:1012900070F3D80112968C91813009F075C0E92D58
:1012A000F0E0EE0FFF1FE653FE4F85919491BC01D5
:1012B000EE24E394F12CEC0EFD1EC7010E94FF34D6
:1012C000F70101900020E9F7BF01615071096E1923
:1012D0007F09D3010D900020E9F71197A619B709EE
:1012E0006A0F7B1F6E5F7F4FC8010E94D408811177
:1012F00001C052C0F801E355FF4FC080D180F70113
:1013000001900020E9F73197EE19FF09D3010D9004
:101310000020E9F71197A619B70946018A1A9B0A16
:1013200096012E1B3F0B2A1B3B0B2C5E3F4F200FC1
:10133000311FAF01B701C9010E940635F801E80D60
:10134000F91D8AE3848BF30101900020E9F73197BE
:10135000E619F70985E1880E911C800E911EAF01F8
:10136000B301C4010E940635F801EC0DFD1D83E2B6
:10137000858BD80111968C9111978F5F11968C9364
:1013800011975A968C934AC021E043E0692DC80119
:101390000E947D088F3F11F48FEF44C0D3010D9060
:1013A0000020E9F77D0181E0E81AF108E618F70866
:1013B000B7016E5F7F4FC8010E94D408882361F394
:1013C000F801E355FF4F20813181F30101900020A6
:1013D000E9F73197E619F709C90102978E1B9F0BB0
:1013E000F801E80FF91F968AE78A029608C0D6012D
:1013F0004D916D01F801E80FF91F468B0196821798
:101400009307A8F3F801E20FF31F168AF801818110
:101410008F5F818380914F078550828FF801E3555C
:10142000FF4F80810FB6F894BEBE0FBEADBE2A96A8
:101430000FB6F894DEBF0FBECDBFDF91CF911F91E5
:101440000F91FF90EF90DF90CF90BF90AF909F9063
:101450008F907F906F905F9008958F929F92AF9240
:10146000BF92CF92DF92EF92FF920F931F93CF9391
:10147000DF93CDB7DEB764970FB6F894DEBF0FBE2B
:10148000CDBF8C01F62E5A01FC018281813009F01A
:1014900079C0E62FF0E0EE0FFF1FE653FE4F859177
:1014A0009491BC01CC24C394D12CCC0EDD1EC6017A
:1014B0000E94FF347E01FBE0EF0EF11C4AE050E099
:1014C000B701C5010E942F35F60101900020E9F710
:1014D000BF01615071096C197D09D7010D90002081
:1014E000E9F71197AE19BF096A0F7B1F6E5F7F4F37
:1014F000C8010E94D408811101C059C0F801E35508
:10150000FF4FA080B180F60101900020E9F73197EC
:10151000EC19FD09D7010D900020E9F71197AE19DC
:10152000BF0945018A1A9B0A95012E1B3F0B2A1BF6
:101530003B0B2C5E3F4F200F311FAF01B601C9019D
:101540000E940635F801E80DF91D8AE3848BF70146
:1015500001900020E9F73197EE19FF0985E1880E27
:10156000911C800E911EAF01B701C4010E94063587
:10157000F801EA0DFB1D83E2858BF80181818F5F05
:1015800081834EC021E04F3F510509F094F440E0C3
:101590006F2DC8010E947D088F3F49F0EF2DF0E0CC
:1015A000EE5DFC4F859194918130E9F404C08FEF9A
:1015B0003CC041E0EDCF63E070E0C8010E94D40878
:1015C0008823A9F3F801E355FF4FA081B181A00F53
:1015D000B11F5396FC9253975496AC9254975596DC
:1015E000BC92559714C062E070E0C8010E94D40814
:1015F0008823E9F2F801E355FF4FA081B181A00FE4
:10160000B11F5496FC9254975596AC9255975696A6
:101610001C92F80181818F5F818380914F078550F3
:10162000828FF801E355FF4F808164960FB6F894DE
:10163000DEBF0FBECDBFDF91CF911F910F91FF9005
:10164000EF90DF90CF90BF90AF909F908F900895D4
:101650008F929F92AF92BF92CF92DF92EF92FF92C2
:101660000F931F93CF93DF931F92CDB7DEB77C010B
:10167000162F33E9C32ED12C60E0C60179830E9476
:10168000AF378FEFC81AD80A7981A3EACA16D104F6
:1016900099F7C7010596FC0181E1DF011D928A954A
:1016A000E9F7812E972E03E910E05401F4016081DF
:1016B0006701C00ED11E633249F0C8010E94AF37E6
:1016C000D4018C91F601EE58F10908C06FE5C8010C
:1016D0000E94AF37F601EE58F1098FE58083BFEF26
:1016E0008B1A9B0AF5018081882329F00F5F1F4F19
:1016F000033A1105D1F60F90DF91CF911F910F9111
:10170000FF90EF90DF90CF90BF90AF909F908F9021
:101710000895CF92DF92EF92FF920F931F93CF9392
:10172000DF936C018B010596FC0181E1DF011D92C5
:101730008A95E9F77B01C3E9D0E0BE018DEF97E020
:101740000E946E19F601EC0FFD1FEE58F10980831F
:10175000F70181937F012196C33AD10571F7D80132
:1017600050961C92DF91CF911F910F91FF90EF90B7
:10177000DF90CF900895CF93DF93EC0160E083EA90
:1017800090E00E94AF3786E990E09C838B83BE0196
:101790006B5F7F4F82EA96E0DF91CF910C94890BCB
:1017A00063EA70E08DEF97E00C946E19AF92BF92F0
:1017B000CF92DF92EF92FF920F931F93CF93DF931D
:1017C000CDB7DEB764970FB6F894DEBF0FBECDBFBE
:1017D0008C01DC0112966C934696FC0187E9DF01CF
:1017E0001D928A95E9F7F80111828CE3868B8DE3CF
:1017F000878B8EE3808F8281813009F0C9C080E8B9
:10180000818F128E83E2838F6801FDEACF0ED11C97
:1018100086E090E0D6018D939C9340915A075091B9
:101820005B0760915C0770915D077F936F935F9397
:101830004F9381EB92E09F938F931F9280E18F9360
:10184000EE24E394F12CEC0EFD1EFF92EF920E9429
:101850005F35C7010FB6F894DEBF0FBECDBF97014D
:10186000D60111C0FC016191CF016623C9F04D91F1
:101870005C911197F801E40FF51F668B4F5F5F4F86
:1018800011965C934E93F90101900020E9F731978E
:10189000E21BF30BAC01421B530B4E175F0710F317
:1018A0008D919C911197F801E80FF91F23E2268B87
:1018B00001968D939C9380E090E0F801E355FF4FF3
:1018C0004FE5D801A80FB91F15962C91211149C0D9
:1018D0006801FDEACF0ED11CD6018D919C91119724
:1018E000F801E80FF91F43E2A42EA68A01968D9312
:1018F0009C93C8010E94D00BB82E7E01B1E1EB0E83
:10190000F11C4AE050E0B70190E00E942F35F7014A
:1019100001900020E9F73197EE19FF09D6012D91CA
:101920003C912A5E3F4F200F311FAF01B701C90123
:101930000E940635F70101900020E9F73197EE1972
:10194000FF09D6018D919C91E80FF91FD801AE0FC8
:10195000BF1F5696AC923196D601ED93FC936B2D3A
:1019600063C0A081B181A00FB11F233219F4569634
:101970004C9302C056962C93208131812F5F3F4FAC
:101980003183208301968031910509F09ACFA0CF51
:10199000811102C0F801118E20915B0790915C07C4
:1019A00080915D0730915A07D8015B963C935B9715
:1019B0005C962C935C975D969C935D975E968C935A
:1019C000F801E355FF4F89E090E09183808380E048
:1019D00090E04FE5D801A80FB91F15962C91211161
:1019E00029C07801BDEAEB0EF11CF70180819181DD
:1019F000F801E80FF91F23E2268B0196D7018D939A
:101A00009C93C8010E94D00BF70120813181F8011D
:101A1000E20FF31F868B2F5F3F4FD7012D933C932F
:101A20002550F801228F682F6F5F83EA90E00E94B3
:101A3000AF3717C0A081B181A00FB11F233219F4B5
:101A400056964C9302C056962C93208131812F5F7D
:101A50003F4F3183208301968031910509F0BACF41
:101A6000C0CF64960FB6F894DEBF0FBECDBFDF9136
:101A7000CF911F910F91FF90EF90DF90CF90BF908B
:101A8000AF90089582EA96E00C94BB0B1F920F92E0
:101A90000FB60F9211240BB60F922F933F934F93D3
:101AA0005F936F937F938F939F93AF93BF93EF93C6
:101AB000FF93F89481E080931B02E0E6F0E08081E0
:101AC0008068808380818F7B808360E083E00E94D8
:101AD000130F7894FF91EF91BF91AF919F918F91E8
:101AE0007F916F915F914F913F912F910F900BBE1E
:101AF0000F900FBE0F901F9018951F920F920FB668
:101B00000F9211248F939F93AF93BF938091910A6B
:101B10009091920AA091930AB091940A0196A11D06
:101B2000B11D8093910A9093920AA093930AB09367
:101B3000940ABF91AF919F918F910F900FBE0F901C
:101B40001F9018951F920F920FB60F9211248F932A
:101B50009F93AF93BF938091950A9091960AA0911D
:101B6000970AB091980A0196A11DB11D8093950A1C
:101B70009093960AA093970AB093980ABF91AF9159
:101B80009F918F910F900FBE0F901F9018958F927D
:101B90009F92AF92BF92CF92DF92EF92FF920F93FC
:101BA0001F93CF93DF932FB7F8948091910A909170
:101BB000920AA091930AB091940A2FBF9C01AD01A3
:101BC00060E070E080E090E001E00E942C33490189
:101BD000D42FC52FB62FA72FF82FE92F02E00E9490
:101BE0002C3359016A017B018C0194014D2F5C2F2C
:101BF0006B2F7A2F8F2F9E2F0E943B33E9E0AE2E62
:101C0000B12CC12CD12CE12CF12C00E010E00E9471
:101C1000CF32952FB901842FDF91CF911F910F9172
:101C2000FF90EF90DF90CF90BF90AF909F908F90FC
:101C300008958F929F92AF92BF92CF92DF92EF92D0
:101C4000FF924B015C0107C00E94C70D6C157D051A
:101C50008E059F0520F40E94C70D6B017C010E9438
:101C6000C70D6C197D098E099F09681579058A05CC
:101C70009B0550F3FF90EF90DF90CF90BF90AF9017
:101C80009F908F900895BC01049768F080E090E0E9
:101C90000E942F3126E636E646EE5FE30E94E531EC
:101CA0000E94033102C0660F771F6150710961F015
:101CB0006150710949F0FB01EE0FFF1F31978FB79B
:101CC000F8943197F1F78FBF0895789484B7877FA0
:101CD00084BF1092910A1092920A1092930A109265
:101CE000940A84B5826084BD84B5816084BD85B565
:101CF000826085BD85B5816085BDEEE6F0E08081BE
:101D000081608083E1E8F0E080818260808380816F
:101D100081608083E0E8F0E0808181608083E1EB96
:101D2000F0E0808184608083E1E9F0E0808184607C
:101D30008083E0EBF0E0808181608083E0E9F0E087
:101D4000808181608083E4E6F0E080818E7F808303
:101D5000ECE7F0E080818F778083808180648083EE
:101D6000EAE7F0E080818460808380818260808304
:101D70008081806880831092C1001092C90008950C
:101D800090915107982B9093510780FF32C080911A
:101D900064008E7F8093640080917C008F778093B5
:101DA0007C0080917C00806480937C0080917A002C
:101DB000846080937A0080917A00826080937A00B8
:101DC00080917A00806880937A00809164008F7798
:101DD00080936400809164008B7F80936400809185
:101DE00064008D7F80936400809165008E7F809376
:101DF0006500089590E0FC01E358F74F2491FC0141
:101E0000E055F74FE491EE2369F0F0E0ED50F74F25
:101E1000A491B0E08C91611103C02095822301C090
:101E2000822B8C93089590E0FC01E65BF74F2491A0
:101E3000FC01E358F74F3491FC01E055F74F8491D2
:101E40008823B1F1222331F1233021F490918000D5
:101E50009F7705C0243031F4909180009F7D90934E
:101E6000800018C0213019F494B59F7704C0223047
:101E700021F494B59F7D94BD0DC0263021F490913E
:101E8000B0009F7705C0273029F49091B0009F7D66
:101E90009093B000E82FF0E0E551F74FA491B0E047
:101EA0008C91611103C03095832301C0832B8C93E7
:101EB000089590E0FC01E65BF74F2491FC01E358A4
:101EC000F74F3491FC01E055F74F8491882399F145
:101ED000222331F1233021F4909180009F7705C0B7
:101EE000243031F4909180009F7D9093800018C041
:101EF000213019F494B59F7704C0223021F494B5B1
:101F00009F7D94BD0DC0263021F49091B0009F7745
:101F100005C0273029F49091B0009F7D9093B000C8
:101F2000E82FF0E0ED51F74FE491F0E0808183235A
:101F300021E030E011F420E030E0C9010895CF92B3
:101F4000DF92EF92FF926B017C01411134C088E077
:101F50000E94C00EC701B60122E030E040E050E030
:101F60000E94B132305F414F5F4FCA01B901A701F2
:101F700096010E94B132DA01C9010197A109B109A4
:101F8000892F9A2FAB2FBB27A7FDBA958093C50049
:101F900021502093C4008091C10080618093C100D2
:101FA0008091C10088608093C1008091C1008068E9
:101FB0008093C10033C080E10E94C00EC701B6010A
:101FC00022E030E040E050E00E94B132305F414F0B
:101FD0005F4FCA01B901A70196010E94B132DA012F
:101FE000C9010197A109B109892F9A2FAB2FBB27EE
:101FF000A7FDBA958093CD0021502093CC0080910D
:10200000C90080618093C9008091C9008860809375
:10201000C9008091C90080688093C900FF90EF904B
:10202000DF90CF900895611107C09091C00095FF97
:10203000FCCF8093C60008959091C80095FFFCCF17
:102040008093CE00089581110AC080915807909125
:1020500059079E5F209156073091570709C080911C
:102060005407909155079E5F209152073091530776
:10207000821B930B60E072E00E947B320895811115
:1020800019C08091560790915707209158073091B9
:1020900059072817390741F1FC01E756F34F208112
:1020A000019660E072E00E947B3290935707809324
:1020B000560718C0809152079091530720915407FA
:1020C000309155072817390779F0FC01E756F54F8D
:1020D0002081019660E072E00E947B32909353076A
:1020E0008093520730E002C02FEF3FEFC9010895FF
:1020F000811109C010925707109256071092590784
:102100001092580708951092530710925207109298
:1021100055071092540708951F920F920FB60F9211
:1021200011242F933F934F935F936F937F938F93DC
:102130009F93AF93BF93EF93E091C6002091580710
:1021400030915907C901019660E072E00E947B322C
:1021500040915607509157078417950741F0D901D0
:10216000A756B34FEC939093590780935807EF917C
:10217000BF91AF919F918F917F916F915F914F919F
:102180003F912F910F900FBE0F901F9018951F92A7
:102190000F920FB60F9211242F933F934F935F939B
:1021A0006F937F938F939F93AF93BF93EF93E09140
:1021B000CE002091540730915507C901019660E087
:1021C00072E00E947B32409152075091530784176E
:1021D000950741F0D901A756B54FEC939093550759
:1021E00080935407EF91BF91AF919F918F917F9111
:1021F0006F915F914F913F912F910F900FBE0F9074
:102200001F9018950C941310CF93C82F682F8DE052
:102210000E9413106C2F8AE0CF910C9413101F931F
:10222000CF93DF93162FEC0103C0612F0E94131090
:1022300089918111FACFDF91CF911F9108954F922B
:102240005F926F927F928F929F92AF92BF92CF9246
:10225000DF92EF92FF920F93CF93DF93CDB7DEB76C
:10226000A0970FB6F894DEBF0FBECDBF29013A018B
:102270006115710581059105C9F4602F80E3A09671
:102280000FB6F894DEBF0FBECDBFDF91CF910F9197
:10229000FF90EF90DF90CF90BF90AF909F908F9086
:1022A0007F906F905F904F900C941310EE24E39406
:1022B000F12CEC0EFD1E812C912C5401A3019201F6
:1022C0000E948F32F70161937F01FFEF8F1A9F0AFF
:1022D000AF0ABF0AB901CA016115710581059105EF
:1022E00069F7CC24CA94DC2C7601C80CD91CEA1CF2
:1022F000FB1C14C0E1E0F0E0EC0FFD1FEC0DFD1D38
:1023000080818A3010F4805D01C0895C602F0E945A
:10231000131081E0C81AD108E108F108EFEFCE16DA
:10232000DE06EE06FE0631F7A0960FB6F894DEBF85
:102330000FBECDBFDF91CF910F91FF90EF90DF9057
:10234000CF90BF90AF909F908F907F906F905F9055
:102350004F900895CF93DF93C62F282F332727FD63
:102360003095207F332764E0359527956A95E1F70E
:102370002A3014F0295C01C0205D982F9F70D92F5E
:102380009A3014F0D95C01C0D05D6C2F822F0E946E
:1023900013106C2F8D2FDF91CF910C941310CF92CF
:1023A000DF92EF92FF920F936B017C01042F97FF56
:1023B0000CC0642F8DE20E941310F094E094D0942E
:1023C000C094C11CD11CE11CF11C2AE030E040E0AB
:1023D00050E0C701B6010E941F110F91FF90EF90CE
:1023E000DF90CF9008950E94650E8DEF97E00E94D8
:1023F000C71A853440F061E081E30E94FA0E61E083
:1024000081E30E94130F61E070E08DEF97E00E947E
:102410006E198130B1F48091990E90919A0EA0912D
:102420009B0EB0919C0E90688093990E90939A0E9B
:10243000A0939B0EB0939C0E60E081E090E00E9420
:10244000AF3780E697E00E94E71580E697E00E94AC
:10245000A81580E697E00E94B71580E697E00E94F5
:10246000F41363E070E080E090E00E94190E809128
:10247000990E90919A0EA0919B0EB0919C0EA1FF87
:102480005EC063E070E080E090E00E94190E61E0C1
:1024900086E10E94FA0E63E070E080E090E00E9426
:1024A000190E61E086E10E94130F63E070E080E0A6
:1024B00090E00E94190E0E94071663E070E080E031
:1024C00090E00E94190E81E00E942A1663E070E0FD
:1024D00080E090E00E94190E84E00E94381663E0CC
:1024E00070E080E090E00E94190E80E00E943316B8
:1024F00063E070E080E090E00E94190E0E942616D2
:1025000063E070E080E090E00E94190E66E083EFE7
:1025100097E00E94431663E070E080E090E00E9444
:10252000190E61E086E10E94FA0E60E086E10E94E9
:10253000130F63E070E080E090E00E94190E63E00A
:1025400070E080E090E00E94190E8DEF97E00E940D
:102550006C1A60935A0770935B0780935C079093A3
:102560005D0780915A0790915B07A0915C07B0913D
:102570005D070E94F4340E94B7040E94CB04FDCF93
:102580001F93CF93DF931F92CDB7DEB7162F61E075
:102590008AE149830E94FA0E61E088E10E94FA0E06
:1025A0004981112321F0113009F048C020C04111A8
:1025B0000EC061E08AE10E94130F8091990E909104
:1025C0009A0EA0919B0EB0919C0E82602FC041305C
:1025D000A9F560E08AE10E94130F8091990E909115
:1025E0009A0EA0919B0EB0919C0E8D7F1FC0411141
:1025F0000EC061E088E10E94130F8091990E9091C6
:102600009A0EA0919B0EB0919C0E81600FC041303C
:10261000A9F460E088E10E94130F8091990E9091D7
:102620009A0EA0919B0EB0919C0E8E7F8093990E76
:1026300090939A0EA0939B0EB0939C0E0F90DF91F7
:10264000CF911F9108950F931F93CF93DF9361E074
:1026500089E10E94FA0E61E089E10E94130F61E0B6
:1026600070E080E090E00E94190E80E00E94EA2E67
:10267000BC01882777FD8095982F0E9431318B010E
:10268000D82FC92F20E030E040E054E4FE01712F44
:102690008F2F9E2F0E94FF3087FF06C060E089E1E8
:1026A0000E94130FC0E055C020E030EC42E254E439
:1026B000FE01602F712F8F2F9E2F0E94E13118167F
:1026C00034F460E089E10E94130FC4E642C020E0C8
:1026D00030EC42E254E4FE01602F712F8F2F9E2FC9
:1026E0000E94FF301816ECF020E030EC47E054E494
:1026F000FE01602F712F8F2F9E2F0E94E13118163F
:1027000084F425E535E545E55FE3FE01602F712F93
:102710008F2F9E2F0E94E53120E030E04DED53E4F5
:102720000FC020E030E040EA5EE3FE01602F712F31
:102730008F2F9C2F0E94E53120E030E040E253E4EF
:102740000E949A300E940331C62F60E089E10E9406
:10275000130F8C2FDF91CF911F910F91089561E09E
:1027600089E20E94FA0E61E088E20E94FA0E8EEF82
:1027700097E00C942D2980910408882341F08091E2
:10278000D008811104C08EE597E00C94AF13089532
:102790000F931F93CF93DF93EC01042F68A761E0A1
:1027A00080E30E94FA0E18A5112379F0113091F4FC
:1027B00061E080E30E94130F013019F482E08B8BFB
:1027C00009C0011107C01B8B05C060E080E30E94B7
:1027D000130F1B8A6AE070E080E090E0DF91CF91F8
:1027E0001F910F910C94190ECF93DF93EC010E946F
:1027F000BB1340E060E0CE01DF91CF910C94C81391
:10280000FC01148A158A168A178A108E118E128E70
:10281000138E148E158E168E178E10A211A212A270
:1028200013A214A215A216A217A20895CF92DF92A6
:10283000EF92FF920F931F93CF93DF938C01C62EDD
:1028400080910408811104C08EEF97E00E94E72870
:1028500068E670E08EEF97E00E94142960E070E077
:102860008EEF97E00E94402A8EEF97E00E94422A66
:1028700043E150E068E670E08EEF97E00E947C2A2A
:10288000E12CF12CC0E0D0E0D12CE4C08EEF97E039
:102890000E941C29F801EC0FFD1F8083C630D10572
:1028A00009F467C098F4C230D10509F43EC038F489
:1028B000209729F1C130D10509F0C7C02BC0C43021
:1028C000D10509F440C008F049C03AC0CA30D1056A
:1028D00009F484C048F4282F30E0C830D10509F449
:1028E00061C008F06DC050C0CC30D10509F492C071
:1028F00008F482C0CD30D10509F0A7C099C0982F47
:1029000092959F708F702AE0929F800D1124F8019C
:10291000818F9BC0982F92959F708F70FAE09F9F38
:10292000800D1124F801808F90C0982F92959F7090
:102930008F70FAE09F9F800D1124F801878B85C06E
:10294000F801868B82C0982F92959F708F70FAE065
:102950009F9F800D1124F801828F77C0982F929548
:102960009F708F70FAE09F9F800D1124F801858B76
:102970006CC0982F92959F708F70FAE09F9F800D8A
:102980001124F801848B61C054E0359527955A9540
:10299000E1F727708F70FAE02F9F800D1124F80166
:1029A000838F53C044E0359527954A95E1F727700A
:1029B0008F70FAE02F9F800D1124F801848F45C09D
:1029C00094E0359527959A95E1F723708F70FAE09A
:1029D0002F9F800D1124F801858F37C0282F269551
:1029E000269526952670922F990F990F920F8F702A
:1029F000980FF801968F29C0282F269526952695A1
:102A00002E70922F990F990F920F8F70980FF801D7
:102A1000978F1BC0282F2695269526952670922FD6
:102A2000990F990F920F8F70980FF80190A30DC016
:102A3000282F2695269526952670922F990F990F67
:102A4000920F8F70980FF80191A3219603C0FFEFAA
:102A5000EF1AFF0ACC16DD0658F02AE0E216F10460
:102A600038F48EEF97E00E941629882381F30ECF69
:102A7000DF91CF911F910F91FF90EF90DF90CF905A
:102A800008951F93CF93DF93EC01162F80910408D4
:102A9000811104C08EEF97E00E94E72868E670E09D
:102AA0008EEF97E00E941429612F8EEF97E00E942D
:102AB000142AC10FD11D68818EEF97E00E94142A5D
:102AC0008EEF97E0DF91CF911F910C94422AFF92F5
:102AD0000F931F93CF93DF938C01F62E8091040800
:102AE000811104C08EEF97E00E94E72868E670E04D
:102AF0008EEF97E00E9414296F2D8EEF97E00E94D1
:102B0000142A8EEF97E00E94422A41E050E068E6E6
:102B100070E08EEF97E00E947C2ACBE0D0E08EEF51
:102B200097E00E941629811102C02197C1F78EEF0C
:102B300097E00E941C29F801EF0DF11D80838EEFB4
:102B400097E0DF91CF911F910F91FF900C94422A53
:102B5000CF93DF93EC016EE00E9467158E858E7F28
:102B60008E876EE0CE01DF91CF910C944115CF930B
:102B7000DF93EC016EE00E9467158E858D7F8E8756
:102B80006EE0CE01DF91CF910C944115CF93DF938E
:102B9000EC016FE00E9467158F858370DF91CF9104
:102BA0000895CF93DF93EC010E94C615882319F096
:102BB000CE56DF4F888380916F078C7F80936F079D
:102BC0006FE080E697E0DF91CF910C944115CF93B1
:102BD000DF93EC0140E061E00E94C813CE010E9447
:102BE000D115CE010E9400146DE0CE010E94161492
:102BF00061E08BE20E94FA0E60E08BE2DF91CF9100
:102C00000C94130F1092F10710927307089561E06E
:102C10008EE10E94FA0E61E08FE10E94FA0E61E0FF
:102C20008DE10E94FA0E60E08EE10E94130F60E0D9
:102C30008FE10E94130F61E08DE10E94130F8CB5AC
:102C400080618CBD8CB580648CBD08958CB58F7B04
:102C50008CBD0895811103C08CB5806202C08CB513
:102C60008F7D8CBD08959CB5937F982B9CBD089556
:102C70002CB5982F93702C7F922B9CBD9DB580FB1B
:102C800090F99DBD0895CF93C62F61E08DE10E941C
:102C9000FA0E61E082E20E94FA0E61E08DE10E948C
:102CA000130F61E082E20E94130F8091990E9091C0
:102CB0009A0EA0919B0EB0919C0EA2FF08C061E0FD
:102CC00088E00E94FA0E61E088E00E94130F809174
:102CD000990E90919A0EA0919B0EB0919C0E96FF2A
:102CE00008C061E089E00E94FA0E61E089E00E947C
:102CF000130F8091990E90919A0EA0919B0EB09116
:102D00009C0EA3FF08C061E082E00E94FA0E61E021
:102D100082E00E94130FC330C9F020F4C13061F08B
:102D200070F407C0C53061F1F0F0C63009F067C03B
:102D300033C060E08DE160C060E082E25DC08DEF95
:102D400097E00E94461960E08CE256C08091990E8F
:102D500090919A0EA0919B0EB0919C0EA2FF4FC035
:102D600060E088E049C08091990E90919A0EA09100
:102D70009B0EB0919C0E96FF42C060E089E03CC083
:102D80008091990E90919A0EA0919B0EB0919C0EFD
:102D9000A3FF35C060E02FC061E08DE10E94130FFA
:102DA00061E082E20E94130F8091990E90919A0E39
:102DB000A0919B0EB0919C0EA2FF04C061E088E040
:102DC0000E94130F8091990E90919A0EA0919B0EE4
:102DD000B0919C0E96FF04C061E089E00E94130F41
:102DE0008091990E90919A0EA0919B0EB0919C0E9D
:102DF000A3FF05C061E082E0CF910C94130FCF9147
:102E000008951092F4071092F3071092F5070895B1
:102E1000FC01408160E072EC81E090E00E949F0F35
:102E200061E087E10E94FA0E61E087E10E94130FE2
:102E300061E08BE00E94FA0E60E08BE00E94130FCD
:102E400061E08DE20E94FA0E60E08DE20C94130FB7
:102E5000DC018091C50011968C9311978091C4007C
:102E600012968C931297E2ECF0E0808113968C938B
:102E700013978091CA0014968C93149780818F7D4C
:102E8000808380818F7E80838081877F80834C9147
:102E900060E072EC81E090E00E949F0F61E087E1CA
:102EA0000E94130F60E08BE00C94130FCF93DF931D
:102EB000EC014091990E50919A0E60919B0E709189
:102EC0009C0E63E070E080E090E042FF07C00E944B
:102ED000190E61E08BE00E94130F02C00E94190ED0
:102EE00089818093C5008A818093C4008B818093FF
:102EF000C2008C818093CA00DF91CF910895CF9258
:102F0000DF92EF92FF920F931F93CF93DF9300D046
:102F1000CDB7DEB78C017A0169837A830E942817C6
:102F20006981C62E7A81D72EEC0CFD1C06C060810B
:102F3000F60181916F010E940211F801CE14DF04A5
:102F4000B1F780810E940411C8010F900F90DF91AA
:102F5000CF911F910F91FF90EF90DF90CF900C9445
:102F60005617EF92FF920F931F93CF93DF938C012D
:102F7000EB010E9428177E0188E1E81A8CEFF80A1D
:102F8000FE0121968491882339F0F80160810E9426
:102F90000211CE15DF05A1F7C8010E94561760E0A7
:102FA00070E0CB01DF91CF911F910F91FF90EF90D7
:102FB0000895AF92BF92DF92EF92FF920F931F930B
:102FC000CF93DF93EC01142FD52E7B0159010E9482
:102FD0002817A114B10429F46881812F0E940211DD
:102FE00016C08AE0A816B10439F44881612F7D2DFE
:102FF000C7010E94CF110BC09501442737FD4095B2
:10300000542F0881612F7D2DC7010E941F118881D7
:103010000E940411CE01DF91CF911F910F91FF907B
:10302000EF90DF90BF90AF900C945617CF93DF9343
:10303000EC010E94281788810E940411CE01DF91C3
:10304000CF910C945617EF92FF920F931F93CF934B
:10305000DF9300D0CDB7DEB77C010E94B1178C01A1
:10306000C70169837A830E94161869817A81C80131
:103070000F900F90DF91CF911F910F91FF90EF90E4
:1030800008951F93CF93DF93EC01162F0E9428170A
:1030900060E0812F0E94AA11CE01DF91CF911F9194
:1030A0000C945617AF92BF92DF92EF92FF920F935C
:1030B0001F93CF93DF93EC01142FD52E7B01590181
:1030C0000E942817A114B10429F46881812F0E945D
:1030D000021116C08AE0A816B10439F44881612FA4
:1030E0007D2DC7010E94CF110BC09501442737FDEC
:1030F0004095542F0881612F7D2DC7010E941F111B
:10310000CE01DF91CF911F910F91FF90EF90DF9053
:10311000BF90AF900C9456171092F80708951F9324
:10312000CF93DF931F92CDB7DEB7162F61E0812FCB
:1031300049830E94FA0E4981413011F461E003C0D5
:10314000411108C060E0812F0F90DF91CF911F9156
:103150000C94130F0F90DF91CF911F910895AF92B0
:10316000BF92CF92DF92EF92FF920F931F93CF9374
:10317000DF938C01C0E0D0E0A42EB12C6B01E12CD8
:10318000F12C13C041E06CE0C8010E948F18C70108
:10319000B6010E94190E40E06CE0C8010E948F1831
:1031A000C701B6010E94190E2196CA15DB0554F31A
:1031B000DF91CF911F910F91FF90EF90DF90CF9013
:1031C000BF90AF90089541E068EC70E00C94AF18A8
:1031D000AF92BF92CF92DF92EF92FF920F931F9325
:1031E000CF93DF938C01C0E0D0E0A42EB12C6B0113
:1031F000E12CF12C13C041E06DE0C8010E948F1852
:10320000C701B6010E94190E40E06DE0C8010E949E
:103210008F18C701B6010E94190E2196CA15DB0549
:1032200054F3DF91CF911F910F91FF90EF90DF90BA
:10323000CF90BF90AF90089541E068EC70E00C949F
:10324000E8181F93CF93DF931F92CDB7DEB7162FE9
:1032500061E087E149830E94FA0E61E084E20E9406
:10326000FA0E61E085E20E94FA0E61E087E10E94B9
:10327000130F612F84E20E94130F4981642F85E2AE
:103280000F90DF91CF911F910C94130F61E087E1B4
:103290000E94FA0E61E084E20E94FA0E61E085E28B
:1032A0000E94FA0E61E087E10E94130F61E084E260
:1032B0000E94130F61E085E20C94130F61E087E137
:1032C0000E94FA0E61E08BE00E94FA0E61E087E155
:1032D0000E94130F61E08BE00C94130FCB010C9450
:1032E000A1378F929F92AF92BF92CF92DF92EF92CF
:1032F000FF920F931F93CF93DF93CDB7DEB7C75FD6
:10330000D1090FB6F894DEBF0FBECDBF8E010051BC
:103310001F4F580128E0A20EB11C7E0181E8E80E83
:10332000F11CCC24C394D12CCC0EDD1E6DE0CE015B
:103330008F519F4F0E94603040E06CE08DEF97E02E
:103340000E948F1840E06DE08DEF97E00E948F188B
:10335000F801108211821282138261E08CE00E94D7
:10336000FA0E61E08CE00E94130FCE018F519F4F47
:103370000E94402F41E06DE08DEF97E00E948F1892
:103380006AE070E080E090E00E94190E40E063E3A4
:10339000CE018F519F4F0E94113062E370E080E0B8
:1033A00090E00E94190E4701CE018F519F4F0E945D
:1033B000E62FF2E08F1A9108F4018083118261E018
:1033C00070E080E090E00E94190E8C149D0461F77B
:1033D000FE017196D701C60180599F4F219131910D
:1033E0002D933D93E817F907C9F731EE832E912C01
:1033F0008C0E9D1E81E090E0A0E0B0E0F4013291DF
:1034000022914F012130310569F4F8014081518149
:1034100062817381480F591F6A1F7B1F408351834C
:1034200062837383880F991FAA1FBB1F8E149F048A
:1034300029F7F80180819181A281B3818F3F9F4F4D
:10344000AF4FBF4F29F4F80110821182128213820C
:1034500060E08CE00E94130F40E06CE08DEF97E09D
:103460000E948F1840E06DE08DEF97E00E948F186A
:103470000C5F1F4F0A151B0509F058CFC051DF4FD5
:10348000088119812A813B81C05FD040CC50DF4F39
:1034900088819981AA81BB81C45FD0400817190730
:1034A0002A073B0719F000E010E09801B801C901B4
:1034B000C950DF4F0FB6F894DEBF0FBECDBFDF910E
:1034C000CF911F910F91FF90EF90DF90CF90BF9021
:1034D000AF909F908F900895CF92DF92EF92FF92DE
:1034E0000E9471196B017C016115710581059105BF
:1034F00091F483EE90E00E94A9376A302AE07207C7
:103500008207920741F06F3F2FEF72078207920701
:1035100011F06B017C01B601C701FF90EF90DF90C5
:10352000CF900895FB012081822F80538A3030F4A0
:10353000332727FD30952053310909C0822F81544C
:10354000863040F4332727FD3095275331096F5FCC
:103550007F4F02C020E030E0FB018081982F905324
:103560009A3028F4992787FD9095C0970BC0982F23
:103570009154963028F4992787FD9095C79702C0FB
:1035800080E090E0F0E12F9F800D112408958FEDF1
:1035900090E00E94A1378F3F09F480E00895E62F64
:1035A000CA01B9014E2F0E949F0F61E086E10E947F
:1035B000FA0E61E087E10E94FA0E61E08BE00E9462
:1035C000FA0E61E087E10E94130F61E08BE00C943A
:1035D000130F613019F0633071F514C0FC01E2582B
:1035E000FC4F8081811102C061E013C0813019F568
:1035F0008DEF97E00E94461961E086E00E94FA0E86
:1036000061E016C0FC01E258FC4F8081811103C0CB
:1036100060E086E10EC0813071F440E060E08DEF43
:1036200097E00E94211961E086E00E94FA0E60E0B6
:1036300086E00C94130F08950F931F93CF93DF939D
:1036400000D0CDB7DEB78C018DEF97E069837A8328
:103650000E945E19F801ED54FC4F11821082F801AE
:10366000E358FC4F808169817A81833009F449C035
:1036700028F4813059F0823031F41CC08430C1F11B
:10368000853009F450C020E030E04FC0F801E9591E
:10369000FE4F8081882309F446C0DB0118968C9187
:1036A0001897813089F119968C91811130C022E6EA
:1036B00030E03BC0F801E959FE4F9081FB01808565
:1036C000911105C0813031F52CE530E02EC0F801B4
:1036D000E452FC4F813031F480818823F1F026E4FC
:1036E00030E023C080818823D9F02EE330E01DC074
:1036F000F801E959FE4F80818823A9F020E530E0E8
:1037000014C029E430E011C02FE530E00EC02EE5F2
:1037100030E00BC024E530E008C02AE430E005C00A
:1037200022E430E002C024E630E0FB01E85CFE4F1A
:10373000808191812817390710F431832083D801C3
:10374000ED91FC910280F381E02DC8010F900F9064
:10375000DF91CF911F910F9109942F923F924F9239
:103760005F927F928F929F92AF92BF92CF92DF92A1
:10377000EF92FF920F931F93CF93DF93CDB7DEB7F6
:103780002A970FB6F894DEBF0FBECDBF4C016B0178
:103790005A01722EF32ECA010E94253521E0E21251
:1037A00042C044244394512C4C0E5D1E212C312CDC
:1037B000F501E20DF31D8081898781818A87BE0131
:1037C000675F7F4F8DEF97E00E94921AD2018D9331
:1037D0002D01B2E02B0E311CE0E12E16310441F731
:1037E0008981D60114968C9314978A8115968C93AF
:1037F00015978B8116968C9316978C8117968C93C0
:1038000017978D818C938E8111968C9311978F8150
:1038100012968C931297888513968C93139781E058
:1038200019968C9324C0E11022C0F501808189870C
:1038300081818A87BE01675F7F4F8DEF97E00E948D
:10384000921A8983D50112968C91129789871396C3
:103850008C918A87BE01675F7F4F8DEF97E00E9452
:10386000921A8A839981F601928783871186D401FF
:10387000AC52BC4F11961C921E92E72DFF2D0E0FDD
:103880001F1FAD0113C0DA018D919C9121918C0D08
:103890009D1DDC011C962C93DA018D919C91119752
:1038A00001968D939C938C32914018F4E017F107A8
:1038B00051F7F601E85CFE4FD401AC52BC4F8D913C
:1038C0009C919183808381E02A960FB6F894DEBFA5
:1038D0000FBECDBFDF91CF911F910F91FF90EF9061
:1038E000DF90CF90BF90AF909F908F907F905F9030
:1038F0004F903F902F900895EF920F931F93EE24D7
:10390000E3940E94AD1B1F910F91EF900895CF9308
:10391000DF9380E090E0FB01E85CFE4F420F511D19
:1039200009C0DA01A80FB91FEB01C80FD91F2C85F8
:103930002C930196208131818217930790F3DF91B8
:10394000CF9108956F927F929F92AF92BF92CF9244
:10395000DF92EF92FF920F931F93CF93DF93FA01C1
:103960003901319681E090E010E0685C7E4F30E2F2
:10397000B32E4DE7A42E43C02081213149F02331DD
:1039800039F02E3729F02D3719F00196319637C0CE
:103990002B252083D3012C912F5F2C939080A08224
:1039A0009C012E5F3F4FEF01229617C09880D8826E
:1039B0007901BFEFEB1AFB0A2E5F3F4F2296D3012E
:1039C0004C916801C40ED11CA601DB01CD90DC90A6
:1039D0004C0D5D1DE416F506C0F6DE01DE909C92EE
:1039E000D3014C91D801A40FB11DAD01DB01ED90C5
:1039F000FC904E0D5F1D24173507C0F2C6CFD301D2
:103A00002C916801C20ED11C9601DB014D915C9195
:103A1000240F351F8217930708F4AECFDF91CF91A3
:103A20001F910F91FF90EF90DF90CF90BF90AF90DC
:103A30009F907F906F900895AF92BF92CF92DF9248
:103A4000EF92FF920F931F93CF93DF93E0E0F0E0AC
:103A5000A3E1CA2EBEE7BB2EC1E1AC2EEB01C20F23
:103A6000D31F3BC0FC01E20FF31FE60FF71F7C01E1
:103A7000E20EF31EDF013196DC901DE7D11621F036
:103A80008417950779F52AC08417950738F58C01B6
:103A90000F5F1F4FFB01EE0DFF1DE181E33359F076
:103AA00018F4E13369F405C0ED3549F0EE3541F421
:103AB00004C0AC9205C0CC9203C0BC9201C0DC92A1
:103AC0004150510905C0FE01E80FF91FA181A083F3
:103AD0000196F80184179507B0F3CF018417950775
:103AE00008F202C00196C3CFDF91CF911F910F91D1
:103AF000FF90EF90DF90CF90BF90AF900895CF935D
:103B0000DF93DC01AD54BC4F2D5F3F4F11963C93CA
:103B10002E9320E030E00AC0EB01CE0FDF1F88813A
:103B2000280F311D31961196FC93EE93ED91FC9187
:103B30001197E417F50780F32F3F310519F081E065
:103B40002F3F09F480E0DF91CF910895EF92FF922B
:103B50000F931F93CF93DF93EC017B0189010E94A8
:103B60007F1D811109C0F701E00FF11F8481C95247
:103B7000DE4F888380E001C081E0DF91CF911F910B
:103B80000F91FF90EF900895FB01918180E02281D9
:103B9000820F911D339620E030E040E004C0519147
:103BA000450F2F5F3F4F28173907C9F7842F80959E
:103BB00008958A549C4FFC018EE1DF011D928A9585
:103BC000E9F70895DC01AD54BC4F11961C921E928A
:103BD0000FC0F901B696EE0FFF1FE80FF91F4081E5
:103BE0005181452B59F02F5F3F4F11963C932E93F7
:103BF0002D913C9111972530310558F3822F08956E
:103C00000F931F93CF93DF938C01EC01CD54DC4FC6
:103C10001982188216C0B696EE0FFF1FE00FF11F33
:103C2000808191810E94013488819981FC01B6963E
:103C3000EE0FFF1FE00FF11F118210820196998392
:103C40008883E881F981E530F10528F3DF91CF9190
:103C50001F910F910895AF92BF92CF92DF92EF9292
:103C6000FF920F931F93CF93DF937C01E0E0F0E08E
:103C700010E05F01812F8E1BEF01A696CC0FDD1F98
:103C8000CE0DDF1D27C065012FEFC21AD20A688151
:103C90007981625B7E4F9601220F331F2E0D3F1DEF
:103CA000245B3F4FD9014D915C91425B5E4FDB013C
:103CB0000D911D912D913C91DA014D915D916D9188
:103CC0007C9104171507260737071CF0943069F418
:103CD00008C05601982F9A0DB4E0AB16B10498F2C3
:103CE000F5CF1E2FE5E0F0E002C01E2F1F5F3196DA
:103CF000E530F10508F4BDCFF701ED54FC4FB1827A
:103D0000A082C12FD0E0A696CC0FDD1FCE0DDF1D07
:103D1000888199810E94013419821882812FDF9154
:103D2000CF911F910F91FF90EF90DF90CF90BF90B8
:103D3000AF900895AF92BF92CF92DF92EF92FF9231
:103D40000F931F93CF93DF937C01E0E0F0E010E04E
:103D50005F01812F8E1BEF01A696CC0FDD1FCE0DCC
:103D6000DF1D27C065012FEFC21AD20A6881798151
:103D7000625B7E4F9601220F331F2E0D3F1D245B89
:103D80003F4FD9014D915C91425B5E4FDB010D913C
:103D90001D912D913C91DA014D915D916D917C9138
:103DA00040175107620773071CF0943069F408C08C
:103DB0005601982F9A0DB4E0AB16B10498F2F5CFE6
:103DC0001E2FE5E0F0E002C01E2F1F5F3196E530A8
:103DD000F10508F4BDCFF701ED54FC4FB182A0828C
:103DE000C12FD0E0A696CC0FDD1FCE0DDF1D888140
:103DF00099810E94013419821882812FDF91CF911D
:103E00001F910F91FF90EF90DF90CF90BF90AF90F8
:103E100008958F929F92AF92BF92CF92DF92EF92CE
:103E2000FF920F931F93CF93DF931F92CDB7DEB70F
:103E30006C018B017C0187E5E80EF11CD7018C91A8
:103E40008F5F8C93C6010E94E21DF701208126300E
:103E5000B8F0F601E852FE4F9081913021F038F031
:103E6000923071F408C0C6010E942B1E09C0C60121
:103E70000E949A1E05C02150D7012C9382E0E6C211
:103E8000E82EF12C67E571E081E090E00E94483374
:103E90005C014701B6E28B0E911C880C991C8C0CBE
:103EA0009D1CF401B182A082A114B10409F4CBC21B
:103EB000F601EB54FC4F2081213009F47EC038F02C
:103EC000223009F427C1233009F0BFC2D5C1F50162
:103ED000E35BFE4F1082D401AD90BC900E94C70DF1
:103EE000F501E25BFE4F6083718382839383D4018B
:103EF000ED91FC91D8018C91E65BFE4F8083D4015B
:103F0000ED91FC91D80111968C91E55BFE4F808379
:103F1000D401ED91FC91D80112968C91E45BFE4F97
:103F20008083D401ED91FC91D80113968C91EF5BC5
:103F3000FE4F8083D401ED91FC91DF01AF5BBE4F5A
:103F40008C918150823018F481E0808701C0108606
:103F5000F601E158FC4F80819181049720F484E0C0
:103F600090E091838083B6E2EB0EF11CEE0CFF1C17
:103F7000EC0CFD1CD7018D919C91DC01A85CBE4F1F
:103F80008081918104978D939C93F801349680E011
:103F900090E007C04191D901A80FB91F1C964C931E
:103FA0000196D7012D913C91D901A85CBE4F4D914E
:103FB0005C918417950770F348C2F501E35BFE4FEF
:103FC0002083F401A080B18029830E94C70DF501F0
:103FD000E25BFE4F6083718382839383D401ED9112
:103FE000FC91D8018C91EA5BFE4F8083D401ED9166
:103FF000FC91D80111968C91E95BFE4F8083D4012E
:10400000ED91FC91D80112968C91E85BFE4F808374
:10401000D401ED91FC91D80113968C91E75BFE4F92
:104020008083D401ED91FC91D80114968C91EE5BC4
:10403000FE4F8083D401ED91FC91D80115968C91AF
:10404000ED5BFE4F8083D401ED91FC91D801169673
:104050008C91EC5BFE4F8083D401ED91FC91D801F3
:1040600017968C91EB5BFE4F8083D401ED91FC9110
:10407000D80118968C91E45BFE4F8083D401ED91BA
:10408000FC91D80119968C91EF5BFE4F8083D4018F
:10409000ED91FC91DF01AF5BBE4F8C918150298186
:1040A000823010F4208701C01086F601E158FC4FE1
:1040B000808191810A9720F48AE090E09183808347
:1040C000B6E2EB0EF11CEE0CFF1CEC0CFD1CD70154
:1040D0008D919C91DC01A85CBE4F808191810A97F3
:1040E0008D939C93F8013A9680E090E007C041914F
:1040F000D901A80FB91F1C964C930196D7012D9199
:104100003C91D901A85CBE4F4D915C9184179507F5
:1041100070F39BC10E94C70DF501E25BFE4F608307
:10412000718382839383D401ED91FC91D8018C91AA
:10413000EA5BFE4F8083D401ED91FC91D80111968A
:104140008C91E95BFE4F8083D401ED91FC91D80105
:1041500012968C91E85BFE4F8083D401ED91FC9127
:10416000D80113968C91E75BFE4F8083D401ED91CB
:10417000FC91D80114968C91EE5BFE4F8083D401A4
:10418000ED91FC91D80115968C91ED5BFE4F8083EB
:10419000D401ED91FC91D80116968C91EC5BFE4F09
:1041A0008083D401ED91FC91D80117968C91EB5B43
:1041B000FE4F8083D401ED91FC91D80118968C912B
:1041C000E65BFE4F8083D401ED91FC91D8011996F6
:1041D0008C91E55BFE4F8083D401ED91FC91D80179
:1041E0001A968C91EF5BFE4F8083D401ED91FC9188
:1041F000DF01AF5BBE4F8C918F70823019F481E08C
:10420000808701C01086F601E158FC4F80819181C2
:104210000B9720F48BE090E091838083B6E2EB0E65
:10422000F11CEE0CFF1CEC0CFD1CD7018D919C9138
:10423000DC01A85CBE4F808191810B978D939C938C
:10424000F8013B9680E090E007C04191D901A80FAA
:10425000B91F1C964C930196D7012D913C91D90121
:10426000A85CBE4F4D915C918417950770F3F901DE
:10427000E45BFE4F1082E9C00E94C70DF501E25BCE
:10428000FE4F6083718382839383D401ED91FC910F
:10429000D8018C91EA5BFE4F8083D401ED91FC91B3
:1042A000D80111968C91E95BFE4F8083D401ED918A
:1042B000FC91D80112968C91E85BFE4F8083D4016B
:1042C000ED91FC91D80113968C91E75BFE4F8083B2
:1042D000D401ED91FC91D80114968C91EE5BFE4FC8
:1042E0008083D401ED91FC91D80115968C91ED5B02
:1042F000FE4F8083D401ED91FC91D80116968C91EC
:10430000EC5BFE4F8083D401ED91FC91D8011796B0
:104310008C91EB5BFE4F8083D401ED91FC91D80131
:1043200018968C91E65BFE4F8083D401ED91FC9151
:10433000D80119968C91E55BFE4F8083D401ED91F5
:10434000FC91119782E08087ED91FC91D8011A963B
:104350008C91E65CFE4F8083D401ED91FC91D801F5
:104360001B968C91E55CFE4F8083D401ED91FC910E
:10437000D8011C968C91E45CFE4F8083D401ED91B2
:10438000FC91D8011D968C91E35CFE4F8083D40193
:10439000ED91FC91D8011E968C91E25CFE4F8083DA
:1043A000D401ED91FC91D8011F968C91E15CFE4FF8
:1043B0008083D401ED91FC91D80150968C91EF5BF4
:1043C000FE4F8083D401ED91FC91DF01AF5BBE4FC6
:1043D0008C918F70823011F481E08087F601E15872
:1043E000FC4F80819181419720F481E190E091839D
:1043F0008083B6E2EB0EF11CEE0CFF1CEC0CFD1CF6
:10440000D7018D919C91DC01A85CBE4F8081918188
:1044100041978D939C93F801719680E090E007C0DE
:104420004191D901A80FB91F1C964C930196D70151
:104430002D913C91D901A85CBE4F4D915C918417A0
:10444000950770F302C081E001C080E00F90DF911A
:10445000CF911F910F91FF90EF90DF90CF90BF9081
:10446000AF909F908F90089582589C4FFC0180815F
:104470000E942310089582589C4FFC0180810C9467
:104480007810AF92BF92CF92DF92EF92FF920F938C
:104490001F93CF93DF93CDB7DEB7C857D1090FB6BF
:1044A000F894DEBF0FBECDBF8C016B015A017901BC
:1044B0000E94152F863991050CF45AC09701A50169
:1044C000B601C8010E947F1D882329F0C8010E94FF
:1044D0003B2281E04EC0D801A158BC4F11961C92DE
:1044E0001E92C7010496AE014F5F5F4F21E0A21AF2
:1044F000B10811C09601280F391FF9012081FA0176
:104500002193AF012D913C9111972F5F3F4F119651
:104510003C932E9301968A159B0560F3F601EE0DF0
:10452000FF1D8381813871F018F48038D1F405C003
:10453000803969F08139A9F40FC0F801EB54FC4FC0
:1045400081E00EC0F801EB54FC4F10820AC0F80164
:10455000EB54FC4F82E004C0F801EB54FC4F83E0C5
:104560008083BE016F5F7F4FC8010E94091F01C099
:104570008FEFC858DF4F0FB6F894DEBF0FBECDBF28
:10458000DF91CF911F910F91FF90EF90DF90CF902F
:10459000BF90AF9008952F923F924F925F926F928B
:1045A0007F928F929F92AF92BF92CF92DF92EF92C3
:1045B000FF920F931F93CF93DF93CDB7DEB7C7530F
:1045C000D1400FB6F894DEBF0FBECDBF1C010E94D4
:1045D000C70D6B017C01F101E552FE4F82E0808343
:1045E000FE0131968CE291E0DF019C011D92215089
:1045F0003040E1F7F101E552FC4F8081882369F0FA
:104600008EE78983108231E0C35DDE4F3883CD525F
:10461000D14044244394512C07C0C35DDE4F18821F
:10462000CD52D140412C512C612C712C0BE010E06B
:10463000910125523C4FC25DDE4F39832883CE5213
:10464000D140910122583C4FC05DDE4F3983288311
:10465000C053D140B1C0C05DDE4FA881B981C05305
:10466000D1408C910E943F1088248394912C8C0E11
:104670009D1E840C951CF40180835201FFEFAF1A3C
:10468000BF0A0E94C70D6B017C01D4012C912E370B
:10469000D9F48BE291E0841995098E36910548F49E
:1046A00031E0C25DDE4FE881F981CE52D1403083E6
:1046B0000BC0C35DDE4F8881CD52D1408F5FC35D9B
:1046C000DE4F8883CD52D14091E0A916B10441F468
:1046D00081E090E02E3711F080E090E05C0105C0B1
:1046E000ACE2AA16A1E0BA0618F42501912C03C089
:1046F000250199249394B6E06B9E90011124872D97
:1047000090E00496820F931FFE01EA0DFB1DA81690
:10471000B90651F481E0781651F080818A588230D0
:1047200050F00D5F1F4F03C091E0791204C00F5F7E
:104730001F4F7724739480818D3729F4711018C02E
:104740000F5F1F4F15C08A3849F42C5F3F4FA216E8
:10475000B30671F40A5F1F4F63940AC08E3741F4A9
:10476000A1E07A1205C00150110939EF732E700EC5
:10477000A016B10611F4992493940E94C70D6C15EC
:104780007D058E059F0520F40E94C70D6B017C01FD
:104790000E94C70D6C197D098E099F09613D774004
:1047A0008105910538F0F101E258FC4F80810E94AB
:1047B000781025C1911023C1C25DDE4FE881F981D7
:1047C000CE52D1408081882309F40AC118C100E08B
:1047D00010E05101FDE4AF1AFCEFBF0A910128522D
:1047E0003C4FC25DDE4F39832883CE52D140D10188
:1047F000A752BC4FC05DDE4FB983A883C053D140E0
:10480000F101E652FC4FCE5CDE4FF983E883C253E0
:10481000D140910129523C4FCC5CDE4F3983288333
:10482000C453D140D101AA52BC4FCA5CDE4FB983F8
:10483000A883C653D1402BED822E99249394820CE9
:10484000931C3101B6E26B1ABEEF7B0ABBC0FE01BE
:10485000329681E090E021912E3709F4B8CF84158B
:10486000950508F4D3C0B3CFE1E0F0E0EC0FFD1FF5
:10487000EE0DFF1D80818E3771F4A701401B510B97
:10488000F50111821082D12C21E030E02C0F3D1F68
:10489000200F311F10C0E414F50408F4B9C0EDCFA7
:1048A000F901E80FF91F60816D3709F4D39401967F
:1048B000D5018D939C93F501808191818417950793
:1048C00078F3DD2039F09801BE016F5F7F4FC101A1
:1048D0000E941C1DE4E0F0E0EC0FFD1FE00FF11F53
:1048E00080818B3811F120F48A3809F05DC005C051
:1048F0008059823008F058C00BC0A7014D195109EA
:104900009801BE016F5F7F4FC1010E94A61D4CC080
:10491000A7014D1951099801BE016F5F7F4FC10179
:104920000E944122D3018C933FC0FE01E00FF11F92
:104930008681C25DDE4FE881F981CE52D14080830D
:10494000FE01E00FF11F8781C05DDE4FA881B981B4
:10495000C053D1408C93FE01E00FF11F8085CE5CE7
:10496000DE4FE881F981C253D1408083FE01E00F20
:10497000F11F8285CC5CDE4FA881B981C453D14040
:104980008C93FE01E00FF11F8185CA5CDE4FE88148
:10499000F981C653D1408083811103C0D4011C9298
:1049A00003C081E0F4018083C35DDE4FF881CD5206
:1049B000D140F150C35DDE4FF883CD52D140C701E5
:1049C00001968701C35DDE4F2881CD52D14022235D
:1049D00011F07C0149CFF101E552FE4F80811CC0EE
:1049E000C05DDE4FA881B981C053D1408C910E9437
:1049F0002310181619060CF42ECE912CBECE8981E8
:104A00008E3709F024CF81E090E0E1CE019623CFEC
:104A1000BFEFEB1AFB0A28CFC95CDE4F0FB6F89444
:104A2000DEBF0FBECDBFDF91CF911F910F91FF90E1
:104A3000EF90DF90CF90BF90AF909F908F907F903E
:104A40006F905F904F903F902F9008951F93CF935A
:104A5000DF93EC01162FE881F9810190F081E02DC0
:104A60000995FE01E258FC4F20E032EC41E050E0B5
:104A70006081CE010E94CF1A61E0CE010E94E91A46
:104A800011110AC04091990E50919A0E60919B0E9F
:104A900070919C0E44600BC0113089F44091990EC6
:104AA00050919A0E60919B0E70919C0E48604093BD
:104AB000990E50939A0E60939B0E70939C0EFE017C
:104AC000E358FC4F8081823029F464EF71E080E08C
:104AD00090E006C08330C9F362E370E080E090E0CC
:104AE0000E94190E81E08EABCE010E943B2280E035
:104AF000DF91CF911F91089560E00C9426252F92AD
:104B00003F924F925F926F927F928F929F92AF925D
:104B1000BF92CF92DF92EF92FF920F931F93CF93AA
:104B2000DF93CDB7DEB7CF53D1400FB6F894DEBFD9
:104B30000FBECDBF1C01C85CDE4F488359836A831A
:104B40007B83C853D1408CE291E08E010F5F1F4FF1
:104B5000F8019C01119221503040E1F791012E5B48
:104B60003D4FC25DDE4F39832883CE52D140F901DB
:104B70009C01119221503040E1F7F8019C01119203
:104B800021503040E1F70E94C70D6B017C01C35DED
:104B9000DE4F1882CD52D140CC5CDE4F1882C45318
:104BA000D140CB5CDE4F1882C553D140CE5CDE4F86
:104BB0001882C253D140612C712C812C912C412C34
:104BC000512CA10142585C4FC05DDE4F5983488390
:104BD000C053D1405801910122593C4FC25CDE4F75
:104BE00039832883CE53D14026C2772069F08EE7DF
:104BF0008983CE5CDE4F1882C253D140812C912C28
:104C000044244394512C02C0611031C2C1010E945E
:104C10003422682E712C00E010E01BC0C05DDE4F16
:104C2000E881F981C053D14080810E943F108E37C6
:104C300071F4F5012CE231E0119221503040E1F79E
:104C400089836624639444244394512C10C20F5FDB
:104C50001F4F0615170514F312C2C1010E9434221A
:104C6000833008F4CDC1C05DDE4FE881F981C053C7
:104C7000D14080810E943F108E3709F4DAC1C95CAF
:104C8000DE4F8883C753D140CA5CDE4F1882C653BB
:104C9000D140CA5CDE4F28813981C653D140820E93
:104CA000931EC05DDE4FE881F981C053D140808101
:104CB0000E943F108E3709F4BCC1880E911CC05D64
:104CC000DE4FE881F981C053D14080810E943F10BE
:104CD000C35DDE4F8883CD52D1408E3709F4A9C120
:104CE0008058823048F0C35DDE4F2881CD52D140DC
:104CF000203911F02139D9F4F501E40DF51D908228
:104D0000E2E0F0E0EC0FFD1FE40DF51D8082E3E032
:104D1000F0E0EC0FFD1FE40DF51DC35DDE4F3881A3
:104D2000CD52D140308343E0440E511CAAC1F5015D
:104D30002CE231E0119221503040E1F7812C912C8E
:104D4000412C512C9CC1C1010E943422482F50E0BB
:104D5000CE5CDE4F59834883C253D14000E010E05F
:104D6000712C94012D5F3F4FC45CDE4F3983288343
:104D7000CC53D1406BC0C05DDE4FE881F981C05398
:104D8000D14080810E943F108E3709F45BC08D377F
:104D900001F5C1010E9434228823B1F1C05DDE4FCC
:104DA000E881F981C053D14080810E943F10F50114
:104DB000E40DF51D20E2822780833FEF431A530A5A
:104DC0000F5F1F4F4CE2441641E0540620F187E08C
:104DD00066C1CC5CDE4F5881C453D140F501E40D6F
:104DE000F51D552339F020E2822780833FEF431AD7
:104DF000530AE8CF80835FEF451A550A8CE24816C4
:104E000081E0580668F0E3CF21E0CC5CDE4F2883D8
:104E1000C453D14005C0CC5CDE4F1882C453D1408E
:104E2000C45CDE4F48815981CC53D14044165506AD
:104E300058F0C25CDE4FE881F981CE53D1405182F7
:104E4000408227C1772473940F5F1F4FCE5CDE4FE3
:104E500028813981C253D140021713070CF48BCF3C
:104E600031E0CE5CDE4F3883C253D140CAC0C05D52
:104E7000DE4FE881F981C053D14080810E943F100C
:104E80008E3709F4CAC08D3789F4C1010E943422DB
:104E9000882309F4E6C0C05DDE4FE881F981C05384
:104EA000D14080810E943F10F0E28F27182FBE0171
:104EB0006F5F7F4FC1010E94C41D8113D4C0C35DC9
:104EC000DE4F2881CD52D140203841F5F101E25921
:104ED000FC4F808191810E97918380839E01215F99
:104EE0003F4FAC01B901C25DDE4F8881CE52D14047
:104EF000C15DDE4F9881CF52D1400E940635D1016D
:104F0000A059BC4F88E0FE01359601900D928A951C
:104F1000E1F7F101E658FC4F8D852BC0C35DDE4FF4
:104F20003881CD52D140313861F5F101E259FC4F61
:104F3000808191810897918380839E01275F3F4FF5
:104F4000AC01B901C25DDE4F8881CE52D140C15D56
:104F5000DE4F9881CF52D1400E940635F101E858CA
:104F6000FC4F8D819E8191838083F101E658FC4F37
:104F70008F8190E09195819591099183808380E064
:104F80008EC0C35DDE4F4881CD52D140403961F4BF
:104F9000F101E259FC4F808191810F9791838083C9
:104FA0009E01205F3F4F13C0C35DDE4F5881CD523D
:104FB000D140513909F059C0F101E259FC4F8081CB
:104FC00091814597918380839E012A5E3F4FAC017A
:104FD000B901C25DDE4F8881CE52D140C15DDE4F46
:104FE0009881CF52D1400E940635D101A059BC4FC3
:104FF00088E0FE01359601900D928A95E1F7BFCFCA
:10500000712C0E94C70D6C157D058E059F0598F4C7
:105010000E94C70D6B017C010EC021E0CB5CDE4F0E
:105020002883C553D14031E0CE5CDE4F3883C25374
:10503000D140772473940E94C70D6C197D098E09A5
:105040009F09C85CDE4F288139814A815B81C85342
:10505000D140621773078407950708F4C6CD81E035
:105060001EC085E01CC084E01AC082E018C0CE5C7F
:10507000DE4F3881C253D140311103C0EECD612CD7
:10508000BFCFCB5CDE4F4881C553D140442309F4E8
:105090005ACEC1010E9434228111E9CE83E0C15C65
:1050A000DE4F0FB6F894DEBF0FBECDBFDF91CF91BC
:1050B0001F910F91FF90EF90DF90CF90BF90AF9036
:1050C0009F908F907F906F905F904F903F902F9028
:1050D00008958F929F92AF92BF92CF92DF92EF92FC
:1050E000FF920F931F93CF93DF93CDB7DEB7C755D2
:1050F000D1400FB6F894DEBF0FBECDBF6C01B62E07
:10510000A72E8901FC01E458FC4FF080BE016F5FBF
:105110007F4F27E531E0FB01C90111920197E9F7C3
:10512000EB2DFA2DDF010D900020E9F71597AE1752
:10513000BF0741F4E12C9A014B2D5A2DC6010E9464
:10514000AD1B06C09A014B2D5A2DC6010E947C1C36
:10515000E12C860105521E4F80E9882E99249394F4
:10516000A12CB12CBE016F5F7F4FC6010E941C1B9A
:10517000F80180818823B1F00E94F034BC018827B7
:1051800077FD8095982FA50194010E948F326C596C
:105190007F4F8F4F9F4F0E94190EE394FE1410F71C
:1051A00081E001C080E0C95ADE4F0FB6F894DEBF3F
:1051B0000FBECDBFDF91CF911F910F91FF90EF9068
:1051C000DF90CF90BF90AF909F908F900895CF9336
:1051D000DF93EC0180E2ECE2F8E0DF01982F1D9212
:1051E0009A95E9F710922B0810922A08E9E0F8E066
:1051F000DF011D928A95E9F71092080810920708BE
:105200000E94912A81E08E8384E090E0DF91CF912B
:105210000C94430E81E08093060860932908109255
:1052200008081092070808950C940A2980912A080A
:1052300090912B08891B089590912B0880912A0842
:10524000981748F4E92FF0E0E45DF74F80819F5F05
:1052500090932B08089580E00895CF93DF93EC019D
:105260000E94DD2A1E82DF91CF9108954091990E10
:1052700050919A0E60919B0E70919C0E4170FC01B2
:1052800040834091990E50919A0E60919B0E7091BF
:105290009C0E76956795579547954170418380910F
:1052A000990E90919A0EA0919B0EB0919C0E84FD48
:1052B00049C08091990E90919A0EA0919B0EB09149
:1052C0009C0E85FD3FC08091990E90919A0EA09101
:1052D0009B0EB0919C0E86FD35C08091990E9091E9
:1052E0009A0EA0919B0EB0919C0E87FD2BC08091D1
:1052F000990E90919A0EA0919B0EB0919C0E90FDEC
:1053000021C08091990E90919A0EA0919B0EB09120
:105310009C0E91FD17C08091990E90919A0EA091CC
:105320009B0EB0919C0E93FD0DC0089540E060E08F
:105330008EE597E00E94C01240E061E08EE597E0C4
:105340000C94C01280910508882381F30895CF93AF
:10535000DF93EC018091990E90919A0EA0919B0E93
:10536000B0919C0E84FD58C08091990E90919A0E38
:10537000A0919B0EB0919C0E85FD4EC08091990E20
:1053800090919A0EA0919B0EB0919C0E86FD44C008
:105390008091990E90919A0EA0919B0EB0919C0EC7
:1053A00087FD3AC08091990E90919A0EA0919B0E24
:1053B000B0919C0E90FD30C04091990E50919A0E84
:1053C00060919B0E70919C0E51FD26C04091990EEC
:1053D00050919A0E60919B0E70919C0E53FD1CC0D3
:1053E00020C041E060E08EE597E00E94C0120CC052
:1053F0008981811106C041E060E08EE597E00E945E
:10540000C012888181110DC041E061E08EE597E016
:10541000DF91CF910C94C012809105088111E8CFE3
:10542000E0CFDF91CF910895CF93DF931F92CDB757
:10543000DEB7698380910608882389F08091070888
:105440008032D0F480910808E82FF0E0E75FF74F52
:1054500060838F5F80930808809307080DC08EEFEC
:1054600097E00E94362961E0CE0101960E94BE2A93
:105470008EEF97E00E94A7290F90DF91CF910895BA
:105480000C94142ACF938EEF97E00E94362921E0E6
:105490004091070869E078E0809129080E94812BFB
:1054A000C82F1092080810920708109206088EEF75
:1054B00097E00E94A7298C2FCF910895CF93DF9377
:1054C000D62FC42F8EEF97E00E943629C13208F004
:1054D000C0E24C2F6CE278E08D2F0E94E62BD82F93
:1054E00010922B08C0932A088EEF97E00E94A729FC
:1054F0008D2FDF91CF9108950C945E2A10920508AC
:105500001092FE071092FF078AEF90E0A0E0B0E053
:105510008093000890930108A0930208B0930308B9
:10552000089510925508E4E6F0E080818F7780833B
:10553000589A599AE9EBF0E080818E7F80838081D0
:105540008D7F808381E48093B80085E48093BC00E4
:1055500080E2E6E5F8E0DF01982F1D929A95E9F7E1
:10556000E6E7F8E0DF01982F1D929A95E9F7E6E962
:10557000F8E0DF011D928A95E9F70895613298F409
:1055800020915508243089F460935208FC0186E785
:1055900098E0DC0102C021912D932A2F281B2617A9
:1055A000D0F380E0089581E0089582E0089585ECCD
:1055B0008093BC001092550808955898599880918E
:1055C000B90081608093B9008091B90082608093B6
:1055D000B9008091BC0080688093BC008091BC00C1
:1055E00080618093BC008091BC008F7B8093BC0065
:1055F0008091BC008F7D8093BC008091BC00877F30
:105600008093BC008091990E90919A0EA0919B0E70
:10561000B0919C0E86FD14C08091990E90919A0EC7
:10562000A0919B0EB0919C0E90FD0AC08091990EA6
:1056300090919A0EA0919B0EB0919C0E93FF04C086
:105640008091BC008B7F03C08091BC0084608093FC
:10565000BC008091BC008E7F8093BC008091640070
:105660008068809364000895882349F010924C0864
:1056700010924D0810924E0810924F0813C080915E
:105680004C0890914D08A0914E08B0914F0801969A
:10569000A11DB11D80934C0890934D08A0934E0816
:1056A000B0934F0880914C0890914D08A0914E08FE
:1056B000B0914F08803A9648A140B10560F0109231
:1056C0004C0810924D0810924E0810924F080E94FC
:1056D000912A81E0089580E0089585ED8093BC00D3
:1056E00081E00E94342B08C080E00E94342B882384
:1056F00019F01092550808958091BC0084FDF4CFF4
:10570000F8CFFF920F931F93CF93DF93182F062F9D
:10571000F72EC42FD22F81E0413208F051C00E94F1
:10572000342B15C080E00E94342B882381F082E066
:10573000809355088FEF8093500810925408C093BF
:10574000B608E02FFF2D66E578E0DB0107C0809109
:1057500055088111E7CFEBCF81918D938A2F861B5E
:105760008C17D0F3812F90E0880F991F8093B70892
:1057700085EE8093BC0081E00E94342BD11105C0DE
:10578000809150088F3F59F414C0809155088230A1
:10579000B9F780E00E94342B81110DC0F6CF8091C3
:1057A0005008803251F080915008803341F483E0FA
:1057B00007C080E005C085E003C082E001C084E04E
:1057C000DF91CF911F910F91FF9008950F931F9339
:1057D000CF93DF93082FD62F172FC42F81E04132AC
:1057E000E0F50E94342B1DC080E00E94342B8823FA
:1057F000C1F081E0809355088FEF8093500810929C
:105800005408C093B608802F90E0880F991F8160DC
:105810008093B70885EE8093BC0081E00E94342B12
:1058200010C0809155088111DFCFE3CF80E00E9446
:10583000342B882331F086E598E0ED2FF12FDC0141
:1058400007C080915508813089F3F5CF2D912193C0
:105850002A2F281B2C17D0F380E0DF91CF911F91C6
:105860000F9108951F920F920FB60F9211240BB64D
:105870000F922F933F934F935F936F937F938F93E9
:105880009F93AF93BF93CF93EF93FF93C091B900D2
:10589000C87FC03609F49FC058F5C83209F45BC010
:1058A00090F4C03109F452C038F4CC2309F4F2C0AA
:1058B000C83009F0F3C04AC0C83109F44CC0C03246
:1058C00009F0ECC05DC0C03409F473C038F4C033D3
:1058D00009F45BC0C83309F0E1C05AC0C03509F40F
:1058E0005CC0C83509F46AC0C83409F0D7C0D4C058
:1058F000C83909F4C5C0A8F4C83709F46CC038F435
:10590000C83609F468C0C03709F0C8C064C0C838D8
:1059100009F4B6C0C03909F464C0C03809F0BEC08B
:1059200060C0C03B09F484C038F4C03A09F46BC0CD
:10593000C83A09F0B3C07CC0C03C09F4A5C0C83C5B
:1059400009F4A2C0C83B09F0A9C087C08091B7087C
:105950008093BB0013C0909154088091B6089817AB
:1059600008F09AC080915408E82FF0E0EA5AF74F07
:1059700090819093BB008F5F8093540885EC81C029
:105980000E946D2BC093500889C0C093500884C0FA
:10599000C09350080E94D72A81C0809154089091EA
:1059A000BB00E82FF0E0EA5AF74F90838F5F8093B7
:1059B0005408909154088091B6085FC080915408B3
:1059C0009091BB00E82FF0E0EA5AF74F90838F5F89
:1059D0008093540861C083E0809355081092510869
:1059E000CDCF80915108803208F04AC08091510893
:1059F0009091BB00E82FF0E0EA56F74F90838F5F5D
:105A000080935108BBCF80915108803230F4E091EF
:105A10005108F0E0EA56F74F108260915108E0918A
:105A2000B808F091B90870E086E998E009952CC0B3
:105A300084E0809355081092530810925208E09128
:105A4000BA08F091BB08099580915208811105C0F0
:105A500081E0809352081092760880915308E82FD5
:105A6000F0E0EA58F74F90819093BB008F5F8093EE
:105A700053089091530880915208981708F47ECFEC
:105A800085E88093BC000AC085EC8093BC0010922E
:105A9000550804C0109250080E946D2BFF91EF91A1
:105AA000CF91BF91AF919F918F917F916F915F91B6
:105AB0004F913F912F910F900BBE0F900FBE0F9003
:105AC0001F9018951F920F920FB60F9211240BB6CC
:105AD0000F922F933F934F935F936F937F938F9387
