:100000000C9448090C94772B0C94A82B0C94D92BA6
:100010000C940A2C0C943B2C0C946C2C0C949D2C62
:100020000C94CE2C0C9477090C9477090C947709D6
:100030000C94A4270C9477090C9477090C9400284D
:100040000C9477090C9477090C9477090C94770930
:100050000C9477090C9477090C9477090C94DB279E
:100060000C9477090C94772F0C9477090C947709EA
:100070000C9477090C9477090C9477090C94770900
:100080000C9477090C9477090C9477090C947709F0
:100090000C94B22F0C9477090C9477090C94AA81D4
:1000A0000C9477090C9477090C9477090C947709D0
:1000B0000C9477090C9477090C9477090C947709C0
:1000C0000C9477090C9477090C94770907634236EE
:1000D000B79BD8A71A39685618AEBAAB558C1D3CD9
:1000E000B7CC5763BD6DEDFD753EF6177231BF009D
:1000F0000000803F08000000BE922449123EABAAD7
:10010000AA2ABECDCCCC4C3E00000080BEABAAAA31
:10011000AA3E00000000BF000000803F0000000079
:1001200000084178D3BB4387D1133D190E3CC3BDB2
:100130004282AD2B3E68EC8276BED98FE1A93E4C5F
:1001400080EFFFBE01C4FF7F3F0000000000576149
:10015000726E696E673A204E6F205344206361725D
:100160006420696E7374616C6C6564004672616DC5
:100170006532536428293A204572726F723A204ED4
:100180006F206C6F672066696C65206F6E2053442A
:10019000004672616D6532536428293A20417070BF
:1001A000656E64206661696C656400830586058AF6
:1001B000058D059105950599059D05A105A405A841
:1001C00005AB05AF05B305B705BC05BF05C205C73F
:1001D00005CB05D005D305D605DA05DE05E105E535
:1001E00005E905ED05F005F505F805FB05FE050239
:1001F0000606060B061106160619061D062006231E
:1002000006260629062D063006340638063B063E2D
:10021000064106440648064C065106550658065C3B
:1002200006610666066A066E0676067A0681068509
:100230000689068F069306960699069D06A006A5D2
:1002400006A806AD06B206B606BB06C006C406CAB8
:1002500006CE06D406DA06E106E706ED06F106FA52
:1002600006040708070D07120717071B07200725B5
:10027000072A07310738073F0746074C0752075838
:10028000075C07630769076F0775077B07800785AA
:10029000078A078F0794079907A007A707AE07B338
:1002A00007B807BC07C107C607CC07D207D907DFC5
:1002B00007E607EC07F307FA07010808080E081518
:1002C000081B0822082908300836083D0843084959
:1002D00008500858085B085E08600864086A086FE0
:1002E0000874087A08800886088C08920898089E86
:1002F00008A408AA08B008B608BB08C008C508CBFF
:1003000008D10802020202020202020202020202F2
:1003100002020202020000000002000200000202CB
:1003200002020100020202020202020202020202B0
:1003300000020202020202000201030303000001A4
:100340000102010403030303030202020202020288
:100350000202020202020202000000040202020281
:10036000020200020202020202020202020202026F
:10037000020202000000000000000000020204026D
:100380000000000202020202020202020202020253
:10039000020202020202020202020202020202023D
:1003A000020202020202020202020202020202032C
:1003B0000303030303030303030303020201020312
:1003C0000300000000030003000003030302000019
:1003D00002020102020302020303030200020602F8
:1003E00003030300060000000000000000020000FC
:1003F00000000000000203010102030303030303E2
:1004000003030303000000030202020303030002CC
:1004100002020202020202020202020203030300BB
:1004200000000000000000000303000100000003C2
:10043000030303030303030303030303030303038C
:100440000202000202000404040003030303030386
:100450000303030303020202030303455252207302
:10046000656E736F72207479706520262076616CDA
:100470007565206D69736D617463682C200020764A
:100480007320004552522073656E736F7220747929
:10049000706520262076616C7565206D69736D61CD
:1004A0007463682C20002076732000010101010193
:1004B000010101010101010101010101010101012C
:1004C000010101010101010101010301010101011A
:1004D000010101010101010101010101010101010C
:1004E00002010101010303010101030101010101F5
:1004F00001010101010101010101010101010101EC
:1005000001030301010101010101010101010101D7
:1005100001010101010101010101010101010101CB
:1005200001010101010101010101010101010101BB
:1005300001010101010101010101010101010101AB
:10054000010101010102010101010101010101019A
:10055000010101010101014552522073656E736F63
:100560007220747970652026206E756D6265722028
:100570006F66206669656C6473206D69736D617464
:10058000636800434F00434F32004F32004348340A
:10059000004C5047004E483300415031004150322A
:1005A000005356004E4F32004F3300564F43005415
:1005B0004341005446410048554D410050410050D0
:1005C000570042454E44005642520048414C4C00B0
:1005D0004C50004C4C004C554D0050495200535467
:1005E000004D43500043444700435047004C4400F3
:1005F00044555354005553004D4600505300544346
:1006000042005446420048554D4200534F494C5415
:1006100000534F494C004C57005041520055560072
:10062000544400534400464400414E450057560090
:10063000504C5600524144004355005746004C432D
:10064000004446004241540047505300525353491E
:10065000004D4143004E41004E4944004441544541
:100660000054494D4500474D540052414D00494EFC
:100670005F54454D5000414343004D494C4C495354
:1006800000535452004D4254004D574946490055BD
:100690004944005242005048004F525000444F001D
:1006A000434F4E440057540044494E41004449438F
:1006B0004100444946004449434C004449425200E9
:1006C0004449490044494355320044494B00444998
:1006D0004D47320044494E4F330054585F505752F3
:1006E00000444D5F535400444D5F5350004C5558E7
:1006F0000053504545445F4F4700434F55525345C3
:100700005F4F4700414C540048444F500056444FFF
:10071000500050444F500046534D00504C5631004D
:10072000504C563200504C563300534F494C5F43A7
:1007300000534F494C5F4400534F494C5F450053B1
:100740004F494C5F4600534F494C3100534F494C81
:100750003200534F494C33005443430055535F33E9
:1007600056330055535F3556004C554D5F44004C91
:10077000554D5F45004C554D5F46004C505F440061
:100780004C505F45004C505F46004C4C5F44004C61
:100790004C5F45004C4C5F460048414C4C5F440068
:1007A00048414C4C5F450048414C4C5F4600574621
:1007B0005F430057465F450054535400545552421E
:1007C0000056415049005650524F470056424F4F35
:1007D000540047505F434C320047505F434F00473F
:1007E000505F45544F0047505F48320047505F48C4
:1007F00032530047505F48434C0047505F48434ED8
:100800000047505F4E48330047505F4E4F004750FF
:100810005F4E4F320047505F4F320047505F5048A5
:10082000330047505F534F320047505F4348340016
:1008300047505F4F330047505F434F320047505F90
:1008400054430047505F54460047505F48554D00A1
:1008500047505F50524553005443005446005000E7
:10086000504D3100504D325F3500504D3130005009
:1008700041525400535749434100535749464C0095
:100880005357494642005357494E4F005357494228
:100890005200535749434C0053574943550053574F
:1008A00049494F0053574950420053574941470067
:1008B00053574950480050485F410050485F42003C
:1008C00050485F43004F52505F41004F52505F42CB
:1008D000004F52505F430000000809000000000074
:1008E0000000000000000000000000000000000008
:1008F00000000000000000000000000000000000F8
:10090000000000000000000000000102081010209C
:10091000408004081020400202040810204080019A
:1009200002802040042001010204081020014080C0
:100930004080010208040880041004020105050536
:10094000050303030301010104040306060606066A
:100950000606060104050105010302020202020265
:100960000102020505040403040401030407070748
:1009700000202326292C2F32002225282B2E31342B
:10098000002124272A2D3033D909ED09130A3A0A08
:100990005A0A720A800A900AA50ABB0ACC0AD80A27
:1009A000DF0AFC0A1A0B300B3E0B4E0B710B770B58
:1009B00057726F6E672074696D6520666F726D6126
:1009C000742E204D757374206265202264643A6829
:1009D000683A6D6D3A73732200416C61726D204DFF
:1009E0006F6465206D61746368657320005B4461AA
:1009F00079203A20686F757273203A206D696E75A0
:100A0000746573203A207365636F6E64735D202D87
:100A10003E20005B44617465203A20686F757273F4
:100A2000203A206D696E75746573203A2073656392
:100A30006F6E64735D202D3E20005B486F7572738E
:100A4000203A206D696E75746573203A2073656372
:100A50006F6E64735D202D3E20005B4D696E757472
:100A60006573203A207365636F6E64735D202D3E5D
:100A700020005B5365636F6E64735D202D3E200024
:100A80004F6E636520706572207365636F6E6400DE
:100A9000496E636F727265637420616C61726D2060
:100AA0006D6F6465005B253032753A253032753ADA
:100AB000253032753A253032755D005B2530327550
:100AC0003A253032753A253032755D005B2530327B
:100AD000753A253032755D005B253032755D005BFF
:100AE000446179203A20686F757273203A206D69ED
:100AF0006E75746573205D202D3E20005B4461742B
:100B000065203A20686F757273203A206D696E75A2
:100B1000746573205D202D3E20005B486F757273F5
:100B2000203A206D696E757465735D202D3E20003E
:100B30005B4D696E757465735D202D3E20004F6EB0
:100B4000636520706572206D696E7574650025732C
:100B50002C20253032752F253032752F25303275F7
:100B60002C20253032753A253032753A25303275D1
:100B7000006572726F720025303275256325303240
:100B8000752563253032752563253032752563253B
:100B90003032752563253032752563253032750076
:100BA0007C3C3E5E2B3D3F2F5B5D3B2C2A225C0054
:100BB000496E76616C69642066696C656E616D650D
:100BC00000390C4A0C5B0C700C810C940CA70CBA0D
:100BD0000CCF0CF00C010D140D250D3A0D510D66C6
:100BE0000D7D0D900DA10DB20DC50DDA0DEB0DFEB5
:100BF0000D0F0E200E350E460E570E880E9B0EACB6
:100C00000EBF0ED00EE10EF20E030F160F270F3897
:100C10000F490F5A0F6D0F7E0F8F0FA20FB50FC622
:100C20000FE40F0510261057108810A710C810E900
:100C3000100A112B114C116D113745303030343002
:100C40003835323533344330360037453030303480
:100C50003038353235333438304100374530303074
:100C60003630383532344435393030303030300079
:100C700037453030303430383532344435394646F3
:100C80000037453030303530383532343234343056
:100C9000303030003745303030353038353234314F
:100CA0003530303030300037453030303530383541
:100CB0003234313446303030300037453030303621
:100CC0003038353234393434303030303030003729
:100CD00045303030433038353234393434303030C8
:100CE0003030303030303030303030303030300034
:100CF00037453030303430383532343934343138A7
:100D000000374530303035303835323533344430C3
:100D100030303000374530303034303835323533CC
:100D200034443035003745303030363038353235A0
:100D300033353430303030303000374530303037B4
:100D40003038353235333534303030303030303083
:100D50000037453030303630383532353335303085
:100D60003030303030003745303030373038353281
:100D7000353335303030303030303030003745307A
:100D8000303035303835323433343830303030006C
:100D900037453030303430383532343334383141FF
:100DA000003745303030343038353234453439301E
:100DB00045003745303030353038353234453534FC
:100DC000303030300037453030303630383532341E
:100DD0004535343030303030300037453030303405
:100DE00030383532344535343033003745303030E3
:100DF00035303835323445344630303030003745C0
:100E000030303034303835323445344630380037BD
:100E1000453030303430383532353735324643009E
:100E20003745303030363038353235333433303082
:100E300030303030003745303030343038353235AE
:100E40003334333046003745303030343038353283
:100E5000353334343045003745303031343038356F
:100E6000323442353930303030303030303030305C
:100E70003030303030303030303030303030303072
:100E80003030303030303000374530303035303869
:100E9000353234353435303030300037453030304D
:100EA000343038353234353435314200374530301E
:100EB000303530383532353034433030303000372B
:100EC0004530303034303835323530344330390005
:100ED00037453030303430383532343434323146BE
:100EE00000374530303034303835323438353630EC
:100EF00037003745303030343038353235363532DA
:100F000046440037453030303530383532353235AB
:100F100030303030300037453030303430383532D2
:100F200035323530303300374530303034303835B5
:100F300032343134333231003745303030343038A8
:100F40003532343635323044003745303030343085
:100F5000383532353234353045003745303030356C
:100F60003038353235333446303030300037453064
:100F7000303034303835323533344630330037454D
:100F80003030303430383532344534343133003752
:100F90004530303035303835323435343430303017
:100FA0003000374530303035303835323533343431
:100FB000303030300037453030303430383532342E
:100FC0003434433135002532752532752532752587
:100FD00032752532752532752532752563253275B2
:100FE0002532750050524F4752414D2052454345DE
:100FF00049564544204F4B242424242424242424CB
:10100000242424240050524F4752414D205245433E
:101010004549564544204552524F52242424242405
:101020002424242424005354415254205749544822
:10103000204649524D57415245204F4B24242424E9
:101040002424242424242424242424242424242460
:101050002424242424240053544152542057495416
:1010600048204649524D57415245204552524F5211
:101070002424242424242424242424242424242430
:1010800024242424242424005245414420424F4F48
:10109000544C495354242424242424242424242434
:1010A000242424242424004E45572050524F4752D4
:1010B000414D2052554E4E494E4724242424242489
:1010C000242424242424240050524556494F5553A7
:1010D0002050524F4752414D2052554E4E494E4797
:1010E00024242424242424240052455354415254BB
:1010F000494E47242424242424242424242424243E
:10110000242424242424242424004649524D5741D5
:1011100052452044454C4554454424242424242449
:1011200024242424242424242424004649524D57D2
:10113000415245204E4F542044454C45544544248B
:101140002424242424242424242424004649524DE5
:10115000574152455F46494C455F464F525F5741A4
:1011600053504D4F54452323232323230046494CFA
:1011700045415558006364696E6F70737578585BAC
:101180000000407A10F35A00A0724E18090010A512
:10119000D4E80000E87648170000E40B5402000091
:1011A000CA9A3B000000E1F5050000809698000017
:1011B0000040420F000000A0860100000010270040
:1011C000000000E803000000006400000000000AC6
:1011D00000000000000100000000002C76D888DC30
:1011E000674F0823DFC1DFAE59E1B1B796E5E3E40D
:1011F00053C63AE651997696E8E6C28426EB898C86
:101200009B62ED407C6FFCEFBC9C9F40F2BAA56FE7
:10121000A5F490055A2AF75C936B6CF9676DC11BB6
:10122000FCE0E40D47FEF520E6B500D0ED902E037E
:1012300000943577050080841E080000204E0A00C7
:101240000000C80C333333330F986E12831141EF13
:101250008D2114893BE65516CFFEE6DB18D1844B71
:10126000381BF77C1D901DA4BBE424203284725EE1
:10127000228100C9F124ECA1E53D2700970CDA1288
:10128000331FA027AB34D23CD247774C1E4ED265D9
:1012900011241FBECFEFD1E2DEBFCDBF1AE0A0E028
:1012A000B2E0E4EAF7E201E00BBF02C007900D9262
:1012B000A43AB107D9F719E1A4EABAE001C01D9236
:1012C000A135B107E1F712E1C0E9D2E100E006C0C3
:1012D00022970109FE010BBF0E948887CC37D107F6
:1012E00080E00807A9F70E94DE300C94D0930C949C
:1012F000000081E692E10E94844C86EC91E10E941C
:10130000064484ED9AE00E94C37984ED9AE00E943D
:101310004C718FEB9EE00E942E0E6FE072E08FEB1F
:101320009EE00E94740D65E673E78FEB9EE00E94DD
:10133000A60D61E272E08FEB9EE00E94740D80EDDD
:101340009EE00E94941380ED9EE00E942E1460EDBA
:1013500077E080E090E00E9477286AE270E080E029
:1013600090E00E94B7896BE372E08FEB9EE00E94F1
:10137000740D84ED9AE00E94486681E692E10E9435
:10138000A44C86EC91E10C940F3DEF920F93CF9318
:10139000DF9380E1E82E02E024E041E066E572E0C0
:1013A00080ED9EE00E943A1480ED9EE00E9434148D
:1013B00086EC91E10E94064486EC91E10E9418407F
:1013C0008091DE118093A80A1092A90A8091DD1104
:1013D0008093A60A1092A70A86EC91E10E940F3D25
:1013E00080914A1590914B1584FF49C08FEB9EE088
:1013F0000E94290D62E672E08FEB9EE00E94740D60
:10140000809143158093AA0A1092AB0A1F928F9382
:101410008BE792E09F938F938CEA9AE09F938F9350
:101420000E94FC8A6CEA7AE08FEB9EE00E94740DC9
:101430000F900F900F900F900F900F90C0E0D0E0A2
:101440000AC080ED9EE00E94BA1980914315815038
:101450008093431521968091AA0A9091AB0AC817F0
:10146000D9077CF380914A1590914B158F7E90930C
:101470004B1580934A158FEB9EE00E94350D8091AD
:101480004A1590914B1581FF75C08FEB9EE00E942D
:10149000290D68E972E08FEB9EE00E94740D86E6EC
:1014A00092E10E94754E8091A80A9091A90A6AE083
:1014B00070E00E94BF86892B09F049C061EB72E0A1
:1014C0008FEB9EE00E94740D8FEB9EE00E94680EF1
:1014D0008091A80A9091A90A892BC9F584ED9AE018
:1014E0000E94C37962E370E080E090E00E94772878
:1014F0000E94558964E670E00E94BF869093A50A19
:101500008093A40ABC01882777FD8095982F0E94BC
:1015100077288FEB9EE00E94B91062EC72E08FEBAF
:101520009EE00E94740D8FEB9EE00E94FA1163EE24
:1015300072E08FEB9EE00E94740D60E375E780E03F
:1015400090E00E94772884ED9AE00E94486680919E
:101550004A1590914B158D7F90934B1580934A15AA
:101560008FEB9EE00E94350D0E94FF2C89E592E1F1
:101570000E94E9498FEB9EE0DF91CF910F91EF90B0
:101580000C94350D5F926F927F928F929F92AF92E3
:10159000BF92CF92DF92EF92FF920F931F93CF9360
:1015A000DF93CDB7DEB7C957D1090FB6F894DEBFC8
:1015B0000FBECDBF6C017B01EA961FAEEA973C01DE
:1015C0000E94EA6BF601E552FE4F82E080838E01B5
:1015D0000F5F1F4F98E7D8011D929A95E9F79EE794
:1015E000998391E09D83F601ED54FC4F11821082A6
:1015F000F601E752FE4F8083F701908588E3A82E1D
:10160000BB24B394AE0CBF1CD5018C919230E0F595
:10161000825F8B8380E18C83913019F48FEF8C870C
:1016200010C0F70184818E8385818F8386818887AE
:101630008781898780818A8781818B8782818C8756
:1016400083818D878FEF8E878EEF8F8721E1AE01AB
:101650004F5F5F4FB701C3010E94F568F701E85C77
:10166000FE4F008111810F5E1F4FBE016F5F7F4FE4
:10167000C3010E94D56BE1E0F0E0EC0FFD1FE00F2D
:10168000F11F808312E146C08C5E8B8381E18C83E5
:10169000F70184818E8385818F8386818887878106
:1016A000898780818A8781818B8782818C878381EA
:1016B0008D878FEF8E878EEF8F87E65CFE4F808160
:1016C000888BF701E55CFE4F8081898BF701E45C34
:1016D000FE4F80818B8BF701E25CFE4F80818C8B0B
:1016E000F701E15CFE4F80818D8B27E1A801B701F6
:1016F000C6010E94F568D501AD90BC90B7E1AB0E74
:10170000B11CB801C6010E94D56BF801EA0DFB1DA2
:10171000808318E1012F9E0127583F4FAE014F5F94
:101720005F4FB701C3010E941069F601E258FC4FF8
:101730008081813021F486E692E10E949F4E512CF7
:101740005701E8ECAE1AEEEFBE0A012F10E0460199
:10175000F2E88F1AFCEF9F0A0CC0E1E0F0E0EC0F1A
:10176000FD1FE80FF91FD4016C9180810E94ED2FBD
:101770005394852D90E0EA964FADEA97F5012081CC
:101780003181240F311D200F311F8217930728F359
:10179000C3010E947574F601E552FE4F8083F60185
:1017A000EA52FC4F9081F701EE5AFE4F9083F6010A
:1017B000E952FC4F9081F701ED5AFE4F9083F601FC
:1017C000E852FC4F9081F701EC5AFE4F9083F601EE
:1017D000E752FC4F9081F701EB5AFE4F9083F601E0
:1017E000E652FC4F9081F701EA5AFE4F9083C758AA
:1017F000DF4F0FB6F894DEBF0FBECDBFDF91CF91A4
:101800001F910F91FF90EF90DF90CF90BF90AF901E
:101810009F908F907F906F905F900895CF93DF930C
:10182000EC01FC01E358FC4F83E08083FE01E258A9
:10183000FC4F6083611104C086E692E10E94CF4EA6
:10184000FE01E158FC4F11821082FE01ED54FC4F65
:1018500011821082FE01EB54FC4F1082FE01E95A06
:10186000FF4F1082FE01E25CFE4F1082FE01E45C3D
:10187000FE4F1082FE01E35CFE4F82E88083FE0192
:10188000E959FE4F1082FE01E759FE4F80E2808346
:10189000FE01EF5DFE4F1082FE01EE5DFE4F87E020
:1018A0008083FE01ED5DFE4F90ED9083FE01EC5DC7
:1018B000FE4F1082FE01EB5DFE4F1082FE01EA5DDD
:1018C000FE4F98EC9083FE01EE58FE4F1082FE0111
:1018D000E859FE4F94E09083FE01E951FC4F80836C
:1018E000FE01E851FC4F83E08083FE01E751FC4F8D
:1018F00081E08083FE01E552FC4F1082FE01E85238
:10190000FE4F82E08083FE01E752FE4F8083FE019E
:10191000E652FE4F8083FE01E552FE4F8083CE01EA
:101920000E94186DCE01DF91CF910C94EA6B10925A
:10193000D60A1092D80A1092F00A1092F20A89E19F
:101940008093B20E1092B50E83E08093500E84E027
:1019500093E09093D50A8093D40A84E1ECEFFBE006
:10196000DF011D928A95E9F781E1EAE2FCE0DF01FF
:101970001D928A95E9F70895EF92FF920F931F93B6
:10198000CF93DF93CDB7DEB7E2970FB6F894DEBF03
:101990000FBECDBF8C01F62EE72EFC0110868AE02B
:1019A00090E10E94BC37813009F444C06F2D7E2D38
:1019B0008AE090E10E947E3C8823C1F0EF92FF9282
:1019C00088E093E09F938F93EE24E394F12CEC0E48
:1019D000FD1EFF92EF920E94FC8AB70181E692E120
:1019E0000E94904D81E0F80180871EC0EF92FF9227
:1019F00081E293E09F938F93EE24E394F12CEC0E1D
:101A0000FD1EFF92EF920E94FC8AB70181E692E1EF
:101A10000E940B4E6091A1117091A21181E692E19A
:101A20000E94744DF80110860F900F900F900F9048
:101A30000F900F90F8018085E2960FB6F894DEBF04
:101A40000FBECDBFDF91CF911F910F91FF90EF900F
:101A5000089581E692E10E94844C86EC91E10E9417
:101A600006448AE090E10C94A03681E692E10E945F
:101A7000A44C86EC91E10E940F3D8AE090E10C9429
:101A8000FA35CF93DF93EB018AE090E10E94A03614
:101A9000BE018AE090E10E94BC378823D9F02091F2
:101AA000E20F3091E30F4BE45FE0BE018AE090E18A
:101AB0000E94143C882331F085E39FE00E94371F89
:101AC00081E00FC061E971E081E692E10E94B34DCF
:101AD00082E007C06CE671E081E692E10E94B34DBE
:101AE00083E0DF91CF9108950F931F93CF93DF93FE
:101AF000EC018B01188661E085E39FE00E943426AB
:101B000086EC91E10E94E2429B01AC016BE785E328
:101B10009FE00E940D2440E553E061E485E39FE0EF
:101B20000E94D621A80161E485E39FE00E94D621AE
:101B300069857A85CE010E94410D813009F488873C
:101B40008885DF91CF911F910F910895CF93DF93F7
:101B5000EC01623785E67807E1F0653683E77807C0
:101B600021F069377146C1F411C064E573E0CE011C
:101B70000E94740D8FE793E09B838A8382E18C83BC
:101B800084E38D838FE08E831F820BC060E973E056
:101B900005C069EB73E002C064EE73E0CE010E9401
:101BA000740D84ED9AE00E94C3796E8184ED9AE011
:101BB0000E94857B8091AD0C811103C068E074E0C8
:101BC00002C062E274E0CE010E94740DBE016C5F3F
:101BD0007F4F84ED9AE00E94D57B8091AD0C8111FE
:101BE00003C06AE474E002C063E674E0CE010E94C0
:101BF000740D6F8184ED9AE00E94BC7A8091AD0CE7
:101C0000811103C067E874E002C064EB74E0CE01A8
:101C10000E94740D63EE74E084ED9AE00E94FE7AF7
:101C20008091AD0C811103C06AEE74E002C06FE0D8
:101C300075E0CE010E94740D84ED9AE00E94537B02
:101C40008091AD0C811103C067E375E002C064E5CB
:101C500075E0CE01DF91CF910C94740DCF93DF939B
:101C6000EC0181E692E10E94844C8AE090E10E94BE
:101C7000A0368AE090E10E943F36811106C06EE4F2
:101C800071E081E692E10E94B34D69857A85CE01CB
:101C90000E94BC0C6B857C85CE010E94BC0C6D85BE
:101CA0007E85CE010E94BC0C6F857889CE010E9492
:101CB000BC0C6DE775E0CE010E94740D81E692E1E7
:101CC0000E94A44C8AE090E1DF91CF910C94FA3508
:101CD0002F923F924F925F926F927F928F929F923C
:101CE000AF92BF92CF92DF92EF92FF920F931F932A
:101CF000CF93DF93CDB7DEB7C858D1090FB6F894AC
:101D0000DEBF0FBECDBF1C010E94290D6BE975E03F
:101D1000C1010E94740D40E058E060E080ED9EE05B
:101D20000E94961340E050E160E080ED9EE00E944A
:101D3000961340E850E060E080ED9EE00E9496132C
:101D400041E050E060E080ED9EE00E94961340E0AC
:101D500050E460E080ED9EE00E94961360E177E23F
:101D600080E090E00E9477286CEC75E0C1010E9451
:101D7000740D86EC91E10E94E2426B017C0140E02F
:101D800060E078E080ED9EE00E94FC1DA9966CAFBB
:101D90007DAF8EAF9FAFA99741E060E078E080ED26
:101DA0009EE00E94FC1DAD966CAF7DAF8EAF9FAFE5
:101DB000AD9760E070E180ED9EE00E94301FE196FB
:101DC0006CAF7DAF8EAF9FAFE19760E870E080EDC4
:101DD0009EE00E94301F2B013C0160E070E480ED2A
:101DE0009EE00E94301FE5966CAF7DAF8EAF9FAF37
:101DF000E59761E070E080ED9EE00E94301FE9967B
:101E00006CAF7DAF8EAF9FAFE99760E070E080ED83
:101E10009EE00E94301FED966CAF7DAF8EAF9FAFFE
:101E2000ED9780ED9EE00E946A19C358DF4F6883EA
:101E300079838A839B83CD57D04080ED9EE00E94BA
:101E40006F19CF57DF4F688379838A839B83C1588B
:101E5000D04080ED9EE00E946519CB57DF4F68832C
:101E600079838A839B83C558D04066EF75E0C101B2
:101E70000E94740D40E058E061E080ED9EE00E9419
:101E8000961340E050E161E080ED9EE00E949613E1
:101E900040E850E061E080ED9EE00E94961340E053
:101EA00050E461E080ED9EE00E94961341E050E036
:101EB00061E080ED9EE00E949613F10184858F938E
:101EC00083858F9388E296E09F938F93AA24A394AF
:101ED000B12CAC0EBD1EBF92AF920E94FC8AB50120
:101EE000C1010E94740D61E085E39FE00E943426E9
:101EF000A70196016BE785E39FE00E940D2489E529
:101F000092E10E945248482F50E064E385E39FE04D
:101F10000E94EC2486EC91E10E9423409B01AC01DD
:101F20006EE385E39FE00E94FD23F10163857485E4
:101F3000C1010E94410D61E085E39FE00E943426CB
:101F4000A70196016BE785E39FE00E940D2481E0E5
:101F500090E10E94A73462E370E080E090E00E948C
:101F6000772881E090E10E9450328C0181E090E17D
:101F70000E9479324C0181E090E10E94A2329401EA
:101F8000AC016FE385E39FE00E94702081E090E167
:101F90000E940E34A9962CAD3DAD4EAD5FADA99714
:101FA00061E285E39FE00E94FD23F1016385748572
:101FB000C1010E94410D61E085E39FE00E9434264B
:101FC000A70196016BE785E39FE00E940D24AD9683
:101FD0002CAD3DAD4EAD5FADAD9763E285E39FE0C7
:101FE0000E94FD23E1962CAD3DAD4EAD5FADE19776
:101FF0006FE085E39FE00E94FD23E5962CAD3DADAB
:102000004EAD5FADE5976AE685E39FE00E94FD2354
:1020100085E39FE00E94371FF10163857485C1014C
:102020000E94410D61E085E39FE00E943426A701F4
:1020300096016BE785E39FE00E940D24C301B20186
:102040000E94C783462F50E066E285E39FE00E942E
:10205000EC24E9962CAD3DAD4EAD5FADE9976CE259
:1020600085E39FE00E94FD23ED966CAD7DAD8EADC6
:102070009FADED970E94C783462F50E06DE285E348
:102080009FE00E94EC24C358DF4F288139814A81A8
:102090005B81CD57D04060E685E39FE00E94FD2341
:1020A000F10163857485C1010E94410D61E085E302
:1020B0009FE00E943426A70196016BE785E39FE02D
:1020C0000E940D24CF57DF4F288139814A815B81DF
:1020D000C158D04061E685E39FE00E94FD23CB57C5
:1020E000DF4F288139814A815B81C558D04062E643
:1020F00085E39FE00E94FD2385E39FE00E94371F58
:10210000F10163857485C1010E94410DF10184854F
:102110008F9383858F9382E596E09F938F93BF92F1
:10212000AF920E94FC8AB501C1010E94740DC101E9
:102130000E94350D0FB6F894DEBF0FBECDBFC85755
:10214000DF4F0FB6F894DEBF0FBECDBFDF91CF914A
:102150001F910F91FF90EF90DF90CF90BF90AF90C5
:102160009F908F907F906F905F904F903F902F90B7
:1021700008952F923F924F925F926F927F928F922B
:102180009F92AF92BF92CF92DF92EF92FF920F9306
:102190001F93CF93DF93CDB7DEB7C456D1090FB6E7
:1021A000F894DEBF0FBECDBF7C018AE090E10E94B3
:1021B000A036F701638574858AE090E10E94423B76
:1021C0005B01F701678570898AE090E10E94423BDC
:1021D0001A141B040CF0D4C06DE776E0C7010E940E
:1021E000740D212C312C2101CC24C394D12CCC0E84
:1021F000DD1E45E3842E47E0942E51E1652E57E025
:10220000752EF7016385748501E010E0A20191014C
:102210008AE090E10E942238F70184858F938385BC
:102220008F9383EB96E09F938F93DF92CF920E94E0
:10223000FC8AB60181E692E10E94904DF70162812D
:1022400073814DE350E184ED9AE00E94FE7F0F9090
:102250000F900F900F900F900F908130F1F468ED78
:1022600076E081E692E10E94904DF70165857685E2
:102270004DE350E18AE090E10E94FC3BF7012685A6
:102280009585813029F42F939F937F926F9217C089
:102290002F939F939F928F9212C0F7016785708949
:1022A0004DE350E18AE090E10E94FC3BF701808918
:1022B0008F9387858F938DE597E09F938F93DF9220
:1022C000CF920E94FC8AB60181E692E10E94904D75
:1022D0000F900F900F900F900F900F90FFEF2F1A0D
:1022E0003F0A4F0A5F0A2A143B040CF48ACFF70115
:1022F000638574858AE090E10E944939F70163851E
:1023000074858AE090E10E947E3CF70167857089C0
:102310008AE090E10E94423B412C512C3201F701AE
:102320006785708901E010E0A30192018AE090E1E5
:102330000E942238F701638574854DE350E18AE0FD
:1023400090E10E94FC3BFFEF4F1A5F0A6F0A7F0A81
:102350004A145B0424F3F701678570898AE090E1F1
:102360000E944939F701678570898AE090E10E94EF
:102370007E3C6BE877E0C7010E94740D11E01BC042
:10238000F70184858F9383858F938DEB97E09F93DF
:102390008F938E010F5F1F4F1F930F930E94FC8A34
:1023A000B801C7010E94740D0F900F900F900F900D
:1023B0000F900F9010E08AE090E10E94FA35812F93
:1023C000CC59DF4F0FB6F894DEBF0FBECDBFDF9103
:1023D000CF911F910F91FF90EF90DF90CF90BF9022
:1023E000AF909F908F907F906F905F904F903F90B5
:1023F0002F900895BF92CF92DF92EF92FF920F93AA
:102400001F93CF93DF93CDB7DEB7C657D1090FB671
:10241000F894DEBF0FBECDBF84ED9AE00E94C37971
:1024200040EE53E964E070E084ED9AE00E94967C0F
:102430008111A7C064E6B62E8E010F5F1F4FF80111
:102440002B2D11922A95E9F786E19DE04091420EED
:102450005091430EBC01C8010E94FB896EED77E0EC
:10246000C8010E94408A892B09F483C067EE77E097
:10247000C8010E94408AFC0134968AE0DE01AB5913
:10248000BF4F01900D928A95E1F7CE018B599F4F76
:102490000E94C0896B017C0186EC91E10E94064498
:1024A000B701A6014E5F5F4F6F4F7F4F9E012059CE
:1024B0003F4F86EC91E10E940143F8011192BA94DA
:1024C000E9F7E196DFACE197E296EFACE297E396AD
:1024D000FFACE397E4962FADE497E6964FADE69711
:1024E000E7966FADE79730E050E070E086EC91E161
:1024F0000E94CE3F1F92DF921F92EF921F92FF9297
:102500009F938F93E4968FADE4971F928F93E696F7
:102510008FADE6971F928F93E7968FADE7971F9247
:102520008F938CEE97E09F938F931F930F930E944E
:10253000FC8AB80186EC91E10E94CC440FB6F89475
:10254000DEBF0FBECDBF811108C06FE078E08FEB1A
:102550009EE00E94740D11E007C066E578E08FEB05
:102560009EE00E94740D12E086EC91E10E940F3D06
:102570000FC066E978E08FEB9EE00E94740D13E0D7
:1025800007C06AED78E08FEB9EE00E94740D14E0C6
:10259000812FCA58DF4F0FB6F894DEBF0FBECDBFF4
:1025A000DF91CF911F910F91FF90EF90DF90CF902F
:1025B000BF900895EFEBFEE081E1DF011D928A9567
:1025C000E9F78BE099E0918380838CE199E0909327
:1025D000C90E8093C80E84E299E09093CB0E80934D
:1025E000CA0E8CE299E09093CD0E8093CC0E85E3D9
:1025F00099E09093CF0E8093CE0E089581E0809362
:102600007C1440E060E089E592E10E94D74740E019
:1026100061E089E592E10E94D7478091D91181114B
:1026200006C041E061E086EC91E10E94E33C61E09C
:1026300087E00E94B12981E00895CF93DF93D82FDE
:10264000C92F61E085E00E94982961E084E00E9442
:10265000982961E086E00E94982961E087E00E9465
:10266000982960E089E00E94982961E08AE00E9450
:10267000982960E088E00E94982961E082E00E9449
:10268000982961E08EE00E94982960E08FE00E9426
:10269000982960E081E10E94982960E083E10E942E
:1026A000982960E085E00E94B12960E084E00E9402
:1026B000B12960E086E00E94B12960E087E00E94D5
:1026C000B12960E08AE00E94B12960E082E00E94C6
:1026D000B12960E08EE00E94B12941E060E089E527
:1026E00092E10E94D74741E061E089E592E10E94D2
:1026F000D747ED2FFC2F80E6DF011D928A95E9F781
:1027000080913B1590913C15A0913D15B0913E15DF
:10271000806280933B1590933C15A0933D15B09338
:102720003E15DF91CF9108950C94FE1261114AC0BD
:102730004038510509F43FC0C0F444305105A9F1B7
:1027400048F44130510599F190F14230510509F0BA
:1027500083C02BC04032510561F14034510549F12D
:102760004830510509F078C020C0411588E058076D
:1027700001F168F4411582E05807E9F0411584E061
:102780005807B9F04115514009F066C014C0411511
:1027900080E2580771F0411580E4580761F0411557
:1027A000504109F059C061E047C061E048C061E0B4
:1027B00049C061E04AC061E087E00E94B12961E060
:1027C0008AE044C0613009F045C040385105E1F16C
:1027D000B0F44430510591F140F44130510589F194
:1027E00080F142305105C1F529C04032510561F1F7
:1027F0004034510549F14830510571F51FC041156C
:1028000088E0580709F160F4411582E05807E1F0CB
:10281000411584E05807C1F041155140E9F414C056
:10282000411580E2580781F0411580E4580761F0B6
:102830004115504189F460E084E008C060E082E026
:1028400005C060E08EE002C060E087E00E94B12930
:1028500081E0089580E008958FEF089560E170E0D1
:1028600080E090E00C94042D60E170E080E090E066
:102870000C94A12DCF92DF92EF920F931F93CF93E1
:10288000DF9300D0CDB7DEB76B0186E692E12A83F5
:1028900049830E94B74E64E670E080E090E00E94B9
:1028A000772861E08DE20E94982960E08DE20E9425
:1028B000B12986EC91E10E9406442A814981B60142
:1028C00086EC91E10E94F44686EC91E10E940F3D76
:1028D00060E084E00E94B12960E082E00E94B129BA
:1028E00060E087E00E94B12960E08AE00E94B1299F
:1028F00060E086E00E94B12960E08EE00E94B1298C
:10290000602F89E592E10E94EA48E4FE14C060E18C
:1029100070E080E090E00E94042D0DC061E070E066
:1029200080E090E00E94772889E592E10E94E949E1
:10293000115011F449C01BE08BE20E94F729019766
:1029400069F383B7817F846083BF83B7816083BF6E
:1029500083B7816083BF889583B78E7F83BF83B73A
:102960008E7F83BF602F89E592E10E943A48809173
:102970004A1590914B1584FD10C086EC91E10E94A0
:10298000064486EC91E10E94D64186EC91E10E94DA
:10299000F04386EC91E10E940F3D00FF15C041E03D
:1029A00060E089E592E10E94D74741E061E089E576
:1029B00092E10F900F90DF91CF911F910F91EF90C7
:1029C000DF90CF900C94D7470F900F90DF91CF916D
:1029D0001F910F91EF90DF90CF9008952F923F922B
:1029E0004F925F926F927F928F929F92AF92BF921F
:1029F000CF92DF92EF92FF920F931F93CF93DF93CB
:102A0000CDB7DEB728970FB6F894DEBF0FBECDBFA7
:102A10009A8389830E9425284B015C010E94252806
:102A20002B013C0180E4C82E82E4D82E8FE0E82EF2
:102A3000F12C212C312C18861F8236C088E00E9490
:102A4000F7298C018F819885019709F501151105EA
:102A5000F1F49FEF291A390A0E9425289B01AC0145
:102A600024193509460957092B833C834D835E831E
:102A70000E9425282B013C012B813C814D815E81E8
:102A80002C153D054E055F0510F469017A010E9481
:102A90002528681579058A059B0520F40E942528BC
:102AA0004B015C0118870F830E942528681979095A
:102AB0008A099B09693B7B408105910508F4BECFDB
:102AC00064E670E080E090E00E94772809811A8136
:102AD0000F591F4FC701B6010E94F38320E030E079
:102AE0004AE754E40E945F839B01AC016AE979E9FB
:102AF00089E190E40E945F83F8016083718382839F
:102B00009383B101882777FD8095982F0E94F583E4
:102B10002AE939E949E150E40E94D58420E030E017
:102B200040E450E40E945F8328960FB6F894DEBF1D
:102B30000FBECDBFDF91CF911F910F91FF90EF900E
:102B4000DF90CF90BF90AF909F908F907F906F90CD
:102B50005F904F903F902F9008950F931F93CF93C6
:102B6000DF9300D0CDB7DEB719821A8280917B1433
:102B7000811104C085E794E10E943B6466E970E03E
:102B800080E090E00E94772842E050E064E170E04D
:102B900085E794E10E94D0658E010F5F1F4F07C04B
:102BA00085E794E10E947064F80181938F0185E7C5
:102BB00094E10E946A648111F3CF80917B14882391
:102BC00091F08091051081110EC08091D911813052
:102BD00051F089E592E10E94DE4841E060E086EC38
:102BE00091E10E94E33C8A812981422F50E060E01C
:102BF00070E02227342F452F562F280F311D411DFD
:102C0000511DA9E0B0E00E948C8669507048844054
:102C100091090E94F58320E03FEF4FE757E40E94BF
:102C20005F830F900F90DF91CF911F910F910895C7
:102C3000BF92CF92DF92EF92FF920F931F93CF93A9
:102C4000DF93C62F60E08FE00E94982960E081E169
:102C50000E94982960E083E10E94982960E08AE060
:102C60000E94B129C43051F0C83029F0C23081F53A
:102C70004FE0B42E05C031E1B32E02C023E1B22EE5
:102C80000E9425286B017C01C0E0D0E000E010E04C
:102C900001C08C018B2D0E94F7290130110519F418
:102CA000009709F42196C03D27E0D20794F30E94D3
:102CB00025286C197D098E099F090E94F3839B01C9
:102CC000AC0160E074E284EF99E40E945F8304C089
:102CD00060E070E080E89FEBDF91CF911F910F9152
:102CE000FF90EF90DF90CF90BF9008958F929F92CA
:102CF000AF92BF92CF92DF92EF92FF92CF93DF938A
:102D000041155105F9F04130510509F047C08827B8
:102D100077FD8095982F0E94F5836B017C012DEB48
:102D200032E546E15DE30E94D58425EC3EEF42E0CA
:102D300050E40E94F6824B015C0126EF34E246ED3E
:102D400055EB1AC0882777FD8095982F0E94F58350
:102D50006B017C012DEB32E546E15FE30E94D584F7
:102D600025EC3EEF42E050E40E94F6824B015C010C
:102D70002BE335E246ED59EBC701B6010E94D5843D
:102D8000A70196010E94D5849B01AC01C501B40145
:102D90000E94F7827B01D82FC92F04C0E12CF12CAF
:102DA000D0E0C0E020E030E046EC52E4FE016E2DC1
:102DB0007F2D8F2F9C2F0E94CA84181624F4E12C9B
:102DC000F12CD8ECC2E49E016E2D7F2D832F9C2F19
:102DD000DF91CF91FF90EF90DF90CF90BF90AF90B9
:102DE0009F908F9008958F929F92AF92BF92CF92B3
:102DF000DF92EF92FF921F93CF93DF93EC01162F98
:102E0000662319F0613021F402C013E001C015E01F
:102E100061E086E00E94982961E085E00E9498299F
:102E200061E086E00E94B12961E085E00E94B1295D
:102E300081E090E00E94A12860E086E00E94B12934
:102E400060E085E00E94B12981E090E00E94A12825
:102E500061E085E00E94B12961E086E00E94B1292D
:102E600081E090E00E94A12860E085E00E94B12905
:102E7000212F41E065E086E00E942B2E61E085E095
:102E80000E94B12960E086E00E9498290E942528CE
:102E90006B017C0186E00E94F7295C0104C00E945E
:102EA00025286B017C01AA94AB2809F0B6C00E94CA
:102EB00025286C197D098E099F096A3071058105E5
:102EC000910508F4B7C0A9C00E9425286B017C01B8
:102ED000AB2809F0C9C00E9425286C197D098E090C
:102EE0009F096A3071058105910508F4B0C0BCC026
:102EF000AA94AB2809F0C6C00E9425286C197D0948
:102F00008E099F09603971408105910508F4B5C0AB
:102F1000B9C061E085E00E94B129EE0CFF1C86E09B
:102F20000E94F729E80EF91E60E085E00E94B129B1
:102F300081E0C81AD10869F786E00E94F7296C0180
:102F40000E9425284B015C01CD2809F0A3C00E94F6
:102F50002528681979098A099B096A307105810554
:102F6000910508F4B9C096C061E085E00E94B129DE
:102F7000EE0CFF1C86E00E94F729E80EF91E60E0C7
:102F800085E00E94B12921E0C21AD10869F761E009
:102F900086E00E94982961E086E00E94B12961E004
:102FA00085E00E94B12980E991E00E94A12860E0BB
:102FB00085E00E94B12960E086E00E94B1291330CB
:102FC000A1F4B701882777FD8095982F0E94F5839B
:102FD0002AE037ED43E25CE30E94D5842DEC3CEC23
:102FE0004EE152E40E94F68284C0153089F441E03B
:102FF00050E0B701CE01DF91CF911F91FF90EF908C
:10300000DF90CF90BF90AF909F908F900C947616EA
:1030100060E070E080E090E06CC060E085E00E94DD
:10302000B1290E9425286B017C0186E00E94F729C6
:103030005C014ECF86E00E94F7295C010E942528A2
:103040006C157D058E059F0508F02DCF28CF86E0F5
:103050000E94F7295C010E9425286C157D058E05CC
:103060009F0508F035CF30CF86E00E94F7295C013C
:103070000E9425286B017C013BCF86E00E94F72946
:103080005C0136CF0E94252868E0C62ED12CE12CA9
:10309000F12C3FCF61E086E00E94982960E086E055
:1030A0000E94B12981E090E00E94A12861E085E0C2
:1030B0000E94B12980E991E00E94A12860E085E0AA
:1030C0000E94B12960E086E00E9498290E9425288C
:1030D00058E0C52ED12C48CF86E00E94F7296C011C
:1030E0000E942528681579058A059B0508F02CCFD4
:1030F00027CFDF91CF911F91FF90EF90DF90CF907E
:10310000BF90AF909F908F9008952F923F924F92D3
:103110005F926F927F928F929F92AF92BF92CF9267
:10312000DF92EF92FF920F931F93CF93DF93CDB770
:10313000DEB727970FB6F894DEBF0FBECDBF4C01A8
:103140008A01A62EB12C86EC91E10E94064486EC01
:1031500091E10E941840E090E011C090DB112090B6
:10316000DD11312C201A310A8101000F111F000FCF
:10317000111F080D191D612C712C512C412CD12CC3
:10318000F12C2A183B0827C081E0A81AB10820F4C6
:10319000F7E16F2E712C6EC0F801E60DF71D8181ED
:1031A0008E1116C080818C1113C06281738180E002
:1031B00090E00E94F3839B01AC01D2016B2F742D30
:1031C0008D2D9F2D0E94F782562E472ED82EF92E38
:1031D00084E0681A7108C1018A0D9B1D97FFD4CF46
:1031E000D7CF81E0A81AB108B7FC4BC0C12CE12CA5
:1031F00000E02091E0114091DB116091DA1186EC42
:1032000091E10E94F441AB01BC014058514561403D
:1032100071099E012F5F3F4F86EC91E10E940143AF
:10322000F401E35AFF4F90818D8198131DC0F40182
:10323000E45AFF4F90818E81981316C0F401E25A30
:10324000FF4F6081718180E090E00E94F3839B01D9
:10325000AC01D2016B2F742D8D2D9F2D0E94F78212
:10326000562E472ED82EF92E81E0681A710884E078
:10327000881A91088091DD1190E0681679060CF0AB
:10328000B0CF24E83DE04FE85EE3D2016B2F742D10
:103290008D2D9F2D0E94D58427960FB6F894DEBF02
:1032A0000FBECDBFDF91CF911F910F91FF90EF9097
:1032B000DF90CF90BF90AF909F908F907F906F9056
:1032C0005F904F903F902F90089541E050E068E16B
:1032D0000C94851840E050E061E00C94851841E0C2
:1032E00050E061E00C948518AF92BF92CF92DF92CC
:1032F000EF92FF920F931F93CF93DF930E942528A5
:103300006B017C01C0E0D0E000E010E016C089E075
:103310000E94F7295C010130110519F4009709F4A6
:1033200021960E9425286C157D058E059F0520F4A9
:103330000E9425286B017C0185010E9425286C19BB
:103340007D098E099F09693B7B4081059105F8F253
:1033500064E670E080E090E00E947728CE01DF9183
:10336000CF911F910F91FF90EF90DF90CF90BF9082
:10337000AF900895CF93DF93EC0186EC91E10E942A
:10338000064486EC91E10E9418408091DD11209165
:10339000E01134E0839FC0011124FE01E80FF91F02
:1033A000318132130FC040813091DB1143130AC0C9
:1033B000828193818F3F2FEF920769F1019693836A
:1033C000828329C0FE01E80FF91F21838091DB1160
:1033D0009091DD11FE0134E0939FE00DF11D112469
:1033E00080838091DD11FE0194E0899FE00DF11D45
:1033F0001124138212828091DD1124E0829FC00D7E
:10340000D11D11248A819B818F3F3FEF930719F0D3
:1034100001969B838A83DF91CF910895BF92CF92CB
:10342000DF92EF92FF920F931F93CF93DF93DB0115
:10343000C42F2C91422F50E026FBEE27E0F9F0E05C
:1034400011966C91119712960C910295069506951E
:10345000037070E080E090E0B2E0660F771F881F95
:10346000991FBA95D1F7600F711D811D911D022F13
:103470000F7310E020E030E0DAE0000F111F221F90
:10348000331FDA95D1F7600F711F821F931F440F0E
:10349000452F441F550B4130510519F43197C9F0A0
:1034A00006C0EF2BD9F06F5F7F4F810991090E9411
:1034B000F58320E030E040EC5FE30E94D58420E01B
:1034C0003FEF4FE757E40E945F83B62ED72F8C0162
:1034D00009C0B12CD0E000E010E404C0B12CD0E071
:1034E00000E010ECC13009F053C020E030E44BE7BD
:1034F00054E46B2D7D2F802F912F0E94D58420E0E6
:1035000030E44BEF54E40E94D5842AE63FE64BE4D6
:103510005AE40E94F7826B017C0120E030E44BEF1B
:1035200054E46B2D7D2F802F912F0E94D5849B0119
:10353000AC0160E078E48FE495E40E94F6829B01A0
:10354000AC01C701B6010E945F8328E431E64AE777
:1035500054E40E94F6822EEA3FEF48EA54E40E94C7
:103560005F8328EB3EEC4AEB54E40E94D5842FE8BD
:1035700032E049E754E40E94F78220E030E04AE775
:1035800054E40E94F68226E931E24AE750E410C092
:10359000C11111C020E030EE4BE256E46B2D7D2FBF
:1035A000802F912F0E94D58420E030E04AE754E438
:1035B0000E945F8304C060E070E080E090E0DF91F3
:1035C000CF911F910F91FF90EF90DF90CF90BF9020
:1035D0000895EF92FF920F931F93CF93DF9300D044
:1035E0001F92CDB7DEB77C0119821A821B828091AF
:1035F0007B14811104C085E794E10E943B646CE276
:1036000071E080E090E00E94772866E170E085E755
:1036100094E10E94686460EA85E794E10E9468652D
:1036200065E570E085E794E10E94946585E794E1A3
:103630000E9496656CE271E080E090E00E9477283D
:1036400043E050E066E170E085E794E10E94D065D8
:103650008E010F5F1F4F07C085E794E10E947064E1
:10366000F80181938F0185E794E10E946A648111DA
:10367000F3CF80917B14882391F080910510811104
:103680000EC08091D911813051F089E592E10E94FC
:10369000DE4841E060E086EC91E10E94E33C41E0DD
:1036A000BE016F5F7F4FC7010E940E1A0F900F90EF
:1036B0000F90DF91CF911F910F91FF90EF900895A0
:1036C000EF92FF920F931F93CF93DF9300D01F923F
:1036D000CDB7DEB77C0119821A821B8280917B14E0
:1036E000811104C085E794E10E943B646CE271E0C3
:1036F00080E090E00E94772866E170E085E794E141
:103700000E94686461EA85E794E10E94686565E566
:1037100070E085E794E10E94946585E794E10E945A
:1037200096656CE271E080E090E00E94772843E0CB
:1037300050E066E170E085E794E10E94D0658E017B
:103740000F5F1F4F07C085E794E10E947064F80186
:1037500081938F0185E794E10E946A648111F3CF20
:1037600080917B14882391F08091051081110EC007
:103770008091D911813051F089E592E10E94DE48B3
:1037800041E060E086EC91E10E94E33C40E0BE0154
:103790006F5F7F4FC7010E940E1A0F900F900F901E
:1037A000DF91CF911F910F91FF90EF90089588279F
:1037B00077FD8095982F0E94F58320E030E44EE459
:1037C00055E40E94D58420E030EC4FE754E40E9499
:1037D0005F832AE939E949E15FE30E945F8320E0E2
:1037E00030E04AE754E40E945F8324EF3DEF44E574
:1037F0005EE30E94F78222E630E148EF5EE30E943A
:10380000F78223EA31E04CE35DE30E945F83089591
:10381000CF92DF92EF92FF92882777FD8095982FC5
:103820000E94F5836B017C0120E030E04BE953E41A
:103830000E94CA8418168CF427E53EE94FE05EE347
:10384000C701B6010E94D5849B01AC016FE67AE7FF
:103850008FE093E40E94F68204C060E070E088ECA0
:1038600092E4FF90EF90DF90CF900895CF92DF9297
:10387000EF92FF92CF93DF93EC016A017B0120E08E
:1038800030E040E85EE3C701B6010E945B8387FF3A
:1038900004C0C05ADF4F8FE05DC120E030E040E857
:1038A0005EE3C701B6010E94CA8487FD0EC029E20B
:1038B0003CE54FE85EE3C701B6010E945B8387FFEA
:1038C00004C0C05ADF4F81E045C129E23CE54FE822
:1038D0005EE3C701B6010E94CA8487FD0EC023E3E0
:1038E00033E343EB5EE3C701B6010E945B8387FFCE
:1038F00004C0C05ADF4F18822EC123E333E343EBE9
:103900005EE3C701B6010E94CA8487FD0EC020E0B5
:1039100030E040E05FE3C701B6010E945B8387FFB0
:1039200004C0C05ADF4F8DE015C120E030E040E018
:103930005FE3C701B6010E94CA8487FD0EC026E678
:1039400036E646E25FE3C701B6010E945B8387FF6C
:1039500004C0C05ADF4F8EE0FDC026E636E646E2E0
:103960005FE3C701B6010E94CA8487FD0EC02AE941
:1039700039E949E55FE3C701B6010E945B8387FF30
:1039800004C0C05ADF4F8BE0E5C02AE939E949E5B8
:103990005FE3C701B6010E94CA8487FD0EC02DEC0B
:1039A0003CEC4CE85FE3C701B6010E945B8387FFF4
:1039B00004C0C05ADF4F8CE0CDC02DEC3CEC4CE88D
:1039C0005FE3C701B6010E94CA8487FD0EC027EDE0
:1039D00033EA40EB5FE3C701B6010E945B8387FFD8
:1039E00004C0C05ADF4F83E0B5C027ED33EA40EB97
:1039F0005FE3C701B6010E94CA8487FD0EC02DECAB
:103A00003CEC4CEC5FE3C701B6010E945B8387FF8F
:103A100004C0C05ADF4F82E09DC02DEC3CEC4CEC62
:103A20005FE3C701B6010E94CA8487FD0EC028E487
:103A300031EE4AEF5FE3C701B6010E945B8387FF67
:103A400004C0C05ADF4F89E085C028E431EE4AEF58
:103A50005FE3C701B6010E94CA8487FD0EC02AE950
:103A600039E949E050E4C701B6010E945B8387FF52
:103A700004C0C05ADF4F8AE06DC02AE939E949E045
:103A800050E4C701B6010E94CA8487FD0EC026E635
:103A900036E646E150E4C701B6010E945B8387FF2A
:103AA00004C0C05ADF4F85E055C026E636E646E141
:103AB00050E4C701B6010E94CA8487FD0EC026E605
:103AC00036E646E250E4C701B6010E945B8387FFF9
:103AD00004C0C05ADF4F84E03DC026E636E646E229
:103AE00050E4C701B6010E94CA8487FD0EC020E0E1
:103AF00030E040E350E4C701B6010E945B8387FFDA
:103B000004C0C05ADF4F87E025C020E030E040E32A
:103B100050E4C701B6010E94CA8487FD0EC02DEC97
:103B20003CEC4CE350E4C701B6010E945B8387FF85
:103B300004C0C05ADF4F86E00DC02DEC3CEC4CE3D6
:103B400050E4C701B6010E94CA8487FD04C0C05A70
:103B5000DF4F88E08883DF91CF91FF90EF90DF9077
:103B6000CF900895882777FD8095982F0E94F58340
:103B700020E030E44EE455E40E94D58420E030ECAF
:103B80004FE754E40E945F832AE939E949E15FE3A2
:103B90000E945F8320E030E048E454E40E94F68213
:103BA00020E030E048EF51E40E945F8308958827C9
:103BB00077FD8095982F0E94F58320E030E44EE455
:103BC00055E40E94D58420E030EC4FE754E40E9495
:103BD0005F8320E030E04AEF53E40E94F68220E069
:103BE00030E040E251E40E945F83089540E061E1EB
:103BF00086E692E10C940350EF92FF920F931F938D
:103C0000CF93DF93EC016034710509F49EC0E8F4B2
:103C10006430710509F455C058F46130710509F438
:103C200065C008F46BC06230710509F00AC143C079
:103C30006031710509F4D1C06032710509F47DC0AD
:103C40006830710509F0FDC042C0611584E0780755
:103C500009F4AAC078F4611581E0780709F48AC0F4
:103C6000611582E0780709F492C06038710509F0A7
:103C7000E8C073C0611580E1780781F028F4611510
:103C8000784009F0DEC099C0611580E2780709F438
:103C9000B8C06115704409F0D4C0CAC083E00E9466
:103CA0006D29BC01CE01DF91CF911F910F91FF9043
:103CB000EF900C94D71B60E08AE00E94B12962E08B
:103CC0000BC060E08AE00E94B12964E005C060E0BA
:103CD0008AE00E94B12968E0CE010E9418167B019B
:103CE0008C0161E08AE00E94B129AFC0DF91CF91E1
:103CF0001F910F91FF90EF900C94EE1485E00E94BD
:103D00006D29BC0180E090E00E94F38323E333E35C
:103D100043E550E40E94D58420E030EC4FE754E4C2
:103D20000E945F837B018C01982F4E2D5F2D692FA0
:103D3000712FCE010E94361C88C0DF91CF911F9158
:103D40000F91FF90EF900C94601BDF91CF911F912A
:103D50000F91FF90EF900C94E91A86E00E946D2974
:103D6000BC01CE01DF91CF911F910F91FF90EF9099
:103D70000C94081C84E00E946D29BC01CE01DF91E7
:103D8000CF911F910F91FF90EF900C94D71D82E07F
:103D90000E946D29BC01CE01DF91CF911F910F913F
:103DA000FF90EF900C94B21DCE01DF91CF911F9147
:103DB0000F91FF90EF900C94AD15411102C060E09F
:103DC00003C04130F1F561E0CE01DF91CF911F9149
:103DD0000F91FF90EF900C94F3160E947419BC01A0
:103DE00080E090E00E94F38324E83DE04FE85EE34A
:103DF0000E94D58420E030E040EA51E40E94D5845E
:103E000014C087E00E946D29BC0180E090E00E9410
:103E1000F38323E333E343E550E40E94D58420E0B9
:103E200030EC4FE754E40E945F837B018C010DC0AE
:103E3000CE01DF91CF911F910F91FF90EF900C94E5
:103E4000F61DE12CF12C00E010E06E2D7F2D802F6F
:103E5000912FDF91CF911F910F91FF90EF900895D7
:103E600040E00C94FC1D80ED9EE00C941D13EF923D
:103E7000FF920F931F93CF93DF93EC0181E692E1C2
:103E80000E94B84C0FE110E060E08DE30E94ED2F3E
:103E900001501109C9F760E08DE00E94ED2F60E04C
:103EA0008AE00E94ED2F8A81813021F460E080E475
:103EB00099E00CC0811104C060E08EE499E006C076
:103EC000823009F09AC060E08DE599E00E94FA2FF7
:103ED00060E08FE699E00E94FA2F60E089E799E0C0
:103EE0000E94FA2F7E018DEAE80EF11CF701608135
:103EF000718180E090E000E02AE030E040E050E0B6
:103F00000E940A3060E08DE00E94ED2F60E08AE0C0
:103F10000E94ED2F60E082E899E00E94FA2F698DFF
:103F200070E080E090E02AE030E040E050E00E9465
:103F30000A3060E08DE00E94ED2F60E08AE00E9490
:103F4000ED2F60E080E999E00E94FA2F00E010E098
:103F500009C0FE01E00FF11F60E086890E949530E4
:103F60000F5F1F4FF701808191810817190788F3B0
:103F700060E08DE00E94ED2F60E08AE00E94ED2F6E
:103F800060E08EE999E00E94FA2FE12CF12C8E017D
:103F900003551F4F0AC0FE01EE0DFF1D60E086892C
:103FA0000E94ED2FFFEFEF1AFF0AF8018081918147
:103FB000E816F90680F360E08DE00E94ED2F60E0E6
:103FC0008AE00E94ED2FCFE1D0E060E08DE30E9417
:103FD000ED2F2197D1F760E08DE00E94ED2F60E09A
:103FE0008AE00E94ED2F81E692E1DF91CF911F914F
:103FF0000F91FF90EF900C94E64CDF91CF911F91C1
:104000000F91FF90EF900895CF93DF93C42F70E04E
:10401000FB01ED5FFC4F85919491D82F8130A9F47D
:104020004230B0F16BE574E081E692E10E940F4D01
:104030002AE030E041E050E060E070E081E692E1AB
:104040000E94D14D6EE774E014C0841709F163E853
:1040500074E081E692E10E940F4D4D2F50E060E048
:1040600070E02AE030E081E692E10E94D14D66EAFC
:1040700074E081E692E10E940F4D4C2F50E060E029
:1040800070E02AE030E081E692E10E94374D0DC0F9
:10409000FB01E555FB4F85919491281741F067E5A9
:1040A00075E081E692E10E94B34D8FEF01C081E09F
:1040B000DF91CF910895FC01E355FF4F20813181BD
:1040C000620F731FDC0113968D919C9114978617D4
:1040D000970720F07183608381E0089580E0089560
:1040E0002F923F924F925F926F927F928F929F9208
:1040F000AF92BF92CF92DF92EF92FF920F931F93F6
:10410000CF93DF93CDB7DEB7AA970FB6F894DEBF93
:104110000FBECDBF7C01962E5A016901FC01828140
:10412000813009F0EFC0E62FF0E0EE0FFF1FE555FC
:10413000FE4F85919491BC0166246394712C6C0EA2
:104140007D1EC3010E94E7894E01FFE18F0E911C85
:104150004AE050E0B401C5010E94648A5E0145E175
:10416000A40EB11C4AE050E0B501C6010E94648A69
:104170006E015BE0C50ED11C4AE050E0B601C801FB
:104180000E94648AF30101900020E9F7BF016150A9
:10419000710966197709F40101900020E9F7CF0150
:1041A000019788199909D5010D900020E9F7119719
:1041B000AA19BB09F60101900020E9F73197EC1923
:1041C000FD09680F791F6C5F7F4F6A0F7B1F6E0FB1
:1041D0007F1FC7010E945B20811101C09AC0F701B7
:1041E000E355FF4F40805180D3010D900020E9F747
:1041F0001197A619B709F40101900020E9F7CF0142
:10420000019788199909F50101900020E9F79F01AC
:10421000215031092A193B09F60101900020E9F7E4
:104220003197EC19FD098201081B190B021B130BB6
:104230000E1B1F0B1201221A330A2E1A3F0AA2016B
:104240004E1B5F0B5AA749A7E20FF31F92012A1BCF
:104250003B0B281B390B2E1B3F0B2E5E3F4F2E0DA9
:104260003F1DAD01B301C9010E94FB89F701E00FB9
:10427000F11F8AE3828BF40101900020E9F7319766
:10428000E819F9090D5E1F4F0E0D1F1DAF01B40196
:10429000C8010E94FB89F701E20DF31D1BE3138B9C
:1042A000F50101900020E9F73197EA19FB0954E183
:1042B000250E311C2E0C3F1CAF01B501C1010E941F
:1042C000FB89E9A5FAA5EE0DFF1D148BF6010190FF
:1042D0000020E9F73197EC19FD0929A53AA52B5ED5
:1042E0003F4F2E0D3F1DAF01B601C9010E94FB8952
:1042F000F701E40DF51D83E2858BF70181818F5F66
:10430000818336C023E041E0C7010E9404208F3F33
:1043100011F48FEF32C067E070E0C7010E945B20AC
:104320008823B9F3D701A355BF4F0D90BC91A02DA1
:10433000AE0DBF1D1F969C921F975096AC92509742
:104340005196BC9251975296CC9252975396DC92CA
:10435000539754960C93549755961C93559756968D
:104360001C92F70181818F5F81838091E20F8550DC
:10437000828FF701E355FF4F8081AA960FB6F8941C
:10438000DEBF0FBECDBFDF91CF911F910F91FF9088
:10439000EF90DF90CF90BF90AF909F908F907F90E5
:1043A0006F905F904F903F902F9008955F926F9223
:1043B0007F928F929F92AF92BF92CF92DF92EF92B5
:1043C000FF920F931F93CF93DF93CDB7DEB72A975A
:1043D0000FB6F894DEBF0FBECDBF8C01962E542EC3
:1043E000852EADB6BEB6E42FF52FDF010D9000206F
:1043F000E9F7AE1BBF0BA03981E0B80710F0A0E9C8
:10440000B1E06D0191E0C91AD108EDB7FEB7EA1B22
:10441000FB0B0FB6F894FEBF0FBEEDBFEDB6FEB6B8
:104420008FEFE81AF80A3701AD0160E070E0C701CC
:104430000E94048AA601652D782DC7010E94318A49
:104440006701D7012FE505C08C91833209F42C93C5
:104450001196F30101900020E9F73197E619F70969
:10446000CD018C199D098E179F0770F3D801129604
:104470008C91813009F075C0E92DF0E0EE0FFF1F3F
:10448000E555FE4F85919491BC01EE24E394F12C07
:10449000EC0EFD1EC7010E94E789F7010190002084
:1044A000E9F7BF01615071096E197F09D3010D90C1
:1044B0000020E9F71197A619B7096A0F7B1F6E5FF5
:1044C0007F4FC8010E945B20811101C052C0F801DA
:1044D000E355FF4FC080D180F70101900020E9F73C
:1044E0003197EE19FF09D3010D900020E9F71197DC
:1044F000A619B70946018A1A9B0A96012E1B3F0B83
:104500002A1B3B0B2C5E3F4F200F311FAF01B70121
:10451000C9010E94FB89F801E80DF91D8AE3848B2B
:10452000F30101900020E9F73197E619F70985E1D9
:10453000880E911C800E911EAF01B301C4010E9430
:10454000FB89F801EC0DFD1D83E2858BD8011196E6
:104550008C9111978F5F11968C9311975A968C932B
:104560004AC021E043E0692DC8010E9404208F3F2A
:1045700011F48FEF44C0D3010D900020E9F77D01C5
:1045800081E0E81AF108E618F708B7016E5F7F4F7F
:10459000C8010E945B20882361F3F801E355FF4FB7
:1045A00020813181F30101900020E9F73197E6196C
:1045B000F709C90102978E1B9F0BF801E80FF91F3D
:1045C000968AE78A029608C0D6014D916D01F801DE
:1045D000E80FF91F468B019682179307A8F3F8019D
:1045E000E20FF31F168AF80181818F5F818380912A
:1045F000E20F8550828FF801E355FF4F80810FB69F
:10460000F894BEBE0FBEADBE2A960FB6F894DEBFBC
:104610000FBECDBFDF91CF911F910F91FF90EF9013
:10462000DF90CF90BF90AF909F908F907F906F90D2
:104630005F9008957F928F929F92AF92BF92CF9298
:10464000DF92EF92FF920F931F93CF93DF93CDB73B
:10465000DEB76E970FB6F894DEBF0FBECDBF7C01FC
:10466000B62E922E732EA42E852E402FFC01828111
:10467000813009F07AC0CC24C394D12CCC0EDD1E3D
:104680008601242F692D732F8A2D952F0E94AA87CA
:10469000EB2DF0E0EE0FFF1FE555FE4F8591949155
:1046A0008E010B5E1F4FBC01C8010E94E789F80113
:1046B00001900020E9F7BF0161507109601B710B87
:1046C000F60101900020E9F73197EC19FD096E0F12
:1046D0007F1F6E5F7F4FC7010E945B20811101C069
:1046E0004BC0F701E355FF4FA080B180F801019066
:1046F0000020E9F73197E01BF10BD6010D90002067
:10470000E9F71197AC19BD0945018A1A9B0A950171
:104710002E1B3F0B2A1B3B0B2C5E3F4F2E0D3F1DCC
:10472000AF01B801C9010E94FB89F701E80DF91D2D
:104730008AE3848BF60101900020E9F73197EC19A8
:10474000FD0985E1880E911C8E0C9F1CAF01B601FE
:10475000C4010E94FB89F701EA0DFB1D83E2858BF2
:10476000F70181818F5F81832FC021E042E0C70183
:104770000E9404208F3F11F48FEF2BC065E070E0A2
:10478000C7010E945B208823B9F3F701E355FF4F6F
:10479000A081B181AE0DBF1D5196BC92519752962A
:1047A0009C92529753967C9253975496AC925497FE
:1047B00055968C92559756961C92F70181818F5F82
:1047C00081838091E20F8550828FF701E355FF4F7F
:1047D00080816E960FB6F894DEBF0FBECDBFDF911D
:1047E000CF911F910F91FF90EF90DF90CF90BF90EE
:1047F000AF909F908F907F9008950F931F93E62F17
:10480000F0E0E155FC4F05911491112707FD10953B
:104810000E941A231F910F9108958F929F92AF9239
:10482000BF92CF92DF92EF92FF920F931F93CF939D
:10483000DF93CDB7DEB76E970FB6F894DEBF0FBE2D
:10484000CDBF8C01F62E49015A01FC0182818130D5
:1048500009F07AC0E62FF0E0EE0FFF1FE555FE4F9E
:10486000859194916E01F5E1CF0ED11CBC01C6017A
:104870000E94E7892AE030E0EE24E394F12CEC0E6C
:10488000FD1EA701B401C5010E949A8AF60101909C
:104890000020E9F7BF01615071096C197D09D7014A
:1048A0000D900020E9F71197AE19BF096A0F7B1F21
:1048B0006E5F7F4FC8010E945B20811101C04BC019
:1048C000F801E355FF4FA080B180F6010190002070
:1048D000E9F73197EC19FD09D7010D900020E9F7B0
:1048E0001197AE19BF0945018A1A9B0A95012E1B23
:1048F0003F0B2A1B3B0B2C5E3F4F200F311FAF019C
:10490000B601C9010E94FB89F801E80DF91D8AE38F
:10491000848BF70101900020E9F73197EE19FF0928
:1049200025E1820E911C800E911EAF01B701C401DA
:104930000E94FB89F801EA0DFB1D83E2858BF801DB
:1049400081818F5F818330C021E044E0C8010E94F3
:1049500004208F3F11F48FEF2CC065E070E0C80198
:104960000E945B208823B9F3D801A355BF4F0D9057
:10497000BC91A02DA00FB11F5196FC925197529659
:104980008C92529753969C9253975496AC9254970C
:104990005596BC92559756961C92F80181818F5F6F
:1049A00081838091E20F8550828FF801E355FF4F9C
:1049B00080816E960FB6F894DEBF0FBECDBFDF913B
:1049C000CF911F910F91FF90EF90DF90CF90BF900C
:1049D000AF909F908F9008958F929F92AF92BF92C9
:1049E000CF92DF92EF92FF920F931F93CF93DF93BB
:1049F000CDB7DEB764970FB6F894DEBF0FBECDBF5C
:104A00008C01F62E5A01FC018281813009F079C0B7
:104A1000E62FF0E0EE0FFF1FE555FE4F85919491D4
:104A2000BC01CC24C394D12CCC0EDD1EC6010E9447
:104A3000E7897E01FBE0EF0EF11C4AE050E0B70190
:104A4000C5010E94648AF60101900020E9F7BF01C8
:104A5000615071096C197D09D7010D900020E9F7AB
:104A60001197AE19BF096A0F7B1F6E5F7F4FC80198
:104A70000E945B20811101C059C0F801E355FF4F2E
:104A8000A080B180F60101900020E9F73197EC1980
:104A9000FD09D7010D900020E9F71197AE19BF0964
:104AA00045018A1A9B0A95012E1B3F0B2A1B3B0BC3
:104AB0002C5E3F4F200F311FAF01B601C9010E948C
:104AC000FB89F801E80DF91D8AE3848BF701019059
:104AD0000020E9F73197EE19FF0985E1880E911C56
:104AE000800E911EAF01B701C4010E94FB89F8013D
:104AF000EA0DFB1D83E2858BF80181818F5F818345
:104B00004EC021E04F3F510509F094F440E06F2D75
:104B1000C8010E9404208F3F49F0EF2DF0E0ED5FC7
:104B2000FC4F859194918130E9F404C08FEF3CC033
:104B300041E0EDCF63E070E0C8010E945B20882374
:104B4000A9F3F801E355FF4FA081B181A00FB11F78
:104B50005396FC9253975496AC9254975596BC92A8
:104B6000559714C062E070E0C8010E945B20882362
:104B7000E9F2F801E355FF4FA081B181A00FB11F09
:104B80005496FC9254975596AC92559756961C9213
:104B9000F80181818F5F81838091E20F8550828F40
:104BA000F801E355FF4F808164960FB6F894DEBF9D
:104BB0000FBECDBFDF91CF911F910F91FF90EF906E
:104BC000DF90CF90BF90AF909F908F900895CF923D
:104BD000DF92EF92FF920F931F93CF93DF936C01BD
:104BE0008B010596FC0181E1DF011D928A95E9F7B1
:104BF0007B01C3E9D0E0BE0186E692E10E94DF4E70
:104C0000F601EC0FFD1FEE58F1098083F701819347
:104C10007F012196C33AD10571F7D80150961C92B5
:104C2000DF91CF911F910F91FF90EF90DF90CF9088
:104C30000895CF93DF93EC0160E083EA90E00E9457
:104C40003C9086E990E09C838B83BE016B5F7F4F35
:104C500085E39FE0DF91CF910C94E72563EA70E054
:104C600086E692E10C94DF4EAF92BF92CF92DF9234
:104C7000EF92FF920F931F93CF93DF93CDB7DEB7E1
:104C800064970FB6F894DEBF0FBECDBF8C01DC0178
:104C900012966C934696FC0187E9DF011D928A9576
:104CA000E9F7F80111828CE3868B8DE3878B8EE325
:104CB000808F8281813009F0C9C080E8818F128E97
:104CC00083E2838F6801FDEACF0ED11C86E090E07D
:104CD000D6018D939C934091FD0F5091FE0F6091F2
:104CE000FF0F709100107F936F935F934F938CEA47
:104CF00099E09F938F931F9280E18F93EE24E3942A
:104D0000F12CEC0EFD1EFF92EF920E94BF8AC701AC
:104D10000FB6F894DEBF0FBECDBF9701D60111C00C
:104D2000FC016191CF016623C9F04D915C9111970F
:104D3000F801E40FF51F668B4F5F5F4F11965C9390
:104D40004E93F90101900020E9F73197E21BF30B34
:104D5000AC01421B530B4E175F0710F38D919C91D2
:104D60001197F801E80FF91F23E2268B01968D9326
:104D70009C9380E090E0F801E355FF4F4FE5D801A8
:104D8000A80FB91F15962C91211149C06801FDEAA1
:104D9000CF0ED11CD6018D919C911197F801E80F8F
:104DA000F91F43E2A42EA68A01968D939C93C80115
:104DB0000E942E26B82E7E01B1E1EB0EF11C4AE0D6
:104DC00050E0B70190E00E94648AF7010190002052
:104DD000E9F73197EE19FF09D6012D913C912A5E32
:104DE0003F4F200F311FAF01B701C9010E94FB895E
:104DF000F70101900020E9F73197EE19FF09D6017C
:104E00008D919C91E80FF91FD801AE0FBF1F5696E8
:104E1000AC923196D601ED93FC936B2D63C0A081CB
:104E2000B181A00FB11F233219F456964C9302C0E2
:104E300056962C93208131812F5F3F4F3183208301
:104E400001968031910509F09ACFA0CF811102C05F
:104E5000F801118E2091FE0F9091FF0F80910010AC
:104E60003091FD0FD8015B963C935B975C962C9339
:104E70005C975D969C935D975E968C93F801E355E5
:104E8000FF4F89E090E09183808380E090E04FE5E0
:104E9000D801A80FB91F15962C91211129C07801AE
:104EA000BDEAEB0EF11CF70180819181F801E80F5A
:104EB000F91F23E2268B0196D7018D939C93C8019D
:104EC0000E942E26F70120813181F801E20FF31FA5
:104ED000868B2F5F3F4FD7012D933C932550F801D0
:104EE000228F682F6F5F83EA90E00E943C9017C08A
:104EF000A081B181A00FB11F233219F456964C93B3
:104F000002C056962C93208131812F5F3F4F318311
:104F1000208301968031910509F0BACFC0CF649605
:104F20000FB6F894DEBF0FBECDBFDF91CF911F91BA
:104F30000F91FF90EF90DF90CF90BF90AF900895CA
:104F400085E39FE00C9419261F920F920FB60F92E3
:104F500011240BB60F922F933F934F935F936F9350
:104F60007F938F939F93AF93BF93EF93FF93F894A7
:104F700081E080930E02E0E6F0E08081806880832B
:104F800080818F7B808360E083E00E94B1297894E8
:104F9000FF91EF91BF91AF919F918F917F916F9111
:104FA0005F914F913F912F910F900BBE0F900FBECD
:104FB0000F901F9018951F920F920FB60F92112409
:104FC0008F939F93AF93BF93809133159091341536
:104FD000A0913515B09136150196A11DB11D809394
:104FE000331590933415A0933515B0933615BF91B2
:104FF000AF919F918F910F900FBE0F901F901895BA
:105000001F920F920FB60F9211248F939F93AF931D
:10501000BF938091371590913815A0913915B091B3
:105020003A150196A11DB11D80933715909338153F
:10503000A0933915B0933A15BF91AF919F918F917D
:105040000F900FBE0F901F9018958F929F92AF9266
:10505000BF92CF92DF92EF92FF920F931F93CF9365
:10506000DF932FB7F8948091331590913415A09168
:105070003515B09136152FBF9C01AD0160E070E091
:1050800080E090E001E00E9470874901D42FC52F95
:10509000B62FA72FF82FE92F02E00E947087590141
:1050A0006A017B018C0194014D2F5C2F6B2F7A2FAD
:1050B0008F2F9E2F0E947F87E9E0AE2EB12CC12C4E
:1050C000D12CE12CF12C00E010E00E941387952FE9
:1050D000B901842FDF91CF911F910F91FF90EF9035
:1050E000DF90CF90BF90AF909F908F9008958F9258
:1050F0009F92AF92BF92CF92DF92EF92FF924B01BD
:105100005C0107C00E9425286C157D058E059F0552
:1051100020F40E9425286B017C010E9425286C192F
:105120007D098E099F09681579058A059B0550F34D
:10513000FF90EF90DF90CF90BF90AF909F908F90B7
:105140000895019761F0019751F0880F991F880F1A
:10515000991F02972FB7F8940197F1F72FBF089581
:10516000789484B7877F84BF1092331510923415DA
:10517000109235151092361584B5826084BD84B5C1
:10518000816084BD85B5826085BD85B5816085BD42
:10519000EEE6F0E0808181608083E1E8F0E08081EC
:1051A00082608083808181608083E0E8F0E080819C
:1051B00081608083E1EBF0E0808184608083E1E9BD
:1051C000F0E0808184608083E0EBF0E080818160AA
:1051D0008083E0E9F0E0808181608083E4E6F0E0B4
:1051E00080818E7F8083ECE7F0E080818F77808301
:1051F000808180648083EAE7F0E08081846080833E
:105200008081826080838081806880831092C10069
:105210001092C90008959091E40F982B9093E40F99
:1052200080FF32C0809164008E7F80936400809103
:105230007C008F7780937C0080917C0080648093D9
:105240007C0080917A00846080937A0080917A005B
:10525000826080937A0080917A00806880937A00DF
:10526000809164008F7780936400809164008B7FCD
:1052700080936400809164008D7F809364008091AE
:1052800065008E7F809365000895282F209590916A
:10529000E40F92239093E40F80FF1EC080917A0068
:1052A0008F7780937A00809164008160809364009E
:1052B00080916400806880936400809164008460C1
:1052C0008093640080916400826080936400809188
:1052D0006500816080936500089590917C00209125
:1052E0007A00206820937A009F70981769F0909157
:1052F0007C008F70907F892B80937C0061E070E050
:1053000080E090E00E94772880917A00806480930A
:105310007A0080917A0086FDFCCF20917800309150
:105320007900932F80E0AC01422B9A01C9010895C6
:1053300090E0FC01E65FF64F2491FC01E35CF64F40
:10534000E491EE2369F0F0E0E058F64FA491B0E06C
:105350008C91611103C02095822301C0822B8C9314
:10536000089590E0FC01E952F74F2491FC01E65FBB
:10537000F64F3491FC01E35CF64F84918823B1F140
:10538000222331F1233021F4909180009F7705C0D2
:10539000243031F4909180009F7D9093800018C05C
:1053A000213019F494B59F7704C0223021F494B5CC
:1053B0009F7D94BD0DC0263021F49091B0009F7761
:1053C00005C0273029F49091B0009F7D9093B000E4
:1053D000E82FF0E0E858F64FA491B0E08C9161110D
:1053E00003C03095832301C0832B8C93089590E0F4
:1053F000FC01E952F74F2491FC01E65FF64F34912E
:10540000FC01E35CF64F8491882399F1222331F16A
:10541000233021F4909180009F7705C0243031F42F
:10542000909180009F7D9093800018C0213019F4E6
:1054300094B59F7704C0223021F494B59F7D94BD2C
:105440000DC0263021F49091B0009F7705C0273021
:1054500029F49091B0009F7D9093B000E82FF0E088
:10546000E059F64FE491F0E08081832321E030E0C1
:1054700011F420E030E0C9010895F89480914715B7
:105480009091481580FF18C086E20E94F729892B69
:1054900099F0809149158F5F8093491580914A1545
:1054A00090914B15816090934B1580934A15809194
:1054B0003F158F5F80933F15809147159091481558
:1054C00081FF18C087E20E94F729892B99F080910B
:1054D00049158F5F8093491580914A1590914B151E
:1054E000826090934B1580934A15809140158F5F91
:1054F00080934015809147159091481583FF1CC0FB
:1055000088E00E94F729892BB9F0809149158F5FB7
:105510008093491560E085E00E94B12980914A1589
:1055200090914B15886090934B1580934A1580910C
:1055300042158F5F809342158091471590914815D1
:1055400087FF18C08DE20E94F729892B99F080917E
:1055500049158F5F8093491580914A1590914B159D
:10556000806890934B1580934A15809145158F5F05
:1055700080934515809147159091481590FF18C06C
:1055800082E10E94F729892B99F0809149158F5F5C
:105590008093491580914A1590914B159160909395
:1055A0004B1580934A15809146158F5F8093461561
:1055B000809147159091481584FF18C089E00E949A
:1055C000F729892B99F4809149158F5F80934915AC
:1055D00080914A1590914B15806190934B15809363
:1055E0004A15809143158F5F8093431578940895F1
:1055F000E82FF0E0EE0FFF1FEB51F04F7183608357
:10560000823029F130F4882351F0813009F046C00E
:1056100010C0833059F1843009F040C036C0E8989A
:10562000809169008C7F842B80936900E09AE89ACE
:105630000895E99880916900440F551F440F551F44
:10564000837F842B80936900E19AE99A0895EA9810
:105650008091690024E0440F551F2A95E1F78F7C63
:10566000842B80936900E29AEA9A0895EB988091DE
:10567000690096E0440F551F9A95E1F78F73842BCC
:1056800080936900E39AEB9A0895EC9880916A0000
:105690008C7F842B80936A00E49AEC9A0895F894A6
:1056A000883018F5833091F020F4813059F060F49F
:1056B00007C0863079F0873079F0843071F408C003
:1056C000E8980BC0E99809C0EA9807C0EB9805C0B4
:1056D000EC9803C0EE9801C0EF98E82FF0E0EE0FD1
:1056E000FF1FEB51F04F11821082789408951F92A2
:1056F0000F920FB60F9211240BB60F922F933F9378
:105700004F935F936F937F938F939F93AF93BF93C9
:10571000EF93FF938091E50F9091E60F892B29F08D
:10572000E091E50FF091E60F0995FF91EF91BF91A0
:10573000AF919F918F917F916F915F914F913F9129
:105740002F910F900BBE0F900FBE0F901F901895CA
:105750001F920F920FB60F9211240BB60F922F9338
:105760003F934F935F936F937F938F939F93AF93E9
:10577000BF93EF93FF938091E70F9091E80F892BF0
:1057800029F0E091E70FF091E80F0995FF91EF9173
:10579000BF91AF919F918F917F916F915F914F9149
:1057A0003F912F910F900BBE0F900FBE0F901F9047
:1057B00018951F920F920FB60F9211240BB60F92ED
:1057C0002F933F934F935F936F937F938F939F9309
:1057D000AF93BF93EF93FF938091E90F9091EA0FFE
:1057E000892B29F0E091E90FF091EA0F0995FF91DB
:1057F000EF91BF91AF919F918F917F916F915F9149
:105800004F913F912F910F900BBE0F900FBE0F90B5
:105810001F9018951F920F920FB60F9211240BB67E
:105820000F922F933F934F935F936F937F938F9339
:105830009F93AF93BF93EF93FF938091EB0F909162
:10584000EC0F892B29F0E091EB0FF091EC0F09950B
:10585000FF91EF91BF91AF919F918F917F916F9148
:105860005F914F913F912F910F900BBE0F900FBE04
:105870000F901F9018951F920F920FB60F92112440
:105880000BB60F922F933F934F935F936F937F933A
:105890008F939F93AF93BF93EF93FF938091ED0FFF
:1058A0009091EE0F892B29F0E091ED0FF091EE0F22
:1058B0000995FF91EF91BF91AF919F918F917F914A
:1058C0006F915F914F913F912F910F900BBE0F9071
:1058D0000FBE0F901F9018951F920F920FB60F9248
:1058E00011240BB60F922F933F934F935F936F93B7
:1058F0007F938F939F93AF93BF93EF93FF93809189
:10590000EF0F9091F00F892B29F0E091EF0FF091BC
:10591000F00F0995FF91EF91BF91AF919F918F91FA
:105920007F916F915F914F913F912F910F900BBE9F
:105930000F900FBE0F901F9018951F920F920FB6E9
:105940000F9211240BB60F922F933F934F935F93B7
:105950006F937F938F939F93AF93BF93EF93FF9337
:105960008091F10F9091F20F892B29F0E091F10FC6
:10597000F091F20F0995FF91EF91BF91AF919F9137
:105980008F917F916F915F914F913F912F910F90E8
:105990000BBE0F900FBE0F901F9018951F920F9285
:1059A0000FB60F9211240BB60F922F933F934F9384
:1059B0005F936F937F938F939F93AF93BF93EF9377
:1059C000FF938091F30F9091F40F892B29F0E091D0
:1059D000F30FF091F40F0995FF91EF91BF91AF9103
:1059E0009F918F917F916F915F914F913F912F91F7
:1059F0000F900BBE0F900FBE0F901F901895109236
:105A00004B1510924A150895CF92DF92EF92FF92B4
:105A10006B017C0180914715909148158C299D2937
:105A20009093481580934715C0FE0FC060E08BE24D
:105A30000E94982960E086E20E94982943E050E0A5
:105A40006DE37AE282E00E94F82AC1FE0FC060E0B6
:105A50008BE20E94982960E087E20E94982943E047
:105A600050E06DE37AE282E00E94F82AC2FE0FC0A5
:105A700061E083E00E94982961E083E00E94B129FF
:105A800042E050E062EE7DE284E00E94F82AC3FE2C
:105A90000FC060E08BE20E94982960E088E00E94DD
:105AA000982943E050E06DE37AE282E00E94F82A10
:105AB000C4FE0BC060E08BE20E94982943E050E0F6
:105AC0006DE37AE282E00E94F82AC6FE0FC060E031
:105AD00084E00E94982960E08CE20E94982942E0CC
