:100000000C9441090C946B290C949C290C94CD29D7
:100010000C94FE290C942F2A0C94602A0C94912A9B
:100020000C94C22A0C9470090C9470090C947009F9
:100030000C9485250C9470090C9470090C94E1259E
:100040000C9470090C9470090C9470090C9470094C
:100050000C9470090C9470090C9470090C94BC25D4
:100060000C9470090C946B2D0C9470090C9470090D
:100070000C9470090C9470090C9470090C9470091C
:100080000C9470090C9470090C9470090C9470090C
:100090000C94A62D0C9470090C9470090C94097B97
:1000A0000C9470090C9470090C9470090C947009EC
:1000B0000C9470090C9470090C9470090C947009DC
:1000C0000C9470090C9470090C9470090763423603
:1000D000B79BD8A71A39685618AEBAAB558C1D3CD9
:1000E000B7CC5763BD6DEDFD753EF6177231BF009D
:1000F0000000803F08000000BE922449123EABAAD7
:10010000AA2ABECDCCCC4C3E00000080BEABAAAA31
:10011000AA3E00000000BF000000803F0000000079
:1001200000084178D3BB4387D1133D190E3CC3BDB2
:100130004282AD2B3E68EC8276BED98FE1A93E4C5F
:1001400080EFFFBE01C4FF7F3F0000000000576149
:10015000726E696E673A204E6F205344206361725D
:100160006420696E7374616C6C65640041707065C5
:100170006E64206661696C6564004572726F723AE4
:10018000204E6F206C6F672066696C65206F6E2053
:100190005344004672616D6520617070656E6465E0
:1001A0006420746F2066696C650082058505890589
:1001B0008C059005940598059C05A005A305A70549
:1001C000AA05AE05B205B605BB05BE05C105C60547
:1001D000CA05CF05D205D505D905DD05E005E4053D
:1001E000E805EC05EF05F405F705FA05FD05010640
:1001F00005060A061006150618061C061F06220626
:10020000250628062C062F06330637063A063D0635
:100210004006430647064B065006540657065B0643
:100220006006650669066D06750679068006840611
:1002300088068E069206950698069C069F06A406DA
:10024000A706AC06B106B506BA06BF06C306C906C0
:10025000CD06D306D906E006E606EC06F006F9065A
:10026000030707070C07110716071A071F072407BC
:100270002907300737073E0745074B075107570740
:100280005B07620768076E0774077A077F078407B2
:1002900089078E07930798079F07A607AD07B20740
:1002A000B707BB07C007C507CB07D107D807DE07CD
:1002B000E507EB07F207F907000807080D0814081F
:1002C0001A08210828082F0835083C084208480861
:1002D0004F0857085A085D085F08630869086E08E8
:1002E000730879087F0885088B08910897089D088E
:1002F000A308A908AF08B508BA08BF08C408CA0807
:10030000D0080202020202020202020202020202F9
:1003100002020202000000000200020000020202CB
:1003200002010002020202020202020202020200B2
:1003300002020202020200020103030300000101A3
:100340000201040303030303020202020202020287
:100350000202020202020200000004020202020281
:10036000020002020202020202020202020202026F
:10037000020200000000000000000002020402006F
:100380000000020202020202020202020202020251
:10039000020202020202020202020202020202023D
:1003A000020202020202020202020202020203032B
:1003B0000303030303030303030302020102030312
:1003C000000000000300030000030303020000021A
:1003D00002010202030202030303020002060203F7
:1003E00003030006000000000000000002000000FF
:1003F00000000000020301010203030303030303DF
:1004000003030300000003020202030303000202CD
:1004100002020202020202020202020303030000BD
:1004200000000000000000030300010000000303BF
:10043000030303030303030303030303030303028D
:100440000200020200040404000303030303030385
:1004500003030303020202030303455252207365A0
:100460006E736F72207479706520262076616C75CA
:1004700065206D69736D617463682C20002076734C
:1004800020004552522073656E736F72207479702C
:100490006520262076616C7565206D69736D6174C9
:1004A00063682C2000207673200001010101010106
:1004B000010101010101010101010101010101012C
:1004C000010101010101010101030101010101011A
:1004D000010101010101010101010101010101020B
:1004E00001010101030301010103010101010101F6
:1004F00001010101010101010101010101010101EC
:1005000003030101010101010101010101010101D7
:1005100001010101010101010101010101010101CB
:1005200001010101010101010101010101010101BB
:1005300001010101010101010101010101010101AB
:10054000010101010201010101010101010101019A
:100550000101010101014552522073656E736F72F2
:1005600020747970652026206E756D626572206F2B
:1005700066206669656C6473206D69736D61746370
:100580006800434F00434F32004F3200434834006D
:100590004C5047004E48330041503100415032002A
:1005A0005356004E4F32004F3300564F43005443D2
:1005B00041005446410048554D41005041005057BC
:1005C0000042454E44005642520048414C4C004CBB
:1005D00050004C4C004C554D0050495200535400B3
:1005E0004D43500043444700435047004C440044AF
:1005F000555354005553004D460050530054434248
:10060000005446420048554D4200534F494C540057
:10061000534F494C004C570050415200555600541E
:100620004400534400464400414E45005756005094
:100630004C5600524144004355005746004C43007D
:10064000444600424154004750530052535349001E
:100650004D4143004E41004E494400444154450041
:1006600054494D4500474D540052414D00494E5F9D
:1006700054454D5000414343004D494C4C495300B3
:10068000535452004D4254004D5749464900554974
:1006900044005242005048004F525000444F004323
:1006A0004F4E440057540044494E41004449434191
:1006B00000444946004449434C00444942520044E6
:1006C00049490044494355320044494B0044494D8F
:1006D00047320044494E4F330054585F5057520040
:1006E000444D5F535400444D5F5350004C555800E7
:1006F00053504545445F4F4700434F555253455F64
:100700004F4700414C540048444F500056444F500E
:100710000050444F500046534D00504C563100504D
:100720004C563200504C563300534F494C5F4300F7
:10073000534F494C5F4400534F494C5F4500534F62
:10074000494C5F4600534F494C3100534F494C329E
:1007500000534F494C33005443430055535F3356C5
:10076000330055535F3556004C554D5F44004C5592
:100770004D5F45004C554D5F46004C505F44004C6A
:10078000505F45004C505F46004C4C5F44004C4C61
:100790005F45004C4C5F460048414C4C5F4400486C
:1007A000414C4C5F450048414C4C5F460057465F0A
:1007B000430057465F45005453540054555242007D
:1007C00056415049005650524F470056424F4F54E1
:1007D0000047505F434C320047505F434F00475043
:1007E0005F45544F0047505F48320047505F4832E2
:1007F000530047505F48434C0047505F48434E000A
:1008000047505F4E48330047505F4E4F0047505FA0
:100810004E4F320047505F4F320047505F504833D1
:100820000047505F534F320047505F434834004702
:10083000505F4F330047505F434F320047505F5483
:10084000430047505F54460047505F48554D0047AE
:10085000505F5052455300544300544600500050DE
:100860004D3100504D325F3500504D313000504118
:10087000525400535749434100535749464C005383
:1008800057494642005357494E4F00535749425229
:1008900000535749434C0053574943550053574958
:1008A000494F00535749504200535749414700535D
:1008B000574950480050485F410050485F4200503F
:1008C000485F43004F52505F41004F52505F42001B
:1008D0004F52505F43000000080900000000000074
:1008E0000000000000000000000000000000000008
:1008F00000000000000000000000000000000000F8
:10090000000000000000000000010208101020405C
:1009100080040810204002020408102040800102D8
:100920008020400420010102040810200140804082
:100930008001020804088004100402010505050571
:100940000303030301010104040306060606060669
:10095000060601040501050103020202020202016A
:100960000202050504040304040103040707070049
:10097000202326292C2F32002225282B2E3134002B
:100980002124272A2D3033D809EC09120A390A59B3
:100990000A710A7F0A8F0AA40ABA0ACB0AD70ADEAA
:1009A0000AFB0A190B2F0B3D0B4D0B700B760B57E7
:1009B000726F6E672074696D6520666F726D617409
:1009C0002E204D757374206265202264643A686835
:1009D0003A6D6D3A73732200416C61726D204D6FF8
:1009E0006465206D61746368657320005B446179A0
:1009F000203A20686F757273203A206D696E7574A5
:100A00006573203A207365636F6E64735D202D3EBD
:100A100020005B44617465203A20686F7572732012
:100A20003A206D696E75746573203A207365636F43
:100A30006E64735D202D3E20005B486F75727320DD
:100A40003A206D696E75746573203A207365636F23
:100A50006E64735D202D3E20005B4D696E7574657C
:100A600073203A207365636F6E64735D202D3E20A2
:100A7000005B5365636F6E64735D202D3E20004FF5
:100A80006E636520706572207365636F6E640049E4
:100A90006E636F727265637420616C61726D206D3C
:100AA0006F6465005B253032753A253032753A2522
:100AB0003032753A253032755D005B253032753A3B
:100AC000253032753A253032755D005B2530327540
:100AD0003A253032755D005B253032755D005B4430
:100AE0006179203A20686F757273203A206D696EC3
:100AF00075746573205D202D3E20005B4461746534
:100B0000203A20686F757273203A206D696E757493
:100B10006573205D202D3E20005B486F7572732049
:100B20003A206D696E757465735D202D3E20005B03
:100B30004D696E757465735D202D3E20004F6E63A8
:100B40006520706572206D696E7574650025732C63
:100B500020253032752F253032752F253032752CF7
:100B600020253032753A253032753A2530327500FD
:100B70006572726F720025303275256325303275CB
:100B80002563253032752563253032752563253080
:100B90003275256325303275256325303275007C2A
:100BA0003C3E5E2B3D3F2F5B5D3B2C2A225C004987
:100BB0006E76616C69642066696C656E616D650056
:100BC000380C490C5A0C6F0C800C930CA60CB90C09
:100BD000CE0CEF0C000D130D240D390D500D650DCD
:100BE0007C0D8F0DA00DB10DC40DD90DEA0DFD0DBD
:100BF0000E0E1F0E340E450E560E870E9A0EAB0EBD
:100C0000BE0ECF0EE00EF10E020F150F260F370F9E
:100C1000480F590F6C0F7D0F8E0FA10FB40FC50F2A
:100C2000E30F0410251056108710A610C710E81007
:100C300009112A114B116C113745303030343038DE
:100C40003532353334433036003745303030343088
:100C5000383532353334383041003745303030366E
:100C60003038353234443539303030303030003778
:100C7000453030303430383532344435394646002A
:100C80003745303030353038353234323434303026
:100C9000303000374530303035303835323431354A
:100CA0003030303030003745303030353038353244
:100CB0003431344630303030003745303030363023
:100CC0003835323439343430303030303000374514
:100CD00030303043303835323439343430303030DD
:100CE000303030303030303030303030303000372D
:100CF00045303030343038353234393434313800DE
:100D00003745303030353038353235333444303093
:100D100030300037453030303430383532353334C8
:100D200044303500374530303036303835323533A1
:100D300035343030303030300037453030303730B7
:100D400038353235333534303030303030303000B3
:100D50003745303030363038353235333530303055
:100D6000303030300037453030303730383532357C
:100D7000333530303030303030303000374530307F
:100D80003035303835323433343830303030003765
:100D90004530303034303835323433343831410036
:100DA00037453030303430383532344534393045D9
:100DB0000037453030303530383532344535343011
:100DC0003030300037453030303630383532344509
:100DD000353430303030303000374530303034301A
:100DE00038353234453534303300374530303035DE
:100DF00030383532344534463030303000374530C5
:100E000030303430383532344534463038003745A8
:100E100030303034303835323537353246430037AC
:100E20004530303036303835323533343330303089
:100E300030303000374530303034303835323533AB
:100E40003433304600374530303034303835323581
:100E50003334343045003745303031343038353272
:100E6000344235393030303030303030303030305E
:100E70003030303030303030303030303030303072
:100E80003030303030300037453030303530383564
:100E9000323435343530303030003745303030344E
:100EA0003038353234353435314200374530303022
:100EB0003530383532353034433030303000374516
:100EC0003030303430383532353034433039003713
:100ED00045303030343038353234343432314600F5
:100EE00037453030303430383532343835363037B5
:100EF00000374530303034303835323536353246CB
:100F000044003745303030353038353235323530C1
:100F100030303030003745303030343038353235CD
:100F200032353030330037453030303430383532B8
:100F300034313433323100374530303034303835A5
:100F40003234363532304400374530303034303882
:100F50003532353234353045003745303030353074
:100F60003835323533344630303030003745303064
:100F7000303430383532353334463033003745304D
:100F8000303034303835323445343431330037453D
:100F9000303030353038353234353434303030302C
:100FA0000037453030303530383532353334343031
:100FB000303030003745303030343038353234342A
:100FC0003443313500253275253275253275253289
:100FD00075253275253275253275256325327525BF
:100FE00032750050524F4752414D205245434549BA
:100FF000564544204F4B24242424242424242424F0
:101000002424240050524F4752414D20524543451D
:1010100049564544204552524F5224242424242426
:101020002424242400535441525420574954482026
:101030004649524D57415245204F4B2424242424E5
:101040002424242424242424242424242424242460
:1010500024242424240053544152542057495448F2
:10106000204649524D57415245204552524F522435
:101070002424242424242424242424242424242430
:10108000242424242424005245414420424F4F5418
:101090004C49535424242424242424242424242464
:1010A0002424242424004E45572050524F475241B7
:1010B0004D2052554E4E494E4724242424242424A6
:1010C0002424242424240050524556494F555320AB
:1010D00050524F4752414D2052554E4E494E472493
:1010E0002424242424242400524553544152544996
:1010F0004E47242424242424242424242424242463
:101100002424242424242424004649524D574152A7
:10111000452044454C455445442424242424242477
:10112000242424242424242424004649524D5741B5
:101130005245204E4F542044454C455445442424A8
:1011400024242424242424242424004649524D57B2
:101150004152455F46494C455F464F525F574153A8
:10116000504D4F54452323232323230046494C4508
:101170004155580000407A10F35A00A0724E1809E9
:101180000010A5D4E80000E87648170000E40B54EE
:10119000020000CA9A3B000000E1F50500008096BD
:1011A0009800000040420F000000A08601000000EF
:1011B000102700000000E8030000000064000000A9
:1011C00000000A00000000000100000000002C7672
:1011D000D888DC674F0823DFC1DFAE59E1B1B7968D
:1011E000E5E3E453C63AE651997696E8E6C28426EA
:1011F000EB898C9B62ED407C6FFCEFBC9C9F40F2C6
:10120000BAA56FA5F490055A2AF75C936B6CF96741
:101210006DC11BFCE0E40D47FEF520E6B500D0ED06
:10122000902E0300943577050080841E080000206E
:101230004E0A000000C80C333333330F986E12830C
:101240001141EF8D2114893BE65516CFFEE6DB18E0
:10125000D1844B381BF77C1D901DA4BBE4242032A5
:1012600084725E228100C9F124ECA1E53D27680C5F
:10127000B510141D81259F32C63A2244C7486E4AD4
:10128000226211241FBECFEFD1E2DEBFCDBF18E036
:10129000A0E0B2E0E0E2F2E101E00BBF02C00790A3
:1012A0000D92AA30B107D9F716E1AAE0B8E001C063
:1012B0001D92A53BB107E1F712E1C2E8D2E100E0DF
:1012C00006C022970109FE010BBF0E94E780CE36BF
:1012D000D10780E00807A9F70E94D22E0C940E894E
:1012E0000C94000085EC9FE00E94D4488AE29FE0C5
:1012F0000E94B04188E398E00E940C7688E398E071
:101300000E949C6D83E29CE00E94FA0C6BE072E00C
:1013100083E29CE00E947C0D65E673E783E29CE03B
:101320000E94B10D6DE172E083E29CE00E947C0DB1
:1013300084E39CE00E94751184E39CE00E940F12FC
:1013400060ED77E080E090E00E94582667E372E06D
:1013500083E29CE00E947C0D88E398E00E94986202
:1013600085EC9FE00E94F4488AE29FE00C94033BE6
:10137000EF920F93CF93DF9380E1E82E02E024E019
:1013800041E062E572E084E39CE00E941B1284E38A
:101390009CE00E9415128AE29FE00E94B0418AE21E
:1013A0009FE00E94C23D8091420F80930C081092F2
:1013B0000D088091410F80930A0810920B088AE271
:1013C0009FE00E94033B8091AE129091AF1284FF88
:1013D00049C083E29CE00E942F0D6EE572E083E23B
:1013E0009CE00E947C0D8091A71280930E081092C1
:1013F0000F081F928F9387E792E09F938F9380E16E
:1014000098E09F938F930E94A98360E178E083E244
:101410009CE00E947C0D0F900F900F900F900F900A
:101420000F90C0E0D0E00AC084E39CE00E949B17CC
:101430008091A71281508093A712219680910E0867
:1014400090910F08C817D9077CF38091AE12909144
:10145000AF128F7E9093AF128093AE1283E29CE026
:101460000E943B0D8091AE129091AF1281FF53C04C
:1014700083E29CE00E942F0D64E972E083E29CE02D
:101480000E947C0D8AEC9FE00E94C54A80910C0866
:1014900090910D086AE070E00E941E80892B41F552
:1014A0006DEA72E083E29CE00E947C0D83E29CE0A6
:1014B0000E94390E80910C0890910D08892BC1F47F
:1014C00088E398E00E940C7662E370E080E090E0B0
:1014D0000E94582683E29CE00E942A1060E375E790
:1014E00080E090E00E94582688E398E00E9498628D
:1014F0008091AE129091AF128D7F9093AF12809336
:10150000AE1283E29CE00E943B0D0E94F32A8DEB19
:101510009FE00E94394683E29CE0DF91CF910F91DA
:10152000EF900C943B0D5F926F927F928F929F92FF
:10153000AF92BF92CF92DF92EF92FF920F931F93E1
:10154000CF93DF93CDB7DEB7C957D1090FB6F89463
:10155000DEBF0FBECDBF6C017B01EA961FAEEA97DE
:101560003C010E943A68F601E552FE4F82E080831A
:101570008E010F5F1F4F98E7D8011D929A95E9F7EA
:101580009EE7998391E09D83F601ED54FC4F118213
:101590001082F601E752FE4F8083F701908588E3C1
:1015A000A82EBB24B394AE0CBF1CD5018C919230F5
:1015B000E0F5825F8B8380E18C83913019F48FEFAB
:1015C0008C8710C0F70184818E8385818F8386810B
:1015D00088878781898780818A8781818B878281BB
:1015E0008C8783818D878FEF8E878EEF8F8721E1A8
:1015F000AE014F5F5F4FB701C3010E944565F70120
:10160000E85CFE4F008111810F5E1F4FBE016F5FCE
:101610007F4FC3010E942568E1E0F0E0EC0FFD1F61
:10162000E00FF11F808312E146C08C5E8B8381E165
:101630008C83F70184818E8385818F83868188875F
:101640008781898780818A8781818B8782818C8746
:1016500083818D878FEF8E878EEF8F87E65CFE4FBD
:101660008081888BF701E55CFE4F8081898BF701D3
:10167000E45CFE4F80818B8BF701E25CFE4F808142
:101680008C8BF701E15CFE4F80818D8B27E1A801F7
:10169000B701C6010E944565D501AD90BC90B7E188
:1016A000AB0EB11CB801C6010E942568F801EA0D15
:1016B000FB1D808318E1012F9E0127583F4FAE018B
:1016C0004F5F5F4FB701C3010E946065F601E258AA
:1016D000FC4F8081813021F48AEC9FE00E94EF4A28
:1016E000512C5701E8ECAE1AEEEFBE0A012F10E0C4
:1016F0004601F2E88F1AFCEF9F0A0CC0E1E0F0E02F
:10170000EC0FFD1FE80FF91FD4016C9180810E943E
:10171000E12D5394852D90E0EA964FADEA97F501BF
:1017200020813181240F311D200F311F8217930733
:1017300028F3C3010E94BE70F601E552FE4F80837C
:10174000F601EA52FC4F9081F701EE5AFE4F90836A
:10175000F601E952FC4F9081F701ED5AFE4F90835C
:10176000F601E852FC4F9081F701EC5AFE4F90834E
:10177000F601E752FC4F9081F701EB5AFE4F908340
:10178000F601E652FC4F9081F701EA5AFE4F908332
:10179000C758DF4F0FB6F894DEBF0FBECDBFDF9145
:1017A000CF911F910F91FF90EF90DF90CF90BF905E
:1017B000AF909F908F907F906F905F900895CF93A0
:1017C000DF93EC01FC01E358FC4F83E08083FE01D2
:1017D000E258FC4F6083611104C08AEC9FE00E94D4
:1017E0001F4BFE01E158FC4F11821082FE01ED54A7
:1017F000FC4F11821082FE01EB54FC4F1082FE015F
:10180000E95AFF4F1082FE01E25CFE4F1082FE019A
:10181000E45CFE4F1082FE01E35CFE4F82E88083B1
:10182000FE01E959FE4F1082FE01E759FE4F80E2AA
:101830008083FE01EF5DFE4F1082FE01EE5DFE4FE4
:1018400087E08083FE01ED5DFE4F90ED9083FE0109
:10185000EC5DFE4F1082FE01EB5DFE4F1082FE013B
:10186000EA5DFE4F98EC9083FE01EE58FE4F108229
:10187000FE01E859FE4F94E09083FE01E951FC4FD0
:101880008083FE01E851FC4F83E08083FE01E75135
:10189000FC4F81E08083FE01E552FC4F1082FE0187
:1018A000E852FE4F82E08083FE01E752FE4F8083C4
:1018B000FE01E652FE4F8083FE01E552FE4F80831B
:1018C000CE010E946869CE01DF91CF910C943A68F5
:1018D00010923A0810923C08109254081092560840
:1018E00089E18093160C1092190C83E08093B40B5D
:1018F00082EC92E0909339088093380884E1E0E626
:10190000F9E0DF011D928A95E9F781E1EEE8F9E05F
:10191000DF011D928A95E9F70895EF92FF920F93E8
:101920001F93CF93DF93CDB7DEB7E2970FB6F8944E
:10193000DEBF0FBECDBF8C01F62EE72EFC01108658
:101940008EE69DE00E94B035813009F444C06F2DD1
:101950007E2D8EE69DE00E94723A8823C1F0EF92C0
:10196000FF9286EC92E09F938F93EE24E394F12C08
:10197000EC0EFD1EFF92EF920E94A983B70185EC49
:101980009FE00E94E04981E0F80180871EC0EF924D
:10199000FF9281ED92E09F938F93EE24E394F12CDC
:1019A000EC0EFD1EFF92EF920E94A983B70185EC19
:1019B0009FE00E945B4A6091050F7091060F85ECD5
:1019C0009FE00E94C449F80110860F900F900F907D
:1019D0000F900F900F90F8018085E2960FB6F89463
:1019E000DEBF0FBECDBFDF91CF911F910F91FF9052
:1019F000EF900895CF93DF93EC0185EC9FE00E9478
:101A0000D4488EE69DE00E9494348EE69DE00E94CC
:101A10003334811106C06EE471E085EC9FE00E94D2
:101A2000034A69857A85CE010E948D0C6B857C8581
:101A3000CE010E948D0C6D857E85CE010E948D0C9D
:101A40006F857889CE010E948D0C85EC9FE00E9405
:101A5000F4488EE69DE0DF91CF910C94EE3385EC57
:101A60009FE00E94D4488AE29FE00E94B0418EE647
:101A70009DE00C94943485EC9FE00E94F4488AE247
:101A80009FE00E94033B8EE69DE00C94EE33CF93E3
:101A9000DF93EB018EE69DE00E949434BE018EE65A
:101AA0009DE00E94B0358823E9F02091460D3091E9
:101AB000470D4FEA5CE0BE018EE69DE00E94083AC9
:101AC000882341F063E971E085EC9FE00E94034ABE
:101AD00081E00FC06CE671E085EC9FE00E94034A54
:101AE00082E007C06AE771E085EC9FE00E94034A4C
:101AF00083E0DF91CF9108950F931F93CF93DF93EE
:101B0000EC018B01188661E089E99CE00E941524B4
:101B10008AE29FE00E94C23DAC016BE789E99CE04C
:101B20000E94B71F42EF52E061E489E99CE00E9405
:101B3000B71FA80161E489E99CE00E94B71F89E909
:101B40009CE00E94181D69857A85CE010E94470D90
:101B5000813009F488878885DF91CF911F910F919B
:101B60000895CF93DF93EC01623785E67807E1F0C3
:101B7000653683E7780721F069377146C1F411C0F3
:101B800066EF72E0CE010E947C0D86E193E09B83BC
:101B90008A8382E18C8384E38D838FE08E831F822E
:101BA0000BC067E273E005C065E473E002C065E660
:101BB00073E0CE010E947C0D88E398E00E940C76D1
:101BC0006E8188E398E00E94CE778091110A81119E
:101BD00003C06EE773E002C06DE873E0CE010E94BF
:101BE0007C0DBE016C5F7F4F88E398E00E941E78F9
:101BF0008091110A811103C06AEA73E002C068EBA8
:101C000073E0CE010E947C0D6F8188E398E00E9412
:101C100005778091110A811103C061ED73E002C064
:101C200063EF73E0CE010E947C0D67E174E088E30E
:101C300098E00E9447778091110A811103C06EE1FC
:101C400074E002C068E374E0CE010E947C0D88E37A
:101C500098E00E949C778091110A811103C065E58C
:101C600074E002C067E674E0CE01DF91CF910C947E
:101C70007C0D2F923F924F925F926F927F928F9244
:101C80009F92AF92BF92CF92DF92EF92FF920F930B
:101C90001F93CF93DF93CDB7DEB7CA54D1090FB6E8
:101CA000F894DEBF0FBECDBF1C010E942F0D65E86A
:101CB00074E0C1010E947C0D40E058E060E084E3E4
:101CC0009CE00E94771140E050E160E084E39CE0FA
:101CD0000E94771140E850E060E084E39CE00E94BD
:101CE000771141E050E060E084E39CE00E947711CE
:101CF00040E050E460E084E39CE00E94771160E102
:101D000077E280E090E00E9458266CE974E0C1011F
:101D10000E947C0D8AE29FE00E948C406B017C0156
:101D200040E060E078E084E39CE00E94DD1B69A76E
:101D30007AA78BA79CA741E060E078E084E39CE071
:101D40000E94DD1B6DA77EA78FA798AB60E070E1B6
:101D500084E39CE00E94111D69AB7AAB8BAB9CAB1A
:101D600060E870E084E39CE00E94111D2B013C01BF
:101D700060E070E484E39CE00E94111D6DAB7EABDB
:101D80008FAB98AF61E070E084E39CE00E94111D8E
:101D900069AF7AAF8BAF9CAF60E070E084E39CE00A
:101DA0000E94111D4B015C0184E39CE00E944B17D3
:101DB00021966CAF7DAF8EAF9FAF219784E39CE0FF
:101DC0000E94501725966CAF7DAF8EAF9FAF2597C1
:101DD00084E39CE00E94461729966CAF7DAF8EAFDE
:101DE0009FAF29976CEA74E0C1010E947C0D40E02E
:101DF00058E061E084E39CE00E94771140E050E10C
:101E000061E084E39CE00E94771140E850E061E0EB
:101E100084E39CE00E94771140E050E461E084E3B9
:101E20009CE00E94771141E050E061E084E39CE097
:101E30000E94771164EC74E0C1010E947C0D61E0A6
:101E400089E99CE00E941524A70196016BE789E9C6
:101E50009CE00E94EE218DEB9FE00E94A244482F5F
:101E600050E064E389E99CE00E94CD228AE29FE091
:101E70000E94CD3D9B01AC016EE389E99CE00E948C
:101E8000DE2185E69DE00E949B3262E370E080E007
:101E900090E00E94582685E69DE00E9444308C0127
:101EA00085E69DE00E946D309C0185E69DE02A96C6
:101EB0002FAF2A972B963FAF2B970E9496302A96EA
:101EC0002FAD2A972B963FAD2B97AC016FE389E995
:101ED0009CE00E94511E85E69DE00E94023229A5E9
:101EE0003AA54BA55CA561E289E99CE00E94DE2150
:101EF0002DA53EA54FA558A963E289E99CE00E9463
:101F0000DE2129A93AA94BA95CA96FE089E99CE0E7
:101F10000E94DE212DA93EA94FA958AD6AE689E9A4
:101F20009CE00E94DE2189E99CE00E94181DF101DD
:101F300063857485C1010E94470D61E089E99CE0D9
:101F40000E941524A70196016BE789E99CE00E9495
:101F5000EE21C301B2010E94267D462F50E066E2C9
:101F600089E99CE00E94CD2229AD3AAD4BAD5CAD34
:101F70006CE289E99CE00E94DE21C501B4010E9467
:101F8000267D462F50E06DE289E99CE00E94CD223B
:101F900021962CAD3DAD4EAD5FAD219760E689E950
:101FA0009CE00E94DE2125962CAD3DAD4EAD5FAD8F
:101FB000259761E689E99CE00E94DE2129962CADF7
:101FC0003DAD4EAD5FAD299762E689E99CE00E9488
:101FD000DE2189E99CE00E94181DF101638574856A
:101FE000C1010E94470DF10184858F9383858F93F2
:101FF00081EE94E09F938F938E010F5F1F4F1F938D
:102000000F930E94A983B801C1010E947C0DC101F8
:102010000E943B0D0F900F900F900F900F900F901C
:10202000C65BDF4F0FB6F894DEBF0FBECDBFDF91AA
:10203000CF911F910F91FF90EF90DF90CF90BF90C5
:10204000AF909F908F907F906F905F904F903F9058
:102050002F9008958F929F92AF92BF92CF92DF926E
:10206000EF92FF920F931F93CF93DF93EC016B8559
:102070007C858EE69DE00E9436394B015C016F85C0
:1020800078898EE69DE00E94363982E088169104B8
:10209000A104B1040CF456C0C12CD12C76016B857F
:1020A0007C8501E010E0A70196018EE69DE00E948C
:1020B000163662EF74E0CE010E947C0D6A817B814E
:1020C00041EA5DE088E398E00E945D798130A9F4FF
:1020D00068E275E0CE010E947C0D6D857E8541EA47
:1020E0005DE08EE69DE00E94F039813019F461E6F2
:1020F00075E00DC061EB75E00AC06F85788941EA33
:102100005DE08EE69DE00E94F03960EE75E0CE0164
:102110000E947C0D8FEFC81AD80AE80AF80AC81482
:10212000D904EA04FB0409F0BACF6B857C858EE6FE
:102130009DE00E943D376BE176E0CE010E947C0D70
:1021400081E006C064E476E0CE010E947C0D80E070
:10215000DF91CF911F910F91FF90EF90DF90CF9083
:10216000BF90AF909F908F900895E3E2FCE081E1F3
:10217000DF011D928A95E9F78CE796E091838083D1
:1021800082E18093270C84E38093280C8DE896E00D
:1021900090932D0C80932C0C89E996E090932F0C52
:1021A00080932E0C85EA96E09093310C8093300C4E
:1021B00082EB96E09093330C8093320C089581E08B
:1021C0008093E01140E060E08DEB9FE00E942744A7
:1021D00040E061E08DEB9FE00E94274480913D0F3D
:1021E000811106C041E061E08AE29FE00E94D73A97
:1021F00061E087E00E94A52781E00895CF93DF93F7
:10220000D82FC92F61E085E00E948C2761E084E02F
:102210000E948C2761E086E00E948C2761E087E0C5
:102220000E948C2760E089E00E948C2761E08AE0B0
:102230000E948C2760E088E00E948C2761E082E0A9
:102240000E948C2761E08EE00E948C2760E08FE086
:102250000E948C2760E081E10E948C2760E083E18E
:102260000E948C2760E085E00E94A52760E084E062
:102270000E94A52760E086E00E94A52760E087E035
:102280000E94A52760E08AE00E94A52760E082E026
:102290000E94A52760E08EE00E94A52741E060E053
:1022A0008DEB9FE00E94274441E061E08DEB9FE0D1
:1022B0000E942744ED2FFC2F80E6DF011D928A95B6
:1022C000E9F780919F129091A012A091A112B09174
:1022D000A212806280939F129093A012A093A112E9
:1022E000B093A212DF91CF9108950C94DF10611189
:1022F0004AC04038510509F43FC0C0F4443051058C
:10230000A9F148F44130510599F190F1423051055D
:1023100009F083C02BC04032510561F140345105B2
:1023200049F14830510509F078C020C0411588E0D6
:10233000580701F168F4411582E05807E9F04115AA
:1023400084E05807B9F04115514009F066C014C047
:10235000411580E2580771F0411580E4580761F09B
:102360004115504109F059C061E047C061E048C0E3
:1023700061E049C061E04AC061E087E00E94A527B2
:1023800061E08AE044C0613009F045C04038510541
:10239000E1F1B0F44430510591F140F44130510580
:1023A00089F180F142305105C1F529C04032510513
:1023B00061F14034510549F14830510571F51FC0B4
:1023C000411588E0580709F160F4411582E058078B
:1023D000E1F0411584E05807C1F041155140E9F49E
:1023E00014C0411580E2580781F0411580E4580778
:1023F00061F04115504189F460E084E008C060E07C
:1024000082E005C060E08EE002C060E087E00E94EC
:10241000A52781E0089580E008958FEF089560E199
:1024200070E080E090E00C94F82A60E170E080E0D9
:1024300090E00C94952BCF92DF92EF920F931F9325
:10244000CF93DF9300D0CDB7DEB76B018AEC9FE06E
:102450002A8349830E94074B64E670E080E090E0A5
:102460000E94582661E08DE20E948C2760E08DE298
:102470000E94A5278AE29FE00E94B0412A814981FB
:10248000B6018AE29FE00E9444438AE29FE00E94F4
:10249000033B60E084E00E94A52760E082E00E94A8
:1024A000A52760E087E00E94A52760E08AE00E94FF
:1024B000A52760E086E00E94A52760E08EE00E94EC
:1024C000A527602F8DEB9FE00E943A45E4FE14C0E3
:1024D00060E170E080E090E00E94F82A0DC061E0C9
:1024E00070E080E090E00E9458268DEB9FE00E9413
:1024F0003946115011F449C01BE08BE20E94EB27D2
:10250000019769F383B7817F846083BF83B781605C
:1025100083BF83B7816083BF889583B78E7F83BF76
:1025200083B78E7F83BF602F8DEB9FE00E948A442C
:102530008091AE129091AF1284FD10C08AE29FE0AC
:102540000E94B0418AE29FE00E94803F8AE29FE0C1
:102550000E949A418AE29FE00E94033B00FF15C05F
:1025600041E060E08DEB9FE00E94274441E061E0A4
:102570008DEB9FE00F900F90DF91CF911F910F9106
:10258000EF90DF90CF900C9427440F900F90DF9145
:10259000CF911F910F91EF90DF90CF9008952F92E0
:1025A0003F924F925F926F927F928F929F92AF92E3
:1025B000BF92CF92DF92EF92FF920F931F93CF9330
:1025C000DF93CDB7DEB728970FB6F894DEBF0FBE06
:1025D000CDBF9A8389830E9406264B015C010E942D
:1025E00006262B013C0180E4C82E82E4D82E8FE021
:1025F000E82EF12C212C312C18861F8236C088E061
:102600000E94EB278C018F819885019709F50115B0
:102610001105F1F49FEF291A390A0E9406269B0141
:10262000AC0124193509460957092B833C834D8396
:102630005E830E9406262B013C012B813C814D814B
:102640005E812C153D054E055F0510F469017A0188
:102650000E940626681579058A059B0520F40E94CC
:1026600006264B015C0118870F830E940626681915
:1026700079098A099B09693B7B408105910508F42A
:10268000BECF64E670E080E090E00E9458260981A9
:102690001A810F591F4FC701B6010E94527D20E0D9
:1026A00030E04AE754E40E94BE7C9B01AC016AE939
:1026B00079E989E190E40E94BE7CF801608371832E
:1026C00082839383B101882777FD8095982F0E949C
:1026D000547D2AE939E949E150E40E94347E20E042
:1026E00030E040E450E40E94BE7C28960FB6F89497
:1026F000DEBF0FBECDBFDF91CF911F910F91FF9035
:10270000EF90DF90CF90BF90AF909F908F907F9091
:102710006F905F904F903F902F9008950F931F936D
:10272000CF93DF9300D0CDB7DEB719821A828091A4
:10273000DF11811104C089ED91E10E948B6066E98F
:1027400070E080E090E00E94582642E050E064E1B2
:1027500070E089ED91E10E9420628E010F5F1F4FB2
:1027600007C089ED91E10E94C060F80181938F015B
:1027700089ED91E10E94BA608111F3CF8091DF1160
:10278000882391F08091690D81110EC080913D0FD9
:10279000813051F08DEB9FE00E942E4541E060E0DA
:1027A0008AE29FE00E94D73A8A812981422F50E035
:1027B00060E070E02227342F452F562F280F311D5F
:1027C000411D511DA9E0B0E00E94EB7F69507048A7
:1027D000844091090E94547D20E03FEF4FE757E489
:1027E0000E94BE7C0F900F90DF91CF911F910F91AF
:1027F0000895BF92CF92DF92EF92FF920F931F93B3
:10280000CF93DF93C62F60E08FE00E948C2760E0BB
:1028100081E10E948C2760E083E10E948C2760E0C8
:102820008AE00E94A527C43051F0C83029F0C23098
:1028300081F54FE0B42E05C031E1B32E02C023E193
:10284000B22E0E9406266B017C01C0E0D0E000E0C1
:1028500010E001C08C018B2D0E94EB270130110587
:1028600019F4009709F42196C03D27E0D20794F3AC
:102870000E9406266C197D098E099F090E94527DCF
:102880009B01AC0160E074E284EF99E40E94BE7C9D
:1028900004C060E070E080E89FEBDF91CF911F9172
:1028A0000F91FF90EF90DF90CF90BF9008958F929F
:1028B0009F92AF92BF92CF92DF92EF92FF92CF930F
:1028C000DF9341155105F9F04130510509F047C03A
:1028D000882777FD8095982F0E94547D6B017C019D
:1028E0002DEB32E546E15DE30E94347E25EC3EEFC0
:1028F00042E050E40E94557C4B015C0126EF34E23B
:1029000046ED55EB1AC0882777FD8095982F0E94D9
:10291000547D6B017C012DEB32E546E15FE30E94C3
:10292000347E25EC3EEF42E050E40E94557C4B01A2
:102930005C012BE335E246ED59EBC701B6010E947D
:10294000347EA70196010E94347E9B01AC01C50133
:10295000B4010E94567C7B01D82FC92F04C0E12C02
:10296000F12CD0E0C0E020E030E046EC52E4FE0183
:102970006E2D7F2D8F2F9C2F0E94297E181624F4F8
:10298000E12CF12CD8ECC2E49E016E2D7F2D832F1B
:102990009C2FDF91CF91FF90EF90DF90CF90BF9071
:1029A000AF909F908F9008958F929F92AF92BF9219
:1029B000CF92DF92EF92FF921F93CF93DF93EC01C0
:1029C000162F662319F0613021F402C013E001C014
:1029D00015E061E086E00E948C2761E085E00E94BE
:1029E0008C2761E086E00E94A52761E085E00E94D7
:1029F000A52781E090E00E94822660E086E00E94A8
:102A0000A52760E085E00E94A52781E090E00E9474
:102A1000822661E085E00E94A52761E086E00E94B1
:102A2000A52781E090E00E94822660E085E00E9478
:102A3000A527212F41E065E086E00E941F2C61E080
:102A400085E00E94A52760E086E00E948C270E9416
:102A500006266B017C0186E00E94EB275C0104C026
:102A60000E9406266B017C01AA94AB2809F0B6C02F
:102A70000E9406266C197D098E099F096A3071052E
:102A80008105910508F4B7C0A9C00E9406266B0114
:102A90007C01AB2809F0C9C00E9406266C197D098B
:102AA0008E099F096A3071058105910508F4B0C04F
:102AB000BCC0AA94AB2809F0C6C00E9406266C19B7
:102AC0007D098E099F09603971408105910508F4DF
:102AD000B5C0B9C061E085E00E94A527EE0CFF1CDF
:102AE00086E00E94EB27E80EF91E60E085E00E9478
:102AF000A52781E0C81AD10869F786E00E94EB2774
:102B00006C010E9406264B015C01CD2809F0A3C090
:102B10000E940626681979098A099B096A3071059D
:102B20008105910508F4B9C096C061E085E00E9476
:102B3000A527EE0CFF1C86E00E94EB27E80EF91E8D
:102B400060E085E00E94A52721E0C21AD10869F75C
:102B500061E086E00E948C2761E086E00E94A52764
:102B600061E085E00E94A52780E991E00E9482262D
:102B700060E085E00E94A52760E086E00E94A5272E
:102B80001330A1F4B701882777FD8095982F0E9414
:102B9000547D2AE037ED43E25CE30E94347E2DEC65
:102BA0003CEC4EE152E40E94557C84C0153089F41F
:102BB00041E050E0B701CE01DF91CF911F91FF902E
:102BC000EF90DF90CF90BF90AF909F908F900C943C
:102BD000571460E070E080E090E06CC060E085E059
:102BE0000E94A5270E9406266B017C0186E00E94B8
:102BF000EB275C014ECF86E00E94EB275C010E9430
:102C000006266C157D058E059F0508F02DCF28CF73
:102C100086E00E94EB275C010E9406266C157D056C
:102C20008E059F0508F035CF30CF86E00E94EB2758
:102C30005C010E9406266B017C013BCF86E00E946E
:102C4000EB275C0136CF0E94062668E0C62ED12C09
:102C5000E12CF12C3FCF61E086E00E948C2760E000
:102C600086E00E94A52781E090E00E94822661E034
:102C700085E00E94A52780E991E00E94822660E01D
:102C800085E00E94A52760E086E00E948C270E94D4
:102C9000062658E0C52ED12C48CF86E00E94EB27AF
:102CA0006C010E940626681579058A059B0508F0C7
:102CB0002CCF27CFDF91CF911F91FF90EF90DF9026
:102CC000CF90BF90AF909F908F9008952F923F929A
:102CD0004F925F926F927F928F929F92AF92BF922C
:102CE000CF92DF92EF92FF920F931F93CF93DF93D8
:102CF000CDB7DEB727970FB6F894DEBF0FBECDBFB6
:102D00004C018A01A62EB12C8AE29FE00E94B041BC
:102D10008AE29FE00E94C23DE090440FC0903F0FC6
:102D20002090410F312C201A310A8101000F111F10
:102D3000000F111F080D191D612C712C512C412CF5
:102D4000D12CF12C2A183B0827C081E0A81AB10821
:102D500020F4F7E16F2E712C6EC0F801E60DF71D1F
:102D600081818E1116C080818C1113C062817381A4
:102D700080E090E00E94527D9B01AC01D2016B2F5C
:102D8000742D8D2D9F2D0E94567C562E472ED82EA9
:102D9000F92E84E0681A7108C1018A0D9B1D97FF06
:102DA000D4CFD7CF81E0A81AB108B7FC4BC0C12C53
:102DB000E12C00E02091440F40913F0F60913E0FC5
:102DC0008AE29FE00E949E3FAB01BC014058514502
:102DD000614071099E012F5F3F4F8AE29FE00E9490
:102DE000AB40F401E35AFF4F90818D8198131DC0D1
:102DF000F401E45AFF4F90818E81981316C0F401BC
:102E0000E25AFF4F6081718180E090E00E94527D24
:102E10009B01AC01D2016B2F742D8D2D9F2D0E9433
:102E2000567C562E472ED82EF92E81E0681A71084E
:102E300084E0881A91088091410F90E06816790625
:102E40000CF0B0CF24E83DE04FE85EE3D2016B2FF9
:102E5000742D8D2D9F2D0E94347E27960FB6F894E9
:102E6000DEBF0FBECDBFDF91CF911F910F91FF90BD
:102E7000EF90DF90CF90BF90AF909F908F907F901A
:102E80006F905F904F903F902F90089541E050E0F9
:102E900068E10C94661640E050E061E00C94661620
:102EA00041E050E061E00C946616AF92BF92CF9281
:102EB000DF92EF92FF920F931F93CF93DF930E94C5
:102EC00006266B017C01C0E0D0E000E010E016C0F7
:102ED00089E00E94EB275C010130110519F400978D
:102EE00009F421960E9406266C157D058E059F0526
:102EF00020F40E9406266B017C0185010E940626B3
:102F00006C197D098E099F09693B7B4081059105FC
:102F1000F8F264E670E080E090E00E945826CE016E
:102F2000DF91CF911F910F91FF90EF90DF90CF90A5
:102F3000BF90AF900895CF93DF93EC018AE29FE0BA
:102F40000E94B0418AE29FE00E94C23D8091410F01
:102F50002091440F34E0839FC0011124FE01E80F4B
:102F6000F91F318132130FC0408130913F0F43135D
:102F70000AC0828193818F3F2FEF920769F10196FA
:102F80009383828329C0FE01E80FF91F218380917A
:102F90003F0F9091410FFE0134E0939FE00DF11D32
:102FA000112480838091410FFE0194E0899FE00D00
:102FB000F11D1124138212828091410F24E0829F1F
:102FC000C00DD11D11248A819B818F3F3FEF930754
:102FD00019F001969B838A83DF91CF910895BF9268
:102FE000CF92DF92EF92FF920F931F93CF93DF93D5
:102FF000DB01C42F2C91422F50E026FBEE27E0F995
:10300000F0E011966C91119712960C91029506952D
:103010000695037070E080E090E0B2E0660F771FE5
:10302000881F991FBA95D1F7600F711D811D911DE1
:10303000022F0F7310E020E030E0DAE0000F111FE4
:10304000221F331FDA95D1F7600F711F821F931F64
:10305000440F452F441F550B4130510519F431974A
:10306000C9F006C0EF2BD9F06F5F7F4F810991093E
:103070000E94547D20E030E040EC5FE30E94347E0B
:1030800020E03FEF4FE757E40E94BE7CB62ED72FDB
:103090008C0109C0B12CD0E000E010E404C0B12CD8
:1030A000D0E000E010ECC13009F053C020E030E483
:1030B0004BE754E46B2D7D2F802F912F0E94347E9F
:1030C00020E030E44BEF54E40E94347E2AE63FE6F1
:1030D0004BE45AE40E94567C6B017C0120E030E412
:1030E0004BEF54E46B2D7D2F802F912F0E94347E67
:1030F0009B01AC0160E078E48FE495E40E94557C8C
:103100009B01AC01C701B6010E94BE7C28E431E6F8
:103110004AE754E40E94557C2EEA3FEF48EA54E423
:103120000E94BE7C28EB3EEC4AEB54E40E94347EC5
:103130002FE832E049E754E40E94567C20E030E07A
:103140004AE754E40E94557C26E931E24AE750E41C
:1031500010C0C11111C020E030EE4BE256E46B2DDF
:103160007D2F802F912F0E94347E20E030E04AE7AF
:1031700054E40E94BE7C04C060E070E080E090E017
:10318000DF91CF911F910F91FF90EF90DF90CF9043
:10319000BF900895EF92FF920F931F93CF93DF9309
:1031A00000D01F92CDB7DEB77C0119821A821B8234
:1031B0008091DF11811104C089ED91E10E948B6043
:1031C0006CE271E080E090E00E94582666E170E0D9
:1031D00089ED91E10E94B86060EA89ED91E10E9479
:1031E000B86165E570E089ED91E10E94E46189EDE7
:1031F00091E10E94E6616CE271E080E090E00E9463
:10320000582643E050E066E170E089ED91E10E94CC
:1032100020628E010F5F1F4F07C089ED91E10E9470
:10322000C060F80181938F0189ED91E10E94BA603D
:103230008111F3CF8091DF11882391F08091690D86
:1032400081110EC080913D0F813051F08DEB9FE0D8
:103250000E942E4541E060E08AE29FE00E94D73A5A
:1032600041E0BE016F5F7F4FC7010E94EF170F90D3
:103270000F900F90DF91CF911F910F91FF90EF90E2
:103280000895EF92FF920F931F93CF93DF9300D097
:103290001F92CDB7DEB77C0119821A821B82809102
:1032A000DF11811104C089ED91E10E948B606CE215
:1032B00071E080E090E00E94582666E170E089EDC0
:1032C00091E10E94B86061EA89ED91E10E94B861E4
:1032D00065E570E089ED91E10E94E46189ED91E19D
:1032E0000E94E6616CE271E080E090E00E94582666
:1032F00043E050E066E170E089ED91E10E942062D8
:103300008E010F5F1F4F07C089ED91E10E94C060E1
:10331000F80181938F0189ED91E10E94BA608111DA
:10332000F3CF8091DF11882391F08091690D811195
:103330000EC080913D0F813051F08DEB9FE00E94D7
:103340002E4541E060E08AE29FE00E94D73A40E0EB
:10335000BE016F5F7F4FC7010E94EF170F900F9064
:103360000F90DF91CF911F910F91FF90EF900895F3
:10337000882777FD8095982F0E94547D20E030E4C7
:103380004EE455E40E94347E20E030EC4FE754E4F4
:103390000E94BE7C2AE939E949E15FE30E94BE7CD4
:1033A00020E030E04AE754E40E94BE7C24EF3DEF89
:1033B00044E55EE30E94567C22E630E148EF5EE39E
:1033C0000E94567C23EA31E04CE35DE30E94BE7C20
:1033D0000895CF92DF92EF92FF92882777FD809534
:1033E000982F0E94547D6B017C0120E030E04BE976
:1033F00053E40E94297E18168CF427E53EE94FE03D
:103400005EE3C701B6010E94347E9B01AC016FE60A
:103410007AE78FE093E40E94557C04C060E070E09E
:1034200088EC92E4FF90EF90DF90CF900895CF92D8
:10343000DF92EF92FF92CF93DF93EC016A017B0161
:1034400020E030E040E85EE3C701B6010E94BA7CAC
:1034500087FF04C0C05ADF4F8FE05DC120E030E03D
:1034600040E85EE3C701B6010E94297E87FD0EC0D9
:1034700029E23CE54FE85EE3C701B6010E94BA7C51
:1034800087FF04C0C05ADF4F81E045C129E23CE517
:103490004FE85EE3C701B6010E94297E87FD0EC09A
:1034A00023E333E343EB5EE3C701B6010E94BA7C3A
:1034B00087FF04C0C05ADF4F18822EC123E333E3D5
:1034C00043EB5EE3C701B6010E94297E87FD0EC073
:1034D00020E030E040E05FE3C701B6010E94BA7C23
:1034E00087FF04C0C05ADF4F8DE015C120E030E0F7
:1034F00040E05FE3C701B6010E94297E87FD0EC050
:1035000026E636E646E25FE3C701B6010E94BA7CD2
:1035100087FF04C0C05ADF4F8EE0FDC026E636E6C6
:1035200046E25FE3C701B6010E94297E87FD0EC017
:103530002AE939E949E55FE3C701B6010E94BA7C8F
:1035400087FF04C0C05ADF4F8BE0E5C02AE939E9A4
:1035500049E55FE3C701B6010E94297E87FD0EC0E1
:103560002DEC3CEC4CE85FE3C701B6010E94BA7C4D
:1035700087FF04C0C05ADF4F8CE0CDC02DEC3CEC7F
:103580004CE85FE3C701B6010E94297E87FD0EC0AB
:1035900027ED33EA40EB5FE3C701B6010E94BA7C36
:1035A00087FF04C0C05ADF4F83E0B5C027ED33EA80
:1035B00040EB5FE3C701B6010E94297E87FD0EC084
:1035C0002DEC3CEC4CEC5FE3C701B6010E94BA7CE9
:1035D00087FF04C0C05ADF4F82E09DC02DEC3CEC59
:1035E0004CEC5FE3C701B6010E94297E87FD0EC047
:1035F00028E431EE4AEF5FE3C701B6010E94BA7CCE
:1036000087FF04C0C05ADF4F89E085C028E431EE4F
:103610004AEF5FE3C701B6010E94297E87FD0EC015
:103620002AE939E949E050E4C701B6010E94BA7CB1
:1036300087FF04C0C05ADF4F8AE06DC02AE939E92C
:1036400049E050E4C701B6010E94297E87FD0EC003
:1036500026E636E646E150E4C701B6010E94BA7C90
:1036600087FF04C0C05ADF4F85E055C026E636E626
:1036700046E150E4C701B6010E94297E87FD0EC0D5
:1036800026E636E646E250E4C701B6010E94BA7C5F
:1036900087FF04C0C05ADF4F84E03DC026E636E60F
:1036A00046E250E4C701B6010E94297E87FD0EC0A4
:1036B00020E030E040E350E4C701B6010E94BA7C4C
:1036C00087FF04C0C05ADF4F87E025C020E030E00C
:1036D00040E350E4C701B6010E94297E87FD0EC079
:1036E0002DEC3CEC4CE350E4C701B6010E94BA7CDF
:1036F00087FF04C0C05ADF4F86E00DC02DEC3CECC4
:103700004CE350E4C701B6010E94297E87FD04C046
:10371000C05ADF4F88E08883DF91CF91FF90EF9010
:10372000DF90CF900895882777FD8095982F0E948D
:10373000547D20E030E44EE455E40E94347E20E0E5
:1037400030EC4FE754E40E94BE7C2AE939E949E1B4
:103750005FE30E94BE7C20E030E048E454E40E9435
:10376000557C20E030E048EF51E40E94BE7C089593
:10377000882777FD8095982F0E94547D20E030E4C3
:103780004EE455E40E94347E20E030EC4FE754E4F0
:103790000E94BE7C20E030E04AEF53E40E94557C5A
:1037A00020E030E040E251E40E94BE7C089540E019
:1037B00061E18AEC9FE00C94534CEF92FF920F93DF
:1037C0001F93CF93DF93EC016034710509F49EC021
:1037D000E8F46430710509F455C058F4613071059E
:1037E00009F465C008F46BC06230710509F00AC1C4
:1037F00043C06031710509F4D1C06032710509F42C
:103800007DC06830710509F0FDC042C0611584E0DB
:10381000780709F4AAC078F4611581E0780709F403
:103820008AC0611582E0780709F492C0603871059A
:1038300009F0E8C073C0611580E1780781F028F4D1
:103840006115784009F0DEC099C0611580E2780703
:1038500009F4B8C06115704409F0D4C0CAC083E04F
:103860000E946127BC01CE01DF91CF911F910F9182
:10387000FF90EF900C94B81960E08AE00E94A527B1
:1038800062E00BC060E08AE00E94A52764E005C00A
:1038900060E08AE00E94A52768E0CE010E94F9134B
:1038A0007B018C0161E08AE00E94A527AFC0DF9117
:1038B000CF911F910F91FF90EF900C94CF1285E064
:1038C0000E946127BC0180E090E00E94527D23E3CA
:1038D00033E343E550E40E94347E20E030EC4FE7D0
:1038E00054E40E94BE7C7B018C01982F4E2D5F2DED
:1038F000692F712FCE010E94171A88C0DF91CF91D6
:103900001F910F91FF90EF900C944119DF91CF918F
:103910001F910F91FF90EF900C94CA1886E00E94BF
:103920006127BC01CE01DF91CF911F910F91FF90D4
:10393000EF900C94E91984E00E946127BC01CE014C
:10394000DF91CF911F910F91FF90EF900C94B81BD6
:1039500082E00E946127BC01CE01DF91CF911F91CF
:103960000F91FF90EF900C94931BCE01DF91CF91BC
:103970001F910F91FF90EF900C948E13411102C094
:1039800060E003C04130F1F561E0CE01DF91CF91FD
:103990001F910F91FF90EF900C94D4140E94551733
:1039A000BC0180E090E00E94527D24E83DE04FE8B9
:1039B0005EE30E94347E20E030E040EA51E40E9461
:1039C000347E14C087E00E946127BC0180E090E053
:1039D0000E94527D23E333E343E550E40E94347EAA
:1039E00020E030EC4FE754E40E94BE7C7B018C0168
:1039F0000DC0CE01DF91CF911F910F91FF90EF90FD
:103A00000C94D71BE12CF12C00E010E06E2D7F2DE3
:103A1000802F912FDF91CF911F910F91FF90EF9009
:103A2000089540E00C94DD1B84E39CE00C94FE10B0
:103A3000EF92FF920F931F93CF93DF93EC0185ECEE
:103A40009FE00E9408490FE110E060E08DE30E94D2
:103A5000E12D01501109C9F760E08DE00E94E12DD0
:103A600060E08AE00E94E12D8A81813021F460E0EB
:103A70008FEB96E00CC0811104C060E08DEC96E005
:103A800006C0823009F09AC060E08CED96E00E949A
:103A9000EE2D60E08EEE96E00E94EE2D60E088EF65
:103AA00096E00E94EE2D7E018DEAE80EF11CF701F2
:103AB0006081718180E090E000E02AE030E040E049
:103AC00050E00E94FE2D60E08DE00E94E12D60E05C
:103AD0008AE00E94E12D60E081E097E00E94EE2DF7
:103AE000698D70E080E090E02AE030E040E050E056
:103AF0000E94FE2D60E08DE00E94E12D60E08AE0F2
:103B00000E94E12D60E08FE097E00E94EE2D00E042
:103B100010E009C0FE01E00FF11F60E086890E94FD
:103B2000892E0F5F1F4FF7018081918108171907B8
:103B300088F360E08DE00E94E12D60E08AE00E9461
:103B4000E12D60E08DE197E00E94EE2DE12CF12C5B
:103B50008E0103551F4F0AC0FE01EE0DFF1D60E0F0
:103B600086890E94E12DFFEFEF1AFF0AF80180819C
:103B70009181E816F90680F360E08DE00E94E12D66
:103B800060E08AE00E94E12DCFE1D0E060E08DE3CB
:103B90000E94E12D2197D1F760E08DE00E94E12D98
:103BA00060E08AE00E94E12D85EC9FE0DF91CF91FB
:103BB0001F910F91FF90EF900C943649DF91CF91B8
:103BC0001F910F91FF90EF900895CF93DF93C42F33
:103BD00070E0FB01EE5FFC4F85919491D82F81300E
:103BE000A9F44230B0F16AE574E085EC9FE00E94F0
:103BF0005F492AE030E041E050E060E070E085ECB1
:103C00009FE00E94214A6DE774E014C0841709F117
:103C100062E874E085EC9FE00E945F494D2F50E020
:103C200060E070E02AE030E085EC9FE00E94214AED
:103C300065EA74E085EC9FE00E945F494C2F50E0FC
:103C400060E070E02AE030E085EC9FE00E94874968
:103C50000DC0FB01E655FB4F85919491281741F06B
:103C600066E575E085EC9FE00E94034A8FEF01C096
:103C700081E0DF91CF910895FC01E355FF4F208152
:103C80003181620F731FDC0113968D919C91149703
:103C90008617970720F07183608381E0089580E0A4
:103CA00008952F923F924F925F926F927F928F92E0
:103CB0009F92AF92BF92CF92DF92EF92FF920F93BB
:103CC0001F93CF93DF93CDB7DEB7AA970FB6F894C3
:103CD000DEBF0FBECDBF7C01962E5A016901FC01EB
:103CE0008281813009F0EFC0E62FF0E0EE0FFF1F78
:103CF000E655FE4F85919491BC0166246394712C26
:103D00006C0E7D1EC3010E94C3824E01FFE18F0E27
:103D1000911C4AE050E0B401C5010E9426835E0177
:103D200045E1A40EB11C4AE050E0B501C6010E9475
:103D300026836E015BE0C50ED11C4AE050E0B6015F
:103D4000C8010E942683F30101900020E9F7BF011A
:103D50006150710966197709F40101900020E9F7B3
:103D6000CF01019788199909D5010D900020E9F735
:103D70001197AA19BB09F60101900020E9F73197C4
:103D8000EC19FD09680F791F6C5F7F4F6A0F7B1F6D
:103D90006E0F7F1FC7010E943C1E811101C09AC097
:103DA000F701E355FF4F40805180D3010D90002073
:103DB000E9F71197A619B709F40101900020E9F776
:103DC000CF01019788199909F50101900020E9F7C1
:103DD0009F01215031092A193B09F6010190002069
:103DE000E9F73197EC19FD098201081B190B021B39
:103DF000130B0E1B1F0B1201221A330A2E1A3F0A35
:103E0000A2014E1B5F0B5AA749A7E20FF31F9201B5
:103E10002A1B3B0B281B390B2E1B3F0B2E5E3F4FE3
:103E20002E0D3F1DAD01B301C9010E94D782F701DC
:103E3000E00FF11F8AE3828BF40101900020E9F783
:103E40003197E819F9090D5E1F4F0E0D1F1DAF01C7
:103E5000B401C8010E94D782F701E20DF31D1BE3F4
:103E6000138BF50101900020E9F73197EA19FB095E
:103E700054E1250E311C2E0C3F1CAF01B501C101D0
:103E80000E94D782E9A5FAA5EE0DFF1D148BF6015D
:103E900001900020E9F73197EC19FD0929A53AA511
:103EA0002B5E3F4F2E0D3F1DAF01B601C9010E9491
:103EB000D782F701E40DF51D83E2858BF70181813F
:103EC0008F5F818336C023E041E0C7010E94E51D7A
:103ED0008F3F11F48FEF32C067E070E0C7010E949E
:103EE0003C1E8823B9F3D701A355BF4F0D90BC9159
:103EF000A02DAE0DBF1D1F969C921F975096AC92A1
:103F000050975196BC9251975296CC925297539695
:103F1000DC92539754960C93549755961C9355974F
:103F200056961C92F70181818F5F81838091460DA7
:103F30008550828FF701E355FF4F8081AA960FB617
:103F4000F894DEBF0FBECDBFDF91CF911F910F91CF
:103F5000FF90EF90DF90CF90BF90AF909F908F90A9
:103F60007F906F905F904F903F902F9008955F9259
:103F70006F927F928F929F92AF92BF92CF92DF9279
:103F8000EF92FF920F931F93CF93DF93CDB7DEB7DE
:103F90002A970FB6F894DEBF0FBECDBF8C01962EC8
:103FA000542E852EADB6BEB6E42FF52FDF010D9051
:103FB0000020E9F7AE1BBF0BA03981E0B80710F075
:103FC000A0E9B1E06D0191E0C91AD108EDB7FEB7E3
:103FD000EA1BFB0B0FB6F894FEBF0FBEEDBFEDB6AC
:103FE000FEB68FEFE81AF80A3701AD0160E070E025
:103FF000C7010E94E082A601652D782DC7010E94AD
:104000000D836701D7012FE505C08C91833209F438
:104010002C931196F30101900020E9F73197E619EE
:10402000F709CD018C199D098E179F0770F3D801F0
:1040300012968C91813009F075C0E92DF0E0EE0FF9
:10404000FF1FE655FE4F85919491BC01EE24E39449
:10405000F12CEC0EFD1EC7010E94C382F7010190F6
:104060000020E9F7BF01615071096E197F09D30182
:104070000D900020E9F71197A619B7096A0F7B1F69
:104080006E5F7F4FC8010E943C1E811101C052C06B
:10409000F801E355FF4FC080D180F7010190002067
:1040A000E9F73197EE19FF09D3010D900020E9F7E8
:1040B0001197A619B70946018A1A9B0A96012E1B69
:1040C0003F0B2A1B3B0B2C5E3F4F200F311FAF01D4
:1040D000B701C9010E94D782F801E80DF91D8AE3F2
:1040E000848BF30101900020E9F73197E619F70975
:1040F00085E1880E911C800E911EAF01B301C401B1
:104100000E94D782F801EC0DFD1D83E2858BD8015A
:1041100011968C9111978F5F11968C9311975A96E7
:104120008C934AC021E043E0692DC8010E94E51D3F
:104130008F3F11F48FEF44C0D3010D900020E9F7B9
:104140007D0181E0E81AF108E618F708B7016E5F13
:104150007F4FC8010E943C1E882361F3F801E3559C
:10416000FF4F20813181F30101900020E9F7319761
:10417000E619F709C90102978E1B9F0BF801E80F9A
:10418000F91F968AE78A029608C0D6014D916D0103
:10419000F801E80FF91F468B019682179307A8F3E1
:1041A000F801E20FF31F168AF80181818F5F818386
:1041B0008091460D8550828FF801E355FF4F808135
:1041C0000FB6F894BEBE0FBEADBE2A960FB6F894D9
:1041D000DEBF0FBECDBFDF91CF911F910F91FF903A
:1041E000EF90DF90CF90BF90AF909F908F907F9097
:1041F0006F905F9008957F928F929F92AF92BF923F
:10420000CF92DF92EF92FF920F931F93CF93DF93A2
:10421000CDB7DEB76E970FB6F894DEBF0FBECDBF39
:104220007C01B62E922E732EA42E852E402FFC01DB
:104230008281813009F07AC0CC24C394D12CCC0E79
:10424000DD1E8601242F692D732F8A2D952F0E9444
:104250000981EB2DF0E0EE0FFF1FE655FE4F859133
:1042600094918E010B5E1F4FBC01C8010E94C38256
:10427000F80101900020E9F7BF0161507109601B4E
:10428000710BF60101900020E9F73197EC19FD0957
:104290006E0F7F1F6E5F7F4FC7010E943C1E811112
:1042A00001C04BC0F701E355FF4FA080B180F8017A
:1042B00001900020E9F73197E01BF10BD6010D903A
:1042C0000020E9F71197AC19BD0945018A1A9B0A2C
:1042D00095012E1B3F0B2A1B3B0B2C5E3F4F2E0DD7
:1042E0003F1DAF01B801C9010E94D782F701E80D57
:1042F000F91D8AE3848BF60101900020E9F73197DC
:10430000EC19FD0985E1880E911C8E0C9F1CAF01F4
:10431000B601C4010E94D782F701EA0DFB1D83E2BA
:10432000858BF70181818F5F81832FC021E042E07F
:10433000C7010E94E51D8F3F11F48FEF2BC065E090
:1043400070E0C7010E943C1E8823B9F3F701E355D2
:10435000FF4FA081B181AE0DBF1D5196BC92519708
:1043600052969C92529753967C9253975496AC9245
:10437000549755968C92559756961C92F7018181C9
:104380008F5F81838091460D8550828FF701E355C1
:10439000FF4F80816E960FB6F894DEBF0FBECDBF83
:1043A000DF91CF911F910F91FF90EF90DF90CF9011
:1043B000BF90AF909F908F907F9008950F931F9321
:1043C000E62FF0E0E255FC4F05911491112707FD0F
:1043D00010950E94FB201F910F9108958F929F923C
:1043E000AF92BF92CF92DF92EF92FF920F931F9303
:1043F000CF93DF93CDB7DEB76E970FB6F894DEBFDD
:104400000FBECDBF8C01F62E49015A01FC018281FD
:10441000813009F07AC0E62FF0E0EE0FFF1FE6557D
:10442000FE4F859194916E01F5E1CF0ED11CBC0138
:10443000C6010E94C3822AE030E0EE24E394F12C0E
:10444000EC0EFD1EA701B401C5010E944783F601D1
:1044500001900020E9F7BF01615071096C197D09D5
:10446000D7010D900020E9F71197AE19BF096A0F27
:104470007B1F6E5F7F4FC8010E943C1E811101C0EF
:104480004BC0F801E355FF4FA080B180F6010190C9
:104490000020E9F73197EC19FD09D7010D900020B4
:1044A000E9F71197AE19BF0945018A1A9B0A9501D0
:1044B0002E1B3F0B2A1B3B0B2C5E3F4F200F311F47
:1044C000AF01B601C9010E94D782F801E80DF91DBC
:1044D0008AE3848BF70101900020E9F73197EE1908
:1044E000FF0925E1820E911C800E911EAF01B701DC
:1044F000C4010E94D782F801EA0DFB1D83E2858B7F
:10450000F80181818F5F818330C021E044E0C801E0
:104510000E94E51D8F3F11F48FEF2CC065E070E025
:10452000C8010E943C1E8823B9F3D801A355BF4F90
:104530000D90BC91A02DA00FB11F5196FC925197E8
:1045400052968C92529753969C9253975496AC9253
:1045500054975596BC92559756961C92F8018181B6
:104560008F5F81838091460D8550828FF801E355DE
:10457000FF4F80816E960FB6F894DEBF0FBECDBFA1
:10458000DF91CF911F910F91FF90EF90DF90CF902F
:10459000BF90AF909F908F9008958F929F92AF920F
:1045A000BF92CF92DF92EF92FF920F931F93CF9320
:1045B000DF93CDB7DEB764970FB6F894DEBF0FBEBA
:1045C000CDBF8C01F62E5A01FC018281813009F0A9
:1045D00079C0E62FF0E0EE0FFF1FE655FE4F859104
:1045E0009491BC01CC24C394D12CCC0EDD1EC60109
:1045F0000E94C3827E01FBE0EF0EF11C4AE050E016
:10460000B701C5010E942683F60101900020E9F759
:10461000BF01615071096C197D09D7010D9000200F
:10462000E9F71197AE19BF096A0F7B1F6E5F7F4FC5
:10463000C8010E943C1E811101C059C0F801E35518
:10464000FF4FA080B180F60101900020E9F731977B
:10465000EC19FD09D7010D900020E9F71197AE196B
:10466000BF0945018A1A9B0A95012E1B3F0B2A1B85
:104670003B0B2C5E3F4F200F311FAF01B601C9012C
:104680000E94D782F801E80DF91D8AE3848BF701B7
:1046900001900020E9F73197EE19FF0985E1880EB6
:1046A000911C800E911EAF01B701C4010E94D782F8
:1046B000F801EA0DFB1D83E2858BF80181818F5F94
:1046C00081834EC021E04F3F510509F094F440E052
:1046D0006F2DC8010E94E51D8F3F49F0EF2DF0E0DE
:1046E000EE5FFC4F859194918130E9F404C08FEF27
:1046F0003CC041E0EDCF63E070E0C8010E943C1E89
:104700008823A9F3F801E355FF4FA081B181A00FE1
:10471000B11F5396FC9253975496AC92549755966A
:10472000BC92559714C062E070E0C8010E943C1E24
:104730008823E9F2F801E355FF4FA081B181A00F72
:10474000B11F5496FC9254975596AC925597569635
:104750001C92F80181818F5F81838091460D855085
:10476000828FF801E355FF4F808164960FB6F8946D
:10477000DEBF0FBECDBFDF91CF911F910F91FF9094
:10478000EF90DF90CF90BF90AF909F908F90089563
:10479000CF92DF92EF92FF920F931F93CF93DF930D
:1047A0006C018B010596FC0181E1DF011D928A9568
:1047B000E9F77B01C3E9D0E0BE018AEC9FE00E94EB
:1047C0002F4BF601EC0FFD1FEE58F1098083F70126
:1047D00081937F012196C33AD10571F7D801509694
:1047E0001C92DF91CF911F910F91FF90EF90DF907E
:1047F000CF900895CF93DF93EC0160E083EA90E0DF
:104800000E94EB8586E990E09C838B83BE016B5F01
:104810007F4F89E99CE0DF91CF910C94C82363EA34
:1048200070E08AEC9FE00C942F4BAF92BF92CF9236
:10483000DF92EF92FF920F931F93CF93DF93CDB749
:10484000DEB764970FB6F894DEBF0FBECDBF8C0104
:10485000DC0112966C934696FC0187E9DF011D92FC
:104860008A95E9F7F80111828CE3868B8DE3878BBB
:104870008EE3808F8281813009F0C9C080E8818F0A
:10488000128E83E2838F6801FDEACF0ED11C86E091
:1048900090E0D6018D939C934091610D5091620DF3
:1048A0006091630D7091640D7F936F935F934F934D
:1048B0008BE297E09F938F931F9280E18F93EE247A
:1048C000E394F12CEC0EFD1EFF92EF920E946C839C
:1048D000C7010FB6F894DEBF0FBECDBF9701D6015A
:1048E00011C0FC016191CF016623C9F04D915C912B
:1048F0001197F801E40FF51F668B4F5F5F4F11961C
:104900005C934E93F90101900020E9F73197E21B87
:10491000F30BAC01421B530B4E175F0710F38D9145
:104920009C911197F801E80FF91F23E2268B01965D
:104930008D939C9380E090E0F801E355FF4F4FE5A5
:10494000D801A80FB91F15962C91211149C06801F3
:10495000FDEACF0ED11CD6018D919C911197F801E3
:10496000E80FF91F43E2A42EA68A01968D939C932B
:10497000C8010E940F24B82E7E01B1E1EB0EF11C9C
:104980004AE050E0B70190E00E942683F7010190D1
:104990000020E9F73197EE19FF09D6012D913C91DE
:1049A0002A5E3F4F200F311FAF01B701C9010E949E
:1049B000D782F70101900020E9F73197EE19FF093E
:1049C000D6018D919C91E80FF91FD801AE0FBF1F42
:1049D0005696AC923196D601ED93FC936B2D63C045
:1049E000A081B181A00FB11F233219F456964C93C8
:1049F00002C056962C93208131812F5F3F4F318327
:104A0000208301968031910509F09ACFA0CF8111C2
:104A100002C0F801118E2091620D9091630D80917A
:104A2000640D3091610DD8015B963C935B975C9669
:104A30002C935C975D969C935D975E968C93F801A2
:104A4000E355FF4F89E090E09183808380E090E020
:104A50004FE5D801A80FB91F15962C91211129C037
:104A60007801BDEAEB0EF11CF70180819181F8011C
:104A7000E80FF91F23E2268B0196D7018D939C93B3
:104A8000C8010E940F24F70120813181F801E20F53
:104A9000F31F868B2F5F3F4FD7012D933C932550FB
:104AA000F801228F682F6F5F83EA90E00E94EB8508
:104AB00017C0A081B181A00FB11F233219F45696FF
:104AC0004C9302C056962C93208131812F5F3F4F2B
:104AD0003183208301968031910509F0BACFC0CF90
:104AE00064960FB6F894DEBF0FBECDBFDF91CF91B5
:104AF0001F910F91FF90EF90DF90CF90BF90AF90FC
:104B0000089589E99CE00C94FA231F920F920FB646
:104B10000F9211240BB60F922F933F934F935F93F5
:104B20006F937F938F939F93AF93BF93EF93FF9375
:104B3000F89481E080930A02E0E6F0E080818068EA
:104B4000808380818F7B808360E083E00E94A52743
:104B50007894FF91EF91BF91AF919F918F917F9149
:104B60006F915F914F913F912F910F900BBE0F90DE
:104B70000FBE0F901F9018951F920F920FB60F92B5
:104B800011248F939F93AF93BF938091971290912D
:104B90009812A0919912B0919A120196A11DB11D7F
:104BA0008093971290939812A0939912B0939A12AF
:104BB000BF91AF919F918F910F900FBE0F901F905B
:104BC00018951F920F920FB60F9211248F939F93F7
:104BD000AF93BF9380919B1290919C12A0919D12D4
:104BE000B0919E120196A11DB11D80939B129093CE
:104BF0009C12A0939D12B0939E12BF91AF919F9172
:104C00008F910F900FBE0F901F9018958F929F92CB
:104C1000AF92BF92CF92DF92EF92FF920F931F93CA
:104C2000CF93DF932FB7F8948091971290919812B9
:104C3000A0919912B0919A122FBF9C01AD0160E032
:104C400070E080E090E001E00E94CF804901D42F25
:104C5000C52FB62FA72FF82FE92F02E00E94CF8093
:104C600059016A017B018C0194014D2F5C2F6B2F40
:104C70007A2F8F2F9E2F0E94DE80E9E0AE2EB12C7E
:104C8000C12CD12CE12CF12C00E010E00E947280AC
:104C9000952FB901842FDF91CF911F910F91FF9034
:104CA000EF90DF90CF90BF90AF909F908F9008953E
:104CB0008F929F92AF92BF92CF92DF92EF92FF922C
:104CC0004B015C0107C00E9406266C157D058E0510
:104CD0009F0520F40E9406266B017C010E94062697
:104CE0006C197D098E099F09681579058A059B0550
:104CF00050F3FF90EF90DF90CF90BF90AF909F90D8
:104D00008F900895BC01049768F080E090E00E94C5
:104D1000527D26E636E646EE5FE30E94347E0E9430
:104D2000267D02C0660F771F6150710961F06150E6
:104D3000710949F0FB01EE0FFF1F31978FB7F8940F
:104D40003197F1F78FBF0895789484B7877F84BF38
:104D500010929712109298121092991210929A1221
:104D600084B5826084BD84B5816084BD85B5826070
:104D700085BD85B5816085BDEEE6F0E0808181600E
:104D80008083E1E8F0E080818260808380818160BF
:104D90008083E0E8F0E0808181608083E1EBF0E0F7
:104DA000808184608083E1E9F0E080818460808399
:104DB000E0EBF0E0808181608083E0E9F0E08081D9
:104DC00081608083E4E6F0E080818E7F8083ECE781
:104DD000F0E080818F778083808180648083EAE740
:104DE000F0E0808184608083808182608083808124
:104DF000806880831092C1001092C900089590913C
:104E0000480D982B9093480D80FF32C0809164002C
:104E10008E7F8093640080917C008F7780937C00EC
:104E200080917C00806480937C0080917A00846013
:104E300080937A0080917A00826080937A008091DA
:104E40007A00806880937A00809164008F778093E5
:104E50006400809164008B7F809364008091640083
:104E60008D7F80936400809165008E7F80936500C4
:104E70000895282F20959091480D92239093480DE6
:104E800080FF1EC080917A008F7780937A00809196
:104E900064008160809364008091640080688093E6
:104EA0006400809164008460809364008091640059
:104EB00082608093640080916500816080936500CA
:104EC000089590917C0020917A00206820937A00C8
:104ED0009F70981769F090917C008F70907F892B5C
:104EE00080937C0061E070E080E090E00E945826B2
:104EF00080917A00806480937A0080917A0086FDA8
:104F0000FCCF2091780030917900932F80E0AC01A4
:104F1000422B9A01C901089590E0FC01E75FF64F2A
:104F20002491FC01E45CF64FE491EE2369F0F0E09B
:104F3000E158F64FA491B0E08C91611103C0209527
:104F4000822301C0822B8C93089590E0FC01EA52E9
:104F5000F74F2491FC01E75FF64F3491FC01E45CCC
:104F6000F64F84918823B1F1222331F1233021F4CB
:104F7000909180009F7705C0243031F4909180009B
:104F80009F7D9093800018C0213019F494B59F77CD
:104F900004C0223021F494B59F7D94BD0DC026300D
:104FA00021F49091B0009F7705C0273029F49091AB
:104FB000B0009F7D9093B000E82FF0E0E958F64FE5
:104FC000A491B0E08C91611103C03095832301C09E
:104FD000832B8C93089590E0FC01EA52F74F2491C3
:104FE000FC01E75FF64F3491FC01E45CF64F8491DD
:104FF000882399F1222331F1233021F4909180000C
:105000009F7705C0243031F4909180009F7D90936C
:10501000800018C0213019F494B59F7704C0223065
:1050200021F494B59F7D94BD0DC0263021F490915C
:10503000B0009F7705C0273029F49091B0009F7D84
:105040009093B000E82FF0E0E159F64FE491F0E0E2
:105050008081832321E030E011F420E030E0C901B9
:105060000895F8948091AB129091AC1280FF18C013
:1050700086E20E94EB27892B99F08091AD128F5F19
:105080008093AD128091AE129091AF128160909397
:10509000AF128093AE128091A3128F5F8093A31200
:1050A0008091AB129091AC1281FF18C087E20E94F0
:1050B000EB27892B99F08091AD128F5F8093AD1211
:1050C0008091AE129091AF1282609093AF12809354
:1050D000AE128091A4128F5F8093A4128091AB12C4
:1050E0009091AC1283FF1CC088E00E94EB27892BB3
:1050F000B9F08091AD128F5F8093AD1260E085E0D2
:105100000E94A5278091AE129091AF128860909373
:10511000AF128093AE128091A6128F5F8093A61279
:105120008091AB129091AC1287FF18C08DE20E9463
:10513000EB27892B99F08091AD128F5F8093AD1290
:105140008091AE129091AF1280689093AF128093CD
:10515000AE128091A9128F5F8093A9128091AB1239
:105160009091AC1290FF18C082E10E94EB27892B2E
:1051700099F08091AD128F5F8093AD128091AE1245
:105180009091AF1291609093AF128093AE12809184
:10519000AA128F5F8093AA128091AB129091AC12E9
:1051A00084FF18C089E00E94EB27892B99F4809135
:1051B000AD128F5F8093AD128091AE129091AF12BD
:1051C00080619093AF128093AE128091A7128F5F8F
:1051D0008093A71278940895E82FF0E0EE0FFF1F58
:1051E000E75BF24F71836083823029F130F48823CA
:1051F00051F0813009F046C010C0833059F184303D
:1052000009F040C036C0E898809169008C7F842BFB
:1052100080936900E09AE89A0895E998809169007E
:10522000440F551F440F551F837F842B80936900C3
:10523000E19AE99A0895EA988091690024E0440F80
:10524000551F2A95E1F78F7C842B80936900E29AA1
:10525000EA9A0895EB988091690096E0440F551FF3
:105260009A95E1F78F73842B80936900E39AEB9A08
:105270000895EC9880916A008C7F842B80936A005B
:10528000E49AEC9A0895F894883018F5833091F0F8
:1052900020F4813059F060F407C0863079F087300F
:1052A00079F0843071F408C0E8980BC0E99809C01F
:1052B000EA9807C0EB9805C0EC9803C0EE9801C0CF
:1052C000EF98E82FF0E0EE0FFF1FE75BF24F11823F
:1052D0001082789408951F920F920FB60F921124A6
:1052E0000BB60F922F933F934F935F936F937F93E0
:1052F0008F939F93AF93BF93EF93FF938091490D4B
:1053000090914A0D892B29F0E091490DF0914A0DB9
:105310000995FF91EF91BF91AF919F918F917F91EF
:105320006F915F914F913F912F910F900BBE0F9016
:105330000FBE0F901F9018951F920F920FB60F92ED
:1053400011240BB60F922F933F934F935F936F935C
:105350007F938F939F93AF93BF93EF93FF9380912E
:105360004B0D90914C0D892B29F0E0914B0DF09154
:105370004C0D0995FF91EF91BF91AF919F918F9146
:105380007F916F915F914F913F912F910F900BBE45
:105390000F900FBE0F901F9018951F920F920FB68F
:1053A0000F9211240BB60F922F933F934F935F935D
:1053B0006F937F938F939F93AF93BF93EF93FF93DD
:1053C00080914D0D90914E0D892B29F0E0914D0D5E
:1053D000F0914E0D0995FF91EF91BF91AF919F9183
:1053E0008F917F916F915F914F913F912F910F908E
:1053F0000BBE0F900FBE0F901F9018951F920F922B
:105400000FB60F9211240BB60F922F933F934F9329
:105410005F936F937F938F939F93AF93BF93EF931C
:10542000FF9380914F0D9091500D892B29F0E091C1
:105430004F0DF091500D0995FF91EF91BF91AF91F4
:105440009F918F917F916F915F914F913F912F919C
:105450000F900BBE0F900FBE0F901F9018951F92CC
:105460000F920FB60F9211240BB60F922F933F930A
:105470004F935F936F937F938F939F93AF93BF935C
:10548000EF93FF938091510D9091520D892B29F04C
:10549000E091510DF091520D0995FF91EF91BF915F
:1054A000AF919F918F917F916F915F914F913F91BC
:1054B0002F910F900BBE0F900FBE0F901F9018955D
:1054C0001F920F920FB60F9211240BB60F922F93CB
:1054D0003F934F935F936F937F938F939F93AF937C
:1054E000BF93EF93FF938091530D9091540D892BAF
:1054F00029F0E091530DF091540D0995FF91EF9132
:10550000BF91AF919F918F917F916F915F914F91DB
:105510003F912F910F900BBE0F900FBE0F901F90D9
:1055200018951F920F920FB60F9211240BB60F927F
:105530002F933F934F935F936F937F938F939F939B
:10554000AF93BF93EF93FF938091550D9091560DBC
:10555000892B29F0E091550DF091560D0995FF9199
:10556000EF91BF91AF919F918F917F916F915F91DB
:105570004F913F912F910F900BBE0F900FBE0F9048
:105580001F9018951F920F920FB60F9211240BB611
:105590000F922F933F934F935F936F937F938F93CC
:1055A0009F93AF93BF93EF93FF938091570D90918B
:1055B000580D892B29F0E091570DF091580D099560
:1055C000FF91EF91BF91AF919F918F917F916F91DB
:1055D0005F914F913F912F910F900BBE0F900FBE97
:1055E0000F901F9018951092AF121092AE1208955E
:1055F000CF92DF92EF92FF926B017C018091AB1210
:105600009091AC128C299D299093AC128093AB128F
:10561000C0FE0FC060E08BE20E948C2760E086E253
:105620000E948C2743E050E061E378E282E00E9430
:10563000EC28C1FE0FC060E08BE20E948C2760E086
:1056400087E20E948C2743E050E061E378E282E049
:105650000E94EC28C2FE0FC061E083E00E948C270C
:1056600061E083E00E94A52742E050E066ED7BE226
:1056700084E00E94EC28C3FE0FC060E08BE20E9431
:105680008C2760E088E00E948C2743E050E061E3D3
:1056900078E282E00E94EC28C4FE0BC060E08BE25E
:1056A0000E948C2743E050E061E378E282E00E94B0
:1056B000EC28C6FE0FC060E084E00E948C2760E00A
:1056C0008CE20E948C2742E050E066ED7BE283E0B2
:1056D0000E94EC28C7FE0FC060E08DE20E948C277C
:1056E00060E08BE20E948C2743E050E061E378E2C7
:1056F00082E00E94EC28D0FE13C060E08BE20E94A2
:105700008C2760E082E10E948C2743E050E061E357
:1057100078E282E0FF90EF90DF90CF900C94EC283D
:10572000FF90EF90DF90CF900895CF92DF92EF92AD
:10573000FF926B017C01F89460FF03C082E00E943D
:105740004329C1FE03C082E00E944329C2FE03C078
:1057500084E00E944329C3FE03C082E00E944329E3
:10576000C4FE03C082E00E944329C7FE03C082E05A
:105770000E944329D0FE03C082E00E944329C6FE56
:1057800003C083E00E9443298091AB129091AC1238
:10579000C094D094C822D922D092AC12C092AB123D
:1057A0007894FF90EF90DF90CF900895F8948091D7
:1057B000AB129091AC1286FF1EC084E00E94EB27D2
:1057C000892BC9F48091AD128F5F8093AD128091C7
:1057D000AE129091AF1280649093AF128093AE128C
:1057E0008091A8128F5F8093A81260E470E080E03F
:1057F00090E00E94952B8091AB129091AC1282FFA9
:105800001CC083E00E94EB27892BB9F48091AD1274
:105810008F5F8093AD128091AE129091AF12846031
:105820009093AF128093AE128091A5128F5F8093F8
:10583000A51261E083E00E94A52778940895BF92A5
:10584000CF92DF92EF92FF920F931F93CF93DF934C
:10585000C82ED62EB42EC0E0D0E0022F10E087E094
:10586000E82EF12CB11008C0B8010C2E02C07595BD
:1058700067950A94E2F709C0F701EC1BFD0BB8012C
:1058800002C075956795EA95E2F7617077278C2DD0
:105890000E94A52761E08D2D0E94A52760E08D2D37
:1058A0000E94A5272196C830D105E1F6DF91CF915E
:1058B0001F910F91FF90EF90DF90CF90BF900895D0
:1058C000CF92DF92EF92FF926B017C01411134C0C5
:1058D00088E00E94FF26C701B60122E030E040E0E8
:1058E00050E00E945480305F414F5F4FCA01B901C0
:1058F000A70196010E945480DA01C9010197A1090C
:10590000B109892F9A2FAB2FBB27A7FDBA9580939A
:10591000C50021502093C4008091C1008061809314
:10592000C1008091C10088608093C1008091C10056
:1059300080688093C10033C080E10E94FF26C701C8
:10594000B60122E030E040E050E00E945480305F39
:10595000414F5F4FCA01B901A70196010E945480CF
:10596000DA01C9010197A109B109892F9A2FAB2F3B
:10597000BB27A7FDBA958093CD0021502093CC0082
:105980008091C90080618093C9008091C9008860BE
:105990008093C9008091C90080688093C900FF90FE
:1059A000EF90DF90CF90089581110EC088E00E94A3
:1059B00039278091C1008F7E8093C1008091C10002
:1059C000877F8093C100089580E10E9439278091EC
:1059D000C9008F7E8093C9008091C900877F809322
:1059E000C9000895611107C09091C00095FFFCCFD8
:1059F0008093C60008959091C80095FFFCCF8093D6
:105A0000CE00089581110AC080915F0D9091600DC4
:105A10009E5F20915D0D30915E0D09C080915B0D00
:105A200090915C0D9E5F2091590D30915A0D821B13
:105A3000930B60E072E00E941E800895811119C0EE
:105A400080915D0D90915E0D20915F0D3091600D04
:105A50002817390741F1FC01EF54FB4E20810196D4
:105A600060E072E00E941E8090935E0D80935D0D59
:105A700018C08091590D90915A0D20915B0D309175
:105A80005C0D2817390779F0FC01EF54FD4E208199
:105A9000019660E072E00E941E8090935A0D809300
:105AA000590D30E002C02FEF3FEFC9010895811179
:105AB00009C010925E0D10925D0D1092600D109253
:105AC0005F0D089510925A0D1092590D10925C0DB1
:105AD00010925B0D08951F920F920FB60F92112432
