:100000000C9441090C94D3270C9404280C943528A3
:100010000C9466280C9497280C94C8280C94F92802
:100020000C942A290C9470090C9470090C94700992
:100030000C94ED230C9470090C9470090C944924D1
:100040000C9470090C9470090C9470090C9470094C
:100050000C9470090C9470090C9470090C9424246D
:100060000C9470090C94D32B0C9470090C947009A7
:100070000C9470090C9470090C9470090C9470091C
:100080000C9470090C9470090C9470090C9470090C
:100090000C940E2C0C9470090C9470090C94F77449
:1000A0000C9470090C9470090C9470090C947009EC
:1000B0000C9470090C9470090C9470090C947009DC
:1000C0000C9470090C9470090C9470090763423603
:1000D000B79BD8A71A39685618AEBAAB558C1D3CD9
:1000E000B7CC5763BD6DEDFD753EF6177231BF009D
:1000F0000000803F08000000BE922449123EABAAD7
:10010000AA2ABECDCCCC4C3E00000080BEABAAAA31
:10011000AA3E00000000BF000000803F0000000079
:1001200000084178D3BB4387D1133D190E3CC3BDB2
:100130004282AD2B3E68EC8276BED98FE1A93E4C5F
:1001400080EFFFBE01C4FF7F3F0000000000576149
:10015000726E696E673A204E6F205344206361725D
:100160006420696E7374616C6C6564004672616DC5
:100170006520617070656E64656420746F206669C7
:100180006C6500417070656E64206661696C6564C1
:10019000004572726F723A204E6F206C6F67206656
:1001A000696C65206F6E20534400820585058905C2
:1001B0008C059005940598059C05A005A305A70549
:1001C000AA05AE05B205B605BB05BE05C105C60547
:1001D000CA05CF05D205D505D905DD05E005E4053D
:1001E000E805EC05EF05F405F705FA05FD05010640
:1001F00005060A061006150618061C061F06220626
:10020000250628062C062F06330637063A063D0635
:100210004006430647064B065006540657065B0643
:100220006006650669066D06750679068006840611
:1002300088068E069206950698069C069F06A406DA
:10024000A706AC06B106B506BA06BF06C306C906C0
:10025000CD06D306D906E006E606EC06F006F9065A
:10026000030707070C07110716071A071F072407BC
:100270002907300737073E0745074B075107570740
:100280005B07620768076E0774077A077F078407B2
:1002900089078E07930798079F07A607AD07B20740
:1002A000B707BB07C007C507CB07D107D807DE07CD
:1002B000E507EB07F207F907000807080D0814081F
:1002C0001A08210828082F0835083C084208480861
:1002D0004F0857085A085D085F08630869086E08E8
:1002E000730879087F0885088B08910897089D088E
:1002F000A308A908AF08B508BA08BF08C408CA0807
:10030000D0080202020202020202020202020202F9
:1003100002020202000000000200020000020202CB
:1003200002010002020202020202020202020200B2
:1003300002020202020200020103030300000101A3
:100340000201040303030303020202020202020287
:100350000202020202020200000004020202020281
:10036000020002020202020202020202020202026F
:10037000020200000000000000000002020402006F
:100380000000020202020202020202020202020251
:10039000020202020202020202020202020202023D
:1003A000020202020202020202020202020203032B
:1003B0000303030303030303030302020102030312
:1003C000000000000300030000030303020000021A
:1003D00002010202030202030303020002060203F7
:1003E00003030006000000000000000002000000FF
:1003F00000000000020301010203030303030303DF
:1004000003030300000003020202030303000202CD
:1004100002020202020202020202020303030000BD
:1004200000000000000000030300010000000303BF
:10043000030303030303030303030303030303028D
:100440000200020200040404000303030303030385
:1004500003030303020202030303455252207365A0
:100460006E736F72207479706520262076616C75CA
:1004700065206D69736D617463682C20002076734C
:1004800020004552522073656E736F72207479702C
:100490006520262076616C7565206D69736D6174C9
:1004A00063682C2000207673200001010101010106
:1004B000010101010101010101010101010101012C
:1004C000010101010101010101030101010101011A
:1004D000010101010101010101010101010101020B
:1004E00001010101030301010103010101010101F6
:1004F00001010101010101010101010101010101EC
:1005000003030101010101010101010101010101D7
:1005100001010101010101010101010101010101CB
:1005200001010101010101010101010101010101BB
:1005300001010101010101010101010101010101AB
:10054000010101010201010101010101010101019A
:100550000101010101014552522073656E736F72F2
:1005600020747970652026206E756D626572206F2B
:1005700066206669656C6473206D69736D61746370
:100580006800434F00434F32004F3200434834006D
:100590004C5047004E48330041503100415032002A
:1005A0005356004E4F32004F3300564F43005443D2
:1005B00041005446410048554D41005041005057BC
:1005C0000042454E44005642520048414C4C004CBB
:1005D00050004C4C004C554D0050495200535400B3
:1005E0004D43500043444700435047004C440044AF
:1005F000555354005553004D460050530054434248
:10060000005446420048554D4200534F494C540057
:10061000534F494C004C570050415200555600541E
:100620004400534400464400414E45005756005094
:100630004C5600524144004355005746004C43007D
:10064000444600424154004750530052535349001E
:100650004D4143004E41004E494400444154450041
:1006600054494D4500474D540052414D00494E5F9D
:1006700054454D5000414343004D494C4C495300B3
:10068000535452004D4254004D5749464900554974
:1006900044005242005048004F525000444F004323
:1006A0004F4E440057540044494E41004449434191
:1006B00000444946004449434C00444942520044E6
:1006C00049490044494355320044494B0044494D8F
:1006D00047320044494E4F330054585F5057520040
:1006E000444D5F535400444D5F5350004C555800E7
:1006F00053504545445F4F4700434F555253455F64
:100700004F4700414C540048444F500056444F500E
:100710000050444F500046534D00504C563100504D
:100720004C563200504C563300534F494C5F4300F7
:10073000534F494C5F4400534F494C5F4500534F62
:10074000494C5F4600534F494C3100534F494C329E
:1007500000534F494C33005443430055535F3356C5
:10076000330055535F3556004C554D5F44004C5592
:100770004D5F45004C554D5F46004C505F44004C6A
:10078000505F45004C505F46004C4C5F44004C4C61
:100790005F45004C4C5F460048414C4C5F4400486C
:1007A000414C4C5F450048414C4C5F460057465F0A
:1007B000430057465F45005453540054555242007D
:1007C00056415049005650524F470056424F4F54E1
:1007D0000047505F434C320047505F434F00475043
:1007E0005F45544F0047505F48320047505F4832E2
:1007F000530047505F48434C0047505F48434E000A
:1008000047505F4E48330047505F4E4F0047505FA0
:100810004E4F320047505F4F320047505F504833D1
:100820000047505F534F320047505F434834004702
:10083000505F4F330047505F434F320047505F5483
:10084000430047505F54460047505F48554D0047AE
:10085000505F5052455300544300544600500050DE
:100860004D3100504D325F3500504D313000504118
:10087000525400535749434100535749464C005383
:1008800057494642005357494E4F00535749425229
:1008900000535749434C0053574943550053574958
:1008A000494F00535749504200535749414700535D
:1008B000574950480050485F410050485F4200503F
:1008C000485F43004F52505F41004F52505F42001B
:1008D0004F52505F43000000080900000000000074
:1008E0000000000000000000000000000000000008
:1008F00000000000000000000000000000000000F8
:10090000000000000000000000010208101020405C
:1009100080040810204002020408102040800102D8
:100920008020400420010102040810200140804082
:100930008001020804088004100402010505050571
:100940000303030301010104040306060606060669
:10095000060601040501050103020202020202016A
:100960000202050504040304040103040707070049
:10097000202326292C2F32002225282B2E3134002B
:100980002124272A2D3033D809EC09120A390A59B3
:100990000A710A7F0A8F0AA40ABA0ACB0AD70ADEAA
:1009A0000AFB0A190B2F0B3D0B4D0B700B760B57E7
:1009B000726F6E672074696D6520666F726D617409
:1009C0002E204D757374206265202264643A686835
:1009D0003A6D6D3A73732200416C61726D204D6FF8
:1009E0006465206D61746368657320005B446179A0
:1009F000203A20686F757273203A206D696E7574A5
:100A00006573203A207365636F6E64735D202D3EBD
:100A100020005B44617465203A20686F7572732012
:100A20003A206D696E75746573203A207365636F43
:100A30006E64735D202D3E20005B486F75727320DD
:100A40003A206D696E75746573203A207365636F23
:100A50006E64735D202D3E20005B4D696E7574657C
:100A600073203A207365636F6E64735D202D3E20A2
:100A7000005B5365636F6E64735D202D3E20004FF5
:100A80006E636520706572207365636F6E640049E4
:100A90006E636F727265637420616C61726D206D3C
:100AA0006F6465005B253032753A253032753A2522
:100AB0003032753A253032755D005B253032753A3B
:100AC000253032753A253032755D005B2530327540
:100AD0003A253032755D005B253032755D005B4430
:100AE0006179203A20686F757273203A206D696EC3
:100AF00075746573205D202D3E20005B4461746534
:100B0000203A20686F757273203A206D696E757493
:100B10006573205D202D3E20005B486F7572732049
:100B20003A206D696E757465735D202D3E20005B03
:100B30004D696E757465735D202D3E20004F6E63A8
:100B40006520706572206D696E7574650025732C63
:100B500020253032752F253032752F253032752CF7
:100B600020253032753A253032753A2530327500FD
:100B70006572726F720025303275256325303275CB
:100B80002563253032752563253032752563253080
:100B90003275256325303275256325303275007C2A
:100BA0003C3E5E2B3D3F2F5B5D3B2C2A225C004987
:100BB0006E76616C69642066696C656E616D650056
:100BC000380C490C5A0C6F0C800C930CA60CB90C09
:100BD000CE0CEF0C000D130D240D390D500D650DCD
:100BE0007C0D8F0DA00DB10DC40DD90DEA0DFD0DBD
:100BF0000E0E1F0E340E450E560E870E9A0EAB0EBD
:100C0000BE0ECF0EE00EF10E020F150F260F370F9E
:100C1000480F590F6C0F7D0F8E0FA10FB40FC50F2A
:100C2000E30F0410251056108710A610C710E81007
:100C300009112A114B116C113745303030343038DE
:100C40003532353334433036003745303030343088
:100C5000383532353334383041003745303030366E
:100C60003038353234443539303030303030003778
:100C7000453030303430383532344435394646002A
:100C80003745303030353038353234323434303026
:100C9000303000374530303035303835323431354A
:100CA0003030303030003745303030353038353244
:100CB0003431344630303030003745303030363023
:100CC0003835323439343430303030303000374514
:100CD00030303043303835323439343430303030DD
:100CE000303030303030303030303030303000372D
:100CF00045303030343038353234393434313800DE
:100D00003745303030353038353235333444303093
:100D100030300037453030303430383532353334C8
:100D200044303500374530303036303835323533A1
:100D300035343030303030300037453030303730B7
:100D400038353235333534303030303030303000B3
:100D50003745303030363038353235333530303055
:100D6000303030300037453030303730383532357C
:100D7000333530303030303030303000374530307F
:100D80003035303835323433343830303030003765
:100D90004530303034303835323433343831410036
:100DA00037453030303430383532344534393045D9
:100DB0000037453030303530383532344535343011
:100DC0003030300037453030303630383532344509
:100DD000353430303030303000374530303034301A
:100DE00038353234453534303300374530303035DE
:100DF00030383532344534463030303000374530C5
:100E000030303430383532344534463038003745A8
:100E100030303034303835323537353246430037AC
:100E20004530303036303835323533343330303089
:100E300030303000374530303034303835323533AB
:100E40003433304600374530303034303835323581
:100E50003334343045003745303031343038353272
:100E6000344235393030303030303030303030305E
:100E70003030303030303030303030303030303072
:100E80003030303030300037453030303530383564
:100E9000323435343530303030003745303030344E
:100EA0003038353234353435314200374530303022
:100EB0003530383532353034433030303000374516
:100EC0003030303430383532353034433039003713
:100ED00045303030343038353234343432314600F5
:100EE00037453030303430383532343835363037B5
:100EF00000374530303034303835323536353246CB
:100F000044003745303030353038353235323530C1
:100F100030303030003745303030343038353235CD
:100F200032353030330037453030303430383532B8
:100F300034313433323100374530303034303835A5
:100F40003234363532304400374530303034303882
:100F50003532353234353045003745303030353074
:100F60003835323533344630303030003745303064
:100F7000303430383532353334463033003745304D
:100F8000303034303835323445343431330037453D
:100F9000303030353038353234353434303030302C
:100FA0000037453030303530383532353334343031
:100FB000303030003745303030343038353234342A
:100FC0003443313500253275253275253275253289
:100FD00075253275253275253275256325327525BF
:100FE00032750050524F4752414D205245434549BA
:100FF000564544204F4B24242424242424242424F0
:101000002424240050524F4752414D20524543451D
:1010100049564544204552524F5224242424242426
:101020002424242400535441525420574954482026
:101030004649524D57415245204F4B2424242424E5
:101040002424242424242424242424242424242460
:1010500024242424240053544152542057495448F2
:10106000204649524D57415245204552524F522435
:101070002424242424242424242424242424242430
:10108000242424242424005245414420424F4F5418
:101090004C49535424242424242424242424242464
:1010A0002424242424004E45572050524F475241B7
:1010B0004D2052554E4E494E4724242424242424A6
:1010C0002424242424240050524556494F555320AB
:1010D00050524F4752414D2052554E4E494E472493
:1010E0002424242424242400524553544152544996
:1010F0004E47242424242424242424242424242463
:101100002424242424242424004649524D574152A7
:10111000452044454C455445442424242424242477
:10112000242424242424242424004649524D5741B5
:101130005245204E4F542044454C455445442424A8
:1011400024242424242424242424004649524D57B2
:101150004152455F46494C455F464F525F574153A8
:10116000504D4F54452323232323230046494C4508
:101170004155580000407A10F35A00A0724E1809E9
:101180000010A5D4E80000E87648170000E40B54EE
:10119000020000CA9A3B000000E1F50500008096BD
:1011A0009800000040420F000000A08601000000EF
:1011B000102700000000E8030000000064000000A9
:1011C00000000A00000000000100000000002C7672
:1011D000D888DC674F0823DFC1DFAE59E1B1B7968D
:1011E000E5E3E453C63AE651997696E8E6C28426EA
:1011F000EB898C9B62ED407C6FFCEFBC9C9F40F2C6
:10120000BAA56FA5F490055A2AF75C936B6CF96741
:101210006DC11BFCE0E40D47FEF520E6B500D0ED06
:10122000902E0300943577050080841E080000206E
:101230004E0A000000C80C333333330F986E12830C
:101240001141EF8D2114893BE65516CFFEE6DB18E0
:10125000D1844B381BF77C1D901DA4BBE4242032A5
:1012600084725E228100C9F124ECA1E53D27450E80
:101270000010551CE92307315736B33F5844FF454A
:10128000735D11241FBECFEFD1E2DEBFCDBF17E0EB
:10129000A0E0B2E0E2EBF5E001E00BBF02C0079096
:1012A0000D92AA3DB107D9F716E1AAEDB7E001C04A
:1012B0001D92A13AB107E1F712E1C2E8D2E100E0E4
:1012C00006C022970109FE010BBF0E94D57ACE36D7
:1012D000D10780E00807A9F70E943A2D0C94D78225
:1012E0000C94000081EB9FE00E94654486E19FE042
:1012F0000E94413D86E298E00E94837086E298E079
:101300000E9413686BE072E081E19CE00E94460F4E
:1013100081E19CE00E94C40E65E673E781E19CE0F8
:101320000E94800F6DE172E081E19CE00E94460F17
:1013300080E29CE00E94B61080E29CE00E94501186
:1013400060ED77E080E090E00E94C02467E372E007
:1013500081E19CE00E94460F86E298E00E94E95DF0
:1013600081EB9FE00E94854486E19FE00C949436D7
:101370000F931F93CF93DF9381E19CE00E94F90EBE
:1013800062E572E081E19CE00E94460F40E058E097
:1013900060E080E29CE00E94B81040E050E160E034
:1013A00080E29CE00E94B81040E850E060E080E2FB
:1013B0009CE00E94B81041E050E060E080E29CE0D8
:1013C0000E94B81040E050E460E080E29CE00E949F
:1013D000B81060E177E280E090E00E94C02469E606
:1013E00072E081E19CE00E94460F40E060E078E01E
:1013F00080E29CE00E941E1B6093F8077093F9073F
:101400008093FA079093FB0741E060E078E080E288
:101410009CE00E941E1B6093F4077093F507809375
:10142000F6079093F70760E070E180E29CE00E948D
:10143000521C6093F0077093F1078093F20790932A
:10144000F30760E870E080E29CE00E94521C0E947A
:1014500014776093EF0760E070E480E29CE00E9404
:10146000521C6093EB077093EC078093ED07909309
:10147000EE0761E070E080E29CE00E94521C609305
:10148000E7077093E8078093E9079093EA0760E025
:1014900070E080E29CE00E94521C0E9414776093EE
:1014A000E60780E29CE00E948C166093E20770934E
:1014B000E3078093E4079093E50780E29CE00E94B5
:1014C00091166093DE077093DF078093E007909397
:1014D000E10780E29CE00E9487166093DA07709330
:1014E000DB078093DC079093DD0769E772E081E119
:1014F0009CE00E94460F40E058E061E080E29CE002
:101500000E94B81040E050E161E080E29CE00E945F
:10151000B81040E850E061E080E29CE00E94B81022
:1015200040E050E461E080E29CE00E94B81041E0BD
:1015300050E061E080E29CE00E94B81061E972E056
:1015400081E19CE00E94460F61E085E89CE00E94FA
:101550007D2289EA9FE00E943340482F50E064E3F7
:1015600085E89CE00E94352186E19FE00E945E397B
:101570009B01AC016EE385E89CE00E94252181E59A
:101580009DE00E94033162E370E080E090E00E9401
:10159000C02481E59DE00E94AC2E8C0181E59DE098
:1015A0000E94D52EEC0181E59DE00E94FE2E9E0159
:1015B000AC016FE385E89CE00E94981D81E59DE009
:1015C0000E946A3085E89CE00E945F1CCAE1DCE072
:1015D0006881798181E19CE00E94110F61E085E8DA
:1015E0009CE00E947D222091F8073091F9074091FC
:1015F000FA075091FB0761E285E89CE00E942521F3
:101600002091F4073091F5074091F6075091F707C4
:1016100063E285E89CE00E9425212091F00730914B
:10162000F1074091F2075091F3076FE085E89CE0E5
:101630000E94252185E89CE00E945F1C68817981D9
:1016400081E19CE00E94110F61E085E89CE00E942E
:101650007D224091EF0750E066E285E89CE00E9421
:1016600035212091EB073091EC074091ED07509127
:10167000EE076AE685E89CE00E94252185E89CE06B
:101680000E945F1C6881798181E19CE00E94110FBA
:1016900061E085E89CE00E947D222091E70730917F
:1016A000E8074091E9075091EA076CE285E89CE081
:1016B0000E9425214091E60750E06DE285E89CE01C
:1016C0000E94352185E89CE00E945F1C6881798139
:1016D00081E19CE00E94110F61E085E89CE00E949E
:1016E0007D222091E2073091E3074091E407509179
:1016F000E50760E685E89CE00E9425212091DE0751
:101700003091DF074091E0075091E10761E685E8FD
:101710009CE00E9425212091DA073091DB0740915F
:10172000DC075091DD0762E685E89CE00E942521F8
:1017300085E89CE00E945F1C6881798181E19CE0E2
:101740000E94110F89818F9388818F938EEA92E096
:101750009F938F938EEF97E09F938F930E94727D5C
:101760006EEF77E081E19CE00E94460F0F900F90B2
:101770000F900F900F900F9081E19CE0DF91CF913F
:101780001F910F910C94050FEF920F93CF93DF935E
:1017900080E1E82E02E024E041E06FEB72E080E2BD
:1017A0009CE00E945C1180E29CE00E9456118091B6
:1017B0009A1290919B1284FF51C086E19FE00E9493
:1017C000413D81EB9FE00E9465446BEC72E081E15A
:1017D0009CE00E94460F809193128093FC07109228
:1017E000FD071F928F9384EE92E09F938F938EEF6D
:1017F00097E09F938F930E94727D6EEF77E081E177
:101800009CE00E94460F0F900F900F900F900F904A
:101810000F90C0E0D0E00AC080E29CE00E94DC169D
:101820008091931281508093931221968091FC07AE
:101830009091FD07C817D9077CF380919A12909177
:101840009B128F7E90939B1280939A1281EB9FE064
:101850000E94854486E19FE00E94943680919A120E
:1018600090919B1281FF34C081E19CE00E94F90EAF
:1018700061E073E081E19CE00E94460F86E19FE019
:101880000E941D3C86EB9FE00E94564680912E0FE1
:101890006AE00E94EC79911108C06AE173E081E18D
:1018A0009CE00E94460F0E94B80980919A12909184
:1018B0009B128D7F90939B1280939A1281E19CE002
:1018C0000E94050F0E945B2989EA9FE00E94CA419D
:1018D00081E19CE0DF91CF910F91EF900C94050F87
:1018E0005F926F927F928F929F92AF92BF92CF92B0
:1018F000DF92EF92FF920F931F93CF93DF93CDB7B9
:10190000DEB7C957D1090FB6F894DEBF0FBECDBF01
:101910006C017B01EA961FAEEA973C010E94B1621E
:10192000F601E552FE4F82E080838E010F5F1F4F6C
:1019300098E7D8011D929A95E9F79EE7998391E07F
:101940009D83F601ED54FC4F11821082F601E7529F
:10195000FE4F8083F701908588E3A82EBB24B394C3
:10196000AE0CBF1CD5018C919230E0F5825F8B8369
:1019700080E18C83913019F48FEF8C8710C0F701D0
:1019800084818E8385818F838681888787818987FB
:1019900080818A8781818B8782818C8783818D87F3
:1019A0008FEF8E878EEF8F8721E1AE014F5F5F4F04
:1019B000B701C3010E94BC5FF701E85CFE4F0081E4
:1019C00011810F5E1F4FBE016F5F7F4FC3010E94E9
:1019D0009C62E1E0F0E0EC0FFD1FE00FF11F80835F
:1019E00012E146C08C5E8B8381E18C83F701848198
:1019F0008E8385818F83868188878781898780818F
:101A00008A8781818B8782818C8783818D878FEF05
:101A10008E878EEF8F87E65CFE4F8081888BF70183
:101A2000E55CFE4F8081898BF701E45CFE4F80818D
:101A30008B8BF701E25CFE4F80818C8BF701E15CC0
:101A4000FE4F80818D8B27E1A801B701C6010E945E
:101A5000BC5FD501AD90BC90B7E1AB0EB11CB80135
:101A6000C6010E949C62F801EA0DFB1D808318E10B
:101A7000012F9E0127583F4FAE014F5F5F4FB701C7
:101A8000C3010E94D75FF601E258FC4F808181308C
:101A900021F486EB9FE00E948046512C5701E8EC30
:101AA000AE1AEEEFBE0A012F10E04601F2E88F1ADF
:101AB000FCEF9F0A0CC0E1E0F0E0EC0FFD1FE80F27
:101AC000F91FD4016C9180810E94492C5394852D7B
:101AD00090E0EA964FADEA97F50120813181240F1D
:101AE000311D200F311F8217930728F3C3010E9475
:101AF000356BF601E552FE4F8083F601EA52FC4F4A
:101B00009081F701EE5AFE4F9083F601E952FC4FA7
:101B10009081F701ED5AFE4F9083F601E852FC4F99
:101B20009081F701EC5AFE4F9083F601E752FC4F8B
:101B30009081F701EB5AFE4F9083F601E652FC4F7D
:101B40009081F701EA5AFE4F9083C758DF4F0FB6D6
:101B5000F894DEBF0FBECDBFDF91CF911F910F91E3
:101B6000FF90EF90DF90CF90BF90AF909F908F90BD
:101B70007F906F905F900895CF93DF93EC01FC010D
:101B8000E358FC4F83E08083FE01E258FC4F608302
:101B9000611104C086EB9FE00E94B046FE01E1584F
:101BA000FC4F11821082FE01ED54FC4F1182108215
:101BB000FE01EB54FC4F1082FE01E95AFF4F1082E8
:101BC000FE01E25CFE4F1082FE01E45CFE4F1082DB
:101BD000FE01E35CFE4F82E88083FE01E959FE4F7F
:101BE0001082FE01E759FE4F80E28083FE01EF5D27
:101BF000FE4F1082FE01EE5DFE4F87E08083FE0106
:101C0000ED5DFE4F90ED9083FE01EC5DFE4F108286
:101C1000FE01EB5DFE4F1082FE01EA5DFE4F98EC87
:101C20009083FE01EE58FE4F1082FE01E859FE4FF0
:101C300094E09083FE01E951FC4F8083FE01E8515E
:101C4000FC4F83E08083FE01E751FC4F81E08083FD
:101C5000FE01E552FC4F1082FE01E852FE4F82E089
:101C60008083FE01E752FE4F8083FE01E652FE4F65
:101C70008083FE01E552FE4F8083CE010E94DF6328
:101C8000CE01DF91CF910C94B1621092280810928E
:101C90002A08109242081092440889E18093040CAB
:101CA0001092070C83E08093A20B8FE293E0909355
:101CB00027088093260884E1EEE4F9E0DF011D9215
:101CC0008A95E9F781E1ECE7F9E0DF011D928A9559
:101CD000E9F708950F931F93CF93DF93CDB7DEB746
:101CE000E2970FB6F894DEBF0FBECDBF162F072FB9
:101CF0008AE59DE00E942A338130D9F1612F702F4F
:101D00008AE59DE00E940336882399F00F931F9384
:101D100083E393E09F938F938E010F5F1F4F1F9379
:101D20000F930E94727DB80181EB9FE00E94714584
:101D30001AC00F931F938EE393E09F938F938E01AE
:101D40000F5F1F4F1F930F930E94727DB80181EBAD
:101D50009FE00E94EC456091F10E7091F20E81EBD4
:101D60009FE00E9455450F900F900F900F900F909D
:101D70000F90E2960FB6F894DEBF0FBECDBFDF9195
:101D8000CF911F910F910895CF93DF93EC0181EBD9
:101D90009FE00E9465448AE59DE00E940E328AE53C
:101DA0009DE00E94AD31811106C06EE471E081EBCF
:101DB0009FE00E9494456F817885CE010E946A0E53
:101DC00069857A85CE010E946A0E6B857C85CE017D
:101DD0000E946A0E6D857E85CE010E946A0E81EB9F
:101DE0009FE00E9485448AE59DE0DF91CF910C94AD
:101DF000683181EB9FE00E94654486E19FE00E948C
:101E0000413D8AE59DE00C940E3281EB9FE00E94FB
:101E1000854486E19FE00E9494368AE59DE00C941B
:101E20006831CF93DF93EB018AE59DE00E940E328B
:101E3000BE018AE59DE00E942A338823E9F02091C3
:101E4000320D3091330D4BE95CE0BE018AE59DE037
:101E50000E949935882341F06CE671E081EB9FE0A8
:101E60000E94944581E00FC063E871E081EB9FE040
:101E70000E94944582E007C061E971E081EB9FE038
:101E80000E94944583E0DF91CF9108950F931F93B3
:101E9000CF93DF93EC018B011E8261E085E89CE02B
:101EA0000E947D2260E085E89CE00E94591C86E14A
:101EB0009FE00E945339AC016BE785E89CE00E94EB
:101EC000FE1E4FE553E061E485E89CE00E94FE1EA3
:101ED000A80161E485E89CE00E94FE1E85E89CE084
:101EE0000E945F1C6F817885CE010E94110F8130A6
:101EF00009F48E838E81DF91CF911F910F91089508
:101F0000CF93DF93EC01623785E67807A1F0653661
:101F10007347A1F463E673E0CE010E94460F83E8A5
:101F200093E09983888382E18A8384E38B838FE0C3
:101F30008C831D8208C064E973E002C064EB73E027
:101F4000CE010E94460F86E298E00E9483706C8169
:101F500086E298E00E9445728091FF09811103C0DA
:101F60006DEC73E002C06CED73E0CE010E94460F91
:101F7000BE016E5F7F4F86E298E00E94957280916D
:101F8000FF09811103C069EF73E002C067E074E0EC
:101F9000CE010E94460F6D8186E298E00E947C711E
:101FA0008091FF09811103C060E274E002C062E425
:101FB00074E0CE010E94460F66E674E086E298E087
:101FC0000E94BE718091FF09811103C06BE674E02D
:101FD00002C065E874E0CE010E94460F86E298E0F8
:101FE0000E9413728091FF09811103C062EA74E0BC
:101FF00002C064EB74E0CE01DF91CF910C94460FE8
:10200000E1E1FCE08FE0DF011D928A95E9F78CE5C4
:1020100096E09093190C8093180C88E696E09093C4
:102020001B0C80931A0C84E796E090931D0C809310
:102030001C0C81E896E090931F0C80931E0C089571
:1020400081E08093CC1140E060E089EA9FE00E944B
:10205000B83F40E061E089EA9FE00E94B83F80918C
:10206000290F811106C041E061E086E19FE00E94F6
:10207000683661E087E00E940D2681E00895CF93E5
:10208000DF93D82FC92F61E085E00E94F42561E03D
:1020900084E00E94F42561E086E00E94F42561E07E
:1020A00087E00E94F42560E089E00E94F42561E069
:1020B0008AE00E94F42560E088E00E94F42561E057
:1020C00082E00E94F42561E08EE00E94F42560E049
:1020D0008FE00E94F42560E081E10E94F42560E039
:1020E00083E10E94F42560E085E00E940D2660E017
:1020F00084E00E940D2660E086E00E940D2660E0EC
:1021000087E00E940D2660E08AE00E940D2660E0D4
:1021100082E00E940D2660E08EE00E940D2641E0E4
:1021200060E089EA9FE00E94B83F41E061E089EA0F
:102130009FE00E94B83FED2FFC2F80E6DF011D924B
:102140008A95E9F780918B1290918C12A0918D1253
:10215000B0918E12806280938B1290938C12A09318
:102160008D12B0938E12DF91CF9108950C942010B0
:1021700061114AC04038510509F43FC0C0F44430F1
:102180005105A9F148F44130510599F190F14230DF
:10219000510509F083C02BC04032510561F1403434
:1021A000510549F14830510509F078C020C041156A
:1021B00088E0580701F168F4411582E05807E9F01A
:1021C000411584E05807B9F04115514009F066C047
:1021D00014C0411580E2580771F0411580E458079A
:1021E00061F04115504109F059C061E047C061E01C
:1021F00048C061E049C061E04AC061E087E00E94F8
:102200000D2661E08AE044C0613009F045C04038E5
:102210005105E1F1B0F44430510591F140F4413001
:10222000510589F180F142305105C1F529C0403294
:10223000510561F14034510549F14830510571F5BE
:102240001FC0411588E0580709F160F4411582E08C
:102250005807E1F0411584E05807C1F0411551409D
:10226000E9F414C0411580E2580781F0411580E47B
:10227000580761F04115504189F460E084E008C0DE
:1022800060E082E005C060E08EE002C060E087E0D0
:102290000E940D2681E0089580E008958FEF089553
:1022A00060E170E080E090E00C94602960E170E013
:1022B00080E090E00C94FD29CF92DF92EF920F9393
:1022C0001F93CF93DF9300D0CDB7DEB76B0186EBC2
:1022D0009FE02A8349830E94984664E670E080E08C
:1022E00090E00E94C02461E08DE20E94F42560E04D
:1022F0008DE20E940D2686E19FE00E94413D2A81E9
:102300004981B60186E19FE00E94D53E86E19FE0CB
:102310000E94943660E084E00E940D2660E082E036
:102320000E940D2660E087E00E940D2660E08AE0B2
:102330000E940D2660E086E00E940D2660E08EE09F
:102340000E940D26602F89EA9FE00E94CB40E4FEA8
:1023500014C060E170E080E090E00E9460290DC050
:1023600061E070E080E090E00E94C02489EA9FE094
:102370000E94CA41115011F449C01BE08BE20E9437
:102380005326019769F383B7817F846083BF83B746
:10239000816083BF83B7816083BF889583B78E7F59
:1023A00083BF83B78E7F83BF602F89EA9FE00E943F
:1023B0001B4080919A1290919B1284FD10C086E17F
:1023C0009FE00E94413D86E19FE00E94113B86E133
:1023D0009FE00E942B3D86E19FE00E94943600FF23
:1023E00015C041E060E089EA9FE00E94B83F41E00B
:1023F00061E089EA9FE00F900F90DF91CF911F91EC
:102400000F91EF90DF90CF900C94B83F0F900F900A
:10241000DF91CF911F910F91EF90DF90CF900895B2
:102420002F923F924F925F926F927F928F929F92E4
:10243000AF92BF92CF92DF92EF92FF920F931F93D2
:10244000CF93DF93CDB7DEB728970FB6F894DEBFF2
:102450000FBECDBF9A8389830E946E244B015C011D
:102460000E946E242B013C0180E4C82E82E4D82E09
:102470008FE0E82EF12C212C312C18861F8236C0DB
:1024800088E00E9453268C018F819885019709F579
:1024900001151105F1F49FEF291A390A0E946E24E3
:1024A0009B01AC0124193509460957092B833C834C
:1024B0004D835E830E946E242B013C012B813C8165
:1024C0004D815E812C153D054E055F0510F46901B7
:1024D0007A010E946E24681579058A059B0520F40F
:1024E0000E946E244B015C0118870F830E946E24AA
:1024F000681979098A099B09693B7B408105910527
:1025000008F4BECF64E670E080E090E00E94C02452
:1025100009811A810F591F4FC701B6010E944077E8
:1025200020E030E04AE754E40E94AC769B01AC0125
:102530006AE979E989E190E40E94AC76F801608368
:10254000718382839383B101882777FD8095982FCB
:102550000E9442772AE939E949E150E40E94227851
:1025600020E030E040E450E40E94AC7628960FB6BC
:10257000F894DEBF0FBECDBFDF91CF911F910F91B9
:10258000FF90EF90DF90CF90BF90AF909F908F9093
:102590007F906F905F904F903F902F9008950F9392
:1025A0001F93CF93DF9300D0CDB7DEB719821A8285
:1025B0008091CB11811104C085EC91E10E94DC5B1C
:1025C00066E970E080E090E00E94C02442E050E0C4
:1025D00064E170E085EC91E10E94715D8E010F5F16
:1025E0001F4F07C085EC91E10E94115CF8018193B7
:1025F0008F0185EC91E10E940B5C8111F3CF8091FA
:10260000CB11882391F08091550D81110EC08091DE
:10261000290F813051F089EA9FE00E94BF4041E0DC
:1026200060E086E19FE00E9468368A812981422F1E
:1026300050E060E070E02227342F452F562F280FFE
:10264000311D411D511DA9E0B0E00E94D9796950AA
:102650007048844091090E94427720E03FEF4FE7A5
:1026600057E40E94AC760F900F90DF91CF911F91AD
:102670000F910895BF92CF92DF92EF92FF920F9346
:102680001F93CF93DF93C62F60E08FE00E94F42565
:1026900060E081E10E94F42560E083E10E94F4257E
:1026A00060E08AE00E940D26C43051F0C83029F065
:1026B000C23081F54FE0B42E05C031E1B32E02C027
:1026C00023E1B22E0E946E246B017C01C0E0D0E0B9
:1026D00000E010E001C08C018B2D0E9453260130D8
:1026E000110519F4009709F42196C03D27E0D2079F
:1026F00094F30E946E246C197D098E099F090E9433
:1027000040779B01AC0160E074E284EF99E40E94A1
:10271000AC7604C060E070E080E89FEBDF91CF9181
:102720001F910F91FF90EF90DF90CF90BF90089591
:102730008F929F92AF92BF92CF92DF92EF92FF92D1
:10274000CF93DF9341155105F9F04130510509F060
:1027500047C0882777FD8095982F0E9442776B01AC
:102760007C012DEB32E546E15DE30E94227825EC09
:102770003EEF42E050E40E9443764B015C0126EFBD
:1027800034E246ED55EB1AC0882777FD8095982FE7
:102790000E9442776B017C012DEB32E546E15FE35D
:1027A0000E94227825EC3EEF42E050E40E944376FE
:1027B0004B015C012BE335E246ED59EBC701B60155
:1027C0000E942278A70196010E9422789B01AC0109
:1027D000C501B4010E9444767B01D82FC92F04C0E3
:1027E000E12CF12CD0E0C0E020E030E046EC52E4F7
:1027F000FE016E2D7F2D8F2F9C2F0E9417781816AB
:1028000024F4E12CF12CD8ECC2E49E016E2D7F2D36
:10281000832F9C2FDF91CF91FF90EF90DF90CF908F
:10282000BF90AF909F908F9008958F929F92AF929C
:10283000BF92CF92DF92EF92FF921F93CF93DF93DD
:10284000EC01162F662319F0613021F402C013E069
:1028500001C015E061E086E00E94F42561E085E0BA
:102860000E94F42561E086E00E940D2661E085E08B
:102870000E940D2681E090E00E94EA2460E086E05C
:102880000E940D2660E085E00E940D2681E090E028
:102890000E94EA2461E085E00E940D2661E086E066
:1028A0000E940D2681E090E00E94EA2460E085E02D
:1028B0000E940D26212F41E065E086E00E94872AD4
:1028C00061E085E00E940D2660E086E00E94F4252C
:1028D0000E946E246B017C0186E00E9453265C01FD
:1028E00004C00E946E246B017C01AA94AB2809F0FD
:1028F000B6C00E946E246C197D098E099F096A304A
:1029000071058105910508F4B7C0A9C00E946E2425
:102910006B017C01AB2809F0C9C00E946E246C19C0
:102920007D098E099F096A3071058105910508F4BA
:10293000B0C0BCC0AA94AB2809F0C6C00E946E24E7
:102940006C197D098E099F096039714081059105D7
:1029500008F4B5C0B9C061E085E00E940D26EE0C18
:10296000FF1C86E00E945326E80EF91E60E085E019
:102970000E940D2681E0C81AD10869F786E00E94FE
:1029800053266C010E946E244B015C01CD2809F096
:10299000A3C00E946E24681979098A099B096A30CC
:1029A00071058105910508F4B9C096C061E085E024
:1029B0000E940D26EE0CFF1C86E00E945326E80EB6
:1029C000F91E60E085E00E940D2621E0C21AD108C0
:1029D00069F761E086E00E94F42561E086E00E94EC
:1029E0000D2661E085E00E940D2680E991E00E94BD
:1029F000EA2460E085E00E940D2660E086E00E9407
:102A00000D261330A1F4B701882777FD8095982F04
:102A10000E9442772AE037ED43E25CE30E9422788D
:102A20002DEC3CEC4EE152E40E94437684C015301C
:102A300089F441E050E0B701CE01DF91CF911F91C1
:102A4000FF90EF90DF90CF90BF90AF909F908F90CE
:102A50000C94981360E070E080E090E06CC060E05F
:102A600085E00E940D260E946E246B017C0186E0A9
:102A70000E9453265C014ECF86E00E9453265C01E3
:102A80000E946E246C157D058E059F0508F02DCFE4
:102A900028CF86E00E9453265C010E946E246C15AC
:102AA0007D058E059F0508F035CF30CF86E00E946A
:102AB00053265C010E946E246B017C013BCF86E0B3
:102AC0000E9453265C0136CF0E946E2468E0C62E19
:102AD000D12CE12CF12C3FCF61E086E00E94F4255F
:102AE00060E086E00E940D2681E090E00E94EA24EA
:102AF00061E085E00E940D2680E991E00E94EA24D1
:102B000060E085E00E940D2660E086E00E94F425EA
:102B10000E946E2458E0C52ED12C48CF86E00E943A
:102B200053266C010E946E24681579058A059B0561
:102B300008F02CCF27CFDF91CF911F91FF90EF901E
:102B4000DF90CF90BF90AF909F908F9008952F927D
:102B50003F924F925F926F927F928F929F92AF922D
:102B6000BF92CF92DF92EF92FF920F931F93CF937A
:102B7000DF93CDB7DEB727970FB6F894DEBF0FBE51
:102B8000CDBF4C018A01A62EB12C86E19FE00E94A8
:102B9000413D86E19FE00E945339E090300FC090A4
:102BA0002B0F20902D0F312C201A310A8101000F9C
:102BB000111F000F111F080D191D612C712C512CB4
:102BC000412CD12CF12C2A183B0827C081E0A81AEF
:102BD000B10820F4F7E16F2E712C6EC0F801E60DFC
:102BE000F71D81818E1116C080818C1113C0628106
:102BF000738180E090E00E9440779B01AC01D2019C
:102C00006B2F742D8D2D9F2D0E944476562E472EAE
:102C1000D82EF92E84E0681A7108C1018A0D9B1D17
:102C200097FFD4CFD7CF81E0A81AB108B7FC4BC02B
:102C3000C12CE12C00E02091300F40912B0F6091CE
:102C40002A0F86E19FE00E942F3BAB01BC01405858
:102C50005145614071099E012F5F3F4F86E19FE022
:102C60000E943C3CF401E35AFF4F90818D81981300
:102C70001DC0F401E45AFF4F90818E81981316C055
:102C8000F401E25AFF4F6081718180E090E00E9480
:102C900040779B01AC01D2016B2F742D8D2D9F2DA0
:102CA0000E944476562E472ED82EF92E81E0681ABF
:102CB000710884E0881A910880912D0F90E06816C1
:102CC00079060CF0B0CF24E83DE04FE85EE3D20196
:102CD0006B2F742D8D2D9F2D0E94227827960FB675
:102CE000F894DEBF0FBECDBFDF91CF911F910F9142
:102CF000FF90EF90DF90CF90BF90AF909F908F901C
:102D00007F906F905F904F903F902F90089541E09B
:102D100050E068E10C94A71540E050E061E00C94AD
:102D2000A71541E050E061E00C94A715AF92BF9267
:102D3000CF92DF92EF92FF920F931F93CF93DF9387
:102D40000E946E246B017C01C0E0D0E000E010E046
:102D500016C089E00E9453265C010130110519F468
:102D6000009709F421960E946E246C157D058E054E
:102D70009F0520F40E946E246B017C0185010E9456
:102D80006E246C197D098E099F09693B7B40810582
:102D90009105F8F264E670E080E090E00E94C024C3
:102DA000CE01DF91CF911F910F91FF90EF90DF90B7
:102DB000CF90BF90AF900895CF93DF93EC0186E161
:102DC0009FE00E94413D86E19FE00E94533980913F
:102DD0002D0F2091300F34E0839FC0011124FE019C
:102DE000E80FF91F318132130FC0408130912B0F52
:102DF00043130AC0828193818F3F2FEF920769F1BD
:102E000001969383828329C0FE01E80FF91F218375
:102E100080912B0F90912D0FFE0134E0939FE00DD8
:102E2000F11D1124808380912D0FFE0194E0899F74
:102E3000E00DF11D11241382128280912D0F24E0E8
:102E4000829FC00DD11D11248A819B818F3F3FEF4E
:102E5000930719F001969B838A83DF91CF910895A0
:102E6000BF92CF92DF92EF92FF920F931F93CF9377
:102E7000DF93DB01C42F2C91422F50E026FBEE277D
:102E8000E0F9F0E011966C91119712960C91029571
:102E900006950695037070E080E090E0B2E0660F62
:102EA000771F881F991FBA95D1F7600F711D811D7B
:102EB000911D022F0F7310E020E030E0DAE0000FE8
:102EC000111F221F331FDA95D1F7600F711F821F68
:102ED000931F440F452F441F550B4130510519F4E2
:102EE0003197C9F006C0EF2BD9F06F5F7F4F810992
:102EF00091090E94427720E030E040EC5FE30E94BD
:102F0000227820E03FEF4FE757E40E94AC76B62EE0
:102F1000D72F8C0109C0B12CD0E000E010E404C030
:102F2000B12CD0E000E010ECC13009F053C020E03B
:102F300030E44BE754E46B2D7D2F802F912F0E94BE
:102F4000227820E030E44BEF54E40E9422782AE615
:102F50003FE64BE45AE40E9444766B017C0120E09A
:102F600030E44BEF54E46B2D7D2F802F912F0E9486
:102F700022789B01AC0160E078E48FE495E40E9444
:102F800043769B01AC01C701B6010E94AC7628E4F0
:102F900031E64AE754E40E9443762EEA3FEF48EADE
:102FA00054E40E94AC7628EB3EEC4AEB54E40E94D9
:102FB00022782FE832E049E754E40E94447620E08A
:102FC00030E04AE754E40E94437626E931E24AE7DA
:102FD00050E410C0C11111C020E030EE4BE256E4C5
:102FE0006B2D7D2F802F912F0E94227820E030E0E2
:102FF0004AE754E40E94AC7604C060E070E080E0F0
:1030000090E0DF91CF911F910F91FF90EF90DF90B3
:10301000CF90BF900895EF92FF920F931F93CF939D
:10302000DF9300D01F92CDB7DEB77C0119821A82E0
:103030001B828091CB11811104C085EC91E10E942B
:10304000DC5B6CE271E080E090E00E94C02466E10D
:1030500070E085EC91E10E94095C60EA85EC91E109
:103060000E94095D65E570E085EC91E10E94355DA7
:1030700085EC91E10E94375D6CE271E080E090E0C8
:103080000E94C02443E050E066E170E085EC91E1ED
:103090000E94715D8E010F5F1F4F07C085EC91E1AB
:1030A0000E94115CF80181938F0185EC91E10E94EF
:1030B0000B5C8111F3CF8091CB11882391F080912B
:1030C000550D81110EC08091290F813051F089EA90
:1030D0009FE00E94BF4041E060E086E19FE00E94E7
:1030E000683641E0BE016F5F7F4FC7010E94301715
:1030F0000F900F900F90DF91CF911F910F91FF9044
:10310000EF900895EF92FF920F931F93CF93DF9369
:1031100000D01F92CDB7DEB77C0119821A821B82C4
:103120008091CB11811104C085EC91E10E94DC5BA0
:103130006CE271E080E090E00E94C02466E170E003
:1031400085EC91E10E94095C61EA85EC91E10E94C5
:10315000095D65E570E085EC91E10E94355D85ECE7
:1031600091E10E94375D6CE271E080E090E00E94A6
:10317000C02443E050E066E170E085EC91E10E94FC
:10318000715D8E010F5F1F4F07C085EC91E10E94BA
:10319000115CF80181938F0185EC91E10E940B5C39
:1031A0008111F3CF8091CB11882391F08091550D3F
:1031B00081110EC08091290F813051F089EA9FE082
:1031C0000E94BF4041E060E086E19FE00E946836D7
:1031D00040E0BE016F5F7F4FC7010E9430170F9024
:1031E0000F900F90DF91CF911F910F91FF90EF9073
:1031F0000895882777FD8095982F0E94427720E0D8
:1032000030E44EE455E40E94227820E030EC4FE7B1
:1032100054E40E94AC762AE939E949E15FE30E946F
:10322000AC7620E030E04AE754E40E94AC7624EF2C
:103230003DEF44E55EE30E94447622E630E148EF4C
:103240005EE30E94447623EA31E04CE35DE30E94B2
:10325000AC760895CF92DF92EF92FF92882777FDA8
:103260008095982F0E9442776B017C0120E030E02E
:103270004BE953E40E94177818168CF427E53EE9D1
:103280004FE05EE3C701B6010E9422789B01AC01CA
:103290006FE67AE78FE093E40E94437604C060E033
:1032A00070E088EC92E4FF90EF90DF90CF9008956B
:1032B000CF92DF92EF92FF92CF93DF93EC016A01FE
:1032C0007B0120E030E040E85EE3C701B6010E94E8
:1032D000A87687FF04C0C05ADF4F8FE05DC120E0B1
:1032E00030E040E85EE3C701B6010E94177887FD31
:1032F0000EC029E23CE54FE85EE3C701B6010E943B
:10330000A87687FF04C0C05ADF4F81E045C129E29B
:103310003CE54FE85EE3C701B6010E94177887FDE0
:103320000EC023E333E343EB5EE3C701B6010E9423
:10333000A87687FF04C0C05ADF4F18822EC123E34E
:1033400033E343EB5EE3C701B6010E94177887FDC4
:103350000EC020E030E040E05FE3C701B6010E940C
:10336000A87687FF04C0C05ADF4F8DE015C120E06A
:1033700030E040E05FE3C701B6010E94177887FDA7
:103380000EC026E636E646E25FE3C701B6010E94BC
:10339000A87687FF04C0C05ADF4F8EE0FDC026E646
:1033A00036E646E25FE3C701B6010E94177887FD63
:1033B0000EC02AE939E949E55FE3C701B6010E9479
:1033C000A87687FF04C0C05ADF4F8BE0E5C02AE92A
:1033D00039E949E55FE3C701B6010E94177887FD27
:1033E0000EC02DEC3CEC4CE85FE3C701B6010E9437
:1033F000A87687FF04C0C05ADF4F8CE0CDC02DEC0B
:103400003CEC4CE85FE3C701B6010E94177887FDEA
:103410000EC027ED33EA40EB5FE3C701B6010E941F
:10342000A87687FF04C0C05ADF4F83E0B5C027ED00
:1034300033EA40EB5FE3C701B6010E94177887FDCE
:103440000EC02DEC3CEC4CEC5FE3C701B6010E94D2
:10345000A87687FF04C0C05ADF4F82E09DC02DECE4
:103460003CEC4CEC5FE3C701B6010E94177887FD86
:103470000EC028E431EE4AEF5FE3C701B6010E94B7
:10348000A87687FF04C0C05ADF4F89E085C028E4D2
:1034900031EE4AEF5FE3C701B6010E94177887FD5E
:1034A0000EC02AE939E949E050E4C701B6010E949B
:1034B000A87687FF04C0C05ADF4F8AE06DC02AE9B2
:1034C00039E949E050E4C701B6010E94177887FD49
:1034D0000EC026E636E646E150E4C701B6010E947A
:1034E000A87687FF04C0C05ADF4F85E055C026E6A6
:1034F00036E646E150E4C701B6010E94177887FD21
:103500000EC026E636E646E250E4C701B6010E9448
:10351000A87687FF04C0C05ADF4F84E03DC026E68E
:1035200036E646E250E4C701B6010E94177887FDEF
:103530000EC020E030E040E350E4C701B6010E9435
:10354000A87687FF04C0C05ADF4F87E025C020E07F
:1035500030E040E350E4C701B6010E94177887FDD0
:103560000EC02DEC3CEC4CE350E4C701B6010E94C8
:10357000A87687FF04C0C05ADF4F86E00DC02DEC4F
:103580003CEC4CE350E4C701B6010E94177887FD7C
:1035900004C0C05ADF4F88E08883DF91CF91FF904D
:1035A000EF90DF90CF900895882777FD8095982F32
:1035B0000E94427720E030E44EE455E40E942278F5
:1035C00020E030EC4FE754E40E94AC762AE939E978
:1035D00049E15FE30E94AC7620E030E048E454E447
:1035E0000E94437620E030E048EF51E40E94AC7640
:1035F0000895882777FD8095982F0E94427720E0D4
:1036000030E44EE455E40E94227820E030EC4FE7AD
:1036100054E40E94AC7620E030E04AEF53E40E948C
:10362000437620E030E040E251E40E94AC76089519
:1036300040E061E186EB9FE00C94E447EF92FF925B
:103640000F931F93CF93DF93EC016034710509F45E
:103650009EC0E8F46430710509F455C058F4613037
:10366000710509F465C008F46BC06230710509F09A
:103670000AC143C06031710509F4D1C060327105DF
:1036800009F47DC06830710509F0FDC042C06115C4
:1036900084E0780709F4AAC078F4611581E078071E
:1036A00009F48AC0611582E0780709F492C0603895
:1036B000710509F0E8C073C0611580E1780781F0F9
:1036C00028F46115784009F0DEC099C0611580E2E8
:1036D000780709F4B8C06115704409F0D4C0CAC0B5
:1036E00083E00E94C925BC01CE01DF91CF911F91DB
:1036F0000F91FF90EF900C94F91860E08AE00E941F
:103700000D2662E00BC060E08AE00E940D2664E0B6
:1037100005C060E08AE00E940D2668E0CE010E94AC
:103720003A137B018C0161E08AE00E940D26AFC054
:10373000DF91CF911F910F91FF90EF900C94101299
:1037400085E00E94C925BC0180E090E00E9440779E
:1037500023E333E343E550E40E94227820E030EC99
:103760004FE754E40E94AC767B018C01982F4E2DDC
:103770005F2D692F712FCE010E94581988C0DF91EB
:10378000CF911F910F91FF90EF900C948218DF91D1
:10379000CF911F910F91FF90EF900C940B1886E042
:1037A0000E94C925BC01CE01DF91CF911F910F91DD
:1037B000FF90EF900C942A1984E00E94C925BC0167
:1037C000CE01DF91CF911F910F91FF90EF900C945C
:1037D000F91A82E00E94C925BC01CE01DF91CF9188
:1037E0001F910F91FF90EF900C94D41ACE01DF91AE
:1037F000CF911F910F91FF90EF900C94CF12411138
:1038000002C060E003C04130F1F561E0CE01DF911C
:10381000CF911F910F91FF90EF900C9415140E947F
:103820009616BC0180E090E00E94407724E83DE0DD
:103830004FE85EE30E94227820E030E040EA51E465
:103840000E94227814C087E00E94C925BC0180E054
:1038500090E00E94407723E333E343E550E40E9485
:10386000227820E030EC4FE754E40E94AC767B01F4
:103870008C010DC0CE01DF91CF911F910F91FF9070
:10388000EF900C94181BE12CF12C00E010E06E2D51
:103890007F2D802F912FDF91CF911F910F91FF905E
:1038A000EF90089540E00C941E1B80E29CE00C9485
:1038B0003F106F73FC01218D262B218F0895EF920D
:1038C000FF920F931F93CF93DF93EC0181EB9FE067
:1038D0000E9499440FE110E060E08DE30E94492CC2
:1038E00001501109C9F760E08DE00E94492C60E0A9
:1038F0008AE00E94492C8A81813021F460E08EE8C0
:1039000096E00CC0811104C060E08CE996E006C02E
:10391000823009F09AC060E08BEA96E00E94562C53
:1039200060E08DEB96E00E94562C60E087EC96E01C
:103930000E94562C7E018DEAE80EF11CF701608191
:10394000718180E090E000E02AE030E040E050E06B
:103950000E94662C60E08DE00E94492C60E08AE0C5
:103960000E94492C60E080ED96E00E94562C698D03
:1039700070E080E090E02AE030E040E050E00E941B
:10398000662C60E08DE00E94492C60E08AE00E9495
:10399000492C60E08EED96E00E94562C00E010E08D
:1039A00009C0FE01E00FF11F60E086890E94F12C42
:1039B0000F5F1F4FF701808191810817190788F366
:1039C00060E08DE00E94492C60E08AE00E94492C72
:1039D00060E08CEE96E00E94562CE12CF12C8E01DA
:1039E00003551F4F0AC0FE01EE0DFF1D60E08689E2
:1039F0000E94492CFFEFEF1AFF0AF80180819181A4
:103A0000E816F90680F360E08DE00E94492C60E042
:103A10008AE00E94492CCFE1D0E060E08DE30E9473
:103A2000492C2197D1F760E08DE00E94492C60E09D
:103A30008AE00E94492C81EB9FE0DF91CF911F919A
:103A40000F91FF90EF900C94C744DF91CF911F919D
:103A50000F91FF90EF900895CF93DF93C42F70E004
:103A6000FB01EE5FFC4F85919491D82F8130A9F432
:103A70004230B0F16AE574E081EB9FE00E94F044CF
:103A80002AE030E041E050E060E070E081EB9FE050
:103A90000E94B2456DE774E014C0841709F162E832
:103AA00074E081EB9FE00E94F0444D2F50E060E015
:103AB00070E02AE030E081EB9FE00E94B24565EAC9
:103AC00074E081EB9FE00E94F0444C2F50E060E0F6
:103AD00070E02AE030E081EB9FE00E9418450DC0C5
:103AE000FB01E655FB4F85919491281741F066E55F
:103AF00075E081EB9FE00E9494458FEF01C081E06B
:103B0000DF91CF910895FC01E355FF4F2081318172
:103B1000620F731FDC0113968D919C911497861789
:103B2000970720F07183608381E0089580E0089515
:103B30002F923F924F925F926F927F928F929F92BD
:103B4000AF92BF92CF92DF92EF92FF920F931F93AB
:103B5000CF93DF93CDB7DEB7AA970FB6F894DEBF49
:103B60000FBECDBF7C01962E5A016901FC018281F6
:103B7000813009F0EFC0E62FF0E0EE0FFF1FE655B1
:103B8000FE4F85919491BC0166246394712C6C0E58
:103B90007D1EC3010E94B17C4E01FFE18F0E911C7E
:103BA0004AE050E0B401C5010E94147D5E0145E188
:103BB000A40EB11C4AE050E0B501C6010E94147D7C
:103BC0006E015BE0C50ED11C4AE050E0B601C801B1
:103BD0000E94147DF30101900020E9F7BF016150BC
:103BE000710966197709F40101900020E9F7CF0106
:103BF000019788199909D5010D900020E9F71197CF
:103C0000AA19BB09F60101900020E9F73197EC19D8
:103C1000FD09680F791F6C5F7F4F6A0F7B1F6E0F66
:103C20007F1FC7010E94831D811101C09AC0F70147
:103C3000E355FF4F40805180D3010D900020E9F7FC
:103C40001197A619B709F40101900020E9F7CF01F7
:103C5000019788199909F50101900020E9F79F0162
:103C6000215031092A193B09F60101900020E9F79A
:103C70003197EC19FD098201081B190B021B130B6C
:103C80000E1B1F0B1201221A330A2E1A3F0AA20121
:103C90004E1B5F0B5AA749A7E20FF31F92012A1B85
:103CA0003B0B281B390B2E1B3F0B2E5E3F4F2E0D5F
:103CB0003F1DAD01B301C9010E94C57CF701E00FB2
:103CC000F11F8AE3828BF40101900020E9F731971C
:103CD000E819F9090D5E1F4F0E0D1F1DAF01B4014C
:103CE000C8010E94C57CF701E20DF31D1BE3138B95
:103CF000F50101900020E9F73197EA19FB0954E139
:103D0000250E311C2E0C3F1CAF01B501C1010E94D4
:103D1000C57CE9A5FAA5EE0DFF1D148BF6010190F7
:103D20000020E9F73197EC19FD0929A53AA52B5E8A
:103D30003F4F2E0D3F1DAF01B601C9010E94C57C4A
:103D4000F701E40DF51D83E2858BF70181818F5F1B
:103D5000818336C023E041E0C7010E942C1D8F3FC4
:103D600011F48FEF32C067E070E0C7010E94831D3D
:103D70008823B9F3D701A355BF4F0D90BC91A02D57
:103D8000AE0DBF1D1F969C921F975096AC925097F8
:103D90005196BC9251975296CC9252975396DC9280
:103DA000539754960C93549755961C935597569643
:103DB0001C92F70181818F5F81838091320D855044
:103DC000828FF701E355FF4F8081AA960FB6F894D2
:103DD000DEBF0FBECDBFDF91CF911F910F91FF903E
:103DE000EF90DF90CF90BF90AF909F908F907F909B
:103DF0006F905F904F903F902F9008955F926F92D9
:103E00007F928F929F92AF92BF92CF92DF92EF926A
:103E1000FF920F931F93CF93DF93CDB7DEB72A970F
:103E20000FB6F894DEBF0FBECDBF8C01962E542E78
:103E3000852EADB6BEB6E42FF52FDF010D90002024
:103E4000E9F7AE1BBF0BA03981E0B80710F0A0E97D
:103E5000B1E06D0191E0C91AD108EDB7FEB7EA1BD8
:103E6000FB0B0FB6F894FEBF0FBEEDBFEDB6FEB66E
:103E70008FEFE81AF80A3701AD0160E070E0C70182
:103E80000E94CE7CA601652D782DC7010E94FB7C87
:103E90006701D7012FE505C08C91833209F42C937B
:103EA0001196F30101900020E9F73197E619F7091F
:103EB000CD018C199D098E179F0770F3D8011296BA
:103EC0008C91813009F075C0E92DF0E0EE0FFF1FF5
:103ED000E655FE4F85919491BC01EE24E394F12CBC
:103EE000EC0EFD1EC7010E94B17CF701019000207D
:103EF000E9F7BF01615071096E197F09D3010D9077
:103F00000020E9F71197A619B7096A0F7B1F6E5FAA
:103F10007F4FC8010E94831D811101C052C0F8016A
:103F2000E355FF4FC080D180F70101900020E9F7F1
:103F30003197EE19FF09D3010D900020E9F7119791
:103F4000A619B70946018A1A9B0A96012E1B3F0B38
:103F50002A1B3B0B2C5E3F4F200F311FAF01B701D7
:103F6000C9010E94C57CF801E80DF91D8AE3848B24
:103F7000F30101900020E9F73197E619F70985E18F
:103F8000880E911C800E911EAF01B301C4010E94E6
:103F9000C57CF801EC0DFD1D83E2858BD8011196DF
:103FA0008C9111978F5F11968C9311975A968C93E1
:103FB0004AC021E043E0692DC8010E942C1D8F3FBB
:103FC00011F48FEF44C0D3010D900020E9F77D017B
:103FD00081E0E81AF108E618F708B7016E5F7F4F35
:103FE000C8010E94831D882361F3F801E355FF4F48
:103FF00020813181F30101900020E9F73197E61922
:10400000F709C90102978E1B9F0BF801E80FF91FF2
:10401000968AE78A029608C0D6014D916D01F80193
:10402000E80FF91F468B019682179307A8F3F80152
:10403000E20FF31F168AF80181818F5F81838091DF
:10404000320D8550828FF801E355FF4F80810FB606
:10405000F894BEBE0FBEADBE2A960FB6F894DEBF72
:104060000FBECDBFDF91CF911F910F91FF90EF90C9
:10407000DF90CF90BF90AF909F908F907F906F9088
:104080005F9008957F928F929F92AF92BF92CF924E
:10409000DF92EF92FF920F931F93CF93DF93CDB7F1
:1040A000DEB76E970FB6F894DEBF0FBECDBF7C01B2
:1040B000B62E922E732EA42E852E402FFC018281C7
:1040C000813009F07AC0CC24C394D12CCC0EDD1EF3
:1040D0008601242F692D732F8A2D952F0E94F77A40
:1040E000EB2DF0E0EE0FFF1FE655FE4F859194910A
:1040F0008E010B5E1F4FBC01C8010E94B17CF8010C
:1041000001900020E9F7BF0161507109601B710B3C
:10411000F60101900020E9F73197EC19FD096E0FC7
:104120007F1F6E5F7F4FC7010E94831D811101C0F9
:104130004BC0F701E355FF4FA080B180F80101901B
:104140000020E9F73197E01BF10BD6010D9000201C
:10415000E9F71197AC19BD0945018A1A9B0A950127
:104160002E1B3F0B2A1B3B0B2C5E3F4F2E0D3F1D82
:10417000AF01B801C9010E94C57CF701E80DF91D26
:104180008AE3848BF60101900020E9F73197EC195E
:10419000FD0985E1880E911C8E0C9F1CAF01B601B4
:1041A000C4010E94C57CF701EA0DFB1D83E2858BEB
:1041B000F70181818F5F81832FC021E042E0C70139
:1041C0000E942C1D8F3F11F48FEF2BC065E070E033
:1041D000C7010E94831D8823B9F3F701E355FF4F00
:1041E000A081B181AE0DBF1D5196BC9251975296E0
:1041F0009C92529753967C9253975496AC925497B4
:1042000055968C92559756961C92F70181818F5F37
:1042100081838091320D8550828FF701E355FF4FE6
:1042200080816E960FB6F894DEBF0FBECDBFDF91D2
:10423000CF911F910F91FF90EF90DF90CF90BF90A3
:10424000AF909F908F907F9008950F931F93E62FCC
:10425000F0E0E255FC4F05911491112707FD1095F0
:104260000E9442201F910F9108958F929F92AF92CA
:10427000BF92CF92DF92EF92FF920F931F93CF9353
:10428000DF93CDB7DEB764970FB6F894DEBF0FBEED
:10429000CDBF8C01F62E5A01FC018281813009F0DC
:1042A00079C0E62FF0E0EE0FFF1FE655FE4F859137
:1042B0009491BC01CC24C394D12CCC0EDD1EC6013C
:1042C0000E94B17C7E01FBE0EF0EF11C4AE050E061
:1042D000B701C5010E94147DF60101900020E9F7A5
:1042E000BF01615071096C197D09D7010D90002043
:1042F000E9F71197AE19BF096A0F7B1F6E5F7F4FF9
:10430000C8010E94831D811101C059C0F801E35505
:10431000FF4FA080B180F60101900020E9F73197AE
:10432000EC19FD09D7010D900020E9F71197AE199E
:10433000BF0945018A1A9B0A95012E1B3F0B2A1BB8
:104340003B0B2C5E3F4F200F311FAF01B601C9015F
:104350000E94C57CF801E80DF91D8AE3848BF70102
:1043600001900020E9F73197EE19FF0985E1880EE9
:10437000911C800E911EAF01B701C4010E94C57C43
:10438000F801EA0DFB1D83E2858BF80181818F5FC7
:1043900081834EC021E04F3F510509F094F440E085
:1043A0006F2DC8010E942C1D8F3F49F0EF2DF0E0CA
:1043B000EE5FFC4F859194918130E9F404C08FEF5A
:1043C0003CC041E0EDCF63E070E0C8010E94831D76
:1043D0008823A9F3F801E355FF4FA081B181A00F15
:1043E000B11F5396FC9253975496AC92549755969E
:1043F000BC92559714C062E070E0C8010E94831D12
:104400008823E9F2F801E355FF4FA081B181A00FA5
:10441000B11F5496FC9254975596AC925597569668
:104420001C92F80181818F5F81838091320D8550CC
:10443000828FF801E355FF4F808164960FB6F894A0
:10444000DEBF0FBECDBFDF91CF911F910F91FF90C7
:10445000EF90DF90CF90BF90AF909F908F90089596
:10446000CF92DF92EF92FF920F931F93CF93DF9340
:104470006C018B010596FC0181E1DF011D928A959B
:10448000E9F77B01C3E9D0E0BE0186EB9FE00E9423
:10449000C046F601EC0FFD1FEE58F1098083F701CD
:1044A00081937F012196C33AD10571F7D8015096C7
:1044B0001C92DF91CF911F910F91FF90EF90DF90B1
:1044C000CF900895CF93DF93EC0160E083EA90E012
:1044D0000E94B47F86E990E09C838B83BE016B5F72
:1044E0007F4F85E89CE0DF91CF910C94302263EA06
:1044F00070E086EB9FE00C94C046AF92BF92CF92E3
:10450000DF92EF92FF920F931F93CF93DF93CDB77C
:10451000DEB764970FB6F894DEBF0FBECDBF8C0137
:10452000DC0112966C934696FC0187E9DF011D922F
:104530008A95E9F7F80111828CE3868B8DE3878BEE
:104540008EE3808F8281813009F0C9C080E8818F3D
:10455000128E83E2838F6801FDEACF0ED11C86E0C4
:1045600090E0D6018D939C9340914D0D50914E0D4E
:1045700060914F0D7091500D7F936F935F934F93A8
:104580008AEF96E09F938F931F9280E18F93EE24A2
:10459000E394F12CEC0EFD1EFF92EF920E94357D0C
:1045A000C7010FB6F894DEBF0FBECDBF9701D6018D
:1045B00011C0FC016191CF016623C9F04D915C915E
:1045C0001197F801E40FF51F668B4F5F5F4F11964F
:1045D0005C934E93F90101900020E9F73197E21BBB
:1045E000F30BAC01421B530B4E175F0710F38D9179
:1045F0009C911197F801E80FF91F23E2268B019691
:104600008D939C9380E090E0F801E355FF4F4FE5D8
:10461000D801A80FB91F15962C91211149C0680126
:10462000FDEACF0ED11CD6018D919C911197F80116
:10463000E80FF91F43E2A42EA68A01968D939C935E
:10464000C8010E947722B82E7E01B1E1EB0EF11C69
:104650004AE050E0B70190E00E94147DF70101901C
:104660000020E9F73197EE19FF09D6012D913C9111
:104670002A5E3F4F200F311FAF01B701C9010E94D1
:10468000C57CF70101900020E9F73197EE19FF0989
:10469000D6018D919C91E80FF91FD801AE0FBF1F75
:1046A0005696AC923196D601ED93FC936B2D63C078
:1046B000A081B181A00FB11F233219F456964C93FB
:1046C00002C056962C93208131812F5F3F4F31835A
:1046D000208301968031910509F09ACFA0CF8111F6
:1046E00002C0F801118E20914E0D90914F0D8091D6
:1046F000500D30914D0DD8015B963C935B975C96C5
:104700002C935C975D969C935D975E968C93F801D5
:10471000E355FF4F89E090E09183808380E090E053
:104720004FE5D801A80FB91F15962C91211129C06A
:104730007801BDEAEB0EF11CF70180819181F8014F
:10474000E80FF91F23E2268B0196D7018D939C93E6
:10475000C8010E947722F70120813181F801E20F20
:10476000F31F868B2F5F3F4FD7012D933C9325502E
:10477000F801228F682F6F5F83EA90E00E94B47F78
:1047800017C0A081B181A00FB11F233219F4569632
:104790004C9302C056962C93208131812F5F3F4F5E
:1047A0003183208301968031910509F0BACFC0CFC3
:1047B00064960FB6F894DEBF0FBECDBFDF91CF91E8
:1047C0001F910F91FF90EF90DF90CF90BF90AF902F
:1047D000089585E89CE00C9462221F920F920FB618
:1047E0000F9211240BB60F922F933F934F935F9329
:1047F0006F937F938F939F93AF93BF93EF93FF93A9
:10480000F89481E080930A02E0E6F0E0808180681D
:10481000808380818F7B808360E083E00E940D260F
:104820007894FF91EF91BF91AF919F918F917F917C
:104830006F915F914F913F912F910F900BBE0F9011
:104840000FBE0F901F9018951F920F920FB60F92E8
:1048500011248F939F93AF93BF9380918312909174
:104860008412A0918512B09186120196A11DB11DEE
:104870008093831290938412A0938512B093861232
:10488000BF91AF919F918F910F900FBE0F901F908E
:1048900018951F920F920FB60F9211248F939F932A
:1048A000AF93BF938091871290918812A091891243
:1048B000B0918A120196A11DB11D80938712909329
:1048C0008812A0938912B0938A12BF91AF919F91E1
:1048D0008F910F900FBE0F901F9018958F929F92FF
:1048E000AF92BF92CF92DF92EF92FF920F931F93FE
:1048F000CF93DF932FB7F894809183129091841215
:10490000A0918512B09186122FBF9C01AD0160E08D
:1049100070E080E090E001E00E94BD7A4901D42F70
:10492000C52FB62FA72FF82FE92F02E00E94BD7ADE
:1049300059016A017B018C0194014D2F5C2F6B2F73
:104940007A2F8F2F9E2F0E94CC7AE9E0AE2EB12CC9
:10495000C12CD12CE12CF12C00E010E00E94607AF7
:10496000952FB901842FDF91CF911F910F91FF9067
:10497000EF90DF90CF90BF90AF909F908F90089571
:104980008F929F92AF92BF92CF92DF92EF92FF925F
:104990004B015C0107C00E946E246C157D058E05DD
:1049A0009F0520F40E946E246B017C010E946E24FE
:1049B0006C197D098E099F09681579058A059B0583
:1049C00050F3FF90EF90DF90CF90BF90AF909F900B
:1049D0008F900895BC01049768F080E090E00E94F9
:1049E000407726E636E646EE5FE30E9422780E9494
:1049F000147702C0660F771F6150710961F0615032
:104A0000710949F0FB01EE0FFF1F31978FB7F89442
:104A10003197F1F78FBF0895789484B7877F84BF6B
:104A200010928312109284121092851210928612A4
:104A300084B5826084BD84B5816084BD85B58260A3
:104A400085BD85B5816085BDEEE6F0E08081816041
:104A50008083E1E8F0E080818260808380818160F2
:104A60008083E0E8F0E0808181608083E1EBF0E02A
:104A7000808184608083E1E9F0E0808184608083CC
:104A8000E0EBF0E0808181608083E0E9F0E080810C
:104A900081608083E4E6F0E080818E7F8083ECE7B4
:104AA000F0E080818F778083808180648083EAE773
:104AB000F0E0808184608083808182608083808157
:104AC000806880831092C1001092C900089590916F
:104AD000340D982B9093340D80FF32C08091640088
:104AE0008E7F8093640080917C008F7780937C0020
:104AF00080917C00806480937C0080917A00846047
:104B000080937A0080917A00826080937A0080910D
:104B10007A00806880937A00809164008F77809318
:104B20006400809164008B7F8093640080916400B6
:104B30008D7F80936400809165008E7F80936500F7
:104B40000895282F20959091340D92239093340D41
:104B500080FF1EC080917A008F7780937A008091C9
:104B60006400816080936400809164008068809319
:104B7000640080916400846080936400809164008C
:104B800082608093640080916500816080936500FD
:104B9000089590917C0020917A00206820937A00FB
:104BA0009F70981769F090917C008F70907F892B8F
:104BB00080937C0061E070E080E090E00E94C0247F
:104BC00080917A00806480937A0080917A0086FDDB
:104BD000FCCF2091780030917900932F80E0AC01D8
:104BE000422B9A01C901089590E0FC01E75FF64F5E
:104BF0002491FC01E45CF64FE491EE2369F0F0E0CF
:104C0000E158F64FA491B0E08C91611103C020955A
:104C1000822301C0822B8C93089590E0FC01EA521C
:104C2000F74F2491FC01E75FF64F3491FC01E45CFF
:104C3000F64F84918823B1F1222331F1233021F4FE
:104C4000909180009F7705C0243031F490918000CE
:104C50009F7D9093800018C0213019F494B59F7700
:104C600004C0223021F494B59F7D94BD0DC0263040
:104C700021F49091B0009F7705C0273029F49091DE
:104C8000B0009F7D9093B000E82FF0E0E958F64F18
:104C9000A491B0E08C91611103C03095832301C0D1
:104CA000832B8C93089590E0FC01EA52F74F2491F6
:104CB000FC01E75FF64F3491FC01E45CF64F849110
:104CC000882399F1222331F1233021F4909180003F
:104CD0009F7705C0243031F4909180009F7D9093A0
:104CE000800018C0213019F494B59F7704C0223099
:104CF00021F494B59F7D94BD0DC0263021F4909190
:104D0000B0009F7705C0273029F49091B0009F7DB7
:104D10009093B000E82FF0E0E159F64FE491F0E015
:104D20008081832321E030E011F420E030E0C901EC
:104D30000895F894809197129091981280FF18C06E
:104D400086E20E945326892B99F0809199128F5FF9
:104D50008093991280919A1290919B128160909306
:104D60009B1280939A1280918F128F5F80938F1283
:104D7000809197129091981281FF18C087E20E944B
:104D80005326892B99F0809199128F5F8093991205
:104D900080919A1290919B12826090939B128093C3
:104DA0009A12809190128F5F809390128091971247
:104DB0009091981283FF1CC088E00E945326892B93
:104DC000B9F0809199128F5F8093991260E085E02D
:104DD0000E940D2680919A1290919B128860909368
:104DE0009B1280939A12809192128F5F80939212FD
:104DF000809197129091981287FF18C08DE20E94BF
:104E00005326892B99F0809199128F5F8093991284
:104E100080919A1290919B12806890939B1280933C
:104E20009A12809195128F5F8093951280919712BC
:104E30009091981290FF18C082E10E945326892B0E
:104E400099F0809199128F5F8093991280919A12B4
:104E500090919B12916090939B1280939A128091F3
:104E600096128F5F8093961280919712909198126C
:104E700084FF18C089E00E945326892B99F4809101
:104E800099128F5F8093991280919A1290919B1240
:104E9000806190939B1280939A12809193128F5FFE
:104EA0008093931278940895E82FF0E0EE0FFF1F9F
:104EB000EB5CF24F71836083823029F130F48823F8
:104EC00051F0813009F046C010C0833059F1843070
:104ED00009F040C036C0E898809169008C7F842B2F
:104EE00080936900E09AE89A0895E99880916900B2
:104EF000440F551F440F551F837F842B80936900F7
:104F0000E19AE99A0895EA988091690024E0440FB3
:104F1000551F2A95E1F78F7C842B80936900E29AD4
:104F2000EA9A0895EB988091690096E0440F551F26
:104F30009A95E1F78F73842B80936900E39AEB9A3B
:104F40000895EC9880916A008C7F842B80936A008E
:104F5000E49AEC9A0895F894883018F5833091F02B
:104F600020F4813059F060F407C0863079F0873042
:104F700079F0843071F408C0E8980BC0E99809C052
:104F8000EA9807C0EB9805C0EC9803C0EE9801C002
:104F9000EF98E82FF0E0EE0FFF1FEB5CF24F11826D
:104FA0001082789408951F920F920FB60F921124D9
:104FB0000BB60F922F933F934F935F936F937F9313
:104FC0008F939F93AF93BF93EF93FF938091350D92
:104FD0009091360D892B29F0E091350DF091360D29
:104FE0000995FF91EF91BF91AF919F918F917F9123
:104FF0006F915F914F913F912F910F900BBE0F904A
:105000000FBE0F901F9018951F920F920FB60F9220
:1050100011240BB60F922F933F934F935F936F938F
:105020007F938F939F93AF93BF93EF93FF93809161
:10503000370D9091380D892B29F0E091370DF091C3
:10504000380D0995FF91EF91BF91AF919F918F918D
:105050007F916F915F914F913F912F910F900BBE78
:105060000F900FBE0F901F9018951F920F920FB6C2
:105070000F9211240BB60F922F933F934F935F9390
:105080006F937F938F939F93AF93BF93EF93FF9310
:105090008091390D90913A0D892B29F0E091390DCD
:1050A000F0913A0D0995FF91EF91BF91AF919F91CA
:1050B0008F917F916F915F914F913F912F910F90C1
:1050C0000BBE0F900FBE0F901F9018951F920F925E
:1050D0000FB60F9211240BB60F922F933F934F935D
:1050E0005F936F937F938F939F93AF93BF93EF9350
:1050F000FF9380913B0D90913C0D892B29F0E0911D
:105100003B0DF0913C0D0995FF91EF91BF91AF914F
:105110009F918F917F916F915F914F913F912F91CF
:105120000F900BBE0F900FBE0F901F9018951F92FF
:105130000F920FB60F9211240BB60F922F933F933D
:105140004F935F936F937F938F939F93AF93BF938F
:10515000EF93FF9380913D0D90913E0D892B29F0A7
:10516000E0913D0DF0913E0D0995FF91EF91BF91BA
:10517000AF919F918F917F916F915F914F913F91EF
:105180002F910F900BBE0F900FBE0F901F90189590
:105190001F920F920FB60F9211240BB60F922F93FE
:1051A0003F934F935F936F937F938F939F93AF93AF
:1051B000BF93EF93FF9380913F0D9091400D892B0A
:1051C00029F0E0913F0DF091400D0995FF91EF918D
:1051D000BF91AF919F918F917F916F915F914F910F
:1051E0003F912F910F900BBE0F900FBE0F901F900D
:1051F00018951F920F920FB60F9211240BB60F92B3
:105200002F933F934F935F936F937F938F939F93CE
:10521000AF93BF93EF93FF938091410D9091420D17
:10522000892B29F0E091410DF091420D0995FF91F4
:10523000EF91BF91AF919F918F917F916F915F910E
:105240004F913F912F910F900BBE0F900FBE0F907B
:105250001F9018951F920F920FB60F9211240BB644
:105260000F922F933F934F935F936F937F938F93FF
:105270009F93AF93BF93EF93FF938091430D9091D2
:10528000440D892B29F0E091430DF091440D0995CF
:10529000FF91EF91BF91AF919F918F917F916F910E
:1052A0005F914F913F912F910F900BBE0F900FBECA
:1052B0000F901F90189510929B1210929A120895B9
:1052C000CF92DF92EF92FF926B017C018091971257
:1052D000909198128C299D299093981280939712FF
:1052E000C0FE0FC060E08BE20E94F42560E086E221
:1052F0000E94F42543E050E069E976E282E00E94F2
:105300005427C1FE0FC060E08BE20E94F42560E0EC
:1053100087E20E94F42543E050E069E976E282E00A
:105320000E945427C2FE0FC061E083E00E94F42572
:1053300061E083E00E940D2642E050E06EE37AE2F5
:1053400084E00E945427C3FE0FC060E08BE20E94FD
:10535000F42560E088E00E94F42543E050E069E92C
:1053600076E282E00E945427C4FE0BC060E08BE22C
:105370000E94F42543E050E069E976E282E00E9471
:105380005427C6FE0FC060E084E00E94F42560E070
:105390008CE20E94F42542E050E06EE37AE283E082
:1053A0000E945427C7FE0FC060E08DE20E94F425E2
:1053B00060E08BE20E94F42543E050E069E976E288
:1053C00082E00E945427D0FE13C060E08BE20E946E
:1053D000F42560E082E10E94F42543E050E069E9B1
:1053E00076E282E0FF90EF90DF90CF900C9454270C
:1053F000FF90EF90DF90CF900895CF92DF92EF92E1
:10540000FF926B017C01F89460FF03C082E00E9470
:10541000AB27C1FE03C082E00E94AB27C2FE03C0DF
:1054200084E00E94AB27C3FE03C082E00E94AB274A
:10543000C4FE03C082E00E94AB27C7FE03C082E027
:105440000E94AB27D0FE03C082E00E94AB27C6FEBD
:1054500003C083E00E94AB2780919712909198122D
:10546000C094D094C822D922D0929812C092971298
:105470007894FF90EF90DF90CF900895F89480910A
:1054800097129091981286FF1EC084E00E945326C6
:10549000892BC9F4809199128F5F80939912809122
:1054A0009A1290919B12806490939B1280939A120F
:1054B000809194128F5F8093941260E470E080E09A
:1054C00090E00E94FD29809197129091981282FF9E
:1054D0001CC083E00E945326892BB9F48091991255
:1054E0008F5F8093991280919A1290919B128460A1
:1054F00090939B1280939A12809191128F5F809368
:10550000911261E083E00E940D2678940895BF9285
:10551000CF92DF92EF92FF920F931F93CF93DF937F
:10552000C82ED62EB42EC0E0D0E0022F10E087E0C7
:10553000E82EF12CB11008C0B8010C2E02C07595F0
:1055400067950A94E2F709C0F701EC1BFD0BB8015F
:1055500002C075956795EA95E2F7617077278C2D03
:105560000E940D2661E08D2D0E940D2660E08D2D9C
:105570000E940D262196C830D105E1F6DF91CF912A
:105580001F910F91FF90EF90DF90CF90BF90089503
:10559000CF92DF92EF92FF926B017C01411134C0F8
:1055A00088E00E946725C701B60122E030E040E0B4
:1055B00050E00E94427A305F414F5F4FCA01B9010B
:1055C000A70196010E94427ADA01C9010197A10957
:1055D000B109892F9A2FAB2FBB27A7FDBA958093CE
:1055E000C50021502093C4008091C1008061809348
:1055F000C1008091C10088608093C1008091C1008A
:1056000080688093C10033C080E10E946725C70194
:10561000B60122E030E040E050E00E94427A305F84
:10562000414F5F4FCA01B901A70196010E94427A1A
:10563000DA01C9010197A109B109892F9A2FAB2F6E
:10564000BB27A7FDBA958093CD0021502093CC00B5
:105650008091C90080618093C9008091C9008860F1
:105660008093C9008091C90080688093C900FF9031
:10567000EF90DF90CF90089581110EC088E00E94D6
:10568000A1258091C1008F7E8093C1008091C100CF
:10569000877F8093C100089580E10E94A1258091B9
:1056A000C9008F7E8093C9008091C900877F809355
:1056B000C9000895611107C09091C00095FFFCCF0B
:1056C0008093C60008959091C80095FFFCCF809309
:1056D000CE00089581110AC080914B0D90914C0D20
:1056E0009E5F2091490D30914A0D09C08091470D70
:1056F0009091480D9E5F2091450D3091460D821B83
:10570000930B60E072E00E940C7A0895811119C039
:105710008091490D90914A0D20914B0D30914C0D87
:105720002817390741F1FC01E356FB4E2081019611
:1057300060E072E00E940C7A90934A0D8093490DCC
:1057400018C08091450D9091460D2091470D3091E4
:10575000480D2817390779F0FC01E356FD4E2081EA
:10576000019660E072E00E940C7A9093460D80935F
:10577000450D30E002C02FEF3FEFC90108958111C0
:1057800009C010924A0D1092490D10924C0D1092C2
:105790004B0D08951092460D1092450D1092480D34
:1057A0001092470D08951F920F920FB60F92112479
:1057B0002F933F934F935F936F937F938F939F9319
:1057C000AF93BF93EF93E091C60020914B0D3091C2
:1057D0004C0DC901019660E072E00E940C7A409184
:1057E000490D50914A0D8417950741F0D901A356F0
:1057F000BB4EEC9390934C0D80934B0DEF91BF916A
:10580000AF919F918F917F916F915F914F913F9158
:105810002F910F900FBE0F901F9018951F920F920F
:105820000FB60F9211242F933F934F935F936F9373
:105830007F938F939F93AF93BF93EF93E091CE00AD
:105840002091470D3091480DC901019660E072E04A
:105850000E940C7A4091450D5091460D8417950792
:1058600041F0D901A356BD4EEC939093480D80931F
:10587000470DEF91BF91AF919F918F917F916F9164
:105880005F914F913F912F910F900FBE0F901F90FE
:1058900018950C945A2BCF93C82F682F8DE00E9437
:1058A0005A2B6C2F8AE0CF910C945A2B1F93CF93D5
:1058B000DF93162FEC0103C0612F0E945A2B8991B0
:1058C0008111FACFDF91CF911F9108954F925F928E
:1058D0006F927F928F929F92AF92BF92CF92DF9200
:1058E000EF92FF920F93CF93DF93CDB7DEB7A097E0
:1058F0000FB6F894DEBF0FBECDBF29013A01611586
:10590000710581059105C9F4602F80E3A0960FB65B
:10591000F894DEBF0FBECDBFDF91CF910F91FF9006
:10592000EF90DF90CF90BF90AF909F908F907F903F
:105930006F905F904F900C945A2BEE24E394F12CCF
:10594000EC0EFD1E812C912C5401A30192010E94AA
:10595000207AF70161937F01FFEF8F1A9F0AAF0A48
:10596000BF0AB901CA01611571058105910569F781
:10597000CC24CA94DC2C7601C80CD91CEA1CFB1C74
:1059800014C0E1E0F0E0EC0FFD1FEC0DFD1D808187
:105990008A3010F4805D01C0895C602F0E945A2B10
:1059A00081E0C81AD108E108F108EFEFCE16DE0653
:1059B000EE06FE0631F7A0960FB6F894DEBF0FBED6
:1059C000CDBFDF91CF910F91FF90EF90DF90CF90FF
:1059D000BF90AF909F908F907F906F905F904F900F
:1059E0000895CF93DF93C62F282F332727FD3095B7
:1059F000207F332764E0359527956A95E1F72A30B3
:105A000014F0295C01C0205D982F9F70D92F9A3027
:105A100014F0D95C01C0D05D6C2F822F0E945A2BEC
:105A20006C2F8D2FDF91CF910C945A2BCF92DF9258
:105A3000EF92FF920F936B017C01042F97FF0CC034
:105A4000642F8DE20E945A2BF094E094D094C0947D
:105A5000C11CD11CE11CF11C2AE030E040E050E008
:105A6000C701B6010E94662C0F91FF90EF90DF9066
:105A7000CF9008950E940C2586EB9FE00E940F496D
:105A8000853440F061E081E30E94F42561E081E328
:105A90000E940D2661E070E086EB9FE00E94C04608
:105AA0008130B1F480918B1290918C12A0918D1263
:105AB000B0918E12906880938B1290938C12A09369
:105AC0008D12B0938E1260E081E090E00E94B47F6E
:105AD00087E20E945326892B59F160E070E086EB43
