:100000000C943A090C94E02C0C94112D0C94422D74
:100010000C94732D0C94A42D0C94D52D0C94062EB9
:100020000C94372E0C9469090C9469090C94690995
:100030000C940D290C9469090C9469090C94692994
:100040000C9469090C9469090C9469090C94690968
:100050000C9469090C9469090C9469090C9444295D
:100060000C9469090C94E0300C9469090C946909AA
:100070000C9469090C9469090C9469090C94690938
:100080000C9469090C9469090C9469090C94690928
:100090000C941B310C9469090C9469090C9413831A
:1000A0000C9469090C9469090C9469090C94690908
:1000B0000C9469090C9469090C9469090C946909F8
:1000C0000C9469090C9469090C9469090763423618
:1000D000B79BD8A71A39685618AEBAAB558C1D3CD9
:1000E000B7CC5763BD6DEDFD753EF6177231BF009D
:1000F0000000803F08000000BE922449123EABAAD7
:10010000AA2ABECDCCCC4C3E00000080BEABAAAA31
:10011000AA3E00000000BF000000803F0000000079
:1001200000084178D3BB4387D1133D190E3CC3BDB2
:100130004282AD2B3E68EC8276BED98FE1A93E4C5F
:1001400080EFFFBE01C4FF7F3F00000000004E6F44
:10015000205344206361726420696E7374616C6C17
:100160006564004572726F723A204E6F206C6F6743
:100170002066696C65206F6E205344004170706585
:100180006E64206672616D65206661696C656400ED
:1001900068056B056F05720576057A057E05820593
:1001A000860589058D059005940598059C05A10592
:1001B000A405A705AC05B005B505B805BB05BF0589
:1001C000C305C605CA05CE05D205D505DA05DD0588
:1001D000E005E305E705EB05F005F605FB05FE0583
:1001E0000206050608060B060E0612061506190677
:1001F0001D0620062306260629062D06310636068C
:100200003A063D06410646064B064F0653065B0678
:100210005F0666066A066E06740678067B067E062C
:10022000820685068A068D06920697069B06A0061C
:10023000A506A906AF06B306B906BF06C606CC06D4
:10024000D206D606DF06E906ED06F206F706FC063C
:10025000000705070A070F0716071D0724072B07C6
:10026000310737073D07410748074E0754075A072C
:10027000600765076A076F07740779077E078507B8
:100280008C07930798079D07A107A607AB07B1073F
:10029000B707BE07C407CB07D107D807DF07E607B4
:1002A000ED07F307FA07000807080E0815081B08F2
:1002B000220828082E0835083D084008430845084C
:1002C00049084F08540859085F0865086B08710809
:1002D00077087D08830889088F0895089B08A0087F
:1002E000A508AA08B008B608020202020202020229
:1002F00002020202020202020202000000000200E8
:1003000002000002020202010002020202020202D4
:1003100002020202020002020202020200020103C1
:1003200003030000010102010403030303030202AB
:1003300002020202020202020202020202000000A3
:10034000040202020202020002020202020202028D
:10035000020202020202020200000000000000008D
:100360000002020402000000020202020202020273
:10037000020202020202020202020202020202025D
:10038000020202020202020202020202020202024D
:100390000202020203030303030303030303030331
:1003A0000202010203030000000003000300000337
:1003B000030302000002020102020302020303031C
:1003C0000200020602030303000600000000000012
:1003D000000002000000000000000203010102030F
:1003E00003030303030303030300000003020202E9
:1003F00003030300020202020202020202020202DC
:1004000002030303000000000000000000030300DB
:1004100001000000030303030303030303030303B7
:1004200003030303030202000202000404040003A6
:10043000030303030303030303030202020303038F
:100440004552522073656E736F7220747970652007
:10045000262076616C7565206D69736D61746368C3
:100460002C200020767320004552522073656E7355
:100470006F72207479706520262076616C75652016
:100480006D69736D617463682C20002076732000A1
:10049000010101010101010101010101010101014C
:1004A000010101010101010101010101010101033A
:1004B000010101010101010101010101010101012C
:1004C0000101010101020101010103030101010315
:1004D000010101010101010101010101010101010C
:1004E00001010101010103030101010101010101F8
:1004F00001010101010101010101010101010101EC
:1005000001010101010101010101010101010101DB
:1005100001010101010101010101010101010101CB
:1005200001010101010101010101020101010101BA
:1005300001010101010101010101010145525220A6
:1005400073656E736F7220747970652026206E75E6
:100550006D626572206F66206669656C6473206DDC
:1005600069736D6174636800434F00434F32004FFD
:100570003200434834004C5047004E48330041504D
:100580003100415032005356004E4F32004F33007D
:10059000564F4300544341005446410048554D4195
:1005A0000050410050570042454E44005642520010
:1005B00048414C4C004C50004C4C004C554D0050A8
:1005C0004952005354004D435000434447004350A8
:1005D00047004C440044555354005553004D4600C9
:1005E000505300544342005446420048554D420087
:1005F000534F494C5400534F494C004C5700504105
:100600005200555600544400534400464400414EA5
:100610004500575600504C56005241440043550087
:100620005746004C43004446004241540047505353
:100630000052535349004D4143004E41004E49443E
:1006400000444154450054494D4500474D54005223
:10065000414D00494E5F54454D5000414343004DCC
:10066000494C4C495300535452004D4254004D578D
:1006700049464900554944005242005048004F52F3
:100680005000444F00434F4E440057540044494EDD
:1006900041004449434100444946004449434C0019
:1006A00044494252004449490044494355320044B8
:1006B000494B0044494D47320044494E4F330054A2
:1006C000585F50575200444D5F535400444D5F53A0
:1006D00050004C55580053504545445F4F47004328
:1006E0004F555253455F4F4700414C540048444FCB
:1006F000500056444F500050444F500046534D0058
:10070000504C563100504C563200504C563300532A
:100710004F494C5F4300534F494C5F4400534F498E
:100720004C5F4500534F494C5F4600534F494C3195
:1007300000534F494C3200534F494C33005443430C
:100740000055535F3356330055535F3556004C55B3
:100750004D5F44004C554D5F45004C554D5F460084
:100760004C505F44004C505F45004C505F46004C7D
:100770004C5F44004C4C5F45004C4C5F4600484188
:100780004C4C5F440048414C4C5F450048414C4C48
:100790005F460057465F430057465F450054535439
:1007A00000545552420056415049005650524F474E
:1007B0000056424F4F540047505F434C3200475061
:1007C0005F434F0047505F45544F0047505F4832EA
:1007D0000047505F4832530047505F48434C004742
:1007E000505F48434E0047505F4E48330047505FCC
:1007F0004E4F0047505F4E4F320047505F4F320020
:1008000047505F5048330047505F534F32004750C6
:100810005F4348340047505F4F330047505F434FBA
:10082000320047505F54430047505F5446004750E2
:100830005F48554D0047505F5052455300544300A8
:100840005446005000504D3100504D325F3500503D
:100850004D313000504152540053574943410053E9
:100860005749464C005357494642005357494E4F4B
:1008700000535749425200535749434C005357497C
:10088000435500535749494F00535749504200536D
:10089000574941470053574950480050485F41006D
:1008A00050485F420050485F43004F52505F410044
:1008B0004F52505F42004F52505F43000000080902
:1008C0000000000000000000000000000000000028
:1008D0000000000000000000000000000000000018
:1008E0000000000000000000000000000000000107
:1008F0000208101020408004081020400202040862
:1009000010204080010280204004200101020408E0
:100910001020014080408001020804088004100477
:100920000201050505050303030301010104040396
:100930000606060606060606010405010501030271
:10094000020202020201020205050404030404017A
:10095000030407070700202326292C2F3200222515
:10096000282B2E3134002124272A2D3033BE09D2E2
:1009700009F8091F0A3F0A570A650A750A8A0AA078
:100980000AB10ABD0AC40AE10AFF0A150B230B3398
:100990000B560B5C0B57726F6E672074696D652088
:1009A000666F726D61742E204D75737420626520C0
:1009B0002264643A68683A6D6D3A73732200416C40
:1009C00061726D204D6F6465206D6174636865733D
:1009D00020005B446179203A20686F757273203A79
:1009E000206D696E75746573203A207365636F6E50
:1009F00064735D202D3E20005B44617465203A20C5
:100A0000686F757273203A206D696E757465732016
:100A10003A207365636F6E64735D202D3E20005B2A
:100A2000486F757273203A206D696E757465732016
:100A30003A207365636F6E64735D202D3E20005B0A
:100A40004D696E75746573203A207365636F6E64CB
:100A5000735D202D3E20005B5365636F6E64735D94
:100A6000202D3E20004F6E636520706572207365F7
:100A7000636F6E6400496E636F72726563742061A8
:100A80006C61726D206D6F6465005B253032753A64
:100A9000253032753A253032753A253032755D0091
:100AA0005B253032753A253032753A253032755D26
:100AB000005B253032753A253032755D005B25309C
:100AC00032755D005B446179203A20686F757273FE
:100AD000203A206D696E75746573205D202D3E206F
:100AE000005B44617465203A20686F757273203A28
:100AF000206D696E75746573205D202D3E20005B4E
:100B0000486F757273203A206D696E757465735DF8
:100B1000202D3E20005B4D696E757465735D202D40
:100B20003E20004F6E636520706572206D696E75A2
:100B300074650025732C20253032752F25303275D1
:100B40002F253032752C20253032753A25303275FC
:100B50003A25303275006572726F72002530327539
:100B600025632530327525632530327525632530A0
:100B7000327525632530327525632530327525633E
:100B800025303275007C3C3E5E2B3D3F2F5B5D3B4C
:100B90002C2A225C00496E76616C69642066696C5F
:100BA000656E616D65001E0C2F0C400C550C660CBB
:100BB000790C8C0C9F0CB40CD50CE60CF90C0A0DBE
:100BC0001F0D360D4B0D620D750D860D970DAA0D7F
:100BD000BF0DD00DE30DF40D050E1A0E2B0E3C0EBD
:100BE0006D0E800E910EA40EB50EC60ED70EE80E39
:100BF000FB0E0C0F1D0F2E0F3F0F520F630F740FC4
:100C0000870F9A0FAB0FC90FEA0F0B103C106D1036
:100C10008C10AD10CE10EF1010113111521137455C
:100C200030303034303835323533344330360037B5
:100C30004530303034303835323533343830410097
:100C4000374530303036303835323444353930304D
:100C50003030303000374530303034303835323491
:100C60004435394646003745303030353038353236
:100C70003432343430303030003745303030353075
:100C8000383532343135303030303000374530305F
:100C9000303530383532343134463030303000374A
:100CA0004530303036303835323439343430303005
:100CB0003030300037453030304330383532343919
:100CC000343430303030303030303030303030301C
:100CD0003030303000374530303034303835323411
:100CE00039343431380037453030303530383532EA
:100CF00035333444303030300037453030303430E4
:100D000038353235333444303500374530303036BD
:100D100030383532353335343030303030300037DC
:100D20004530303037303835323533353430303087
:100D300030303030300037453030303630383532B2
:100D400035333530303030303030003745303030AA
:100D50003730383532353335303030303030303070
:100D60003000374530303035303835323433343870
:100D70003030303000374530303034303835323470
:100D80003334383141003745303030343038353243
:100D9000344534393045003745303030353038351A
:100DA000323445353430303030003745303030362D
:100DB000303835323445353430303030303000372B
:100DC0004530303034303835323445353430330006
:100DD00037453030303530383532344534463030B0
:100DE00030300037453030303430383532344534E7
:100DF00046303800374530303034303835323537CA
:100E000035324643003745303030363038353235AC
:100E100033343330303030303000374530303034D8
:100E200030383532353334333046003745303030A2
:100E3000343038353235333434304500374530308E
:100E4000313430383532344235393030303030306A
:100E50003030303030303030303030303030303092
:100E60003030303030303030303030300037453096
:100E7000303035303835323435343530303030007C
:100E8000374530303034303835323435343531420E
:100E90000037453030303530383532353034433036
:100EA000303030003745303030343038353235303E
:100EB000344330390037453030303430383532340F
:100EC0003434323146003745303030343038353202
:100ED00034383536303700374530303034303835F7
:100EE00032353635324644003745303030353038CB
:100EF00035323532353030303030003745303030F3
:100F000034303835323532353030330037453030D3
:100F100030343038353234313433323100374530C3
:100F2000303034303835323436353230440037459D
:100F300030303034303835323532343530450037A2
:100F40004530303035303835323533344630303056
:100F50003000374530303034303835323533344670
:100F60003033003745303030343038353234453462
:100F70003431330037453030303530383532343560
:100F8000343430303030003745303030353038355B
:100F9000323533343430303030003745303030344F
:100FA000303835323434344331350025327525320A
:100FB00075253275253275253275253275253275C0
:100FC00025632532752532750050524F4752414DE9
:100FD000205245434549564544204F4B2424242460
:100FE0002424242424242424240050524F475241F2
:100FF0004D205245434549564544204552524F5293
:1010000024242424242424242424005354415254EA
:101010002057495448204649524D57415245204F88
:101020004B24242424242424242424242424242459
:1010300024242424242424242424240053544152EA
:10104000542057495448204649524D574152452053
:101050004552524F5224242424242424242424247A
:1010600024242424242424242424242400524541F8
:101070004420424F4F544C495354242424242424C4
:101080002424242424242424242424004E455720CA
:1010900050524F4752414D2052554E4E494E4724D3
:1010A00024242424242424242424242400505245A9
:1010B00056494F55532050524F4752414D2052559B
:1010C0004E4E494E472424242424242424005245EF
:1010D0005354415254494E47242424242424242484
:1010E00024242424242424242424242424240046C2
:1010F00049524D574152452044454C45544544249E
:1011000024242424242424242424242424242400C3
:101110004649524D57415245204E4F542044454C6C
:1011200045544544242424242424242424242424ED
:10113000004649524D574152455F46494C455F462E
:101140004F525F574153504D4F5445232323232380
:10115000230046494C45415558006364696E6F70E1
:10116000737578585B0000407A10F35A00A0724EF5
:1011700018090010A5D4E80000E87648170000E43C
:101180000B54020000CA9A3B000000E1F505000084
:1011900080969800000040420F000000A0860100E9
:1011A0000000102700000000E803000000006400B9
:1011B000000000000A000000000001000000000024
:1011C0002C76D888DC674F0823DFC1DFAE59E1B148
:1011D000B796E5E3E453C63AE651997696E8E6C257
:1011E0008426EB898C9B62ED407C6FFCEFBC9C9F5E
:1011F00040F2BAA56FA5F490055A2AF75C936B6C80
:10120000F9676DC11BFCE0E40D47FEF520E6B50073
:10121000D0ED902E0300943577050080841E0800E1
:1012200000204E0A000000C80C333333330F986E91
:1012300012831141EF8D2114893BE65516CFFEE64E
:10124000DB18D1844B381BF77C1D901DA4BBE42414
:10125000203284725E228100C9F124ECA1E53D2791
:10126000190DD713302009291436233E2349C84DC0
:10127000874F3B6711241FBECFEFD1E2DEBFCDBF4A
:1012800018E0A0E0B2E0E6E7FAE201E00BBF02C03E
:1012900007900D92AA32B107D9F716E1AAE2B8E099
:1012A00001C01D92A73DB107E1F712E1C4E7D2E109
:1012B00000E006C022970109FE010BBF0E94F188E1
:1012C000C036D10780E00807A9F70E9447320C9486
:1012D00039950C94000087EE9FE00E94D54D8CE478
:1012E0009FE00E9457458AE598E00E942C7B8AE5A2
:1012F00098E00E94B57285E49CE00E94D10E6FE0F8
:1013000072E085E49CE00E94F60D65E673E785E4F3
:101310009CE00E94280E61E272E085E49CE00E945D
:10132000F60D85E49CE00E94F71286E59CE00E94A1
:10133000911486E59CE00E942B1560ED77E080E03B
:1013400090E00E94E0296AE270E080E090E00E9474
:10135000208B6BE372E085E49CE00E94F60D85E44F
:101360009CE00E940B0F8AE598E00E94B16787EE2F
:101370009FE00E94F54D8CE49FE00C94603EEF925C
:101380000F93CF93DF9380E1E82E02E024E041E069
:1013900062E572E086E59CE00E94371586E59CE0F8
:1013A0000E9431158CE49FE00E9457458CE49FE039
:1013B0000E9469418091640F80932E0810922F083B
:1013C0008091630F80932C0810922D088CE49FE08D
:1013D0000E94603E8091D0129091D11284FF49C04A
:1013E00085E49CE00E94AB0D6EE572E085E49CE034
:1013F0000E94F60D8091C912809330081092310836
:101400001F928F9387E792E09F938F9382E398E0F8
:101410009F938F930E94658C62E378E085E49CE063
:101420000E94F60D0F900F900F900F900F900F905D
:10143000C0E0D0E00AC086E59CE00E94B71A809127
:10144000C91281508093C9122196809130089091E1
:101450003108C817D9077CF38091D0129091D1122E
:101460008F7E9093D1128093D01285E49CE00E94ED
:10147000B70D8091D0129091D11281FFFDC085E40B
:101480009CE00E94AB0D60E972E085E49CE00E9464
:10149000F60D8CEE9FE00E94DE4F80912E08909119
:1014A0002F086AE070E00E942888892B09F0D1C0DB
:1014B00069EA72E085E49CE00E94F60D85E49CE018
:1014C0000E94590F60914E0C70914F0C80E99DE085
:1014D0000E9452396138704F8A4F924074F0609187
:1014E0004E0C70914F0C80E99DE00E94B23A6AEB7D
:1014F00072E085E49CE00E94F60D8FED9FE00E9473
:10150000A3498D3308F447C080912E0890912F088D
:10151000892B09F09EC08AE598E00E942C7B62E34B
:1015200070E080E090E00E94E0290E94BE8A64E6BC
:1015300070E00E94288890932B0880932A08BC01B1
:10154000882777FD8095982F0E94E02985E49CE00C
:101550000E94AA116DEC72E085E49CE00E94F60DF9
:1015600080912C0890912D080C9781F485E49CE0E3
:101570000E94F71266EE72E085E49CE00E94F60D90
:1015800060E27FEB82E090E00E94E02960E375E793
:1015900080E090E051C08FED9FE00E94A3498F3121
:1015A00008F451C080912C0890912D0866E070E0FD
:1015B0000E942888892B09F04CC08AE598E00E9497
:1015C0002C7B62E370E080E090E00E94E0290E94C2
:1015D000BE8A64E670E00E94288890932B0880936E
:1015E0002A08BC01882777FD8095982F0E94E02962
:1015F00085E49CE00E94AA116DEC72E085E49CE019
:101600000E94F60D80912C0890912D080C9781F482
:1016100085E49CE00E94F71266EE72E085E49CE0AF
:101620000E94F60D60E67AEE80E090E00E94E029EC
:1016300060E177E280E090E00E94E0298AE598E0AE
:101640000E94B16706C06BEF72E085E49CE00E94E7
:10165000F60D8091D0129091D1128D7F9093D1127E
:101660008093D01285E49CE00E94B70D0E94682E02
:101670008FED9FE00E943A4B85E49CE0DF91CF9193
:101680000F91EF900C94B70D5F926F927F928F92B3
:101690009F92AF92BF92CF92DF92EF92FF920F9301
:1016A0001F93CF93DF93CDB7DEB7C957D1090FB6DC
:1016B000F894DEBF0FBECDBF6C017B01EA961FAE72
:1016C000EA973C010E94536DF601E552FE4F82E01D
:1016D00080838E010F5F1F4F98E7D8011D929A9566
:1016E000E9F79EE7998391E09D83F601ED54FC4F65
:1016F00011821082F601E752FE4F8083F701908538
:1017000088E3A82EBB24B394AE0CBF1CD5018C91EA
:101710009230E0F5825F8B8380E18C83913019F405
:101720008FEF8C8710C0F70184818E8385818F8332
:10173000868188878781898780818A8781818B8755
:1017400082818C8783818D878FEF8E878EEF8F8745
:1017500021E1AE014F5F5F4FB701C3010E945E6A96
:10176000F701E85CFE4F008111810F5E1F4FBE0143
:101770006F5F7F4FC3010E943E6DE1E0F0E0EC0F30
:10178000FD1FE00FF11F808312E146C08C5E8B834A
:1017900081E18C83F70184818E8385818F838681AB
:1017A00088878781898780818A8781818B878281E9
:1017B0008C8783818D878FEF8E878EEF8F87E65C96
:1017C000FE4F8081888BF701E55CFE4F8081898B1D
:1017D000F701E45CFE4F80818B8BF701E25CFE4FEA
:1017E00080818C8BF701E15CFE4F80818D8B27E13E
:1017F000A801B701C6010E945E6AD501AD90BC90F8
:10180000B7E1AB0EB11CB801C6010E943E6DF801F4
:10181000EA0DFB1D808318E1012F9E0127583F4FE1
:10182000AE014F5F5F4FB701C3010E94796AF601B5
:10183000E258FC4F8081813021F48CEE9FE00E94C1
:101840000850512C5701E8ECAE1AEEEFBE0A012FFA
:1018500010E04601F2E88F1AFCEF9F0A0CC0E1E0AD
:10186000F0E0EC0FFD1FE80FF91FD4016C918081AF
:101870000E9456315394852D90E0EA964FADEA9739
:10188000F50120813181240F311D200F311F821776
:10189000930728F3C3010E94DE75F601E552FE4F5F
:1018A0008083F601EA52FC4F9081F701EE5AFE4F19
:1018B0009083F601E952FC4F9081F701ED5AFE4FFB
:1018C0009083F601E852FC4F9081F701EC5AFE4FED
:1018D0009083F601E752FC4F9081F701EB5AFE4FDF
:1018E0009083F601E652FC4F9081F701EA5AFE4FD1
:1018F0009083C758DF4F0FB6F894DEBF0FBECDBF41
:10190000DF91CF911F910F91FF90EF90DF90CF90DB
:10191000BF90AF909F908F907F906F905F90089551
:10192000CF93DF93EC01FC01E358FC4F83E080830D
:10193000FE01E258FC4F6083611104C08CEE9FE011
:101940000E943850FE01E158FC4F11821082FE01C6
:10195000ED54FC4F11821082FE01EB54FC4F1082BB
:10196000FE01E95AFF4F1082FE01E25CFE4F108239
:10197000FE01E45CFE4F1082FE01E35CFE4F82E854
:101980008083FE01E959FE4F1082FE01E759FE4FA8
:1019900080E28083FE01EF5DFE4F1082FE01EE5D6E
:1019A000FE4F87E08083FE01ED5DFE4F90ED90835A
:1019B000FE01EC5DFE4F1082FE01EB5DFE4F1082DA
:1019C000FE01EA5DFE4F98EC9083FE01EE58FE4F5B
:1019D0001082FE01E859FE4F94E09083FE01E95128
:1019E000FC4F8083FE01E851FC4F83E08083FE01C1
:1019F000E751FC4F81E08083FE01E552FC4F1082ED
:101A0000FE01E852FE4F82E08083FE01E752FE4F66
:101A10008083FE01E652FE4F8083FE01E552FE4FB9
:101A20008083CE010E94816ECE01DF91CF910C9414
:101A3000536D10925C0810925E0810927608109216
:101A4000780889E18093380C10923B0C83E08093F6
:101A5000D60B83E193E090935B0880935A0884E16E
:101A6000E2E8F9E0DF011D928A95E9F781E1E0EB18
:101A7000F9E0DF011D928A95E9F70895EF92FF9250
:101A80000F931F93CF93DF93CDB7DEB7E2970FB6D7
:101A9000F894DEBF0FBECDBF8C01F62EE72EFC0101
:101AA000108680E99DE00E942539813009F444C008
:101AB0006F2D7E2D80E99DE00E94CF3D8823C1F0EF
:101AC000EF92FF9287E193E09F938F93EE24E3944C
:101AD000F12CEC0EFD1EFF92EF920E94658CB70177
:101AE00087EE9FE00E94F94E81E0F80180871EC0DA
:101AF000EF92FF9282E293E09F938F93EE24E39420
:101B0000F12CEC0EFD1EFF92EF920E94658CB70146
:101B100087EE9FE00E94744F6091270F7091280F0D
:101B200087EE9FE00E94DD4EF80110860F900F9027
:101B30000F900F900F900F90F8018085E2960FB6EE
:101B4000F894DEBF0FBECDBFDF91CF911F910F91F3
:101B5000FF90EF90089587EE9FE00E94D54D8CE4B2
:101B60009FE00E94574580E99DE00C94093887EE7C
:101B70009FE00E94F54D8CE49FE00E94603E80E96A
:101B80009DE00C946337CF93DF93EB0180E99DE0F8
:101B90000E940938BE0180E99DE00E942539882312
:101BA000D9F02091680D3091690D41ED5CE0BE01E6
:101BB00080E99DE00E94653D882331F08BEB9CE03D
:101BC0000E943F2081E00FC06CE771E087EE9FE04C
:101BD0000E941C4F82E007C063E671E087EE9FE041
:101BE0000E941C4F83E0DF91CF9108950F931F93C4
:101BF000CF93DF93EC018B01188661E08BEB9CE0C7
:101C00000E949D278CE49FE00E9433449B01AC011D
:101C10006BE78BEB9CE00E94152541E353E061E408
:101C20008BEB9CE00E94DE22A80161E48BEB9CE040
:101C30000E94DE2269857A85CE010E94C30D813023
:101C400009F488878885DF91CF911F910F910895BE
:101C5000CF93DF93EC01623785E6780789F165362B
:101C600083E7780721F069377146C9F50DC065E350
:101C700073E0CE010E94F60D8DE493E09B838A838E
:101C800082E18C8384E327C06EE573E0CE010E947D
:101C9000F60D88E793E09B838A838FE08E8382E151
:101CA0008C8384E38D831F826FEF76E08BEB9CE067
:101CB0000E94EF2669E48BEB9CE00E94342014C064
:101CC00069E873E0CE010E94F60D81EA93E09B8300
:101CD0008A8381E18C838D838FE08E83E4CF62EBF6
:101CE00073E0CE010E94F60D8AE598E00E942C7BFD
:101CF0006E818AE598E00E94EE7C8091330A811122
:101D000003C06BEC73E002C06AED73E0CE010E9489
:101D1000F60DBE016C5F7F4F8AE598E00E943E7D24
:101D20008091330A811103C062EF73E002C060E06A
:101D300074E0CE010E94F60D6F818AE598E00E9462
:101D4000257C8091330A811103C069E174E002C0EF
:101D500060E374E0CE010E94F60D67E474E08AE56A
:101D600098E00E94677C8091330A811103C068E586
:101D700074E002C062E774E0CE010E94F60D8AE5CD
:101D800098E00E94BC7C8091330A811103C06AE80C
:101D900074E002C06CE974E0CE01DF91CF910C9445
:101DA000F60DCF93DF93EC0187EE9FE00E94D54DB7
:101DB00080E99DE00E94093880E99DE00E94A837F3
:101DC000811106C06EE471E087EE9FE00E941C4F17
:101DD00069857A85CE010E943E0D6B857C85CE019A
:101DE0000E943E0D6D857E85CE010E943E0D6F8561
:101DF0007889CE010E943E0D65EB74E0CE010E9411
:101E0000F60D87EE9FE00E94F54D80E99DE0DF91A1
:101E1000CF910C946337EF92FF920F931F93CF9360
:101E2000DF93CDB7DEB7A8970FB6F894DEBF0FBE2D
:101E3000CDBF7C018FED9FE00E94A3491F928F933D
:101E400029EC34E03F932F938E010F5F1F4F1F93B8
:101E50000F930E94658CB801C7010E94F60D87EEB2
:101E60009FE00E94094E0F900F900F900F900F90DF
:101E70000F90882389F06BED74E087EE9FE00E945D
:101E8000F94EB80187EE9FE00E94F94E6BED74E0C9
:101E900087EE9FE00E94F94EA8960FB6F894DEBF39
:101EA0000FBECDBFDF91CF911F910F91FF90EF90AB
:101EB00008952F923F924F925F926F927F928F92EE
:101EC0009F92AF92BF92CF92DF92EF92FF920F93C9
:101ED0001F93CF93DF93CDB7DEB7C858D1090FB6A4
:101EE000F894DEBF0FBECDBF1C010E94AB0D62EEA9
:101EF00074E0C1010E94F60D40E058E060E086E524
:101F00009CE00E94931440E050E160E086E59CE094
:101F10000E94931440E850E060E086E59CE00E9457
:101F2000931441E050E060E086E59CE00E94931449
:101F300040E050E460E086E59CE00E94931460E19C
:101F400077E280E090E00E94E02969EF74E0C1014F
:101F50000E94F60D8CE49FE00E9433446B017C01EB
:101F600040E060E078E086E59CE00E94F91EA996DA
:101F70006CAF7DAF8EAF9FAFA99741E060E078E096
:101F800086E59CE00E94F91EAD966CAF7DAF8EAFEA
:101F90009FAFAD9760E070E186E59CE00E942D2048
:101FA000E1966CAF7DAF8EAF9FAFE19760E870E0D8
:101FB00086E59CE00E942D202B013C0160E070E44E
:101FC00086E59CE00E942D20E5966CAF7DAF8EAF3C
:101FD0009FAFE59761E070E086E59CE00E942D20D0
:101FE000E9966CAF7DAF8EAF9FAFE99760E070E090
:101FF00086E59CE00E942D20ED966CAF7DAF8EAF04
:102000009FAFED9786E59CE00E94671AC358DF4FAB
:10201000688379838A839B83CD57D04086E59CE093
:102020000E946C1ACF57DF4F688379838A839B8322
:10203000C158D04086E59CE00E94621ACB57DF4F22
:10204000688379838A839B83C558D04069E075E0B3
:10205000C1010E94F60D40E058E061E086E59CE099
:102060000E94931440E050E161E086E59CE00E940C
:10207000931440E850E061E086E59CE00E949314F0
:1020800040E050E461E086E59CE00E94931441E06A
:1020900050E061E086E59CE00E949314F1018485A4
:1020A0008F9383858F9381E295E09F938F93AA24EA
:1020B000A394B12CAC0EBD1EBF92AF920E94658C52
:1020C000B501C1010E94F60D61E08BEB9CE00E941E
:1020D0009D27A70196016BE78BEB9CE00E941525DD
:1020E0008FED9FE00E94A349482F50E064E38BEB03
:1020F0009CE00E94F4258CE49FE00E9474419B01C7
:10210000AC016EE38BEB9CE00E940525F101638539
:102110007485C1010E94C30D61E08BEB9CE00E94BD
:102120009D27A70196016BE78BEB9CE00E9415258C
:1021300087E89DE00E94103662E370E080E090E066
:102140000E94E02987E89DE00E94B9338C0187E86E
:102150009DE00E94E2334C0187E89DE00E940B3431
:102160009401AC016FE38BEB9CE00E94782187E83F
:102170009DE00E947735A9962CAD3DAD4EAD5FAD8B
:10218000A99761E28BEB9CE00E940525F101638534
:102190007485C1010E94C30D61E08BEB9CE00E943D
:1021A0009D27A70196016BE78BEB9CE00E9415250C
:1021B000AD962CAD3DAD4EAD5FADAD9763E28BEB13
:1021C0009CE00E940525E1962CAD3DAD4EAD5FAD86
:1021D000E1976FE08BEB9CE00E940525E5962CAD26
:1021E0003DAD4EAD5FADE5976AE68BEB9CE00E949E
:1021F00005258BEB9CE00E943F20F10163857485EF
:10220000C1010E94C30D61E08BEB9CE00E949D2701
:10221000A70196016BE78BEB9CE00E941525C3019B
:10222000B2010E943085462F50E066E28BEB9CE0C5
:102230000E94F425E9962CAD3DAD4EAD5FADE9971A
:102240006CE28BEB9CE00E940525ED966CAD7DADBC
:102250008EAD9FADED970E943085462F50E06DE228
:102260008BEB9CE00E94F425C358DF4F2881398115
:102270004A815B81CD57D04060E68BEB9CE00E94A9
:102280000525F10163857485C1010E94C30D61E0DC
:102290008BEB9CE00E949D27A70196016BE78BEBDF
:1022A0009CE00E941525CF57DF4F288139814A8154
:1022B0005B81C158D04061E68BEB9CE00E94052514
:1022C000CB57DF4F288139814A815B81C558D04087
:1022D00062E68BEB9CE00E9405258BEB9CE00E9464
:1022E0003F20F10163857485C1010E94C30DF10196
:1022F00084858F9383858F9381E395E09F938F935C
:10230000BF92AF920E94658CB501C1010E94F60D8B
:10231000C1010E94B70D0FB6F894DEBF0FBECDBF4E
:10232000C857DF4F0FB6F894DEBF0FBECDBFDF91A9
:10233000CF911F910F91FF90EF90DF90CF90BF90C2
:10234000AF909F908F907F906F905F904F903F9055
:102350002F9008952F923F924F925F926F927F92AB
:102360008F929F92AF92BF92CF92DF92EF92FF92A5
:102370000F931F93CF93DF93CDB7DEB7C456D10928
:102380000FB6F894DEBF0FBECDBF5C0180E99DE0C3
:102390000E940938F5016385748580E99DE00E94FB
:1023A000AB3C4B01F5016785708980E99DE00E9497
:1023B000AB3C181419040CF0E0C062E475E0C501F0
:1023C0000E94F60D212C312C21013CE5C32E35E075
:1023D000D32EEE24E394F12CEC0EFD1E56E8652E70
:1023E00055E0752EF5016385748501E010E0A201CA
:1023F000910180E99DE00E948B39F50184858F93DE
:1024000083858F93DF92CF92FF92EF920E94658C2B
:10241000B70187EE9FE00E94F94EF501628173815A
:1024200043EC5DE08AE598E00E9467810F900F9091
:102430000F900F900F900F90811110C06FE675E014
:1024400087EE9FE00E94F94EF5016585768543ECA5
:102450005DE080E99DE00E945E3C1FC0F50167855C
:10246000708943EC5DE080E99DE00E945E3CF501EF
:1024700080898F9387858F937F926F92FF92EF92DF
:102480000E94658CB70187EE9FE00E94F94E0F9085
:102490000F900F900F900F900F90FFEF2F1A3F0AA1
:1024A0004F0A5F0A281439040CF49CCFF5016385A8
:1024B000748580E99DE00E94B23AF50163857485D8
:1024C00080E99DE00E94CF3DF5016785708980E934
:1024D0009DE00E94AB3CF50184858F9383858F93AB
:1024E00080898F9387858F9381EA95E09F938F935F
:1024F0008E010F5F1F4F1F930F930E94658CB801D1
:1025000087EE9FE00E94F94E0FB6F894DEBF0FBE33
:10251000CDBFC12CD12C7601F5016785708901E012
:1025200010E0A701960180E99DE00E948B39F5013A
:102530006385748543EC5DE080E99DE00E945E3C2C
:10254000FFEFCF1ADF0AEF0AFF0AC814D90424F3F9
:10255000F5016785708980E99DE00E94B23AF50136
:102560006785708980E99DE00E94CF3D64ED75E04C
:10257000C5010E94F60D11E01BC0F50184858F9303
:1025800083858F938CEE95E09F938F938E010F5FE1
:102590001F4F1F930F930E94658CB801C5010E94C5
:1025A000F60D0F900F900F900F900F900F9010E07E
:1025B00080E99DE00E946337812FCC59DF4F0FB631
:1025C000F894DEBF0FBECDBFDF91CF911F910F9169
:1025D000FF90EF90DF90CF90BF90AF909F908F9043
:1025E0007F906F905F904F903F902F900895BF9293
:1025F000CF92DF92EF92FF920F931F93CF93DF93CF
:10260000CDB7DEB7C657D1090FB6F894DEBF0FBEFF
:10261000CDBF8AE598E00E942C7B40E25FEB62E050
:1026200070E08AE598E00E94FF7D8111A7C064E612
:10263000B62E8E010F5F1F4FF8012B2D11922A9598
:10264000E9F78CE99AE04091C80B5091C90BBC01A5
:10265000C8010E94648B6BEF75E0C8010E94A98BD2
:10266000892B09F483C064E076E0C8010E94A98B3D
:10267000FC0134968AE0DE01AB59BF4F01900D9208
:102680008A95E1F7CE018B599F4F0E94298B6B01F0
:102690007C018CE49FE00E945745B701A6014E5F84
:1026A0005F4F6F4F7F4F9E0120593F4F8CE49FE05B
:1026B0000E945244F8011192BA94E9F7E196DFAC16
:1026C000E197E296EFACE297E396FFACE397E496EE
:1026D0002FADE497E6964FADE697E7966FADE79797
:1026E00030E050E070E08CE49FE00E941F411F92B8
:1026F000DF921F92EF921F92FF929F938F93E49627
:102700008FADE4971F928F93E6968FADE6971F9259
:102710008F93E7968FADE7971F928F9389E096E0AE
:102720009F938F931F930F930E94658CB8018CE445
:102730009FE00E941D460FB6F894DEBF0FBECDBFCE
:10274000811108C06CE276E085E49CE00E94F60D01
:1027500011E007C065E476E085E49CE00E94F60D98
:1027600012E08CE49FE00E94603E0FC06CE576E0D2
:1027700085E49CE00E94F60D13E007C066E776E072
:1027800085E49CE00E94F60D14E0812FCA58DF4FCB
:102790000FB6F894DEBF0FBECDBFDF91CF911F9172
:1027A0000F91FF90EF90DF90CF90BF900895E5E4F8
:1027B000FCE081E1DF011D928A95E9F782E996E06C
:1027C0009183808383EA96E090934F0C80934E0C24
:1027D0008BEA96E09093510C8093500C83EB96E03B
:1027E0009093530C8093520C8CEB96E09093550C85
:1027F0008093540C089581E08093021240E060E0E1
:102800008FED9FE00E94284940E061E08FED9FE05E
:102810000E94284980915F0F811106C041E061E06C
:102820008CE49FE00E94343E61E087E00E941A2B16
:1028300081E00895CF93DF93D82FC92F61E085E021
:102840000E94012B61E084E00E94012B61E086E0A0
:102850000E94012B61E087E00E94012B60E089E08B
:102860000E94012B61E08AE00E94012B60E088E079
:102870000E94012B61E082E00E94012B61E08EE06A
:102880000E94012B60E08FE00E94012B60E081E15B
:102890000E94012B60E083E10E94012B60E085E053
:1028A0000E941A2B60E084E00E941A2B60E086E010
:1028B0000E941A2B60E087E00E941A2B60E08AE0F9
:1028C0000E941A2B60E082E00E941A2B60E08EE0EA
:1028D0000E941A2B41E060E08FED9FE00E942849A2
:1028E00041E061E08FED9FE00E942849ED2FFC2F31
:1028F00080E6DF011D928A95E9F78091C1129091DF
:10290000C212A091C312B091C41280628093C1120E
:102910009093C212A093C312B093C412DF91CF91CF
:1029200008950C94FB1361114AC04038510509F415
:102930003FC0C0F444305105A9F148F4413051057D
:1029400099F190F14230510509F083C02BC040321B
:10295000510561F14034510549F14830510509F004
:1029600078C020C0411588E0580701F168F441158E
:1029700082E05807E9F0411584E05807B9F04115A5
:10298000514009F066C014C0411580E2580771F04B
:10299000411580E4580761F04115504109F059C0D4
:1029A00061E047C061E048C061E049C061E04AC001
:1029B00061E087E00E941A2B61E08AE044C0613048
:1029C00009F045C040385105E1F1B0F444305105FB
:1029D00091F140F44130510589F180F142305105C7
:1029E000C1F529C04032510561F14034510549F12A
:1029F0004830510571F51FC0411588E0580709F1AD
:102A000060F4411582E05807E1F0411584E0580771
:102A1000C1F041155140E9F414C0411580E2580756
:102A200081F0411580E4580761F04115504189F467
:102A300060E084E008C060E082E005C060E08EE015
:102A400002C060E087E00E941A2B81E0089580E0D8
:102A500008958FEF089560E170E080E090E00C94BD
:102A60006D2E60E170E080E090E00C940A2FCF9230
:102A7000DF92EF920F931F93CF93DF9300D0CDB7E8
:102A8000DEB76B018CEE9FE02A8349830E942050C1
:102A900064E670E080E090E00E94E02961E08DE271
:102AA0000E94012B60E08DE20E941A2B8CE49FE0D3
:102AB0000E9457452A814981B6018CE49FE00E941B
:102AC00045488CE49FE00E94603E60E084E00E9404
:102AD0001A2B60E082E00E941A2B60E087E00E94DF
:102AE0001A2B60E08AE00E941A2B60E086E00E94C8
:102AF0001A2B60E08EE00E941A2B602F8FED9FE072
:102B00000E943B4AE4FE14C060E170E080E090E087
:102B10000E946D2E0DC061E070E080E090E00E94A8
:102B2000E0298FED9FE00E943A4B115011F449C00B
:102B30001BE08BE20E94602B019769F383B7817FD2
:102B4000846083BF83B7816083BF83B7816083BFA5
:102B5000889583B78E7F83BF83B78E7F83BF602FB7
:102B60008FED9FE00E948B498091D0129091D112FD
:102B700084FD10C08CE49FE00E9457458CE49FE0E8
:102B80000E9427438CE49FE00E9441458CE49FE033
:102B90000E94603E00FF15C041E060E08FED9FE0C5
:102BA0000E94284941E061E08FED9FE00F900F9077
:102BB000DF91CF911F910F91EF90DF90CF900C9408
:102BC00028490F900F90DF91CF911F910F91EF90B7
:102BD000DF90CF9008952F923F924F925F926F9225
:102BE0007F928F929F92AF92BF92CF92DF92EF929D
:102BF000FF920F931F93CF93DF93CDB7DEB7289744
:102C00000FB6F894DEBF0FBECDBF9A8389830E94B2
:102C10008E294B015C010E948E292B013C0180E42E
:102C2000C82E82E4D82E8FE0E82EF12C212C312CF6
:102C300018861F8236C088E00E94602B8C018F812D
:102C40009885019709F501151105F1F49FEF291AEF
:102C5000390A0E948E299B01AC01241935094609C5
:102C600057092B833C834D835E830E948E292B0161
:102C70003C012B813C814D815E812C153D054E052B
:102C80005F0510F469017A010E948E2968157905A3
:102C90008A059B0520F40E948E294B015C01188750
:102CA0000F830E948E29681979098A099B09693B5B
:102CB0007B408105910508F4BECF64E670E080E0BA
:102CC00090E00E94E02909811A810F591F4FC70126
:102CD000B6010E945C8520E030E04AE754E40E949F
:102CE000C8849B01AC016AE979E989E190E40E941A
:102CF000C884F8016083718382839383B10188273C
:102D000077FD8095982F0E945E852AE939E949E18F
:102D100050E40E943E8620E030E040E450E40E940F
:102D2000C88428960FB6F894DEBF0FBECDBFDF91E2
:102D3000CF911F910F91FF90EF90DF90CF90BF90B8
:102D4000AF909F908F907F906F905F904F903F904B
:102D50002F9008950F931F93CF93DF9300D0CDB79B
:102D6000DEB719821A8280910112811104C08BEFA3
:102D700091E10E94A46566E970E080E090E00E9425
:102D8000E02942E050E064E170E08BEF91E10E94C5
:102D900039678E010F5F1F4F07C08BEF91E10E94D3
:102DA000D965F80181938F018BEF91E10E94D36582
:102DB0008111F3CF80910112882391F080918B0DC6
:102DC00081110EC080915F0F813051F08FED9FE037
:102DD0000E942F4A41E060E08CE49FE00E94343E74
:102DE0008A812981422F50E060E070E02227342F51
:102DF000452F562F280F311D411D511DA9E0B0E070
:102E00000E94F58769507048844091090E945E8550
:102E100020E03FEF4FE757E40E94C8840F900F90E7
:102E2000DF91CF911F910F910895BF92CF92DF92C2
:102E3000EF92FF920F931F93CF93DF93C62F60E023
:102E40008FE00E94012B60E081E10E94012B60E095
:102E500083E10E94012B60E08AE00E941A2BC430BB
:102E600051F0C83029F0C23081F54FE0B42E05C0D2
:102E700031E1B32E02C023E1B22E0E948E296B01F4
:102E80007C01C0E0D0E000E010E001C08C018B2D9F
:102E90000E94602B0130110519F4009709F4219666
:102EA000C03D27E0D20794F30E948E296C197D095A
:102EB0008E099F090E945C859B01AC0160E074E271
:102EC00084EF99E40E94C88404C060E070E080E868
:102ED0009FEBDF91CF911F910F91FF90EF90DF90CB
:102EE000CF90BF9008958F929F92AF92BF92CF9252
:102EF000DF92EF92FF92CF93DF9341155105F9F0E6
:102F00004130510509F047C0882777FD8095982FFB
:102F10000E945E856B017C012DEB32E546E15DE3AD
:102F20000E943E8625EC3EEF42E050E40E945F8422
:102F30004B015C0126EF34E246ED55EB1AC08827C1
:102F400077FD8095982F0E945E856B017C012DEBAB
:102F500032E546E15FE30E943E8625EC3EEF42E02B
:102F600050E40E945F844B015C012BE335E246EDA7
:102F700059EBC701B6010E943E86A70196010E9447
:102F80003E869B01AC01C501B4010E9460847B01B7
:102F9000D82FC92F04C0E12CF12CD0E0C0E020E0F4
:102FA00030E046EC52E4FE016E2D7F2D8F2F9C2FDA
:102FB0000E943386181624F4E12CF12CD8ECC2E4DC
:102FC0009E016E2D7F2D832F9C2FDF91CF91FF903F
:102FD000EF90DF90CF90BF90AF909F908F9008952B
:102FE0008F929F92AF92BF92CF92DF92EF92FF9219
:102FF0001F93CF93DF93EC01162F662319F06130F6
:1030000021F402C013E001C015E061E086E00E94F7
:10301000012B61E085E00E94012B61E086E00E94C7
:103020001A2B61E085E00E941A2B81E090E00E945B
:103030000A2A60E086E00E941A2B60E085E00E9488
:103040001A2B81E090E00E940A2A61E085E00E944C
:103050001A2B61E086E00E941A2B81E090E00E942A
:103060000A2A60E085E00E941A2B212F41E065E0EA
:1030700086E00E94942F61E085E00E941A2B60E0B8
:1030800086E00E94012B0E948E296B017C0186E064
:103090000E94602B5C0104C00E948E296B017C01A0
:1030A000AA94AB2809F0B6C00E948E296C197D093C
:1030B0008E099F096A3071058105910508F4B7C032
:1030C000A9C00E948E296B017C01AB2809F0C9C000
:1030D0000E948E296C197D098E099F096A3071053D
:1030E0008105910508F4B0C0BCC0AA94AB2809F0D2
:1030F000C6C00E948E296C197D098E099F0960390E
:1031000071408105910508F4B5C0B9C061E085E062
:103110000E941A2BEE0CFF1C86E00E94602BE80E2A
:10312000F91E60E085E00E941A2B81E0C81AD108E0
:1031300069F786E00E94602B6C010E948E294B018A
:103140005C01CD2809F0A3C00E948E296819790975
:103150008A099B096A3071058105910508F4B9C097
:1031600096C061E085E00E941A2BEE0CFF1C86E001
:103170000E94602BE80EF91E60E085E00E941A2B89
:1031800021E0C21AD10869F761E086E00E94012BB4
:1031900061E086E00E941A2B61E085E00E941A2B14
:1031A00080E991E00E940A2A60E085E00E941A2BE3
:1031B00060E086E00E941A2B1330A1F4B701882743
:1031C00077FD8095982F0E945E852AE037ED43E2D7
:1031D0005CE30E943E862DEC3CEC4EE152E40E9402
:1031E0005F8484C0153089F441E050E0B701CE011E
:1031F000DF91CF911F91FF90EF90DF90CF90BF9024
:10320000AF909F908F900C94731760E070E080E017
:1032100090E06CC060E085E00E941A2B0E948E292D
:103220006B017C0186E00E94602B5C014ECF86E042
:103230000E94602B5C010E948E296C157D058E0515
:103240009F0508F02DCF28CF86E00E94602B5C01FF
:103250000E948E296C157D058E059F0508F035CFDF
:1032600030CF86E00E94602B5C010E948E296B01AA
:103270007C013BCF86E00E94602B5C0136CF0E9430
:103280008E2968E0C62ED12CE12CF12C3FCF61E0D5
:1032900086E00E94012B60E086E00E941A2B81E00C
:1032A00090E00E940A2A61E085E00E941A2B80E9E2
:1032B00091E00E940A2A60E085E00E941A2B60E0FB
:1032C00086E00E94012B0E948E2958E0C52ED12C49
:1032D00048CF86E00E94602B6C010E948E29681501
:1032E00079058A059B0508F02CCF27CFDF91CF9178
:1032F0001F91FF90EF90DF90CF90BF90AF909F9085
:103300008F9008952F923F924F925F926F927F928B
:103310008F929F92AF92BF92CF92DF92EF92FF92E5
:103320000F931F93CF93DF93CDB7DEB727970FB6D9
:10333000F894DEBF0FBECDBF4C018A01A62EB12C82
:103340008CE49FE00E9457458CE49FE00E94694115
:10335000E090660FC090610F2090630F312C201A0F
:10336000310A8101000F111F000F111F080D191DD7
:10337000612C712C512C412CD12CF12C2A183B089A
:1033800027C081E0A81AB10820F4F7E16F2E712C54
:103390006EC0F801E60DF71D81818E1116C0808187
:1033A0008C1113C06281738180E090E00E945C8583
:1033B0009B01AC01D2016B2F742D8D2D9F2D0E948E
:1033C0006084562E472ED82EF92E84E0681A710894
:1033D000C1018A0D9B1D97FFD4CFD7CF81E0A81ADA
:1033E000B108B7FC4BC0C12CE12C00E02091660F66
:1033F0004091610F6091600F8CE49FE00E94454313
:10340000AB01BC0140585145614071099E012F5FDD
:103410003F4F8CE49FE00E945244F401E35AFF4F77
:1034200090818D8198131DC0F401E45AFF4F908163
:103430008E81981316C0F401E25AFF4F60817181AA
:1034400080E090E00E945C859B01AC01D2016B2F73
:10345000742D8D2D9F2D0E946084562E472ED82EC0
:10346000F92E81E0681A710884E0881A9108809129
:10347000630F90E0681679060CF0B0CF24E83DE0C9
:103480004FE85EE3D2016B2F742D8D2D9F2D0E948E
:103490003E8627960FB6F894DEBF0FBECDBFDF91F4
:1034A000CF911F910F91FF90EF90DF90CF90BF9041
:1034B000AF909F908F907F906F905F904F903F90D4
:1034C0002F90089541E050E068E10C94821940E0AB
:1034D00050E061E00C94821941E050E061E00C940E
:1034E0008219AF92BF92CF92DF92EF92FF920F9329
:1034F0001F93CF93DF930E948E296B017C01C0E064
:10350000D0E000E010E016C089E00E94602B5C0172
:103510000130110519F4009709F421960E948E29B3
:103520006C157D058E059F0520F40E948E296B0188
:103530007C0185010E948E296C197D098E099F09E5
:10354000693B7B4081059105F8F264E670E080E01C
:1035500090E00E94E029CE01DF91CF911F910F9161
:10356000FF90EF90DF90CF90BF90AF900895CF93F2
:10357000DF93EC018CE49FE00E9457458CE49FE0D0
:103580000E9469418091630F2091660F34E0839F10
:10359000C0011124FE01E80FF91F318132130FC061
:1035A00040813091610F43130AC0828193818F3F24
:1035B0002FEF920769F101969383828329C0FE0160
:1035C000E80FF91F21838091610F9091630FFE0135
:1035D00034E0939FE00DF11D112480838091630FEF
:1035E000FE0194E0899FE00DF11D112413821282E7
:1035F0008091630F24E0829FC00DD11D11248A8128
:103600009B818F3F3FEF930719F001969B838A833D
:10361000DF91CF910895BF92CF92DF92EF92FF9208
:103620000F931F93CF93DF93DB01C42F2C91422F75
:1036300050E026FBEE27E0F9F0E011966C9111972F
:1036400012960C91029506950695037070E080E045
:1036500090E0B2E0660F771F881F991FBA95D1F7E7
:10366000600F711D811D911D022F0F7310E020E06E
:1036700030E0DAE0000F111F221F331FDA95D1F777
:10368000600F711F821F931F440F452F441F550B5E
:103690004130510519F43197C9F006C0EF2BD9F02C
:1036A0006F5F7F4F810991090E945E8520E030E0C5
:1036B00040EC5FE30E943E8620E03FEF4FE757E497
:1036C0000E94C884B62ED72F8C0109C0B12CD0E03F
:1036D00000E010E404C0B12CD0E000E010ECC130F8
:1036E00009F053C020E030E44BE754E46B2D7D2F0C
:1036F000802F912F0E943E8620E030E44BEF54E46F
:103700000E943E862AE63FE64BE45AE40E9460842B
:103710006B017C0120E030E44BEF54E46B2D7D2FF6
:10372000802F912F0E943E869B01AC0160E078E4DF
:103730008FE495E40E945F849B01AC01C701B60150
:103740000E94C88428E431E64AE754E40E945F847A
:103750002EEA3FEF48EA54E40E94C88428EB3EEC8E
:103760004AEB54E40E943E862FE832E049E754E4F5
:103770000E94608420E030E04AE754E40E945F84C5
:1037800026E931E24AE750E410C0C11111C020E03F
:1037900030EE4BE256E46B2D7D2F802F912F0E944F
:1037A0003E8620E030E04AE754E40E94C88404C02A
:1037B00060E070E080E090E0DF91CF911F910F9189
:1037C000FF90EF90DF90CF90BF900895EF92FF921F
:1037D0000F931F93CF93DF9300D01F92CDB7DEB727
:1037E0007C0119821A821B8280910112811104C00E
:1037F0008BEF91E10E94A4656CE271E080E090E0C3
:103800000E94E02966E170E08BEF91E10E94D165B2
:1038100060EA8BEF91E10E94D16665E570E08BEF85
:1038200091E10E94FD668BEF91E10E94FF666CE2E0
:1038300071E080E090E00E94E02943E050E066E122
:1038400070E08BEF91E10E9439678E010F5F1F4F8F
:1038500007C08BEF91E10E94D965F80181938F0138
:103860008BEF91E10E94D3658111F3CF809101121A
:10387000882391F080918B0D81110EC080915F0F94
:10388000813051F08FED9FE00E942F4A41E060E0CF
:103890008CE49FE00E94343E41E0BE016F5F7F4FA9
:1038A000C7010E940B1B0F900F900F90DF91CF91DB
:1038B0001F910F91FF90EF900895EF92FF920F9359
:1038C0001F93CF93DF9300D01F92CDB7DEB77C015B
:1038D00019821A821B8280910112811104C08BEF20
:1038E00091E10E94A4656CE271E080E090E00E94AA
:1038F000E02966E170E08BEF91E10E94D16561EA19
:103900008BEF91E10E94D16665E570E08BEF91E16C
:103910000E94FD668BEF91E10E94FF666CE271E010
:1039200080E090E00E94E02943E050E066E170E032
:103930008BEF91E10E9439678E010F5F1F4F07C027
:103940008BEF91E10E94D965F80181938F018BEF94
:1039500091E10E94D3658111F3CF809101128823F8
:1039600091F080918B0D81110EC080915F0F81309D
:1039700051F08FED9FE00E942F4A41E060E08CE41F
:103980009FE00E94343E40E0BE016F5F7F4FC70161
:103990000E940B1B0F900F900F90DF91CF911F9102
:1039A0000F91FF90EF900895882777FD8095982FCD
:1039B0000E945E8520E030E44EE455E40E943E869D
:1039C00020E030EC4FE754E40E94C8842AE939E94A
:1039D00049E15FE30E94C88420E030E04AE754E414
:1039E0000E94C88424EF3DEF44E55EE30E946084BA
:1039F00022E630E148EF5EE30E94608423EA31E092
:103A00004CE35DE30E94C8840895CF92DF92EF9269
:103A1000FF92882777FD8095982F0E945E856B0125
:103A20007C0120E030E04BE953E40E943386181615
:103A30008CF427E53EE94FE05EE3C701B6010E9442
:103A40003E869B01AC016FE67AE78FE093E40E942B
:103A50005F8404C060E070E088EC92E4FF90EF9037
:103A6000DF90CF900895CF92DF92EF92FF92CF93A5
:103A7000DF93EC016A017B0120E030E040E85EE387
:103A8000C701B6010E94C48487FF04C0C05ADF4F3B
:103A90008FE05DC120E030E040E85EE3C701B601A1
:103AA0000E94338687FD0EC029E23CE54FE85EE3C5
:103AB000C701B6010E94C48487FF04C0C05ADF4F0B
:103AC00081E045C129E23CE54FE85EE3C701B6016C
:103AD0000E94338687FD0EC023E333E343EB5EE3AE
:103AE000C701B6010E94C48487FF04C0C05ADF4FDB
:103AF00018822EC123E333E343EB5EE3C701B60133
:103B00000E94338687FD0EC020E030E040E05FE396
:103B1000C701B6010E94C48487FF04C0C05ADF4FAA
:103B20008DE015C120E030E040E05FE3C701B60161
:103B30000E94338687FD0EC026E636E646E25FE346
:103B4000C701B6010E94C48487FF04C0C05ADF4F7A
:103B50008EE0FDC026E636E646E25FE3C701B60129
:103B60000E94338687FD0EC02AE939E949E55FE303
:103B7000C701B6010E94C48487FF04C0C05ADF4F4A
:103B80008BE0E5C02AE939E949E55FE3C701B60101
:103B90000E94338687FD0EC02DEC3CEC4CE85FE3C1
:103BA000C701B6010E94C48487FF04C0C05ADF4F1A
:103BB0008CE0CDC02DEC3CEC4CE85FE3C701B601D6
:103BC0000E94338687FD0EC027ED33EA40EB5FE3AA
:103BD000C701B6010E94C48487FF04C0C05ADF4FEA
:103BE00083E0B5C027ED33EA40EB5FE3C701B601E0
:103BF0000E94338687FD0EC02DEC3CEC4CEC5FE35D
:103C0000C701B6010E94C48487FF04C0C05ADF4FB9
:103C100082E09DC02DEC3CEC4CEC5FE3C701B601AB
:103C20000E94338687FD0EC028E431EE4AEF5FE341
:103C3000C701B6010E94C48487FF04C0C05ADF4F89
:103C400089E085C028E431EE4AEF5FE3C701B601A1
:103C50000E94338687FD0EC02AE939E949E050E425
:103C6000C701B6010E94C48487FF04C0C05ADF4F59
:103C70008AE06DC02AE939E949E050E4C701B6019C
:103C80000E94338687FD0EC026E636E646E150E404
:103C9000C701B6010E94C48487FF04C0C05ADF4F29
:103CA00085E055C026E636E646E150E4C701B60198
:103CB0000E94338687FD0EC026E636E646E250E4D3
:103CC000C701B6010E94C48487FF04C0C05ADF4FF9
:103CD00084E03DC026E636E646E250E4C701B60180
:103CE0000E94338687FD0EC020E030E040E350E4C0
:103CF000C701B6010E94C48487FF04C0C05ADF4FC9
:103D000087E025C020E030E040E350E4C701B60181
:103D10000E94338687FD0EC02DEC3CEC4CE350E452
:103D2000C701B6010E94C48487FF04C0C05ADF4F98
:103D300086E00DC02DEC3CEC4CE350E4C701B6012D
:103D40000E94338687FD04C0C05ADF4F88E0888315
:103D5000DF91CF91FF90EF90DF90CF90089588276B
:103D600077FD8095982F0E945E8520E030E44EE438
:103D700055E40E943E8620E030EC4FE754E40E9478
:103D8000C8842AE939E949E15FE30E94C88420E058
:103D900030E048E454E40E945F8420E030E048EFE3
:103DA00051E40E94C8840895882777FD8095982F54
:103DB0000E945E8520E030E44EE455E40E943E8699
:103DC00020E030EC4FE754E40E94C88420E030E06B
:103DD0004AEF53E40E945F8420E030E040E251E487
:103DE0000E94C884089540E061E18CEE9FE00C944D
:103DF0006C51EF92FF920F931F93CF93DF93EC01DF
:103E00006034710509F49EC0E8F46430710509F46A
:103E100055C058F46130710509F465C008F46BC0F1
:103E20006230710509F00AC143C06031710509F4BF
:103E3000D1C06032710509F47DC06830710509F0A8
:103E4000FDC042C0611584E0780709F4AAC078F487
:103E5000611581E0780709F48AC0611582E078076E
:103E600009F492C06038710509F0E8C073C06115AB
:103E700080E1780781F028F46115784009F0DEC010
:103E800099C0611580E2780709F4B8C061157044E3
:103E900009F0D4C0CAC083E00E94D62ABC01CE017A
:103EA000DF91CF911F910F91FF90EF900C94D41C54
:103EB00060E08AE00E941A2B62E00BC060E08AE0BA
:103EC0000E941A2B64E005C060E08AE00E941A2B71
:103ED00068E0CE010E9415177B018C0161E08AE049
:103EE0000E941A2BAFC0DF91CF911F910F91FF90CD
:103EF000EF900C94EB1585E00E94D62ABC0180E07F
:103F000090E00E945C8523E333E343E550E40E94A4
:103F10003E8620E030EC4FE754E40E94C8847B01E9
:103F20008C01982F4E2D5F2D692F712FCE010E948D
:103F3000331D88C0DF91CF911F910F91FF90EF90BB
:103F40000C945D1CDF91CF911F910F91FF90EF902A
:103F50000C94E61B86E00E94D62ABC01CE01DF91BC
:103F6000CF911F910F91FF90EF900C94051D84E06D
:103F70000E94D62ABC01CE01DF91CF911F910F91F3
:103F8000FF90EF900C94D41E82E00E94D62ABC01D0
:103F9000CE01DF91CF911F910F91FF90EF900C9484
:103FA000AF1ECE01DF91CF911F910F91FF90EF9047
:103FB0000C94AA16411102C060E003C04130F1F533
:103FC00061E0CE01DF91CF911F910F91FF90EF90B3
:103FD0000C94F0170E94711ABC0180E090E00E94DE
:103FE0005C8524E83DE04FE85EE30E943E8620E0E9
:103FF00030E040EA51E40E943E8614C087E00E940F
:10400000D62ABC0180E090E00E945C8523E333E384
:1040100043E550E40E943E8620E030EC4FE754E454
:104020000E94C8847B018C010DC0CE01DF91CF912D
:104030001F910F91FF90EF900C94F31EE12CF12C47
:1040400000E010E06E2D7F2D802F912FDF91CF911A
:104050001F910F91FF90EF90089540E00C94F91E8E
:1040600086E59CE00C941A14FC01663918F463830D
:104070001482089586E990E0948383830895EF92F3
:10408000FF920F931F93CF93DF93EC0187EE9FE096
:104090000E94214E0FE110E060E08DE30E94563156
:1040A00001501109C9F760E08DE00E94563160E0CF
:1040B0008AE00E9456318A81813021F460E087ECE9
:1040C00096E00CC0811104C060E085ED96E006C06A
:1040D000823009F09AC060E084EE96E00E9463317D
:1040E00060E086EF96E00E94633160E080E097E058
:1040F0000E9463317E018DEAE80EF11CF7016081B8
:10410000718180E090E000E02AE030E040E050E0A3
:104110000E94733160E08DE00E94563160E08AE0D9
:104120000E94563160E089E097E00E946331698D1A
:1041300070E080E090E02AE030E040E050E00E9453
:10414000733160E08DE00E94563160E08AE00E94A9
:10415000563160E087E197E00E94633100E010E0B3
:1041600009C0FE01E00FF11F60E086890E94FE3168
:104170000F5F1F4FF701808191810817190788F39E
:1041800060E08DE00E94563160E08AE00E94563186
:1041900060E085E297E00E946331E12CF12C8E0112
:1041A00003551F4F0AC0FE01EE0DFF1D60E086891A
:1041B0000E945631FFEFEF1AFF0AF80180819181CA
:1041C000E816F90680F360E08DE00E94563160E069
:1041D0008AE00E945631CFE1D0E060E08DE30E949A
:1041E00056312197D1F760E08DE00E94563160E0B2
:1041F0008AE00E94563187EE9FE0DF91CF911F91B8
:104200000F91FF90EF900C944F4EDF91CF911F9143
:104210000F91FF90EF900895CF93DF93C42F70E03C
:10422000FB01E851FD4F85919491D82F8130A9F47D
:104230004230B0F160E474E087EE9FE00E94784E77
:104240002AE030E041E050E060E070E087EE9FE07F
:104250000E943A4F63E674E014C0841709F168E6DF
:1042600074E087EE9FE00E94784E4D2F50E060E0B2
:1042700070E02AE030E087EE9FE00E943A4F6BE862
:1042800074E087EE9FE00E94784E4C2F50E060E093
:1042900070E02AE030E087EE9FE00E94A04E0DC063
:1042A000FB01E057FB4F85919491281741F06CE397
:1042B00075E087EE9FE00E941C4F8FEF01C081E008
:1042C000DF91CF910895FC01E355FF4F20813181AB
:1042D000620F731FDC0113968D919C9114978617C2
:1042E000970720F07183608381E0089580E008954E
:1042F0002F923F924F925F926F927F928F929F92F6
:10430000AF92BF92CF92DF92EF92FF920F931F93E3
:10431000CF93DF93CDB7DEB7AA970FB6F894DEBF81
:104320000FBECDBF7C01962E5A016901FC0182812E
:10433000813009F0EFC0E62FF0E0EE0FFF1FE057ED
:10434000FE4F85919491BC0166246394712C6C0E90
:104350007D1EC3010E94508B4E01FFE18F0E911C08
:104360004AE050E0B401C5010E94CD8B5E0145E1F9
:10437000A40EB11C4AE050E0B501C6010E94CD8BED
:104380006E015BE0C50ED11C4AE050E0B601C801E9
:104390000E94CD8BF30101900020E9F7BF0161502D
:1043A000710966197709F40101900020E9F7CF013E
:1043B000019788199909D5010D900020E9F7119707
:1043C000AA19BB09F60101900020E9F73197EC1911
:1043D000FD09680F791F6C5F7F4F6A0F7B1F6E0F9F
:1043E0007F1FC7010E946321811101C09AC0F7019C
:1043F000E355FF4F40805180D3010D900020E9F735
:104400001197A619B709F40101900020E9F7CF012F
:10441000019788199909F50101900020E9F79F019A
:10442000215031092A193B09F60101900020E9F7D2
:104430003197EC19FD098201081B190B021B130BA4
:104440000E1B1F0B1201221A330A2E1A3F0AA20159
:104450004E1B5F0B5AA749A7E20FF31F92012A1BBD
:104460003B0B281B390B2E1B3F0B2E5E3F4F2E0D97
:104470003F1DAD01B301C9010E94648BF701E00F3C
:10448000F11F8AE3828BF40101900020E9F7319754
:10449000E819F9090D5E1F4F0E0D1F1DAF01B40184
:1044A000C8010E94648BF701E20DF31D1BE3138B1F
:1044B000F50101900020E9F73197EA19FB0954E171
:1044C000250E311C2E0C3F1CAF01B501C1010E940D
:1044D000648BE9A5FAA5EE0DFF1D148BF601019082
:1044E0000020E9F73197EC19FD0929A53AA52B5EC3
:1044F0003F4F2E0D3F1DAF01B601C9010E94648BD5
:10450000F701E40DF51D83E2858BF70181818F5F53
:10451000818336C023E041E0C7010E940C218F3F18
:1045200011F48FEF32C067E070E0C7010E94632191
:104530008823B9F3D701A355BF4F0D90BC91A02D8F
:10454000AE0DBF1D1F969C921F975096AC92509730
:104550005196BC9251975296CC9252975396DC92B8
:10456000539754960C93549755961C93559756967B
:104570001C92F70181818F5F81838091680D855046
:10458000828FF701E355FF4F8081AA960FB6F8940A
:10459000DEBF0FBECDBFDF91CF911F910F91FF9076
:1045A000EF90DF90CF90BF90AF909F908F907F90D3
:1045B0006F905F904F903F902F9008955F926F9211
:1045C0007F928F929F92AF92BF92CF92DF92EF92A3
:1045D000FF920F931F93CF93DF93CDB7DEB72A9748
:1045E0000FB6F894DEBF0FBECDBF8C01962E542EB1
:1045F000852EADB6BEB6E42FF52FDF010D9000205D
:10460000E9F7AE1BBF0BA03981E0B80710F0A0E9B5
:10461000B1E06D0191E0C91AD108EDB7FEB7EA1B10
:10462000FB0B0FB6F894FEBF0FBEEDBFEDB6FEB6A6
:104630008FEFE81AF80A3701AD0160E070E0C701BA
:104640000E946D8BA601652D782DC7010E949A8B63
:104650006701D7012FE505C08C91833209F42C93B3
:104660001196F30101900020E9F73197E619F70957
:10467000CD018C199D098E179F0770F3D8011296F2
:104680008C91813009F075C0E92DF0E0EE0FFF1F2D
:10469000E057FE4F85919491BC01EE24E394F12CF8
:1046A000EC0EFD1EC7010E94508BF7010190002007
:1046B000E9F7BF01615071096E197F09D3010D90AF
:1046C0000020E9F71197A619B7096A0F7B1F6E5FE3
:1046D0007F4FC8010E946321811101C052C0F801BF
:1046E000E355FF4FC080D180F70101900020E9F72A
:1046F0003197EE19FF09D3010D900020E9F71197CA
:10470000A619B70946018A1A9B0A96012E1B3F0B70
:104710002A1B3B0B2C5E3F4F200F311FAF01B7010F
:10472000C9010E94648BF801E80DF91D8AE3848BAE
:10473000F30101900020E9F73197E619F70985E1C7
:10474000880E911C800E911EAF01B301C4010E941E
:10475000648BF801EC0DFD1D83E2858BD801119669
:104760008C9111978F5F11968C9311975A968C9319
:104770004AC021E043E0692DC8010E940C218F3F0F
:1047800011F48FEF44C0D3010D900020E9F77D01B3
:1047900081E0E81AF108E618F708B7016E5F7F4F6D
:1047A000C8010E946321882361F3F801E355FF4F9C
:1047B00020813181F30101900020E9F73197E6195A
:1047C000F709C90102978E1B9F0BF801E80FF91F2B
:1047D000968AE78A029608C0D6014D916D01F801CC
:1047E000E80FF91F468B019682179307A8F3F8018B
:1047F000E20FF31F168AF80181818F5F8183809118
:10480000680D8550828FF801E355FF4F80810FB608
:10481000F894BEBE0FBEADBE2A960FB6F894DEBFAA
:104820000FBECDBFDF91CF911F910F91FF90EF9001
:10483000DF90CF90BF90AF909F908F907F906F90C0
:104840005F9008957F928F929F92AF92BF92CF9286
:10485000DF92EF92FF920F931F93CF93DF93CDB729
:10486000DEB76E970FB6F894DEBF0FBECDBF7C01EA
:10487000B62E922E732EA42E852E402FFC018281FF
:10488000813009F07AC0CC24C394D12CCC0EDD1E2B
:104890008601242F692D732F8A2D952F0E9413894D
:1048A000EB2DF0E0EE0FFF1FE057FE4F8591949146
:1048B0008E010B5E1F4FBC01C8010E94508BF80196
:1048C00001900020E9F7BF0161507109601B710B75
:1048D000F60101900020E9F73197EC19FD096E0F00
:1048E0007F1F6E5F7F4FC7010E946321811101C04E
:1048F0004BC0F701E355FF4FA080B180F801019054
:104900000020E9F73197E01BF10BD6010D90002054
:10491000E9F71197AC19BD0945018A1A9B0A95015F
:104920002E1B3F0B2A1B3B0B2C5E3F4F2E0D3F1DBA
:10493000AF01B801C9010E94648BF701E80DF91DB0
:104940008AE3848BF60101900020E9F73197EC1996
:10495000FD0985E1880E911C8E0C9F1CAF01B601EC
:10496000C4010E94648BF701EA0DFB1D83E2858B75
:10497000F70181818F5F81832FC021E042E0C70171
:104980000E940C218F3F11F48FEF2BC065E070E087
:10499000C7010E9463218823B9F3F701E355FF4F54
:1049A000A081B181AE0DBF1D5196BC925197529618
:1049B0009C92529753967C9253975496AC925497EC
:1049C00055968C92559756961C92F70181818F5F70
:1049D00081838091680D8550828FF701E355FF4FE9
:1049E00080816E960FB6F894DEBF0FBECDBFDF910B
:1049F000CF911F910F91FF90EF90DF90CF90BF90DC
:104A0000AF909F908F907F9008950F931F93E62F04
:104A1000F0E0EC56FC4F05911491112707FD10951D
:104A20000E9422241F910F9108958F929F92AF921E
:104A3000BF92CF92DF92EF92FF920F931F93CF938B
:104A4000DF93CDB7DEB76E970FB6F894DEBF0FBE1B
:104A5000CDBF8C01F62E49015A01FC0182818130C3
:104A600009F07AC0E62FF0E0EE0FFF1FE057FE4F8F
:104A7000859194916E01F5E1CF0ED11CBC01C60168
:104A80000E94508B2AE030E0EE24E394F12CEC0EEF
:104A9000FD1EA701B401C5010E94038CF60101901F
:104AA0000020E9F7BF01615071096C197D09D70138
:104AB0000D900020E9F71197AE19BF096A0F7B1F0F
:104AC0006E5F7F4FC8010E946321811101C04BC0FE
:104AD000F801E355FF4FA080B180F601019000205E
:104AE000E9F73197EC19FD09D7010D900020E9F79E
:104AF0001197AE19BF0945018A1A9B0A95012E1B11
:104B00003F0B2A1B3B0B2C5E3F4F200F311FAF0189
:104B1000B601C9010E94648BF801E80DF91D8AE312
:104B2000848BF70101900020E9F73197EE19FF0916
:104B300025E1820E911C800E911EAF01B701C401C8
:104B40000E94648BF801EA0DFB1D83E2858BF8015E
:104B500081818F5F818330C021E044E0C8010E94E1
:104B60000C218F3F11F48FEF2CC065E070E0C8017D
:104B70000E9463218823B9F3D801A355BF4F0D903C
:104B8000BC91A02DA00FB11F5196FC925197529647
:104B90008C92529753969C9253975496AC925497FA
:104BA0005596BC92559756961C92F80181818F5F5D
:104BB00081838091680D8550828FF801E355FF4F06
:104BC00080816E960FB6F894DEBF0FBECDBFDF9129
:104BD000CF911F910F91FF90EF90DF90CF90BF90FA
:104BE000AF909F908F9008958F929F92AF92BF92B7
:104BF000CF92DF92EF92FF920F931F93CF93DF93A9
:104C0000CDB7DEB764970FB6F894DEBF0FBECDBF49
:104C10008C01F62E5A01FC018281813009F079C0A5
:104C2000E62FF0E0EE0FFF1FE057FE4F85919491C5
:104C3000BC01CC24C394D12CCC0EDD1EC6010E9435
:104C4000508B7E01FBE0EF0EF11C4AE050E0B70113
:104C5000C5010E94CD8BF60101900020E9F7BF014C
:104C6000615071096C197D09D7010D900020E9F799
:104C70001197AE19BF096A0F7B1F6E5F7F4FC80186
:104C80000E946321811101C059C0F801E355FF4F13
:104C9000A080B180F60101900020E9F73197EC196E
:104CA000FD09D7010D900020E9F71197AE19BF0952
:104CB00045018A1A9B0A95012E1B3F0B2A1B3B0BB1
:104CC0002C5E3F4F200F311FAF01B601C9010E947A
:104CD000648BF801E80DF91D8AE3848BF7010190DC
:104CE0000020E9F73197EE19FF0985E1880E911C44
:104CF000800E911EAF01B701C4010E94648BF801C0
:104D0000EA0DFB1D83E2858BF80181818F5F818332
:104D10004EC021E04F3F510509F094F440E06F2D63
:104D2000C8010E940C218F3F49F0EF2DF0E0E851BF
:104D3000FD4F859194918130E9F404C08FEF3CC020
:104D400041E0EDCF63E070E0C8010E946321882359
:104D5000A9F3F801E355FF4FA081B181A00FB11F66
:104D60005396FC9253975496AC9254975596BC9296
:104D7000559714C062E070E0C8010E946321882347
:104D8000E9F2F801E355FF4FA081B181A00FB11FF7
:104D90005496FC9254975596AC92559756961C9201
:104DA000F80181818F5F81838091680D8550828FAA
:104DB000F801E355FF4F808164960FB6F894DEBF8B
:104DC0000FBECDBFDF91CF911F910F91FF90EF905C
:104DD000DF90CF90BF90AF909F908F9008958F926B
:104DE0009F92AF92BF92CF92DF92EF92FF920F937A
:104DF0001F93CF93DF931F92CDB7DEB77C01162FA1
:104E000033E9C32ED12C60E0C60179830E94A591BD
:104E10008FEFC81AD80A7981A3EACA16D10499F784
:104E2000C7010596FC0181E1DF011D928A95E9F732
:104E3000812E972E03E910E05401F401608167018F
:104E4000C00ED11E633249F0C8010E94A591D40161
:104E50008C91F601EE58F10908C06FE5C8010E9477
:104E6000A591F601EE58F1098FE58083BFEF8B1A0B
:104E70009B0AF5018081882329F00F5F1F4F033AB9
:104E80001105D1F60F90DF91CF911F910F91FF90F7
:104E9000EF90DF90CF90BF90AF909F908F9008954C
:104EA000CF92DF92EF92FF920F931F93CF93DF93F6
:104EB0006C018B010596FC0181E1DF011D928A9551
:104EC000E9F77B01C3E9D0E0BE018CEE9FE00E94D0
:104ED0004850F601EC0FFD1FEE58F1098083F701F1
:104EE00081937F012196C33AD10571F7D80150967D
:104EF0001C92DF91CF911F910F91FF90EF90DF9067
:104F0000CF900895CF93DF93EC0160E083EA90E0C7
:104F10000E94A59186E990E09C838B83BE016B5F24
:104F20007F4F8BEB9CE0DF91CF910C94502763EA8D
:104F300070E08CEE9FE00C944850AF92BF92CF92FD
:104F4000DF92EF92FF920F931F93CF93DF93CDB732
:104F5000DEB764970FB6F894DEBF0FBECDBF8C01ED
:104F6000DC0112966C934696FC0187E9DF011D92E5
:104F70008A95E9F7F80111828CE3868B8DE3878BA4
:104F80008EE3808F8281813009F0C9C080E8818FF3
:104F9000128E83E2838F6801FDEACF0ED11C86E07A
:104FA00090E0D6018D939C934091830D5091840D98
:104FB0006091850D7091860D7F936F935F934F93F2
:104FC00083E397E09F938F931F9280E18F93EE246A
:104FD000E394F12CEC0EFD1EFF92EF920E94288CC0
:104FE000C7010FB6F894DEBF0FBECDBF9701D60143
:104FF00011C0FC016191CF016623C9F04D915C9114
:105000001197F801E40FF51F668B4F5F5F4F119604
:105010005C934E93F90101900020E9F73197E21B70
:10502000F30BAC01421B530B4E175F0710F38D912E
:105030009C911197F801E80FF91F23E2268B019646
:105040008D939C9380E090E0F801E355FF4F4FE58E
:10505000D801A80FB91F15962C91211149C06801DC
:10506000FDEACF0ED11CD6018D919C911197F801CC
:10507000E80FF91F43E2A42EA68A01968D939C9314
:10508000C8010E949727B82E7E01B1E1EB0EF11CFA
:105090004AE050E0B70190E00E94CD8BF70101900B
:1050A0000020E9F73197EE19FF09D6012D913C91C7
:1050B0002A5E3F4F200F311FAF01B701C9010E9487
:1050C000648BF70101900020E9F73197EE19FF0991
:1050D000D6018D919C91E80FF91FD801AE0FBF1F2B
:1050E0005696AC923196D601ED93FC936B2D63C02E
:1050F000A081B181A00FB11F233219F456964C93B1
:1051000002C056962C93208131812F5F3F4F31830F
:10511000208301968031910509F09ACFA0CF8111AB
:1051200002C0F801118E2091840D9091850D80911F
:10513000860D3091830DD8015B963C935B975C960E
:105140002C935C975D969C935D975E968C93F8018B
:10515000E355FF4F89E090E09183808380E090E009
:105160004FE5D801A80FB91F15962C91211129C020
:105170007801BDEAEB0EF11CF70180819181F80105
:10518000E80FF91F23E2268B0196D7018D939C939C
:10519000C8010E949727F70120813181F801E20FB1
:1051A000F31F868B2F5F3F4FD7012D933C932550E4
:1051B000F801228F682F6F5F83EA90E00E94A5912B
:1051C00017C0A081B181A00FB11F233219F45696E8
:1051D0004C9302C056962C93208131812F5F3F4F14
:1051E0003183208301968031910509F0BACFC0CF79
:1051F00064960FB6F894DEBF0FBECDBFDF91CF919E
:105200001F910F91FF90EF90DF90CF90BF90AF90E4
:1052100008958BEB9CE00C9482271F920F920FB69F
:105220000F9211240BB60F922F933F934F935F93DE
:105230006F937F938F939F93AF93BF93EF93FF935E
:10524000F89481E080930E02E0E6F0E080818068CF
:10525000808380818F7B808360E083E00E941A2BB3
:105260007894FF91EF91BF91AF919F918F917F9132
:105270006F915F914F913F912F910F900BBE0F90C7
:105280000FBE0F901F9018951F920F920FB60F929E
:1052900011248F939F93AF93BF938091B9129091F4
:1052A000BA12A091BB12B091BC120196A11DB11D02
:1052B0008093B9129093BA12A093BB12B093BC1210
:1052C000BF91AF919F918F910F900FBE0F901F9044
:1052D00018951F920F920FB60F9211248F939F93E0
:1052E000AF93BF938091BD129091BE12A091BF1257
:1052F000B091C0120196A11DB11D8093BD12909373
:10530000BE12A093BF12B093C012BF91AF919F91F4
:105310008F910F900FBE0F901F9018958F929F92B4
:10532000AF92BF92CF92DF92EF92FF920F931F93B3
:10533000CF93DF932FB7F8948091B9129091BA125E
:10534000A091BB12B091BC122FBF9C01AD0160E0D7
:1053500070E080E090E001E00E94D9884901D42FFC
:10536000C52FB62FA72FF82FE92F02E00E94D9886A
:1053700059016A017B018C0194014D2F5C2F6B2F29
:105380007A2F8F2F9E2F0E94E888E9E0AE2EB12C55
:10539000C12CD12CE12CF12C00E010E00E947C8883
:1053A000952FB901842FDF91CF911F910F91FF901D
:1053B000EF90DF90CF90BF90AF909F908F90089527
:1053C0008F929F92AF92BF92CF92DF92EF92FF9215
:1053D0004B015C0107C00E948E296C157D058E056E
:1053E0009F0520F40E948E296B017C010E948E296A
:1053F0006C197D098E099F09681579058A059B0539
:1054000050F3FF90EF90DF90CF90BF90AF909F90C0
:105410008F900895019761F0019751F0880F991FBF
:10542000880F991F02972FB7F8940197F1F72FBFB4
:105430000895789484B7877F84BF1092B912109230
:10544000BA121092BB121092BC1284B5826084BD55
:1054500084B5816084BD85B5826085BD85B5816078
:1054600085BDEEE6F0E0808181608083E1E8F0E0D8
:10547000808182608083808181608083E0E8F0E0C9
:10548000808181608083E1EBF0E0808184608083B3
:10549000E1E9F0E0808184608083E0EBF0E08081EE
:1054A00081608083E0E9F0E0808181608083E4E6D0
:1054B000F0E080818E7F8083ECE7F0E080818F7761
:1054C0008083808180648083EAE7F0E0808184606B
:1054D0008083808182608083808180688083109255
:1054E000C1001092C900089590916A0D982B909375
:1054F0006A0D80FF32C0809164008E7F80936400CB
:1055000080917C008F7780937C0080917C00806408
:1055100080937C0080917A00846080937A008091EF
:105520007A00826080937A0080917A00806880930C
:105530007A00809164008F7780936400809164008A
:105540008B7F80936400809164008D7F80936400E2
:10555000809165008E7F809365000895282F2095A7
:1055600090916A0D922390936A0D80FF1EC08091E6
:105570007A008F7780937A008091640081608093B5
:10558000640080916400806880936400809164006E
:1055900084608093640080916400826080936400E2
:1055A00080916500816080936500089590917C00F2
:1055B00020917A00206820937A009F70981769F0F4
:1055C00090917C008F70907F892B80937C0061E0AC
:1055D00070E080E090E00E94E02980917A00806491
:1055E00080937A0080917A0086FDFCCF209178002C
:1055F00030917900932F80E0AC01422B9A01C901D0
:10560000089590E0FC01E151F74F2491FC01EE5D1B
:10561000F64FE491EE2369F0F0E0EB59F64FA491D8
:10562000B0E08C91611103C02095822301C0822BD0
:105630008C93089590E0FC01E454F74F2491FC0111
:10564000E151F74F3491FC01EE5DF64F84918823D0
:10565000B1F1222331F1233021F4909180009F7722
:1056600005C0243031F4909180009F7D909380009C
:1056700018C0213019F494B59F7704C0223021F46A
:1056800094B59F7D94BD0DC0263021F49091B0005B
:105690009F7705C0273029F49091B0009F7D9093AB
:1056A000B000E82FF0E0E35AF64FA491B0E08C91FF
:1056B000611103C03095832301C0832B8C9308951F
:1056C00090E0FC01E454F74F2491FC01E151F74FC5
:1056D0003491FC01EE5DF64F8491882399F12223E9
:1056E00031F1233021F4909180009F7705C0243060
:1056F00031F4909180009F7D9093800018C02130FC
:1057000019F494B59F7704C0223021F494B59F7D9D
:1057100094BD0DC0263021F49091B0009F7705C054
:10572000273029F49091B0009F7D9093B000E82F2E
:10573000F0E0EB5AF64FE491F0E08081832321E022
:1057400030E011F420E030E0C9010895F894809130
:10575000CD129091CE1280FF18C086E20E94602B7D
:10576000892B99F08091CF128F5F8093CF12809117
:10577000D0129091D11281609093D1128093D01267
:105780008091C5128F5F8093C5128091CD12909148
:10579000CE1281FF18C087E20E94602B892B99F0FE
:1057A0008091CF128F5F8093CF128091D012909111
:1057B000D11282609093D1128093D0128091C61240
:1057C0008F5F8093C6128091CD129091CE1283FF8D
:1057D0001CC088E00E94602B892BB9F08091CF1209
:1057E0008F5F8093CF1260E085E00E941A2B80913A
:1057F000D0129091D11288609093D1128093D012E0
:105800008091C8128F5F8093C8128091CD129091C1
:10581000CE1287FF18C08DE20E94602B892B99F071
:105820008091CF128F5F8093CF128091D012909190
:10583000D11280689093D1128093D0128091CB12B4
:105840008F5F8093CB128091CD129091CE1290FFFA
:1058500018C082E10E94602B892B99F08091CF12B1
:105860008F5F8093CF128091D0129091D11291606E
:105870009093D1128093D0128091CC128F5F80933D
:10588000CC128091CD129091CE1284FF18C089E085
:105890000E94602B892B99F48091CF128F5F8093A7
:1058A000CF128091D0129091D11280619093D11239
:1058B0008093D0128091C9128F5F8093C91278941F
:1058C0000895E82FF0E0EE0FFF1FE559F24F7183C6
:1058D0006083823029F130F4882351F0813009F05F
:1058E00046C010C0833059F1843009F040C036C042
:1058F000E898809169008C7F842B80936900E09AFE
:10590000E89A0895E99880916900440F551F440F63
:10591000551F837F842B80936900E19AE99A08954B
:10592000EA988091690024E0440F551F2A95E1F719
:105930008F7C842B80936900E29AEA9A0895EB9811
:105940008091690096E0440F551F9A95E1F78F7397
:10595000842B80936900E39AEB9A0895EC988091E8
:105960006A008C7F842B80936A00E49AEC9A0895F5
:10597000F894883018F5833091F020F4813059F094
:1059800060F407C0863079F0873079F0843071F4A4
:1059900008C0E8980BC0E99809C0EA9807C0EB98DE
:1059A00005C0EC9803C0EE9801C0EF98E82FF0E036
:1059B000EE0FFF1FE559F24F11821082789408957F
:1059C0001F920F920FB60F9211240BB60F922F93C6
:1059D0003F934F935F936F937F938F939F93AF9377
:1059E000BF93EF93FF9380916B0D90916C0D892B7A
:1059F00029F0E0916B0DF0916C0D0995FF91EF91FD
:105A0000BF91AF919F918F917F916F915F914F91D6
:105A10003F912F910F900BBE0F900FBE0F901F90D4
:105A200018951F920F920FB60F9211240BB60F927A
:105A30002F933F934F935F936F937F938F939F9396
:105A4000AF93BF93EF93FF9380916D0D90916E0D87
:105A5000892B29F0E0916D0DF0916E0D0995FF9164
:105A6000EF91BF91AF919F918F917F916F915F91D6
:105A70004F913F912F910F900BBE0F900FBE0F9043
:105A80001F9018951F920F920FB60F9211240BB60C
:105A90000F922F933F934F935F936F937F938F93C7
:105AA0009F93AF93BF93EF93FF9380916F0D90916E
:105AB000700D892B29F0E0916F0DF091700D099513
:105AC000FF91EF91BF91AF919F918F917F916F91D6
:105AD0005F914F913F912F910F900BBE0F900FBE92
