:100000000C9424090C942D2D0C945E2D0C948F2DA2
:100010000C94C02D0C94F12D0C94222E0C94532E84
:100020000C94842E0C9453090C9453090C9453098A
:100030000C945A290C9453090C9453090C94B62926
:100040000C9453090C9453090C9453090C945309C0
:100050000C9453090C9453090C9453090C94912952
:100060000C9453090C942D310C9453090C9453099E
:100070000C9453090C9453090C9453090C94530990
:100080000C9453090C9453090C9453090C94530980
:100090000C9468310C9453090C9453090C945798A0
:1000A0000C9453090C9453090C9453090C94530960
:1000B0000C9453090C9453090C9453090C94530950
:1000C0000C9453090C9453090C945309076342365A
:1000D000B79BD8A71A39685618AEBAAB558C1D3CD9
:1000E000B7CC5763BD6DEDFD753EF6177231BF009D
:1000F0000000803F08000000BE922449123EABAAD7
:10010000AA2ABECDCCCC4C3E00000080BEABAAAA31
:10011000AA3E00000000BF000000803F0000000079
:1001200000084178D3BB4387D1133D190E3CC3BDB2
:100130004282AD2B3E68EC8276BED98FE1A93E4C5F
:1001400080EFFFBE01C4FF7F3F00000000004E6F44
:10015000205344206361726420696E7374616C6C17
:100160006564003B053E054205450549054D0551C1
:1001700005550559055C056005630567056B056F49
:1001800005740577057A057F05830588058B058E3F
:10019000059205960599059D05A105A505A805AD3E
:1001A00005B005B305B605BA05BE05C305C905CE3C
:1001B00005D105D505D805DB05DE05E105E505E832
:1001C00005EC05F005F305F605F905FC0500060448
:1001D0000609060D061006140619061E0622062636
:1001E000062E06320639063D06410647064B064EE8
:1001F000065106550658065D06600665066A066ED7
:1002000006730678067C06820686068C0692069998
:10021000069F06A506A906B206BC06C006C506CA04
:1002200006CF06D306D806DD06E206E906F006F795
:1002300006FE0604070A07100714071B07210727F5
:10024000072D07330738073D07420747074C07517B
:100250000758075F0766076B077007740779077E03
:100260000784078A07910797079E07A407AB07B281
:1002700007B907C007C607CD07D307DA07E107E8C4
:1002800007EE07F507FB0701080808100813081612
:100290000818081C08220827082C08320838083ECD
:1002A0000844084A08500856085C08620868086E46
:1002B00008730878087D0883088908020202020290
:1002C0000202020202020202020202020200000014
:1002D0000002000200000202020201000202020209
:1002E00002020202020202020002020202020200F2
:1002F00002010303030000010102010403030303DD
:1003000003020202020202020202020202020202CC
:1003100000000004020202020202000202020202C3
:1003200002020202020202020202020000000000B7
:1003300000000000020204020000000202020202A9
:10034000020202020202020202020202020202028D
:10035000020202020202020202020202020202027D
:100360000202020202020203030303030303030364
:100370000303030202010203030000000003000361
:100380000000030303020000020201020203020252
:100390000303030200020602030303000600000039
:1003A0000000000000020000000000000002030145
:1003B0000102030303030303030303030000000319
:1003C000020202030303000202020202020202020C
:1003D000020202020303030000000000000000000C
:1003E00003030001000000030303030303030303EB
:1003F00003030303030303030202000202000404D5
:1004000004000303030303030303030303020202C1
:100410000303034552522073656E736F7220747923
:10042000706520262076616C7565206D69736D613D
:100430007463682C2000207673200045525220738C
:10044000656E736F72207479706520262076616CFA
:100450007565206D69736D617463682C200020766A
:1004600073200001010101010101010101010101EC
:10047000010101010101010101010101010101016C
:10048000010103010101010101010101010101015A
:100490000101010101010101020101010103030147
:1004A000010103010101010101010101010101013A
:1004B0000101010101010101010303010101010128
:1004C000010101010101010101010101010101011C
:1004D000010101010101010101010101010101010C
:1004E00001010101010101010101010101010101FC
:1004F00001010101010101010101010101020101EB
:100500000101010101010101010101010101014597
:1005100052522073656E736F722074797065202655
:10052000206E756D626572206F66206669656C6409
:1005300073206D69736D6174636800434F00434FAE
:1005400032004F3200434834004C5047004E48338D
:100550000041503100415032005356004E4F32009E
:100560004F3300564F430054434100544641004826
:10057000554D410050410050570042454E440056F1
:1005800042520048414C4C004C50004C4C004C55E1
:100590004D00504952005354004D435000434447CE
:1005A00000435047004C44004455535400555300F9
:1005B0004D460050530054434200544642004855B3
:1005C0004D4200534F494C5400534F494C004C5737
:1005D00000504152005556005444005344004644D4
:1005E00000414E4500575600504C560052414400C1
:1005F0004355005746004C430044460042415400D6
:100600004750530052535349004D4143004E41005F
:100610004E494400444154450054494D4500474D1E
:10062000540052414D00494E5F54454D50004143E6
:1006300043004D494C4C495300535452004D4254D1
:10064000004D574946490055494400524200504820
:10065000004F525000444F00434F4E440057540047
:1006600044494E41004449434100444946004449FD
:10067000434C0044494252004449490044494355CF
:10068000320044494B0044494D47320044494E4FE3
:10069000330054585F50575200444D5F5354004448
:1006A0004D5F5350004C55580053504545445F4FE3
:1006B0004700434F555253455F4F4700414C54004C
:1006C00048444F500056444F500050444F5000464D
:1006D000534D00504C563100504C563200504C5641
:1006E0003300534F494C5F4300534F494C5F440024
:1006F000534F494C5F4500534F494C5F4600534FA1
:10070000494C3100534F494C3200534F494C330050
:100710005443430055535F3356330055535F3556AA
:10072000004C554D5F44004C554D5F45004C554DB8
:100730005F46004C505F44004C505F45004C505F9A
:1007400046004C4C5F44004C4C5F45004C4C5F46AF
:100750000048414C4C5F440048414C4C5F450048C8
:10076000414C4C5F460057465F430057465F45008B
:10077000545354005455524200564150490056506B
:10078000524F470056424F4F540047505F434C3240
:100790000047505F434F0047505F45544F0047505C
:1007A0005F48320047505F4832530047505F48432C
:1007B0004C0047505F48434E0047505F4E4833005F
:1007C00047505F4E4F0047505F4E4F320047505FDB
:1007D0004F320047505F5048330047505F534F320D
:1007E0000047505F4348340047505F4F3300475045
:1007F0005F434F320047505F54430047505F5446B9
:100800000047505F48554D0047505F5052455300D8
:100810005443005446005000504D3100504D325F5B
:100820003500504D31300050415254005357494328
:100830004100535749464C005357494642005357CD
:10084000494E4F00535749425200535749434C00B9
:10085000535749435500535749494F00535749503F
:1008600042005357494147005357495048005048A8
:100870005F410050485F420050485F43004F525074
:100880005F41004F52505F42004F52505F430000A3
:100890000008090000000000000000000000000047
:1008A0000000000000000000000000000000000048
:1008B0000000000000000000000000000000000038
:1008C000000001020810102040800408102040029F
:1008D0000204081020408001028020400420010111
:1008E00002040810200140804080010208040880B2
:1008F00004100402010505050503030303010101BA
:10090000040403060606060606060601040501059C
:1009100001030202020202020102020505040403AD
:10092000040401030407070700202326292C2F3283
:10093000002225282B2E3134002124272A2D303364
:100940009109A509CB09F209120A2A0A380A480AAC
:100950005D0A730A840A900A970AB40AD20AE80A5E
:10096000F60A060B290B2F0B57726F6E67207469FE
:100970006D6520666F726D61742E204D75737420E5
:100980006265202264643A68683A6D6D3A73732236
:1009900000416C61726D204D6F6465206D61746300
:1009A00068657320005B446179203A20686F757236
:1009B00073203A206D696E75746573203A207365F3
:1009C000636F6E64735D202D3E20005B446174652F
:1009D000203A20686F757273203A206D696E7574C5
:1009E0006573203A207365636F6E64735D202D3EDE
:1009F00020005B486F757273203A206D696E7574C4
:100A00006573203A207365636F6E64735D202D3EBD
:100A100020005B4D696E75746573203A20736563C1
:100A20006F6E64735D202D3E20005B5365636F6EB7
:100A300064735D202D3E20004F6E636520706572EB
:100A4000207365636F6E6400496E636F72726563D5
:100A50007420616C61726D206D6F6465005B253080
:100A600032753A253032753A253032753A253032B2
:100A7000755D005B253032753A253032753A253088
:100A800032755D005B253032753A253032755D0078
:100A90005B253032755D005B446179203A20686FD8
:100AA000757273203A206D696E75746573205D20D0
:100AB0002D3E20005B44617465203A20686F75729A
:100AC00073203A206D696E75746573205D202D3E2C
:100AD00020005B486F757273203A206D696E7574E3
:100AE00065735D202D3E20005B4D696E75746573E6
:100AF0005D202D3E20004F6E636520706572206D75
:100B0000696E7574650025732C20253032752F258C
:100B10003032752F253032752C20253032753A252C
:100B20003032753A25303275006572726F72002569
:100B300030327525632530327525632530327525B1
:100B400063253032752563253032752563253032B3
:100B500075256325303275007C3C3E5E2B3D3F2F72
:100B60005B5D3B2C2A225C00496E76616C696420D7
:100B700066696C656E616D6500F10B020C130C28E3
:100B80000C390C4C0C5F0C720C870CA80CB90CCCFB
:100B90000CDD0CF20C090D1E0D350D480D590D6ABA
:100BA0000D7D0D920DA30DB60DC70DD80DED0DFEEB
:100BB0000D0F0E400E530E640E770E880E990EAA7E
:100BC0000EBB0ECE0EDF0EF00E010F120F250F36EC
:100BD0000F470F5A0F6D0F7E0F9C0FBD0FDE0F0FCB
:100BE0001040105F108010A110C210E310041125F6
:100BF00011374530303034303835323533344330C6
:100C000036003745303030343038353235333438CB
:100C100030410037453030303630383532344435A5
:100C200039303030303030003745303030343038C3
:100C3000353234443539464600374530303035306A
:100C4000383532343234343030303000374530309B
:100C5000303530383532343135303030303000379F
:100C6000453030303530383532343134463030303C
:100C7000300037453030303630383532343934345E
:100C80003030303030300037453030304330383558
:100C9000323439343430303030303030303030303D
:100CA000303030303030300037453030303430384C
:100CB000353234393434313800374530303035301E
:100CC0003835323533344430303030003745303009
:100CD00030343038353235333444303500374530F0
:100CE00030303630383532353335343030303030DE
:100CF00030003745303030373038353235333534E1
:100D000030303030303030300037453030303630F1
:100D100038353235333530303030303030003745CB
:100D200030303037303835323533353030303030A0
:100D300030303030003745303030353038353234AF
:100D4000333438303030300037453030303430389C
:100D50003532343334383141003745303030343077
:100D60003835323445343930450037453030303548
:100D70003038353234453534303030300037453056
:100D8000303036303835323445353430303030302C
:100D90003000374530303034303835323445353432
:100DA0003033003745303030353038353234453423
:100DB000463030303000374530303034303835321E
:100DC00034453446303800374530303034303835EB
:100DD00032353735324643003745303030363038DB
:100DE0003532353334333030303030300037453001
:100DF00030303430383532353334333046003745CF
:100E000030303034303835323533343430450037D3
:100E10004530303134303835323442353930303085
:100E200030303030303030303030303030303030C2
:100E300030303030303030303030303030303000E2
:100E40003745303030353038353234353435303060
:100E50003030003745303030343038353234353486
:100E60003531420037453030303530383532353065
:100E7000344330303030003745303030343038355E
:100E80003235303443303900374530303034303843
:100E90003532343434323146003745303030343036
:100EA0003835323438353630370037453030303425
:100EB00030383532353635324644003745303030FB
:100EC0003530383532353235303030303000374516
:100ED0003030303430383532353235303033003719
:100EE00045303030343038353234313433323100FB
:100EF000374530303034303835323436353230449E
:100F000000374530303034303835323532343530D2
:100F1000450037453030303530383532353334469A
:100F200030303030003745303030343038353235BD
:100F30003334463033003745303030343038353292
:100F4000344534343133003745303030353038357E
:100F5000323435343430303030003745303030358D
:100F60003038353235333434303030300037453076
:100F70003030343038353234343443313500253272
:100F800075253275253275253275253275253275F0
:100F900025327525632532752532750050524F472D
:100FA00052414D205245434549564544204F4B241C
:100FB0002424242424242424242424240050524F90
:100FC0004752414D205245434549564544204552DC
:100FD000524F52242424242424242424240053540F
:100FE0004152542057495448204649524D57415286
:100FF00045204F4B24242424242424242424242442
:101000002424242424242424242424242424005395
:10101000544152542057495448204649524D574153
:101020005245204552524F5224242424242424245F
:101030002424242424242424242424242424240094
:101040005245414420424F4F544C49535424242488
:101050002424242424242424242424242424004E4A
:1010600045572050524F4752414D2052554E4E4900
:101070004E47242424242424242424242424240007
:1010800050524556494F55532050524F4752414DAB
:101090002052554E4E494E472424242424242424EF
:1010A0000052455354415254494E47242424242489
:1010B00024242424242424242424242424242424F0
:1010C00024004649524D574152452044454C455411
:1010D000454424242424242424242424242424248F
:1010E0002424004649524D57415245204E4F54202A
:1010F00044454C45544544242424242424242424B5
:10110000242424004649524D574152455F46494CDC
:10111000455F464F525F574153504D4F544523232F
:10112000232323230046494C4541555800636469F5
:101130006E6F70737578585B0000407A10F35A0038
:10114000A0724E18090010A5D4E80000E8764817F0
:101150000000E40B54020000CA9A3B000000E1F5D5
:1011600005000080969800000040420F000000A09B
:101170008601000000102700000000E803000000C6
:10118000006400000000000A0000000000010000F0
:101190000000002C76D888DC674F0823DFC1DFAE63
:1011A00059E1B1B796E5E3E453C63AE6519976962C
:1011B000E8E6C28426EB898C9B62ED407C6FFCEFF5
:1011C000BC9C9F40F2BAA56FA5F490055A2AF75C23
:1011D000936B6CF9676DC11BFCE0E40D47FEF520D5
:1011E000E6B500D0ED902E0300943577050080849D
:1011F0001E080000204E0A000000C80C33333333B1
:101200000F986E12831141EF8D2114893BE655161C
:10121000CFFEE6DB18D1844B381BF77C1D901DA454
:10122000BBE424203284725E228100C9F124ECA147
:10123000E53D27000A0D45147D2056296136703E94
:101240002649CB4D724F606711241FBECFEFD1E20C
:10125000DEBFCDBF18E0A0E0B2E0EAE4F5E501E0D2
:101260000BBF02C007900D92AE35B107D9F716E15A
:10127000AEE5B8E001C01D92A53EB107E1F712E16D
:10128000C8E4D2E100E006C022970109FE010BBFCD
:101290000E94359EC433D10780E00807A9F70E9459
:1012A00094320C94A3AA0C94000085EF9FE00E9456
:1012B000D84D8AE59FE00E945A4586E698E00E9454
:1012C0001D8786E698E00E940A7B81E59CE00E94EB
:1012D000F40E60E172E081E59CE00E94E70D62E2BD
:1012E00072E085EF9FE00E94E44E65E673E781E5DA
:1012F0009CE00E94380E6EE272E081E59CE00E9464
:10130000E70D64E472E085EF9FE00E94E44E6AE539
:1013100072E085EF9FE00E94E44E67E672E085EFA1
:101320009FE00E94E44E60ED77E080E090E00E9454
:101330002D2A6AE270E080E090E00E9464A060E8FC
:1013400072E081E59CE00E94E70D81E59CE00E944F
:10135000310F67E972E085EF9FE00E94E44E86E678
:1013600098E00E94D66785EF9FE00E94F84D8AE5DD
:101370009FE00C94AD3EEF920F93CF93DF9380E10B
:10138000E82E02E024E041E066EA72E084E69CE0B8
:101390000E94841584E69CE00E947E158AE59FE009
:1013A0000E945A458AE59FE00E946C418091720F2D
:1013B00080936208109263088091710F8093600897
:1013C000109261088AE59FE00E94AD3E8091DE1296
:1013D0009091DF1284FF35C060910E0281E59CE0A0
:1013E0000E949C0D62EB72E081E59CE00E94E70D9B
:1013F0008091D7128093640810926508C0E0D0E015
:101400000AC084E69CE00E94041B8091D7128150A0
:101410008093D71221968091640890916508C8172F
:10142000D9077CF38091DE129091DF128F7E90932A
:10143000DF128093DE1260910E0281E59CE00E9433
:10144000B00D8091DE129091DF1281FF04C1609196
:101450000E0281E59CE00E949C0D67EC72E081E544
:101460009CE00E94E70D8AEF9FE00E94C94F8091A7
:101470006208909163086AE070E00E946C9D892B7D
:1014800009F0D4C06CED72E081E59CE00E94E70DAC
:1014900060910E0281E59CE00E94790F8DEE9FE045
:1014A0000E94A6498D3308F461C080916208909132
:1014B0006308892B09F0BAC086E698E00E941D8770
:1014C00062E370E080E090E00E942D2A0E9402A07A
:1014D00064EF71E00E946C9D90935F0880935E08BA
:1014E000BC01882777FD8095982F0E942D2A609156
:1014F0000E0281E59CE00E94B91169EE72E081E57F
:101500009CE00E94E70D80916008909161080C9723
:1015100041F581E59CE00E94B11260910E0281E5E7
:101520009CE00E94B91181E59CE00E942E136FEFB0
:1015300072E081E59CE00E94E70D60E27FEB82E0D3
:1015400090E00E942D2A8091700F833051F464E066
:1015500070E081E59CE00E940C1481E59CE00E9413
:10156000190E60E375E780E090E053C08DEE9FE0D8
:101570000E94A6498F3108F453C080916008909171
:10158000610866E070E00E946C9D892B09F04EC0F6
:1015900086E698E00E941D8762E370E080E090E0BC
:1015A0000E942D2A0E9402A064E670E00E946C9DB9
:1015B00090935F0880935E08BC01882777FD809533
:1015C000982F0E942D2A60910E0281E59CE00E94D6
:1015D000B91169EE72E081E59CE00E94E70D80910F
:1015E0006008909161080C9781F481E59CE00E946D
:1015F0002E136FEF72E081E59CE00E94E70D60E63C
:101600007AEE80E090E00E942D2A60E177E280E0AF
:1016100090E00E942D2A86E698E00E94D66706C0D8
:1016200064E173E081E59CE00E94E70D8091DE12A9
:101630009091DF128D7F9093DF128093DE12609184
:101640000E0281E59CE00E94B00D0E94B52E8DEE49
:101650009FE00E943D4B60910E0281E59CE0DF918E
:10166000CF910F91EF900C94B00D5F926F927F929B
:101670008F929F92AF92BF92CF92DF92EF92FF92A2
:101680000F931F93CF93DF93CDB7DEB7C957D1091F
:101690000FB6F894DEBF0FBECDBF6C017B01EA969A
:1016A0001FAEEA973C010E94786DF601E552FE4FAD
:1016B00082E080838E010F5F1F4F98E7D8011D9253
:1016C0009A95E9F79EE7998391E09D83F601ED54A1
:1016D000FC4F11821082F601E752FE4F8083F70122
:1016E000908588E3A82EBB24B394AE0CBF1CD50113
:1016F0008C919230E0F5825F8B8380E18C83913016
:1017000019F48FEF8C8710C0F70184818E83858157
:101710008F83868188878781898780818A87818175
:101720008B8782818C8783818D878FEF8E878EEF69
:101730008F8721E1AE014F5F5F4FB701C3010E9468
:10174000836AF701E85CFE4F008111810F5E1F4F35
:10175000BE016F5F7F4FC3010E94636DE1E0F0E067
:10176000EC0FFD1FE00FF11F808312E146C08C5E7D
:101770008B8381E18C83F70184818E8385818F83C4
:10178000868188878781898780818A8781818B8705
:1017900082818C8783818D878FEF8E878EEF8F87F5
:1017A000E65CFE4F8081888BF701E55CFE4F80810F
:1017B000898BF701E45CFE4F80818B8BF701E25C43
:1017C000FE4F80818C8BF701E15CFE4F80818D8B19
:1017D00027E1A801B701C6010E94836AD501AD9037
:1017E000BC90B7E1AB0EB11CB801C6010E94636D9D
:1017F000F801EA0DFB1D808318E1012F9E01275897
:101800003F4FAE014F5F5F4FB701C3010E949E6A19
:10181000F601E258FC4F8081813021F48AEF9FE08D
:101820000E94F34F512C5701E8ECAE1AEEEFBE0ABE
:10183000012F10E04601F2E88F1AFCEF9F0A0CC05E
:10184000E1E0F0E0EC0FFD1FE80FF91FD4016C910F
:1018500080810E94A3315394852D90E0EA964FAD8C
:10186000EA97F50120813181240F311D200F311FAE
:101870008217930728F3C3010E94CF81F601E55236
:10188000FE4F8083F601EA52FC4F9081F701EE5A39
:10189000FE4F9083F601E952FC4F9081F701ED5A1B
:1018A000FE4F9083F601E852FC4F9081F701EC5A0D
:1018B000FE4F9083F601E752FC4F9081F701EB5AFF
:1018C000FE4F9083F601E652FC4F9081F701EA5AF1
:1018D000FE4F9083C758DF4F0FB6F894DEBF0FBEA0
:1018E000CDBFDF91CF911F910F91FF90EF90DF90CF
:1018F000CF90BF90AF909F908F907F906F905F90B0
:101900000895CF93DF93EC01FC01E358FC4F83E093
:101910008083FE01E258FC4F6083611104C08AEFAE
:101920009FE00E942350FE01E158FC4F118210827B
:10193000FE01ED54FC4F11821082FE01EB54FC4F6E
:101940001082FE01E95AFF4F1082FE01E25CFE4F59
:101950001082FE01E45CFE4F1082FE01E35CFE4F4C
:1019600082E88083FE01E959FE4F1082FE01E759AB
:10197000FE4F80E28083FE01EF5DFE4F1082FE018C
:10198000EE5DFE4F87E08083FE01ED5DFE4F90ED42
:101990009083FE01EC5DFE4F1082FE01EB5DFE4F79
:1019A0001082FE01EA5DFE4F98EC9083FE01EE5836
:1019B000FE4F1082FE01E859FE4F94E09083FE0135
:1019C000E951FC4F8083FE01E851FC4F83E08083A6
:1019D000FE01E751FC4F81E08083FE01E552FC4FA0
:1019E0001082FE01E852FE4F82E08083FE01E75242
:1019F000FE4F8083FE01E652FE4F8083FE01E552DA
:101A0000FE4F8083CE010E94A66ECE01DF91CF9162
:101A10000C94786D1092680810926A0810928208EF
:101A20001092840889E18093440C1092470C83E063
:101A30008093E20B88E293E09093670880936608B6
:101A400084E1EEE8F9E0DF011D928A95E9F781E192
:101A5000ECEBF9E0DF011D928A95E9F70895EF922A
:101A6000FF920F931F93CF93DF93CDB7DEB7E2972B
:101A70000FB6F894DEBF0FBECDBF8C01F62EE72E59
:101A8000FC0110868EE99DE00E947239813009F4D4
:101A900044C06F2D7E2D8EE99DE00E941C3E882360
:101AA000C1F0EF92FF928CE293E09F938F93EE242C
:101AB000E394F12CEC0EFD1EFF92EF920E94CFA159
:101AC000B70185EF9FE00E94E44E81E0F801808736
:101AD0001EC0EF92FF9287E393E09F938F93EE24D3
:101AE000E394F12CEC0EFD1EFF92EF920E94CFA129
:101AF000B70185EF9FE00E945F4F6091350F7091B5
:101B0000360F85EF9FE00E94C84EF80110860F90B7
:101B10000F900F900F900F900F90F8018085E29634
:101B20000FB6F894DEBF0FBECDBFDF91CF911F91EE
:101B30000F91FF90EF90089585EF9FE0662351F09D
:101B40000E94D84D8AE59FE00E945A458EE99DE0AB
:101B50000C9456380E94D84D8AE59FE00C945A4563
:101B600085EF9FE0662351F00E94F84D8AE59FE0E3
:101B70000E94AD3E8EE99DE00C94B0370E94F84D76
:101B80008AE59FE00C94AD3ECF93DF93EB018EE9A5
:101B90009DE00E945638BE018EE99DE00E94723998
:101BA000882389F02091760D3091770D4FED5CE020
:101BB000BE018EE99DE00E94B23D882311F081E0D4
:101BC00003C082E001C083E0DF91CF9108950F93BD
:101BD0001F93CF93DF93EC018B01188661E089ECB2
:101BE0009CE00E94EA278AE59FE00E9436449B0120
:101BF000AC016BE789EC9CE00E94622546E453E06F
:101C000061E489EC9CE00E942B23A80161E489EC4B
:101C10009CE00E942B2369857A85CE010E94C40D29
:101C2000813009F488878885DF91CF911F910F91CA
:101C30000895CF93DF93EC0169857A858EE99DE065
:101C40000E949F396138704F8A4F924074F06985C5
:101C50007A858EE99DE00E94FF3A6AE473E081E5AF
:101C60009CE0DF91CF910C94E70DDF91CF91089527
:101C7000CF93DF93EC01623785E67807F1F16536A3
:101C800083E7780729F06937714609F04BC013C024
:101C90006DE573E0CE010E94E70D65E773E08AEF22
:101CA0009FE00E9436508EE793E09B838A8382E117
:101CB0008C8384E333C06FE873E0CE010E94E70DAC
:101CC00065E773E08AEF9FE00E94365089EA93E06F
:101CD0009B838A838FE08E8382E18C8384E38D8370
:101CE0001F826DE277E089EC9CE00E943C2769E46A
:101CF00089EC9CE00E9481201AC06AEB73E0CE015F
:101D00000E94E70D65E773E08AEF9FE00E9436507E
:101D100082ED93E09B838A8381E18C838D838FE0C6
:101D20008E83DECF63EE73E0CE010E94E70D86E680
:101D300098E00E941D876E8186E698E00E94578990
:101D400080913F0A811103C06CEF73E002C06BE029
:101D500074E0CE010E94E70DBE016C5F7F4F86E606
:101D600098E00E94829280913F0A811103C063E251
:101D700074E002C061E374E0CE010E94E70D6F8160
:101D800086E698E00E94528880913F0A811103C044
:101D90006AE474E002C061E674E0CE010E94E70DDF
:101DA00068E774E086E698E00E94948880913F0A94
:101DB000811103C069E874E002C063EA74E0CE01F7
:101DC0000E94E70D86E698E00E94E98880913F0A2C
:101DD000811103C06BEB74E002C06DEC74E0CE01C6
:101DE000DF91CF910C94E70DCF93DF93EC018EE957
:101DF0009DE00E9456388EE99DE00E94F5378111E2
:101E000006C06EE471E085EF9FE00E94074F698590
:101E10007A85CE010E942F0D6B857C85CE010E94B4
:101E20002F0D6D857E85CE010E942F0D6F857889DF
:101E3000CE010E942F0D69897A89CE010E942F0D53
:101E400066EE74E0CE010E94E70D66EE74E085EF69
:101E50009FE00E94E44E8EE99DE0DF91CF910C94CB
:101E6000B037EF92FF920F931F93CF93DF93CDB7CD
:101E7000DEB7A8970FB6F894DEBF0FBECDBF7C01CA
:101E80008DEE9FE00E94A6491F928F932AEF34E0C7
:101E90003F932F938E010F5F1F4F1F930F930E944D
:101EA000CFA1B801C7010E94E70D6CE075E085EF96
:101EB0009FE00E94E44EB80185EF9FE00E94E44E4F
:101EC0006CE075E085EF9FE00E94E44E0F900F906C
:101ED0000F900F900F900F90A8960FB6F894DEBF5A
:101EE0000FBECDBFDF91CF911F910F91FF90EF906B
:101EF00008952F923F924F925F926F927F928F92AE
:101F00009F92AF92BF92CF92DF92EF92FF920F9388
:101F10001F93CF93DF93CDB7DEB7C558D1090FB666
:101F2000F894DEBF0FBECDBF1C01A6966FAFA6977B
:101F30000E949C0D63E175E0C1010E94E70D40E045
:101F400058E060E084E69CE00E94E61460E177E2FD
:101F500080E090E00E942D2A40E050E160E084E6BD
:101F60009CE00E94E61440E850E060E084E69CE0DB
:101F70000E94E61441E050E060E084E69CE00E94AC
:101F8000E61464E670E080E090E00E942D2A6AE2A8
:101F900075E0C1010E94E70D8AE59FE00E9436448A
:101FA0006B017C0140E060E078E084E69CE00E9408
:101FB000461FAA966CAF7DAF8EAF9FAFAA9741E048
:101FC00060E078E084E69CE00E94461FAE966CAF2D
:101FD0007DAF8EAF9FAFAE9760E070E184E69CE08E
:101FE0000E947A20E2966CAF7DAF8EAF9FAFE297F2
:101FF00060E870E084E69CE00E947A202B013C01BE
:1020000061E070E084E69CE00E947A20E6966CAF86
:102010007DAF8EAF9FAFE69760E070E084E69CE016
:102020000E947A20EA966CAF7DAF8EAF9FAFEA97A1
:1020300084E69CE00E94B41AEE966CAF7DAF8EAF42
:102040009FAFEE9784E69CE00E94B91AC258DF4F1A
:10205000688379838A839B83CE57D04084E69CE053
:102060000E94AF1ACE57DF4F688379838A839B83A0
:10207000C258D0406AE375E0C1010E94E70D40E01C
:1020800058E061E084E69CE00E94E61440E050E104
:1020900061E084E69CE00E94E61440E850E061E0E4
:1020A00084E69CE00E94E61441E050E061E084E6B2
:1020B0009CE00E94E614F10184858F9383858F93C1
:1020C00082E595E09F938F93AA24A394B12CAC0E44
:1020D000BD1EBF92AF920E94CFA1B501C1010E9467
:1020E000E70D61E089EC9CE00E94EA27A7019601D8
:1020F0006BE789EC9CE00E9462258DEE9FE00E94D8
:10210000A649482F50E064E389EC9CE00E944126F8
:102110008AE59FE00E9477419B01AC016EE389EC68
:102120009CE00E94522589EC9CE00E948C20F101E9
:1021300063857485C1010E94C40D61E089EC9CE057
:102140000E94EA27A70196016BE789EC9CE00E94B8
:10215000622585E99DE00E945D3662E370E080E0E3
:1021600090E00E942D2A85E99DE00E9406348C01B2
:1021700085E99DE00E942F344C0185E99DE00E9495
:1021800058349401AC016FE389EC9CE00E94C521B6
:1021900085E99DE00E94C435AA962CAD3DAD4EADBB
:1021A0005FADAA9761E289EC9CE00E94522589EC20
:1021B0009CE00E948C20F10163857485C1010E941E
:1021C000C40D61E089EC9CE00E94EA27A70196011A
:1021D0006BE789EC9CE00E946225AE962CAD3DAD8C
:1021E0004EAD5FADAE9763E289EC9CE00E94522554
:1021F000E2962CAD3DAD4EAD5FADE2976FE089EC60
:102200009CE00E94522589EC9CE00E948C20F10108
:1022100063857485C1010E94C40D61E089EC9CE076
:102220000E94EA27A70196016BE789EC9CE00E94D7
:102230006225C301B2010E94749A462F50E066E203
:1022400089EC9CE00E944126E6962CAD3DAD4EAD5A
:102250005FADE6976CE289EC9CE00E945225EA961D
:102260006CAD7DAD8EAD9FADEA970E94749A462FFE
:1022700050E06DE289EC9CE00E944126EE962CAD88
:102280003DAD4EAD5FADEE9760E689EC9CE00E94FF
:10229000522589EC9CE00E948C20F10163857485B5
:1022A000C1010E94C40D61E089EC9CE00E94EA2714
:1022B000A70196016BE789EC9CE00E946225C25859
:1022C000DF4F288139814A815B81CE57D04061E65A
:1022D00089EC9CE00E945225CE57DF4F288139813E
:1022E0004A815B81C258D04062E689EC9CE00E9442
:1022F000522589EC9CE00E948C20F1016385748555
:10230000C1010E94C40DF10184858F9383858F9351
:1023100082E695E09F938F93BF92AF920E94CFA1E8
:10232000B501C1010E94E70DA6966FADA697C10148
:102330000E94B00D0FB6F894DEBF0FBECDBFCB57D5
:10234000DF4F0FB6F894DEBF0FBECDBFDF91CF9148
:102350001F910F91FF90EF90DF90CF90BF90AF90C3
:102360009F908F907F906F905F904F903F902F90B5
:1023700008953F924F925F926F927F928F929F92B9
:10238000AF92BF92CF92DF92EF92FF920F931F9383
:10239000CF93DF93CDB7DEB7C456D1090FB6F8940B
:1023A000DEBF0FBECDBF7C01362E8EE99DE00E94C0
:1023B0005638F701638574858EE99DE00E94F83CEC
:1023C0005B01161617060CF093C063E775E0C701B2
:1023D0000E94E70D412C512C3201CC24C394D12C06
:1023E000CC0EDD1E4FEB842E45E0942EF701638565
:1023F000748501E010E0A30192018EE99DE00E9446
:10240000D8393320C9F05F924F92F70184858F93BA
:1024100083858F938DE895E09F938F93DF92CF9282
:102420000E94CFA1B60185EF9FE00E94E44E0FB657
:10243000F894DEBF0FBECDBFF7016281738141ED1D
:102440005DE086E698E00E94AB96811112C03320D1
:1024500031F068EA75E085EF9FE00E94E44EF701F5
:102460006585768541ED5DE08EE99DE00E94AB3C9F
:1024700021C0F7016785708941ED5DE08EE99DE03F
:102480000E94AB3C3320B1F0F70180898F938785A0
:102490008F939F928F92DF92CF920E94CFA1B6012D
:1024A00085EF9FE00E94E44E0F900F900F900F90E9
:1024B0000F900F90FFEF4F1A5F0A6F0A7F0A4A14BE
:1024C0005B040CF493CFF701638574858EE99DE07E
:1024D0000E94FF3AF701638574858EE99DE00E94B2
:1024E0001C3E6AED75E0C7010E94E70D11E01BC0BC
:1024F000F70184858F9383858F9382EF95E09F9377
:102500008F938E010F5F1F4F1F930F930E94CFA1D8
:10251000B801C7010E94E70D0F900F900F900F9028
:102520000F900F9010E08EE99DE00E94B037812F50
:10253000CC59DF4F0FB6F894DEBF0FBECDBFDF9191
:10254000CF911F910F91FF90EF90DF90CF90BF90B0
:10255000AF909F908F907F906F905F904F903F9043
:102560000895AF92BF92CF92DF92EF92FF920F93B6
:102570001F93CF93DF93EC018EE99DE00E945638C4
:102580006F8578898EE99DE00E94F83C5B01C12C43
:10259000D12C760180E2A8168EE4B806B4F025C0EE
:1025A00001E010E0A70196018EE99DE00E94D83974
:1025B0006B857C8541ED5DE08EE99DE00E94AB3C42
:1025C0008FEFC81AD80AE80AF80A6F857889CA1402
:1025D000DB0434F38EE99DE00E94FF3A6F85788931
:1025E0008EE99DE00E941C3E2BC06F85788901E03A
:1025F00010E0A70196018EE99DE00E94D839698913
:102600007A8941ED5DE08EE99DE00E94AB3C8FEF61
:10261000C81AD80AE80AF80ACA14DB0434F36F852A
:1026200078898EE99DE00E94FF3A6F8578898EE96E
:102630009DE00E941C3E61E076E0CE010E94E70D25
:102640008EE99DE0DF91CF911F910F91FF90EF9068
:10265000DF90CF90BF90AF900C94B037BF92CF92E5
:10266000DF92EF92FF920F931F93CF93DF93CDB73B
:10267000DEB7C657D1090FB6F894DEBF0FBECDBF87
:1026800086E698E00E941D8740E25FEB62E070E022
:1026900086E698E00E9443938111A5C054E6B52ECA
:1026A0008E010F5F1F4FF8012B2D11922A95E9F72C
:1026B00088EA9AE04091D40B5091D50BBC01C80137
:1026C0000E94C6A060E176E085EF9FE00E945F4F28
:1026D000B80185EF9FE00E94E44E61E276E0C80118
:1026E0000E940BA1892B09F476C06AE276E0C8014A
:1026F0000E940BA1FC0134968AE0DE01AB59BF4F6A
:1027000001900D928A95E1F7CE018B599F4F0E945F
:102710008BA06B017C018AE59FE00E945A45B701BE
:10272000A6014E5F5F4F6F4F7F4F9E0120593F4F75
:102730008AE59FE00E945544F8011192BA94E9F7A6
:10274000E1968FADE1971F928F93E2968FADE2975E
:102750001F928F93E3968FADE3971F928F93E4962A
:102760008FADE4971F928F93E5968FADE5971F92FB
:102770008F93E6968FADE6971F928F93E7968FAD76
:10278000E7971F928F938FE296E09F938F931F930B
:102790000F930E94CFA1B8018AE59FE00E942046D6
:1027A0000FB6F894DEBF0FBECDBF811108C062E541
:1027B00076E081E59CE00E94E70D11E007C06BE642
:1027C00076E081E59CE00E94E70D12E08AE59FE05B
:1027D0000E94AD3E0FC062E876E081E59CE00E9479
:1027E000E70D13E007C06CE976E081E59CE00E940C
:1027F000E70D14E0812FCA58DF4F0FB6F894DEBF03
:102800000FBECDBFDF91CF911F910F91FF90EF9041
:10281000DF90CF90BF9008950F931F93CF93DF93D6
:102820008B018AE59FE00E946C41C091720FD0E05D
:1028300086E698E00E943881882371F086E698E069
:102840000E9460918091A70A882331F086E698E083
:102850000E94E889882369F08AE59FE00E946C4124
:102860008091720F90E08C1B9D0B8017910704F3F1
:1028700007C086E698E00E943881882319F3DECFEE
:10288000DF91CF911F910F910895E1E5FCE083E185
:10289000DF011D928A95E9F788EB96E091838083AA
:1028A00089EC96E090935B0C80935A0C81ED96E056
:1028B00090935D0C80935C0C89ED96E090935F0C97
:1028C00080935E0C82EE96E09093610C8093600C96
:1028D0008CEE96E09093630C8093620C0895CF93F6
:1028E000DF93D82FC92F61E085E00E944E2B61E075
:1028F00084E00E944E2B61E086E00E944E2B61E056
:1029000087E00E944E2B60E089E00E944E2B61E040
:102910008AE00E944E2B60E088E00E944E2B61E02E
:1029200082E00E944E2B61E08EE00E944E2B60E020
:102930008FE00E944E2B60E081E10E944E2B60E010
:1029400083E10E944E2B60E085E00E94672B60E0EF
:1029500084E00E94672B60E086E00E94672B60E0C5
:1029600087E00E94672B60E08AE00E94672B60E0AE
:1029700082E00E94672B60E08EE00E94672B41E0BE
:1029800060E08DEE9FE00E942B4941E061E08DEE1A
:102990009FE00E942B49ED2FFC2F80E6DF011D9266
:1029A0008A95E9F78091CF129091D012A091D1121F
:1029B000B091D21280628093CF129093D012A093E4
:1029C000D112B093D212DF91CF91089561114AC014
:1029D0004038510509F43FC0C0F444305105A9F115
:1029E00048F44130510599F190F14230510509F018
:1029F00083C02BC04032510561F14034510549F18B
:102A00004830510509F078C020C0411588E05807CA
:102A100001F168F4411582E05807E9F0411584E0BE
:102A20005807B9F04115514009F066C014C041156E
:102A300080E2580771F0411580E4580761F04115B4
:102A4000504109F059C061E047C061E048C061E011
:102A500049C061E04AC061E087E00E94672B61E005
:102A60008AE044C0613009F045C040385105E1F1C9
:102A7000B0F44430510591F140F44130510589F1F1
:102A800080F142305105C1F529C04032510561F154
:102A90004034510549F14830510571F51FC04115C9
:102AA00088E0580709F160F4411582E05807E1F029
:102AB000411584E05807C1F041155140E9F414C0B4
:102AC000411580E2580781F0411580E4580761F014
:102AD0004115504189F460E084E008C060E082E084
:102AE00005C060E08EE002C060E087E00E94672BD6
:102AF00081E0089580E008958FEF089560E170E02F
:102B000080E090E00C94572FCF92DF92EF920F93DA
:102B10001F93CF93DF9300D0CDB7DEB76B018AEF61
:102B20009FE02A8349830E940B5064E670E080E0B6
:102B300090E00E942D2A61E08DE20E944E2B60E021
:102B40008DE20E94672B8AE59FE00E945A452A8108
:102B50004981B6018AE59FE00E9448488AE59FE0E6
:102B60000E94AD3E60E084E00E94672B60E082E05E
:102B70000E94672B60E087E00E94672B60E08AE09C
:102B80000E94672B60E086E00E94672B60E08EE089
:102B90000E94672B602F8DEE9FE00E943E4AE4FE6C
:102BA00014C060E170E080E090E00E94BA2E0DC099
:102BB00061E070E080E090E00E942D2A8DEE9FE0C1
:102BC0000E943D4B115011F449C01BE08BE20E9462
:102BD000AD2B019769F383B7817F846083BF83B78F
:102BE000816083BF83B7816083BF889583B78E7F01
:102BF00083BF83B78E7F83BF602F8DEE9FE00E94DF
:102C00008E498091DE129091DF1284FD10C08AE51A
:102C10009FE00E945A458AE59FE00E942A438AE588
:102C20009FE00E9444458AE59FE00E94AD3E00FF80
:102C300015C041E060E08DEE9FE00E942B4941E02D
:102C400061E08DEE9FE00F900F90DF91CF911F918B
:102C50000F91EF90DF90CF900C942B490F900F9035
:102C6000DF91CF911F910F91EF90DF90CF9008955A
:102C70002F923F924F925F926F927F928F929F928C
:102C8000AF92BF92CF92DF92EF92FF920F931F937A
:102C9000CF93DF93CDB7DEB728970FB6F894DEBF9A
:102CA0000FBECDBF9A8389830E94DB294B015C0153
:102CB0000E94DB292B013C0180E4C82E82E4D82E3F
:102CC0008FE0E82EF12C212C312C18861F8236C083
:102CD00088E00E94AD2B8C018F819885019709F5C2
:102CE00001151105F1F49FEF291A390A0E94DB2919
:102CF0009B01AC0124193509460957092B833C83F4
:102D00004D835E830E94DB292B013C012B813C819A
:102D10004D815E812C153D054E055F0510F469015E
:102D20007A010E94DB29681579058A059B0520F444
:102D30000E94DB294B015C0118870F830E94DB296D
:102D4000681979098A099B09693B7B4081059105CE
:102D500008F4BECF64E670E080E090E00E942D2A87
:102D600009811A810F591F4FC701B6010E94A09A0D
:102D700020E030E04AE754E40E940C9A9B01AC0149
:102D80006AE979E989E190E40E940C9AF80160838C
:102D9000718382839383B101882777FD8095982F73
:102DA0000E94A29A2AE939E949E150E40E94829BF3
:102DB00020E030E040E450E40E940C9A28960FB6E0
:102DC000F894DEBF0FBECDBFDF91CF911F910F9161
:102DD000FF90EF90DF90CF90BF90AF909F908F903B
:102DE0007F906F905F904F903F902F9008950F933A
:102DF0001F93CF93DF9300D0CDB7DEB719821A822D
:102E000080910F12811104C089E092E10E94C9658E
:102E100066E970E080E090E00E942D2A42E050E0F8
:102E200064E170E089E092E10E945E678E010F5FCD
:102E30001F4F07C089E092E10E94FE65F80181936F
:102E40008F0189E092E10E94F8658111F3CF8091B2
:102E50000F12882391F08091990D81110EC08091FD
:102E60006D0F813051F08DEE9FE00E94324A41E0BB
:102E700060E08AE59FE00E94813E8A812981422F9D
:102E800050E060E070E02227342F452F562F280FA6
:102E9000311D411D511DA9E0B0E00E94399D6950CE
:102EA0007048844091090E94A29A20E03FEF4FE7CA
:102EB00057E40E940C9A0F900F90DF91CF911F91D1
:102EC0000F910895BF92CF92DF92EF92FF920F93EE
:102ED0001F93CF93DF93C62F60E08FE00E944E2BAD
:102EE00060E081E10E944E2B60E083E10E944E2B66
:102EF00060E08AE00E94672BC43051F0C83029F0AE
:102F0000C23081F54FE0B42E05C031E1B32E02C0CE
:102F100023E1B22E0E94DB296B017C01C0E0D0E0EE
:102F200000E010E001C08C018B2D0E94AD2B013020
:102F3000110519F4009709F42196C03D27E0D20746
:102F400094F30E94DB296C197D098E099F090E9468
:102F5000A09A9B01AC0160E074E284EF99E40E94C6
:102F60000C9A04C060E070E080E89FEBDF91CF91A5
:102F70001F910F91FF90EF90DF90CF90BF90089539
:102F80008F929F92AF92BF92CF92DF92EF92FF9279
:102F9000CF93DF9341155105F9F04130510509F008
:102FA00047C0882777FD8095982F0E94A29A6B01D1
:102FB0007C012DEB32E546E15DE30E94829B25EC2E
:102FC0003EEF42E050E40E94A3994B015C0126EFE2
:102FD00034E246ED55EB1AC0882777FD8095982F8F
:102FE0000E94A29A6B017C012DEB32E546E15FE382
:102FF0000E94829B25EC3EEF42E050E40E94A399A0
:103000004B015C012BE335E246ED59EBC701B601FC
:103010000E94829BA70196010E94829B9B01AC01AA
:10302000C501B4010E94A4997B01D82FC92F04C007
:10303000E12CF12CD0E0C0E020E030E046EC52E49E
:10304000FE016E2D7F2D8F2F9C2F0E94779B1816CF
:1030500024F4E12CF12CD8ECC2E49E016E2D7F2DDE
:10306000832F9C2FDF91CF91FF90EF90DF90CF9037
:10307000BF90AF909F908F9008958F929F92AF9244
:10308000BF92CF92DF92EF92FF921F93CF93DF9385
:10309000EC01162F662319F0613021F402C013E011
:1030A00001C015E061E086E00E944E2B61E085E002
:1030B0000E944E2B61E086E00E94672B61E085E074
:1030C0000E94672B81E090E00E94572A60E086E032
:1030D0000E94672B60E085E00E94672B81E090E012
:1030E0000E94572A61E085E00E94672B61E086E03C
:1030F0000E94672B81E090E00E94572A60E085E003
:103100000E94672B212F41E065E086E00E94E12FBD
:1031100061E085E00E94672B60E086E00E944E2B14
:103120000E94DB296B017C0186E00E94AD2B5C01D3
:1031300004C00E94DB296B017C01AA94AB2809F032
:10314000B6C00E94DB296C197D098E099F096A307F
:1031500071058105910508F4B7C0A9C00E94DB295B
:103160006B017C01AB2809F0C9C00E94DB296C19F6
:103170007D098E099F096A3071058105910508F462
:10318000B0C0BCC0AA94AB2809F0C6C00E94DB291D
:103190006C197D098E099F0960397140810591057F
:1031A00008F4B5C0B9C061E085E00E94672BEE0C61
:1031B000FF1C86E00E94AD2BE80EF91E60E085E062
:1031C0000E94672B81E0C81AD10869F786E00E9447
:1031D000AD2B6C010E94DB294B015C01CD2809F06D
:1031E000A3C00E94DB29681979098A099B096A3002
:1031F00071058105910508F4B9C096C061E085E0CC
:103200000E94672BEE0CFF1C86E00E94AD2BE80E9F
:10321000F91E60E085E00E94672B21E0C21AD10808
:1032200069F761E086E00E944E2B61E086E00E9433
:10323000672B61E085E00E94672B80E991E00E94A6
:10324000572A60E085E00E94672B60E086E00E94DC
:10325000672B1330A1F4B701882777FD8095982F4D
:103260000E94A29A2AE037ED43E25CE30E94829B2F
:103270002DEC3CEC4EE152E40E94A39984C0153041
:1032800089F441E050E0B701CE01DF91CF911F9169
:10329000FF90EF90DF90CF90BF90AF909F908F9076
:1032A0000C94C01760E070E080E090E06CC060E0DB
:1032B00085E00E94672B0E94DB296B017C0186E080
:1032C0000E94AD2B5C014ECF86E00E94AD2B5C01CD
:1032D0000E94DB296C157D058E059F0508F02DCF1A
:1032E00028CF86E00E94AD2B5C010E94DB296C1583
:1032F0007D058E059F0508F035CF30CF86E00E9412
:10330000AD2B5C010E94DB296B017C013BCF86E089
:103310000E94AD2B5C0136CF0E94DB2968E0C62EEF
:10332000D12CE12CF12C3FCF61E086E00E944E2BA6
:1033300060E086E00E94672B81E090E00E94572ABF
:1033400061E085E00E94672B80E991E00E94572AA6
:1033500060E085E00E94672B60E086E00E944E2BD3
:103360000E94DB2958E0C52ED12C48CF86E00E9470
:10337000AD2B6C010E94DB29681579058A059B0538
:1033800008F02CCF27CFDF91CF911F91FF90EF90C6
:10339000DF90CF90BF90AF909F908F9008952F9225
:1033A0003F924F925F926F927F928F929F92AF92D5
:1033B000BF92CF92DF92EF92FF920F931F93CF9322
:1033C000DF93CDB7DEB727970FB6F894DEBF0FBEF9
:1033D000CDBF4C018A01A62EB12C8AE59FE00E9448
:1033E0005A458AE59FE00E946C41E090740FC090BE
:1033F0006F0F2090710F312C201A310A8101000FBC
:10340000111F000F111F080D191D612C712C512C5B
:10341000412CD12CF12C2A183B0827C081E0A81A96
:10342000B10820F4F7E16F2E712C6EC0F801E60DA3
:10343000F71D81818E1116C080818C1113C06281AD
:10344000738180E090E00E94A09A9B01AC01D201C0
:103450006B2F742D8D2D9F2D0E94A499562E472ED3
:10346000D82EF92E84E0681A7108C1018A0D9B1DBF
:1034700097FFD4CFD7CF81E0A81AB108B7FC4BC0D3
:10348000C12CE12C00E02091740F40916F0F6091EE
:103490006E0F8AE59FE00E944843AB01BC01405893
:1034A0005145614071099E012F5F3F4F8AE59FE0C2
:1034B0000E945544F401E35AFF4F90818D81981387
:1034C0001DC0F401E45AFF4F90818E81981316C0FD
:1034D000F401E25AFF4F6081718180E090E00E9428
:1034E000A09A9B01AC01D2016B2F742D8D2D9F2DC5
:1034F0000E94A499562E472ED82EF92E81E0681AE4
:10350000710884E0881A91088091710F90E0681624
:1035100079060CF0B0CF24E83DE04FE85EE3D2013D
:103520006B2F742D8D2D9F2D0E94829B27960FB699
:10353000F894DEBF0FBECDBFDF91CF911F910F91E9
:10354000FF90EF90DF90CF90BF90AF909F908F90C3
:103550007F906F905F904F903F902F90089541E043
:1035600050E068E10C94CF1940E050E061E00C9429
:10357000CF1941E050E061E00C94CF19AF92BF92B7
:10358000CF92DF92EF92FF920F931F93CF93DF932F
:103590000E94DB296B017C01C0E0D0E000E010E07C
:1035A00016C089E00E94AD2B5C010130110519F4B1
:1035B000009709F421960E94DB296C157D058E0584
:1035C0009F0520F40E94DB296B017C0185010E948C
:1035D000DB296C197D098E099F09693B7B408105B8
:1035E0009105F8F264E670E080E090E00E942D2AF8
:1035F000CE01DF91CF911F910F91FF90EF90DF905F
:10360000CF90BF90AF900895CF93DF93EC018AE500
:103610009FE00E945A458AE59FE00E946C4180919C
:10362000710F2091740F34E0839FC0011124FE01BB
:10363000E80FF91F318132130FC0408130916F0FB5
:1036400043130AC0828193818F3F2FEF920769F164
:1036500001969383828329C0FE01E80FF91F21831D
:1036600080916F0F9091710FFE0134E0939FE00DF8
:10367000F11D112480838091710FFE0194E0899FD8
:10368000E00DF11D1124138212828091710F24E04C
:10369000829FC00DD11D11248A819B818F3F3FEFF6
:1036A000930719F001969B838A83DF91CF91089548
:1036B000BF92CF92DF92EF92FF920F931F93CF931F
:1036C000DF93DB01C42F2C91422F50E026FBEE2725
:1036D000E0F9F0E011966C91119712960C91029519
:1036E00006950695037070E080E090E0B2E0660F0A
:1036F000771F881F991FBA95D1F7600F711D811D23
:10370000911D022F0F7310E020E030E0DAE0000F8F
:10371000111F221F331FDA95D1F7600F711F821F0F
:10372000931F440F452F441F550B4130510519F489
:103730003197C9F006C0EF2BD9F06F5F7F4F810939
:1037400091090E94A29A20E030E040EC5FE30E94E1
:10375000829B20E03FEF4FE757E40E940C9AB62E81
:10376000D72F8C0109C0B12CD0E000E010E404C0D8
:10377000B12CD0E000E010ECC13009F053C020E0E3
:1037800030E44BE754E46B2D7D2F802F912F0E9466
:10379000829B20E030E44BEF54E40E94829B2AE6B7
:1037A0003FE64BE45AE40E94A4996B017C0120E0BF
:1037B00030E44BEF54E46B2D7D2F802F912F0E942E
:1037C000829B9B01AC0160E078E48FE495E40E9469
:1037D000A3999B01AC01C701B6010E940C9A28E491
:1037E00031E64AE754E40E94A3992EEA3FEF48EA03
:1037F00054E40E940C9A28EB3EEC4AEB54E40E94FD
:10380000829B2FE832E049E754E40E94A49920E02B
:1038100030E04AE754E40E94A39926E931E24AE7FE
:1038200050E410C0C11111C020E030EE4BE256E46C
:103830006B2D7D2F802F912F0E94829B20E030E006
:103840004AE754E40E940C9A04C060E070E080E013
:1038500090E0DF91CF911F910F91FF90EF90DF905B
:10386000CF90BF900895EF92FF920F931F93CF9345
:10387000DF9300D01F92CDB7DEB77C0119821A8288
:103880001B8280910F12811104C089E092E10E9495
:10389000C9656CE271E080E090E00E942D2A66E14B
:1038A00070E089E092E10E94F66560EA89E092E1C9
:1038B0000E94F66665E570E089E092E10E94226769
:1038C00089E092E10E9424676CE271E080E090E080
:1038D0000E942D2A43E050E066E170E089E092E129
:1038E0000E945E678E010F5F1F4F07C089E092E163
:1038F0000E94FE65F80181938F0189E092E10E94A8
:10390000F8658111F3CF80910F12882391F0809197
:10391000990D81110EC080916D0F813051F08DEEA7
:103920009FE00E94324A41E060E08AE59FE00E9409
:10393000813E41E0BE016F5F7F4FC7010E94581B6F
:103940000F900F900F90DF91CF911F910F91FF90EB
:10395000EF900895EF92FF920F931F93CF93DF9311
:1039600000D01F92CDB7DEB77C0119821A821B826C
:1039700080910F12811104C089E092E10E94C96513
:103980006CE271E080E090E00E942D2A66E170E038
:1039900089E092E10E94F66561EA89E092E10E9485
:1039A000F66665E570E089E092E10E94226789E0B1
:1039B00092E10E9424676CE271E080E090E00E9456
:1039C0002D2A43E050E066E170E089E092E10E9438
:1039D0005E678E010F5F1F4F07C089E092E10E9472
:1039E000FE65F80181938F0189E092E10E94F865FC
:1039F0008111F3CF80910F12882391F08091990D5E
:103A000081110EC080916D0F813051F08DEE9FE0DD
:103A10000E94324A41E060E08AE59FE00E94813ED8
:103A200040E0BE016F5F7F4FC7010E94581B0F909F
:103A30000F900F90DF91CF911F910F91FF90EF901A
:103A40000895882777FD8095982F0E94A29A20E0FC
:103A500030E44EE455E40E94829B20E030EC4FE7D6
:103A600054E40E940C9A2AE939E949E15FE30E9493
:103A70000C9A20E030E04AE754E40E940C9A24EFCC
:103A80003DEF44E55EE30E94A49922E630E148EF71
:103A90005EE30E94A49923EA31E04CE35DE30E94D7
:103AA0000C9A0895CF92DF92EF92FF92882777FDCC
:103AB0008095982F0E94A29A6B017C0120E030E053
:103AC0004BE953E40E94779B18168CF427E53EE9F6
:103AD0004FE05EE3C701B6010E94829B9B01AC01EF
:103AE0006FE67AE78FE093E40E94A39904C060E058
:103AF00070E088EC92E4FF90EF90DF90CF90089513
:103B0000CF92DF92EF92FF92CF93DF93EC016A01A5
:103B10007B0120E030E040E85EE3C701B6010E948F
:103B2000089A87FF04C0C05ADF4F8FE05DC120E0D4
:103B300030E040E85EE3C701B6010E94779B87FD55
:103B40000EC029E23CE54FE85EE3C701B6010E94E2
:103B5000089A87FF04C0C05ADF4F81E045C129E2BF
:103B60003CE54FE85EE3C701B6010E94779B87FD05
:103B70000EC023E333E343EB5EE3C701B6010E94CB
:103B8000089A87FF04C0C05ADF4F18822EC123E372
:103B900033E343EB5EE3C701B6010E94779B87FDE9
:103BA0000EC020E030E040E05FE3C701B6010E94B4
:103BB000089A87FF04C0C05ADF4F8DE015C120E08E
:103BC00030E040E05FE3C701B6010E94779B87FDCC
:103BD0000EC026E636E646E25FE3C701B6010E9464
:103BE000089A87FF04C0C05ADF4F8EE0FDC026E66A
:103BF00036E646E25FE3C701B6010E94779B87FD88
:103C00000EC02AE939E949E55FE3C701B6010E9420
:103C1000089A87FF04C0C05ADF4F8BE0E5C02AE94D
:103C200039E949E55FE3C701B6010E94779B87FD4B
:103C30000EC02DEC3CEC4CE85FE3C701B6010E94DE
:103C4000089A87FF04C0C05ADF4F8CE0CDC02DEC2E
:103C50003CEC4CE85FE3C701B6010E94779B87FD0F
:103C60000EC027ED33EA40EB5FE3C701B6010E94C7
:103C7000089A87FF04C0C05ADF4F83E0B5C027ED24
:103C800033EA40EB5FE3C701B6010E94779B87FDF3
:103C90000EC02DEC3CEC4CEC5FE3C701B6010E947A
:103CA000089A87FF04C0C05ADF4F82E09DC02DEC08
:103CB0003CEC4CEC5FE3C701B6010E94779B87FDAB
:103CC0000EC028E431EE4AEF5FE3C701B6010E945F
:103CD000089A87FF04C0C05ADF4F89E085C028E4F6
:103CE00031EE4AEF5FE3C701B6010E94779B87FD83
:103CF0000EC02AE939E949E050E4C701B6010E9443
:103D0000089A87FF04C0C05ADF4F8AE06DC02AE9D5
:103D100039E949E050E4C701B6010E94779B87FD6D
:103D20000EC026E636E646E150E4C701B6010E9421
:103D3000089A87FF04C0C05ADF4F85E055C026E6C9
:103D400036E646E150E4C701B6010E94779B87FD45
:103D50000EC026E636E646E250E4C701B6010E94F0
:103D6000089A87FF04C0C05ADF4F84E03DC026E6B2
:103D700036E646E250E4C701B6010E94779B87FD14
:103D80000EC020E030E040E350E4C701B6010E94DD
:103D9000089A87FF04C0C05ADF4F87E025C020E0A3
:103DA00030E040E350E4C701B6010E94779B87FDF5
:103DB0000EC02DEC3CEC4CE350E4C701B6010E9470
:103DC000089A87FF04C0C05ADF4F86E00DC02DEC73
:103DD0003CEC4CE350E4C701B6010E94779B87FDA1
:103DE00004C0C05ADF4F88E08883DF91CF91FF90F5
:103DF000EF90DF90CF900895882777FD8095982FDA
:103E00000E94A29A20E030E44EE455E40E94829B96
:103E100020E030EC4FE754E40E940C9A2AE939E99B
:103E200049E15FE30E940C9A20E030E048E454E46A
:103E30000E94A39920E030E048EF51E40E940C9AE0
:103E40000895882777FD8095982F0E94A29A20E0F8
:103E500030E44EE455E40E94829B20E030EC4FE7D2
:103E600054E40E940C9A20E030E04AEF53E40E94B0
:103E7000A39920E030E040E251E40E940C9A0895BA
:103E800040E061E18AEF9FE00C949151EF92FF9244
:103E90000F931F93CF93DF93EC016034710509F406
:103EA0009EC0E8F46430710509F455C058F46130DF
:103EB000710509F465C008F46BC06230710509F042
:103EC0000AC143C06031710509F4D1C06032710587
:103ED00009F47DC06830710509F0FDC042C061156C
:103EE00084E0780709F4AAC078F4611581E07807C6
:103EF00009F48AC0611582E0780709F492C060383D
:103F0000710509F0E8C073C0611580E1780781F0A0
:103F100028F46115784009F0DEC099C0611580E28F
:103F2000780709F4B8C06115704409F0D4C0CAC05C
:103F300083E00E94232BBC01CE01DF91CF911F9122
:103F40000F91FF90EF900C94211D60E08AE00E9499
:103F5000672B62E00BC060E08AE00E94672B64E0A0
:103F600005C060E08AE00E94672B68E0CE010E94F5
:103F700062177B018C0161E08AE00E94672BAFC071
:103F8000DF91CF911F910F91FF90EF900C94381615
:103F900085E00E94232BBC0180E090E00E94A09A63
:103FA00023E333E343E550E40E94829B20E030ECBE
:103FB0004FE754E40E940C9A7B018C01982F4E2D00
:103FC0005F2D692F712FCE010E94801D88C0DF9167
:103FD000CF911F910F91FF90EF900C94AA1CDF914D
:103FE000CF911F910F91FF90EF900C94331C86E0BE
:103FF0000E94232BBC01CE01DF91CF911F910F9125
:10400000FF90EF900C94521D84E00E94232BBC0182
:10401000CE01DF91CF911F910F91FF90EF900C9403
:10402000211F82E00E94232BBC01CE01DF91CF91A2
:104030001F910F91FF90EF900C94FC1ECE01DF9129
:10404000CF911F910F91FF90EF900C94F7164111B3
:1040500002C060E003C04130F1F561E0CE01DF91C4
:10406000CF911F910F91FF90EF900C943D180E94FB
:10407000BE1ABC0180E090E00E94A09A24E83DE0D6
:104080004FE85EE30E94829B20E030E040EA51E48A
:104090000E94829B14C087E00E94232BBC0180E019
:1040A00090E00E94A09A23E333E343E550E40E94AA
:1040B000829B20E030EC4FE754E40E940C9A7B0195
:1040C0008C010DC0CE01DF91CF911F910F91FF9018
:1040D000EF900C94401FE12CF12C00E010E06E2DCD
:1040E0007F2D802F912FDF91CF911F910F91FF9006
:1040F000EF90089540E00C94461F84E69CE00C94F9
:104100006F14FC01663918F463831482089586E9FC
:1041100090E0948383830895EF92FF920F931F930F
:10412000CF93DF93EC0185EF9FE00E940C4E0FE1EF
:1041300010E060E08DE30E94A33101501109C9F73E
:1041400060E08DE00E94A33160E08AE00E94A3312C
:104150008A81813021F460E085EF96E00CC0811106
:1041600004C060E083E097E006C0823009F09AC0A6
:1041700060E082E197E00E94B03160E084E297E085
:104180000E94B03160E08EE297E00E94B0317E0183
:104190008DEAE80EF11CF7016081718180E090E00A
:1041A00000E02AE030E040E050E00E94C03160E0F2
:1041B0008DE00E94A33160E08AE00E94A33160E0BC
:1041C00087E397E00E94B031698D70E080E090E075
:1041D0002AE030E040E050E00E94C03160E08DE035
:1041E0000E94A33160E08AE00E94A33160E085E490
:1041F00097E00E94B03100E010E009C0FE01E00F3E
:10420000F11F60E086890E944B320F5F1F4FF7015C
:10421000808191810817190788F360E08DE00E9482
:10422000A33160E08AE00E94A33160E083E597E07B
:104230000E94B031E12CF12C8E0103551F4F0AC0B2
:10424000FE01EE0DFF1D60E086890E94A331FFEFA5
:10425000EF1AFF0AF80180819181E816F90680F3D0
:1042600060E08DE00E94A33160E08AE00E94A3310B
:10427000CFE1D0E060E08DE30E94A3312197D1F738
:1042800060E08DE00E94A33160E08AE00E94A331EB
:1042900085EF9FE0DF91CF911F910F91FF90EF90FD
:1042A0000C943A4EDF91CF911F910F91FF90EF90B8
:1042B0000895CF93DF93C42F70E0FB01E554FD4FC9
:1042C00085919491D82F8130A9F44230B0F163E107
:1042D00074E085EF9FE00E94634E2AE030E041E009
:1042E00050E060E070E085EF9FE00E94254F66E3BC
:1042F00074E014C0841709F16BE374E085EF9FE06C
:104300000E94634E4D2F50E060E070E02AE030E004
:1043100085EF9FE00E94254F6EE574E085EF9FE0FA
:104320000E94634E4C2F50E060E070E02AE030E0E5
:1043300085EF9FE00E948B4E0DC0FB01ED59FB4FB6
:1043400085919491281741F06FE075E085EF9FE02B
:104350000E94074F8FEF01C081E0DF91CF91089558
:10436000FC01E355FF4F20813181620F731FDC0197
:1043700013968D919C9114978617970720F071835F
:10438000608381E0089580E008952F923F924F92DC
:104390005F926F927F928F929F92AF92BF92CF92D5
:1043A000DF92EF92FF920F931F93CF93DF93CDB7DE
:1043B000DEB7AA970FB6F894DEBF0FBECDBF7C0163
:1043C000962E5A016901FC018281813009F0EFC00B
:1043D000E62FF0E0EE0FFF1FED59FE4F859194910F
:1043E000BC0166246394712C6C0E7D1EC3010E9477
:1043F000B2A04E01FFE18F0E911C4AE050E0B401E3
:10440000C5010E942FA15E0145E1A40EB11C4AE046
:1044100050E0B501C6010E942FA16E015BE0C50E00
:10442000D11C4AE050E0B601C8010E942FA1F3015F
:1044300001900020E9F7BF01615071096619770901
:10444000F40101900020E9F7CF010197881999093B
:10445000D5010D900020E9F71197AA19BB09F601C3
:1044600001900020E9F73197EC19FD09680F791FD9
:104470006C5F7F4F6A0F7B1F6E0F7F1FC7010E940B
:10448000B021811101C09AC0F701E355FF4F408070
:104490005180D3010D900020E9F71197A619B709B3
:1044A000F40101900020E9F7CF01019788199909DB
:1044B000F50101900020E9F79F01215031092A19E7
:1044C0003B09F60101900020E9F73197EC19FD094D
:1044D0008201081B190B021B130B0E1B1F0B120171
:1044E000221A330A2E1A3F0AA2014E1B5F0B5AA74B
:1044F00049A7E20FF31F92012A1B3B0B281B390B24
:104500002E1B3F0B2E5E3F4F2E0D3F1DAD01B30105
:10451000C9010E94C6A0F701E00FF11F8AE3828B58
:10452000F40101900020E9F73197E819F9090D5ECF
:104530001F4F0E0D1F1DAF01B401C8010E94C6A080
:10454000F701E20DF31D1BE3138BF5010190002031
:10455000E9F73197EA19FB0954E1250E311C2E0CBD
:104560003F1CAF01B501C1010E94C6A0E9A5FAA593
:10457000EE0DFF1D148BF60101900020E9F7319735
:10458000EC19FD0929A53AA52B5E3F4F2E0D3F1DC5
:10459000AF01B601C9010E94C6A0F701E40DF51DE7
:1045A00083E2858BF70181818F5F818336C023E0B1
:1045B00041E0C7010E9459218F3F11F48FEF32C0B3
:1045C00067E070E0C7010E94B0218823B9F3D701EA
:1045D000A355BF4F0D90BC91A02DAE0DBF1D1F96D2
:1045E0009C921F975096AC9250975196BC925197BF
:1045F0005296CC9252975396DC92539754960C93C2
:10460000549755961C93559756961C92F7018181A5
:104610008F5F81838091760D8550828FF701E355FE
:10462000FF4F8081AA960FB6F894DEBF0FBECDBFB4
:10463000DF91CF911F910F91FF90EF90DF90CF907E
:10464000BF90AF909F908F907F906F905F904F90B2
:104650003F902F9008955F926F927F928F929F92DA
:10466000AF92BF92CF92DF92EF92FF920F931F9380
:10467000CF93DF93CDB7DEB72A970FB6F894DEBF9E
:104680000FBECDBF8C01962E542E852EADB6BEB674
:10469000E42FF52FDF010D900020E9F7AE1BBF0BD3
:1046A000A03981E0B80710F0A0E9B1E06D0191E018
:1046B000C91AD108EDB7FEB7EA1BFB0B0FB6F89489
:1046C000FEBF0FBEEDBFEDB6FEB68FEFE81AF80ADB
:1046D0003701AD0160E070E0C7010E94CFA0A601E4
:1046E000652D782DC7010E94FCA06701D7012FE539
:1046F00005C08C91833209F42C931196F30101903B
:104700000020E9F73197E619F709CD018C199D09C9
:104710008E179F0770F3D80112968C91813009F0A3
:1047200075C0E92DF0E0EE0FFF1FED59FE4F8591AA
:104730009491BC01EE24E394F12CEC0EFD1EC70114
:104740000E94B2A0F70101900020E9F7BF0161507B
:1047500071096E197F09D3010D900020E9F71197B7
:10476000A619B7096A0F7B1F6E5F7F4FC8010E94B1
:10477000B021811101C052C0F801E355FF4FC08044
:10478000D180F70101900020E9F73197EE19FF0978
:10479000D3010D900020E9F71197A619B70946013A
:1047A0008A1A9B0A96012E1B3F0B2A1B3B0B2C5E81
:1047B0003F4F200F311FAF01B701C9010E94C6A0B2
:1047C000F801E80DF91D8AE3848BF30101900020C4
:1047D000E9F73197E619F70985E1880E911C800EFB
:1047E000911EAF01B301C4010E94C6A0F801EC0DF7
:1047F000FD1D83E2858BD80111968C9111978F5FF7
:1048000011968C9311975A968C934AC021E043E0FD
:10481000692DC8010E9459218F3F11F48FEF44C0C8
:10482000D3010D900020E9F77D0181E0E81AF1083D
:10483000E618F708B7016E5F7F4FC8010E94B021EC
:10484000882361F3F801E355FF4F20813181F301A3
:1048500001900020E9F73197E619F709C90102979D
:104860008E1B9F0BF801E80FF91F968AE78A0296C4
:1048700008C0D6014D916D01F801E80FF91F468B74
:10488000019682179307A8F3F801E20FF31F168A27
:10489000F80181818F5F81838091760D8550828FB1
:1048A000F801E355FF4F80810FB6F894BEBE0FBEEE
:1048B000ADBE2A960FB6F894DEBF0FBECDBFDF9116
:1048C000CF911F910F91FF90EF90DF90CF90BF900D
:1048D000AF909F908F907F906F905F9008957F92A0
:1048E0008F929F92AF92BF92CF92DF92EF92FF9200
:1048F0000F931F93CF93DF93CDB7DEB76E970FB6AD
:10490000F894DEBF0FBECDBF7C01B62E922E732E63
:10491000A42E852E402FFC018281813009F07AC0BF
:10492000CC24C394D12CCC0EDD1E8601242F692DFE
:10493000732F8A2D952F0E94579EEB2DF0E0EE0FDE
:10494000FF1FED59FE4F859194918E010B5E1F4F15
:10495000BC01C8010E94B2A0F80101900020E9F753
:10496000BF0161507109601B710BF60101900020BD
:10497000E9F73197EC19FD096E0F7F1F6E5F7F4FCE
:10498000C7010E94B021811101C04BC0F701E3555E
:10499000FF4FA080B180F80101900020E9F7319726
:1049A000E01BF10BD6010D900020E9F71197AC192F
:1049B000BD0945018A1A9B0A95012E1B3F0B2A1B34
:1049C0003B0B2C5E3F4F2E0D3F1DAF01B801C901BF
:1049D0000E94C6A0F701E80DF91D8AE3848BF60159
:1049E00001900020E9F73197EC19FD0985E1880E67
:1049F000911C8E0C9F1CAF01B601C4010E94C6A081
:104A0000F701EA0DFB1D83E2858BF70181818F5F42
:104A100081832FC021E042E0C7010E9459218F3FCE
:104A200011F48FEF2BC065E070E0C7010E94B02148
:104A30008823B9F3F701E355FF4FA081B181AE0D93
:104A4000BF1D5196BC92519752969C925297539685
:104A50007C9253975496AC92549755968C92559756
:104A600056961C92F70181818F5F81838091760D2C
:104A70008550828FF701E355FF4F80816E960FB608
:104A8000F894DEBF0FBECDBFDF91CF911F910F9184
:104A9000FF90EF90DF90CF90BF90AF909F908F905E
:104AA0007F9008950F931F93E62FF0E0E959FC4F94
:104AB00005911491112707FD10950E946F241F91F5
:104AC0000F9108958F929F92AF92BF92CF92DF92F3
:104AD000EF92FF920F931F93CF93DF93CDB7DEB783
:104AE0006E970FB6F894DEBF0FBECDBF8C01F62EC9
:104AF00049015A01FC018281813009F07AC0E62F18
:104B0000F0E0EE0FFF1FED59FE4F859194916E017D
:104B1000F5E1CF0ED11CBC01C6010E94B2A02AE073
:104B200030E0EE24E394F12CEC0EFD1EA701B4015D
:104B3000C5010E946DA1F60101900020E9F7BF01B7
:104B4000615071096C197D09D7010D900020E9F7BA
:104B50001197AE19BF096A0F7B1F6E5F7F4FC801A7
:104B60000E94B021811101C04BC0F801E355FF4FF5
:104B7000A080B180F60101900020E9F73197EC198F
:104B8000FD09D7010D900020E9F71197AE19BF0973
:104B900045018A1A9B0A95012E1B3F0B2A1B3B0BD2
:104BA0002C5E3F4F200F311FAF01B601C9010E949B
:104BB000C6A0F801E80DF91D8AE3848BF701019086
:104BC0000020E9F73197EE19FF0925E1820E911CCB
:104BD000800E911EAF01B701C4010E94C6A0F8016A
:104BE000EA0DFB1D83E2858BF80181818F5F818354
:104BF00030C021E044E0C8010E9459218F3F11F4E8
:104C00008FEF2CC065E070E0C8010E94B0218823BE
:104C1000B9F3D801A355BF4F0D90BC91A02DA00FA3
:104C2000B11F5196FC92519752968C92529753967F
:104C30009C9253975496AC9254975596BC92559724
:104C400056961C92F80181818F5F81838091760D49
:104C50008550828FF801E355FF4F80816E960FB625
:104C6000F894DEBF0FBECDBFDF91CF911F910F91A2
:104C7000FF90EF90DF90CF90BF90AF909F908F907C
:104C800008958F929F92AF92BF92CF92DF92EF9250
:104C9000FF920F931F93CF93DF93CDB7DEB7649747
:104CA0000FB6F894DEBF0FBECDBF8C01F62E5A01B1
:104CB000FC018281813009F079C0E62FF0E0EE0F2F
:104CC000FF1FED59FE4F85919491BC01CC24C394F4
:104CD000D12CCC0EDD1EC6010E94B2A07E01FBE0ED
:104CE000EF0EF11C4AE050E0B701C5010E942FA170
:104CF000F60101900020E9F7BF01615071096C19BC
:104D00007D09D7010D900020E9F71197AE19BF0971
:104D10006A0F7B1F6E5F7F4FC8010E94B021811117
:104D200001C059C0F801E355FF4FA080B180F601E2
:104D300001900020E9F73197EC19FD09D7010D909A
:104D40000020E9F71197AE19BF0945018A1A9B0A9D
:104D500095012E1B3F0B2A1B3B0B2C5E3F4F200F58
:104D6000311FAF01B601C9010E94C6A0F801E80DCC
:104D7000F91D8AE3848BF70101900020E9F7319750
:104D8000EE19FF0985E1880E911C800E911EAF017E
:104D9000B701C4010E94C6A0F801EA0DFB1D83E221
:104DA000858BF80181818F5F81834EC021E04F3F69
:104DB000510509F094F440E06F2DC8010E9459217B
:104DC0008F3F49F0EF2DF0E0E554FD4F8591949130
:104DD0008130E9F404C08FEF3CC041E0EDCF63E0E7
:104DE00070E0C8010E94B0218823A9F3F801E355BF
:104DF000FF4FA081B181A00FB11F5396FC92539732
:104E00005496AC9254975596BC92559714C062E054
:104E100070E0C8010E94B0218823E9F2F801E3554F
:104E2000FF4FA081B181A00FB11F5496FC925497FF
:104E30005596AC92559756961C92F80181818F5FDA
:104E400081838091760D8550828FF801E355FF4F65
:104E5000808164960FB6F894DEBF0FBECDBFDF91A0
:104E6000CF911F910F91FF90EF90DF90CF90BF9067
:104E7000AF909F908F9008958F929F92AF92BF9224
:104E8000CF92DF92EF92FF920F931F93CF93DF9316
:104E90001F92CDB7DEB77C01162F33E9C32ED12C7C
:104EA00060E0C60179830E940FA78FEFC81AD80A65
:104EB0007981A3EACA16D10499F7C7010596FC01C6
:104EC00081E1DF011D928A95E9F7812E972E03E992
:104ED00010E05401F40160816701C00ED11E6332FD
:104EE00049F0C8010E940FA7D4018C91F601EE5839
:104EF000F10908C06FE5C8010E940FA7F601EE583E
:104F0000F1098FE58083BFEF8B1A9B0AF501808141
:104F1000882329F00F5F1F4F033A1105D1F60F9038
:104F2000DF91CF911F910F91FF90EF90DF90CF9085
:104F3000BF90AF909F908F900895CF92DF92EF92A5
:104F4000FF920F931F93CF93DF936C018B01059614
:104F5000FC0181E1DF011D928A95E9F77B01C3E93C
:104F6000D0E0BE018AEF9FE00E943350F601EC0FC3
:104F7000FD1FEE58F1098083F70181937F0121968F
:104F8000C33AD10571F7D80150961C92DF91CF91A9
:104F90001F910F91FF90EF90DF90CF900895CF93E6
:104FA000DF93EC0160E083EA90E00E940FA786E9BE
:104FB00090E09C838B83BE016B5F7F4F89EC9CE00C
:104FC000DF91CF910C949D2763EA70E08AEF9FE018
:104FD0000C943350AF92BF92CF92DF92EF92FF9238
:104FE0000F931F93CF93DF93CDB7DEB764970FB6C0
:104FF000F894DEBF0FBECDBF8C01DC0112966C931E
:105000004696FC0187E9DF011D928A95E9F7F801D0
:1050100011828CE3868B8DE3878B8EE3808F828178
:10502000813009F0C9C080E8818F128E83E2838FBE
:105030006801FDEACF0ED11C86E090E0D6018D9389
:105040009C934091910D5091920D6091930D7091B0
:10505000940D7F936F935F934F9381E697E09F93B7
:105060008F931F9280E18F93EE24E394F12CEC0E4A
:10507000FD1EFF92EF920E9492A1C7010FB6F89415
:10508000DEBF0FBECDBF9701D60111C0FC016191FB
:10509000CF016623C9F04D915C911197F801E40F9F
:1050A000F51F668B4F5F5F4F11965C934E93F9012E
:1050B00001900020E9F73197E21BF30BAC01421B92
:1050C000530B4E175F0710F38D919C911197F801C8
:1050D000E80FF91F23E2268B01968D939C9380E0C5
:1050E00090E0F801E355FF4F4FE5D801A80FB91F35
:1050F00015962C91211149C06801FDEACF0ED11CF3
:10510000D6018D919C911197F801E80FF91F43E2A8
:10511000A42EA68A01968D939C93C8010E94E42731
:10512000B82E7E01B1E1EB0EF11C4AE050E0B70170
:1051300090E00E942FA1F70101900020E9F731973C
:10514000EE19FF09D6012D913C912A5E3F4F200FA9
:10515000311FAF01B701C9010E94C6A0F70101903C
:105160000020E9F73197EE19FF09D6018D919C9146
:10517000E80FF91FD801AE0FBF1F5696AC923196BB
:10518000D601ED93FC936B2D63C0A081B181A00F7C
:10519000B11F233219F456964C9302C056962C93A5
:1051A000208131812F5F3F4F3183208301968031F1
:1051B000910509F09ACFA0CF811102C0F801118E9C
:1051C0002091920D9091930D8091940D3091910DBD
:1051D000D8015B963C935B975C962C935C975D96AD
:1051E0009C935D975E968C93F801E355FF4F89E0A1
:1051F00090E09183808380E090E04FE5D801A80F94
:10520000B91F15962C91211129C07801BDEAEB0E2A
:10521000F11CF70180819181F801E80FF91F23E269
:10522000268B0196D7018D939C93C8010E94E42799
:10523000F70120813181F801E20FF31F868B2F5F88
:105240003F4FD7012D933C932550F801228F682FB3
:105250006F5F83EA90E00E940FA717C0A081B18121
:10526000A00FB11F233219F456964C9302C05696E4
:105270002C93208131812F5F3F4F31832083019612
:105280008031910509F0BACFC0CF64960FB6F8947B
:10529000DEBF0FBECDBFDF91CF911F910F91FF9069
:1052A000EF90DF90CF90BF90AF90089589EC9CE095
:1052B0000C94CF271F920F920FB60F9211240BB6AA
:1052C0000F922F933F934F935F936F937F938F939F
:1052D0009F93AF93BF93EF93FF93F89481E08093F4
:1052E0000F02E0E6F0E080818068808380818F7B20
:1052F000808360E083E00E94672B7894FF91EF91B8
:10530000BF91AF919F918F917F916F915F914F91DD
:105310003F912F910F900BBE0F900FBE0F901F90DB
:1053200018951F920F920FB60F9211248F939F938F
:10533000AF93BF938091C7129091C812A091C912E8
:10534000B091CA120196A11DB11D8093C71290930E
:10535000C812A093C912B093CA12BF91AF919F9186
:105360008F910F900FBE0F901F9018951F920F9264
:105370000FB60F9211248F939F93AF93BF93809199
:10538000CB129091CC12A091CD12B091CE12019679
:10539000A11DB11D8093CB129093CC12A093CD127E
:1053A000B093CE12BF91AF919F918F910F900FBE8E
:1053B0000F901F9018958F929F92AF92BF92CF92AD
:1053C000DF92EF92FF920F931F93CF93DF932FB74C
:1053D000F8948091C7129091C812A091C912B0910F
:1053E000CA122FBF9C01AD0160E070E080E090E048
:1053F00001E00E941D9E4901D42FC52FB62FA72F73
:10540000F82FE92F02E00E941D9E59016A017B01DD
:105410008C0194014D2F5C2F6B2F7A2F8F2F9E2F95
:105420000E942C9EE9E0AE2EB12CC12CD12CE12C97
:10543000F12C00E010E00E94C09D952FB901842F4F
:10544000DF91CF911F910F91FF90EF90DF90CF9060
:10545000BF90AF909F908F9008958F929F92AF9240
:10546000BF92CF92DF92EF92FF924B015C0107C097
:105470000E94DB296C157D058E059F0520F40E9496
:10548000DB296B017C010E94DB296C197D098E09E7
:105490009F09681579058A059B0550F3FF90EF90E9
:1054A000DF90CF90BF90AF909F908F90089501971D
:1054B00061F0019751F0880F991F880F991F02978B
:1054C0002FB7F8940197F1F72FBF0895789484B718
:1054D000877F84BF1092C7121092C8121092C9120F
:1054E0001092CA1284B5826084BD84B5816084BD87
:1054F00085B5826085BD85B5816085BDEEE6F0E04D
:10550000808181608083E1E8F0E080818260808337
:10551000808181608083E0E8F0E080818160808329
:10552000E1EBF0E0808184608083E1E9F0E080815C
:1055300084608083E0EBF0E0808181608083E0E93B
:10554000F0E0808181608083E4E6F0E080818E7FFE
:105550008083ECE7F0E080818F77808380818064B6
:105560008083EAE7F0E080818460808380818260CC
:1055700080838081806880831092C1001092C9006E
:1055800008959091780D982B9093780D80FF32C0FC
:10559000809164008E7F8093640080917C008F777F
:1055A00080937C0080917C00806480937C0080915B
:1055B0007A00846080937A0080917A008260809380
:1055C0007A0080917A00806880937A0080916400EC
:1055D0008F7780936400809164008B7F8093640058
:1055E000809164008D7F80936400809165008E7F40
:1055F000809365000895282F20959091780D92232F
:105600009093780D80FF1EC080917A008F778093F1
:105610007A008091640081608093640080916400CE
:10562000806880936400809164008460809364004B
:105630008091640082608093640080916500816045
:1056400080936500089590917C0020917A002068F5
:1056500020937A009F70981769F090917C008F706A
:10566000907F892B80937C0061E070E080E090E087
:105670000E942D2A80917A00806480937A00809124
:105680007A0086FDFCCF2091780030917900932F2D
:1056900080E0AC01422B9A01C901089590E0FC0121
:1056A000EE53F74F2491FC01EB50F74FE491EE23BA
:1056B00069F0F0E0E85CF64FA491B0E08C916111E4
:1056C00003C02095822301C0822B8C93089590E023
:1056D000FC01E157F74F2491FC01EE53F74F349151
:1056E000FC01EB50F74F84918823B1F1222331F173
:1056F000233021F4909180009F7705C0243031F44D
:10570000909180009F7D9093800018C0213019F403
:1057100094B59F7704C0223021F494B59F7D94BD49
:105720000DC0263021F49091B0009F7705C027303E
:1057300029F49091B0009F7D9093B000E82FF0E0A5
:10574000E05DF64FA491B0E08C91611103C03095FB
:10575000832301C0832B8C93089590E0FC01E157D3
:10576000F74F2491FC01EE53F74F3491FC01EB50BD
:10577000F74F8491882399F1222331F1233021F4CA
:10578000909180009F7705C0243031F49091800083
:105790009F7D9093800018C0213019F494B59F77B5
:1057A00004C0223021F494B59F7D94BD0DC02630F5
:1057B00021F49091B0009F7705C0273029F4909193
:1057C000B0009F7D9093B000E82FF0E0E85DF64FC9
:1057D000E491F0E08081832321E030E011F420E0C7
:1057E00030E0C9010895F8948091DB129091DC12A9
:1057F00080FF18C086E20E94AD2B892B99F0809122
:10580000DD128F5F8093DD128091DE129091DF12A6
:1058100081609093DF128093DE128091D3128F5FAC
:105820008093D3128091DB129091DC1281FF18C01B
:1058300087E20E94AD2B892B99F08091DD128F5F5A
:105840008093DD128091DE129091DF12826090933E
:10585000DF128093DE128091D4128F5F8093D41276
:105860008091DB129091DC1283FF1CC088E00E94C3
:10587000AD2B892BB9F08091DD128F5F8093DD1203
:1058800060E085E00E94672B8091DE129091DF122C
:1058900088609093DF128093DE128091D6128F5F22
:1058A0008093D6128091DB129091DC1287FF18C092
:1058B0008DE20E94AD2B892B99F08091DD128F5FD4
:1058C0008093DD128091DE129091DF1280689093B8
:1058D000DF128093DE128091D9128F5F8093D912EC
:1058E0008091DB129091DC1290FF18C082E10E943F
:1058F000AD2B892B99F08091DD128F5F8093DD12A3
:105900008091DE129091DF1291609093DF1280936C
:10591000DE128091DA128F5F8093DA128091DB12AF
:105920009091DC1284FF18C089E00E94AD2B892B76
:1059300099F48091DD128F5F8093DD128091DE12E9
:105940009091DF1280619093DF128093DE1280913C
:10595000D7128F5F8093D71278940895E82FF0E0E4
:10596000EE0FFF1FE758F24F71836083823029F1F9
:1059700030F4882351F0813009F046C010C08330E4
:1059800059F1843009F040C036C0E8988091690030
:105990008C7F842B80936900E09AE89A0895E998B7
:1059A00080916900440F551F440F551F837F842B3E
:1059B00080936900E19AE99A0895EA9880916900D4
:1059C00024E0440F551F2A95E1F78F7C842B8093A8
:1059D0006900E29AEA9A0895EB988091690096E04E
:1059E000440F551F9A95E1F78F73842B80936900BC
:1059F000E39AEB9A0895EC9880916A008C7F842B4F
:105A000080936A00E49AEC9A0895F894883018F527
:105A1000833091F020F4813059F060F407C0863073
:105A200079F0873079F0843071F408C0E8980BC0C1
:105A3000E99809C0EA9807C0EB9805C0EC9803C044
:105A4000EE9801C0EF98E82FF0E0EE0FFF1FE75847
:105A5000F24F11821082789408951F920F920FB620
:105A60000F9211240BB60F922F933F934F935F9396
:105A70006F937F938F939F93AF93BF93EF93FF9316
:105A80008091790D90917A0D892B29F0E091790D13
:105A9000F0917A0D0995FF91EF91BF91AF919F9190
:105AA0008F917F916F915F914F913F912F910F90C7
:105AB0000BBE0F900FBE0F901F9018951F920F9264
:105AC0000FB60F9211240BB60F922F933F934F9363
:105AD0005F936F937F938F939F93AF93BF93EF9356
