:100000000C9475070C947B2C0C94AC2C0C94DD2C6C
:100010000C940E2D0C943F2D0C94702D0C94A12D4E
:100020000C94D22D0C94A4070C94A4070C94A40750
:100030000C9465290C94A4070C94A4070C94C12972
:100040000C94A4070C94A4070C94A4070C94A40784
:100050000C94A4070C94A4070C94A4070C949C295A
:100060000C94A4070C9447240C94A4070C94A407A4
:100070000C94A4070C94A4070C94A4070C94A40754
:100080000C94A4070C94A4070C94A4070C94A40744
:100090000C9482240C94A4070C94A4070C9490272D
:1000A0000C94A4070C94A4070C94A4070C94A40724
:1000B0000C94A4070C94A4070C94A4070C94A40714
:1000C0000C94A4070C94A4070C94A407076342366D
:1000D000B79BD8A71A39685618AEBAAB558C1D3CD9
:1000E000B7CC5763BD6DEDFD753EF6177231BF009D
:1000F0000000803F08000000BE922449123EABAAD7
:10010000AA2ABECDCCCC4C3E00000080BEABAAAA31
:10011000AA3E00000000BF000000803F0000000079
:1001200000084178D3BB4387D1133D190E3CC3BDB2
:100130004282AD2B3E68EC8276BED98FE1A93E4C5F
:1001400080EFFFBE01C4FF7F3F00000000007A0483
:100150007D048104840488048C049004940498042D
:100160009B049F04A204A604AA04AE04B304B6042C
:10017000B904BE04C204C704CA04CD04D104D50422
:10018000D804DC04E004E404E704EC04EF04F20423
:10019000F504F904FD04020508050D051005140514
:1001A00017051A051D052005240527052B052F0514
:1001B0003205350538053B053F05430548054C0527
:1001C0004F05530558055D05610565056D0571050C
:1001D00078057C05800586058A058D0590059405C2
:1001E00097059C059F05A405A905AD05B205B705B2
:1001F000BB05C105C505CB05D105D805DE05E40560
:10020000E805F105FB05FF05040609060E061206C2
:1002100017061C06210628062F0636063D0643064D
:1002200049064F0653065A06600666066C067206B5
:1002300077067C06810686068B06900697069E0644
:10024000A506AA06AF06B306B806BD06C306C906CC
:10025000D006D606DD06E306EA06F106F806FF0636
:1002600005070C0712071907200727072D07340772
:100270003A07400747074F075207550757075B07DD
:10028000610766076B07710777077D078307890793
:100290008F0795079B07A107A707AD07B207B70709
:1002A000BC07C207C80702020202020202020202DF
:1002B000020202020202020200000000020002002A
:1002C0000002020202010002020202020202020213
:1002D0000202020002020202020200020103030300
:1002E00000000101020104030303030302020202EE
:1002F00002020202020202020202020000000402E2
:1003000002020202020002020202020202020202CF
:1003100002020202020200000000000000000002CF
:1003200002040200000002020202020202020202B1
:10033000020202020202020202020202020202029D
:10034000020202020202020202020202020202028D
:1003500002024552522073656E736F722074797079
:100360006520262076616C7565206D69736D6174FA
:1003700063682C200020767320004552522073655C
:100380006E736F72207479706520262076616C75AB
:1003900065206D69736D617463682C20002076732D
:1003A000200001010101010101010101010101011F
:1003B000010101010101010101010101010101012D
:1003C000010301010101010101010101010101011B
:1003D0000101010101010102010101010303010108
:1003E00001030101010101010101010101010101FB
:1003F00001010101010101010303010101010101E9
:1004000001010101010101010101010101010101DC
:1004100001010101010101010101010101010101CC
:1004200001010101010101010101010101010101BC
:1004300001010101010101010101010102010101AB
:100440000101010101010101010101010101455207
:10045000522073656E736F72207479706520262048
:100460006E756D626572206F66206669656C647377
:10047000206D69736D6174636800434F00434F32B0
:10048000004F3200434834004C5047004E48330080
:1004900041503100415032005356004E4F32004F10
:1004A0003300564F430054434100544641004855E1
:1004B0004D410050410050570042454E44005642C5
:1004C000520048414C4C004C50004C4C004C554D97
:1004D00000504952005354004D43500043444700DC
:1004E000435047004C440044555354005553004D6D
:1004F0004600505300544342005446420048554D74
:100500004200534F494C5400534F494C004C570044
:100510005041520055560054440053440046440094
:10052000414E4500575600504C560052414400433E
:1005300055005746004C4300444600424154004792
:1005400050530052535349004D4143004E41004E19
:10055000494400444154450054494D4500474D54D9
:100560000052414D00494E5F54454D5000414343B8
:10057000004D494C4C495300535452004D425400D5
:100580004D574946490055494400524200504800E1
:100590004F525000444F00434F4E440057540044C4
:1005A000494E4100444943410044494600444943BF
:1005B0004C004449425200444949004449435532A1
:1005C0000044494B0044494D47320044494E4F33A3
:1005D0000054585F50575200444D5F535400444DEF
:1005E0005F5350004C55580053504545445F4F47AA
:1005F00000434F555253455F4F4700414C5400480C
:10060000444F500056444F500050444F5000465302
:100610004D00504C563100504C563200504C563321
:1006200000534F494C5F4300534F494C5F440053C4
:100630004F494C5F4500534F494C5F4600534F496B
:100640004C3100534F494C3200534F494C33005406
:1006500043430055535F3356330055535F355600BF
:100660004C554D5F44004C554D5F45004C554D5F1A
:1006700046004C505F44004C505F45004C505F4674
:10068000004C4C5F44004C4C5F45004C4C5F4600B6
:1006900048414C4C5F440048414C4C5F4500484148
:1006A0004C4C5F460057465F430057465F45005439
:1006B000535400545552420056415049005650522E
:1006C0004F470056424F4F540047505F434C320053
:1006D00047505F434F0047505F45544F0047505FBE
:1006E00048320047505F4832530047505F48434C00
:1006F0000047505F48434E0047505F4E4833004725
:10070000505F4E4F0047505F4E4F320047505F4F93
:10071000320047505F5048330047505F534F32001C
:1007200047505F4348340047505F4F330047505FA6
:10073000434F320047505F54430047505F544600D8
:1007400047505F48554D0047505F50524553005445
:1007500043005446005000504D3100504D325F353B
:1007600000504D31300050415254005357494341DD
:1007700000535749464C0053574946420053574986
:100780004E4F00535749425200535749434C005370
:100790005749435500535749494F00535749504211
:1007A0000053574941470053574950480050485F4C
:1007B000410050485F420050485F43004F52505F35
:1007C00041004F52505F42004F52505F43000000C3
:1007D0000809000000000000000000000000000008
:1007E0000000000000000000000000000000000009
:1007F00000000000000000000000000000000000F9
:10080000000102081010204080040810204002025D
:1008100004081020408001028020400420010102D1
:100820000408102001408040800102080408800470
:10083000100402010505050503030303010101047A
:100840000403060606060606060601040501050160
:10085000030202020202020102020505040403046B
:100860000401030407070700202326292C2F320048
:100870002225282B2E3134002124272A2D3033DF46
:1008800008F0080109160927093A094D0960097598
:10089000099609A709BA09CB09E009F7090C0A2347
:1008A0000A360A470A580A6B0A800A910AA40AB54E
:1008B0000AC60ADB0AEC0AFD0A2E0B410B520B6535
:1008C0000B760B870B980BA90BBC0BCD0BDE0BEF3C
:1008D0000B000C130C240C350C480C5B0C6C0C3707
:1008E00045303030343038353235333443303600EB
:1008F00037453030303430383532353334383041A4
:1009000000374530303036303835323444353930C0
:1009100030303030300037453030303430383532D8
:100920003444353946460037453030303530383577
:1009300032343234343030303000374530303035B6
:1009400030383532343135303030303000374530A2
:100950003030353038353234313446303030300094
:100960003745303030363038353234393434303041
:100970003030303000374530303043303835323465
:100980003934343030303030303030303030303056
:100990003030303030003745303030343038353258
:1009A000343934343138003745303030353038352B
:1009B0003235333444303030300037453030303425
:1009C0003038353235333444303500374530303007
:1009D0003630383532353335343030303030300021
:1009E00037453030303730383532353335343030C4
:1009F00030303030303000374530303036303835F8
:100A000032353335303030303030300037453030EB
:100A100030373038353235333530303030303030B3
:100A200030300037453030303530383532343334BB
:100A300038303030300037453030303430383532AF
:100A40003433343831410037453030303430383584
:100A50003234453439304500374530303035303860
:100A60003532344535343030303000374530303071
:100A7000363038353234453534303030303030006F
:100A80003745303030343038353234453534303312
:100A90000037453030303530383532344534463023
:100AA000303030003745303030343038353234452E
:100AB0003446303800374530303034303835323510
:100AC00037353246430037453030303630383532EE
:100AD000353334333030303030300037453030301B
:100AE00034303835323533343330460037453030E2
:100AF00030343038353235333434304500374530D2
:100B000030313430383532344235393030303030AD
:100B100030303030303030303030303030303030D5
:100B200030303030303030303030303030003745D9
:100B3000303030353038353234353435303030308F
:100B40000037453030303430383532343534353193
:100B50004200374530303035303835323530344367
:100B60003030303000374530303034303835323581
:100B70003034433039003745303030343038353256
:100B80003434343231460037453030303430383543
:100B9000323438353630370037453030303430383D
:100BA0003532353635324644003745303030353011
:100BB000383532353235303030303000374530302E
:100BC0003034303835323532353030330037453017
:100BD0003030343038353234313433323100374507
:100BE00030303034303835323436353230440037F6
:100BF00045303030343038353235323435304500D8
:100C00003745303030353038353235333446303092
:100C100030300037453030303430383532353334C9
:100C20004630330037453030303430383532344593
:100C300034343133003745303030353038353234A4
:100C4000353434303030300037453030303530389E
:100C50003532353334343030303000374530303091
:100C6000343038353234343443313500253275254B
:100C70003275253275253275253275253275253246
:100C800075256325327525327500DB0CEF0C150DCB
:100C90003C0D5C0D740D820D920DA70DBD0DCE0D9A
:100CA000DA0DE10DFE0D1C0E320E400E500E730ECD
:100CB000790E57726F6E672074696D6520666F726A
:100CC0006D61742E204D75737420626520226464FA
:100CD0003A68683A6D6D3A73732200416C61726DC7
:100CE000204D6F6465206D61746368657320005BDF
:100CF000446179203A20686F757273203A206D69DB
:100D00006E75746573203A207365636F6E64735DEE
:100D1000202D3E20005B44617465203A20686F7589
:100D20007273203A206D696E75746573203A207372
:100D300065636F6E64735D202D3E20005B486F75A8
:100D40007273203A206D696E75746573203A207352
:100D500065636F6E64735D202D3E20005B4D696E90
:100D600075746573203A207365636F6E64735D20DC
:100D70002D3E20005B5365636F6E64735D202D3ED6
:100D800020004F6E636520706572207365636F6E1F
:100D90006400496E636F727265637420616C617286
:100DA0006D206D6F6465005B253032753A253032F9
:100DB000753A253032753A253032755D005B253045
:100DC00032753A253032753A253032755D005B2533
:100DD0003032753A253032755D005B253032755DF5
:100DE000005B446179203A20686F757273203A2065
:100DF0006D696E75746573205D202D3E20005B4427
:100E0000617465203A20686F757273203A206D69AD
:100E10006E75746573205D202D3E20005B486F75F4
:100E20007273203A206D696E757465735D202D3E76
:100E300020005B4D696E757465735D202D3E20004A
:100E40004F6E636520706572206D696E7574650004
:100E500025732C20253032752F253032752F253003
:100E600032752C20253032753A253032753A2530CE
:100E70003275006572726F720025303275256325F8
:100E8000303275256325303275256325303275255E
:100E90006325303275256325303275256325303260
:100EA00075007C3C3E5E2B3D3F2F5B5D3B2C2A2238
:100EB0005C00496E76616C69642066696C656E6180
:100EC0006D65006364696E6F70737578585B0000C0
:100ED0000509EE0A91118D1C0D239232EE37CA518D
:100EE000B05D5462AB6411099B1111241FBECFEF9A
:100EF000D1E2DEBFCDBF18E0A0E0B2E0E0E0F7E075
:100F000001E00BBF02C007900D92AC32B107D9F7D8
:100F100017E1ACE2B8E001C01D92A733B107E1F7D9
:100F20001EE0C6EEDEE000E006C022970109FE01E9
:100F30000BBF0E94E279C03DD10780E00807A9F706
:100F40000E942F2F0C946E830C940000CF93DF939C
:100F5000EC01888199810E949F7A1B821A821D82EE
:100F60001C82DF91CF910895CF93DF9300D000D002
:100F700000D0CDB7DEB781E08093960C85EB9CE086
:100F80000E94351264E670E080E090E00E94382A0A
:100F900086E59EE00E944B3061E172E086E59EE0CE
:100FA0000E94F93189E690E10E94E45982EA98E0D2
:100FB0000E94F74662E370E080E090E00E94382AE9
:100FC0006DE87CE0CE0101960E94630FBE016F5F69
:100FD0007F4F8CE298E00E94E035CE0101960E949E
:100FE000A6076CE272E08DE89CE00E94600C69EA62
:100FF0007CE082E398E00E94E03565E673E78DE8E7
:101000009CE00E94120E6EE372E08DE89CE00E946C
:10101000600C89E690E10E941E5764E572E089E663
:1010200090E10E94AA5A6AE270E080E090E00E949B
:10103000F07B8DE89CE00E94CB0D69E672E08DE8C4
:101040009CE00E94600C82EA98E00E94643886E589
:101050009EE00E946B3089E690E10E945F542696E4
:101060000FB6F894DEBF0FBECDBFDF91CF910895CC
:101070000F93CF93DF93CDB7DEB762970FB6F89497
:10108000DEBF0FBECDBF03E024E041E060E872E0C8
:1010900085EB9CE00E94831389E690E10E94E4596D
:1010A00089E690E10E941E578091811080933C0850
:1010B00010923D088091801080933A0810923B086E
:1010C00089E690E10E945F5480912817909129173A
:1010D00081FF91C08DE89CE00E94220B6CE872E0D9
:1010E0008DE89CE00E94600C8BE59EE00E94E93256
:1010F00020910E0230910F0280913C0890913D08A2
:10110000B9010E941979892B09F062C03F932F938E
:1011100081EA92E09F938F938EE398E09F938F9361
:101120000E94F77C6EE378E08DE89CE00E94600C02
:1011300087E690E10E94495280933808109239085E
:1011400090E04F970F900F900F900F900F900F908F
:101150004997F0F560910E0270910F02660F771FAC
:1011600080913C0890913D080E941979892B81F566
:101170008DE89CE00E94BB0C6CE278E0CE01079603
:101180000E94C1356DE97CE0CE010D960E94C1350B
:1011900000E09E01295F3F4FAE01435F5F4F6DE866
:1011A0007CE0CE0101960E94AC10BE016F5F7F4FC4
:1011B0008CE298E00E94E035CE0101960E94A607DD
:1011C000CE010D960E94A607CE0107960E94A607A3
:1011D00080912817909129178D7F909329178093DC
:1011E00028178DE89CE00E943A0B0E94032E87E6A8
:1011F00090E10E94E05362960FB6F894DEBF0FBEF6
:10120000CDBFDF91CF910F91089569E177E082E33F
:1012100098E00E94953569E177E08CE298E00C94C3
:1012200095358CE298E00E94A60782E398E00C9442
:10123000A6075F926F927F928F929F92AF92BF921A
:10124000CF92DF92EF92FF920F931F93CF93DF9392
:10125000CDB7DEB7C957D1090FB6F894DEBF0FBEC0
:10126000CDBF6C017B01EA961FAEEA973C010E945C
:10127000B73BF601E552FE4F82E080838E010F5F9F
:101280001F4F98E7D8011D929A95E9F79EE7998339
:1012900091E09D83F601ED54FC4F11821082F6011E
:1012A000E752FE4F8083F701908588E3A82EBB2488
:1012B000B394AE0CBF1CD5018C919230E0F5825FE7
:1012C0008B8380E18C83913019F48FEF8C8710C071
:1012D000F70184818E8385818F83868188878781CA
:1012E000898780818A8781818B8782818C878381AE
:1012F0008D878FEF8E878EEF8F8721E1AE014F5F55
:101300005F4FB701C3010E94C238F701E85CFE4F8E
:10131000008111810F5E1F4FBE016F5F7F4FC301C0
:101320000E94A23BE1E0F0E0EC0FFD1FE00FF11F97
:10133000808312E146C08C5E8B8381E18C83F70150
:1013400084818E8385818F83868188878781898741
:1013500080818A8781818B8782818C8783818D8739
:101360008FEF8E878EEF8F87E65CFE4F8081888BB4
:10137000F701E55CFE4F8081898BF701E45CFE4F4D
:1013800080818B8BF701E25CFE4F80818C8BF701B3
:10139000E15CFE4F80818D8B27E1A801B701C6017A
:1013A0000E94C238D501AD90BC90B7E1AB0EB11C24
:1013B000B801C6010E94A23BF801EA0DFB1D808323
:1013C00018E1012F9E0127583F4FAE014F5F5F4F3D
:1013D000B701C3010E94DD38F601E258FC4F80815D
:1013E000813021F48BE59EE00E941333512C57018C
:1013F000E8ECAE1AEEEFBE0A012F10E04601F2E86B
:101400008F1AFCEF9F0A0CC0E1E0F0E0EC0FFD1F2B
:10141000E80FF91FD4016C9180810E94BD24539480
:10142000852D90E0EA964FADEA97F5012081318154
:10143000240F311D200F311F8217930728F3C3019A
:101440000E94A941F601E552FE4F8083F601EA525F
:10145000FC4F9081F701EE5AFE4F9083F601E9525E
:10146000FC4F9081F701ED5AFE4F9083F601E85250
:10147000FC4F9081F701EC5AFE4F9083F601E75242
:10148000FC4F9081F701EB5AFE4F9083F601E65234
:10149000FC4F9081F701EA5AFE4F9083C758DF4F07
:1014A0000FB6F894DEBF0FBECDBFDF91CF911F9175
:1014B0000F91FF90EF90DF90CF90BF90AF909F90F3
:1014C0008F907F906F905F900895CF93DF93EC01A2
:1014D000FC01E358FC4F83E08083FE01E258FC4F9F
:1014E0006083611104C08BE59EE00E944333FE01DE
:1014F000E158FC4F11821082FE01ED54FC4F118225
:101500001082FE01EB54FC4F1082FE01E95AFF4F9E
:101510001082FE01E25CFE4F1082FE01E45CFE4F91
:101520001082FE01E35CFE4F82E88083FE01E959F0
:10153000FE4F1082FE01E759FE4F80E28083FE01DC
:10154000EF5DFE4F1082FE01EE5DFE4F87E080836F
:10155000FE01ED5DFE4F90ED9083FE01EC5DFE4FD0
:101560001082FE01EB5DFE4F1082FE01EA5DFE4F30
:1015700098EC9083FE01EE58FE4F1082FE01E85970
:10158000FE4F94E09083FE01E951FC4F8083FE0101
:10159000E851FC4F83E08083FE01E751FC4F81E07E
:1015A0008083FE01E552FC4F1082FE01E852FE4F9F
:1015B00082E08083FE01E752FE4F8083FE01E65207
:1015C000FE4F8083FE01E552FE4F8083CE010E94D4
:1015D000E53CCE01DF91CF910C94B73B1092A4086B
:1015E0001092A6081092BE081092C00889E180935C
:1015F000800C1092830C83E080931E0C89EB92E0A8
:101600009093A3088093A20884E1EAECF9E0DF015B
:101610001D928A95E9F781E1E8EFF9E0DF011D927B
:101620008A95E9F70895CF93DF93EC01CB01BA01D6
:101630000E940E36BC01CE010E94C135CE01DF9161
:10164000CF910895FC018185882361F086E59EE0B5
:101650000E944B3089E690E10E94E4598BEA9EE0BB
:101660000C94B04B86E59EE00E944B3089E690E1F9
:101670000C94E459FC018185882361F086E59EE0A5
:101680000E946B3089E690E10E945F548BEA9EE0F5
:101690000C940A4B86E59EE00E946B3089E690E14F
:1016A0000C945F54CF93DF93EC018DEB92E0998320
:1016B0008883188681E089876EEC72E0CE010A96F5
:1016C0000E94953566ED72E0CE0140960E949535F8
:1016D0006EED72E0CE0146960E94953567EE72E09F
:1016E000CE014C960E94953562EF72E0CE01829653
:1016F000DF91CF910C949535CF93DF93EC018296D7
:101700000E94A607CE014C960E94A607CE014696DF
:101710000E94A607CE0140960E94A607CE010A9617
:10172000DF91CF910C94A607FC018185882321F0DD
:1017300086E59EE00C947F3208959B01FC01818533
:10174000882351F060E070E0C9010E944436BC017A
:1017500086E59EE00C947F320895FC018185882304
:1017600021F086E59EE00C94F9310895FC01818515
:10177000882321F086E59EE00C943A320895FC011E
:101780008185882321F086E59EE00C94DD31089563
:101790009B01FC018185882351F060E070E0C90164
:1017A0000E944436BC0186E59EE00C94F931089510
:1017B000CF92DF92EF92FF920F931F93CF93DF931D
:1017C00000D000D000D0CDB7DEB78C017B018BEA12
:1017D0009EE00E94B04B60E070E0C7010E9444367A
:1017E000BC018BEA9EE00E94CC4C882309F43FC0E8
:1017F000C090C70DD090C80D60E070E0C7010E9496
:101800004436960140E35DE0BC018BEA9EE00E9415
:101810000C518823B1F061E073E0C8010E94940B81
:10182000B701CE0101960E94C135BE016F5F7F4FA7
:10183000C8010E94C80BCE0101960E94A60781E054
:1018400030C064E273E0C8010E94940BB701CE017E
:1018500001960E94C135BE016F5F7F4FC8010E9493
:10186000C80BCE0101960E94A60782E01AC068E468
:1018700073E0C8010E94940BB701CE0101960E944B
:10188000C135BE016F5F7F4FC8010E949D0BCE0125
:1018900001960E94A6076CE573E0C8010E94AD0B9B
:1018A00083E026960FB6F894DEBF0FBECDBFDF9162
:1018B000CF911F910F91FF90EF90DF90CF900895FF
:1018C000EF92FF920F931F93CF93DF9300D000D03E
:1018D00000D0CDB7DEB78C017B01FC01108661E042
:1018E0008AE19DE00E94A12189E690E10E94A4592D
:1018F0009B01AC016BE78AE19DE00E94191F43E662
:1019000053E061E48AE19DE00E94D51DA70161E4F6
:101910008AE19DE00E94D51D67E673E0C8010E9440
:10192000940BB701C8010E94AD0BB801665F7F4FF1
:10193000CE0101960E94C135BE016F5F7F4FC80185
:101940000E94D80BF82ECE0101960E94A607F1E066
:10195000FF1202C0F801F086F801808526960FB6C6
:10196000F894DEBF0FBECDBFDF91CF911F910F91D5
:10197000FF90EF9008954F925F926F927F928F92B7
:101980009F92AF92BF92CF92DF92EF92FF920F930E
:101990001F93CF93DF93CDB7DEB7AC970FB6F89414
:1019A000DEBF0FBECDBF8C010E94220B62E174E04E
:1019B000C8010E94600C40E058E060E085EB9CE0CC
:1019C0000E94371260E177E280E090E00E94382ABE
:1019D00040E050E160E085EB9CE00E94371240E877
:1019E00050E060E085EB9CE00E94371241E050E05F
:1019F00060E085EB9CE00E94371268EC70E080E0CC
:101A000090E00E94382A69E274E0C8010E94600CEC
:101A100089E690E10E94A45969A77AA78BA79CA7A1
:101A200040E060E078E085EB9CE00E94561B41E0DE
:101A300060E078E085EB9CE00E94561B60E070E17E
:101A400085EB9CE00E948A1C60E870E085EB9CE0DE
:101A50000E948A1C2B013C0161E070E085EB9CE058
:101A60000E948A1C60E070E085EB9CE00E948A1C6A
:101A70006B017C0169E374E0C8010E94600C40E0E6
:101A800058E061E085EB9CE00E94371240E050E1B5
:101A900061E085EB9CE00E94371240E850E061E095
:101AA00085EB9CE00E94371241E050E061E085EB5D
:101AB0009CE00E943712480180E1880E911C60E092
:101AC00070E0C4010E9444369F938F9381E594E0B7
:101AD0009F938F93AA24A394B12CAC0EBD1EBF92EA
:101AE000AF920E94F77CB501C8010E94600C61E0D2
:101AF0008AE19DE00E94A12129A53AA54BA55CA5FC
:101B00006BE78AE19DE00E94191FB301A201C801A1
:101B10000E94B60BC701B6010E943076462F50E0F6
:101B20006DE28AE19DE00E94F81F8AE19DE00E943B
:101B30009C1C60E070E0C4010E9444369F938F9328
:101B400081E694E09F938F93BF92AF920E94F77CBF
:101B5000B501C8010E94600CC8010E943A0B0FB683
:101B6000F894DEBF0FBECDBFAC960FB6F894DEBFC3
:101B70000FBECDBFDF91CF911F910F91FF90EF90DE
:101B8000DF90CF90BF90AF909F908F907F906F909D
:101B90005F904F900895EF92FF920F931F93CF9312
:101BA000DF93CDB7DEB7A8970FB6F894DEBF0FBEB0
:101BB000CDBF8C0187E690E10E9449521F928F931E
:101BC00082E794E09F938F93EE24E394F12CEC0E44
:101BD000FD1EFF92EF920E94F77CB701C8010E94A0
:101BE000600C64E874E0C8010E94AD0BB701C80145
:101BF0000E94AD0B64E874E0C8010E94AD0B0F9029
:101C00000F900F900F900F900F90A8960FB6F8942A
:101C1000DEBF0FBECDBFDF91CF911F910F91FF901F
:101C2000EF900895CF93DF93EC01623785E6780754
:101C3000F1F1653683E7780729F06937714609F0D5
:101C40004BC013C06BE874E0CE010E94600C63EAE5
:101C500074E08BE59EE00E9456338CEA94E09B830F
:101C60008A8382E18C8384E333C06DEB74E0CE0120
:101C70000E94600C63EA74E08BE59EE00E9456339C
:101C800087ED94E09B838A838FE08E8382E18C834F
:101C900084E38D831F8269E177E08AE19DE00E9401
:101CA000F32069E48AE19DE00E94911C1AC068EE6D
:101CB00074E0CE010E94600C63EA74E08BE59EE064
:101CC0000E94563380E095E09B838A8381E18C8378
:101CD0008D838FE08E83DECF61E175E0CE010E94BF
:101CE000600C82EA98E00E94F7466E8182EA98E0F2
:101CF0000E94B94880917B0A811103C06AE275E0B5
:101D000002C069E375E0CE010E94600CBE016C5F09
:101D10007F4F82EA98E00E94094980917B0A8111F5
:101D200003C061E575E002C06FE575E0CE010E9479
:101D3000600C6F8182EA98E00E94F04780917B0AF4
:101D4000811103C068E775E002C06FE875E0CE015D
:101D50000E94600C66EA75E082EA98E00E943248D0
:101D600080917B0A811103C067EB75E002C061EDD1
:101D700075E0CE010E94600C82EA98E00E948748DC
:101D800080917B0A811103C069EE75E002C06BEFA0
:101D900075E0CE01DF91CF910C94600CEF92FF9231
:101DA0000F931F93CF93DF93CDB7DEB762970FB634
:101DB000F894DEBF0FBECDBF8C017B01FC01108605
:101DC00060E070E0C7010E944436BC018BEA9EE0EF
:101DD0000E94CC4C813009F467C060E070E0C7011C
:101DE0000E944436BC018BEA9EE00E947651882313
:101DF00059F168E176E0CE010D960E949535B70164
:101E0000CE0107960E94C135AE01435F5F4FBE0110
:101E1000695F7F4FCE0101960E94130BBE016F5F79
:101E20007F4FC8010E94C80BCE0101960E94A607F1
:101E3000CE0107960E94A607CE010D960E94A60726
:101E400081E0F801808730C064E176E0CE010D9634
:101E50000E949535B701CE0107960E94C135AE01AB
:101E6000435F5F4FBE01695F7F4FCE0101960E94C5
:101E7000130BBE016F5F7F4FC8010E94C80BCE01DC
:101E800001960E94A607CE0107960E94A607CE01E2
:101E90000D960E94A6076091421070914310C801F0
:101EA0000E94BF0BF8011086F801808562960FB67C
:101EB000F894DEBF0FBECDBFDF91CF911F910F9180
:101EC000FF90EF900895CF92DF92EF92FF920F93E1
:101ED0001F93CF93DF93CDB7DEB763970FB6F89418
:101EE000DEBF0FBECDBF6C017B0186E59EE00E9488
:101EF0004B308BEA9EE00E94B04B8BEA9EE00E9442
:101F00004F4B811105C061E276E0C7010E94AD0B25
:101F1000B701665F7F4F8E010F5F1F4FC8010E94A0
:101F2000C135B801C7010E94CE0EC8010E94A607A4
:101F3000B701605F7F4FC8010E94C135B801C7017A
:101F40000E94CE0EC8010E94A607B701645E7F4FB3
:101F5000C8010E94C135B801C7010E94CE0EC80158
:101F60000E94A607B7016E5D7F4FC8010E94C13570
:101F7000B801C7010E94CE0EC8010E94A60789E6DB
:101F800090E10E94E45989E690E10E941E578091F9
:101F900083101F928F9380917E101F928F93809158
:101FA0007D101F928F9386E396E09F938F931F93EC
:101FB0000F930E94F77CB80186E59EE00E94F931FC
:101FC000B801CE010E960E949535BE01625F7F4F2B
:101FD000C7010E94CE0ECE010E960E94A60767E4AE
:101FE00076E0C7010E94600C8BEA9EE00E940A4BDB
:101FF00086E59EE00E946B30B801C6010E949535CF
:102000000FB6F894DEBF0FBECDBFC60163960FB604
:10201000F894DEBF0FBECDBFDF91CF911F910F911E
:10202000FF90EF90DF90CF900895DF92EF92FF92B4
:102030000F931F93CF93DF93CDB7DEB762970FB6A1
:10204000F894DEBF0FBECDBF8C017B01FC01108672
:1020500060E070E0C7010E944436BC018BEA9EE05C
:102060000E94CC4CD82EF1E08F1366C060E070E087
:10207000C7010E944436BC018BEA9EE00E94594E83
:10208000882351F16FE576E0CE010D960E949535DB
:10209000B701CE0107960E94C135AE01435F5F4F85
:1020A000BE01695F7F4FCE0101960E94130BBE01F6
:1020B0006F5F7F4FC8010E94C80BCE0101960E943E
:1020C000A607CE0107960E94A607CE010D960E9494
:1020D000A607F801D08630C06BE576E0CE010D96FC
:1020E0000E949535B701CE0107960E94C135AE0119
:1020F000435F5F4FBE01695F7F4FCE0101960E9433
:10210000130BBE016F5F7F4FC8010E94C80BCE0149
:1021100001960E94A607CE0107960E94A607CE014F
:102120000D960E94A6076091421070914310C8015D
:102130000E94BF0BF8011086F801808562960FB6E9
:10214000F894DEBF0FBECDBFDF91CF911F910F91ED
:10215000FF90EF90DF9008952F923F924F925F9201
:102160006F927F928F929F92AF92BF92CF92DF92A7
:10217000EF92FF920F931F93CF93DF93CDB7DEB70C
:1021800064970FB6F894DEBF0FBECDBF4C015B0164
:102190006A0179010C8B60E070E0C9010E9444364D
:1021A000BC018BEA9EE00E94F94C653F71408105BD
:1021B00091050CF446C089E690E10E94E45989E655
:1021C00090E10E94E45989E690E10E941E578091B7
:1021D00083101F928F9380917E101F928F93809116
:1021E0007D101F928F9386E396E09F938F938E01CD
:1021F0000F5F1F4F1F930F930E94F77CB801CE0112
:102200000E960E949535BE01625F7F4FC5010E9408
:10221000CE0ECE010E960E94A607B801CE010E96F4
:102220000E949535BE01625F7F4FC7010E94E03575
:10223000CE010E960E94A6070FB6F894DEBF0FBE21
:10224000CDBF60E070E0C6010E944436BC018BEA5D
:102250009EE00E9452503B01212C312C21011FC0D5
:1022600060E070E0C6010E94443601E010E0A20187
:102270009101BC018BEA9EE00E94324D60E070E06B
:10228000C7010E9444364EED5EE0BC018BEA9EE041
:102290000E9405509FEF291A390A490A590A261443
:1022A0003704F4F22C892223F1F0B601CE01019615
:1022B0000E94C135BE016F5F7F4FC5010E9415109E
:1022C000CE0101960E94A607B601CE0101960E949A
:1022D000C135BE016F5F7F4FC5010E94CE0ECE019A
:1022E00001960E94A607B701C4010E94C135C4012E
:1022F00064960FB6F894DEBF0FBECDBFDF91CF91CD
:102300001F910F91FF90EF90DF90CF90BF90AF9013
:102310009F908F907F906F905F904F903F902F9005
:102320000895EDE8FCE088E2DF011D928A95E9F767
:10233000CF010C94520B8DE89CE00C947C0B81E057
:102340008093640E40E060E087E690E10E94CE5109
:1023500040E061E087E690E10E94CE5180917C10E0
:10236000811106C041E061E089E690E10E943354AA
:1023700061E087E00E94D92881E00895CF93DF9340
:10238000D82FC92F61E085E00E94C02861E084E079
:102390000E94C02861E086E00E94C02861E087E0DA
:1023A0000E94C02860E089E00E94C02861E08AE0C5
:1023B0000E94C02860E088E00E94C02861E082E0BE
:1023C0000E94C02861E08EE00E94C02860E08FE09B
:1023D0000E94C02860E081E10E94C02860E083E1A3
:1023E0000E94C02860E085E00E94D92860E084E077
:1023F0000E94D92860E086E00E94D92860E087E04A
:102400000E94D92860E08AE00E94D92860E082E03A
:102410000E94D92860E08EE00E94D92841E060E067
:1024200087E690E10E94CE5141E061E087E690E1CD
:102430000E94CE51ED2FFC2F80E6DF011D928A9580
:10244000E9F78091191790911A17A0911B17B09175
:102450001C1780628093191790931A17A0931B176B
:10246000B0931C17DF91CF9108950C949F116111C7
:102470004AC04038510509F43FC0C0F4443051050A
:10248000A9F148F44130510599F190F142305105DC
:1024900009F083C02BC04032510561F14034510531
:1024A00049F14830510509F078C020C0411588E055
:1024B000580701F168F4411582E05807E9F0411529
:1024C00084E05807B9F04115514009F066C014C0C6
:1024D000411580E2580771F0411580E4580761F01A
:1024E0004115504109F059C061E047C061E048C062
:1024F00061E049C061E04AC061E087E00E94D928FC
:1025000061E08AE044C0613009F045C040385105BF
:10251000E1F1B0F44430510591F140F441305105FE
:1025200089F180F142305105C1F529C04032510591
:1025300061F14034510549F14830510571F51FC032
:10254000411588E0580709F160F4411582E0580709
:10255000E1F0411584E05807C1F041155140E9F41C
:1025600014C0411580E2580781F0411580E45807F6
:1025700061F04115504189F460E084E008C060E0FA
:1025800082E005C060E08EE002C060E087E00E946B
:10259000D92881E0089580E008958FEF0895CF92C3
:1025A000DF92EF920F931F93CF93DF9300D0CDB7BD
:1025B000DEB76B018BE59EE02A8349830E942B33B3
:1025C00064E670E080E090E00E94382A61E08DE2ED
:1025D0000E94C02860E08DE20E94D92889E690E13F
:1025E0000E94E4592A814981B60189E690E10E945E
:1025F000D25C89E690E10E945F5460E084E00E9432
:10260000D92860E082E00E94D92860E087E00E943B
:10261000D92860E08AE00E94D92860E086E00E9424
:10262000D92860E08EE00E94D928602F87E690E1EB
:102630000E94E152E4FE14C060E170E080E090E0AE
:102640000E94082E0DC061E070E080E090E00E94E2
:10265000382A87E690E10E94E053115011F449C0F6
:102660001BE08BE20E941F29019769F383B7817FEA
:10267000846083BF83B7816083BF83B7816083BF7A
:10268000889583B78E7F83BF83B78E7F83BF602F8C
:1026900087E690E10E943152809128179091291786
:1026A00084FD10C089E690E10E94E45989E690E13A
:1026B0000E94985889E690E10E94CE5989E690E1FF
:1026C0000E945F5400FF15C041E060E087E690E1A2
:1026D0000E94CE5141E061E087E690E10F900F90BB
:1026E000DF91CF911F910F91EF90DF90CF900C94DD
:1026F000CE510F900F90DF91CF911F910F91EF90DE
:10270000DF90CF900895EF920F93E12C0E94CF12AB
:102710000F91EF9008952F923F924F925F926F9298
:102720007F928F929F92AF92BF92CF92DF92EF9261
:10273000FF920F931F93CF93DF93CDB7DEB7289708
:102740000FB6F894DEBF0FBECDBF9A8389830E9477
:10275000E6294B015C010E94E6292B013C0180E443
:10276000C82E82E4D82E8FE0E82EF12C212C312CBB
:1027700018861F8236C088E00E941F298C018F8135
:102780009885019709F501151105F1F49FEF291AB4
:10279000390A0E94E6299B01AC0124193509460932
:1027A00057092B833C834D835E830E94E6292B01CE
:1027B0003C012B813C814D815E812C153D054E05F0
:1027C0005F0510F469017A010E94E6296815790510
:1027D0008A059B0520F40E94E6294B015C011887BD
:1027E0000F830E94E629681979098A099B09693BC8
:1027F0007B408105910508F4BECF64E670E080E07F
:1028000090E00E94382A09811A810F591F4FC70191
:10281000B6010E945C7620E030E04AE754E40E9472
:10282000C3759B01AC016AE979E989E190E40E94F2
:10283000C375F8016083718382839383B101882714
:1028400077FD8095982F0E945E762AE939E949E163
:1028500050E40E943E7720E030E040E450E40E94E3
:10286000C37528960FB6F894DEBF0FBECDBFDF91BB
:10287000CF911F910F91FF90EF90DF90CF90BF907D
:10288000AF909F908F907F906F905F904F903F9010
:102890002F9008950F931F93CF93DF9300D0CDB760
:1028A000DEB719821A828091630E811104C08DE512
:1028B0009EE00E94573666E970E080E090E00E945A
:1028C000382A42E050E064E170E08DE59EE00E942D
:1028D000EC378E010F5F1F4F07C08DE59EE00E9411
:1028E0008C36F80181938F018DE59EE00E9486363B
:1028F0008111F3CF8091630E882391F080910011B4
:1029000081110EC080917C10813051F087E690E1FA
:102910000E94D55241E060E089E690E10E94335484
:102920008A812981422F50E060E070E02227342F15
:10293000452F562F280F311D411D511DA9E0B0E034
:102940000E94E67869507048844091090E945E7642
:1029500020E03FEF4FE757E40E94C3750F900F90C0
:10296000DF91CF911F910F910895BF92CF92DF9287
:10297000EF92FF920F931F93CF93DF93C62F60E0E8
:102980008FE00E94C02860E081E10E94C02860E0E2
:1029900083E10E94C02860E08AE00E94D928C43008
:1029A00051F0C83029F0C23081F54FE0B42E05C097
:1029B00031E1B32E02C023E1B22E0E94E6296B0161
:1029C0007C01C0E0D0E000E010E001C08C018B2D64
:1029D0000E941F290130110519F4009709F421966E
:1029E000C03D27E0D20794F30E94E6296C197D09C7
:1029F0008E099F090E945C769B01AC0160E074E245
:102A000084EF99E40E94C37504C060E070E080E840
:102A10009FEBDF91CF911F910F91FF90EF90DF908F
:102A2000CF90BF9008958F929F92AF92BF92CF9216
:102A3000DF92EF92FF92CF93DF9341155105F9F0AA
:102A40004130510509F047C0882777FD8095982FC0
:102A50000E945E766B017C012DEB32E546E15DE381
:102A60000E943E7725EC3EEF42E050E40E945A750A
:102A70004B015C0126EF34E246ED55EB1AC0882786
:102A800077FD8095982F0E945E766B017C012DEB7F
:102A900032E546E15FE30E943E7725EC3EEF42E0FF
:102AA00050E40E945A754B015C012BE335E246ED80
:102AB00059EBC701B6010E943E77A70196010E941B
:102AC0003E779B01AC01C501B4010E945B757B019F
:102AD000D82FC92F04C0E12CF12CD0E0C0E020E0B9
:102AE00030E046EC52E4FE016E2D7F2D8F2F9C2F9F
:102AF0000E943377181624F4E12CF12CD8ECC2E4B0
:102B00009E016E2D7F2D832F9C2FDF91CF91FF9003
:102B1000EF90DF90CF90BF90AF909F908F900895EF
:102B20008F929F92AF92BF92CF92DF92EF92FF92DD
:102B30001F93CF93DF93EC01162F662319F06130BA
:102B400021F402C013E001C015E061E086E00E94BC
:102B5000C02861E085E00E94C02861E086E00E9414
:102B6000D92861E085E00E94D92881E090E00E94A8
:102B7000622A60E086E00E94D92860E085E00E9439
:102B8000D92881E090E00E94622A61E085E00E94FD
:102B9000D92861E086E00E94D92881E090E00E9477
:102BA000622A60E085E00E94D928212F41E065E09B
:102BB00086E00E94AE2561E085E00E94D92860E0B1
:102BC00086E00E94C0280E94E6296B017C0186E015
:102BD0000E941F295C0104C00E94E6296B017C0150
:102BE000AA94AB2809F0B6C00E94E6296C197D09A9
:102BF0008E099F096A3071058105910508F4B7C0F7
:102C0000A9C00E94E6296B017C01AB2809F0C9C06C
:102C10000E94E6296C197D098E099F096A307105A9
:102C20008105910508F4B0C0BCC0AA94AB2809F096
:102C3000C6C00E94E6296C197D098E099F0960397A
:102C400071408105910508F4B5C0B9C061E085E027
:102C50000E94D928EE0CFF1C86E00E941F29E80E76
:102C6000F91E60E085E00E94D92881E0C81AD108E9
:102C700069F786E00E941F296C010E94E6294B013A
:102C80005C01CD2809F0A3C00E94E62968197909E2
:102C90008A099B096A3071058105910508F4B9C05C
:102CA00096C061E085E00E94D928EE0CFF1C86E00A
:102CB0000E941F29E80EF91E60E085E00E94D928D5
:102CC00021E0C21AD10869F761E086E00E94C028BD
:102CD00061E086E00E94D92861E085E00E94D92861
:102CE00080E991E00E94622A60E085E00E94D92894
:102CF00060E086E00E94D9281330A1F4B70188274C
:102D000077FD8095982F0E945E762AE037ED43E2AA
:102D10005CE30E943E772DEC3CEC4EE152E40E94D5
:102D20005A7584C0153089F441E050E0B701CE01F6
:102D3000DF91CF911F91FF90EF90DF90CF90BF90E8
:102D4000AF909F908F900C94131560E070E080E03E
:102D500090E06CC060E085E00E94D9280E94E629DE
:102D60006B017C0186E00E941F295C014ECF86E04A
:102D70000E941F295C010E94E6296C157D058E05C5
:102D80009F0508F02DCF28CF86E00E941F295C0107
:102D90000E94E6296C157D058E059F0508F035CF4C
:102DA00030CF86E00E941F295C010E94E6296B015A
:102DB0007C013BCF86E00E941F295C0136CF0E9438
:102DC000E62968E0C62ED12CE12CF12C3FCF61E042
:102DD00086E00E94C02860E086E00E94D92881E059
:102DE00090E00E94622A61E085E00E94D92880E993
:102DF00091E00E94622A60E085E00E94D92860E0AC
:102E000086E00E94C0280E94E62958E0C52ED12CF9
:102E100048CF86E00E941F296C010E94E6296815B0
:102E200079058A059B0508F02CCF27CFDF91CF913C
:102E30001F91FF90EF90DF90CF90BF90AF909F9049
:102E40008F900895AF92BF92CF92DF92EF92FF9250
:102E50000F931F93CF93DF930E94E6296B017C01B0
:102E6000C0E0D0E000E010E016C089E00E941F2919
:102E70005C010130110519F4009709F421960E94B4
:102E8000E6296C157D058E059F0520F40E94E62934
:102E90006B017C0185010E94E6296C197D098E0970
:102EA0009F09693B7B4081059105F8F264E670E07B
:102EB00080E090E00E94382ACE01DF91CF911F91EF
:102EC0000F91FF90EF90DF90CF90BF90AF9008955B
:102ED000BF92CF92DF92EF92FF920F931F93CF9307
:102EE000DF93DB01C42F2C91422F50E026FBEE270D
:102EF000E0F9F0E011966C91119712960C91029501
:102F000006950695037070E080E090E0B2E0660FF1
:102F1000771F881F991FBA95D1F7600F711D811D0A
:102F2000911D022F0F7310E020E030E0DAE0000F77
:102F3000111F221F331FDA95D1F7600F711F821FF7
:102F4000931F440F452F441F550B4130510519F471
:102F50003197C9F006C0EF2BD9F06F5F7F4F810921
:102F600091090E945E7620E030E040EC5FE30E9431
:102F70003E7720E03FEF4FE757E40E94C375B62E3F
:102F8000D72F8C0109C0B12CD0E000E010E404C0C0
:102F9000B12CD0E000E010ECC13009F053C020E0CB
:102FA00030E44BE754E46B2D7D2F802F912F0E944E
:102FB0003E7720E030E44BEF54E40E943E772AE66F
:102FC0003FE64BE45AE40E945B756B017C0120E014
:102FD00030E44BEF54E46B2D7D2F802F912F0E9416
:102FE0003E779B01AC0160E078E48FE495E40E94B9
:102FF0005A759B01AC01C701B6010E94C37528E454
:1030000031E64AE754E40E945A752EEA3FEF48EA57
:1030100054E40E94C37528EB3EEC4AEB54E40E9452
:103020003E772FE832E049E754E40E945B7520E0E8
:1030300030E04AE754E40E945A7526E931E24AE753
:1030400050E410C0C11111C020E030EE4BE256E454
:103050006B2D7D2F802F912F0E943E7720E030E056
:103060004AE754E40E94C37504C060E070E080E069
:1030700090E0DF91CF911F910F91FF90EF90DF9043
:10308000CF90BF900895EF92FF920F931F93CF932D
:10309000DF9300D01F92CDB7DEB77C0119821A8270
:1030A0001B828091630E811104C08DE59EE00E9419
:1030B00057366CE271E080E090E00E94382A66E1C9
:1030C00070E08DE59EE00E94843660EA8DE59EE02A
:1030D0000E94843765E570E08DE59EE00E94B03780
:1030E0008DE59EE00E94B2376CE271E080E090E0F6
:1030F0000E94382A43E050E066E170E08DE59EE0F2
:103100000E94EC378E010F5F1F4F07C08DE59EE0D8
:103110000E948C36F80181938F018DE59EE00E941C
:1031200086368111F3CF8091630E882391F08091D0
:10313000001181110EC080917C10813051F087E622
:1031400090E10E94D55241E060E089E690E10E9462
:10315000335441E0BE016F5F7F4FC7010E94681783
:103160000F900F900F90DF91CF911F910F91FF90D3
:10317000EF900895EF92FF920F931F93CF93DF93F9
:1031800000D01F92CDB7DEB77C0119821A821B8254
:103190008091630E811104C08DE59EE00E94573638
:1031A0006CE271E080E090E00E94382A66E170E015
:1031B0008DE59EE00E94843661EA8DE59EE00E94E6
:1031C000843765E570E08DE59EE00E94B0378DE5BF
:1031D0009EE00E94B2376CE271E080E090E00E94D5
:1031E000382A43E050E066E170E08DE59EE00E9401
:1031F000EC378E010F5F1F4F07C08DE59EE00E94E8
:103200008C36F80181938F018DE59EE00E94863611
:103210008111F3CF8091630E882391F0809100118A
:1032200081110EC080917C10813051F087E690E1D1
:103230000E94D55241E060E089E690E10E9433545B
:1032400040E0BE016F5F7F4FC7010E9468170F907B
:103250000F900F90DF91CF911F910F91FF90EF9002
:103260000895882777FD8095982F0E945E7620E04C
:1032700030E44EE455E40E943E7720E030EC4FE726
:1032800054E40E94C3752AE939E949E15FE30E94E9
:10329000C37520E030E04AE754E40E94C37524EF90
:1032A0003DEF44E55EE30E945B7522E630E148EFC6
:1032B0005EE30E945B7523EA31E04CE35DE30E942C
:1032C000C3750895CF92DF92EF92FF92882777FD22
:1032D0008095982F0E945E766B017C0120E030E0A3
:1032E0004BE953E40E94337718168CF427E53EE946
:1032F0004FE05EE3C701B6010E943E779B01AC013F
:103300006FE67AE78FE093E40E945A7504C060E0AC
:1033100070E088EC92E4FF90EF90DF90CF900895FA
:10332000CF92DF92EF92FF92CF93DF93EC016A018D
:103330007B0120E030E040E85EE3C701B6010E9477
:10334000BF7587FF04C0C05ADF4F8FE05DC120E02A
:1033500030E040E85EE3C701B6010E94337787FDA5
:103360000EC029E23CE54FE85EE3C701B6010E94CA
:10337000BF7587FF04C0C05ADF4F81E045C129E215
:103380003CE54FE85EE3C701B6010E94337787FD55
:103390000EC023E333E343EB5EE3C701B6010E94B3
:1033A000BF7587FF04C0C05ADF4F18822EC123E3C8
:1033B00033E343EB5EE3C701B6010E94337787FD39
:1033C0000EC020E030E040E05FE3C701B6010E949C
:1033D000BF7587FF04C0C05ADF4F8DE015C120E0E4
:1033E00030E040E05FE3C701B6010E94337787FD1C
:1033F0000EC026E636E646E25FE3C701B6010E944C
:10340000BF7587FF04C0C05ADF4F8EE0FDC026E6BF
:1034100036E646E25FE3C701B6010E94337787FDD7
:103420000EC02AE939E949E55FE3C701B6010E9408
:10343000BF7587FF04C0C05ADF4F8BE0E5C02AE9A3
:1034400039E949E55FE3C701B6010E94337787FD9B
:103450000EC02DEC3CEC4CE85FE3C701B6010E94C6
:10346000BF7587FF04C0C05ADF4F8CE0CDC02DEC84
:103470003CEC4CE85FE3C701B6010E94337787FD5F
:103480000EC027ED33EA40EB5FE3C701B6010E94AF
:10349000BF7587FF04C0C05ADF4F83E0B5C027ED7A
:1034A00033EA40EB5FE3C701B6010E94337787FD43
:1034B0000EC02DEC3CEC4CEC5FE3C701B6010E9462
:1034C000BF7587FF04C0C05ADF4F82E09DC02DEC5E
:1034D0003CEC4CEC5FE3C701B6010E94337787FDFB
:1034E0000EC028E431EE4AEF5FE3C701B6010E9447
:1034F000BF7587FF04C0C05ADF4F89E085C028E44C
:1035000031EE4AEF5FE3C701B6010E94337787FDD2
:103510000EC02AE939E949E050E4C701B6010E942A
:10352000BF7587FF04C0C05ADF4F8AE06DC02AE92B
:1035300039E949E050E4C701B6010E94337787FDBD
:103540000EC026E636E646E150E4C701B6010E9409
:10355000BF7587FF04C0C05ADF4F85E055C026E61F
:1035600036E646E150E4C701B6010E94337787FD95
:103570000EC026E636E646E250E4C701B6010E94D8
:10358000BF7587FF04C0C05ADF4F84E03DC026E608
:1035900036E646E250E4C701B6010E94337787FD64
:1035A0000EC020E030E040E350E4C701B6010E94C5
:1035B000BF7587FF04C0C05ADF4F87E025C020E0F9
:1035C00030E040E350E4C701B6010E94337787FD45
:1035D0000EC02DEC3CEC4CE350E4C701B6010E9458
:1035E000BF7587FF04C0C05ADF4F86E00DC02DECC9
:1035F0003CEC4CE350E4C701B6010E94337787FDF1
:1036000004C0C05ADF4F88E08883DF91CF91FF90DC
:10361000EF90DF90CF900895882777FD8095982FC1
:103620000E945E7620E030E44EE455E40E943E774E
:1036300020E030EC4FE754E40E94C3752AE939E9F1
:1036400049E15FE30E94C37520E030E048E454E4C0
:103650000E945A7520E030E048EF51E40E94C375A3
:103660000895882777FD8095982F0E945E7620E048
:1036700030E44EE455E40E943E7720E030EC4FE722
:1036800054E40E94C37520E030E04AEF53E40E9406
:103690005A7520E030E040E251E40E94C37508957D
:1036A00040E061E18BE59EE00C94B134EF92FF9233
:1036B0000F931F93CF93DF93EC016034710509F4EE
:1036C0009EC0E8F46430710509F455C058F46130C7
:1036D000710509F465C008F46BC06230710509F02A
:1036E0000AC143C06031710509F4D1C0603271056F
:1036F00009F47DC06830710509F0FDC042C0611554
:1037000084E0780709F4AAC078F4611581E07807AD
:1037100009F48AC0611582E0780709F492C0603824
:10372000710509F0E8C073C0611580E1780781F088
:1037300028F46115784009F0DEC099C0611580E277
:10374000780709F4B8C06115704409F0D4C0CAC044
:1037500083E00E941123BC01CE01DF91CF911F9124
:103760000F91FF90EF900C94311960E08AE00E9475
:10377000D92862E00BC060E08AE00E94D92864E0AA
:1037800005C060E08AE00E94D92868E0CE010E946E
:10379000B5147B018C0161E08AE00E94D928AFC09A
:1037A000DF91CF911F910F91FF90EF900C948B13AD
:1037B00085E00E941123BC0180E090E00E945C76CD
:1037C00023E333E343E550E40E943E7720E030EC0E
:1037D0004FE754E40E94C3757B018C01982F4E2D56
:1037E0005F2D692F712FCE010E94901988C0DF9143
:1037F000CF911F910F91FF90EF900C94BA18DF9129
:10380000CF911F910F91FF90EF900C94431886E099
:103810000E941123BC01CE01DF91CF911F910F9126
:10382000FF90EF900C94621984E00E941123BC0178
:10383000CE01DF91CF911F910F91FF90EF900C94EB
:10384000311B82E00E941123BC01CE01DF91CF9198
:103850001F910F91FF90EF900C940C1BCE01DF9104
:10386000CF911F910F91FF90EF900C944A1441114A
:1038700002C060E003C04130F1F561E0CE01DF91AC
:10388000CF911F910F91FF90EF900C9490150E9493
:103890002217BC0180E090E00E945C7624E83DE0C5
:1038A0004FE85EE30E943E7720E030E040EA51E4DA
:1038B0000E943E7714C087E00E941123BC0180E083
:1038C00090E00E945C7623E333E343E550E40E94FA
:1038D0003E7720E030EC4FE754E40E94C3757B0153
:1038E0008C010DC0CE01DF91CF911F910F91FF9000
:1038F000EF900C94501BE12CF12C00E010E06E2DA9
:103900007F2D802F912FDF91CF911F910F91FF90ED
:10391000EF90089540E00C94561B85EB9CE00C94CE
:10392000BE11FC01663918F463831482089586E998
:1039300090E0948383830895EF92FF920F931F93F7
:10394000CF93DF93EC0186E59EE00E947F300FE18C
:1039500010E060E08DE30E94BD2401501109C9F719
:1039600060E08DE00E94BD2460E08AE00E94BD24FA
:103970008A81813021F460E081EE96E00CC08111F3
:1039800004C060E08FEE96E006C0823009F09AC075
:1039900060E08EEF96E00E94CA2460E080E197E04C
:1039A0000E94CA2460E08AE197E00E94CA247E0156
:1039B0008DEAE80EF11CF7016081718180E090E0F2
:1039C00000E02AE030E040E050E00E94DA2460E0CD
:1039D0008DE00E94BD2460E08AE00E94BD2460E08A
:1039E00083E297E00E94CA24698D70E080E090E055
:1039F0002AE030E040E050E00E94DA2460E08DE010
:103A00000E94BD2460E08AE00E94BD2460E081E362
:103A100097E00E94CA2400E010E009C0FE01E00F18
:103A2000F11F60E086890E9465250F5F1F4FF70137
:103A3000808191810817190788F360E08DE00E946A
:103A4000BD2460E08AE00E94BD2460E08FE397E03F
:103A50000E94CA24E12CF12C8E0103551F4F0AC08D
:103A6000FE01EE0DFF1D60E086890E94BD24FFEF80
:103A7000EF1AFF0AF80180819181E816F90680F3B8
:103A800060E08DE00E94BD2460E08AE00E94BD24D9
:103A9000CFE1D0E060E08DE30E94BD242197D1F713
:103AA00060E08DE00E94BD2460E08AE00E94BD24B9
:103AB00086E59EE0DF91CF911F910F91FF90EF90EF
:103AC0000C94AD30DF91CF911F910F91FF90EF904B
:103AD0000895CF93DF93C42F70E0FB01EA55FD4FAB
:103AE00085919491D82F8130A9F44230B0F162E5EC
:103AF00073E086E59EE00E94D6302AE030E041E0A7
:103B000050E060E070E086E59EE00E94453265E7A7
:103B100073E014C0841709F16AE773E086E59EE05C
:103B20000E94D6304D2F50E060E070E02AE030E097
:103B300086E59EE00E9445326DE973E086E59EE0F1
:103B40000E94D6304C2F50E060E070E02AE030E078
:103B500086E59EE00E94A0310DC0FB01EE55FC4FB2
:103B600085919491281741F06EE474E086E59EE01B
:103B70000E941C328FEF01C081E0DF91CF91089548
:103B8000FC01E355FF4F20813181620F731FDC017F
:103B900013968D919C9114978617970720F0718347
:103BA000608381E0089580E008955F926F927F9234
:103BB0008F929F92AF92BF92CF92DF92EF92FF923D
:103BC0000F931F93CF93DF93CDB7DEB72A970FB62E
:103BD000F894DEBF0FBECDBF8C01962E542E852EDD
:103BE000ADB6BEB6E42FF52FDF010D900020E9F74A
:103BF000AE1BBF0BA03981E0B80710F0A0E9B1E01F
:103C00006D0191E0C91AD108EDB7FEB7EA1BFB0BB5
:103C10000FB6F894FEBF0FBEEDBFEDB6FEB68FEF48
:103C2000E81AF80A3701AD0160E070E0C7010E94B0
:103C30001E7CA601652D782DC7010E944B7C670173
:103C4000D7012FE505C08C91833209F42C9311968E
:103C5000F30101900020E9F73197E619F709CD014A
:103C60008C199D098E179F0770F3D80112968C91BD
:103C7000813009F075C0E92DF0E0EE0FFF1FE25B27
:103C8000FE4F85919491BC01EE24E394F12CEC0E4F
:103C9000FD1EC7010E94017CF70101900020E9F799
:103CA000BF01615071096E197F09D3010D90002089
:103CB000E9F71197A619B7096A0F7B1F6E5F7F4F4F
:103CC000C8010E94C01D811101C052C0F801E35516
:103CD000FF4FC080D180F70101900020E9F73197B4
:103CE000EE19FF09D3010D900020E9F71197A619ED
:103CF000B70946018A1A9B0A96012E1B3F0B2A1B05
:103D00003B0B2C5E3F4F200F311FAF01B701C901A4
:103D10000E94157CF801E80DF91D8AE3848BF301FC
:103D200001900020E9F73197E619F70985E1880E3F
:103D3000911C800E911EAF01B301C4010E94157C3D
:103D4000F801EC0DFD1D83E2858BD80111968C9155
:103D500011978F5F11968C9311975A968C934AC046
:103D600021E043E0692DC8010E94691D8F3F11F4D5
:103D70008FEF44C0D3010D900020E9F77D0181E071
:103D8000E81AF108E618F708B7016E5F7F4FC8011F
:103D90000E94C01D882361F3F801E355FF4F208185
:103DA0003181F30101900020E9F73197E619F70915
:103DB000C90102978E1B9F0BF801E80FF91F968A25
:103DC000E78A029608C0D6014D916D01F801E80F0F
:103DD000F91F468B019682179307A8F3F801E20FAB
:103DE000F31F168AF80181818F5F81838091C70D4F
:103DF0008550828FF801E355FF4F80810FB6F8940C
:103E0000BEBE0FBEADBE2A960FB6F894DEBF0FBE83
:103E1000CDBFDF91CF911F910F91FF90EF90DF9079
:103E2000CF90BF90AF909F908F907F906F905F905A
:103E300008958F929F92AF92BF92CF92DF92EF92AE
:103E4000FF920F931F93CF93DF93CDB7DEB76E979B
:103E50000FB6F894DEBF0FBECDBF8C01F62E490120
:103E60005A01FC018281813009F07AC0E62FF0E02E
:103E7000EE0FFF1FE25BFE4F859194916E01F5E11D
:103E8000CF0ED11CBC01C6010E94017C2AE030E0AB
:103E9000EE24E394F12CEC0EFD1EA701B401C50144
:103EA0000E94957CF60101900020E9F7BF01615066
:103EB00071096C197D09D7010D900020E9F7119760
:103EC000AE19BF096A0F7B1F6E5F7F4FC8010E944A
:103ED000C01D811101C04BC0F801E355FF4FA08008
:103EE000B180F60101900020E9F73197EC19FD0946
:103EF000D7010D900020E9F71197AE19BF094501D0
:103F00008A1A9B0A95012E1B3F0B2A1B3B0B2C5E2A
:103F10003F4F200F311FAF01B601C9010E94157C30
:103F2000F801E80DF91D8AE3848BF7010190002068
:103F3000E9F73197EE19FF0925E1820E911C800EF9
:103F4000911EAF01B701C4010E94157CF801EA0D72
:103F5000FB1D83E2858BF80181818F5F818330C0F7
:103F600021E044E0C8010E94691D8F3F11F48FEFEA
:103F70002CC065E070E0C8010E94C01D8823B9F321
:103F8000D801A355BF4F0D90BC91A02DA00FB11F1C
:103F90005196FC92519752968C92529753969C92BE
:103FA00053975496AC9254975596BC925597569603
:103FB0001C92F80181818F5F81838091C70D8550AC
:103FC000828FF801E355FF4F80816E960FB6F8940B
:103FD000DEBF0FBECDBFDF91CF911F910F91FF903C
:103FE000EF90DF90CF90BF90AF909F908F9008950B
:103FF0008F929F92AF92BF92CF92DF92EF92FF92F9
:104000000F931F93CF93DF93CDB7DEB764970FB6AF
:10401000F894DEBF0FBECDBF8C01F62E5A01FC0115
:104020008281813009F079C0E62FF0E0EE0FFF1FAA
:10403000E25BFE4F85919491BC01CC24C394D12CBA
:10404000CC0EDD1EC6010E94017C7E01FBE0EF0E5E
:10405000F11C4AE050E0B701C5010E94747CF601F2
:1040600001900020E9F7BF01615071096C197D09C9
:10407000D7010D900020E9F71197AE19BF096A0F1B
:104080007B1F6E5F7F4FC8010E94C01D811101C060
:1040900059C0F801E355FF4FA080B180F6010190AF
:1040A0000020E9F73197EC19FD09D7010D900020A8
:1040B000E9F71197AE19BF0945018A1A9B0A9501C4
:1040C0002E1B3F0B2A1B3B0B2C5E3F4F200F311F3B
:1040D000AF01B601C9010E94157CF801E80DF91D78
:1040E0008AE3848BF70101900020E9F73197EE19FC
:1040F000FF0985E1880E911C800E911EAF01B7016A
:10410000C4010E94157CF801EA0DFB1D83E2858B3A
:10411000F80181818F5F81834EC021E04F3F5105BF
:1041200009F094F440E06F2DC8010E94691D8F3F93
:1041300049F0EF2DF0E0EA55FD4F859194918130E3
:10414000E9F404C08FEF3CC041E0EDCF63E070E0E4
:10415000C8010E94C01D8823A9F3F801E355FF4F51
:10416000A081B181A00FB11F5396FC925397549632
:10417000AC9254975596BC92559714C062E070E08B
:10418000C8010E94C01D8823E9F2F801E355FF4FE2
:10419000A081B181A00FB11F5496FC9254975596FF
:1041A000AC92559756961C92F80181818F5F81835E
:1041B0008091C70D8550828FF801E355FF4F8081B4
:1041C00064960FB6F894DEBF0FBECDBFDF91CF91DE
:1041D0001F910F91FF90EF90DF90CF90BF90AF9025
:1041E0009F908F9008958F929F92AF92BF92CF929F
:1041F000DF92EF92FF920F931F93CF93DF931F9263
:10420000CDB7DEB77C01162F33E9C32ED12C60E089
:10421000C60179830E9437828FEFC81AD80A798144
:10422000A3EACA16D10499F7C7010596FC0181E1FA
:10423000DF011D928A95E9F7812E972E03E910E0A0
:104240005401F40160816701C00ED11E633249F050
:10425000C8010E943782D4018C91F601EE58F10911
:1042600008C06FE5C8010E943782F601EE58F109D7
:104270008FE58083BFEF8B1A9B0AF501808188232D
:1042800029F00F5F1F4F033A1105D1F60F90DF9110
:10429000CF911F910F91FF90EF90DF90CF90BF9043
:1042A000AF909F908F900895CF92DF92EF92FF9200
:1042B0000F931F93CF93DF936C018B010596FC0145
:1042C00081E1DF011D928A95E9F77B01C3E9D0E026
:1042D000BE018BE59EE00E945333F601EC0FFD1FFB
:1042E000EE58F1098083F70181937F012196C33A4B
:1042F000D10571F7D80150961C92DF91CF911F9193
:104300000F91FF90EF90DF90CF900895CF93DF93C0
:10431000EC0160E083EA90E00E94378286E990E059
:104320009C838B83BE016B5F7F4F8AE19DE0DF91B1
:10433000CF910C94542163EA70E08BE59EE00C94DD
:104340005333AF92BF92CF92DF92EF92FF920F93CF
:104350001F93CF93DF93CDB7DEB764970FB6F89472
:10436000DEBF0FBECDBF8C01DC0112966C9346966A
:10437000FC0187E9DF011D928A95E9F7F8011182B6
:104380008CE3868B8DE3878B8EE3808F82818130F7
:1043900009F0C9C080E8818F128E83E2838F6801A3
:1043A000FDEACF0ED11C86E090E0D6018D939C9360
:1043B0004091520E5091530E6091540E7091550ED3
:1043C0007F936F935F934F938DE497E09F938F93C9
:1043D0001F9280E18F93EE24E394F12CEC0EFD1EEE
:1043E000FF92EF920E94BA7CC7010FB6F894DEBF2D
:1043F0000FBECDBF9701D60111C0FC016191CF0165
:104400006623C9F04D915C911197F801E40FF51FF7
:10441000668B4F5F5F4F11965C934E93F90101904D
:104420000020E9F73197E21BF30BAC01421B530B61
:104430004E175F0710F38D919C911197F801E80FCB
:10444000F91F23E2268B01968D939C9380E090E0E8
:10445000F801E355FF4F4FE5D801A80FB91F159696
:104460002C91211149C06801FDEACF0ED11CD60163
:104470008D919C911197F801E80FF91F43E2A42E4A
:10448000A68A01968D939C93C8010E949B21B82E09
:104490007E01B1E1EB0EF11C4AE050E0B70190E083
:1044A0000E94747CF70101900020E9F73197EE1922
:1044B000FF09D6012D913C912A5E3F4F200F311FFD
:1044C000AF01B701C9010E94157CF70101900020DE
:1044D000E9F73197EE19FF09D6018D919C91E80F0C
:1044E000F91FD801AE0FBF1F5696AC923196D60178
:1044F000ED93FC936B2D63C0A081B181A00FB11F20
:10450000233219F456964C9302C056962C93208170
:1045100031812F5F3F4F3183208301968031910598
:1045200009F09ACFA0CF811102C0F801118E20911D
:10453000530E9091540E8091550E3091520ED80129
:104540005B963C935B975C962C935C975D969C93F3
:104550005D975E968C93F801E355FF4F89E090E0FC
:104560009183808380E090E04FE5D801A80FB91FC8
:1045700015962C91211129C07801BDEAEB0EF11C92
:10458000F70180819181F801E80FF91F23E2268B62
:104590000196D7018D939C93C8010E949B21F7013E
:1045A00020813181F801E20FF31F868B2F5F3F4F8F
:1045B000D7012D933C932550F801228F682F6F5F10
:1045C00083EA90E00E94378217C0A081B181A00FDA
:1045D000B11F233219F456964C9302C056962C9371
:1045E000208131812F5F3F4F3183208301968031BD
:1045F000910509F0BACFC0CF64960FB6F894DEBF2C
:104600000FBECDBFDF91CF911F910F91FF90EF9023
:10461000DF90CF90BF90AF9008958AE19DE00C9419
:10462000862190917C0020917A00206820937A0066
:104630009F70981769F090917C008F70907F892B04
:1046400080937C0061E070E080E090E00E94382A76
:1046500080917A00806480937A0080917A0086FD50
:10466000FCCF2091780030917900932F80E0AC014D
:10467000422B9A01C9010895CF92DF92EF92FF92E7
:104680006B017C01411134C088E00E94DF2AC70120
:10469000B60122E030E040E050E00E944F79305F08
:1046A000414F5F4FCA01B901A70196010E944F799E
:1046B000DA01C9010197A109B109892F9A2FAB2FFE
:1046C000BB27A7FDBA958093C50021502093C40055
:1046D0008091C10080618093C1008091C100886099
:1046E0008093C1008091C10080688093C10033C075
:1046F00080E10E94DF2AC701B60122E030E040E0FD
:1047000050E00E944F79305F414F5F4FCA01B901BD
:10471000A70196010E944F79DA01C9010197A10909
:10472000B109892F9A2FAB2FBB27A7FDBA9580938C
:10473000CD0021502093CC008091C90080618093EE
:10474000C9008091C90088608093C9008091C90028
:1047500080688093C900FF90EF90DF90CF9008951C
:1047600081110EC088E00E94192B8091C1008F7EBC
:104770008093C1008091C100877F8093C10008951C
:1047800080E10E94192B8091C9008F7E8093C9001F
:104790008091C900877F8093C9000895611107C087
:1047A0009091C00095FFFCCF8093C6000895909132
:1047B000C80095FFFCCF8093CE00089581110AC0F8
:1047C0008091CF0D9091D00D9E5F2091CD0D3091B5
:1047D000CE0D09C08091CB0D9091CC0D9E5F2091A4
:1047E000C90D3091CA0D821B930B60E072E00E94EC
:1047F00019790895811119C08091CD0D9091CE0D38
:104800002091CF0D3091D00D2817390741F1FC01CF
:10481000E75EFA4E2081019660E072E00E9419790D
:104820009093CE0D8093CD0D18C08091C90D9091BD
:10483000CA0D2091CB0D3091CC0D2817390779F096
:10484000FC01E75EFC4E2081019660E072E00E9470
:1048500019799093CA0D8093C90D30E002C02FEFF3
:104860003FEFC9010895811109C01092CE0D109239
:10487000CD0D1092D00D1092CF0D08951092CA0D4B
:104880001092C90D1092CC0D1092CB0D08951F926D
:104890000F920FB60F9211242F933F934F935F9374
:1048A0006F937F938F939F93AF93BF93EF93E09119
:1048B000C6002091CF0D3091D00DC901019660E066
:1048C00072E00E9419794091CD0D5091CE0D841760
:1048D000950741F0D901A75EBA4EEC939093D00DA5
:1048E0008093CF0DEF91BF91AF919F918F917F9169
:1048F0006F915F914F913F912F910F900FBE0F904D
:104900001F9018951F920F920FB60F9211242F939C
:104910003F934F935F936F937F938F939F93AF9347
:10492000BF93EF93E091CE002091CB0D3091CC0D51
:10493000C901019660E072E00E9419794091C90DA9
:104940005091CA0D8417950741F0D901A75EBC4E5E
:10495000EC939093CC0D8093CB0DEF91BF91AF91E1
:104960009F918F917F916F915F914F913F912F9187
:104970000F900FBE0F901F9018950C94CE23CF93DD
:10498000C82F682F8DE00E94CE236C2F8AE0CF9134
:104990000C94CE231F93CF93DF93162FEC0103C00B
:1049A000612F0E94CE2389918111FACFDF91CF919F
:1049B0001F9108954F925F926F927F928F929F9274
:1049C000AF92BF92CF92DF92EF92FF920F93CF936D
:1049D000DF93CDB7DEB7A0970FB6F894DEBF0FBE5A
:1049E000CDBF29013A016115710581059105C9F411
:1049F000602F80E3A0960FB6F894DEBF0FBECDBF48
:104A0000DF91CF910F91FF90EF90DF90CF90BF900B
:104A1000AF909F908F907F906F905F904F900C948D
:104A2000CE23EE24E394F12CEC0EFD1E812C912C70
:104A30005401A30192010E942D79F70161937F0136
:104A4000FFEF8F1A9F0AAF0ABF0AB901CA016115A9
:104A500071058105910569F7CC24CA94DC2C760197
:104A6000C80CD91CEA1CFB1C14C0E1E0F0E0EC0F00
:104A7000FD1FEC0DFD1D80818A3010F4805D01C0AA
:104A8000895C602F0E94CE2381E0C81AD108E1081A
:104A9000F108EFEFCE16DE06EE06FE0631F7A09621
:104AA0000FB6F894DEBF0FBECDBFDF91CF910F914F
:104AB000FF90EF90DF90CF90BF90AF909F908F903E
:104AC0007F906F905F904F900895CF93DF93C62FA4
:104AD000282F332727FD3095207F332764E0359535
:104AE00027956A95E1F72A3014F0295C01C0205D12
:104AF000982F9F70D92F9A3014F0D95C01C0D05DE7
:104B00006C2F822F0E94CE236C2F8D2FDF91CF919F
:104B10000C94CE23CF92DF92EF92FF920F936B0112
:104B20007C01042F97FF0CC0642F8DE20E94CE23DE
:104B3000F094E094D094C094C11CD11CE11CF11CF1
:104B40002AE030E040E050E0C701B6010E94DA24DC
:104B50000F91FF90EF90DF90CF900895BF92CF928A
:104B6000DF92EF92FF920F931F93CF93DF93C82EA4
:104B7000D62EB42EC0E0D0E0022F10E087E0E82E61
:104B8000F12CB11008C0B8010C2E02C075956795C4
:104B90000A94E2F709C0F701EC1BFD0BB80102C053
:104BA00075956795EA95E2F7617077278C2D0E94DD
:104BB000D92861E08D2D0E94D92860E08D2D0E94BA
:104BC000D9282196C830D105E1F6DF91CF911F9108
:104BD0000F91FF90EF90DF90CF90BF9008951092CB
:104BE000DA0DE4E6F0E080818F778083589A599A55
:104BF000E9EBF0E080818E7F808380818D7F8083F0
:104C000081E48093B80085E48093BC0080E2EBED02
:104C1000FDE0DF01982F1D929A95E9F7EBEFFDE09B
:104C2000DF01982F1D929A95E9F7EBE1FEE0DF0195
:104C30001D928A95E9F70895613298F42091DA0D72
:104C4000243089F46093D70DFC018BEF9DE0DC01EB
:104C500002C021912D932A2F281B2617D0F380E024
:104C6000089581E0089582E0089585EC8093BC006A
:104C70001092DA0D0895589859988091B900816082
:104C80008093B9008091B90082608093B9008091CF
:104C9000BC0080688093BC008091BC0080618093E0
:104CA000BC008091BC008F7B8093BC008091BC00D5
:104CB0008F7D8093BC008091BC00877F8093BC0077
:104CC0008091191790911A17A0911B17B0911C177A
:104CD00086FD14C08091191790911A17A0911B1787
:104CE000B0911C1790FD0AC08091191790911A1766
:104CF000A0911B17B0911C1793FF04C08091BC00BA
:104D00008B7F03C08091BC0084608093BC00809145
:104D1000BC008E7F8093BC0080916400806880938B
:104D200064000895882349F01092D10D1092D20D9D
:104D30001092D30D1092D40D13C08091D10D90918B
:104D4000D20DA091D30DB091D40D0196A11DB11D2E
:104D50008093D10D9093D20DA093D30DB093D40D29
:104D60008091D10D9091D20DA091D30DB091D40D21
:104D7000803A9648A140B10560F01092D10D109292
:104D8000D20D1092D30D1092D40D0E94EF2581E028
:104D9000089580E0089585ED8093BC0081E00E9435
:104DA000922608C080E00E949226882319F0109273
:104DB000DA0D08958091BC0084FDF4CFF8CFFF9206
:104DC0000F931F93CF93DF93182F062FF72EC42F27
:104DD000D22F81E0413208F051C00E94922615C0C6
:104DE00080E00E949226882381F082E08093DA0D91
:104DF0008FEF8093D50D1092D90DC0933B0EE02F0D
:104E0000FF2D6BED7DE0DB0107C08091DA0D811194
:104E1000E7CFEBCF81918D938A2F861B8C17D0F330
:104E2000812F90E0880F991F80933C0E85EE809330
:104E3000BC0081E00E949226D11105C08091D50D61
:104E40008F3F59F414C08091DA0D8230B9F780E0B9
:104E50000E94922681110DC0F6CF8091D50D80322F
:104E600051F08091D50D803341F483E007C080E09C
:104E700005C085E003C082E001C084E0DF91CF91EE
:104E80001F910F91FF9008950F931F93CF93DF937E
:104E9000082FD62F172FC42F81E04132E0F50E9452
:104EA00092261DC080E00E9492268823C1F081E0F6
:104EB0008093DA0D8FEF8093D50D1092D90DC093AA
:104EC0003B0E802F90E0880F991F816080933C0EED
:104ED00085EE8093BC0081E00E94922610C08091F4
:104EE000DA0D8111DFCFE3CF80E00E949226882384
:104EF00031F08BED9DE0ED2FF12FDC0107C08091AB
:104F0000DA0D813089F3F5CF2D9121932A2F281BBB
:104F10002C17D0F380E0DF91CF911F910F9108956E
:104F20001F920F920FB60F9211240BB60F922F9370
:104F30003F934F935F936F937F938F939F93AF9321
:104F4000BF93CF93EF93FF93C091B900C87FC03652
:104F500009F49FC058F5C83209F45BC090F4C03121
:104F600009F452C038F4CC2309F4F2C0C83009F077
:104F7000F3C04AC0C83109F44CC0C03209F0ECC0DB
:104F80005DC0C03409F473C038F4C03309F45BC0A9
:104F9000C83309F0E1C05AC0C03509F45CC0C83557
:104FA00009F46AC0C83409F0D7C0D4C0C83909F4BC
:104FB000C5C0A8F4C83709F46CC038F4C83609F481
:104FC00068C0C03709F0C8C064C0C83809F4B6C0AA
:104FD000C03909F464C0C03809F0BEC060C0C03B2D
:104FE00009F484C038F4C03A09F46BC0C83A09F037
:104FF000B3C07CC0C03C09F4A5C0C83C09F4A2C041
:10500000C83B09F0A9C087C080913C0E8093BB00CB
:1050100013C09091D90D80913B0E981708F09AC05B
:105020008091D90DE82FF0E0E552F24F90819093F6
:10503000BB008F5F8093D90D85EC81C00E94CB2689
:10504000C093D50D89C0C093D50D84C0C093D50D34
:105050000E94352681C08091D90D9091BB00E82F28
:10506000F0E0E552F24F90838F5F8093D90D9091DD
:10507000D90D80913B0E5FC08091D90D9091BB00FE
:10508000E82FF0E0E552F24F90838F5F8093D90DC7
:1050900061C083E08093DA0D1092D60DCDCF809160
:1050A000D60D803208F04AC08091D60D9091BB0099
:1050B000E82FF0E0E55EF14F90838F5F8093D60D8F
:1050C000BBCF8091D60D803230F4E091D60DF0E068
:1050D000E55EF14F10826091D60DE0913D0EF091AA
:1050E0003E0E70E08BE19EE009952CC084E0809339
:1050F000DA0D1092D80D1092D70DE0913F0EF0917D
:10510000400E09958091D70D811105C081E08093F3
:10511000D70D1092FB0D8091D80DE82FF0E0E550EF
:10512000F24F90819093BB008F5F8093D80D909148
:10513000D80D8091D70D981708F47ECF85E880931D
:10514000BC000AC085EC8093BC001092DA0D04C04C
:105150001092D50D0E94CB26FF91EF91CF91BF9178
:10516000AF919F918F917F916F915F914F913F91FF
:105170002F910F900BBE0F900FBE0F901F901895A0
:1051800090E0FC01EF5FF74F2491FC01EC5CF74FDE
:10519000E491EE2369F0F0E0E958F74FA491B0E014
:1051A0008C91611103C02095822301C0822B8C93C6
:1051B000089590E0FC01E253F84F2491FC01EF5F69
:1051C000F74F3491FC01EC5CF74F84918823B1F1E7
:1051D000222331F1233021F4909180009F7705C084
:1051E000243031F4909180009F7D9093800018C00E
:1051F000213019F494B59F7704C0223021F494B57E
:105200009F7D94BD0DC0263021F49091B0009F7712
:1052100005C0273029F49091B0009F7D9093B00095
:10522000E82FF0E0E159F74FA491B0E08C916111C3
:1052300003C03095832301C0832B8C93089590E0A5
:10524000FC01E253F84F2491FC01EF5FF74F3491DA
:10525000FC01EC5CF74F8491882399F1222331F112
:10526000233021F4909180009F7705C0243031F4E1
:10527000909180009F7D9093800018C0213019F498
:1052800094B59F7704C0223021F494B59F7D94BDDE
:105290000DC0263021F49091B0009F7705C02730D3
:1052A00029F49091B0009F7D9093B000E82FF0E03A
:1052B000E959F74FE491F0E08081832321E030E069
:1052C00011F420E030E0C90108951F920F920FB64B
:1052D0000F9211240BB60F922F933F934F935F932E
:1052E0006F937F938F939F93AF93BF93EF93FF93AE
:1052F000F89481E080931002E0E6F0E0808180681D
:10530000808380818F7B808360E083E00E94D92846
:105310007894FF91EF91BF91AF919F918F917F9181
:105320006F915F914F913F912F910F900BBE0F9016
:105330000FBE0F901F9018951F920F920FB60F92ED
:1053400011248F939F93AF93BF9380912B179091CC
:105350002C17A0912D17B0912E170196A11DB11DEC
:1053600080932B1790932C17A0932D17B0932E1783
:10537000BF91AF919F918F910F900FBE0F901F9093
:1053800018951F920F920FB60F9211248F939F932F
:10539000AF93BF9380912F1790913017A091311741
:1053A000B09132170196A11DB11D80932F179093D4
:1053B0003017A0933117B0933217BF91AF919F91DF
:1053C0008F910F900FBE0F901F9018958F929F9204
:1053D000AF92BF92CF92DF92EF92FF920F931F9303
:1053E000CF93DF932FB7F89480912B1790912C17C0
:1053F000A0912D17B0912E172FBF9C01AD0160E039
:1054000070E080E090E001E00E94CA794901D42F69
:10541000C52FB62FA72FF82FE92F02E00E94CA79D7
:1054200059016A017B018C0194014D2F5C2F6B2F78
:105430007A2F8F2F9E2F0E94D979E9E0AE2EB12CC2
:10544000C12CD12CE12CF12C00E010E00E946D79F0
:10545000952FB901842FDF91CF911F910F91FF906C
:10546000EF90DF90CF90BF90AF909F908F90089576
:105470008F929F92AF92BF92CF92DF92EF92FF9264
:105480004B015C0107C00E94E6296C157D058E0565
:105490009F0520F40E94E6296B017C010E94E62909
:1054A0006C197D098E099F09681579058A059B0588
:1054B00050F3FF90EF90DF90CF90BF90AF909F9010
:1054C0008F900895BC01049768F080E090E00E94FE
:1054D0005C7626E636E646EE5FE30E943E770E9463
:1054E000307602C0660F771F6150710961F061501C
:1054F000710949F0FB01EE0FFF1F31978FB7F89448
:105500003197F1F78FBF0895789484B7877F84BF70
:1055100010922B1710922C1710922D1710922E17F5
:1055200084B5826084BD84B5816084BD85B58260A8
:1055300085BD85B5816085BDEEE6F0E08081816046
:105540008083E1E8F0E080818260808380818160F7
:105550008083E0E8F0E0808181608083E1EBF0E02F
:10556000808184608083E1E9F0E0808184608083D1
:10557000E0EBF0E0808181608083E0E9F0E0808111
:1055800081608083E4E6F0E080818E7F8083ECE7B9
:10559000F0E080818F778083808180648083EAE778
:1055A000F0E080818460808380818260808380815C
:1055B000806880831092C1001092C9000895909174
:1055C000410E982B9093410E80FF32C08091640071
:1055D0008E7F8093640080917C008F7780937C0025
:1055E00080917C00806480937C0080917A0084604C
:1055F00080937A0080917A00826080937A00809113
:105600007A00806880937A00809164008F7780931D
:105610006400809164008B7F8093640080916400BB
:105620008D7F80936400809165008E7F80936500FC
:105630000895282F20959091410E92239093410E2A
:1056400080FF1EC080917A008F7780937A008091CE
:10565000640081608093640080916400806880931E
:105660006400809164008460809364008091640091
:105670008260809364008091650081608093650002
:105680000895F894809125179091261780FF18C0EF
:1056900086E20E941F29892B99F0809127178F5F3E
:1056A00080932717809128179091291781609093F4
:1056B00029178093281780911D178F5F80931D17DE
:1056C000809125179091261781FF18C087E20E94CC
:1056D0001F29892B99F0809127178F5F80932717B7
:1056E00080912817909129178260909329178093B1
:1056F000281780911E178F5F80931E1780912517A2
:105700009091261783FF1CC088E00E941F29892BD7
:10571000B9F0809127178F5F8093271760E085E0AD
:105720000E94D9288091281790912917886090931A
:10573000291780932817809120178F5F8093201757
:10574000809125179091261787FF18C08DE20E943F
:105750001F29892B99F0809127178F5F8093271736
:10576000809128179091291780689093291780932A
:105770002817809123178F5F809323178091251717
:105780009091261790FF18C082E10E941F29892B53
:1057900099F0809127178F5F8093271780912817A2
:1057A00090912917916090932917809328178091E1
:1057B00024178F5F809324178091251790912617C7
:1057C00084FF18C089E00E941F29892B99F48091D9
:1057D00027178F5F8093271780912817909129179B
:1057E00080619093291780932817809121178F5FEC
:1057F0008093211778940895E82FF0E0EE0FFF1FB3
:10580000EE5BF14F71836083823029F130F488239D
:1058100051F0813009F046C010C0833059F1843016
:1058200009F040C036C0E898809169008C7F842BD5
:1058300080936900E09AE89A0895E9988091690058
:10584000440F551F440F551F837F842B809369009D
:10585000E19AE99A0895EA988091690024E0440F5A
:10586000551F2A95E1F78F7C842B80936900E29A7B
:10587000EA9A0895EB988091690096E0440F551FCD
:105880009A95E1F78F73842B80936900E39AEB9AE2
:105890000895EC9880916A008C7F842B80936A0035
:1058A000E49AEC9A0895F894883018F5833091F0D2
:1058B00020F4813059F060F407C0863079F08730E9
:1058C00079F0843071F408C0E8980BC0E99809C0F9
:1058D000EA9807C0EB9805C0EC9803C0EE9801C0A9
:1058E000EF98E82FF0E0EE0FFF1FEE5BF14F118213
:1058F0001082789408951F920F920FB60F92112480
:105900000BB60F922F933F934F935F936F937F93B9
:105910008F939F93AF93BF93EF93FF938091420E2A
:105920009091430E892B29F0E091420EF091430EA5
:105930000995FF91EF91BF91AF919F918F917F91C9
:105940006F915F914F913F912F910F900BBE0F90F0
:105950000FBE0F901F9018951F920F920FB60F92C7
:1059600011240BB60F922F933F934F935F936F9336
:105970007F938F939F93AF93BF93EF93FF93809108
:10598000440E9091450E892B29F0E091440EF09140
:10599000450E0995FF91EF91BF91AF919F918F9126
:1059A0007F916F915F914F913F912F910F900BBE1F
:1059B0000F900FBE0F901F9018951F920F920FB669
:1059C0000F9211240BB60F922F933F934F935F9337
:1059D0006F937F938F939F93AF93BF93EF93FF93B7
:1059E0008091460E9091470E892B29F0E091460E4A
:1059F000F091470E0995FF91EF91BF91AF919F9163
:105A00008F917F916F915F914F913F912F910F9067
:105A10000BBE0F900FBE0F901F9018951F920F9204
:105A20000FB60F9211240BB60F922F933F934F9303
:105A30005F936F937F938F939F93AF93BF93EF93F6
:105A4000FF938091480E9091490E892B29F0E091A7
:105A5000480EF091490E0995FF91EF91BF91AF91DA
:105A60009F918F917F916F915F914F913F912F9176
:105A70000F900BBE0F900FBE0F901F9018951F92A6
:105A80000F920FB60F9211240BB60F922F933F93E4
:105A90004F935F936F937F938F939F93AF93BF9336
:105AA000EF93FF9380914A0E90914B0E892B29F032
:105AB000E0914A0EF0914B0E0995FF91EF91BF9145
:105AC000AF919F918F917F916F915F914F913F9196
:105AD0002F910F900BBE0F900FBE0F901F90189537
