:100000000C946C020C94ED180C941E190C944F195E
:100010000C9480190C94B1190C94E2190C94131AD5
:100020000C94441A0C949B020C949B020C949B021B
:100030000C944A030C949B020C949B020C94A60310
:100040000C949B020C949B020C949B020C949B02BC
:100050000C949B020C949B020C949B020C948103C5
:100060000C949B020C94F91A0C949B020C949B0226
:100070000C949B020C949B020C949B020C949B028C
:100080000C949B020C949B020C949B020C949B027C
:100090000C94341B0C949B020C949B020C94BD1783
:1000A0000C949B020C949B020C949B020C949B025C
:1000B0000C949B020C949B020C949B020C949B024C
:1000C0000C949B020C949B020C949B0253445F3350
:1000D000206578616D706C650066696C652064658B
:1000E0006C657465640066696C65204E4F542064CD
:1000F000656C657465640066696C65206372656132
:100100007465640066696C65204E4F5420637265A7
:1001100061746564000A31202D20617070656E6421
:10012000202268652220696E2066696C6520696EF0
:100130006469636174696E6720322D627974652029
:100140006C656E677468000A31202D2061707065DF
:100150006E64206572726F72000A32202D20617009
:1001600070656E6473202268656C6C6F2220617408
:100170002074686520656E64206F66207468652051
:1001800066696C65000A32202D20617070656E64AE
:10019000206572726F72000A33202D2061707065C5
:1001A0006E64202266697273740A7365636F6E648D
:1001B0000A74686972642220696E2066696C652021
:1001C000616464696E6720616E20454F4C000A339C
:1001D000202D20617070656E64206572726F7200F0
:1001E00008021C02420269028902A102AF02BF0298
:1001F000D402EA02FB0207030E032B0349035F0349
:100200006D037D03A003A603416C61726D204D6FE9
:100210006465206D61746368657320005B44617977
:10022000203A20686F757273203A206D696E75747C
:100230006573203A207365636F6E64735D202D3E95
:1002400020005B44617465203A20686F75727320EA
:100250003A206D696E75746573203A207365636F1B
:100260006E64735D202D3E20005B486F75727320B5
:100270003A206D696E75746573203A207365636FFB
:100280006E64735D202D3E20005B4D696E75746554
:1002900073203A207365636F6E64735D202D3E207A
:1002A000005B5365636F6E64735D202D3E20004FCD
:1002B0006E636520706572207365636F6E640049BC
:1002C0006E636F727265637420616C61726D206D14
:1002D0006F6465005B253032753A253032753A25FA
:1002E0003032753A253032755D005B253032753A13
:1002F000253032753A253032755D005B2530327518
:100300003A253032755D005B253032755D005B4407
:100310006179203A20686F757273203A206D696E9A
:1003200075746573205D202D3E20005B446174650B
:10033000203A20686F757273203A206D696E75746B
:100340006573205D202D3E20005B486F7572732021
:100350003A206D696E757465735D202D3E20005BDB
:100360004D696E757465735D202D3E20004F6E6380
:100370006520706572206D696E7574650025732C3B
:1003800020253032752F253032752F253032752CCF
:1003900020253032753A253032753A2530327500D5
:1003A0006572726F720025303275256325303275A3
:1003B0002563253032752563253032752563253058
:1003C0003275256325303275256325303275000A74
:1003D0002D2D2D2D2D2D2D2D2D2D2D2D2D2D2D2D4D
:1003E0002D2D2D000A2D2D2D2D2D2D2D2D2D2D2D8D
:1003F0002D2D2D2D2D2D2D2D000000080900000084
:1004000000000000000000000000000000000000EC
:1004100000000000000000000000000000000000DC
:1004200000000000000000000000000001020810B1
:1004300010204080040810204002020408102040D0
:1004400080010280204004200101020408102001E4
:100450004080408001020804088004100402010565
:100460000505050303030301010104040306060651
:100470000606060606010405010501030202020242
:100480000202010202050504040304040103040737
:10049000070700202326292C2F32002225282B2E67
:1004A0003134002124272A2D30337C3C3E5E2B3D05
:1004B0003F2F5B5D3B2C2A225C00496E76616C69A4
:1004C000642066696C656E616D650000CD0957102A
:1004D0003A120B1309161E2C11241FBECFEFD1E2C6
:1004E000DEBFCDBF12E0A0E0B2E0EAE5F7E600E053
:1004F0000BBF02C007900D92A83DB107D9F71CE0D1
:10050000A8EDB2E001C01D92A134B107E1F714E0FB
:10051000C8EDD4E000E006C022970109FE010BBF40
:100520000E94F32FCC3CD10780E00807A9F70E9476
:10053000A3050C94AB330C94000082E395E00E9479
:1005400041126CEC70E082E395E00E94ED1281E7CD
:1005500093E00E94730B60910C0270910D0281E791
:1005600093E00E94E10D8093D802813019F469ED87
:1005700070E002C066EE70E082E395E00E94ED124A
:1005800060910C0270910D0281E793E00E94A30F2D
:100590008093D802813019F467EF70E002C064E004
:1005A00071E082E395E00C94ED1240910A025091C3
:1005B0000B0260910C0270910D0222E030E081E7A5
:1005C00093E00E94F50E8093D802813019F465E122
:1005D00071E002C067E471E082E395E00E94ED12F1
:1005E00060910C0270910D0281E793E00E94F70F79
:1005F00068EE73E080E090E00E941D0440910A02E2
:1006000050910B0260910C0270910D0281E793E012
:100610000E94D10E8093D802813019F469E571E00F
:1006200002C065E871E082E395E00E94ED126091FE
:100630000C0270910D0281E793E00E94F70F68EEC3
:1006400073E080E090E00E941D0460910C027091C4
:100650000D024FE052E081E793E00E94390F809352
:10066000D802813019F467E971E002C06EEC71E0E4
:1006700082E395E00E94ED1260910C0270910D02F0
:1006800081E793E00E94F70F68E873E180E090E073
:100690000C941D041F920F920FB60F9211240BB6EB
:1006A0000F922F933F934F935F936F937F938F930B
:1006B0009F93AF93BF93EF93FF93F89481E0809360
:1006C0000E02E0E6F0E080818068808380818F7B8D
:1006D000808360E083E00E9417057894FF91EF919A
:1006E000BF91AF919F918F917F916F915F914F914A
:1006F0003F912F910F900BBE0F900FBE0F901F9048
:1007000018951F920F920FB60F9211248F939F93FB
:10071000AF93BF938091270890912808A091290852
:10072000B0912A080196A11DB11D809327089093CE
:100730002808A0932908B0932A08BF91AF919F91F0
:100740008F910F900FBE0F901F9018951F920F92D0
:100750000FB60F9211248F939F93AF93BF93809105
:100760002B0890912C08A0912D08B0912E0801968D
:10077000A11DB11D80932B0890932C08A0932D08E8
:10078000B0932E08BF91AF919F918F910F900FBEA4
:100790000F901F9018958F929F92AF92BF92CF9219
:1007A000DF92EF92FF920F931F93CF93DF932FB7B8
:1007B000F8948091270890912808A0912908B09179
:1007C0002A082FBF9C01AD0160E070E080E090E05E
:1007D00001E00E94DB2F4901D42FC52FB62FA72F90
:1007E000F82FE92F02E00E94DB2F59016A017B01FB
:1007F0008C0194014D2F5C2F6B2F7A2F8F2F9E2F02
:100800000E94EA2FE9E0AE2EB12CC12CD12CE12CB4
:10081000F12C00E010E00E947E2F952FB901842F6B
:10082000DF91CF911F910F91FF90EF90DF90CF90CC
:10083000BF90AF909F908F9008958F929F92AF92AC
:10084000BF92CF92DF92EF92FF924B015C0107C003
:100850000E94CB036C157D058E059F0520F40E9438
:10086000CB036B017C010E94CB036C197D098E09BF
:100870009F09681579058A059B0550F3FF90EF9055
:10088000DF90CF90BF90AF909F908F900895BC0164
:10089000049768F080E090E00E94062E26E636E697
:1008A00046EE5FE30E94942E0E94DA2D02C0660F8E
:1008B000771F6150710961F06150710949F0FB01C6
:1008C000EE0FFF1F31978FB7F8943197F1F78FBF75
:1008D0000895789484B7877F84BF10922708109278
:1008E00028081092290810922A0884B5826084BDD5
:1008F00084B5816084BD85B5826085BD85B5816024
:1009000085BDEEE6F0E0808181608083E1E8F0E083
:10091000808182608083808181608083E0E8F0E074
:10092000808181608083E1EBF0E08081846080835E
:10093000E1E9F0E0808184608083E0EBF0E0808199
:1009400081608083E0E9F0E0808181608083E4E67B
:10095000F0E080818E7F8083ECE7F0E080818F770C
:100960008083808180648083EAE7F0E08081846016
:100970008083808182608083808180688083109200
:10098000C1001092C90008959091D902982B9093BC
:10099000D90280FF32C0809164008E7F8093640012
:1009A00080917C008F7780937C0080917C008064B4
:1009B00080937C0080917A00846080937A0080919B
:1009C0007A00826080937A0080917A0080688093B8
:1009D0007A00809164008F77809364008091640036
:1009E0008B7F80936400809164008D7F809364008E
:1009F000809165008E7F80936500089590E0FC01F2
:100A0000E45DFB4F2491FC01E15AFB4FE491EE239E
:100A100069F0F0E0EE55FB4FA491B0E08C916111CC
:100A200003C02095822301C0822B8C93089590E00F
:100A3000FC01E750FC4F2491FC01E45DFB4F349135
:100A4000FC01E15AFB4F84918823B1F1222331F15B
:100A5000233021F4909180009F7705C0243031F439
:100A6000909180009F7D9093800018C0213019F4F0
:100A700094B59F7704C0223021F494B59F7D94BD36
:100A80000DC0263021F49091B0009F7705C027302B
:100A900029F49091B0009F7D9093B000E82FF0E092
:100AA000E656FB4FA491B0E08C91611103C03095E4
:100AB000832301C0832B8C93089590E0FC01E750C1
:100AC000FC4F2491FC01E45DFB4F3491FC01E15AA1
:100AD000FB4F8491882399F1222331F1233021F4B3
:100AE000909180009F7705C0243031F49091800070
:100AF0009F7D9093800018C0213019F494B59F77A2
:100B000004C0223021F494B59F7D94BD0DC02630E1
:100B100021F49091B0009F7705C0273029F490917F
:100B2000B0009F7D9093B000E82FF0E0EE56FB4FB1
:100B3000E491F0E08081832321E030E011F420E0B3
:100B400030E0C90108950E94690487E395E00E949E
:100B50006A14853440F061E081E30E94FE0461E0A4
:100B600081E30E94170561E070E087E395E00E9451
:100B700046138130B1F480912F0890913008A091F4
:100B80003108B0913208906880932F089093300814
:100B9000A0933108B093320860E081E090E00E94B9
:100BA000ED328EED92E00E94B2098EED92E00E944D
:100BB00073098EED92E00E9482098EED92E00E9410
:100BC000A90663E070E080E090E00E941D0480913F
:100BD0002F0890913008A0913108B0913208A1FF00
:100BE0005EC063E070E080E090E00E941D0461E080
:100BF00086E10E94FE0463E070E080E090E00E94E5
:100C00001D0461E086E10E94170563E070E080E06A
:100C100090E00E941D040E945B1063E070E080E0A1
:100C200090E00E941D0481E00E947E1063E070E06D
:100C300080E090E00E941D0484E00E948C1063E03C
:100C400070E080E090E00E941D0480E00E94871028
:100C500063E070E080E090E00E941D040E947A1042
:100C600063E070E080E090E00E941D0466E08DE2A9
:100C700095E00E94971063E070E080E090E00E94B1
:100C80001D0461E086E10E94FE0460E086E10E94AE
:100C9000170563E070E080E090E00E941D0463E0CF
:100CA00070E080E090E00E941D0487E395E00E94E0
:100CB00044146093DA027093DB028093DC02909319
:100CC000DD028091DA029091DB02A091DC02B0910A
:100CD000DD020E944B300E949D020E94D502FDCF92
:100CE00080913E05882341F080912008811104C045
:100CF00085E298E00C94CE2D08950F931F93CF9327
:100D0000DF93EC01042F68A761E080E30E94FE04FA
:100D100018A5112379F0113091F461E080E30E946D
:100D20001705013019F482E08B8B09C0011107C04F
:100D30001B8B05C060E080E30E9417051B8A6AE0F8
:100D400070E080E090E0DF91CF911F910F910C94C3
:100D50001D04CF93DF93EC010E94700640E060E039
:100D6000CE01DF91CF910C947D06FC01148A158A87
:100D7000168A178A108E118E128E138E148E158E6F
:100D8000168E178E10A211A212A213A214A215A2DF
:100D900016A217A20895EF92FF920F931F93CF937D
:100DA000DF93CDB7DEB7EC970FB6F894DEBF0FBE7A
:100DB000CDBF8C01E2E0F2E085919491BC01EE247C
:100DC000E394F12CEC0EFD1EC7010E945630E4E0C6
:100DD000F2E085919491BC01CE0189960E94563033
:100DE000F8018689843009F466C040F4823029F124
:100DF00008F04BC0813009F0B6C009C0863009F454
:100E000086C008F46EC0873009F0ADC096C0F80106
:100E1000818D1F928F93808D1F928F9387891F9250
:100E20008F93828D1F928F9385891F928F938489D0
:100E30001F928F9382E392E015C0F801818D1F927B
:100E40008F93808D1F928F9387891F928F93828DAE
:100E50001F928F9385891F928F9384891F928F93FE
:100E600086E392E09F938F93FF92EF921F9284E626
:100E70008F93C80189969F938F930E949D300FB6E0
:100E8000F894DEBF0FBECDBF81C0F801818D1F92E7
:100E90008F93808D1F928F9387891F928F93828D5E
:100EA0001F928F9385891F928F9384891F928F93AE
:100EB0008AE392E0D7CFF801818D1F928F93808DC6
:100EC0001F928F9387891F928F93828D1F928F938A
:100ED00085891F928F9384891F928F938EE392E06E
:100EE000C1CFF801818D1F928F93808D1F928F93B8
:100EF00087891F928F93828D1F928F9385891F926E
:100F00008F9384891F928F9382E492E0ABCFF80194
:100F1000818D1F928F93808D1F928F9387891F924F
:100F20008F93828D1F928F9385891F928F938489CF
:100F30001F928F9386E492E095CFF801818D1F92E6
:100F40008F93808D1F928F9387891F928F93828DAD
:100F50001F928F9385891F928F9384891F928F93FD
:100F60008AE492E07FCFCE0189969F938F931F9260
:100F700084E68F93C80189969F938F930E949D303A
:100F80000F900F900F900F900F900F90075D1F4FD5
:100F9000C801EC960FB6F894DEBF0FBECDBFDF914F
:100FA000CF911F910F91FF90EF900895CF92DF9214
:100FB000EF92FF920F931F93CF93DF938C01C62E76
:100FC00080913E05811104C088E395E00E9472146F
:100FD00068E670E088E395E00E949F1460E070E0AE
:100FE00088E395E00E94CB1588E395E00E94CD153B
:100FF00043E150E068E670E088E395E00E94071660
:10100000E12CF12CC0E0D0E0D12CE4C088E395E0E5
:101010000E94A714F801EC0FFD1F8083C630D10594
:1010200009F467C098F4C230D10509F43EC038F421
:10103000209729F1C130D10509F0C7C02BC0C430B9
:10104000D10509F440C008F049C03AC0CA30D10502
:1010500009F484C048F4282F30E0C830D10509F4E1
:1010600061C008F06DC050C0CC30D10509F492C009
:1010700008F482C0CD30D10509F0A7C099C0982FDF
:1010800092959F708F702AE0929F800D1124F80135
:10109000818F9BC0982F92959F708F70FAE09F9FD1
:1010A000800D1124F801808F90C0982F92959F7029
:1010B0008F70FAE09F9F800D1124F801878B85C007
:1010C000F801868B82C0982F92959F708F70FAE0FE
:1010D0009F9F800D1124F801828F77C0982F9295E1
:1010E0009F708F70FAE09F9F800D1124F801858B0F
:1010F0006CC0982F92959F708F70FAE09F9F800D23
:101100001124F801848B61C054E0359527955A95D8
:10111000E1F727708F70FAE02F9F800D1124F801FE
:10112000838F53C044E0359527954A95E1F72770A2
:101130008F70FAE02F9F800D1124F801848F45C035
:1011400094E0359527959A95E1F723708F70FAE032
:101150002F9F800D1124F801858F37C0282F2695E9
:10116000269526952670922F990F990F920F8F70C2
:10117000980FF801968F29C0282F26952695269539
:101180002E70922F990F990F920F8F70980FF80170
:10119000978F1BC0282F2695269526952670922F6F
:1011A000990F990F920F8F70980FF80190A30DC0AF
:1011B000282F2695269526952670922F990F990F00
:1011C000920F8F70980FF80191A3219603C0FFEF43
:1011D000EF1AFF0ACC16DD0658F02AE0E216F104F9
:1011E00038F488E395E00E94A114882381F30ECFA0
:1011F000DF91CF911F910F91FF90EF90DF90CF90F3
:1012000008951F93CF93DF93EC01162F80913E0535
:10121000811104C088E395E00E94721468E670E0D2
:1012200088E395E00E949F14612F88E395E00E9477
:101230009F15C10FD11D688188E395E00E949F151D
:1012400088E395E0DF91CF911F910C94CD15FF922B
:101250000F931F93CF93DF938C01F62E80913E0561
:10126000811104C088E395E00E94721468E670E082
:1012700088E395E00E949F146F2D88E395E00E941B
:101280009F1588E395E00E94CD1541E050E068E6A7
:1012900070E088E395E00E940716CBE0D0E088E399
:1012A00095E00E94A114811102C02197C1F788E343
:1012B00095E00E94A714F801EF0DF11D808388E3EB
:1012C00095E0DF91CF911F910F91FF900C94CD1578
:1012D000CF93DF93EC0166E00E94D607CE01DF9149
:1012E000CF910C94CB06CF93DF93EC016EE00E947C
:1012F00027098E858E7F8E876EE0CE01DF91CF919C
:101300000C940109CF93DF93EC016EE00E94270952
:101310008E858D7F8E876EE0CE01DF91CF910C940C
:101320000109CF93DF93EC016FE00E9427098F85BD
:101330008370DF91CF910895CF93DF93EC010E94EA
:101340009109882319F0CE56DF4F88838091ED02F2
:101350008C7F8093ED026FE08EED92E0DF91CF9174
:101360000C940109CF93DF93EC0140E061E00E940F
:101370007D06CE010E949C09CE010E94B5066DE05B
:10138000CE010E94D60761E08BE20E94FE0460E07D
:101390008BE2DF91CF910C94170510926F0310929E
:1013A000F10208952091F30240E2249F900111245C
:1013B0004091F802242B4091F20250E04C5E5F4FC6
:1013C000542F4427550F242B352BFC0131832083C8
:1013D0008091F602F0E28F9FC00111244091F50246
:1013E000342F330F330F330F20E0822B932B2091B8
:1013F000F70230E035952795822B932BFB019183E3
:101400008083089541110C94002681E0089561E0E5
:101410008BE10E9417056AE070E080E090E00C9498
:101420001D04EF92FF920F931F93CF93DF93EB0175
:1014300028813981FC01E20FF31FE081EF3211F4C2
:101440002F5F3F4FDA01E0E0F0E07C01E20EF31E97
:1014500087010E0F1F1FE80118811F3289F011113B
:1014600019C00EC02F5F3F4FFB0131832083FC0169
:10147000E20FF31F81E09081911114C080E012C04F
:10148000E40FF51F1082FC01E20FF31F40814F3281
:1014900059F7E8CF1D9331962F5F3F4FE233F105A7
:1014A00079F3D6CFDF91CF911F910F91FF90EF90FD
:1014B00008952F923F924F925F926F927F928F92F8
:1014C0009F92AF92BF92CF92DF92EF92FF920F93D3
:1014D0001F93CF93DF93CDB7DEB7CA56D1090FB6AE
:1014E000F894DEBF0FBECDBF6C017B015A014901EC
:1014F000FE01E25BFF4F108212821CAA1EAADE01CF
:10150000A859BF4F11961C921E928B015E2E4F2E32
:101510003A2E2B2E3E0184E3680E711C08C0902FDA
:10152000812F02C0962D872D052D142D2C01AE0183
:101530004F5F5F4F632D722DC6010E94110A582F15
:1015400041E048279401BE016F5F7F4FC801AB9611
:101550005FAFAB97F5010995AB965FADAB97811186
:1015600009C00E151F0509F403C0C8010E94DB2243
:1015700080E026C05523C9F021E0AE014F5F5F4FE8
:10158000B801852D942D0E942E25282F0E151F059C
:10159000A1F0C801AB962FAFAB970E94DB22AB96B0
:1015A0002FADAB972111BBCFE3CF0E151F0519F05F
:1015B000C8010E94DB2281E003C08111B3CFD8CFE4
:1015C000C659DF4F0FB6F894DEBF0FBECDBFDF9117
:1015D000CF911F910F91FF90EF90DF90CF90BF9030
:1015E000AF909F908F907F906F905F904F903F90C3
:1015F0002F900895FC01128A118E138EDC01A356E0
:10160000BE4F89E111968C93119714961C92DF01BD
:10161000AE55BE4F1C9212961C92E956FE4F118297
:10162000108208958CE10E945D0521E0892B09F468
:1016300020E0822F0895EF92FF920F931F93CF9394
:10164000DF93EC010E94120B811105C0C956DE4FD9
:1016500081E090E00EC08E0103561E4F42E06DE126
:10166000C8010E94EA1C811108C0C956DE4F82E001
:1016700090E09983888380E02FC07E0141E0B8012B
:10168000CE010E94142B811108C040E0B801CE01A8
:101690000E94142B811101C0E8CF8E01075E1F4FFD
:1016A000B701C8010E9445229E0129563E4F811173
:1016B00006C088E090E0F90191838083DCCFDE01F1
:1016C000AE55BE4F8AE1F80101900D928A95E1F77F
:1016D000F9011182108281E0DF91CF911F910F916A
:1016E000FF90EF900895CF93DF93EC0161E08DE1DF
:1016F0000E94FE0460E08DE10E94170540912F08D2
:1017000050913008609131087091320861604093C7
:101710002F0850933008609331087093320864E6C4
:1017200070E080E090E00E941D0461E08BE10E9487
:10173000FE0460E08CE10E94FE0481E080932E05AF
:101740000E94070ACE01DF91CF910C941B0B4F92A0
:101750005F926F927F928F929F92AF92BF92CF9241
:10176000DF92EF92FF920F931F93CF93DF93CDB74A
:10177000DEB7C154D1090FB6F894DEBF0FBECDBF9E
:101780005C014A012901FB01EE55FE4F8AE1DE01B1
:101790005B9601900D928A95E1F719821B828A016E
:1017A000EE24E394F12CEC0EFD1E6E018BE1C80ECD
:1017B000D11C35C0F80120812F3219F40F5F1F4F63
:1017C0002EC0801B8D3008F08CE0682E712CA30198
:1017D000B801CE01C5960E948E30E5E3F0E0EC0F33
:1017E000FD1FE60DF71D1082C7010E94DB2221E0DC
:1017F000AE014B5C5F4FB601C7010E942E258111DF
:1018000004C0F501108212821DC0060D171DC6010D
:101810000E94DB229C2D8D2D6701E92EF82E6FE2B0
:1018200070E0C8010E947330009721F60819190969
:10183000F201118300838AE1F601D50101900D9236
:101840008A95E1F7C501CF5BDF4F0FB6F894DEBF95
:101850000FBECDBFDF91CF911F910F91FF90EF9001
:10186000DF90CF90BF90AF909F908F907F906F90C0
:101870005F904F900895BF92CF92DF92EF92FF92C8
:101880000F931F93CF93DF93CDB7DEB76C970FB64F
:10189000F894DEBF0FBECDBF7C016B018A01B22E72
:1018A0009E01255E3F4FAB01BC01CE0101960E9417
:1018B000A70B4B8D5C8D4C0D5D1DFA018081811154
:1018C00002C080E01CC08B818823D9F38250823013
:1018D00040F4B701675E7F4F2B2DC8010E942E2573
:1018E0000EC02B2DBE016F5F7F4FC8010E942E25B9
:1018F000882339F3CE0101960E94DB2281E06C96A9
:101900000FB6F894DEBF0FBECDBFDF91CF911F9110
:101910000F91FF90EF90DF90CF90BF900895CF92FE
:10192000DF92EF92FF920F931F93CF93DF93CDB788
:10193000DEB76A970FB6F894DEBF0FBECDBF19822F
:101940001B8221E0AE014F5F5F4F0E943B0C88235A
:1019500059F0CB88DC88ED88FE88CE0101960E9484
:10196000DB228601970103C00FEF1FEF9801B8013A
:10197000C9016A960FB6F894DEBF0FBECDBFDF91E6
:10198000CF911F910F91FF90EF90DF90CF9008952E
:101990004F925F926F927F928F929F92AF92BF927F
:1019A000CF92DF92EF92FF920F931F93CF93DF932B
:1019B000CDB7DEB7A4970FB6F894DEBF0FBECDBF8C
:1019C0007C01962E872E29013A0119821B820E94E2
:1019D000120B47E9A42EBB24B394AE0CBF1C81119B
:1019E0000EC081E290E0F50191838083F3E3EF0E76
:1019F000F11C69E672E0C7010E948730CAC0011578
:101A0000110529F0013081E0180708F402C000E058
:101A100011E0F501808191818F7C9D7F918380838E
:101A200021E0CC24C394D12CCC0EDD1EA601692D5F
:101A3000782DC7010E943B0C811117C0F3E3EF0E14
:101A4000F11C8F929F928FE692E09F938F9381E09B
:101A50008F931F92FF92EF920E949D30F50180813B
:101A6000918180629183808320C0B301A201C6016D
:101A70000E94472181111FC093E3E90EF11C8F9250
:101A80009F9280E892E09F938F9381E08F931F92C3
:101A9000FF92EF920E949D30F501808191819260CA
:101AA00091838083C6010E94DB220FB6F894DEBFCB
:101AB0000FBECDBF6EC05E019BE1A90EB11C4AE016
:101AC00050E0B501C6010E94CC1F412C512C3201BF
:101AD0009C2C8D2C23C09191D701A40DB51DD396BC
:101AE0009C939FEF491A590A690A790A91E0C91A29
:101AF000D10851F0411491E059066104710421F0BC
:101B0000902F9C19981738F38A30B8F04AE050E0CB
:101B1000B501892D982D0E94CC1F8601882369F07C
:101B20000115110551F0EFEF4E16510461047104D7
:101B300009F070F4F5016801E3CFFFEF4F1651048F
:101B40006104710428F4F701E40DF51D13AA1AC00D
:101B5000F701E15DFE4F8EE38083F701E05DFE4F0C
:101B60008083F701EF5CFE4F8AE08083F701EE5C33
:101B7000FE4F1082F701E956FE4F8081918180610E
:101B800091838083CE0101960E94DB2283E3E80EDD
:101B9000F11CC701A4960FB6F894DEBF0FBECDBFEF
:101BA000DF91CF911F910F91FF90EF90DF90CF9039
:101BB000BF90AF909F908F907F906F905F904F906D
:101BC0000895FB01BC016E557E4F20E030E042E0FD
:101BD0005AE0CF010C94590A2F923F924F925F9294
:101BE0006F927F928F929F92CF92DF92EF92FF92AD
:101BF0000F931F93CF93DF93CDB7DEB76A970FB6DE
:101C0000F894DEBF0FBECDBF6C01962E872E3A0131
:101C10001801290119821B820E94120B86010956A4
:101C20001E4F81110CC081E091E0D8018D939C93EF
:101C300069E672E0C601C3960E9487302DC0F801A4
:101C4000808191819C7F918380832BE0AE014F5FE7
:101C50005F4F692D782DC6010E943B0C81111EC07B
:101C60008F929F9286E992E09F938F9381E08F936A
:101C70001F92F3E3CF0ED11CDF92CF920E949D30D2
:101C8000D8018D919C91119791608D939C930FB683
:101C9000F894DEBF0FBECDBF80E059C0B201A101F4
:101CA000CE0101960E94472181111AC08F929F9206
:101CB00080E892E09F938F9381E08F931F92F3E3EC
:101CC000CF0ED11CDF92CF920E949D30CE010196A3
:101CD0000E94DB22D8018D919C9111979260D5CF03
:101CE000D3010D900020E9F78D010150110906196B
:101CF0001709E016F10608F48701A801B301CE0127
:101D000001960E94092880179107E1F08F929F9217
:101D100089EA92E09F938F9381E08F931F92C6018F
:101D2000C3969F938F930E949D30CE0101960E948F
:101D3000DB22F601E956FE4F80819181916091830B
:101D40008083A5CFCE0101960E94DB2281E06A96B6
:101D50000FB6F894DEBF0FBECDBFDF91CF911F91BC
:101D60000F91FF90EF90DF90CF909F908F907F909A
:101D70006F905F904F903F902F900895EF92FF9259
:101D80000F931F93FA0101900020E9F73197E41BAC
:101D9000F50B7F010E94EC0D1F910F91FF90EF90CA
:101DA0000895CF92DF92EF92FF920F931F93CF93FC
:101DB000DF9300D0CDB7DEB76C017B0149835A8336
:101DC0000E948F0C8B019C0149815A81B701C60189
:101DD0000E94BE0E0F900F90DF91CF911F910F9137
:101DE000FF90EF90DF90CF900895AF92BF92CF9287
:101DF000DF92EF92FF920F931F93CF93DF9300D068
:101E0000CDB7DEB75C016B01790149835A830E942B
:101E10008F0C8B019C0149815A81B601C5010E943A
:101E2000EC0D0F900F90DF91CF911F910F91FF90CC
:101E3000EF90DF90CF90BF90AF9008950F931F93D6
:101E4000CF93DF93EC018B0147EA52E00E94D10E61
:101E500081110AC047EA52E0B801CE01DF91CF916B
:101E60001F910F910C94D10EDF91CF911F910F9183
:101E70000895FF920F931F93CF93DF93EC018B0193
:101E80000E94D10EF82E882329F0B801CE010E94BD
:101E90001E0FF8228F2DDF91CF911F910F91FF9090
:101EA00008958F929F92AF92BF92CF92DF92EF925E
:101EB000FF92C0902F08D0903008E0903108F09049
:101EC000320881E0C822DD24EE24FF2480902F0810
:101ED00090903008A0903108B090320840E061E066
:101EE00085E298E00E946B2D40E060E085E298E09A
:101EF0000E946B2D8EED92E00E94B2098EED92E071
:101F00000E94680981FC06C041E060E085E298E03B
:101F10000E946B2DCD28CE28CF2831F441E061E01E
:101F200085E298E00E946B2D82ED99E090930F0678
:101F300080930E06FF90EF90DF90CF90BF90AF9010
:101F40009F908F900895EF92FF920F931F93CF93DE
:101F5000DF93CDB7DEB76C970FB6F894DEBF0FBE38
:101F6000CDBF7C0119821B826B8F7C8F0E94510F29
:101F7000C7010E94120B870109561E4F6B8D7C8D85
:101F800081110CC081E490E0F8019183808369E6BF
:101F900072E0C701C3960E94873015C0F8018081A6
:101FA00091818F7B9183808323ECAE014F5F5F4FE4
:101FB000C7010E943B0C811108C0F801808191810A
:101FC00080649183808380E005C0CE0101960E94E9
:101FD000DB2281E06C960FB6F894DEBF0FBECDBF5A
:101FE000DF91CF911F910F91FF90EF9008958F9205
:101FF0009F92AF92BF92CF92DF92EF92FF920F9398
:102000001F93CF93DF93EB0181E793E00E948F0C46
:102010004B015C016FEC73E082E395E00E94ED12EE
:1020200040E060E072EC81E090E00E94751A61E0AF
:1020300087E10E94170560E08BE00E941705C12C24
:10204000D12C760113C001E010E0A7019601BE017A
:1020500081E793E00E94C80C60E08091A4030E9495
:102060006F1B8FEFC81AD80AE80AF80AC814D904F7
:10207000EA04FB0444F363E070E080E090E00E9437
:102080001D0461E08BE00E94170564EE73E082E3BB
:1020900095E0DF91CF911F910F91FF90EF90DF902E
:1020A000CF90BF90AF909F908F900C94ED1281E7EE
:1020B00093E00C94FA0A61E08EE10E94FE0461E074
:1020C0008FE10E94FE0461E08DE10E94FE0460E069
:1020D0008EE10E94170560E08FE10E94170561E024
:1020E0008DE10E9417058CB580618CBD8CB5806434
:1020F0008CBD08958CB58F7B8CBD0895811103C074
:102100008CB5806202C08CB58F7D8CBD08959CB566
:10211000937F982B9CBD08952CB5982F93702C7F9E
:10212000922B9CBD9DB580FB90F99DBD0895CF93EA
:10213000C62F61E08DE10E94FE0461E082E20E9410
:10214000FE0461E08DE10E94170561E082E20E94D9
:10215000170580912F0890913008A0913108B09117
:102160003208A2FF08C061E088E00E94FE0461E03E
:1021700088E00E94170580912F0890913008A09167
:102180003108B091320896FF08C061E089E00E94F2
:10219000FE0461E089E00E94170580912F0890916C
:1021A0003008A0913108B0913208A3FF08C061E067
:1021B00082E00E94FE0461E082E00E941705C330C5
:1021C000C9F020F4C13061F070F407C0C53061F18E
:1021D000F0F0C63009F067C033C060E08DE160C048
:1021E00060E082E25DC087E395E00E942E1360E02C
:1021F0008CE256C080912F0890913008A091310850
:10220000B0913208A2FF4FC060E088E049C08091E1
:102210002F0890913008A0913108B091320896FFB4
:1022200042C060E089E03CC080912F089091300866
:10223000A0913108B0913208A3FF35C060E02FC0F3
:1022400061E08DE10E94170561E082E20E941705BE
:1022500080912F0890913008A0913108B0913208F8
:10226000A2FF04C061E088E00E94170580912F085A
:1022700090913008A0913108B091320896FF04C0C7
:1022800061E089E00E94170580912F089091300845
:10229000A0913108B0913208A3FF05C061E082E04F
:1022A000CF910C941705CF91089580912F089091AC
:1022B0003008A0913108B0913208A2FF0EC0809181
:1022C0002F0890913008A0913108B091320881FF19
:1022D00004C080912F05882311F180912F089091DF
:1022E0003008A0913108B0913208A1FF0CC0809154
:1022F0002D05811108C061E086E10E94FE0461E0C5
:1023000086E10E94170580912E0581110DC061E0C4
:102310008BE10E94FE0461E08BE10C94170561E003
:1023200082E00E941705D9CF089580912F089091DF
:102330003008A0913108B0913208A2FF0EC0809100
:102340002F0890913008A0913108B091320881FF98
:1023500004C080912F05882311F180912F0890915E
:102360003008A0913108B0913208A1FF0CC08091D3
:102370002D05811108C061E086E10E94FE0460E045
:1023800086E10E94170580912E0581110DC061E044
:102390008BE10E94FE0460E08BE10C94170560E085
:1023A00082E00E941705D9CF0895CF93C82F8DE200
:1023B00095E00E945511CEBD0DB407FEFDCF8DE214
:1023C00095E00E9495118EB5CF9108950F931F93BC
:1023D000CF93DF938A01EB01060F171F03C089918A
:1023E0000E94D511C017D107D1F7DF91CF911F916E
:1023F0000F9108950F931F93CF93DF93EB01411536
:10240000510519F18A01015011098DE295E00E94F0
:1024100055118FEF8EBDFE012FEF06C00DB407FEE4
:10242000FDCF8EB52EBD8193CF018C1B9D0B8017E8
:102430009107A0F30DB407FEFDCF8EB5C00FD11FDD
:1024400088838DE295E00E94951180E0DF91CF9125
:102450001F910F9108958DE295E00E9455118FEF25
:102460008EBD0DB407FEFDCF8DE295E00E94951163
:102470008EB5089510922E0510922D0510922F05FD
:102480000895FC01408160E072EC81E090E00E94E0
:10249000751A61E087E10E94FE0461E087E10E9415
:1024A000170561E08BE00E94FE0460E08BE00E9473
:1024B000170561E08DE20E94FE0460E08DE20C945D
:1024C0001705DC018091C50011968C9311978091BE
:1024D000C40012968C931297E2ECF0E08081139680
:1024E0008C9313978091CA0014968C9314978081D3
:1024F0008F7D808380818F7E80838081877F8083B2
:102500004C9160E072EC81E090E00E94751A61E00D
:1025100087E10E94170560E08BE00C941705CF93CC
:10252000DF93EC0140912F08509130086091310801
:102530007091320863E070E080E090E042FF07C0F5
:102540000E941D0461E08BE00E94170502C00E94FA
:102550001D0489818093C5008A818093C4008B818A
:102560008093C2008C818093CA00DF91CF9108953F
:10257000EF92FF920F931F93CF93DF938C01EB01A8
:102580000E9461127E0188E1E81A8CEFF80AFE01D0
:1025900021968491882339F0F80160810E946F1B95
:1025A000CE15DF05A1F7C8010E948F1260E070E030
:1025B000CB01DF91CF911F910F91FF90EF90089584
:1025C000CF93DF93EC010E94611288810E94711BFE
:1025D000CE01DF91CF910C948F12EF92FF920F9367
:1025E0001F93CF93DF9300D0CDB7DEB77C010E945D
:1025F000B8128C01C70169837A830E94E012698155
:102600007A81C8010F900F90DF91CF911F910F91A8
:10261000FF90EF9008951092320508951F93CF9385
:10262000DF931F92CDB7DEB7162F61E0812F49836C
:102630000E94FE044981413011F461E003C0411160
:1026400008C060E0812F0F90DF91CF911F910C9413
:1026500017050F90DF91CF911F91089561E087E1F9
:102660000E94FE0461E084E20E94FE0461E085E2D3
:102670000E94FE0461E087E10E94170561E084E2A8
:102680000E94170561E085E20C941705CB010C94BC
:10269000DF328F929F92AF92BF92CF92DF92EF92F2
:1026A000FF920F931F93CF93DF93CDB7DEB7C75F32
:1026B000D1090FB6F894DEBF0FBECDBF8E01005119
:1026C0001F4F580128E0A20EB11C7E0181E8E80EE0
:1026D000F11CCC24C394D12CCC0EDD1E6DE0CE01B8
:1026E0008F519F4F0E944D2D40E06CE087E395E0B5
:1026F0000E940E1340E06DE087E395E00E940E1308
:10270000F801108211821282138261E08CE00E9433
:10271000FE0461E08CE00E941705CE018F519F4FAF
:102720000E942D2C41E06DE087E395E00E940E139E
:102730006AE070E080E090E00E941D0440E063E306
:10274000CE018F519F4F0E94FE2C62E370E080E02B
:1027500090E00E941D044701CE018F519F4F0E94BF
:10276000D32CF2E08F1A9108F4018083118261E08A
:1027700070E080E090E00E941D048C149D0461F7DD
:10278000FE017196D701C60180599F4F2191319169
:102790002D933D93E817F907C9F731EE832E912C5D
:1027A0008C0E9D1E81E090E0A0E0B0E0F40132913B
:1027B00022914F012130310569F4F80140815181A6
:1027C00062817381480F591F6A1F7B1F40835183A9
:1027D00062837383880F991FAA1FBB1F8E149F04E7
:1027E00029F7F80180819181A281B3818F3F9F4FAA
:1027F000AF4FBF4F29F4F801108211821282138269
:1028000060E08CE00E94170540E06CE087E395E013
:102810000E940E1340E06DE087E395E00E940E13E6
:102820000C5F1F4F0A151B0509F058CFC051DF4F31
:10283000088119812A813B81C05FD040CC50DF4F95
:1028400088819981AA81BB81C45FD040081719078C
:102850002A073B0719F000E010E09801B801C90110
:10286000C950DF4F0FB6F894DEBF0FBECDBFDF916A
:10287000CF911F910F91FF90EF90DF90CF90BF907D
:10288000AF909F908F900895CF92DF92EF92FF923A
:102890000E9449136B017C01611571058105910549
:1028A00091F483EE90E00E94E7326A302AE07207EA
:1028B0008207920741F06F3F2FEF7207820792075E
:1028C00011F06B017C01B601C701FF90EF90DF9022
:1028D000CF9008958FED90E00E94DF328F3F09F492
:1028E00080E00895CF93DF93EC0180E2E6E6F5E027
:1028F000DF01982F1D929A95E9F7109265051092C5
:102900006405E3E4F5E0DF011D928A95E9F7109292
:102910004205109241050E941C1681E08E8384E0DE
:1029200090E0DF91CF910C94470481E080934005C3
:1029300060936305109242051092410508950C942E
:1029400095148091640590916505891B0895909177
:10295000650580916405981748F4E92FF0E0EA597D
:10296000FA4F80819F5F90936505089580E00895F8
:10297000CF93DF93EC010E9468161E82DF91CF9106
:10298000089540912F08509130086091310870915E
:1029900032084170FC01408340912F08509130086B
:1029A00060913108709132087695679557954795F3
:1029B0004170418380912F0890913008A091310897
:1029C000B091320884FD49C080912F089091300861
:1029D000A0913108B091320885FD3FC080912F0849
:1029E00090913008A0913108B091320886FD35C031
:1029F00080912F0890913008A0913108B091320851
:102A000087FD2BC080912F0890913008A09131084C
:102A1000B091320890FD21C080912F08909130082C
:102A2000A0913108B091320891FD17C080912F0814
:102A300090913008A0913108B091320893FD0DC0FB
:102A4000089540E060E085E298E00E946B2D40E050
:102A500061E085E298E00C946B2D80913F0588231E
:102A600081F30895CF93DF93EC0180912F0890912B
:102A70003008A0913108B091320884FD58C080918F
:102A80002F0890913008A0913108B091320885FD4F
:102A90004EC080912F0890913008A0913108B091DC
:102AA000320886FD44C080912F0890913008A09193
:102AB0003108B091320887FD3AC080912F0890917B
:102AC0003008A0913108B091320890FD30C040919B
:102AD0002F0850913008609131087091320851FDF3
:102AE00026C040912F0850913008609131087091B4
:102AF000320853FD1CC020C041E060E085E298E050
:102B00000E946B2D0CC08981811106C041E060E0FC
:102B100085E298E00E946B2D888181110DC041E013
:102B200061E085E298E0DF91CF910C946B2D80916C
:102B30003F058111E8CFE0CFDF91CF910895CF938A
:102B4000DF931F92CDB7DEB769838091400588235C
:102B500089F0809141058032D0F480914205E82FC0
:102B6000F0E0ED5BFA4F60838F5F809342058093C6
:102B700041050DC088E395E00E94C11461E0CE01DB
:102B800001960E94491688E395E00E9432150F9045
:102B9000DF91CF9108950C949F15CF9388E395E032
:102BA0000E94C11421E04091410563E475E08091E9
:102BB00063050E940C17C82F109242051092410520
:102BC0001092400588E395E00E9432158C2FCF913A
:102BD0000895CF93DF93D62FC42F88E395E00E940A
:102BE000C114C13208F0C0E24C2F66E675E08D2FAB
:102BF0000E947117D82F10926505C093640588E371
:102C000095E00E9432158D2FDF91CF9108950C949D
:102C1000E91510923F0510923805109239058AEF98
:102C200090E0A0E0B0E080933A0590933B05A0933C
:102C30003C05B0933D05089510928F05E4E6F0E061
:102C400080818F778083589A599AE9EBF0E08081F0
:102C50008E7F808380818D7F808381E48093B80024
:102C600085E48093BC0080E2E0E9F5E0DF01982F85
:102C70001D929A95E9F7E0EBF5E0DF01982F1D92A0
:102C80009A95E9F7E0EDF5E0DF011D928A95E9F705
:102C90000895613298F420918F05243089F460936F
:102CA0008C05FC0180EB95E0DC0102C021912D93A5
:102CB0002A2F281B2617D0F380E0089581E008957D
:102CC00082E0089585EC8093BC0010928F050895F2
:102CD000589859988091B90081608093B90080918B
:102CE000B90082608093B9008091BC0080688093B5
:102CF000BC008091BC0080618093BC008091BC00CE
:102D00008F7B8093BC008091BC008F7D8093BC0042
:102D10008091BC00877F8093BC0080912F089091A8
:102D20003008A0913108B091320886FD14C080911E
:102D30002F0890913008A0913108B091320890FD91
:102D40000AC080912F0890913008A0913108B0916D
:102D5000320893FF04C08091BC008B7F03C0809138
:102D6000BC0084608093BC008091BC008E7F809307
:102D7000BC0080916400806880936400089588237B
:102D800049F01092860510928705109288051092DE
:102D9000890513C08091860590918705A0918805CB
:102DA000B09189050196A11DB11D80938605909370
:102DB0008705A0938805B093890580918605909139
:102DC0008705A0918805B0918905803A9648A14071
:102DD000B10560F010928605109287051092880563
:102DE000109289050E941C1681E0089580E00895E4
:102DF00085ED8093BC0081E00E94BF1608C080E092
:102E00000E94BF16882319F010928F0508958091B3
:102E1000BC0084FDF4CFF8CFFF920F931F93CF93A4
:102E2000DF93182F062FF72EC42FD22F81E04132C7
:102E300008F051C00E94BF1615C080E00E94BF1666
:102E4000882381F082E080938F058FEF80938A053D
:102E500010928E05C093F005E02FFF2D60E975E01C
:102E6000DB0107C080918F058111E7CFEBCF819106
:102E70008D938A2F861B8C17D0F3812F90E0880FBB
:102E8000991F8093F10585EE8093BC0081E00E943C
:102E9000BF16D11105C080918A058F3F59F414C027
:102EA00080918F058230B9F780E00E94BF168111B2
:102EB0000DC0F6CF80918A05803251F080918A054D
:102EC000803341F483E007C080E005C085E003C0A3
:102ED00082E001C084E0DF91CF911F910F91FF90BC
:102EE00008950F931F93CF93DF93082FD62F172F9B
:102EF000C42F81E04132E0F50E94BF161DC080E082
:102F00000E94BF168823C1F081E080938F058FEF68
:102F100080938A0510928E05C093F005802F90E073
:102F2000880F991F81608093F10585EE8093BC0026
:102F300081E00E94BF1610C080918F058111DFCF04
:102F4000E3CF80E00E94BF16882331F080E995E04E
:102F5000ED2FF12FDC0107C080918F05813089F3BF
:102F6000F5CF2D9121932A2F281B2C17D0F380E029
:102F7000DF91CF911F910F9108951F920F920FB67D
:102F80000F9211240BB60F922F933F934F935F93A1
:102F90006F937F938F939F93AF93BF93CF93EF9351
:102FA000FF93C091B900C87FC03609F49FC058F59F
:102FB000C83209F45BC090F4C03109F452C038F44F
:102FC000CC2309F4F2C0C83009F0F3C04AC0C831BC
:102FD00009F44CC0C03209F0ECC05DC0C03409F443
:102FE00073C038F4C03309F45BC0C83309F0E1C0E2
:102FF0005AC0C03509F45CC0C83509F46AC0C83489
:1030000009F0D7C0D4C0C83909F4C5C0A8F4C8377E
:1030100009F46CC038F4C83609F468C0C03709F048
:10302000C8C064C0C83809F4B6C0C03909F464C067
:10303000C03809F0BEC060C0C03B09F484C038F499
:10304000C03A09F46BC0C83A09F0B3C07CC0C03CB8
:1030500009F4A5C0C83C09F4A2C0C83B09F0A9C046
:1030600087C08091F1058093BB0013C090918E05BD
:103070008091F005981708F09AC080918E05E82F8E
:10308000F0E0E057FA4F90819093BB008F5F809300
:103090008E0585EC81C00E94F816C0938A0589C010
:1030A000C0938A0584C0C0938A050E94621681C0BD
:1030B00080918E059091BB00E82FF0E0E057FA4F29
:1030C00090838F5F80938E0590918E058091F0059F
:1030D0005FC080918E059091BB00E82FF0E0E05733
:1030E000FA4F90838F5F80938E0561C083E0809359
:1030F0008F0510928B05CDCF80918B05803208F023
:103100004AC080918B059091BB00E82FF0E0E0531E
:10311000FA4F90838F5F80938B05BBCF80918B0597
:10312000803230F4E0918B05F0E0E053FA4F1082EA
:1031300060918B05E091F205F091F30570E080ED70
:1031400095E009952CC084E080938F0510928D0541
:1031500010928C05E091F405F091F50509958091A8
:103160008C05811105C081E080938C051092B0051B
:1031700080918D05E82FF0E0E055FA4F9081909313
:10318000BB008F5F80938D0590918D0580918C059C
:10319000981708F47ECF85E88093BC000AC085ECC0
:1031A0008093BC0010928F0504C010928A050E9483
:1031B000F816FF91EF91CF91BF91AF919F918F91B1
:1031C0007F916F915F914F913F912F910F900BBE27
:1031D0000F900FBE0F901F9018951F920F920FB671
:1031E0000F9211240BB60F922F933F934F935F933F
:1031F0006F937F938F939F93AF93BF93EF93FF93BF
:103200008091F6059091F705892B29F0E091F6055C
:10321000F091F7050995FF91EF91BF91AF919F91C3
:103220008F917F916F915F914F913F912F910F906F
:103230000BBE0F900FBE0F901F9018951F920F920C
:103240000FB60F9211240BB60F922F933F934F930B
:103250005F936F937F938F939F93AF93BF93EF93FE
:10326000FF938091F8059091F905892B29F0E09161
:10327000F805F091F9050995FF91EF91BF91AF9194
:103280009F918F917F916F915F914F913F912F917E
:103290000F900BBE0F900FBE0F901F9018951F92AE
:1032A0000F920FB60F9211240BB60F922F933F93EC
:1032B0004F935F936F937F938F939F93AF93BF933E
:1032C000EF93FF938091FA059091FB05892B29F0EC
:1032D000E091FA05F091FB050995FF91EF91BF91FF
:1032E000AF919F918F917F916F915F914F913F919E
:1032F0002F910F900BBE0F900FBE0F901F9018953F
:103300001F920F920FB60F9211240BB60F922F93AC
:103310003F934F935F936F937F938F939F93AF935D
:10332000BF93EF93FF938091FC059091FD05892B4E
:1033300029F0E091FC05F091FD050995FF91EF91D1
:10334000BF91AF919F918F917F916F915F914F91BD
:103350003F912F910F900BBE0F900FBE0F901F90BB
:1033600018951F920F920FB60F9211240BB60F9261
:103370002F933F934F935F936F937F938F939F937D
:10338000AF93BF93EF93FF938091FE059091FF055C
:10339000892B29F0E091FE05F091FF050995FF9139
:1033A000EF91BF91AF919F918F917F916F915F91BD
:1033B0004F913F912F910F900BBE0F900FBE0F902A
:1033C0001F9018951F920F920FB60F9211240BB6F3
:1033D0000F922F933F934F935F936F937F938F93AE
:1033E0009F93AF93BF93EF93FF93809100069091CB
:1033F0000106892B29F0E0910006F091010609955C
:10340000FF91EF91BF91AF919F918F917F916F91BC
:103410005F914F913F912F910F900BBE0F900FBE78
:103420000F901F9018951F920F920FB60F921124B4
:103430000BB60F922F933F934F935F936F937F93AE
:103440008F939F93AF93BF93EF93FF938091020667
:1034500090910306892B29F0E0910206F091030672
:103460000995FF91EF91BF91AF919F918F917F91BE
:103470006F915F914F913F912F910F900BBE0F90E5
:103480000FBE0F901F9018951F920F920FB60F92BC
:1034900011240BB60F922F933F934F935F936F932B
:1034A0007F938F939F93AF93BF93EF93FF938091FD
:1034B000040690910506892B29F0E0910406F0910D
:1034C00005060995FF91EF91BF91AF919F918F9163
:1034D0007F916F915F914F913F912F910F900BBE14
:1034E0000F900FBE0F901F901895CF92DF92EF9222
:1034F000FF926B017C01411134C088E00E94C4043A
:10350000C701B60122E030E040E050E00E94602FA9
:10351000305F414F5F4FCA01B901A70196010E9478
:10352000602FDA01C9010197A109B109892F9A2FEA
:10353000AB2FBB27A7FDBA958093C50021502093E0
:10354000C4008091C10080618093C1008091C1005E
:1035500088608093C1008091C10080688093C10021
:1035600033C080E10E94C404C701B60122E030E00C
:1035700040E050E00E94602F305F414F5F4FCA0132
:10358000B901A70196010E94602FDA01C9010197D4
:10359000A109B109892F9A2FAB2FBB27A7FDBA9597
:1035A0008093CD0021502093CC008091C900806190
:1035B0008093C9008091C90088608093C900809180
:1035C000C90080688093C900FF90EF90DF90CF9092
:1035D0000895611107C09091C00095FFFCCF8093C2
:1035E000C60008959091C80095FFFCCF8093CE004F
:1035F00008951F920F920FB60F9211242F933F93AD
:103600004F935F936F937F938F939F93AF93BF93EA
:10361000EF93E091C60020910C0630910D06C90190
:10362000019660E072E00E942A2F40910A065091B4
:103630000B068417950741F0D901AF5BB54FEC93AA
:1036400090930D0680930C06EF91BF91AF919F91DF
:103650008F917F916F915F914F913F912F910F903B
:103660000FBE0F901F9018951F920F920FB60F92DA
:1036700011242F933F934F935F936F937F938F9377
:103680009F93AF93BF93EF93E091CE0020910806F4
:1036900030910906C901019660E072E00E942A2F6C
:1036A00040910606509107068417950741F0D9010D
:1036B000AF5BB74FEC939093090680930806EF91A8
:1036C000BF91AF919F918F917F916F915F914F913A
:1036D0003F912F910F900FBE0F901F9018950C9453
:1036E000E91ACF93C82F682F8DE00E94E91A6C2F3A
:1036F0008AE0CF910C94E91A61E0FC0180810E947C
:1037000017058FEF0C94D5110E945B1080E00E948A
:10371000871084E00E948C1060E08DE295E00C94AC
:1037200097108F929F92AF92BF92CF92DF92EF92BB
:10373000FF920F931F93CF93DF93EC018B017A01DC
:1037400013C00E94CB036C197D096D32714010F0DB
:1037500081E122C00E94CB034601A12CB12C681547
:1037600079058A059B0518F40E94CB036B018DE255
:1037700095E00E942B128B838F3F19F38E3F11F03F
:103780008FE00AC0A701B8018DE295E00E94FA110E
:103790008B83882319F08CE189830DC08DE295E03D
:1037A0000E942B128DE295E00E942B12CE010E9406
:1037B0007C1B81E004C0CE010E947C1B80E0DF9175
:1037C000CF911F910F91FF90EF90DF90CF90BF901E
:1037D000AF909F908F9008950F931F93CF93DF9397
:1037E00000D0CDB7DEB78C0169837A830E94841B39
:1037F00040E052E069817A81C8010F900F90DF911B
:10380000CF911F910F910C94911BCF92DF92EF9269
:10381000FF920F931F93CF93DF93EB0111C00E9490
:10382000CB03601B710B6C177D07A8F40E94CB03C0
:103830006801E12CF12C6C157D058E059F0518F4AF
:103840000E94CB038B018DE295E00E942B128F3FEB
:1038500031F781E001C080E0DF91CF911F910F919E
:10386000FF90EF90DF90CF900895FF920F931F93FA
:10387000CF93DF9300D000D0CDB7DEB78C01F62E0A
:1038800029833A834B835C830E94841B68E572E042
:10389000C8010E94051C8F2D80640E94D5118C8167
:1038A0000E94D5118B810E94D5118A810E94D51169
:1038B00089810E94D511F11002C085E901C087E815
:1038C0000E94D5118CE0F81204C08DE295E00E94B0
:1038D0002B12F12C8DE295E00E942B12F8018383CC
:1038E00087FF05C0FFEFFF1611F0F394F3CF0F90A1
:1038F0000F900F900F90DF91CF911F910F91FF903C
:103900000895CF93DF93EC0120E030E0A9016CE053
:103910000E94351C882339F083E08983CE010E9400
:103920007C1B80E004C0CE010E947C1B81E0DF9103
:10393000CF910895CF93DF93EC018C81833039F0E0
:1039400089E0440F551F661F771F8A95D1F79A01AA
:10395000AB0162E1CE010E94351C882339F085E07D
:103960008983CE010E947C1B80E004C0CE010E94AE
:103970007C1B81E0DF91CF9108950F931F93CF932C
:10398000DF93EC0189018C81833039F0E9E0440F49
:10399000551F661F771FEA95D1F79A01AB0161E1C8
:1039A000CE010E94351C81110AC040E052E0B801EE
:1039B000CE01DF91CF911F910F910C94911B84E068
:1039C0008983CE010E947C1B80E0DF91CF911F9103
:1039D0000F9108954F925F926F927F92BF92CF9214
:1039E000DF92EF92FF920F931F93CF93DF93EC013F
:1039F000B42E1C82198268830E94CB038B0161E084
:103A000088810E94FE0461E088810E9417050E945F
:103A10005B1080E00E94871084E00E948C108AE096
:103A2000F82E8FEF0E94D511FA94D9F716C00E9494
:103A3000CB03601B710B613D774010F081E08CC0BF
:103A40000E94CB036801E12CF12C6C157D058E05DD
:103A50009F0518F40E94CB038B0120E030E0A90100
:103A600060E0CE010E94351C813009F7E12CB2E004
:103A7000FB2E2AEA31E040E050E068E0CE010E94EF
:103A8000351C853011F481E00CC0A4E0DA2E8DE203
:103A900095E00E942B128B83DA94C9F78A3A19F4C5
:103AA00082E08C831AC00E94CB03601B710B613DC6
:103AB000774010F082E050C00E94CB032801612CB7
:103AC000712C641575058605970518F40E94CB03C3
:103AD0008B0181E0E81AF10861F68C81823031F4C3
:103AE000C12CD12CE12CF0E4FF2E1AC0C12CD12C1A
:103AF000760116C00E94CB03601B710B613D7740BD
:103B000010F08AE029C00E94CB032801612C712C9F
:103B1000641575058605970518F40E94CB038B0183
:103B200020E030E0A90167E3CE010E94351CA70127
:103B3000960169E2CE010E94351C8111DBCF8C8198
:103B4000823009F520E030E0A9016AE3CE010E944D
:103B5000351C882319F088E089831BC08DE295E02D
:103B60000E942B12807C803C11F483E08C838DE2D8
:103B700095E00E942B128DE295E00E942B128DE2BF
:103B800095E00E942B12CE010E947C1BBA8281E03C
:103B900004C0CE010E947C1B80E0DF91CF911F9179
:103BA0000F91FF90EF90DF90CF90BF907F906F903C
:103BB0005F904F9008950F931F93CF93DF93EC0185
:103BC000862F8A010E94D51140E052E0B8018DE2B3
:103BD00095E00E94E6118FEF0E94D5118FEF0E94B1
:103BE000D5118DE295E00E942B128B838F71853069
:103BF00039F083E18983CE010E947C1B80E001C003
:103C000081E0DF91CF911F910F9108950F931F9342
:103C1000CF93DF93EC018B010E94841B68E572E077
:103C2000CE010E94051C882361F0A8016CEFCE0133
:103C30000E94DB1D882329F0CE010E947C1B81E0BD
:103C400006C085E18983CE010E947C1B80E0DF9164
:103C5000CF911F910F9108950F931F93CF93DF93EF
:103C6000EC0189018C81833039F039E0440F551F14
:103C7000661F771F3A95D1F79A01AB0168E1CE0133
:103C80000E94351C882319F086E089830CC0A801A6
:103C90006EEFCE010E94DB1D882329F0CE010E9429
:103CA0007C1B81E004C0CE010E947C1B80E0DF9180
:103CB000CF911F910F9108958F929F92AF92BF92D3
:103CC000CF92DF92EF92FF920F931F93CF93DF93E8
:103CD000EC016A017B014801590120E030E0A901B3
:103CE00067E30E94351CA501940167E1CE010E94A3
:103CF000351C882311F089E013C08C81833039F0A2
:103D000049E0CC0CDD1CEE1CFF1C4A95D1F7A70145
:103D1000960169E1CE010E94351C882319F087E0E5
:103D2000898305C0CE010E947C1B81E004C0CE01C6
:103D30000E947C1B80E0DF91CF911F910F91FF903B
:103D4000EF90DF90CF90BF90AF909F908F900895AD
:103D5000CF93DF93EC010E94841B68E572E0CE01F3
:103D60000E94051C882379F08DEF0E94D51168E52B
:103D700072E0CE010E94051C882329F0CE010E942A
:103D80007C1B81E006C082E18983CE010E947C1BFE
:103D900080E0DF91CF910895CF93DF93EC019C01F8
:103DA0002A5F3F4F41E050E060E070E08C819D81F0
:103DB0000E94A4298823A1F04E895F89688D798D9E
:103DC000452B462B472B71F44E815F8168857985A1
:103DD0004E8B5F8B688F798F89818068898302C061
:103DE00080E001C081E0DF91CF910895BF92CF9232
:103DF000DF92EF92FF920F931F93CF93DF938C018B
:103E0000FC0182899389A489B589803E9F4FAF4187
:103E1000B10508F01AC0C8010E94CC1E8823A9F081
:103E2000D80116964D915D916D917C9119971496DC
:103E30008D919C9115970E94A7286B017C0145E00C
:103E40000E945228EC01009719F4C0E0D0E03AC07B
:103E500080E092E0FE019C01119221503040E1F798
:103E6000BB24B39410C0B701A6014B0D511D611DB9
:103E7000711D9E0180911006909111060E942C1ECA
:103E8000882319F3B394D8011496ED91FC911597FA
:103E90008481B81640F390E0A0E0B0E029E0880FFC
:103EA000991FAA1FBB1F2A95D1F7F8014289538990
:103EB00064897589480F591F6A1F7B1F428B538B7A
:103EC000648B758BCE01DF91CF911F910F91FF9085
:103ED000EF90DF90CF90BF900895CF93DF93EC01E8
:103EE000462F6E857F85888999890E945228009780
:103EF00049F02B81AC0160E2269F400D511D112439
:103F00009A0102C020E030E0C901DF91CF9108950D
:103F1000CF93DF93FB012BE030E231932150E9F79F
:103F2000DC0130E0C7E01DC0CA3059F138E0CAE01A
:103F300018C0E21731F1FC010196E491E111F9CFCB
:103F4000C317F8F02132E8F02F37D8F4FB01E30F64
:103F5000F11D822F81568A3110F4D22FD052D08396
:103F60003F5FCD012D91211109C0FA01808391831A
:103F700081E0FB019081903261F403C02F3219F48B
:103F8000F4CF80E006C0D22F2E3271F28AEA94E09C
:103F9000D2CFDF91CF9108953F924F925F926F926F
:103FA0007F928F929F92AF92BF92CF92DF92EF92C9
:103FB000FF920F931F93CF93DF9300D000D0CDB724
:103FC000DEB79C838B839B015A01FC0182818111A6
:103FD00003C02FEF3FEF2CC1EB81FC81818180FF7B
:103FE000F8CFF8C05A01A81AB90A650179018B8186
:103FF0009C8106969A838983E7C0EB81FC81428489
:10400000538464847584D301C2019170AA27BB27AD
:104010004C0184819581B301A20139E076956795C1
:10402000579547953A95D1F7FC0134803A9434225C
:10403000EB81FC812281223051F4FC0145885688B5
:104040006788708C440E551E661E771E2FC0811423
:104050009104E1F431101AC0EB81FC814528462817
:10406000472849F486899789A08DB18D86839783E7
:10407000A087B1870BC046815781608571852981F2
:104080003A810E94C328882309F4A3CFEB81FC81E5
:104090004681578160857185848195810E94A7281A
:1040A0002B013C01430C511C611C711C81149104B7
:1040B00009F0AAC0C114F2E0DF0608F4A5C080919F
:1040C000130690911406A0911506B0911606481695
:1040D00059066A067B0609F0A0C096C020E032E0CF
:1040E0002819390986012C153D0508F48901880E27
:1040F000991EA801B401C7010E946A3053C09701FC
:10410000B301A20180911006909111060E94BD1C7E
:10411000811146C05ECF9D2C9694EB81FC8122815B
:10412000223041F024813581F90124812319291598
:1041300008F4922E481659066A067B0658F4B30115
:10414000A20180911006909111060E949A1C811183
:104150000CC03FCF890D911DA11DB11D48165906F8
:104160006A067B0608F45FC0EACF2701812C09C0EC
:10417000B2010E94EC1BFEEF5F1A882309F429CFDD
:10418000839480911006909111068910F1CF0E94BE
:10419000811C882309F41DCF182D110F00E002C0E7
:1041A00000E012E0E00EF11EEB81FC818285938538
:1041B000A485B585800F911FA11DB11D82879387AE
:1041C000A487B587C01AD10AC114D10409F015CF4C
:1041D00095012EC0EB81FC814289538964897589E0
:1041E00082859385A485B5852501612C712C6A0192
:1041F0007B01C81AD90AEA0AFB0A4C145D046E0452
:104200007F0408F0EFCEF1CE40E0C301B2010E947E
:104210005228009709F062CFDCCEC114F4E0DF062B
:1042200008F079CF6CCF0E940B28811188CFD1CEB6
:10423000C9010F900F900F900F90DF91CF911F91B8
:104240000F91FF90EF90DF90CF90BF90AF909F9035
:104250008F907F906F905F904F903F900895CF9395
:10426000DF931F92CDB7DEB741E050E0BE016F5F34
:104270007F4F0E94CC1F019719F4298130E002C0C2
:104280002FEF3FEFC9010F90DF91CF9108958F92EB
:104290009F92AF92BF92CF92DF92EF92FF920F93D5
:1042A0001F93CF93DF93EC014A015B012A81222304
:1042B00009F475C08A899B89AC89BD8984179507E3
:1042C000A607B70708F46BC06CC081149104A10461
:1042D000B10449F41E821F82188619861A861B862D
:1042E0001C861D865AC04A855B856C857D85EC8160
:1042F000FD81218530E0275F3F4FDB01CA01019737
:10430000A109B109022E04C0B695A7959795879586
:104310000A94D2F7CC24CA94DC2C7601C80CD91CA0
:10432000EA1CFB1C04C0F694E794D794C7942A9522
:10433000D2F7C816D906EA06FB0620F0452B462B15
:10434000472B49F48E899F89A88DB98D8E839F83D1
:10435000A887B98716C0C81AD90AEA0AFB0A11C089
:104360004E815F816885798598018C819D810E944D
:10437000C32891E0C91AD108E108F108811104C0ED
:1043800014C08E010A5F1F4FC114D104E104F1046F
:1043900039F78A869B86AC86BD8681E006C080E0C0
:1043A00004C0223009F091CFF4CFDF91CF911F915B
:1043B0000F91FF90EF90DF90CF90BF90AF909F90C4
:1043C0008F900895EF92FF920F931F93CF93DF93F7
:1043D00000D000D0CDB7DEB78C01FC01868997896B
:1043E000A08DB18D89839A83AB83BC83E12CF12CA2
:1043F00049815A816B817C819E012F5F3F4FD8019B
:1044000014968D919C9115970E94C328882389F159
:10441000D8011496ED91FC9115978481E80EF11C5A
:10442000E114B0E1FB0628F589819A81AB81BC815A
:104430002289203131F4883F9F4FA105B10530F426
:10444000D7CF883F9F4FAF4FBF4090F2A70160E0AA
:1044500070E0E9E0440F551F661F771FEA95D1F71A
:10446000D80152964D935D936D937C93559781E05F
:1044700001C080E00F900F900F900F90DF91CF91CF
:104480001F910F91FF90EF900895CF93DF93EC0170
:10449000FB018A81882311F080E03EC07D836C831C
:1044A0008289803101F522C083E08A83458956895B
:1044B0006789708D4E8B5F8B688F798FCE010E94DC
:1044C000E221882349F381E089831E821F821886B6
:1044D00019861A861B861C861D861E861F86188ACC
:1044E000198A1B8219C08032B9F6DECF82E08A8336
:1044F0001E8A1F8A188E198E4389548960E070E0E5
:10450000F5E0440F551F661F771FFA95D1F74A8BC8
:104510005B8B6C8B7D8BD7CFDF91CF9108950F9301
:104520001F93CF93DF93EC018A818823E1F1898186
:1045300087FF33C061E0CE010E946D1F8C010097A0
:1045400091F1FC018081853E71F18A81823040F4D5
:104550004A895B896C897D89448F558F668F778FF7
:104560004E895F89688D798DF801538F428F758BE5
:10457000648BE0910E06F0910F06309759F0B80168
:104580006A5E7F4FC80148960995F801808D918D2C
:10459000938B828B89818F778983DF91CF911F9154
:1045A0000F910C940B2881E0888380E0DF91CF91FC
:1045B0001F910F910895CF93DF93EC010E948F22FA
:1045C0001A82DF91CF9108954F925F926F927F92FE
:1045D000AF92BF92CF92DF92EF92FF920F931F9311
:1045E000CF93DF9300D000D0CDB7DEB75C016A0176
:1045F0007B01FC018281813009F083C0818181FFD0
:1046000080C081C0892B8A2B8B2B09F478C0F501DF
:104610004284538464847584B701A601C5010E9455
:104620004721811101C06DC0F50184819581C114BC
:10463000D104E104F10479F446895789608D718DC4
:104640000E94BC2A882309F45CC0F501168A178AE7
:10465000108E118E3AC0F5014681578160857185B3
:104660009E012F5F3F4F0E94C328882309F449C051
:1046700049815A816B817C81F50184819581FC019E
:104680002289203139F4483FFFEF5F07610571054A
:10469000E0F407C0483F2FEF520762072FE0720790
:1046A000A0F40E94BC2A882361F1F501468157815C
:1046B000608571850FEF1FEF2FEF3FE084819581BB
:1046C0000E943729811101C01CC0F501C28AD38A1A
:1046D000E48AF58A818180688183C5010E948F22E6
:1046E000882379F0B701A6014C145D046E047F04A1
:1046F00010F4B301A201C5010E94472110C081E05E
:104700000EC080E00CC0F50182899389A489B58927
:1047100084179507A607B70708F074CFF2CF0F905C
:104720000F900F900F90DF91CF911F910F91FF90FD
:10473000EF90DF90CF90BF90AF907F906F905F90A1
:104740004F900895CF93DF93EC0140E050E0BA0121
:104750000E94E422882371F061E0CE010E946D1F67
:10476000009741F025EEFC0120831A82DF91CF9162
:104770000C940B2880E0DF91CF910895FF920F9366
:104780001F93CF93DF93EC01F42E80E2689FF0013A
:104790001124E95EF94F8385817121F0842F8271A4
:1047A00009F058C08091130690911406A091150647
:1047B000B09116068E879F87A88BB98B6B8304896F
:1047C000158920E030E0980111270027828D938D14
:1047D000A0E0B0E0082B192B2A2B3B2B0E8B1F8B54
:1047E000288F398F8385887151F4848D958DA68D9E
:1047F000B78D8A8B9B8BAC8BBD8B81E008C08031E1
:1048000049F5CE010E94E221882321F184E08A83C8
:104810008F2D8F7089831E821F82188619861A86B3
:104820001B861C861D86F4FE18C040E050E0BA01CD
:10483000CE010E94E422811110C00CC04A895B891C
:104840006C897D89CE01DF91CF911F910F91FF90EF
:104850000C9447211A8280E003C0F5FCEFCF81E081
:10486000DF91CF911F910F91FF9008953F924F924A
:104870005F926F927F928F929F92AF92BF92CF92F0
:10488000DF92EF92FF920F931F93CF93DF937C0100
:10489000EB016A01922E8C819D81F70195838483BF
:1048A00040E050E0BA01CE010E944721812C50C067
:1048B000CE010E942F2197FDBEC00A851B852C8545
:1048C0003D8501501E4F2F4F3F4F0A871B872C8776
:1048D0003D87409013065090140660901506709026
:1048E000160600E010E0302E580145E0AA0CBB1C73
:1048F0004A95E1F787E196E0A80EB91EF50180819F
:10490000882311F0853EB1F464ED72E0C6010E9487
:104910007E30009779F0811008C0F70146865786EF
:10492000608A718A338288248394F50180818111A1
:104930000AC07FC04BE050E0B501C6010E945D3067
:10494000009709F473C00F5F1F4F0031110559F62E
:104950004A855B856C857D858A899B89AC89BD8903
:10496000481759076A077B0708F4A2CF62C091FE77
:1049700062C0882051F0F701338061E0C7010E94D6
:104980006D1FEC01009769F456C08A81823009F4EA
:1049900052C0CE010E94F61E009709F44CC0EC01F3
:1049A000312C80E2FE0111928A95E9F78BE0F60145
:1049B000DE0101900D928A95E1F7E0910E06F091EB
:1049C0000F06309739F0BE01625F7F4FCE014096EF
:1049D000099508C081E298E2998B888B80E098E085
:1049E0009F878E87888999899B8B8A8B998F888FDF
:1049F0008E859F859F8B8E8B0E940B288823D9F0F4
:104A0000492D632DC701DF91CF911F910F91FF9029
:104A1000EF90DF90CF90BF90AF909F908F907F905E
:104A20006F905F904F903F900C94BE2397FEE8CF1D
:104A300002C096FC9CCF80E0DF91CF911F910F9137
:104A4000FF90EF90DF90CF90BF90AF909F908F90AE
:104A50007F906F905F904F903F9008953F924F925C
:104A60005F926F927F928F929F92AF92BF92CF92FE
:104A7000DF92EF92FF920F931F93CF93DF93CDB707
:104A8000DEB7C154D1090FB6F894DEBF0FBECDBF5B
:104A90004C016B0122965FAF4EAF2297422E1B8EC8
:104AA0001D8E19821B826115710509F457C0FC0126
:104AB0008281811153C02296EEADFFAD2297808195
:104AC0008F3239F076011EC031962296FFAFEEAFDD
:104AD00022972296EEADFFAD229780818F32A1F30F
:104AE000F60182818250823068F364817581CE0143
:104AF00001960E944522882389F1EE24E394F12C4B
:104B0000EC0EFD1E53E0A52EB12C8E01055E1F4F4D
:104B10003801502E312EAE01405C5F4FBE016B5C00
:104B20007F4F22968EAD9FAD22970E94881F8111E4
:104B30001CC064ED72E022968EAD9FAD22970E945C
:104B40007E30009729F48EE29EE29EAB8DAB37C09B
:104B50006AEB74E082E395E00E94ED1280E037C0DA
:104B600031962296FFAFEEAF22972296EEADFFADC3
:104B7000229780818F32A1F3882309F121E0AE01D1
:104B80004B5C5F4FB701C8010E943624882331F384
:104B9000EC14FD0419F0C7010E94DB22061517056D
:104BA00021F07801052D132D05C08E010F5F1F4FD9
:104BB000E52CF32CF1E0AF1AB10809F0ACCF242DAD
:104BC000AE014B5C5F4FB701C4010E943624CF5B3E
:104BD000DF4F0FB6F894DEBF0FBECDBFDF91CF9190
:104BE0001F910F91FF90EF90DF90CF90BF90AF900B
:104BF0009F908F907F906F905F904F903F9008951F
:104C0000CF93DF93CDB7DEB76A970FB6F894DEBFC8
:104C10000FBECDBFAB0119821B8222E0BC01CE01C9
:104C200001960E942E25882329F0CE0101960E942C
:104C3000A22301C080E06A960FB6F894DEBF0FBED3
:104C4000CDBFDF91CF9108952F923F924F925F9207
:104C50006F927F928F929F92AF92BF92CF92DF928C
:104C6000EF92FF920F931F93CF93DF93CDB7DEB7F1
:104C700029970FB6F894DEBF0FBECDBF7C01162F6B
:104C8000072F1A01DC0112968C911297813009F0DE
:104C90009DC111968C9181FF99C19EC1F7014289F6
:104CA00053896489758982859385A485B585841720
:104CB0009507A607B70721F45101812E902E4CC10C
:104CC000C7010E9447218111F7CF80C1D7011496F7
:104CD0008D919C911597FC01F481F150B901A801C7
:104CE000E9E07695679557954795EA95D1F7F423CE
:104CF000FD83117022273327F11145C001151105DD
:104D000009F041C016964D915D916D917C91199776
:104D1000411551056105710511F19E012F5F3F4F4E
:104D20000E94C328882309F451C189819A81AB81EB
:104D3000BC81F70124813581F9012289203139F4C0
:104D4000883FFFEF9F07A105B10590F417C0883F8A
:104D50002FEF9207A2072FE0B20780F009C0F701FA
:104D600086899789A08DB18D0097A105B10531F491
:104D7000C7010E94CC1E811106C028C1F70186839D
:104D80009783A087B187D70116964D915D916D915C
:104D90007C91199714968D919C9115970E94A72844
:104DA0002B013C01BD814B0E511C611C711C011576
:104DB000110521F4A114E2E0BE06D8F580E092E0EE
:104DC000801B910B65018A159B0508F46C01011588
:104DD0001105A1F4D7011A964D915D916D917C91C9
:104DE0001D9752968D919D910D90BC91A02D4817C5
:104DF00059076A077B0710F045E001C041E0C30195
:104E0000B2010E945228009709F4E0C09C01200FD3
:104E1000311FA601B401C9010E946A300C0D1D1D8D
:104E20000115124009F087C00E949728811183C0A4
:104E3000CDC0A114E4E0BE06D8F480911306909191
:104E40001406A0911506B091160684159505A605C1
:104E5000B70511F40E9499289401B301A201809131
:104E60001006909111060E942C1E811161C0AEC0E7
:104E7000D7011496ED91FC9115978481BD818B1B10
:104E8000EB2DE695ED838E1708F48D83FD810F2FB2
:104E900010E020E030E0B301A20180911006909173
:104EA00011060E945C1E882309F490C084014E8282
:104EB0005F82688679862AC08091130690911406D5
:104EC000A0911506B09116062E813F81488559851F
:104ED000281739074A075B0711F40E949928B8017F
:104EE00080911006909111060E94061E1E5F2E8171
:104EF0003F81488559852F5F3F4F4F4F5F4F2E832E
:104F00003F8348875987882309F460C08E818419BC
:104F10003D81831788F280911006909111060E94BE
:104F2000A81E882309F452C0DD80DD0CC12C03C00B
:104F3000C12CF2E0DF2EF70182859385A485B5852B
:104F40008C0D9D1DA11DB11D82879387A487B587F8
:104F50008C0C9D1CAC18BD08D7011A960D911D91A3
:104F60002D913C911D97A114B10409F0AFCE52963A
:104F70008D919D910D90BC91A02D80179107A20756
:104F8000B30748F4F701028B138B248B358B818197
:104F90008068818310C080910E0690910F06892B46
:104FA00051F02114310439F0D70111968C911197E9
:104FB000806811968C93F701818183FD02C0910175
:104FC0000EC0C7010E948F228111F9CF81E0D70165
:104FD0008C932FEF3FEF03C082FD60CE6DCEC901F1
:104FE00029960FB6F894DEBF0FBECDBFDF91CF91EB
:104FF0001F910F91FF90EF90DF90CF90BF90AF90F7
:105000009F908F907F906F905F904F903F902F90E8
:1050100008950C9424268091120680FF41C040918F
:10502000130650911406609115067091160627E13B
:1050300036E080911006909111060E942C1E81117D
:1050400002C080E008958091120681FD06C0809123
:1050500012068E7F8093120623C080911B08823037
:10506000B0F3409117085091180860911908709199
:105070001A088091130690911406A0911506B0911C
:105080001606480F591F6A1F7B1F27E136E08091E3
:105090001006909111060E942C1E8111D8CFD1CFFD
:1050A00081E00895CF92DF92EF92FF92CF936B0150
:1050B0007C01C42F8091130690911406A0911506CF
:1050C000B09116068C159D05AE05BF0509F10E942D
:1050D0000B28811103C020E030E022C0C2FF0BC0CA
:1050E00010921206C0921306D0921406E092150692
:1050F000F09216060DC027E136E0B701A6018091B7
:105100001006909111060E94BD1C8111E9CFE3CFDA
:10511000C370809112068C2B8093120627E136E033
:10512000C901CF91FF90EF90DF90CF9008950C943C
:105130000B288FEF9FEFDC018093130690931406EA
:10514000A0931506B09316061092120608950F93B9
:105150001F93FC014250510961097109A481B0E01B
:105160009A01AB010E94032F8B019C0182859385DC
:10517000A485B585080F191F2A1F3B1FB801C90157
:105180001F910F9108958F929F92AF92BF92CF92ED
:10519000DF92EF92FF920F931F93CF93DF93EC0177
:1051A0006A017B0189018D819E81AF81B88501965D
:1051B000A11DB11D84179507A607B70708F449C0BC
:1051C0008A89803129F499278F2D7E2D6D2D0CC071
:1051D000803209F03EC0CB01BA0147E09695879531
:1051E000779567954A95D1F78E849F84A888B9886A
:1051F000680D791D8A1D9B1D42E00E945228009770
:1052000041F12A89203169F4DD24EE24FF24F601DE
:10521000EE0FFF1FE80FF91F80819181A0E0B0E041
:1052200011C0E894C7F8DD24EE24FF24F601EE0F48
:10523000FF1FEE0FFF1FE80FF91F80819181A281F0
:10524000B381BF70F80180839183A283B38381E02F
:1052500001C080E0DF91CF911F910F91FF90EF90FF
:10526000DF90CF90BF90AF909F908F9008958F92D6
:105270009F92AF92BF92CF92DF92EF92FF920F93E5
:105280001F93CF93DF93EC016A017B014801590121
:105290008D819E81AF81B8850196A11DB11D8417B6
:1052A0009507A607B70708F441C08A89803129F419
:1052B0009927872F762F652F0CC0803209F036C0D2
:1052C000CB01BA01E7E09695879577956795EA95C2
:1052D000D1F70E851F8528893989600F711F821FBC
:1052E000931F43E00E945228009701F12A89203140
:1052F00059F4DD24EE24FF24F601EE0FFF1FE80F22
:10530000F91F9182808210C0E894C7F8DD24EE2452
:10531000FF24F601EE0FFF1FEE0FFF1FE80FF91F2E
:1053200080829182A282B38281E001C080E0DF911D
:10533000CF911F910F91FF90EF90DF90CF90BF9092
:10534000AF909F908F9008952F923F924F925F92CF
:105350006F927F929F92AF92BF92CF92DF92EF9225
:10536000FF920F931F93CF93DF93CDB7DEB7609774
:105370000FB6F894DEBF0FBECDBF5C014D875E87D0
:105380006F87788B1901DC0115962D913D914D9118
:105390005C9118972F5F3F4F4F4F5F4F29873A8798
:1053A0004B875C87F101408051806280738041149B
:1053B00051046104710431F0FFEF4F1A5F0A6F0A64
:1053C0007F0A10C0DC014D905D906D907C90992417
:1053D00093942D853E854F855889213031054105AF
:1053E000510509F0912C730162011D821E821F82FA
:1053F0001886F50185819681A781B0852D813E8132
:105400004F815885281739074A075B0708F056C0AF
:1054100089859A85AB85BC858C159D05AE05BF0534
:1054200050F4A2E0CA2ED12CE12CF12CB2E04B2E8C
:10543000512C612C712C9E012F5F3F4FB701A601AB
:10544000C5010E94C3288823C9F149815A816B8113
:105450007C81D701C6010196A11DB11D452B462BAC
:10546000472B19F02C013D010DC084199509A6099F
:10547000B7092D853E854F85588982179307A40764
:10548000B50789F08D819E81AF81B8850196A11DF8
:10549000B11D8D839E83AF83B8879FEFC91AD90A48
:1054A000E90AF90AA6CF0FEF1FEF2FEF3FE0A601A1
:1054B000B701C5010E94372981111BC080E044C09B
:1054C000A701960121503109410951092D833E83DD
:1054D0004F835887970186014D815E816F81788562
:1054E000C5010E943729882349F3CD80DE80EF80F3
:1054F000F8844C145D046E047F0410F3D1014D91C7
:105500005D916D917C91411551056105710541F4E5
:10551000F1014082518262827382911009C013C0EE
:1055200093018201C5010E9437298111F1CFC6CFB5
:10553000FFEF4F1A5F0A6F0A7F0AD5014D925D9205
:105540006D927C92139781E060960FB6F894DEBF5F
:105550000FBECDBFDF91CF911F910F91FF90EF90C4
:10556000DF90CF90BF90AF909F907F906F905F90B3
:105570004F903F902F900895AF92BF92CF92DF92BD
:10558000EF92FF920F931F93CF93DF9300D000D041
:10559000CDB7DEB75C016A017B0182E090E0A0E05C
:1055A000B0E0F50180839183A283B3839E012F5FD6
:1055B0003F4FB701A601C5010E94C328811102C057
:1055C00080E023C000E010E09801B701A601C5010A
:1055D0000E9437298823A1F3C980DA80EB80FC8000
:1055E000F5018289803141F4F8EFCF16FFEFDF0635
:1055F000E104F10448F4DACF88EFC8168FEFD8063B
:10560000E8068FE0F80690F281E00F900F900F907F
:105610000F90DF91CF911F910F91FF90EF90DF904E
:10562000CF90BF90AF9008958F929F92AF92BF920C
:10563000CF92DF92EF92FF920F931F93CF93DF935E
:10564000EC01142F70931106609310061A8A82E001
:1056500090E0A0E0B0E088839983AA83BB83109296
:1056600012068FEF9FEFDC018093130690931406D0
:10567000A0931506B0931606442311F1453008F0A7
:10568000BCC040E060E070E0CB010E94522800976F
:1056900009F4B3C0FC0120E1129FE00DF11D1124BB
:1056A000E255FE4F80818F7709F0A7C0C084D18476
:1056B000E284F384C114D104E104F10421F49DC017
:1056C000C12CD12C760140E0C701B6010E945228BE
:1056D000FC01009709F491C083859485811592405F
:1056E00009F08BC02089222309F487C0868597851D
:1056F000892B09F482C020931B0845854C831986A9
:1057000088E090E021E007C0220F019709F475C0FE
:1057100039853F5F39874213F7CF268937892115AD
:10572000310519F040E050E004C024A135A146A1A4
:1057300057A12093170830931808409319085093E5
:105740001A088685978546015701880E991EA11C67
:10575000B11C8E869F86A88AB98A018912891C8B02
:105760000B8BA089B0E00E94032F680D791D8A1D64
:105770009B1D6D8B7E8B8F8B988F35E0000F111FDB
:105780003A95E1F701501E4F012F11270695DC01D4
:10579000CB01800F911FA11DB11D8A879B87AC870C
:1057A000BD87038914890115110519F020E030E047
:1057B00004C000A111A122A133A1B701A601481B79
:1057C000590B6A0B7B0BDB01CA01800F911FA21FD3
:1057D000B31F098404C0B695A795979587950A9439
:1057E000D2F78D839E83AF83B887853F5FE09507AF
:1057F000A105B10520F48CE08A8B80E012C0853FC2
:105800009F4FA105B10510F480E109C084A595A5BD
:10581000A6A5B7A58D8B9E8BAF8BB88F80E28A8BA8
:1058200081E0DF91CF911F910F91FF90EF90DF907A
:10583000CF90BF90AF909F908F90089510922108C5
:1058400082E080931D088CE18093220880EC91E037
:1058500090932408809323080895CF92DF92EF92CB
:10586000FF921F93CF93DF93EC0160E08E850E943F
:10587000FE040E94CB036B017C011EE7115089F1ED
:1058800082E090E00E9447040E94CB036C157D05E6
:105890008E059F0520F40E94CB036B017C018E8551
:1058A0000E945D05892BF9F40E94CB036C197D09D8
:1058B0008E099F09643F714081059105F8F213C07C
:1058C0000E94CB036B017C011130C1F10E94CB031C
:1058D0006C197D098E099F09643F7140810591050E
:1058E000D0F010E02BC061E08E850E94FE0460E0E5
:1058F0008E850E94170584E591E00E9447040E946E
:10590000CB036B017C018E850E945D0511E0892B24
:10591000D9F210E0D9CF8E850E945D0511E0892B68
:1059200009F010E089E090E00E9447040E94CB0358
:105930006C157D058E059F0538F6C2CF812FDF914E
:10594000CF911F91FF90EF90DF90CF9008951F931C
:10595000CF93DF93FC011081C181D281912F90956B
:10596000F8948A8189238A838981812B898360FFC6
:105970000BC089E090E00E9447048A81812B8A83D2
:1059800078948FE290E00AC087E390E00E94470499
:105990008A81812B8A83789485E090E0DF91CF9192
:1059A0001F910C9447040F931F93CF93DF93FC0137
:1059B0001081C181D281F8948981812B89838A8168
:1059C000012F009580238A8382E090E00E944704A3
:1059D00089818023898387E090E00E944704C88101
:1059E00078948DE290E00E9447041C2381E009F442
:1059F00080E0DF91CF911F910F910895CF92DF92B8
:105A0000EF92FF920F931F93CF93DF931F92CDB727
:105A1000DEB76C01E62E08E010E0FF24F3949F2D22
:105A20009E2161E009F460E0C60149830E94A72C31
:105A3000FF0C0150110949810115110581F7411130
:105A400015C0F894D6011196ED91FC9112979181B1
:105A50008C918095892381831196ED91FC91129709
:105A600092818C9180958923828378940F90DF9125
:105A7000CF911F910F91FF90EF90DF90CF900895FD
:105A8000FC011386158614861286118610861782ED
:105A900016821582148213820895CF93DF93EC014E
:105AA000862F6E8760E00E94FE048E8590E0FC01E8
:105AB000E45DFB4FE491E883FC01E15AFB4FE49184
:105AC000F0E0EE56FB4FE491E9831A82CE01DF91BC
:105AD000CF910C94402D1F93CF93DF931F92CDB79E
