:100000000C9494020C94DD270C940E280C943F2839
:100010000C9470280C94A1280C94D2280C940329D9
:100020000C9434290C94C3020C94C3020C94C302A4
:100030000C94AA030C94C3020C94C3020C940604FF
:100040000C94C3020C94C3020C94C3020C94C3021C
:100050000C94C3020C94C3020C94C3020C94E103ED
:100060000C94C3020C943E2A0C94C3020C94C30259
:100070000C94C3020C94C3020C94C3020C94C302EC
:100080000C94C3020C94C3020C94C3020C94C302DC
:100090000C94792A0C94C3020C94C3020C94212D65
:1000A0000C94C3020C94C3020C94C3020C94C302BC
:1000B0000C94C3020C94C3020C94C3020C94C302AC
:1000C0000C94C3020C94C3020C94C3027265616465
:1000D0007920666F7220707974686F6E004C697356
:1000E00074206F662066696C6520617661696C6159
:1000F000626C65206F6E2053442073686F77696E61
:10010000672064617465206C617374206D6F64692D
:100110006669656420616E642066696C6520736938
:100120007A65202862797465293A002D2D2D2D2DB0
:100130002D2D2D2D2D2D2D2D2D2D2D2D2D2D2D2DEF
:100140002D2D2D2D2D2D003D3D3D3D3D3D3D3D3D7C
:100150003D3D3D3D3D3D3D3D3D3D3D3D3D3D3D3DCF
:100160003D3D3D3D3D3D3D3D3D3D3D3D3D3D3D3DBF
:100170003D3D3D3D0046696C656E616D6520746F67
:1001800020646F776E6C6F61643F0046696C652018
:100190000020657869737473005265616479207416
:1001A0006F2075706C6F61640046696E69736820BA
:1001B00075706C6F6164696E672066696C65004E6E
:1001C0006F2046696C652000206578697374696EDC
:1001D0006720000A2D2D2D2D2D2D2D2D2D2D2D2D72
:1001E0002D2D2D2D2D2D2D2D2D2D2D2D2D2D2D006C
:1001F0004C697374206F662066696C652061766156
:10020000696C61626C65206F6E2053442073686F67
:1002100077696E672064617465206C617374206D0A
:100220006F64696669656420616E642066696C65E7
:100230002073697A65202862797465293A002D2D2A
:100240002D2D2D2D2D2D2D2D2D2D2D2D2D2D2D2DDE
:100250002D2D2D2D2D2D2D2D2D00000008090000F8
:10026000000000000000000000000000000000008E
:10027000000000000000000000000000000000007E
:100280000000000000000000000000000001020863
:1002900010102040800408102040020204081020A2
:1002A0004080010280204004200101020408102047
:1002B000014080408001020804088004100402010B
:1002C00005050505030303030101010404030606F4
:1002D00006060606060601040501050103020202E0
:1002E00002020201020205050404030404010304DE
:1002F00007070700202326292C2F32002225282B30
:100300002E3134002124272A2D3033330347036D47
:10031000039403B403CC03DA03EA03FF03150426B2
:100320000432043904560474048A049804A804CBE3
:1003300004D104416C61726D204D6F6465206D6164
:10034000746368657320005B446179203A20686FAC
:10035000757273203A206D696E75746573203A204A
:100360007365636F6E64735D202D3E20005B446196
:100370007465203A20686F757273203A206D696E3B
:1003800075746573203A207365636F6E64735D20C6
:100390002D3E20005B486F757273203A206D696EA8
:1003A00075746573203A207365636F6E64735D20A6
:1003B0002D3E20005B4D696E75746573203A207385
:1003C00065636F6E64735D202D3E20005B53656333
:1003D0006F6E64735D202D3E20004F6E636520704C
:1003E0006572207365636F6E6400496E636F72722D
:1003F00065637420616C61726D206D6F6465005B74
:10040000253032753A253032753A253032753A2525
:100410003032755D005B253032753A253032753AE1
:10042000253032755D005B253032753A25303275E6
:100430005D005B253032755D005B446179203A20B8
:10044000686F757273203A206D696E7574657320DC
:100450005D202D3E20005B44617465203A20686F6A
:10046000757273203A206D696E75746573205D2016
:100470002D3E20005B486F757273203A206D696EC7
:10048000757465735D202D3E20005B4D696E75743B
:1004900065735D202D3E20004F6E63652070657290
:1004A000206D696E7574650025732C2025303275BA
:1004B0002F253032752F253032752C20253032759E
:1004C0003A253032753A25303275006572726F7296
:1004D000002530327525632530327525632530328D
:1004E00075256325303275256325303275256325E2
:1004F000303275256325303275007C3C3E5E2B3DE5
:100500003F2F5B5D3B2C2A225C00496E76616C6953
:10051000642066696C656E616D650000B60A860FC1
:100520001712A813CA27512E11241FBECFEFD1E2F4
:10053000DEBFCDBF12E0A0E0B2E0ECE7F8E600E0FD
:100540000BBF02C007900D92A63BB107D9F71CE084
:10055000A6EBB2E001C01D92A533B107E1F715E0AB
:10056000C8E2D5E000E006C022970109FE010BBFFA
:100570000E947930CC31D10780E00807A9F70E94AA
:1005800003060C943C340C94000088E295E00E9431
:1005900024126CEC70E088E295E00E94F71281ED85
:1005A00092E00E94A2076DED70E088E295E00E9463
:1005B000F71267E081ED92E00E94D6076BE271E0EE
:1005C00088E295E00E94F71268EE73E080E090E028
:1005D0000C947D04CF92DF92EF92FF920F931F93C2
:1005E000CF93DF9367E471E088E295E00E94F71211
:1005F00065E771E088E295E00E94F71288E295E0F5
:100600000E9444128823D1F361E572E088EB92E006
:100610000E941831C8EBD2E00BE012E084E1F82E22
:100620001CC088E295E00E945C128093B602909311
:10063000B7029F938F93DF93CF931F930F931F92D4
:10064000FF92DF93CF930E942E318DB79EB70A960B
:100650000FB6F8949EBF0FBE8DBF88E295E00E9452
:1006600044128111DECF68EB72E081ED92E00E94CE
:10067000C3088130F1F568EB72E081ED92E00E94F1
:10068000170AEB016BE871E088E295E00E94C21264
:1006900068EB72E088E295E00E94841361E971E002
:1006A00088E295E00E94F71269E971E088E295E03E
:1006B0000E94F712C12CD12C760115C001E010E088
:1006C000A701960168EB72E081ED92E00E94F008CC
:1006D00064E073E088E295E00E9484139FEFC91AFA
:1006E000D90AE90AF90ACC16DD0644F369EA71E091
:1006F00025C06FEB71E088E295E00E94C21268EBC2
:1007000072E088E295E00E94841368EC71E088E270
:1007100095E00E94F71263ED71E088E295E00E9497
:10072000F71260EF71E088E295E00E94F71267E04F
:1007300081ED92E00E94D6076EE372E088E295E0D8
:10074000DF91CF911F910F91FF90EF90DF90CF90AD
:100750000C94F7121F920F920FB60F9211240BB642
:100760000F922F933F934F935F936F937F938F934A
:100770009F93AF93BF93EF93FF93F89481E080939F
:100780000A02E0E6F0E080818068808380818F7BD0
:10079000808360E083E00E9477057894FF91EF9179
:1007A000BF91AF919F918F917F916F915F914F9189
:1007B0003F912F910F900BBE0F900FBE0F901F9087
:1007C00018951F920F920FB60F9211248F939F933B
:1007D000AF93BF9380911B0890911C08A0911D08B6
:1007E000B0911E080196A11DB11D80931B08909326
:1007F0001C08A0931D08B0931E08BF91AF919F9154
:100800008F910F900FBE0F901F9018951F920F920F
:100810000FB60F9211248F939F93AF93BF93809144
:100820001F0890912008A0912108B09122080196FC
:10083000A11DB11D80931F0890932008A09321084B
:10084000B0932208BF91AF919F918F910F900FBEEF
:100850000F901F9018958F929F92AF92BF92CF9258
:10086000DF92EF92FF920F931F93CF93DF932FB7F7
:10087000F89480911B0890911C08A0911D08B091DC
:100880001E082FBF9C01AD0160E070E080E090E0A9
:1008900001E00E9461304901D42FC52FB62FA72F48
:1008A000F82FE92F02E00E94613059016A017B01B3
:1008B0008C0194014D2F5C2F6B2F7A2F8F2F9E2F41
:1008C0000E947030E9E0AE2EB12CC12CD12CE12C6D
:1008D000F12C00E010E00E940430952FB901842F24
:1008E000DF91CF911F910F91FF90EF90DF90CF900C
:1008F000BF90AF909F908F9008958F929F92AF92EC
:10090000BF92CF92DF92EF92FF924B015C0107C042
:100910000E942B046C157D058E059F0520F40E9416
:100920002B046B017C010E942B046C197D098E093C
:100930009F09681579058A059B0550F3FF90EF9094
:10094000DF90CF90BF90AF909F908F900895BC01A3
:10095000049768F080E090E00E948C2E26E636E650
:1009600046EE5FE30E941A2F0E94602E02C0660FBF
:10097000771F6150710961F06150710949F0FB0105
:10098000EE0FFF1F31978FB7F8943197F1F78FBFB4
:100990000895789484B7877F84BF10921B081092C3
:1009A0001C0810921D0810921E0884B5826084BD38
:1009B00084B5816084BD85B5826085BD85B5816063
:1009C00085BDEEE6F0E0808181608083E1E8F0E0C3
:1009D000808182608083808181608083E0E8F0E0B4
:1009E000808181608083E1EBF0E08081846080839E
:1009F000E1E9F0E0808184608083E0EBF0E08081D9
:100A000081608083E0E9F0E0808181608083E4E6BA
:100A1000F0E080818E7F8083ECE7F0E080818F774B
:100A20008083808180648083EAE7F0E08081846055
:100A3000808380818260808380818068808310923F
:100A4000C1001092C90008959091CC02982B909308
:100A5000CC0280FF32C0809164008E7F809364005E
:100A600080917C008F7780937C0080917C008064F3
:100A700080937C0080917A00846080937A008091DA
:100A80007A00826080937A0080917A0080688093F7
:100A90007A00809164008F77809364008091640075
:100AA0008B7F80936400809164008D7F80936400CD
:100AB000809165008E7F80936500089590E0FC0131
:100AC000E357FD4F2491FC01E054FD4FE491EE23E8
:100AD00069F0F0E0ED5FFC4FA491B0E08C91611102
:100AE00003C02095822301C0822B8C93089590E04F
:100AF000FC01E65AFD4F2491FC01E357FD4F349170
:100B0000FC01E054FD4F84918823B1F1222331F19F
:100B1000233021F4909180009F7705C0243031F478
:100B2000909180009F7D9093800018C0213019F42F
:100B300094B59F7704C0223021F494B59F7D94BD75
:100B40000DC0263021F49091B0009F7705C027306A
:100B500029F49091B0009F7D9093B000E82FF0E0D1
:100B6000E550FD4FA491B0E08C91611103C0309528
:100B7000832301C0832B8C93089590E0FC01E65AF7
:100B8000FD4F2491FC01E357FD4F3491FC01E054EB
:100B9000FD4F8491882399F1222331F1233021F4F0
:100BA000909180009F7705C0243031F490918000AF
:100BB0009F7D9093800018C0213019F494B59F77E1
:100BC00004C0223021F494B59F7D94BD0DC0263021
:100BD00021F49091B0009F7705C0273029F49091BF
:100BE000B0009F7D9093B000E82FF0E0ED50FD4FF6
:100BF000E491F0E08081832321E030E011F420E0F3
:100C000030E0C90108950E94C9048DE295E00E9478
:100C10000715853440F061E081E30E945E0561E0E4
:100C200081E30E94770561E070E08DE295E00E942B
:100C3000E3138130B1F48091230890912408A091AE
:100C40002508B09126089068809323089093240883
:100C5000A0932508B093260860E081E090E00E9410
:100C60007E3387E20E94BD05892B59F160E070E078
:100C70008DE295E00E94E3138A3019F5C1C06CE360
:100C8000629FA001639F500D1124840F951F0EC019
:100C90002115310559F06CE3629FA001639F500D4F
:100CA00011249A01205F314F820F931F039748F45C
:100CB000809132089091330880629093330880933A
:100CC00032088DE894E00E946B0F8DE894E00E945A
:100CD0002C0F8DE894E00E943B0F8DE894E00E9479
:100CE000F30A63E070E080E090E00E947D04809170
:100CF000230890912408A0912508B0912608A1FF0F
:100D00005EC063E070E080E090E00E947D0461E0FE
:100D100086E10E945E0563E070E080E090E00E9462
:100D20007D0461E086E10E94770563E070E080E089
:100D300090E00E947D040E94FA0F63E070E080E082
:100D400090E00E947D0481E00E941D1063E070E04D
:100D500080E090E00E947D0484E00E942B1063E01C
:100D600070E080E090E00E947D0480E00E94261008
:100D700063E070E080E090E00E947D040E94191022
:100D800063E070E080E090E00E947D0466E082E233
:100D900095E00E94361063E070E080E090E00E94F1
:100DA0007D0461E086E10E945E0560E086E10E94CC
:100DB000770563E070E080E090E00E947D0463E0EE
:100DC00070E080E090E00E947D048DE295E00E945A
:100DD000E1146093CD027093CE028093CF02909382
:100DE000D0028091CD029091CE02A091CF02B0911D
:100DF000D0020E94D1300E94C5020E94EA02FDCFBB
:100E00008DE894E00E946B0F8DE894E00E94BD0D88
:100E10008DE894E00E94B20D8091A60490E02091AC
:100E2000A804821B91092091A50430E04091A904F7
:100E3000241B3109121613060CF421CF29CF61E0CF
:100E40008BE10E9477056AE070E080E090E00C940E
:100E50007D04FC01128A118E138EDC01A356BE4F55
:100E600089E111968C93119714961C92DF01AE556F
:100E7000BE4F1C9212961C92E956FE4F11821082B0
:100E800008958CE10E94BD0521E0892B09F420E042
:100E9000822F0895EF92FF920F931F93CF93DF93CA
:100EA000EC010E944107811105C0C956DE4F81E067
:100EB00090E00EC08E0103561E4F42E06DE1C80166
:100EC0000E94E724811108C0C956DE4F82E090E0FD
:100ED0009983888380E02FC07E0141E0B801CE0174
:100EE0000E944619811108C040E0B801CE010E945D
:100EF0004619811101C0E8CF8E01075E1F4FB7016F
:100F0000C8010E941B1E9E0129563E4F811106C03A
:100F100088E090E0F90191838083DCCFDE01AE555B
:100F2000BE4F8AE1F80101900D928A95E1F7F9012F
:100F30001182108281E0DF91CF911F910F91FF907C
:100F4000EF900895CF93DF93EC0161E08DE10E9473
:100F50005E0560E08DE10E94770540912308509185
:100F60002408609125087091260861604093230849
:100F700050932408609325087093260864E670E077
:100F800080E090E00E947D0461E08BE10E945E05BC
:100F900060E08CE10E945E0581E0809323050E9461
:100FA0001F07CE01DF91CF910C944A0740E08E5588
:100FB0009E4F0C9412234F925F926F927F928F926A
:100FC0009F92AF92BF92CF92DF92EF92FF920F93D8
:100FD0001F93CF93DF93CDB7DEB7C154D1090FB6BE
:100FE000F894DEBF0FBECDBF5C014A012901FB01B1
:100FF000EE55FE4F8AE1DE015B9601900D928A95D7
:10100000E1F719821B828A01EE24E394F12CEC0EA5
:10101000FD1E6E018BE1C80ED11C35C0F801208188
:101020002F3219F40F5F1F4F2EC0801B8D3008F038
:101030008CE0682E712CA301B801CE01C5960E94E8
:101040001F31E5E3F0E0EC0FFD1FE60DF71D108208
:10105000C7010E94B11E21E0AE014B5C5F4FB6019B
:10106000C7010E943121811104C0F5011082128252
:101070001DC0060D171DC6010E94B11E9C2D8D2D91
:101080006701E92EF82E6FE270E0C8010E9404317A
:10109000009721F608191909F201118300838AE1EA
:1010A000F601D50101900D928A95E1F7C501CF5B5C
:1010B000DF4F0FB6F894DEBF0FBECDBFDF91CF91EB
:1010C0001F910F91FF90EF90DF90CF90BF90AF9066
:1010D0009F908F907F906F905F904F900895BF92F8
:1010E000CF92DF92EF92FF920F931F93CF93DF93F4
:1010F000CDB7DEB76C970FB6F894DEBF0FBECDBF8D
:101100007C016B018A01B22E9E01255E3F4FAB012F
:10111000BC01CE0101960E94DB074B8D5C8D4C0D0E
:101120005D1DFA018081811102C080E01CC08B81AD
:101130008823D9F38250823040F4B701675E7F4F35
:101140002B2DC8010E9431210EC02B2DBE016F5FD7
:101150007F4FC8010E943121882339F3CE010196C7
:101160000E94B11E81E06C960FB6F894DEBF0FBEF0
:10117000CDBFDF91CF911F910F91FF90EF90DF9046
:10118000CF90BF900895CF93DF93CDB7DEB76A9726
:101190000FB6F894DEBF0FBECDBF19821B8221E0CF
:1011A000AE014F5F5F4F0E946F08882379F08B81FB
:1011B000813031F0CE0101960E94B11E80E007C05F
:1011C000CE0101960E94B11E81E001C08FEF6A96A8
:1011D0000FB6F894DEBF0FBECDBFDF91CF9108955B
:1011E0004F925F926F927F928F929F92AF92BF9237
:1011F000CF92DF92EF92FF920F931F93CF93DF93E3
:10120000CDB7DEB76B970FB6F894DEBF0FBECDBF7C
:101210005C01962E872E29013A0119821B820E94B9
:101220004107F7E9EF2EFF24F394EA0CFB1C811130
:101230000EC081E290E0F70191838083F3E3AF0E6B
:10124000B11C62E172E0C5010E941831D8C00115DD
:10125000110529F0013021E0120708F402C000E076
:1012600011E0F701808191818F7C9183808321E05F
:10127000CC24C394D12CCC0EDD1EA601692D782D73
:10128000C5010E946F0881111CC0F3E3AF0EB11CB1
:101290008F929F9288E192E09F938F9381E08F934A
:1012A0001F92BF92AF920E942E31F70180819181EF
:1012B0008062918380830FB6F894DEBF0FBECDBFEE
:1012C0009EC07E019BE1E90EF11C41E050E0B701B8
:1012D000C6010E94641B411451046104710409F5A4
:1012E000C12CD12C760146C091919A3029F421E08D
:1012F000421A5108610871084114510461047104D3
:1013000089F09E2E9E18981678F3411451046104BA
:10131000710441F041E050E0B701C6010E94641B36
:1013200001C0912C811107C08FEF981659F0C12C84
:10133000D12C760116C04114510461047104A1F34B
:10134000F701DFCF8B8DF50183AB8A3011F40150AB
:101350001109C12CD12C7601C39403C0015011098D
:1013600049F041E050E0BE01655E7F4FCE0101963D
:101370000E94641B8823B9F001151105A1F0FFEF4D
:10138000CF16D104E104F10409F0C0F49B8DF501FE
:10139000EC0DFD1D93AB2FEFC21AD20AE20AF20A3E
:1013A0009A30F9F6DBCF8FEFC816D104E104F104CF
:1013B00028F4F501EC0DFD1D13AA1AC0F501E15D3D
:1013C000FE4F8EE38083F501E05DFE4F8083F501E3
:1013D000EF5CFE4F8AE08083F501EE5CFE4F1082E9
:1013E000F501E956FE4F8081918180619183808370
:1013F000CE0101960E94B11E93E3A90EB11CC50156
:101400006B960FB6F894DEBF0FBECDBFDF91CF91C4
:101410001F910F91FF90EF90DF90CF90BF90AF9012
:101420009F908F907F906F905F904F9008959F92C4
:10143000AF92BF92CF92DF92EF92FF920F931F93E2
:10144000CF93DF93CDB7DEB7A4970FB6F894DEBF86
:101450000FBECDBF7C01D62EC72E19821B820E94E3
:101460004107870109561E4F81110FC081E290E0AC
:10147000F8019183808362E172E0C701C3960E9404
:1014800018310FEF1FEF98015DC0F8018081918145
:101490008F7D9183808321E0AA24A394B12CAC0E8C
:1014A000BD1EA5016D2D7C2DC7010E946F08811105
:1014B0001FC0CF92DF928FE392E09F938F9381E0E2
:1014C0008F931F92F3E3EF0EF11CFF92EF920E94B5
:1014D0002E31F801808191818062918380830FB6E3
:1014E000F894DEBF0FBECDBF00E010E098012AC027
:1014F0008E01055E1F4F4AE050E0B801C5010E9411
:10150000641BC12CD12C7601902E12C091919A307F
:1015100029F49FEFC91AD90AE90AF90A9E2F9919E5
:101520009817A0F34AE050E0B801C5010E94641B7F
:10153000882311F0F801F2CFCE0101960E94B11E6E
:1015400097018601B801C901A4960FB6F894DEBFD1
:101550000FBECDBFDF91CF911F910F91FF90EF9004
:10156000DF90CF90BF90AF909F90089581ED92E073
:101570000C94290780914207882341F08091160836
:10158000811104C080E295E00C94EE0F08950F9352
:101590001F93CF93DF93EC01042F68A761E080E3F2
:1015A0000E945E0518A5112379F0113091F461E0D5
:1015B00080E30E947705013019F482E08B8B09C02B
:1015C000011107C01B8B05C060E080E30E94770516
:1015D0001B8A6AE070E080E090E0DF91CF911F917C
:1015E0000F910C947D04CF93DF93EC010E94BA0A13
:1015F00040E060E0CE01DF91CF910C94C70AFC017E
:10160000148A158A168A178A108E118E128E138EDE
:10161000148E158E168E178E10A211A212A213A26E
:1016200014A215A216A217A20895EF92FF920F938B
:101630001F93CF93DF93CDB7DEB7EC970FB6F89437
:10164000DEBF0FBECDBF8C01EDE2F3E0859194913A
:10165000BC01EE24E394F12CEC0EFD1EC7010E94A8
:10166000DC30EFE2F3E085919491BC01CE018996E4
:101670000E94DC30F8018689843009F466C040F4A9
:10168000823029F108F04BC0813009F0B6C009C0A2
:10169000863009F486C008F46EC0873009F0ADC00A
:1016A00096C0F801818D1F928F93808D1F928F932A
:1016B00087891F928F93828D1F928F9385891F92A6
:1016C0008F9384891F928F938DE792E015C0F80164
:1016D000818D1F928F93808D1F928F9387891F9288
:1016E0008F93828D1F928F9385891F928F93848908
:1016F0001F928F9381E892E09F938F93FF92EF92D6
:101700001F9284E68F93C80189969F938F930E94BE
:101710002E310FB6F894DEBF0FBECDBF81C0F801E9
:10172000818D1F928F93808D1F928F9387891F9237
:101730008F93828D1F928F9385891F928F938489B7
:101740001F928F9385E892E0D7CFF801818D1F9289
:101750008F93808D1F928F9387891F928F93828D95
:101760001F928F9385891F928F9384891F928F93E5
:1017700089E892E0C1CFF801818D1F928F93808D0F
:101780001F928F9387891F928F93828D1F928F93C1
:1017900085891F928F9384891F928F938DE892E0A1
:1017A000ABCFF801818D1F928F93808D1F928F9305
:1017B00087891F928F93828D1F928F9385891F92A5
:1017C0008F9384891F928F9381E992E095CFF801DE
:1017D000818D1F928F93808D1F928F9387891F9287
:1017E0008F93828D1F928F9385891F928F93848907
:1017F0001F928F9385E992E07FCFCE0189969F93C8
:101800008F931F9284E68F93C80189969F938F933D
:101810000E942E310F900F900F900F900F900F900D
:10182000075D1F4FC801EC960FB6F894DEBF0FBEE0
:10183000CDBFDF91CF911F910F91FF90EF90089551
:10184000CF92DF92EF92FF920F931F93CF93DF938C
:101850008C01C62E80914207811104C08CE397E071
:101860000E94332668E670E08CE397E00E946026D1
:1018700060E070E08CE397E00E948C278CE397E0B7
:101880000E948E2743E150E068E670E08CE397E029
:101890000E94C827E12CF12CC0E0D0E0D12CE4C09C
:1018A0008CE397E00E946826F801EC0FFD1F80830F
:1018B000C630D10509F467C098F4C230D10509F4E7
:1018C0003EC038F4209729F1C130D10509F0C7C0D6
:1018D0002BC0C430D10509F440C008F049C03AC05B
:1018E000CA30D10509F484C048F4282F30E0C8304C
:1018F000D10509F461C008F06DC050C0CC30D105ED
:1019000009F492C008F482C0CD30D10509F0A7C017
:1019100099C0982F92959F708F702AE0929F800DAA
:101920001124F801818F9BC0982F92959F708F7022
:10193000FAE09F9F800D1124F801808F90C0982FAE
:1019400092959F708F70FAE09F9F800D1124F8018F
:10195000878B85C0F801868B82C0982F92959F70E7
:101960008F70FAE09F9F800D1124F801828F77C05D
:10197000982F92959F708F70FAE09F9F800D112491
:10198000F801858B6CC0982F92959F708F70FAE04C
:101990009F9F800D1124F801848B61C054E0359520
:1019A00027955A95E1F727708F70FAE02F9F800DE9
:1019B0001124F801838F53C044E0359527954A954B
:1019C000E1F727708F70FAE02F9F800D1124F80146
:1019D000848F45C094E0359527959A95E1F723705B
:1019E0008F70FAE02F9F800D1124F801858F37C08A
:1019F000282F2695269526952670922F990F990FB8
:101A0000920F8F70980FF801968F29C0282F269576
:101A1000269526952E70922F990F990F920F8F7001
:101A2000980FF801978F1BC0282F2695269526958D
:101A30002670922F990F990F920F8F70980FF801BF
:101A400090A30DC0282F2695269526952670922FB7
:101A5000990F990F920F8F70980FF80191A321960B
:101A600003C0FFEFEF1AFF0ACC16DD0658F02AE09C
:101A7000E216F10438F48CE397E00E946226882392
:101A800081F30ECFDF91CF911F910F91FF90EF90D7
:101A9000DF90CF9008951F93CF93DF93EC01162F23
:101AA00080914207811104C08CE397E00E943326A5
:101AB00068E670E08CE397E00E946026612F8CE37B
:101AC00097E00E946027C10FD11D68818CE397E0E9
:101AD0000E9460278CE397E0DF91CF911F910C94D7
:101AE0008E27FF920F931F93CF93DF938C01F62ED7
:101AF00080914207811104C08CE397E00E94332655
:101B000068E670E08CE397E00E9460266F2D8CE31E
:101B100097E00E9460278CE397E00E948E2741E0C7
:101B200050E068E670E08CE397E00E94C827CBE0C5
:101B3000D0E08CE397E00E946226811102C02197D9
:101B4000C1F78CE397E00E946826F801EF0DF11DC4
:101B500080838CE397E0DF91CF911F910F91FF90ED
:101B60000C948E27CF93DF93EC0166E00E94200C4B
:101B7000CE01DF91CF910C94150BCF92DF92EF92B3
:101B8000FF920F931F93CF93DF93CDB7DEB7C85764
:101B9000D1090FB6F894DEBF0FBECDBF7C016AE05D
:101BA0000E94200C8701075D1F4F84E6F801119207
:101BB0008A95E9F7EBE0F3E085919491BC01CE01C1
:101BC0008F5A9F4F0E94DC30BE016F5A7F4FC80171
:101BD0000E94F930F70182A1823009F46AC030F422
:101BE000882369F0813009F00BC122C0843009F4E8
:101BF000C7C008F493C0853009F002C1F0C0EDE021
:101C0000F3E085919491BC01CE018F5A9F4F0E94C1
:101C1000DC30BE016F5A7F4FC8010E94F930EBE102
:101C2000F3E0859194916E01F9E2CF0ED11C18C0BA
:101C3000EFE0F3E085919491BC01CE018F5A9F4F64
:101C40000E94DC30BE016F5A7F4FC8010E94F930FC
:101C5000EBE1F3E0859194916E01E9E2CE0ED11CA7
:101C6000BC01C6010E94DC30F701838D1F928F9367
:101C7000848D1F928F93858D1F928F93868D1F92D7
:101C80008F93DF92CF921F9288E28F93EE24E3949A
:101C9000F12CEC0EFD1EFF92EF920E942E31B70147
:101CA000C8010E94F9300FB6F894DEBF0FBECDBF59
:101CB000C2C0E1E1F3E085919491BC01CE018F5A5D
:101CC0009F4F0E94DC30BE016F5A7F4FC8010E94B7
:101CD000F930EDE1F3E0859194916E01E9E2CE0EE9
:101CE000D11CBC01C6010E94DC30F701838D1F921C
:101CF0008F93848D1F928F93858D1F928F93DF9288
:101D0000CF921F9288E28F93EE24E394F12CEC0E95
:101D1000FD1EFF92EF920E942E31C1CFE3E1F3E06E
:101D200085919491BC01CE018F5A9F4F0E94DC3067
:101D3000BE016F5A7F4FC8010E94F930EFE1F3E016
:101D4000859194916E01E9E2CE0ED11CBC01C601D1
:101D50000E94DC30F701838D1F928F93848D1F9238
:101D60008F93DF92CF921F9288E28F93EE24E394B9
:101D7000F12CEC0EFD1EFF92EF920E942E318FCFC0
:101D8000E5E1F3E085919491BC01CE018F5A9F4F1C
:101D90000E94DC30BE016F5A7F4FC8010E94F930AB
:101DA000E1E2F3E0859194916E01E9E2CE0ED11C5F
:101DB000BC01C6010E94DC30F701838D1F928F9316
:101DC000DF92CF921F9288E28F93EE24E394F12C5E
:101DD000EC0EFD1EFF92EF920E942E3160CFE7E1E4
:101DE000F3E085919491BC01CE018F5A9F4F0E94E0
:101DF000DC30BE016F5A7F4FC8010E94F9301BC012
:101E0000E9E1F3E0859194917E01E1E5EE0EF11CAC
:101E1000BC01C7010E94DC30FF92EF921F9284E662
:101E20008F931F930F930E942E310F900F900F905E
:101E30000F900F900F90C801C858DF4F0FB6F8945D
:101E4000DEBF0FBECDBFDF91CF911F910F91FF90ED
:101E5000EF90DF90CF900895CF93DF93EC016EE089
:101E60000E94710D8E858E7F8E876EE0CE01DF9190
:101E7000CF910C944B0DCF93DF93EC016EE00E9459
:101E8000710D8E858D7F8E876EE0CE01DF91CF91B3
:101E90000C944B0DCF93DF93EC016FE00E94710D1A
:101EA0008F858370DF91CF910895CF93DF93EC01FD
:101EB0000E944A0F882319F0CE56DF4F8883809105
:101EC0009C048C7F80939C046FE08DE894E0DF910C
:101ED000CF910C944B0DCF93DF93EC0140E061E088
:101EE0000E94C70ACE010E94550FCE010E94FF0A30
:101EF0006DE0CE010E94200C61E08BE20E945E0545
:101F000060E08BE2DF91CF910C94770510921E0573
:101F10001092A00408951F93CF93DF931F92CDB723
:101F2000DEB7162F61E08AE149830E945E0561E019
:101F300088E10E945E054981112321F0113009F0EA
:101F400048C020C041110EC061E08AE10E947705BF
:101F50008091230890912408A0912508B09126082B
:101F600082602FC04130A9F560E08AE10E947705C8
:101F70008091230890912408A0912508B09126080B
:101F80008D7F1FC041110EC061E088E10E9477057E
:101F90008091230890912408A0912508B0912608EB
:101FA00081600FC04130A9F460E088E10E947705AC
:101FB0008091230890912408A0912508B0912608CB
:101FC0008E7F8093230890932408A0932508B093D4
:101FD00026080F90DF91CF911F91089561E089E26B
:101FE0000E945E0561E088E20E945E058CE397E056
:101FF0000C94792661E08EE10E945E0561E08FE13C
:102000000E945E0561E08DE10E945E0560E08EE168
:102010000E94770560E08FE10E94770561E08DE125
:102020000E9477058CB580618CBD8CB580648CBDB9
:1020300008958CB58F7B8CBD0895811103C08CB53C
:10204000806202C08CB58F7D8CBD08959CB5937F56
:10205000982B9CBD08952CB5982F93702C7F922BB4
:102060009CBD9DB580FB90F99DBD0895CF93C62F73
:1020700061E08DE10E945E0561E082E20E945E0502
:1020800061E08DE10E94770561E082E20E947705C0
:102090008091230890912408A0912508B0912608EA
:1020A000A2FF08C061E088E00E945E0561E088E070
:1020B0000E9477058091230890912408A09125081B
:1020C000B091260896FF08C061E089E00E945E0595
:1020D00061E089E00E9477058091230890912408AF
:1020E000A0912508B0912608A3FF08C061E082E016
:1020F0000E945E0561E082E00E94770580912308DE
:1021000090912408A0912508B0912608A4FF08C04A
:1021100061E082E20E945E0561E082E20E94770552
:10212000C330C9F020F4C13061F070F407C0C5308D
:1021300061F1F0F0C63009F067C033C060E08DE1B6
:1021400060C060E082E25DC08DE295E00E94CB134A
:1021500060E08CE256C08091230890912408A09101
:102160002508B0912608A2FF4FC060E088E049C072
:102170008091230890912408A0912508B091260809
:1021800096FF42C060E089E03CC0809123089091B6
:102190002408A0912508B0912608A3FF35C060E06F
:1021A0002FC061E08DE10E94770561E082E20E942C
:1021B00077058091230890912408A0912508B0917B
:1021C0002608A2FF04C061E088E00E9477058091A4
:1021D000230890912408A0912508B091260896FF25
:1021E00004C061E089E00E94770580912308909106
:1021F0002408A0912508B0912608A3FF05C061E03E
:1022000082E0CF910C947705CF91089580912308B7
:1022100090912408A0912508B0912608A2FF0EC035
:102220008091230890912408A0912508B091260858
:1022300081FF04C0809124058823C1F18091230887
:1022400090912408A0912508B0912608A1FF0CC008
:1022500080912205811108C061E086E10E945E053F
:1022600061E086E10E94770580912305811108C015
:1022700061E08BE10E945E0561E08BE10E947705E1
:102280008091230890912408A0912508B0912608F8
:10229000A4FF11C08091270581110DC061E086E186
:1022A0000E945E0561E086E10C94770561E082E0C2
:1022B0000E947705C3CF0895809123089091240848
:1022C000A0912508B0912608A2FF0EC08091230896
:1022D00090912408A0912508B091260881FF04C0A0
:1022E000809124058823C1F18091230890912408CE
:1022F000A0912508B0912608A1FF0CC0809122056D
:10230000811108C061E086E10E945E0560E086E11F
:102310000E94770580912305811108C061E08BE15F
:102320000E945E0560E08BE10E94770580912308A2
:1023300090912408A0912508B0912608A4FF11C00F
:102340008091270581110DC061E086E10E945E0544
:1023500060E086E10C94770560E082E00E947705FA
:10236000C3CF0895CF93C82F82E295E00E94061153
:10237000CEBD0DB407FEFDCF82E295E00E945C1158
:102380008EB5CF9108950F931F93CF93DF938A015A
:10239000EB01060F171F03C089910E94B211C017ED
:1023A000D107D1F7DF91CF911F910F9108950F932E
:1023B0001F93CF93DF93EB014115510519F18A016A
:1023C0000150110982E295E00E9406118FEF8EBD47
:1023D000FE012FEF06C00DB407FEFDCF8EB52EBD5A
:1023E0008193CF018C1B9D0B80179107A0F30DB437
:1023F00007FEFDCF8EB5C00FD11F888382E295E026
:102400000E945C1180E0DF91CF911F910F910895A0
:1024100082E295E00E9406118FEF8EBD0DB407FE9B
:10242000FDCF82E295E00E945C118EB50895109276
:102430002305109222051092240510922505109272
:102440002605109227050895FC01408160E072EC9A
:1024500081E090E00E94652961E087E10E945E05CD
:1024600061E087E10E94770561E08BE00E945E05F4
:1024700060E08BE00E94770561E08DE20E945E05DE
:1024800060E08DE20C947705CF93DF93EC014881F7
:1024900060E072EC81E090E00E94652961E087E1F4
:1024A0000E94770560E08BE00E94770588810E949A
:1024B000E929DF91CF910895CF93DF93EC01488113
:1024C00060E072EC81E090E00E9465298881DF91F4
:1024D000CF910C94052ADC018091C50011968C9354
:1024E00011978091C40012968C931297E2ECF0E061
:1024F000808113968C9313978091CA0014968C93C5
:10250000149780818F7D808380818F7E80838081FE
:10251000877F80834C9160E072EC81E090E00E94C4
:10252000652961E087E10E94770560E08BE00C940B
:102530007705CF93DF93EC01409123085091240855
:10254000609125087091260863E070E080E090E0DB
:1025500042FF07C00E947D0461E08BE00E94770586
:1025600002C00E947D0489818093C5008A81809386
:10257000C4008B818093C2008C818093CA00DF915C
:10258000CF910895EF92FF920F931F93CF93DF9314
:102590008C01EB010E946B127E0188E1E81A8CEF3E
:1025A000F80AFE0121968491882339F0F8016081B0
:1025B0000E94B42ACE15DF05A1F7C8010E94991226
:1025C00060E070E0CB01DF91CF911F910F91FF9000
:1025D000EF900895CF93DF93EC010E946B128881F6
:1025E0000E94B62ACE01DF91CF910C949912EF92FE
:1025F000FF920F931F93CF93DF9300D0CDB7DEB739
:102600007C010E94C2128C01C70169837A830E94F7
:10261000EA1269817A81C8010F900F90DF91CF9102
:102620001F910F91FF90EF900895AF92BF92DF92AC
:10263000EF92FF920F931F93CF93DF93EC01142F30
:10264000D52E7B0159010E946B12A114B10429F40B
:102650006881812F0E94B42A16C08AE0A816B104AE
:1026600039F44881612F7D2DC7010E945C2B0BC07E
:102670009501442737FD4095542F0881612F7D2D0A
:10268000C7010E94D12ACE01DF91CF911F910F91F6
:10269000FF90EF90DF90BF90AF900C949912CF9283
:1026A000DF92EF92FF920F93CF93DF93EC016A01D9
:1026B0007B010E946B1208812AE030E040E050E08C
:1026C000C701B6010E94D12ACE01DF91CF910F91AF
:1026D000FF90EF90DF90CF900C949912AB0160E0E7
:1026E00070E00C944F131F93CF93DF93EC01162FE0
:1026F0000E946B126881812F0E94B42ACE01DF9163
:10270000CF911F910C9499120F931F93CF93DF9346
:10271000EC018B010E946B126881C8010E94C12AE2
:10272000CE01DF91CF911F910F910C9499121F93BD
:10273000CF93DF93EC01162F0E946B126881812FDB
:102740000E94B42ACE01DF91CF911F910C9499126F
:102750001092280508951F93CF93DF931F92CDB752
:10276000DEB7162F61E0812F49830E945E05498103
:10277000413011F461E003C0411108C060E0812FD5
:102780000F90DF91CF911F910C9477050F90DF91FF
:10279000CF911F91089561E087E10E945E0561E09D
:1027A00084E20E945E0561E085E20E945E0561E0D0
:1027B00087E10E94770561E084E20E94770561E08D
:1027C00085E20C947705CB010C9470338F929F9225
:1027D000AF92BF92CF92DF92EF92FF920F931F932F
:1027E000CF93DF93CDB7DEB7C75FD1090FB6F894AB
:1027F000DEBF0FBECDBF8E0100511F4F580128E034
:10280000A20EB11C7E0181E8E80EF11CCC24C39419
:10281000D12CCC0EDD1E6DE0CE018F519F4F0E945A
:102820002F1640E06CE08DE295E00E94AB1340E093
:102830006DE08DE295E00E94AB13F80110821182E9
:102840001282138261E08CE00E945E0561E08CE000
:102850000E947705CE018F519F4F0E940F1541E0D6
:102860006DE08DE295E00E94AB136AE070E080E0DD
:1028700090E00E947D0440E063E3CE018F519F4FC2
:102880000E94E01562E370E080E090E00E947D0429
:102890004701CE018F519F4F0E94B515F2E08F1A6C
:1028A0009108F4018083118261E070E080E090E0A3
:1028B0000E947D048C149D0461F7FE017196D7017E
:1028C000C60180599F4F219131912D933D93E81777
:1028D000F907C9F731EE832E912C8C0E9D1E81E0F5
:1028E00090E0A0E0B0E0F401329122914F0121305C
:1028F000310569F4F8014081518162817381480F8B
:10290000591F6A1F7B1F4083518362837383880F23
:10291000991FAA1FBB1F8E149F0429F7F8018081FD
:102920009181A281B3818F3F9F4FAF4FBF4F29F459
:10293000F801108211821282138260E08CE00E9402
:10294000770540E06CE08DE295E00E94AB1340E03B
:102950006DE08DE295E00E94AB130C5F1F4F0A15EE
:102960001B0509F058CFC051DF4F088119812A811A
:102970003B81C05FD040CC50DF4F88819981AA81D4
:10298000BB81C45FD040081719072A073B0719F01D
:1029900000E010E09801B801C901C950DF4F0FB63F
:1029A000F894DEBF0FBECDBFDF91CF911F910F9185
:1029B000FF90EF90DF90CF90BF90AF909F908F905F
:1029C0000895CF92DF92EF92FF920E94E6136B017F
:1029D0007C01611571058105910591F483EE90E00C
:1029E0000E9478336A302AE072078207920741F02A
:1029F0006F3F2FEF72078207920711F06B017C0186
:102A0000B601C701FF90EF90DF90CF9008958FED52
:102A100090E00E9470338F3F09F480E00895CF92D8
:102A2000DF92EF92FF921F93CF93DF93EC0160E070
:102A30008E850E945E050E942B046B017C011EE7BF
:102A4000115089F182E090E00E94A7040E942B04BB
:102A50006C157D058E059F0520F40E942B046B01EB
:102A60007C018E850E94BD05892BF9F40E942B0400
:102A70006C197D098E099F09643F7140810591059C
:102A8000F8F213C00E942B046B017C011130C1F1DC
:102A90000E942B046C197D098E099F09643F7140C7
:102AA00081059105D0F010E02BC061E08E850E9479
:102AB0005E0560E08E850E94770584E591E00E94C6
:102AC000A7040E942B046B017C018E850E94BD052A
:102AD00011E0892BD9F210E0D9CF8E850E94BD0577
:102AE00011E0892B09F010E089E090E00E94A70432
:102AF0000E942B046C157D058E059F0538F6C2CF0C
:102B0000812FDF91CF911F91FF90EF90DF90CF90B9
:102B100008951F93CF93DF93FC011081C181D2816F
:102B2000912F9095F8948A8189238A838981812BBA
:102B3000898360FF0BC089E090E00E94A7048A812E
:102B4000812B8A8378948FE290E00AC087E390E03B
:102B50000E94A7048A81812B8A83789485E090E083
:102B6000DF91CF911F910C94A7040F931F93CF93E4
:102B7000DF93FC011081C181D281F8948981812B7E
:102B800089838A81012F009580238A8382E090E0E7
:102B90000E94A70489818023898387E090E00E94B6
:102BA000A704C88178948DE290E00E94A7041C23BA
:102BB00081E009F480E0DF91CF911F910F9108959A
:102BC000CF92DF92EF92FF920F931F93CF93DF93F9
:102BD0001F92CDB7DEB76C01E62E08E010E0FF24AF
:102BE000F3949F2D9E2161E009F460E0C6014983C2
:102BF0000E948915FF0C0150110949810115110529
:102C000081F7411115C0F894D6011196ED91FC9110
:102C1000129791818C918095892381831196ED91F2
:102C2000FC91129792818C9180958923828378946C
:102C30000F90DF91CF911F910F91FF90EF90DF9058
:102C4000CF900895FC01138615861486128611868E
:102C50001086178216821582148213820895CF93EC
:102C6000DF93EC01862F6E8760E00E945E058E8503
:102C700090E0FC01E357FD4FE491E883FC01E05450
:102C8000FD4FE491F0E0ED50FD4FE491E9831A82AD
:102C9000CE01DF91CF910C9422168091300580FFF8
:102CA00041C04091310550913205609133057091DA
:102CB000340525E335E080912E0590912F050E9483
:102CC0000326811102C080E008958091300581FDC6
:102CD00006C0809130058E7F8093300523C080919F
:102CE00039078230B0F34091350750913607609133
:102CF0003707709138078091310590913205A09186
:102D00003305B0913405480F591F6A1F7B1F25E317
:102D100035E080912E0590912F050E9403268111A8
:102D2000D8CFD1CF81E00895CF92DF92EF92FF927A
:102D3000CF936B017C01C42F8091310590913205B6
:102D4000A0913305B09134058C159D05AE05BF05E6
:102D500009F10E944D16811103C020E030E022C02D
:102D6000C2FF0BC010923005C0923105D0923205DF
:102D7000E0923305F09234050DC025E335E0B7014C
:102D8000A60180912E0590912F050E94BA248111F1
:102D9000E9CFE3CFC370809130058C2B8093300551
:102DA00025E335E0C901CF91FF90EF90DF90CF9000
:102DB00008950F931F93FC01425051096109710955
:102DC000A481B0E09A01AB010E94892F8B019C0184
:102DD00082859385A485B585080F191F2A1F3B1F7F
:102DE000B801C9011F910F9108958F929F92AF92E0
:102DF000BF92CF92DF92EF92FF920F931F93CF93E8
:102E0000DF93EC016A017B0189018D819E81AF8195
:102E1000B8850196A11DB11D84179507A607B707B0
:102E200008F449C08A89803129F499278F2D7E2D95
:102E30006D2D0CC0803209F03EC0CB01BA0147E0D5
:102E400096958795779567954A95D1F78E849F8457
:102E5000A888B988680D791D8A1D9B1D42E00E94D3
:102E60009416009741F12A89203169F4DD24EE247B
:102E7000FF24F601EE0FFF1FE80FF91F80819181FB
:102E8000A0E0B0E011C0E894C7F8DD24EE24FF24F0
:102E9000F601EE0FFF1FEE0FFF1FE80FF91F8081F5
:102EA0009181A281B381BF70F80180839183A28355
:102EB000B38381E001C080E0DF91CF911F910F913A
:102EC000FF90EF90DF90CF90BF90AF909F908F904A
:102ED00008958F929F92AF92BF92CF92DF92EF921E
:102EE000FF920F931F93CF93DF93EC016A017B0155
:102EF000480159018D819E81AF81B8850196A11D40
:102F0000B11D84179507A607B70708F441C08A8941
:102F1000803129F49927872F762F652F0CC08032B6
:102F200009F036C0CB01BA01E7E096958795779511
:102F30006795EA95D1F70E851F8528893989600F35
:102F4000711F821F931F43E00E949416009701F1A6
:102F50002A89203159F4DD24EE24FF24F601EE0FF6
:102F6000FF1FE80FF91F9182808210C0E894C7F814
:102F7000DD24EE24FF24F601EE0FFF1FEE0FFF1FEE
:102F8000E80FF91F80829182A282B38281E001C0A2
:102F900080E0DF91CF911F910F91FF90EF90DF9034
:102FA000CF90BF90AF909F908F9008952F923F92B7
:102FB0004F925F926F927F929F92AF92BF92CF9209
:102FC000DF92EF92FF920F931F93CF93DF93CDB7D2
:102FD000DEB760970FB6F894DEBF0FBECDBF5C01C1
:102FE0004D875E876F87788B1901DC0115962D91CF
:102FF0003D914D915C9118972F5F3F4F4F4F5F4F21
:1030000029873A874B875C87F10140805180628035
:103010007380411451046104710431F0FFEF4F1AC1
:103020005F0A6F0A7F0A10C0DC014D905D906D90C1
:103030007C90992493942D853E854F855889213025
:1030400031054105510509F0912C730162011D8282
:103050001E821F821886F50185819681A781B08521
:103060002D813E814F815885281739074A075B0714
:1030700008F056C089859A85AB85BC858C159D0561
:10308000AE05BF0550F4A2E0CA2ED12CE12CF12CE4
:10309000B2E04B2E512C612C712C9E012F5F3F4FC3
:1030A000B701A601C5010E94F5168823C9F149811F
:1030B0005A816B817C81D701C6010196A11DB11D8A
:1030C000452B462B472B19F02C013D010DC08419CF
:1030D0009509A609B7092D853E854F855889821720
:1030E0009307A407B50789F08D819E81AF81B885CC
:1030F0000196A11DB11D8D839E83AF83B8879FEF7D
:10310000C91AD90AE90AF90AA6CF0FEF1FEF2FEF64
:103110003FE0A601B701C5010E94691781111BC0DC
:1031200080E044C0A70196012150310941095109AD
:103130002D833E834F835887970186014D815E81A1
:103140006F817885C5010E946917882349F3CD8076
:10315000DE80EF80F8844C145D046E047F0410F36D
:10316000D1014D915D916D917C91411551056105A4
:10317000710541F4F10140825182628273829110A3
:1031800009C013C093018201C5010E946917811112
:10319000F1CFC6CFFFEF4F1A5F0A6F0A7F0AD50142
:1031A0004D925D926D927C92139781E060960FB67E
:1031B000F894DEBF0FBECDBFDF91CF911F910F916D
:1031C000FF90EF90DF90CF90BF90AF909F907F9057
:1031D0006F905F904F903F902F900895AF92BF9265
:1031E000CF92DF92EF92FF920F931F93CF93DF93D3
:1031F00000D000D0CDB7DEB75C016A017B0182E070
:1032000090E0A0E0B0E0F50180839183A283B383D6
:103210009E012F5F3F4FB701A601C5010E94F51621
:10322000811102C080E023C000E010E09801B701E6
:10323000A601C5010E9469178823A1F3C980DA801D
:10324000EB80FC80F5018289803141F4F8EFCF16E4
:10325000FFEFDF06E104F10448F4DACF88EFC81687
:103260008FEFD806E8068FE0F80690F281E00F9025
:103270000F900F900F90DF91CF911F910F91FF90C2
:10328000EF90DF90CF90BF90AF9008958F929F9274
:10329000AF92BF92CF92DF92EF92FF920F931F9364
:1032A000CF93DF93EC01142F70932F0560932E05BD
:1032B0001A8A82E090E0A0E0B0E088839983AA8334
:1032C000BB83109230058FEF9FEFDC0180933105B7
:1032D00090933205A0933305B0933405442311F144
:1032E000453008F0BCC040E060E070E0CB010E94D7
:1032F0009416009709F4B3C0FC0120E1129FE00D81
:10330000F11D1124E255FE4F80818F7709F0A7C08F
:10331000C084D184E284F384C114D104E104F104B3
:1033200021F49DC0C12CD12C760140E0C701B6012B
:103330000E949416FC01009709F491C0838594853E
:103340008115924009F08BC02089222309F487C09F
:1033500086859785892B09F482C020933907458596
:103360004C83198688E090E021E007C0220F019786
:1033700009F475C039853F5F39874213F7CF268935
:1033800037892115310519F040E050E004C024A12F
:1033900035A146A157A120933507309336074093B6
:1033A0003707509338078685978546015701880E61
:1033B000991EA11CB11C8E869F86A88AB98A018994
:1033C00012891C8B0B8BA089B0E00E94892F680D9D
:1033D000791D8A1D9B1D6D8B7E8B8F8B988F35E0A1
:1033E000000F111F3A95E1F701501E4F012F1127D1
:1033F0000695DC01CB01800F911FA11DB11D8A87AD
:103400009B87AC87BD87038914890115110519F0C5
:1034100020E030E004C000A111A122A133A1B70136
:10342000A601481B590B6A0B7B0BDB01CA01800FFD
:10343000911FA21FB31F098404C0B695A795979545
:1034400087950A94D2F78D839E83AF83B887853F93
:103450005FE09507A105B10520F48CE08A8B80E040
:1034600012C0853F9F4FA105B10510F480E109C04E
:1034700084A595A5A6A5B7A58D8B9E8BAF8BB88F80
:1034800080E28A8B81E0DF91CF911F910F91FF90B5
:10349000EF90DF90CF90BF90AF909F908F90089566
:1034A000CF93C82F8A3028F460E388E295E00E9429
:1034B00097134C2F50E060E070E02AE030E088E2A3
:1034C00095E0CF910C941513CF93DF93EC019C0101
:1034D0002A5F3F4F41E050E060E070E08C819D81C9
:1034E0000E94D6178823A1F04E895F89688D798D57
:1034F000452B462B472B71F44E815F81688579857A
:103500004E8B5F8B688F798F89818068898302C039
:1035100080E001C081E0DF91CF910895BF92CF920A
:10352000DF92EF92FF920F931F93CF93DF938C0163
:10353000FC0182899389A489B589803E9F4FAF4160
:10354000B10508F01AC0C8010E94641A8823A9F0C6
:10355000D80116964D915D916D917C9119971496B5
:103560008D919C9115970E94D9166B017C0145E0C5
:103570000E949416EC01009719F4C0E0D0E03AC024
:1035800080E092E0FE019C01119221503040E1F771
:10359000BB24B39410C0B701A6014B0D511D611D92
:1035A000711D9E0180912E0590912F050E9403268A
:1035B000882319F3B394D8011496ED91FC911597D3
:1035C0008481B81640F390E0A0E0B0E029E0880FD5
:1035D000991FAA1FBB1F2A95D1F7F8014289538969
:1035E00064897589480F591F6A1F7B1F428B538B53
:1035F000648B758BCE01DF91CF911F910F91FF905E
:10360000EF90DF90CF90BF900895CF93DF93EC01C0
:10361000462F6E857F85888999890E949416009728
:1036200049F02B81AC0160E2269F400D511D112411
:103630009A0102C020E030E0C901DF91CF910895E6
:10364000CF93DF93FB012BE030E231932150E9F778
:10365000DC0130E0C7E01DC0CA3059F138E0CAE0F3
:1036600018C0E21731F1FC010196E491E111F9CFA4
:10367000C317F8F02132E8F02F37D8F4FB01E30F3D
:10368000F11D822F81568A3110F4D22FD052D0836F
:103690003F5FCD012D91211109C0FA0180839183F3
:1036A00081E0FB019081903261F403C02F3219F464
:1036B000F4CF80E006C0D22F2E3271F28AEF94E070
:1036C000D2CFDF91CF9108953F924F925F926F9248
:1036D0007F928F929F92AF92BF92CF92DF92EF92A2
:1036E000FF920F931F93CF93DF9300D000D0CDB7FD
:1036F000DEB79C838B839B015A01FC01828181117F
:1037000003C02FEF3FEF2CC1EB81FC81818180FF53
:10371000F8CFF8C05A01A81AB90A650179018B815E
:103720009C8106969A838983E7C0EB81FC81428461
:10373000538464847584D301C2019170AA27BB2786
:103740004C0184819581B301A20139E0769567959A
:10375000579547953A95D1F7FC0134803A94342235
:10376000EB81FC812281223051F4FC01458856888E
:103770006788708C440E551E661E771E2FC08114FC
:103780009104E1F431101AC0EB81FC8145284628F0
:10379000472849F486899789A08DB18D86839783C0
:1037A000A087B1870BC046815781608571852981CB
:1037B0003A810E94F516882309F4A3CFEB81FC819E
:1037C0004681578160857185848195810E94D916D3
:1037D0002B013C01430C511C611C711C8114910490
:1037E00009F0AAC0C114F2E0DF0608F4A5C0809178
:1037F000310590913205A0913305B09134054816FA
:1038000059066A067B0609F0A0C096C020E032E0A7
:103810002819390986012C153D0508F48901880EFF
:10382000991EA801B401C7010E94F03053C097014E
:10383000B301A20180912E0590912F050E94BA2418
:10384000811146C05ECF9D2C9694EB81FC81228134
:10385000223041F024813581F90124812319291571
:1038600008F4922E481659066A067B0658F4B301EE
:10387000A20180912E0590912F050E94972481111D
:103880000CC03FCF890D911DA11DB11D48165906D1
:103890006A067B0608F45FC0EACF2701812C09C0C5
:1038A000B2010E94E923FEEF5F1A882309F429CFB1
:1038B000839480912E0590912F058910F1CF0E945D
:1038C0007E24882309F41DCF182D110F00E002C0BB
:1038D00000E012E0E00EF11EEB81FC818285938511
:1038E000A485B585800F911FA11DB11D8287938787
:1038F000A487B587C01AD10AC114D10409F015CF25
:1039000095012EC0EB81FC814289538964897589B8
:1039100082859385A485B5852501612C712C6A016A
:103920007B01C81AD90AEA0AFB0A4C145D046E042A
:103930007F0408F0EFCEF1CE40E0C301B2010E9457
:103940009416009709F062CFDCCEC114F4E0DF06D4
:1039500008F079CF6CCF0E944D16811188CFD1CE5F
:10396000C9010F900F900F900F90DF91CF911F9191
:103970000F91FF90EF90DF90CF90BF90AF909F900E
:103980008F907F906F905F904F903F900895CF936E
:10399000DF931F92CDB7DEB741E050E0BE016F5F0D
:1039A0007F4F0E94641B019719F4298130E002C007
:1039B0002FEF3FEFC9010F90DF91CF910895CF9284
:1039C000DF92EF92FF92CF93DF93EC018A818230F6
:1039D00018F420E030E029C0CA84DB84EC84FD8444
:1039E00055E0F694E794D794C7945A95D1F78FE0B1
:1039F000C822DD24EE24FF24CE010E94C71C97FDBF
:103A0000E8CF4A855B856C857D85415E5F4F6F4F52
:103A10007F4F4A875B876C877D87960145E0220F41
:103A2000331F4A95E1F72B5C3A4FC901DF91CF91E3
:103A3000FF90EF90DF90CF9008958F929F92AF927A
:103A4000BF92CF92DF92EF92FF920F931F93CF938B
:103A5000DF93EC014A015B012A81222309F475C03E
:103A60008A899B89AC89BD8984179507A607B70702
:103A700008F46BC06CC081149104A104B10449F432
:103A80001E821F82188619861A861B861C861D8632
:103A90005AC04A855B856C857D85EC81FD812185D9
:103AA00030E0275F3F4FDB01CA010197A109B1094F
:103AB000022E04C0B695A795979587950A94D2F7DC
:103AC000CC24CA94DC2C7601C80CD91CEA1CFB1C43
:103AD00004C0F694E794D794C7942A95D2F7C816F1
:103AE000D906EA06FB0620F0452B462B472B49F466
:103AF0008E899F89A88DB98D8E839F83A887B9876A
:103B000016C0C81AD90AEA0AFB0A11C04E815F81A1
:103B10006885798598018C819D810E94F51691E0D8
:103B2000C91AD108E108F108811104C014C08E013E
:103B30000A5F1F4FC114D104E104F10439F78A86EA
:103B40009B86AC86BD8681E006C080E004C0223042
:103B500009F091CFF4CFDF91CF911F910F91FF909A
:103B6000EF90DF90CF90BF90AF909F908F9008958F
:103B7000EF92FF920F931F93CF93DF9300D000D06B
:103B8000CDB7DEB78C01FC0186899789A08DB18DF8
:103B900089839A83AB83BC83E12CF12C49815A81C0
:103BA0006B817C819E012F5F3F4FD80114968D91D0
:103BB0009C9115970E94F516882389F1D8011496D7
:103BC000ED91FC9115978481E80EF11CE114B0E1B0
:103BD000FB0628F589819A81AB81BC81228920313D
:103BE00031F4883F9F4FA105B10530F4D7CF883F0E
:103BF0009F4FAF4FBF4090F2A70160E070E0E9E057
:103C0000440F551F661F771FEA95D1F7D8015296CA
:103C10004D935D936D937C93559781E001C080E057
:103C20000F900F900F900F90DF91CF911F910F91F8
:103C3000FF90EF900895CF93DF93EC01FB018A8111
:103C4000882311F080E03EC07D836C8382898031BF
:103C500001F522C083E08A83458956896789708D82
:103C60004E8B5F8B688F798FCE010E94B81D8823A1
:103C700049F381E089831E821F82188619861A867D
:103C80001B861C861D861E861F86188A198A1B8223
:103C900019C08032B9F6DECF82E08A831E8A1F8A7D
:103CA000188E198E4389548960E070E0F5E0440F66
:103CB000551F661F771FFA95D1F74A8B5B8B6C8B6C
:103CC0007D8BD7CFDF91CF9108950F931F93CF9323
:103CD000DF93EC018A818823E1F1898187FF33C07A
:103CE00061E0CE010E94051B8C01009791F1FC015F
:103CF0008081853E71F18A81823040F44A895B89F6
:103D00006C897D89448F558F668F778F4E895F8947
:103D1000688D798DF801538F428F758B648BE0919C
:103D20003A07F0913B07309759F0B8016A5E7F4F30
:103D3000C80148960995F801808D918D938B828BEF
:103D400089818F778983DF91CF911F910F910C9497
:103D50004D1681E0888380E0DF91CF911F910F9114
:103D60000895CF93DF93EC010E94651E1A82DF91C4
:103D7000CF9108954F925F926F927F92AF92BF92D0
:103D8000CF92DF92EF92FF920F931F93CF93DF9327
:103D900000D000D0CDB7DEB75C016A017B01FC0129
:103DA0008281813009F083C0818181FF80C081C020
:103DB000892B8A2B8B2B09F478C0F501428453841C
:103DC00064847584B701A601C5010E941D1D81117F
:103DD00001C06DC0F50184819581C114D104E10455
:103DE000F10479F446895789608D718D0E94EE182F
:103DF000882309F45CC0F501168A178A108E118E8B
:103E00003AC0F50146815781608571859E012F5F1B
:103E10003F4F0E94F516882309F449C049815A8111
:103E20006B817C81F50184819581FC01228920319F
:103E300039F4483FFFEF5F0761057105E0F407C003
:103E4000483F2FEF520762072FE07207A0F40E944D
:103E5000EE18882361F1F5014681578160857185EF
:103E60000FEF1FEF2FEF3FE0848195810E946917CC
:103E7000811101C01CC0F501C28AD38AE48AF58A87
:103E8000818180688183C5010E94651E882379F045
:103E9000B701A6014C145D046E047F0410F4B30155
:103EA000A201C5010E941D1D10C081E00EC080E06E
:103EB0000CC0F50182899389A489B5898417950777
:103EC000A607B70708F074CFF2CF0F900F900F90AE
:103ED0000F90DF91CF911F910F91FF90EF90DF90A6
:103EE000CF90BF90AF907F906F905F904F9008956C
:103EF000FF920F931F93CF93DF93EC01F42E80E298
:103F0000689FF0011124EB5CFA4F8385817121F0E9
:103F1000842F827109F058C080913105909132054B
:103F2000A0913305B09134058E879F87A88BB98BFC
:103F30006B830489158920E030E098011127002760
:103F4000828D938DA0E0B0E0082B192B2A2B3B2B00
:103F50000E8B1F8B288F398F8385887151F4848D48
:103F6000958DA68DB78D8A8B9B8BAC8BBD8B81E09D
:103F700008C0803149F5CE010E94B81D882321F187
:103F800084E08A838F2D8F7089831E821F8218861A
:103F900019861A861B861C861D86F4FE18C040E012
:103FA00050E0BA01CE010E94BA1E811110C00CC0AF
:103FB0004A895B896C897D89CE01DF91CF911F9100
:103FC0000F91FF900C941D1D1A8280E003C0F5FC38
:103FD000EFCF81E0DF91CF911F910F91FF90089576
:103FE000DF92EF92FF920F931F93CF93DF938C0199
:103FF000EB017A01D22E8C819D81F8019583848317
:10400000828181112DC0209749F52AC0A70165E062
:10401000440F551F6A95E1F760E070E0CE010E9401
:104020001D1D8823E9F0CE010E94DF1C0097C1F01E
:10403000FC0180818823A1F0853E91F08E3281F0D1
:10404000B7016F7077274D2DC801DF91CF911F9178
:104050000F91FF90EF90DF900C94781F27FFD6CF41
:1040600080E0DF91CF911F910F91FF90EF90DF9053
:1040700008953F924F925F926F927F928F929F929C
:10408000AF92BF92CF92DF92EF92FF920F931F9366
:10409000CF93DF937C01EB016A01922E8C819D818D
:1040A000F7019583848340E050E0BA01CE010E947D
:1040B0001D1D812C50C0CE010E94C71C97FDBEC0A3
:1040C0000A851B852C853D8501501E4F2F4F3F4F84
:1040D0000A871B872C873D87409031055090320519
:1040E000609033057090340500E010E0302E5801E8
:1040F00045E0AA0CBB1C4A95E1F785E395E0A80EC4
:10410000B91EF5018081882311F0853EB1F462EB80
:1041100072E0C6010E940F31009779F0811008C04B
:10412000F70146865786608A718A33828824839491
:10413000F501808181110AC07FC04BE050E0B501DC
:10414000C6010E94E330009709F473C00F5F1F4F50
:104150000031110559F64A855B856C857D858A8914
:104160009B89AC89BD89481759076A077B0708F402
:10417000A2CF62C091FE62C0882051F0F701338067
:1041800061E0C7010E94051BEC01009769F456C06D
:104190008A81823009F452C0CE010E948E1A0097A3
:1041A00009F44CC0EC01312C80E2FE0111928A9599
:1041B000E9F78BE0F601DE0101900D928A95E1F7B7
:1041C000E0913A07F0913B07309739F0BE01625F0A
:1041D0007F4FCE014096099508C081E298E2998B05
:1041E000888B80E098E09F878E87888999899B8B50
:1041F0008A8B998F888F8E859F859F8B8E8B0E944F
:104200004D168823D9F0492D632DC701DF91CF9139
:104210001F910F91FF90EF90DF90CF90BF90AF90E4
:104220009F908F907F906F905F904F903F900C94F5
:10423000781F97FEE8CF02C096FC9CCF80E0DF910C
:10424000CF911F910F91FF90EF90DF90CF90BF9093
:10425000AF909F908F907F906F905F904F903F9026
:1042600008953F924F925F926F927F928F929F92AA
:10427000AF92BF92CF92DF92EF92FF920F931F9374
:10428000CF93DF93CDB7DEB7C154D1090FB6F89401
:10429000DEBF0FBECDBF4C016B0122965FAF4EAFAC
:1042A0002297422E1B8E1D8E19821B82611571056D
:1042B00009F457C0FC018281811153C02296EEADF2
:1042C000FFAD229780818F3239F076011EC0319682
:1042D0002296FFAFEEAF22972296EEADFFAD22976A
:1042E00080818F32A1F3F60182818250823068F39F
:1042F00064817581CE0101960E941B1E882389F17D
:10430000EE24E394F12CEC0EFD1E53E0A52EB12C0F
:104310008E01055E1F4F3801502E312EAE01405CDC
:104320005F4FBE016B5C7F4F22968EAD9FAD229793
:104330000E94201B81111CC062EB72E022968EADA0
:104340009FAD22970E940F31009729F48EE29EE2E2
:104350009EAB8DAB37C06AE075E088E295E00E94C5
:10436000F71280E037C031962296FFAFEEAF22976A
:104370002296EEADFFAD229780818F32A1F3882384
:1043800009F121E0AE014B5C5F4FB701C8010E940B
:104390003920882331F3EC14FD0419F0C7010E9481
:1043A000B11E0615170521F07801052D132D05C046
:1043B0008E010F5F1F4FE52CF32CF1E0AF1AB1080F
:1043C00009F0ACCF242DAE014B5C5F4FB701C401A7
:1043D0000E943920CF5BDF4F0FB6F894DEBF0FBECF
:1043E000CDBFDF91CF911F910F91FF90EF90DF90A4
:1043F000CF90BF90AF909F908F907F906F905F9085
:104400004F903F900895CF93DF93EC01BC01672F4D
:10441000772766956454784F88E295E00E946E1382
:104420006DE288E295E00E949713CE01A5E0969593
:104430008795AA95E1F78F700E94501A6DE288E285
:1044400095E00E9497138C2F8F71DF91CF910C9480
:10445000501ACF93DF93EC018D2F86958695869524
:104460000E94501A6AE388E295E00E949713CE01F9
:10447000B5E096958795BA95E1F78F730E94501A2B
:104480006AE388E295E00E949713CE018F71992725
:10449000880FDF91CF910C94501ACF92DF92EF9258
:1044A000FF920F931F93CF93DF93CDB7DEB7A09703
:1044B0000FB6F894DEBF0FBECDBF7C01D62EC42E42
:1044C00000E012E040E250E0BE016F5F7F4FC701A5
:1044D0000E94641B809709F084C08981882309F4B5
:1044E00080C0853E41F08E3231F09C8593FD03C043
:1044F000843529F019C00150110921F7F9CF8A81BB
:10450000823591F48B81813479F48C81833561F427
:104510008D81883409F465C007C060E288E295E0C7
:104520000E9497131F5F01C010E01C11F6CF8E018F
:104530000F5F1F4FE12CF12CF8018081803281F058
:10454000F8E0EF1206C06EE288E295E00E94971351
:10455000F394F801608188E295E00E947313F3946C
:10456000E3940F5F1F4FFBE0EF12E6CF8C8588715D
:10457000803131F46FE288E295E00E949713F39462
:104580008D2D837049F4D0FE1DC00AC060E288E220
:1045900095E00E949713F3948DE08F15B8F7F3CF51
:1045A00060E288E295E00E949713898D9A8D0E94BF
:1045B000032260E288E295E00E9497138F89988D2C
:1045C0000E9429228C858871803111F0D1FC0DC0A8
:1045D00088E295E00E94EA128C85887121F481E0DE
:1045E00012C080E010C082E00EC060E288E295E078
:1045F0000E9497134D8D5E8D6F8D78A188E295E0B6
:104600000E944F13E5CFA0960FB6F894DEBF0FBE01
:10461000CDBFDF91CF911F910F91FF90EF90DF9071
:10462000CF900895AF92BF92CF92DF92EF92FF9218
:104630000F931F93CF93DF93CDB7DEB76A970FB673
:10464000F894DEBF0FBECDBF7C01D62EC42E40E055
:1046500050E0BA010E941D1D94E0B92EBD20AC2C83
:10466000A394A3942EC0823064F1BB2051F1F701D2
:10467000028513852485358585E036952795179520
:1046800007958A95D1F719821B82A80141505109DB
:1046900021E0B701CE0101960E94F01F882331F07E
:1046A0004A2D6D2DCE0101960E941223A80115E01E
:1046B000440F551F1A95E1F760E070E0C7010E94B2
:1046C0001D1D4C2D6D2DC7010E944D228111CBCF98
:1046D0006A960FB6F894DEBF0FBECDBFDF91CF91C3
:1046E0001F910F91FF90EF90DF90CF90BF90AF9010
:1046F000089561E0FC0180810E9477058FEF0C94A2
:10470000B2110E94FA0F80E00E94261084E00E94FD
:104710002B1060E082E295E00C9436108F929F920D
:10472000AF92BF92CF92DF92EF92FF920F931F93BF
:10473000CF93DF93EC018B017A0113C00E942B040D
:104740006C197D096D32714010F081E122C00E9428
:104750002B044601A12CB12C681579058A059B050F
:1047600018F40E942B046B0182E295E00E9408126B
:104770008B838F3F19F38E3F11F08FE00AC0A701A2
:10478000B80182E295E00E94D7118B83882319F04B
:104790008CE189830DC082E295E00E94081282E2DA
:1047A00095E00E940812CE010E94792381E004C0A6
:1047B000CE010E94792380E0DF91CF911F910F916C
:1047C000FF90EF90DF90CF90BF90AF909F908F9031
:1047D00008950F931F93CF93DF9300D0CDB7DEB72B
:1047E0008C0169837A830E94812340E052E06981D1
:1047F0007A81C8010F900F90DF91CF911F910F9197
:104800000C948E23CF92DF92EF92FF920F931F931F
:10481000CF93DF93EB0111C00E942B04601B710B3F
:104820006C177D07A8F40E942B046801E12CF12C81
:104830006C157D058E059F0518F40E942B048B01D5
:1048400082E295E00E9408128F3F31F781E001C0BB
:1048500080E0DF91CF911F910F91FF90EF90DF905B
:10486000CF900895FF920F931F93CF93DF9300D0C3
:1048700000D0CDB7DEB78C01F62E29833A834B8367
:104880005C830E94812368E572E0C8010E940224D3
:104890008F2D80640E94B2118C810E94B2118B8195
:1048A0000E94B2118A810E94B21189810E94B211C4
:1048B000F11002C085E901C087E80E94B2118CE0C6
:1048C000F81204C082E295E00E940812F12C82E204
:1048D00095E00E940812F801838387FF05C0FFEF6F
:1048E000FF1611F0F394F3CF0F900F900F900F90ED
:1048F000DF91CF911F910F91FF900895CF93DF9398
:10490000EC0120E030E0A9016CE00E943224882311
:1049100039F083E08983CE010E94792380E004C0CE
:10492000CE010E94792381E0DF91CF910895CF934A
:10493000DF93EC018C81833039F089E0440F551FFF
:10494000661F771F8A95D1F79A01AB0162E1CE010C
:104950000E943224882339F085E08983CE010E94A9
:10496000792380E004C0CE010E94792381E0DF91A9
:10497000CF9108950F931F93CF93DF93EC0189019B
:104980008C81833039F0E9E0440F551F661F771F93
:10499000EA95D1F79A01AB0161E1CE010E94322480
:1049A00081110AC040E052E0B801CE01DF91CF9101
:1049B0001F910F910C948E2384E08983CE010E9475
:1049C000792380E0DF91CF911F910F9108954F924D
:1049D0005F926F927F92BF92CF92DF92EF92FF929F
:1049E0000F931F93CF93DF93EC01B42E1C82198297
:1049F00068830E942B048B0161E088810E945E0520
:104A000061E088810E9477050E94FA0F80E00E9491
:104A1000261084E00E942B108AE0F82E8FEF0E946F
:104A2000B211FA94D9F716C00E942B04601B710BC7
:104A3000613D774010F081E08CC00E942B0468013A
:104A4000E12CF12C6C157D058E059F0518F40E9454
:104A50002B048B0120E030E0A90160E0CE010E9430
:104A60003224813009F7E12CB2E0FB2E2AEA31E052
:104A700040E050E068E0CE010E943224853011F41D
:104A800081E00CC0A4E0DA2E82E295E00E940812D8
:104A90008B83DA94C9F78A3A19F482E08C831AC0BE
:104AA0000E942B04601B710B613D774010F082E087
:104AB00050C00E942B042801612C712C64157505CF
:104AC0008605970518F40E942B048B0181E0E81AF3
:104AD000F10861F68C81823031F4C12CD12CE12CAB
:104AE000F0E4FF2E1AC0C12CD12C760116C00E9412
:104AF0002B04601B710B613D774010F08AE029C0E8
:104B00000E942B042801612C712C64157505860503
:104B1000970518F40E942B048B0120E030E0A901D6
:104B200067E3CE010E943224A701960169E2CE011B
:104B30000E9432248111DBCF8C81823009F520E084
:104B400030E0A9016AE3CE010E943224882319F0E3
:104B500088E089831BC082E295E00E940812807C75
:104B6000803C11F483E08C8382E295E00E9408127D
:104B700082E295E00E94081282E295E00E9408120B
:104B8000CE010E947923BA8281E004C0CE010E9446
:104B9000792380E0DF91CF911F910F91FF90EF90EB
:104BA000DF90CF90BF907F906F905F904F9008956F
:104BB0000F931F93CF93DF93EC01862F8A010E94FE
:104BC000B21140E052E0B80182E295E00E94C311C8
:104BD0008FEF0E94B2118FEF0E94B21182E295E036
:104BE0000E9408128B838F71853039F083E18983AD
:104BF000CE010E94792380E001C081E0DF91CF9156
:104C00001F910F9108950F931F93CF93DF93EC01A2
:104C100089018C81833039F039E0440F551F661FBC
:104C2000771F3A95D1F79A01AB0168E1CE010E9456
:104C30003224882319F086E089830CC0A8016EEF26
:104C4000CE010E94D825882329F0CE010E94792325
:104C500081E004C0CE010E94792380E0DF91CF91F2
:104C60001F910F910895CF93DF93EC0180E2EAE664
:104C7000F7E0DF01982F1D929A95E9F710926907E6
:104C800010926807E7E4F7E0DF011D928A95E9F7E3
:104C900010924607109245070E94802B81E08E8378
:104CA00084E090E0DF91CF910C94A70481E08093A1
:104CB00044076093670710924607109245070895CE
:104CC0000C9456268091680790916907891B089576
:104CD0009091690780916807981748F4E92FF0E0F0
:104CE000E659F84F80819F5F90936907089580E0AF
:104CF0000895CF93DF93EC010E94CC2B1E82DF91AD
:104D0000CF9108954091230850912408609125087F
:104D1000709126084170FC01408340912308509116
:104D20002408609125087091260876956795579517
:104D30004795417041838091230890912408A09168
:104D40002508B091260884FD49C0809123089091E0
:104D50002408A0912508B091260885FD3FC08091C8
:104D6000230890912408A0912508B091260886FD7B
:104D700035C08091230890912408A0912508B09116
:104D8000260887FD2BC08091230890912408A091CC
:104D90002508B091260890FD21C0809123089091AC
:104DA0002408A0912508B091260891FD17C0809194
:104DB000230890912408A0912508B091260893FD1E
:104DC0000DC0089540E060E080E295E00E948B0F06
:104DD00040E061E080E295E00C948B0F8091430706
:104DE000882381F30895CF93DF93EC01809123080A
:104DF00090912408A0912508B091260884FD58C000
:104E00008091230890912408A0912508B09126084C
:104E100085FD4EC08091230890912408A09125081B
:104E2000B091260886FD44C0809123089091240803
:104E3000A0912508B091260887FD3AC080912308EB
:104E400090912408A0912508B091260890FD30C0CB
:104E500040912308509124086091250870912608FC
:104E600051FD26C0409123085091240860912508E7
:104E70007091260853FD1CC020C041E060E080E234
:104E800095E00E948B0F0CC08981811106C041E022
:104E900060E080E295E00E948B0F888181110DC057
:104EA00041E061E080E295E0DF91CF910C948B0FBF
:104EB000809143078111E8CFE0CFDF91CF91089532
:104EC000CF93DF931F92CDB7DEB7698380914407FC
:104ED000882389F0809145078032D0F4809146077D
:104EE000E82FF0E0E95BF84F60838F5F809346071F
:104EF000809345070DC08CE397E00E94822661E015
:104F0000CE0101960E94AD2B8CE397E00E94F32620
:104F10000F90DF91CF9108950C946027CF938CE38D
:104F200097E00E94822621E04091450767E477E000
:104F3000809167070E94702CC82F1092460710922C
:104F40004507109244078CE397E00E94F3268C2FCC
:104F5000CF910895CF93DF93D62FC42F8CE397E0A2
:104F60000E948226C13208F0C0E24C2F6AE677E048
:104F70008D2F0E94D52CD82F10926907C0936807F7
:104F80008CE397E00E94F3268D2FDF91CF91089557
:104F90000C94AA271092430710923C0710923D07E9
:104FA0008AEF90E0A0E0B0E080933E0790933F0747
:104FB000A0934007B093410708951F920F920FB638
:104FC0000F9211240BB60F922F933F934F935F9341
:104FD0006F937F938F939F93AF93BF93EF93FF93C1
:104FE00080918A0790918B07892B29F0E0918A079D
:104FF000F0918B070995FF91EF91BF91AF919F9130
:105000008F917F916F915F914F913F912F910F9071
:105010000BBE0F900FBE0F901F9018951F920F920E
:105020000FB60F9211240BB60F922F933F934F930D
:105030005F936F937F938F939F93AF93BF93EF9300
:10504000FF9380918C0790918D07892B29F0E09137
:105050008C07F0918D070995FF91EF91BF91AF916A
:105060009F918F917F916F915F914F913F912F9180
:105070000F900BBE0F900FBE0F901F9018951F92B0
:105080000F920FB60F9211240BB60F922F933F93EE
:105090004F935F936F937F938F939F93AF93BF9340
:1050A000EF93FF9380918E0790918F07892B29F0C2
:1050B000E0918E07F0918F070995FF91EF91BF91D5
:1050C000AF919F918F917F916F915F914F913F91A0
:1050D0002F910F900BBE0F900FBE0F901F90189541
:1050E0001F920F920FB60F9211240BB60F922F93AF
:1050F0003F934F935F936F937F938F939F93AF9360
:10510000BF93EF93FF938091900790919107892B24
:1051100029F0E0919007F09191070995FF91EF91A7
:10512000BF91AF919F918F917F916F915F914F91BF
:105130003F912F910F900BBE0F900FBE0F901F90BD
:1051400018951F920F920FB60F9211240BB60F9263
:105150002F933F934F935F936F937F938F939F937F
:10516000AF93BF93EF93FF93809192079091930732
:10517000892B29F0E0919207F09193070995FF910F
:10518000EF91BF91AF919F918F917F916F915F91BF
:105190004F913F912F910F900BBE0F900FBE0F902C
:1051A0001F9018951F920F920FB60F9211240BB6F5
:1051B0000F922F933F934F935F936F937F938F93B0
:1051C0009F93AF93BF93EF93FF9380919407909138
:1051D0009507892B29F0E0919407F091950709959F
:1051E000FF91EF91BF91AF919F918F917F916F91BF
:1051F0005F914F913F912F910F900BBE0F900FBE7B
:105200000F901F9018951F920F920FB60F921124B6
:105210000BB60F922F933F934F935F936F937F93B0
:105220008F939F93AF93BF93EF93FF9380919607D4
:1052300090919707892B29F0E0919607F0919707B5
:105240000995FF91EF91BF91AF919F918F917F91C0
:105250006F915F914F913F912F910F900BBE0F90E7
:105260000FBE0F901F9018951F920F920FB60F92BE
:1052700011240BB60F922F933F934F935F936F932D
:105280007F938F939F93AF93BF93EF93FF938091FF
:10529000980790919907892B29F0E0919807F09150
:1052A00099070995FF91EF91BF91AF919F918F91D0
:1052B0007F916F915F914F913F912F910F900BBE16
:1052C0000F900FBE0F901F901895CF92DF92EF9224
:1052D000FF926B017C01411134C088E00E942405DB
:1052E000C701B60122E030E040E050E00E94E62F26
:1052F000305F414F5F4FCA01B901A70196010E947B
:10530000E62FDA01C9010197A109B109892F9A2F66
:10531000AB2FBB27A7FDBA958093C50021502093E2
:10532000C4008091C10080618093C1008091C10060
:1053300088608093C1008091C10080688093C10023
:1053400033C080E10E942405C701B60122E030E0AD
:1053500040E050E00E94E62F305F414F5F4FCA01AE
:10536000B901A70196010E94E62FDA01C901019750
:10537000A109B109892F9A2FAB2FBB27A7FDBA9599
:105380008093CD0021502093CC008091C900806192
:105390008093C9008091C90088608093C900809182
:1053A000C90080688093C900FF90EF90DF90CF9094
:1053B0000895611107C09091C00095FFFCCF8093C4
:1053C000C60008959091C80095FFFCCF8093CE0051
:1053D000089581110AC08091A0079091A1079E5F56
:1053E00020919E0730919F0709C080919C07909162
:1053F0009D079E5F20919A0730919B07821B930B1C
:1054000060E072E00E94B02F0895811119C0809170
:105410009E0790919F072091A0073091A107281720
:10542000390741F1FC01EB5CF54F2081019660E00A
:1054300072E00E94B02F90939F0780939E0718C040
:1054400080919A0790919B0720919C0730919D072E
:105450002817390779F0FC01EB5CF74F20810196A2
:1054600060E072E00E94B02F90939B0780939A07B0
:1054700030E002C02FEF3FEFC90108951F920F9255
:105480000FB60F9211242F933F934F935F936F9317
:105490007F938F939F93AF93BF93EF93E091C60059
:1054A0002091A0073091A107C901019660E072E048
:1054B0000E94B02F40919E0750919F078417950737
:1054C00041F0D901AB5CB54FEC939093A107809369
:1054D000A007EF91BF91AF919F918F917F916F91B5
:1054E0005F914F913F912F910F900FBE0F901F90A2
:1054F00018951F920F920FB60F9211242F933F937E
:105500004F935F936F937F938F939F93AF93BF93CB
:10551000EF93E091CE0020919C0730919D07C90147
:10552000019660E072E00E94B02F40919A0750917E
:105530009B078417950741F0D901AB5CB74FEC93FB
:1055400090939D0780939C07EF91BF91AF919F919E
:105550008F917F916F915F914F913F912F910F901C
:105560000FBE0F901F9018950C94D929CF93C82F78
:10557000682F8DE00E94D9296C2F8AE0CF910C947E
:10558000D9291F93CF93DF93162FEC0103C0612F0E
:105590000E94D92989918111FACFDF91CF911F9172
:1055A00008954F925F926F927F928F929F92AF92E7
:1055B000BF92CF92DF92EF92FF920F93CF93DF9340
:1055C000CDB7DEB7A0970FB6F894DEBF0FBECDBF44
:1055D00029013A016115710581059105C9F4602F12
:1055E00080E3A0960FB6F894DEBF0FBECDBFDF916B
:1055F000CF910F91FF90EF90DF90CF90BF90AF9041
:105600009F908F907F906F905F904F900C94D929CE
:10561000EE24E394F12CEC0EFD1E812C912C540110
:10562000A30192010E94C42FF70161937F01FFEF54
:105630008F1A9F0AAF0ABF0AB901CA016115710525
:105640008105910569F7CC24CA94DC2C7601C80C3D
:10565000D91CEA1CFB1C14C0E1E0F0E0EC0FFD1FBC
:10566000EC0DFD1D80818A3010F4805D01C0895CE5
:10567000602F0E94D92981E0C81AD108E108F108F9
:10568000EFEFCE16DE06EE06FE0631F7A0960FB659
:10569000F894DEBF0FBECDBFDF91CF910F91FF9089
:1056A000EF90DF90CF90BF90AF909F908F907F90C2
:1056B0006F905F904F900895CF92DF92EF92FF929C
:1056C0000F936B017C01042F97FF0CC0642F8DE2B8
:1056D0000E94D929F094E094D094C094C11CD11CAC
:1056E000E11CF11C2AE030E040E050E0C701B601C7
:1056F0000E94D12A0F91FF90EF90DF90CF900895F4
:105700001092AB07E4E6F0E080818F778083589AAF
:10571000599AE9EBF0E080818E7F808380818D7FD4
:10572000808381E48093B80085E48093BC0080E2AC
:10573000ECEAF7E0DF01982F1D929A95E9F7ECEC7F
:10574000F7E0DF01982F1D929A95E9F7ECEEF7E06C
:10575000DF011D928A95E9F70895613298F420914E
:10576000AB07243089F46093A807FC018CEC97E028
:10577000DC0102C021912D932A2F281B2617D0F37C
:1057800080E0089581E0089582E0089585EC80939B
:10579000BC001092AB070895589859988091B900B1
:1057A00081608093B9008091B90082608093B900D4
:1057B0008091BC0080688093BC008091BC008061B7
:1057C0008093BC008091BC008F7B8093BC00809153
:1057D000BC008F7D8093BC008091BC00877F80934C
:1057E000BC008091230890912408A0912508B091D5
:1057F000260886FD14C08091230890912408A0916A
:105800002508B091260890FD0AC080912308909148
:105810002408A0912508B091260893FF04C0809128
:10582000BC008B7F03C08091BC0084608093BC006F
:105830008091BC008E7F8093BC0080916400806862
:10584000809364000895882349F01092A207109273
:10585000A3071092A4071092A50713C08091A20776
:105860009091A307A091A407B091A5070196A11D4F
:10587000B11D8093A2079093A307A093A407B093B0
:10588000A5078091A2079091A307A091A407B091CA
:10589000A507803A9648A140B10560F01092A20792
:1058A0001092A3071092A4071092A5070E94802BC4
:1058B00081E0089580E0089585ED8093BC0081E04B
:1058C0000E94232C08C080E00E94232C882319F01A
:1058D0001092AB0708958091BC0084FDF4CFF8CFFF
:1058E000FF920F931F93CF93DF93182F062FF72E5E
:1058F000C42FD22F81E0413208F051C00E94232CE6
:1059000015C080E00E94232C882381F082E08093E0
:10591000AB078FEF8093A6071092AA07C0930C08DD
:10592000E02FFF2D6CEA77E0DB0107C08091AB0729
:105930008111E7CFEBCF81918D938A2F861B8C1736
:10594000D0F3812F90E0880F991F80930D0885EE8A
:105950008093BC0081E00E94232CD11105C080916E
:10596000A6078F3F59F414C08091AB078230B9F776
:1059700080E00E94232C81110DC0F6CF8091A607F4
:10598000803251F08091A607803341F483E007C054
:1059900080E005C085E003C082E001C084E0DF91C3
:1059A000CF911F910F91FF9008950F931F93CF9365
:1059B000DF93082FD62F172FC42F81E04132E0F557
:1059C0000E94232C1DC080E00E94232C8823C1F05C
:1059D00081E08093AB078FEF8093A6071092AA0710
:1059E000C0930C08802F90E0880F991F81608093EE
:1059F0000D0885EE8093BC0081E00E94232C10C02E
:105A00008091AB078111DFCFE3CF80E00E94232C90
:105A1000882331F08CEA97E0ED2FF12FDC0107C0ED
:105A20008091AB07813089F3F5CF2D9121932A2FF7
:105A3000281B2C17D0F380E0DF91CF911F910F919D
:105A400008951F920F920FB60F9211240BB60F926A
:105A50002F933F934F935F936F937F938F939F9376
:105A6000AF93BF93CF93EF93FF93C091B900C87FDB
:105A7000C03609F49FC058F5C83209F45BC090F4F1
:105A8000C03109F452C038F4CC2309F4F2C0C83054
:105A900009F0F3C04AC0C83109F44CC0C03209F063
:105AA000ECC05DC0C03409F473C038F4C03309F4ED
:105AB0005BC0C83309F0E1C05AC0C03509F45CC00E
:105AC000C83509F46AC0C83409F0D7C0D4C0C83991
:105AD00009F4C5C0A8F4C83709F46CC038F4C83656
