:100000000C942E020C943B270C946C270C949D2787
:100010000C94CE270C94FF270C9430280C94612864
:100020000C9492280C945D020C945D020C945D0279
:100030000C94F8020C945D020C945D020C94540331
:100040000C945D020C945D020C945D020C945D02B4
:100050000C945D020C945D020C945D020C942F03D1
:100060000C945D020C9447290C945D020C945D0283
:100070000C945D020C945D020C945D020C945D0284
:100080000C945D020C945D020C945D020C945D0274
:100090000C9482290C945D020C945D020C942A2C21
:1000A0000C945D020C945D020C945D020C945D0254
:1000B0000C945D020C945D020C945D020C945D0244
:1000C0000C945D020C945D020C945D022D2D2D2D7F
:1000D0002D2D2D2D2D2D2D2D2D2D2D2D2D2D2D2D50
:1000E0002D2D2D2D2D2D2D2D2D002A2A2A2A2A2A7F
:1000F0002A2A2A2A2A2A2A2A2A2A2A2A2A2A2A2A60
:100100002A2A2A2A2A2A2A000A2D2D2D2D2D2D2D84
:100110002D2D2D2D2D2D2D2D2D2D2D2D2D2D2D2D0F
:100120002D2D2D2D004C697374206F662066696C2F
:100130006520617661696C61626C65206F6E205329
:10014000442073686F77696E672064617465206C02
:10015000617374206D6F64696669656420616E64A3
:100160002066696C652073697A65202862797465F8
:10017000293A002D2D2D2D2D2D2D2D2D2D2D2D2DD3
:100180002D2D2D2D2D2D2D2D2D2D2D2D2D2D0000F9
:10019000000809000000000000000000000000004E
:1001A000000000000000000000000000000000004F
:1001B000000000000000000000000000000000003F
:1001C00000000102081010204080040810204002A6
:1001D0000204081020408001028020400420010118
:1001E00002040810200140804080010208040880B9
:1001F00004100402010505050503030303010101C1
:1002000004040306060606060606060104050105A3
:1002100001030202020202020102020505040403B4
:10022000040401030407070700202326292C2F328A
:10023000002225282B2E3134002124272A2D30336B
:1002400068027C02A202C902E90201030F031F0334
:1002500034034A035B0367036E038B03A903BF03E5
:10026000CD03DD0300040604416C61726D204D6F07
:100270006465206D61746368657320005B44617917
:10028000203A20686F757273203A206D696E75741C
:100290006573203A207365636F6E64735D202D3E35
:1002A00020005B44617465203A20686F757273208A
:1002B0003A206D696E75746573203A207365636FBB
:1002C0006E64735D202D3E20005B486F7572732055
:1002D0003A206D696E75746573203A207365636F9B
:1002E0006E64735D202D3E20005B4D696E757465F4
:1002F00073203A207365636F6E64735D202D3E201A
:10030000005B5365636F6E64735D202D3E20004F6C
:100310006E636520706572207365636F6E6400495B
:100320006E636F727265637420616C61726D206DB3
:100330006F6465005B253032753A253032753A2599
:100340003032753A253032755D005B253032753AB2
:10035000253032753A253032755D005B25303275B7
:100360003A253032755D005B253032755D005B44A7
:100370006179203A20686F757273203A206D696E3A
:1003800075746573205D202D3E20005B44617465AB
:10039000203A20686F757273203A206D696E75740B
:1003A0006573205D202D3E20005B486F75727320C1
:1003B0003A206D696E757465735D202D3E20005B7B
:1003C0004D696E757465735D202D3E20004F6E6320
:1003D0006520706572206D696E7574650025732CDB
:1003E00020253032752F253032752F253032752C6F
:1003F00020253032753A253032753A253032750075
:100400006572726F72002530327525632530327542
:1004100025632530327525632530327525632530F7
:100420003275256325303275256325303275007CA1
:100430003C3E5E2B3D3F2F5B5D3B2C2A225C0049FE
:100440006E76616C69642066696C656E616D6500CD
:10045000F109C10E5211061328275A2D11241FBE6F
:10046000CFEFD1E2DEBFCDBF12E0A0E0B2E0E4E525
:10047000F4E600E00BBF02C007900D92A03FB10769
:10048000D9F71CE0A0EFB2E001C01D92A935B10779
:10049000E1F714E0CCE5D4E000E006C022970109C2
:1004A000FE010BBF0E94652EC035D10780E0080712
:1004B000A9F70E943E050C9428320C9400008CE4AD
:1004C00095E00E945F1165E172E08CE495E00E9486
:1004D000E2126CE072E08CE495E00E94FE1185EF80
:1004E00092E00E94DD0668EE73E080E090E00C94FC
:1004F000CB03CF92DF92EF92FF920F931F936CE0AA
:1005000072E085EF92E00E94FE078130E1F56CE039
:1005100072E085EF92E00E9452096B017C016FE16D
:1005200072E08CE495E00E94E21260910A02709100
:100530000B028CE495E00E94CA126EE272E08CE439
:1005400095E00E94E21200910A0210910B02C01A7B
:10055000D10A9601442737FD4095542F6CE072E094
:1005600085EF92E00E942B0868E273E08CE495E04E
:100570000E94FE116CEC70E08CE495E00E94211268
:100580006AEE70E025C066E372E08CE495E00E94BC
:10059000E2126CE072E08CE495E00E94E2126FE3FC
:1005A00072E08CE495E00E94FE1168E071E08CE45A
:1005B00095E00E94211265E271E08CE495E00E94D2
:1005C000211267E085EF92E00E94110763E771E076
:1005D0008CE495E00E94211260E177E280E090E0F7
:1005E0001F910F91FF90EF90DF90CF900C94CB0371
:1005F0001F920F920FB60F9211240BB60F922F93EA
:100600003F934F935F936F937F938F939F93AF939A
:10061000BF93EF93FF93F89481E080931402E0E698
:10062000F0E080818068808380818F7B808360E0C0
:1006300083E00E94B2047894FF91EF91BF91AF9153
:100640009F918F917F916F915F914F913F912F91EA
:100650000F900BBE0F900FBE0F901F9018951F921A
:100660000F920FB60F9211248F939F93AF93BF9366
:1006700080913F0890914008A0914108B0914208B4
:100680000196A11DB11D80933F0890934008A0934F
:100690004108B0934208BF91AF919F918F910F9005
:1006A0000FBE0F901F9018951F920F920FB60F92CA
:1006B00011248F939F93AF93BF93809143089091A0
:1006C0004408A0914508B09146080196A11DB11DAE
:1006D0008093430890934408A0934508B09346083C
:1006E000BF91AF919F918F910F900FBE0F901F9070
:1006F00018958F929F92AF92BF92CF92DF92EF9216
:10070000FF920F931F93CF93DF932FB7F8948091AD
:100710003F0890914008A0914108B09142082FBF36
:100720009C01AD0160E070E080E090E001E00E949B
:100730004D2E4901D42FC52FB62FA72FF82FE92F03
:1007400002E00E944D2E59016A017B018C01940147
:100750004D2F5C2F6B2F7A2F8F2F9E2F0E945C2E98
:10076000E9E0AE2EB12CC12CD12CE12CF12C00E013
:1007700010E00E94F02D952FB901842FDF91CF91C9
:100780001F910F91FF90EF90DF90CF90BF90AF90AF
:100790009F908F9008958F929F92AF92BF92CF9229
:1007A000DF92EF92FF924B015C0107C00E94790338
:1007B0006C157D058E059F0520F40E9479036B0161
:1007C0007C010E9479036C197D098E099F096815C7
:1007D00079058A059B0550F3FF90EF90DF90CF904D
:1007E000BF90AF909F908F900895019761F001970F
:1007F00051F0880F991F880F991F02972FB7F8940F
:100800000197F1F72FBF0895789484B7877F84BF4D
:1008100010923F081092400810924108109242082E
:1008200084B5826084BD84B5816084BD85B58260F5
:1008300085BD85B5816085BDEEE6F0E08081816093
:100840008083E1E8F0E08081826080838081816044
:100850008083E0E8F0E0808181608083E1EBF0E07C
:10086000808184608083E1E9F0E08081846080831E
:10087000E0EBF0E0808181608083E0E9F0E080815E
:1008800081608083E4E6F0E080818E7F8083ECE706
:10089000F0E080818F778083808180648083EAE7C5
:1008A000F0E08081846080838081826080838081A9
:1008B000806880831092C1001092C90008959091C1
:1008C000F002982B9093F00280FF32C08091640078
:1008D0008E7F8093640080917C008F7780937C0072
:1008E00080917C00806480937C0080917A00846099
:1008F00080937A0080917A00826080937A00809160
:100900007A00806880937A00809164008F7780936A
:100910006400809164008B7F809364008091640008
:100920008D7F80936400809165008E7F8093650049
:10093000089590E0FC01EE53FE4F2491FC01EB5032
:10094000FE4FE491EE2369F0F0E0E85CFD4FA491E6
:10095000B0E08C91611103C02095822301C0822BED
:100960008C93089590E0FC01E157FE4F2491FC0127
:10097000EE53FE4F3491FC01EB50FE4F84918823DF
:10098000B1F1222331F1233021F4909180009F773F
:1009900005C0243031F4909180009F7D90938000B9
:1009A00018C0213019F494B59F7704C0223021F487
:1009B00094B59F7D94BD0DC0263021F49091B00078
:1009C0009F7705C0273029F49091B0009F7D9093C8
:1009D000B000E82FF0E0E05DFD4FA491B0E08C9115
:1009E000611103C03095832301C0832B8C9308953C
:1009F00090E0FC01E157FE4F2491FC01EE53FE4FC5
:100A00003491FC01EB50FE4F8491882399F122230D
:100A100031F1233021F4909180009F7705C024307C
:100A200031F4909180009F7D9093800018C0213018
:100A300019F494B59F7704C0223021F494B59F7DBA
:100A400094BD0DC0263021F49091B0009F7705C071
:100A5000273029F49091B0009F7D9093B000E82F4B
:100A6000F0E0E85DFD4FE491F0E08081832321E038
:100A700030E011F420E030E0C90108950E94040440
:100A800081E595E00E946514853440F061E081E3E2
:100A90000E94990461E081E30E94B20461E070E089
:100AA00081E595E00E9441138130B1F480914708BF
:100AB00090914808A0914908B0914A0890688093A5
:100AC000470890934808A0934908B0934A0860E00B
:100AD00081E090E00E946A3187E20E94F804892B4D
:100AE00059F160E070E081E595E00E9441138A30A1
:100AF00019F5C1C06CE3629FA001639F500D1124E2
:100B0000840F951F0EC02115310559F06CE3629FCB
:100B1000A001639F500D11249A01205F314F820F75
:100B2000931F039748F4809156089091570880626C
:100B3000909357088093560881EB94E00E94A60E8C
:100B400081EB94E00E94670E81EB94E00E94760EA8
:100B500081EB94E00E942E0A63E070E080E090E078
:100B60000E94CB038091470890914808A0914908C2
:100B7000B0914A08A1FF5EC063E070E080E090E0C1
:100B80000E94CB0361E086E10E94990463E070E07B
:100B900080E090E00E94CB0361E086E10E94B20415
:100BA00063E070E080E090E00E94CB030E94350F8C
:100BB00063E070E080E090E00E94CB0381E00E945F
:100BC000580F63E070E080E090E00E94CB0384E087
:100BD0000E94660F63E070E080E090E00E94CB032B
:100BE00080E00E94610F63E070E080E090E00E948E
:100BF000CB030E94540F63E070E080E090E00E941D
:100C0000CB0366E086E495E00E94710F63E070E03C
:100C100080E090E00E94CB0361E086E10E949904AD
:100C200060E086E10E94B20463E070E080E090E062
:100C30000E94CB0363E070E080E090E00E94CB0371
:100C400081E595E00E943F146093F1027093F202F7
:100C50008093F3029093F4028091F1029091F2025A
:100C6000A091F302B091F4020E94BD2E0E945F0297
:100C70000E947902FDCF81EB94E00E94A60E81EBE9
:100C800094E00E94F80C81EB94E00E94ED0C8091BE
:100C9000CA0490E02091CC04821B91092091C904E0
:100CA00030E04091CD04241B3109121613060CF4D8
:100CB00021CF29CF61E08BE10E94B2046AE070E0AD
:100CC00080E090E00C94CB03FC01128A118E138E0D
:100CD000DC01A356BE4F89E111968C9311971496AF
:100CE0001C92DF01AE55BE4F1C9212961C92E95623
:100CF000FE4F1182108208958CE10E94F80421E0D9
:100D0000892B09F420E0822F0895EF92FF920F9330
:100D10001F93CF93DF93EC010E947C06811105C0E5
:100D2000C956DE4F81E090E00EC08E0103561E4F83
:100D300042E06DE1C8010E944524811108C0C956F6
:100D4000DE4F82E090E09983888380E02FC07E01AF
:100D500041E0B801CE010E94A418811108C040E012
:100D6000B801CE010E94A418811101C0E8CF8E0104
:100D7000075E1F4FB701C8010E94791D9E012956C9
:100D80003E4F811106C088E090E0F9019183808395
:100D9000DCCFDE01AE55BE4F8AE1F80101900D9225
:100DA0008A95E1F7F9011182108281E0DF91CF91FC
:100DB0001F910F91FF90EF900895CF93DF93EC0177
:100DC00061E08DE10E94990460E08DE10E94B2042F
:100DD00040914708509148086091490870914A082D
:100DE00061604093470850934808609349087093A6
:100DF0004A0864E670E080E090E00E94CB0361E086
:100E00008BE10E94990460E08CE10E94990481E0EA
:100E1000809347050E945A06CE01DF91CF910C9432
:100E2000850640E08E559E4F0C9470224F925F9243
:100E30006F927F928F929F92AF92BF92CF92DF92EA
:100E4000EF92FF920F931F93CF93DF93CDB7DEB74F
:100E5000C154D1090FB6F894DEBF0FBECDBF5C01FF
:100E60004A012901FB01EE55FE4F8AE1DE015B9646
:100E700001900D928A95E1F719821B828A01EE2476
:100E8000E394F12CEC0EFD1E6E018BE1C80ED11C1B
:100E900035C0F80120812F3219F40F5F1F4F2EC08B
:100EA000801B8D3008F08CE0682E712CA301B801F6
:100EB000CE01C5960E940B2FE5E3F0E0EC0FFD1F7D
:100EC000E60DF71D1082C7010E940F1E21E0AE0142
:100ED0004B5C5F4FB601C7010E948F20811104C097
:100EE000F501108212821DC0060D171DC6010E9459
:100EF0000F1E9C2D8D2D6701E92EF82E6FE270E0FC
:100F0000C8010E94F02E009721F608191909F20174
:100F1000118300838AE1F601D50101900D928A9533
:100F2000E1F7C501CF5BDF4F0FB6F894DEBF0FBE10
:100F3000CDBFDF91CF911F910F91FF90EF90DF9088
:100F4000CF90BF90AF909F908F907F906F905F9069
:100F50004F900895BF92CF92DF92EF92FF920F933E
:100F60001F93CF93DF93CDB7DEB76C970FB6F8948E
:100F7000DEBF0FBECDBF7C016B018A01B22E9E0188
:100F8000255E3F4FAB01BC01CE0101960E941607C2
:100F90004B8D5C8D4C0D5D1DFA018081811102C06D
:100FA00080E01CC08B818823D9F38250823040F4CA
:100FB000B701675E7F4F2B2DC8010E948F200EC0A6
:100FC0002B2DBE016F5F7F4FC8010E948F208823A9
:100FD00039F3CE0101960E940F1E81E06C960FB688
:100FE000F894DEBF0FBECDBFDF91CF911F910F915F
:100FF000FF90EF90DF90CF90BF900895CF93DF9355
:10100000CDB7DEB76A970FB6F894DEBF0FBECDBF7F
:1010100019821B8221E0AE014F5F5F4F0E94AA0739
:10102000882379F08B81813031F0CE0101960E94C6
:101030000F1E80E007C0CE0101960E940F1E81E0C6
:1010400001C08FEF6A960FB6F894DEBF0FBECDBF1A
:10105000DF91CF9108954F925F926F927F928F921E
:101060009F92AF92BF92CF92DF92EF92FF920F9337
:101070001F93CF93DF93CDB7DEB76B970FB6F8947E
:10108000DEBF0FBECDBF5C01962E872E29013A012F
:1010900019821B820E947C06F7E9EF2EFF24F3944D
:1010A000EA0CFB1C81110EC081E290E0F7019183F4
:1010B0008083F3E3AF0EB11C6CE472E0C5010E94C3
:1010C000042FD8C00115110529F0013021E01207C5
:1010D00008F402C000E011E0F701808191818F7C6B
:1010E0009183808321E0CC24C394D12CCC0EDD1ECF
:1010F000A601692D782DC5010E94AA0781111CC087
:10110000F3E3AF0EB11C8F929F9282E592E09F9322
:101110008F9381E08F931F92BF92AF920E941A2FFC
:10112000F701808191818062918380830FB6F8946A
:10113000DEBF0FBECDBF9EC07E019BE1E90EF11C5C
:1011400041E050E0B701C6010E94C21A41145104A7
:101150006104710409F5C12CD12C760146C091912E
:101160009A3029F421E0421A5108610871084114AB
:1011700051046104710489F09E2E9E18981678F32C
:10118000411451046104710441F041E050E0B701A1
:10119000C6010E94C21A01C0912C811107C08FEFB5
:1011A000981659F0C12CD12C760116C04114510467
:1011B00061047104A1F3F701DFCF8B8DF50183ABDF
:1011C0008A3011F401501109C12CD12C7601C3943D
:1011D00003C00150110949F041E050E0BE01655ED5
:1011E0007F4FCE0101960E94C21A8823B9F00115E3
:1011F0001105A1F0FFEFCF16D104E104F10409F0CD
:10120000C0F49B8DF501EC0DFD1D93AB2FEFC21AC1
:10121000D20AE20AF20A9A30F9F6DBCF8FEFC8164B
:10122000D104E104F10428F4F501EC0DFD1D13AA2D
:101230001AC0F501E15DFE4F8EE38083F501E05DAC
:10124000FE4F8083F501EF5CFE4F8AE08083F5015D
:10125000EE5CFE4F1082F501E956FE4F80819181D0
:10126000806191838083CE0101960E940F1E93E3DB
:10127000A90EB11CC5016B960FB6F894DEBF0FBE68
:10128000CDBFDF91CF911F910F91FF90EF90DF9035
:10129000CF90BF90AF909F908F907F906F905F9016
:1012A0004F9008959F92AF92BF92CF92DF92EF92AC
:1012B000FF920F931F93CF93DF93CDB7DEB7A49721
:1012C0000FB6F894DEBF0FBECDBF7C01D62EC72E61
:1012D00019821B820E947C06870109561E4F8111CC
:1012E0000FC081E290E0F801918380836CE472E0AA
:1012F000C701C3960E94042F0FEF1FEF98015DC036
:10130000F801808191818F7D9183808321E0AA24DF
:10131000A394B12CAC0EBD1EA5016D2D7C2DC70173
:101320000E94AA0781111FC0CF92DF9289E792E045
:101330009F938F9381E08F931F92F3E3EF0EF11C45
:10134000FF92EF920E941A2FF801808191818062B2
:10135000918380830FB6F894DEBF0FBECDBF00E04F
:1013600010E098012AC08E01055E1F4F4AE050E050
:10137000B801C5010E94C21AC12CD12C7601902E51
:1013800012C091919A3029F49FEFC91AD90AE90A3B
:10139000F90A9E2F99199817A0F34AE050E0B80176
:1013A000C5010E94C21A882311F0F801F2CFCE01C4
:1013B00001960E940F1E97018601B801C901A496EB
:1013C0000FB6F894DEBF0FBECDBFDF91CF911F9156
:1013D0000F91FF90EF90DF90CF90BF90AF909F90D4
:1013E000089585EF92E00C94640680916607882347
:1013F00041F080913A08811104C084E495E00C9496
:10140000290F08950F931F93CF93DF93EC01042FBF
:1014100068A761E080E30E94990418A5112379F080
:10142000113091F461E080E30E94B204013019F4BC
:1014300082E08B8B09C0011107C01B8B05C060E0E7
:1014400080E30E94B2041B8A6AE070E080E090E0D2
:10145000DF91CF911F910F910C94CB03CF93DF932A
:10146000EC010E94F50940E060E0CE01DF91CF91F0
:101470000C94020AFC01148A158A168A178A108EA7
:10148000118E128E138E148E158E168E178E10A23C
:1014900011A212A213A214A215A216A217A20895B5
:1014A000EF92FF920F931F93CF93DF93CDB7DEB7E9
:1014B000EC970FB6F894DEBF0FBECDBF8C01E2E60D
:1014C000F2E085919491BC01EE24E394F12CEC0EB2
:1014D000FD1EC7010E94C82EE4E6F2E085919491BA
:1014E000BC01CE0189960E94C82EF80186898430FD
:1014F00009F466C040F4823029F108F04BC0813015
:1015000009F0B6C009C0863009F486C008F46EC080
:10151000873009F0ADC096C0F801818D1F928F937E
:10152000808D1F928F9387891F928F93828D1F9238
:101530008F9385891F928F9384891F928F9387EB56
:1015400092E015C0F801818D1F928F93808D1F92BC
:101550008F9387891F928F93828D1F928F93858996
:101560001F928F9384891F928F938BEB92E09F93AE
:101570008F93FF92EF921F9284E68F93C801899612
:101580009F938F930E941A2F0FB6F894DEBF0FBE61
:10159000CDBF81C0F801818D1F928F93808D1F92E6
:1015A0008F9387891F928F93828D1F928F93858946
:1015B0001F928F9384891F928F938FEB92E0D7CFE6
:1015C000F801818D1F928F93808D1F928F93878951
:1015D0001F928F93828D1F928F9385891F928F9375
:1015E00084891F928F9383EC92E0C1CFF801818DA3
:1015F0001F928F93808D1F928F9387891F928F9355
:10160000828D1F928F9385891F928F9384891F9259
:101610008F9387EC92E0ABCFF801818D1F928F936F
:10162000808D1F928F9387891F928F93828D1F9237
:101630008F9385891F928F9384891F928F938BEC50
:1016400092E095CFF801818D1F928F93808D1F922C
:101650008F9387891F928F93828D1F928F93858995
:101660001F928F9384891F928F938FEC92E07FCF8C
:10167000CE0189969F938F931F9284E68F93C80122
:1016800089969F938F930E941A2F0F900F900F901F
:101690000F900F900F90075D1F4FC801EC960FB68B
:1016A000F894DEBF0FBECDBFDF91CF911F910F9198
:1016B000FF90EF900895CF92DF92EF92FF920F93F9
:1016C0001F93CF93DF938C01C62E80916607811103
:1016D00004C080E697E00E94912568E670E080E60D
:1016E00097E00E94BE2560E070E080E697E00E94EF
:1016F000EA2680E697E00E94EC2643E150E068E6A7
:1017000070E080E697E00E942627E12CF12CC0E0F3
:10171000D0E0D12CE4C080E697E00E94C625F80115
:10172000EC0FFD1F8083C630D10509F467C098F423
:10173000C230D10509F43EC038F4209729F1C130F8
:10174000D10509F0C7C02BC0C430D10509F440C091
:1017500008F049C03AC0CA30D10509F484C048F441
:10176000282F30E0C830D10509F461C008F06DC001
:1017700050C0CC30D10509F492C008F482C0CD30FD
:10178000D10509F0A7C099C0982F92959F708F70CE
:101790002AE0929F800D1124F801818F9BC0982F21
:1017A00092959F708F70FAE09F9F800D1124F80131
:1017B000808F90C0982F92959F708F70FAE09F9FB6
:1017C000800D1124F801878B85C0F801868B82C0BB
:1017D000982F92959F708F70FAE09F9F800D112433
:1017E000F801828F77C0982F92959F708F70FAE0E2
:1017F0009F9F800D1124F801858B6CC0982F9295C6
:101800009F708F70FAE09F9F800D1124F801848BE8
:1018100061C054E0359527955A95E1F727708F7090
:10182000FAE02F9F800D1124F801838F53C044E00C
:10183000359527954A95E1F727708F70FAE02F9F2D
:10184000800D1124F801848F45C094E035952795CB
:101850009A95E1F723708F70FAE02F9F800D112485
:10186000F801858F37C0282F269526952695267056
:10187000922F990F990F920F8F70980FF801968FF2
:1018800029C0282F2695269526952E70922F990FE0
:10189000990F920F8F70980FF801978F1BC0282F08
:1018A0002695269526952670922F990F990F920FBF
:1018B0008F70980FF80190A30DC0282F26952695BC
:1018C00026952670922F990F990F920F8F70980F6F
:1018D000F80191A3219603C0FFEFEF1AFF0ACC167F
:1018E000DD0658F02AE0E216F10438F480E697E0CD
:1018F0000E94C025882381F30ECFDF91CF911F91E5
:101900000F91FF90EF90DF90CF9008951F93CF93AA
:10191000DF93EC01162F80916607811104C080E6E9
:1019200097E00E94912568E670E080E697E00E94CB
:10193000BE25612F80E697E00E94BE26C10FD11D13
:10194000688180E697E00E94BE2680E697E0DF91FE
:10195000CF911F910C94EC26FF920F931F93CF937E
:10196000DF938C01F62E80916607811104C080E61A
:1019700097E00E94912568E670E080E697E00E947B
:10198000BE256F2D80E697E00E94BE2680E697E098
:101990000E94EC2641E050E068E670E080E697E0C7
:1019A0000E942627CBE0D0E080E697E00E94C02589
:1019B000811102C02197C1F780E697E00E94C625F9
:1019C000F801EF0DF11D808380E697E0DF91CF9164
:1019D0001F910F91FF900C94EC26CF93DF93EC01B5
:1019E00066E00E945B0BCE01DF91CF910C94500A10
:1019F000CF92DF92EF92FF920F931F93CF93DF93DB
:101A0000CDB7DEB7C857D1090FB6F894DEBF0FBE09
:101A1000CDBF7C016AE00E945B0B8701075D1F4F11
:101A200084E6F80111928A95E9F7E0E4F2E0859105
:101A30009491BC01CE018F5A9F4F0E94C82EBE01C7
:101A40006F5A7F4FC8010E94E52EF70182A18230B4
:101A500009F46AC030F4882369F0813009F00BC1C1
:101A600022C0843009F4C7C008F493C0853009F05F
:101A700002C1F0C0E2E4F2E085919491BC01CE0194
:101A80008F5A9F4F0E94C82EBE016F5A7F4FC801C8
:101A90000E94E52EE0E5F2E0859194916E01F9E275
:101AA000CF0ED11C18C0E4E4F2E085919491BC0102
:101AB000CE018F5A9F4F0E94C82EBE016F5A7F4F92
:101AC000C8010E94E52EE0E5F2E0859194916E0157
:101AD000E9E2CE0ED11CBC01C6010E94C82EF7015E
:101AE000838D1F928F93848D1F928F93858D1F926C
:101AF0008F93868D1F928F93DF92CF921F9288E2F1
:101B00008F93EE24E394F12CEC0EFD1EFF92EF92E6
:101B10000E941A2FB701C8010E94E52E0FB6F89453
:101B2000DEBF0FBECDBFC2C0E6E4F2E08591949166
:101B3000BC01CE018F5A9F4F0E94C82EBE016F5A22
:101B40007F4FC8010E94E52EE2E5F2E08591949175
:101B50006E01E9E2CE0ED11CBC01C6010E94C82E66
:101B6000F701838D1F928F93848D1F928F93858DA4
:101B70001F928F93DF92CF921F9288E28F93EE2471
:101B8000E394F12CEC0EFD1EFF92EF920E941A2FAF
:101B9000C1CFE8E4F2E085919491BC01CE018F5A67
:101BA0009F4F0E94C82EBE016F5A7F4FC8010E94EE
:101BB000E52EE4E5F2E0859194916E01E9E2CE0E26
:101BC000D11CBC01C6010E94C82EF701838D1F9253
:101BD0008F93848D1F928F93DF92CF921F9288E212
:101BE0008F93EE24E394F12CEC0EFD1EFF92EF9206
:101BF0000E941A2F8FCFEAE4F2E085919491BC0104
:101C0000CE018F5A9F4F0E94C82EBE016F5A7F4F40
:101C1000C8010E94E52EE6E5F2E0859194916E01FF
:101C2000E9E2CE0ED11CBC01C6010E94C82EF7010C
:101C3000838D1F928F93DF92CF921F9288E28F93B2
:101C4000EE24E394F12CEC0EFD1EFF92EF920E9425
:101C50001A2F60CFECE4F2E085919491BC01CE01A3
:101C60008F5A9F4F0E94C82EBE016F5A7F4FC801E6
:101C70000E94E52E1BC0EEE4F2E0859194917E0176
:101C8000E1E5EE0EF11CBC01C7010E94C82EFF92D7
:101C9000EF921F9284E68F931F930F930E941A2F47
:101CA0000F900F900F900F900F900F90C801C85891
:101CB000DF4F0FB6F894DEBF0FBECDBFDF91CF91DF
:101CC0001F910F91FF90EF90DF90CF900895CF93E9
:101CD000DF93EC016EE00E94AC0C8E858E7F8E87C8
:101CE0006EE0CE01DF91CF910C94860CCF93DF9301
:101CF000EC016EE00E94AC0C8E858D7F8E876EE0CD
:101D0000CE01DF91CF910C94860CCF93DF93EC0141
:101D10006FE00E94AC0C8F858370DF91CF910895A6
:101D2000CF93DF93EC010E94850E882319F0CE56E5
:101D3000DF4F88838091C0048C7F8093C0046FE064
:101D400081EB94E0DF91CF910C94860CCF93DF93DD
:101D5000EC0140E061E00E94020ACE010E94900E78
:101D6000CE010E943A0A6DE0CE010E945B0B61E059
:101D70008BE20E94990460E08BE2DF91CF910C949A
:101D8000B204109242051092C40408951F93CF9399
:101D9000DF931F92CDB7DEB7162F61E08AE149834A
:101DA0000E94990461E088E10E949904498111230D
:101DB00021F0113009F048C020C041110EC061E08F
:101DC0008AE10E94B2048091470890914808A0914E
:101DD0004908B0914A0882602FC04130A9F560E0FF
:101DE0008AE10E94B2048091470890914808A0912E
:101DF0004908B0914A088D7F1FC041110EC061E0B3
:101E000088E10E94B2048091470890914808A0910F
:101E10004908B0914A0881600FC04130A9F460E0E0
:101E200088E10E94B2048091470890914808A091EF
:101E30004908B0914A088E7F8093470890934808DC
:101E4000A0934908B0934A080F90DF91CF911F915A
:101E5000089561E089E20E94990461E088E20E94AD
:101E6000990480E697E00C94D72561E08EE10E940A
:101E7000990461E08FE10E94990461E08DE10E9484
:101E8000990460E08EE10E94B20460E08FE10E945C
:101E9000B20461E08DE10E94B2048CB580618CBD1A
:101EA0008CB580648CBD08958CB58F7B8CBD0895F6
:101EB000811103C08CB5806202C08CB58F7D8CBD52
:101EC00008959CB5937F982B9CBD08952CB5982FB1
:101ED00093702C7F922B9CBD9DB580FB90F99DBD8E
:101EE0000895CF93C62F61E08DE10E94990461E0CF
:101EF00082E20E94990461E08DE10E94B20461E0F7
:101F000082E20E94B2048091470890914808A09113
:101F10004908B0914A08A2FF08C061E088E00E9429
:101F2000990461E088E00E94B20480914708909192
:101F30004808A0914908B0914A0896FF08C061E09E
:101F400089E00E94990461E089E00E94B2048091D6
:101F5000470890914808A0914908B0914A08A3FF0A
:101F600008C061E082E00E94990461E082E00E9482
:101F7000B2048091470890914808A0914908B09117
:101F80004A08A4FF08C061E082E20E94990461E06F
:101F900082E20E94B204C330C9F020F4C13061F083
:101FA00070F407C0C53061F1F0F0C63009F067C0C9
:101FB00033C060E08DE160C060E082E25DC081E539
:101FC00095E00E94291360E08CE256C0809147089A
:101FD00090914808A0914908B0914A08A2FF4FC0CB
:101FE00060E088E049C08091470890914808A0913E
:101FF0004908B0914A0896FF42C060E089E03CC0C1
:102000008091470890914808A0914908B0914A08EA
:10201000A3FF35C060E02FC061E08DE10E94B204F3
:1020200061E082E20E94B2048091470890914808E2
:10203000A0914908B0914A08A2FF04C061E088E07D
:102040000E94B2048091470890914808A0914908E5
:10205000B0914A0896FF04C061E089E00E94B20492
:102060008091470890914808A0914908B0914A088A
:10207000A3FF05C061E082E0CF910C94B204CF9140
:1020800008958091470890914808A0914908B0911F
:102090004A08A2FF0EC08091470890914808A0917D
:1020A0004908B0914A0881FF04C0809148058823FF
:1020B000C1F18091470890914808A0914908B091DA
:1020C0004A08A1FF0CC080914605811108C061E05B
:1020D00086E10E94990461E086E10E94B204809149
:1020E0004705811108C061E08BE10E94990461E01D
:1020F0008BE10E94B2048091470890914808A0911A
:102100004908B0914A08A4FF11C080914B05811184
:102110000DC061E086E10E94990461E086E10C94C3
:10212000B20461E082E00E94B204C3CF08958091BE
:10213000470890914808A0914908B0914A08A2FF29
:102140000EC08091470890914808A0914908B0912D
:102150004A0881FF04C0809148058823C1F180911D
:10216000470890914808A0914908B0914A08A1FFFA
:102170000CC080914605811108C061E086E10E9493
:10218000990460E086E10E94B204809147058111C4
:1021900008C061E08BE10E94990460E08BE10E943D
:1021A000B2048091470890914808A0914908B091E5
:1021B0004A08A4FF11C080914B0581110DC061E058
:1021C00086E10E94990460E086E10C94B20460E02C
:1021D00082E00E94B204C3CF0895CF93C82F86E453
:1021E00095E00E944110CEBD0DB407FEFDCF86E400
:1021F00095E00E9497108EB5CF9108950F931F938D
:10220000CF93DF938A01EB01060F171F03C089915B
:102210000E94ED10C017D107D1F7DF91CF911F9128
:102220000F9108950F931F93CF93DF93EB01411507
:10223000510519F18A010150110986E495E00E94C7
:1022400041108FEF8EBDFE012FEF06C00DB407FECB
:10225000FDCF8EB52EBD8193CF018C1B9D0B8017BA
:102260009107A0F30DB407FEFDCF8EB5C00FD11FAF
:10227000888386E495E00E94971080E0DF91CF91FB
:102280001F910F91089586E495E00E9441108FEF11
:102290008EBD0DB407FEFDCF86E495E00E94971039
:1022A0008EB5089510924705109246051092480584
:1022B0001092490510924A0510924B050895FC01B1
:1022C000408160E072EC81E090E00E94C32861E010
:1022D00087E10E94990461E087E10E94B20461E015
:1022E0008BE00E94990460E08BE00E94B20461E000
:1022F0008DE20E94990460E08DE20C94B204DC014E
:102300008091C50011968C9311978091C40012960C
:102310008C931297E2ECF0E0808113968C931397E4
:102320008091CA0014968C93149780818F7D80834E
:1023300080818F7E80838081877F80834C9160E065
:1023400072EC81E090E00E94C32861E087E10E9486
:10235000B20460E08BE00C94B204CF93DF93EC0105
:1023600040914708509148086091490870914A0887
:1023700063E070E080E090E042FF07C00E94CB0382
:1023800061E08BE00E94B20402C00E94CB0389810D
:102390008093C5008A818093C4008B818093C200A2
:1023A0008C818093CA00DF91CF910895EF92FF92C4
:1023B0000F931F93CF93DF938C01EB010E947F114A
:1023C0007E0188E1E81A8CEFF80AFE0121968491DB
:1023D000882339F0F80160810E94BD29CE15DF0500
:1023E000A1F7C8010E94AD1160E070E0CB01DF9160
:1023F000CF911F910F91FF90EF9008950F931F932E
:10240000CF93DF93EC018B010E947F116881C8019B
:102410000E94CA2988810E94BF29CE01DF91CF91F5
:102420001F910F910C94AD11CF93DF93EC010E949B
:102430007F1188810E94BF29CE01DF91CF910C943A
:10244000AD11EF92FF920F931F93CF93DF9300D0C4
:10245000CDB7DEB77C010E94D6118C01C70169831C
:102460007A830E94141269817A81C8010F900F90BB
:10247000DF91CF911F910F91FF90EF900895AF9250
:10248000BF92DF92EF92FF920F931F93CF93DF9350
:10249000EC01142FD52E7B0159010E947F11A1144C
:1024A000B10429F46881812F0E94BD2916C08AE0F9
:1024B000A816B10439F44881612F7D2DC7010E940F
:1024C000652A0BC09501442737FD4095542F08819C
:1024D000612F7D2DC7010E94DA29CE01DF91CF91B6
:1024E0001F910F91FF90EF90DF90BF90AF900C94F1
:1024F000AD11CF92DF92EF92FF920F93CF93DF93C4
:10250000EC016A017B010E947F1108812AE030E022
:1025100040E050E0C701B6010E94DA29CE01DF9108
:10252000CF910F91FF90EF90DF90CF900C94AD1171
:10253000AB0160E070E00C947912CF92DF92EF92E1
:10254000FF920F93CF93DF93EC016A017B010E940E
:102550007F11F7FE0CC068818DE20E94BD29F094C6
:10256000E094D094C094C11CD11CE11CF11C0881E2
:102570002AE030E040E050E0C701B6010E94DA29CD
:10258000CE01DF91CF910F91FF90EF90DF90CF9030
:102590000C94AD11AB01662757FD6095762F0C9416
:1025A0009D121F93CF93DF93EC01162F0E947F1192
:1025B0006881812F0E94BD29CE01DF91CF911F91AB
:1025C0000C94AD110F931F93CF93DF93EC018B010C
:1025D0000E947F116881C8010E94CA29CE01DF9143
:1025E000CF911F910F910C94AD111F93CF93DF9357
:1025F000EC01162F0E947F116881812F0E94BD2956
:10260000CE01DF91CF911F910C94AD1110924C052A
:1026100008951F93CF93DF931F92CDB7DEB7162F88
:1026200061E0812F49830E9499044981413011F46E
:1026300061E003C0411108C060E0812F0F90DF917D
:10264000CF911F910C94B2040F90DF91CF911F9105
:10265000089561E087E10E94990461E084E20E94AC
:10266000990461E085E20E94990461E087E10E949B
:10267000B20461E084E20E94B20461E085E20C945D
:10268000B204CB010C945C318F929F92AF92BF92B7
:10269000CF92DF92EF92FF920F931F93CF93DF932E
:1026A000CDB7DEB7C75FD1090FB6F894DEBF0FBE56
:1026B000CDBF8E0100511F4F580128E0A20EB11C62
:1026C0007E0181E8E80EF11CCC24C394D12CCC0E01
:1026D000DD1E6DE0CE018F519F4F0E948D1540E0B1
:1026E0006CE081E595E00E94091340E06DE081E532
:1026F00095E00E940913F801108211821282138260
:1027000061E08CE00E94990461E08CE00E94B204D8
:10271000CE018F519F4F0E946D1441E06DE081E525
:1027200095E00E9409136AE070E080E090E00E946A
:10273000CB0340E063E3CE018F519F4F0E943E15D3
:1027400062E370E080E090E00E94CB034701CE019D
:102750008F519F4F0E941315F2E08F1A9108F401D8
:102760008083118261E070E080E090E00E94CB0302
:102770008C149D0461F7FE017196D701C601805942
:102780009F4F219131912D933D93E817F907C9F798
:1027900031EE832E912C8C0E9D1E81E090E0A0E006
:1027A000B0E0F401329122914F012130310569F4FA
:1027B000F8014081518162817381480F591F6A1F5E
:1027C0007B1F4083518362837383880F991FAA1FE5
:1027D000BB1F8E149F0429F7F80180819181A2818B
:1027E000B3818F3F9F4FAF4FBF4F29F4F801108245
:1027F00011821282138260E08CE00E94B20440E0F9
:102800006CE081E595E00E94091340E06DE081E510
:1028100095E00E9409130C5F1F4F0A151B0509F074
:1028200058CFC051DF4F088119812A813B81C05F99
:10283000D040CC50DF4F88819981AA81BB81C45F91
:10284000D040081719072A073B0719F000E010E0ED
:102850009801B801C901C950DF4F0FB6F894DEBF27
:102860000FBECDBFDF91CF911F910F91FF90EF90E1
:10287000DF90CF90BF90AF909F908F900895CF92B0
:10288000DF92EF92FF920E9444136B017C0161156D
:1028900071058105910591F483EE90E00E94643109
:1028A0006A302AE072078207920741F06F3F2FEFEC
:1028B00072078207920711F06B017C01B601C70114
:1028C000FF90EF90DF90CF9008958FED90E00E9401
:1028D0005C318F3F09F480E00895CF92DF92EF9250
:1028E000FF921F93CF93DF93EC0160E08E850E94EF
:1028F00099040E9479036B017C011EE7115089F154
:1029000082E090E00E94F5030E9479036C157D053A
:102910008E059F0520F40E9479036B017C018E8552
:102920000E94F804892BF9F40E9479036C197D093F
:102930008E099F09643F714081059105F8F213C02B
:102940000E9479036B017C011130C1F10E9479036F
:102950006C197D098E099F09643F714081059105BD
:10296000D0F010E02BC061E08E850E94990460E0F9
:102970008E850E94B20484E591E00E94F5030E94D6
:1029800079036B017C018E850E94F80411E0892B8C
:10299000D9F210E0D9CF8E850E94F80411E0892B7E
:1029A00009F010E089E090E00E94F5030E947903AD
:1029B0006C157D058E059F0538F6C2CF812FDF91FE
:1029C000CF911F91FF90EF90DF90CF9008951F93CC
:1029D000CF93DF93FC011081C181D281912F90951B
:1029E000F8948A8189238A838981812B898360FF76
:1029F0000BC089E090E00E94F5038A81812B8A83D5
:102A000078948FE290E00AC087E390E00E94F5039B
:102A10008A81812B8A83789485E090E0DF91CF9141
:102A20001F910C94F5030F931F93CF93DF93FC0139
:102A30001081C181D281F8948981812B89838A8117
:102A4000012F009580238A8382E090E00E94F503A5
:102A500089818023898387E090E00E94F503C88103
:102A600078948DE290E00E94F5031C2381E009F444
:102A700080E0DF91CF911F910F910895CF92DF9267
:102A8000EF92FF920F931F93CF93DF931F92CDB7D7
:102A9000DEB76C01E62E08E010E0FF24F3949F2DD2
:102AA0009E2161E009F460E0C60149830E94E714B9
:102AB000FF0C0150110949810115110581F74111E0
:102AC00015C0F894D6011196ED91FC911297918161
:102AD0008C918095892381831196ED91FC911297B9
:102AE00092818C9180958923828378940F90DF91D5
:102AF000CF911F910F91FF90EF90DF90CF900895AD
:102B0000FC0113861586148612861186108617829C
:102B100016821582148213820895CF93DF93EC01FD
:102B2000862F6E8760E00E9499048E8590E0FC01FC
:102B3000EE53FE4FE491E883FC01EB50FE4FE4912D
:102B4000F0E0E85DFD4FE491E9831A82CE01DF9168
:102B5000CF910C9480158091540580FF41C0409125
:102B6000550550915605609157057091580529E516
:102B700035E080915205909153050E9461258111A5
:102B800002C080E008958091540581FD06C08091C7
:102B900054058E7F8093540523C080915D07823059
:102BA000B0F34091590750915A0760915B077091BB
:102BB0005C078091550590915605A0915705B091FD
:102BC0005805480F591F6A1F7B1F29E535E0809182
:102BD0005205909153050E9461258111D8CFD1CF24
:102BE00081E00895CF92DF92EF92FF92CF936B0135
:102BF0007C01C42F8091550590915605A0915705F1
:102C0000B09158058C159D05AE05BF0509F10E94D0
:102C1000AB15811103C020E030E022C0C2FF0BC021
:102C200010925405C0925505D0925605E092570572
:102C3000F09258050DC029E535E0B701A601809155
:102C40005205909153050E9418248111E9CFE3CFDA
:102C5000C370809154058C2B8093540529E535E091
:102C6000C901CF91FF90EF90DF90CF9008950F931F
:102C70001F93FC014250510961097109A481B0E020
:102C80009A01AB010E94752D8B019C018285938571
:102C9000A485B585080F191F2A1F3B1FB801C9015C
:102CA0001F910F9108958F929F92AF92BF92CF92F2
:102CB000DF92EF92FF920F931F93CF93DF93EC017C
:102CC0006A017B0189018D819E81AF81B885019662
:102CD000A11DB11D84179507A607B70708F449C0C1
:102CE0008A89803129F499278F2D7E2D6D2D0CC076
:102CF000803209F03EC0CB01BA0147E09695879536
:102D0000779567954A95D1F78E849F84A888B9886E
:102D1000680D791D8A1D9B1D42E00E94F2150097E7
:102D200041F12A89203169F4DD24EE24FF24F601E3
:102D3000EE0FFF1FE80FF91F80819181A0E0B0E046
:102D400011C0E894C7F8DD24EE24FF24F601EE0F4D
:102D5000FF1FEE0FFF1FE80FF91F80819181A281F5
:102D6000B381BF70F80180839183A283B38381E034
:102D700001C080E0DF91CF911F910F91FF90EF9004
:102D8000DF90CF90BF90AF909F908F9008958F92DB
:102D90009F92AF92BF92CF92DF92EF92FF920F93EA
:102DA0001F93CF93DF93EC016A017B014801590126
:102DB0008D819E81AF81B8850196A11DB11D8417BB
:102DC0009507A607B70708F441C08A89803129F41E
:102DD0009927872F762F652F0CC0803209F036C0D7
:102DE000CB01BA01E7E09695879577956795EA95C7
:102DF000D1F70E851F8528893989600F711F821FC1
:102E0000931F43E00E94F215009701F12A892031B7
:102E100059F4DD24EE24FF24F601EE0FFF1FE80F26
:102E2000F91F9182808210C0E894C7F8DD24EE2457
:102E3000FF24F601EE0FFF1FEE0FFF1FE80FF91F33
:102E400080829182A282B38281E001C080E0DF9122
:102E5000CF911F910F91FF90EF90DF90CF90BF9097
:102E6000AF909F908F9008952F923F924F925F92D4
:102E70006F927F929F92AF92BF92CF92DF92EF922A
:102E8000FF920F931F93CF93DF93CDB7DEB7609779
:102E90000FB6F894DEBF0FBECDBF5C014D875E87D5
:102EA0006F87788B1901DC0115962D913D914D911D
:102EB0005C9118972F5F3F4F4F4F5F4F29873A879D
:102EC0004B875C87F10140805180628073804114A0
:102ED00051046104710431F0FFEF4F1A5F0A6F0A69
:102EE0007F0A10C0DC014D905D906D907C9099241C
:102EF00093942D853E854F855889213031054105B4
:102F0000510509F0912C730162011D821E821F82FE
:102F10001886F50185819681A781B0852D813E8136
:102F20004F815885281739074A075B0708F056C0B4
:102F300089859A85AB85BC858C159D05AE05BF0539
:102F400050F4A2E0CA2ED12CE12CF12CB2E04B2E91
:102F5000512C612C712C9E012F5F3F4FB701A601B0
:102F6000C5010E9453168823C9F149815A816B819A
:102F70007C81D701C6010196A11DB11D452B462BB1
:102F8000472B19F02C013D010DC084199509A609A4
:102F9000B7092D853E854F85588982179307A40769
:102FA000B50789F08D819E81AF81B8850196A11DFD
:102FB000B11D8D839E83AF83B8879FEFC91AD90A4D
:102FC000E90AF90AA6CF0FEF1FEF2FEF3FE0A601A6
:102FD000B701C5010E94C71681111BC080E044C023
:102FE000A701960121503109410951092D833E83E2
:102FF0004F835887970186014D815E816F81788567
:10300000C5010E94C716882349F3CD80DE80EF807A
:10301000F8844C145D046E047F0410F3D1014D91CB
:103020005D916D917C91411551056105710541F4EA
:10303000F1014082518262827382911009C013C0F3
:1030400093018201C5010E94C7168111F1CFC6CF3D
:10305000FFEF4F1A5F0A6F0A7F0AD5014D925D920A
:103060006D927C92139781E060960FB6F894DEBF64
:103070000FBECDBFDF91CF911F910F91FF90EF90C9
:10308000DF90CF90BF90AF909F907F906F905F90B8
:103090004F903F902F900895AF92BF92CF92DF92C2
:1030A000EF92FF920F931F93CF93DF9300D000D046
:1030B000CDB7DEB75C016A017B0182E090E0A0E061
:1030C000B0E0F50180839183A283B3839E012F5FDB
:1030D0003F4FB701A601C5010E945316811102C0DE
:1030E00080E023C000E010E09801B701A601C5010F
:1030F0000E94C7168823A1F3C980DA80EB80FC8088
:10310000F5018289803141F4F8EFCF16FFEFDF0639
:10311000E104F10448F4DACF88EFC8168FEFD8063F
:10312000E8068FE0F80690F281E00F900F900F9084
:103130000F90DF91CF911F910F91FF90EF90DF9053
:10314000CF90BF90AF9008958F929F92AF92BF9211
:10315000CF92DF92EF92FF920F931F93CF93DF9363
:10316000EC01142F70935305609352051A8A82E084
:1031700090E0A0E0B0E088839983AA83BB8310929B
:1031800054058FEF9FEFDC01809355059093560512
:10319000A0935705B0935805442311F1453008F02A
:1031A000BCC040E060E070E0CB010E94F2150097E7
:1031B00009F4B3C0FC0120E1129FE00DF11D1124C0
:1031C000E255FE4F80818F7709F0A7C0C084D1847B
:1031D000E284F384C114D104E104F10421F49DC01C
:1031E000C12CD12C760140E0C701B6010E94F21536
:1031F000FC01009709F491C0838594858115924064
:1032000009F08BC02089222309F487C08685978521
:10321000892B09F482C020935D0745854C8319866C
:1032200088E090E021E007C0220F019709F475C003
:1032300039853F5F39874213F7CF268937892115B2
:10324000310519F040E050E004C024A135A146A1A9
:1032500057A12093590730935A0740935B07509327
:103260005C078685978546015701880E991EA11C2B
:10327000B11C8E869F86A88AB98A018912891C8B07
:103280000B8BA089B0E00E94752D680D791D8A1DF9
:103290009B1D6D8B7E8B8F8B988F35E0000F111FE0
:1032A0003A95E1F701501E4F012F11270695DC01D9
:1032B000CB01800F911FA11DB11D8A879B87AC8711
:1032C000BD87038914890115110519F020E030E04C
:1032D00004C000A111A122A133A1B701A601481B7E
:1032E000590B6A0B7B0BDB01CA01800F911FA21FD8
:1032F000B31F098404C0B695A795979587950A943E
:10330000D2F78D839E83AF83B887853F5FE09507B3
:10331000A105B10520F48CE08A8B80E012C0853FC6
:103320009F4FA105B10510F480E109C084A595A5C2
:10333000A6A5B7A58D8B9E8BAF8BB88F80E28A8BAD
:1033400081E0DF91CF911F910F91FF90EF90DF907F
:10335000CF90BF90AF909F908F900895CF93C82F3C
:103360008A3028F460E38CE495E00E94F5124C2F3B
:1033700050E060E070E02AE030E08CE495E0CF912E
:103380000C943F12CF93DF93EC019C012A5F3F4FD7
:1033900041E050E060E070E08C819D810E94341734
:1033A0008823A1F04E895F89688D798D452B462B46
:1033B000472B71F44E815F81688579854E8B5F8BD9
:1033C000688F798F89818068898302C080E001C01D
:1033D00081E0DF91CF910895BF92CF92DF92EF927B
:1033E000FF920F931F93CF93DF938C01FC0182898F
:1033F0009389A489B589803E9F4FAF41B10508F0FC
:103400001AC0C8010E94C2198823A9F0D8011696D3
:103410004D915D916D917C91199714968D919C9130
:1034200015970E9437166B017C0145E00E94F2154A
:10343000EC01009719F4C0E0D0E03AC080E092E0DF
:10344000FE019C01119221503040E1F7BB24B3945E
:1034500010C0B701A6014B0D511D611D711D9E01CC
:1034600080915205909153050E946125882319F39C
:10347000B394D8011496ED91FC9115978481B816F8
:1034800040F390E0A0E0B0E029E0880F991FAA1F68
:10349000BB1F2A95D1F7F801428953896489758940
:1034A000480F591F6A1F7B1F428B538B648B758B90
:1034B000CE01DF91CF911F910F91FF90EF90DF90A0
:1034C000CF90BF900895CF93DF93EC01462F6E8588
:1034D0007F85888999890E94F215009749F02B8190
:1034E000AC0160E2269F400D511D11249A0102C0DB
:1034F00020E030E0C901DF91CF910895CF93DF93B1
:10350000FB012BE030E231932150E9F7DC0130E0A0
:10351000C7E01DC0CA3059F138E0CAE018C0E21750
:1035200031F1FC010196E491E111F9CFC317F8F0F4
:103530002132E8F02F37D8F4FB01E30FF11D822F81
:1035400081568A3110F4D22FD052D0833F5FCD0103
:103550002D91211109C0FA018083918381E0FB0143
:103560009081903261F403C02F3219F4F4CF80E0DF
:1035700006C0D22F2E3271F28FE294E0D2CFDF91CB
:10358000CF9108953F924F925F926F927F928F9268
:103590009F92AF92BF92CF92DF92EF92FF920F93E2
:1035A0001F93CF93DF9300D000D0CDB7DEB79C83BD
:1035B0008B839B015A01FC018281811103C02FEF93
:1035C0003FEF2CC1EB81FC81818180FFF8CFF8C0F7
:1035D0005A01A81AB90A650179018B819C81069666
:1035E0009A838983E7C0EB81FC814284538464849D
:1035F0007584D301C2019170AA27BB274C01848135
:103600009581B301A20139E0769567955795479565
:103610003A95D1F7FC0134803A943422EB81FC8155
:103620002281223051F4FC01458856886788708CCD
:10363000440E551E661E771E2FC081149104E1F4BE
:1036400031101AC0EB81FC8145284628472849F4EF
:1036500086899789A08DB18D86839783A087B1874E
:103660000BC0468157816085718529813A810E940E
:103670005316882309F4A3CFEB81FC81468157813F
:1036800060857185848195810E9437162B013C01EC
:10369000430C511C611C711C8114910409F0AAC0D7
:1036A000C114F2E0DF0608F4A5C0809155059091A1
:1036B0005605A0915705B0915805481659066A0657
:1036C0007B0609F0A0C096C020E032E02819390935
:1036D00086012C153D0508F48901880E991EA80164
:1036E000B401C7010E94DC2E53C09701B301A201AF
:1036F00080915205909153050E941824811146C073
:103700005ECF9D2C9694EB81FC812281223041F08A
:1037100024813581F90124812319291508F4922E79
:10372000481659066A067B0658F4B301A201809137
:103730005205909153050E94F52381110CC03FCF93
:10374000890D911DA11DB11D481659066A067B06FB
:1037500008F45FC0EACF2701812C09C0B2010E94A2
:103760004723FEEF5F1A882309F429CF83948091C1
:103770005205909153058910F1CF0E94DC238823D4
:1037800009F41DCF182D110F00E002C000E012E077
:10379000E00EF11EEB81FC8182859385A485B585C1
:1037A000800F911FA11DB11D82879387A487B587C4
:1037B000C01AD10AC114D10409F015CF95012EC049
:1037C000EB81FC814289538964897589828593855F
:1037D000A485B5852501612C712C6A017B01C81A6D
:1037E000D90AEA0AFB0A4C145D046E047F0408F04F
:1037F000EFCEF1CE40E0C301B2010E94F215009776
:1038000009F062CFDCCEC114F4E0DF0608F079CF16
:103810006CCF0E94AB15811188CFD1CEC9010F901A
:103820000F900F900F90DF91CF911F910F91FF900C
:10383000EF90DF90CF90BF90AF909F908F907F9050
:103840006F905F904F903F900895CF93DF931F92BA
:10385000CDB7DEB741E050E0BE016F5F7F4F0E9401
:10386000C21A019719F4298130E002C02FEF3FEF0F
:10387000C9010F90DF91CF910895CF92DF92EF921F
:10388000FF92CF93DF93EC018A81823018F420E01D
:1038900030E029C0CA84DB84EC84FD8455E0F694D2
:1038A000E794D794C7945A95D1F78FE0C822DD24C6
:1038B000EE24FF24CE010E94251C97FDE8CF4A8507
:1038C0005B856C857D85415E5F4F6F4F7F4F4A877B
:1038D0005B876C877D87960145E0220F331F4A95F1
:1038E000E1F7275A3A4FC901DF91CF91FF90EF904E
:1038F000DF90CF9008958F929F92AF92BF92CF9218
:10390000DF92EF92FF920F931F93CF93DF93EC011F
:103910004A015B012A81222309F475C08A899B89A7
:10392000AC89BD8984179507A607B70708F46BC053
:103930006CC081149104A104B10449F41E821F8259
:10394000188619861A861B861C861D865AC04A85CB
:103950005B856C857D85EC81FD81218530E0275F6D
:103960003F4FDB01CA010197A109B109022E04C032
:10397000B695A795979587950A94D2F7CC24CA94C3
:10398000DC2C7601C80CD91CEA1CFB1C04C0F69484
:10399000E794D794C7942A95D2F7C816D906EA06B1
:1039A000FB0620F0452B462B472B49F48E899F8937
:1039B000A88DB98D8E839F83A887B98716C0C81A32
:1039C000D90AEA0AFB0A11C04E815F8168857985B0
:1039D00098018C819D810E94531691E0C91AD108EB
:1039E000E108F108811104C014C08E010A5F1F4F65
:1039F000C114D104E104F10439F78A869B86AC86B0
:103A0000BD8681E006C080E004C0223009F091CF7D
:103A1000F4CFDF91CF911F910F91FF90EF90DF9046
:103A2000CF90BF90AF909F908F900895EF92FF92AC
:103A30000F931F93CF93DF9300D000D0CDB7DEB7A5
:103A40008C01FC0186899789A08DB18D89839A8329
:103A5000AB83BC83E12CF12C49815A816B817C8141
:103A60009E012F5F3F4FD80114968D919C91159721
:103A70000E945316882389F1D8011496ED91FC9188
:103A800015978481E80EF11CE114B0E1FB0628F5DE
:103A900089819A81AB81BC812289203131F4883FB0
:103AA0009F4FA105B10530F4D7CF883F9F4FAF4F4F
:103AB000BF4090F2A70160E070E0E9E0440F551FBD
:103AC000661F771FEA95D1F7D80152964D935D9303
:103AD0006D937C93559781E001C080E00F900F902B
:103AE0000F900F90DF91CF911F910F91FF90EF906A
:103AF0000895CF93DF93EC01FB018A81882311F0B5
:103B000080E03EC07D836C838289803101F522C0D4
:103B100083E08A83458956896789708D4E8B5F8BD8
:103B2000688F798FCE010E94161D882349F381E0AA
:103B300089831E821F82188619861A861B861C8618
:103B40001D861E861F86188A198A1B8219C080321C
:103B5000B9F6DECF82E08A831E8A1F8A188E198EFC
:103B60004389548960E070E0F5E0440F551F661FFB
:103B7000771FFA95D1F74A8B5B8B6C8B7D8BD7CFF8
:103B8000DF91CF9108950F931F93CF93DF93EC01B3
:103B90008A818823E1F1898187FF33C061E0CE010A
:103BA0000E94631A8C01009791F1FC018081853E8F
:103BB00071F18A81823040F44A895B896C897D8900
:103BC000448F558F668F778F4E895F89688D798D89
:103BD000F801538F428F758B648BE0915E07F091F3
:103BE0005F07309759F0B8016A5E7F4FC801489669
:103BF0000995F801808D918D938B828B89818F77C8
:103C00008983DF91CF911F910F910C94AB1581E0C7
:103C1000888380E0DF91CF911F910F910895CF931A
:103C2000DF93EC010E94C31D1A82DF91CF910895AA
:103C30004F925F926F927F92AF92BF92CF92DF923C
:103C4000EF92FF920F931F93CF93DF9300D000D09A
:103C5000CDB7DEB75C016A017B01FC018281813056
:103C600009F083C0818181FF80C081C0892B8A2BAC
:103C70008B2B09F478C0F5014284538464847584E5
:103C8000B701A601C5010E947B1C811101C06DC056
:103C9000F50184819581C114D104E104F10479F422
:103CA00046895789608D718D0E944C18882309F4CC
:103CB0005CC0F501168A178A108E118E3AC0F50184
:103CC00046815781608571859E012F5F3F4F0E941D
:103CD0005316882309F449C049815A816B817C813C
:103CE000F50184819581FC012289203139F4483F16
:103CF000FFEF5F0761057105E0F407C0483F2FEF54
:103D0000520762072FE07207A0F40E944C18882324
:103D100061F1F50146815781608571850FEF1FEFD5
:103D20002FEF3FE0848195810E94C716811101C069
:103D30001CC0F501C28AD38AE48AF58A8181806831
:103D40008183C5010E94C31D882379F0B701A601B4
:103D50004C145D046E047F0410F4B301A201C5018C
:103D60000E947B1C10C081E00EC080E00CC0F501F9
:103D700082899389A489B58984179507A607B7070F
:103D800008F074CFF2CF0F900F900F900F90DF914B
:103D9000CF911F910F91FF90EF90DF90CF90BF9048
:103DA000AF907F906F905F904F900895FF920F9328
:103DB0001F93CF93DF93EC01F42E80E2689FF00114
:103DC0001124E75AFA4F8385817121F0842F827183
:103DD00009F058C08091550590915605A09157055E
:103DE000B09158058E879F87A88BB98B6B83048908
:103DF000158920E030E0980111270027828D938DEE
:103E0000A0E0B0E0082B192B2A2B3B2B0E8B1F8B2D
:103E1000288F398F8385887151F4848D958DA68D77
:103E2000B78D8A8B9B8BAC8BBD8B81E008C08031BA
:103E300049F5CE010E94161D882321F184E08A8372
:103E40008F2D8F7089831E821F82188619861A868D
:103E50001B861C861D86F4FE18C040E050E0BA01A7
:103E6000CE010E94181E811110C00CC04A895B89C6
:103E70006C897D89CE01DF91CF911F910F91FF90C9
:103E80000C947B1C1A8280E003C0F5FCEFCF81E02C
:103E9000DF91CF911F910F91FF900895DF92EF92E4
:103EA000FF920F931F93CF93DF938C01EB017A0165
:103EB000D22E8C819D81F80195838483828181112A
:103EC0002DC0209749F52AC0A70165E0440F551F72
:103ED0006A95E1F760E070E0CE010E947B1C8823C8
:103EE000E9F0CE010E943D1C0097C1F0FC018081E9
:103EF0008823A1F0853E91F08E3281F0B7016F707A
:103F000077274D2DC801DF91CF911F910F91FF9021
:103F1000EF90DF900C94D61E27FFD6CF80E0DF9184
:103F2000CF911F910F91FF90EF90DF9008953F92F6
:103F30004F925F926F927F928F929F92AF92BF92B9
:103F4000CF92DF92EF92FF920F931F93CF93DF9365
:103F50007C01EB016A01922E8C819D81F701958392
:103F6000848340E050E0BA01CE010E947B1C812C8A
:103F700050C0CE010E94251C97FDBEC00A851B853E
:103F80002C853D8501501E4F2F4F3F4F0A871B87C1
:103F90002C873D87409055055090560560905705F9
:103FA0007090580500E010E0302E580145E0AA0C52
:103FB000BB1C4A95E1F789E595E0A80EB91EF5010D
:103FC0008081882311F0853EB1F46CEE72E0C60169
:103FD0000E94FB2E009779F0811008C0F7014686F9
:103FE0005786608A718A338288248394F5018081A0
:103FF00081110AC07FC04BE050E0B501C6010E94AC
:10400000CF2E009709F473C00F5F1F4F00311105C9
:1040100059F64A855B856C857D858A899B89AC8943
:10402000BD89481759076A077B0708F4A2CF62C009
:1040300091FE62C0882051F0F701338061E0C70132
:104040000E94631AEC01009769F456C08A8182309D
:1040500009F452C0CE010E94EC19009709F44CC03B
:10406000EC01312C80E2FE0111928A95E9F78BE098
:10407000F601DE0101900D928A95E1F7E0915E076D
:10408000F0915F07309739F0BE01625F7F4FCE013C
:104090004096099508C081E298E2998B888B80E070
:1040A00098E09F878E87888999899B8B8A8B998FC7
:1040B000888F8E859F859F8B8E8B0E94AB15882362
:1040C000D9F0492D632DC701DF91CF911F910F9139
:1040D000FF90EF90DF90CF90BF90AF909F908F9028
:1040E0007F906F905F904F903F900C94D61E97FEFC
:1040F000E8CF02C096FC9CCF80E0DF91CF911F916A
:104100000F91FF90EF90DF90CF90BF90AF909F9076
:104110008F907F906F905F904F903F9008953F9267
:104120004F925F926F927F928F929F92AF92BF92C7
:10413000CF92DF92EF92FF920F931F93CF93DF9373
:10414000CDB7DEB7C154D1090FB6F894DEBF0FBEAC
:10415000CDBF4C016B0122965FAF4EAF2297422E2E
:104160001B8E1D8E19821B826115710509F457C0C3
:10417000FC018281811153C02296EEADFFAD2297E2
:1041800080818F3239F076011EC031962296FFAFC2
:10419000EEAF22972296EEADFFAD229780818F324F
:1041A000A1F3F60182818250823068F364817581C7
:1041B000CE0101960E94791D882389F1EE24E394B3
:1041C000F12CEC0EFD1E53E0A52EB12C8E01055EE8
:1041D0001F4F3801502E312EAE01405C5F4FBE01A3
:1041E0006B5C7F4F22968EAD9FAD22970E947E1A08
:1041F00081111CC06CEE72E022968EAD9FAD2297AD
:104200000E94FB2E009729F48EE29EE29EAB8DABBE
:1042100037C06FE374E08CE495E00E94211280E0E7
:1042200037C031962296FFAFEEAF22972296EEADC1
:10423000FFAD229780818F32A1F3882309F121E01D
:10424000AE014B5C5F4FB701C8010E94971F8823E6
:1042500031F3EC14FD0419F0C7010E940F1E06157E
:10426000170521F07801052D132D05C08E010F5F74
:104270001F4FE52CF32CF1E0AF1AB10809F0ACCFD9
:10428000242DAE014B5C5F4FB701C4010E94971F04
:10429000CF5BDF4F0FB6F894DEBF0FBECDBFDF910F
:1042A000CF911F910F91FF90EF90DF90CF90BF9033
:1042B000AF909F908F907F906F905F904F903F90C6
:1042C0000895CF93DF93EC01BC01672F77276695A4
:1042D0006454784F8CE495E00E9498126DE28CE46F
:1042E00095E00E94F512CE01A5E096958795AA95D6
:1042F000E1F78F700E94AE196DE28CE495E00E94A8
:10430000F5128C2F8F71DF91CF910C94AE19CF9352
:10431000DF93EC018D2F8695869586950E94AE19C8
:104320006AE38CE495E00E94F512CE01B5E0969523
:104330008795BA95E1F78F730E94AE196AE38CE412
:1043400095E00E94F512CE018F719927880FDF91B9
:10435000CF910C94AE19CF92DF92EF92FF920F9310
:104360001F93CF93DF93CDB7DEB7A0970FB6F89426
:10437000DEBF0FBECDBF7C01D62EC42E00E012E002
:1043800040E250E0BE016F5F7F4FC7010E94C21A3A
:10439000809709F084C08981882309F480C0853E14
:1043A00041F08E3231F09C8593FD03C0843529F0B5
:1043B00019C00150110921F7F9CF8A81823591F492
:1043C0008B81813479F48C81833561F48D818834DB
:1043D00009F465C007C060E28CE495E00E94F51224
:1043E0001F5F01C010E01C11F6CF8E010F5F1F4F41
:1043F000E12CF12CF8018081803281F0F8E0EF129D
:1044000006C06EE28CE495E00E94F512F394F80188
:1044100060818CE495E00E94D112F394E3940F5FE5
:104420001F4FFBE0EF12E6CF8C858871803131F4AD
:104430006FE28CE495E00E94F512F3948D2D837069
:1044400049F4D0FE1DC00AC060E28CE495E00E94F1
:10445000F512F3948DE08F15B8F7F3CF60E28CE49A
:1044600095E00E94F512898D9A8D0E94612160E28B
:104470008CE495E00E94F5128F89988D0E94872127
:104480008C858871803111F0D1FC0DC08CE495E0F1
:104490000E9414128C85887121F481E012C080E0A2
:1044A00010C082E00EC060E28CE495E00E94F5123C
:1044B0004D8D5E8D6F8D78A18CE495E00E94791210
:1044C000E5CFA0960FB6F894DEBF0FBECDBFDF914B
:1044D000CF911F910F91FF90EF90DF90CF900895B3
:1044E000AF92BF92CF92DF92EF92FF920F931F9302
:1044F000CF93DF93CDB7DEB76A970FB6F894DEBFE0
:104500000FBECDBF7C01D62EC42E40E050E0BA01D4
:104510000E947B1C94E0B92EBD20AC2CA394A394E4
:104520002EC0823064F1BB2051F1F7010285138562
:104530002485358585E036952795179507958A95C5
:10454000D1F719821B82A8014150510921E0B7011E
:10455000CE0101960E944E1F882331F04A2D6D2D09
:10456000CE0101960E947022A80115E0440F551F4C
:104570001A95E1F760E070E0C7010E947B1C4C2DAA
:104580006D2DC7010E94AB218111CBCF6A960FB66A
:10459000F894DEBF0FBECDBFDF91CF911F910F9179
:1045A000FF90EF90DF90CF90BF90AF90089561E0C3
:1045B000FC0180810E94B2048FEF0C94ED100E94E8
:1045C000350F80E00E94610F84E00E94660F60E07A
:1045D00086E495E00C94710F8F929F92AF92BF92F8
:1045E000CF92DF92EF92FF920F931F93CF93DF93BF
:1045F000EC018B017A0113C00E9479036C197D09CB
:104600006D32714010F081E122C00E9479034601B1
:10461000A12CB12C681579058A059B0518F40E9418
:1046200079036B0186E495E00E9443118B838F3FF1
:1046300019F38E3F11F08FE00AC0A701B80186E49C
:1046400095E00E9412118B83882319F08CE18983F5
:104650000DC086E495E00E94431186E495E00E9437
:104660004311CE010E94D72281E004C0CE010E94F6
:10467000D72280E0DF91CF911F910F91FF90EF90B3
:10468000DF90CF90BF90AF909F908F9008950F9341
:104690001F93CF93DF9300D0CDB7DEB78C01698332
:1046A0007A830E94DF2240E052E069817A81C8016A
:1046B0000F900F90DF91CF911F910F910C94EC22EE
:1046C000CF92DF92EF92FF920F931F93CF93DF93DE
:1046D000EB0111C00E947903601B710B6C177D0701
:1046E000A8F40E9479036801E12CF12C6C157D057A
:1046F0008E059F0518F40E9479038B0186E495E0EE
:104700000E9443118F3F31F781E001C080E0DF91CB
:10471000CF911F910F91FF90EF90DF90CF90089570
:10472000FF920F931F93CF93DF9300D000D0CDB7AC
:10473000DEB78C01F62E29833A834B835C830E947B
:10474000DF2268E572E0C8010E9460238F2D80643B
:104750000E94ED108C810E94ED108B810E94ED1063
:104760008A810E94ED1089810E94ED10F11002C033
:1047700085E901C087E80E94ED108CE0F81204C0C2
:1047800086E495E00E944311F12C86E495E00E94B6
:104790004311F801838387FF05C0FFEFFF1611F077
:1047A000F394F3CF0F900F900F900F90DF91CF9174
:1047B0001F910F91FF900895CF93DF93EC0120E0BC
:1047C00030E0A9016CE00E949023882339F083E057
:1047D0008983CE010E94D72280E004C0CE010E94CE
:1047E000D72281E0DF91CF910895CF93DF93EC0141
:1047F0008C81833039F089E0440F551F661F771F85
:104800008A95D1F79A01AB0162E1CE010E94902313
:10481000882339F085E08983CE010E94D72280E089
:1048200004C0CE010E94D72281E0DF91CF9108958C
:104830000F931F93CF93DF93EC0189018C81833019
:1048400039F0E9E0440F551F661F771FEA95D1F74D
:104850009A01AB0161E1CE010E94902381110AC04F
:1048600040E052E0B801CE01DF91CF911F910F914E
:104870000C94EC2284E08983CE010E94D72280E050
:10488000DF91CF911F910F9108954F925F926F9298
:104890007F92BF92CF92DF92EF92FF920F931F937E
:1048A000CF93DF93EC01B42E1C82198268830E949F
:1048B00079038B0161E088810E94990461E088811D
:1048C0000E94B2040E94350F80E00E94610F84E0D4
:1048D0000E94660F8AE0F82E8FEF0E94ED10FA9486
:1048E000D9F716C00E947903601B710B613D7740B8
:1048F00010F081E08CC00E9479036801E12CF12C5A
:104900006C157D058E059F0518F40E9479038B01B7
:1049100020E030E0A90160E0CE010E9490238130C8
:1049200009F7E12CB2E0FB2E2AEA31E040E050E04A
:1049300068E0CE010E949023853011F481E00CC024
:10494000A4E0DA2E86E495E00E9443118B83DA948A
:10495000C9F78A3A19F482E08C831AC00E9479035D
:10496000601B710B613D774010F082E050C00E94E7
:1049700079032801612C712C64157505860597054E
:1049800018F40E9479038B0181E0E81AF10861F6BE
:104990008C81823031F4C12CD12CE12CF0E4FF2E3B
:1049A0001AC0C12CD12C760116C00E947903601B5D
:1049B000710B613D774010F08AE029C00E947903B5
:1049C0002801612C712C641575058605970518F46E
:1049D0000E9479038B0120E030E0A90167E3CE015A
:1049E0000E949023A701960169E2CE010E949023C4
:1049F0008111DBCF8C81823009F520E030E0A90104
:104A00006AE3CE010E949023882319F088E089830D
:104A10001BC086E495E00E944311807C803C11F429
:104A200083E08C8386E495E00E94431186E495E060
:104A30000E94431186E495E00E944311CE010E943A
:104A4000D722BA8281E004C0CE010E94D72280E042
:104A5000DF91CF911F910F91FF90EF90DF90CF905A
:104A6000BF907F906F905F904F9008950F931F932A
:104A7000CF93DF93EC01862F8A010E94ED1040E076
:104A800052E0B80186E495E00E94FE108FEF0E948C
:104A9000ED108FEF0E94ED1086E495E00E94431127
:104AA0008B838F71853039F083E18983CE010E9439
:104AB000D72280E001C081E0DF91CF911F910F915B
:104AC00008950F931F93CF93DF93EC0189018C819D
:104AD000833039F039E0440F551F661F771F3A9530
:104AE000D1F79A01AB0168E1CE010E94902388239F
:104AF00019F086E089830CC0A8016EEFCE010E94F8
:104B00003625882329F0CE010E94D72281E004C0F7
:104B1000CE010E94D72280E0DF91CF911F910F91AB
:104B20000895CF93DF93EC0180E2EEE8F7E0DF0138
:104B3000982F1D929A95E9F710928D0710928C0785
:104B4000EBE6F7E0DF011D928A95E9F710926A071C
:104B5000109269070E94892A81E08E8384E090E0A8
:104B6000DF91CF910C94F50381E080936807609307
:104B70008B0710926A071092690708950C94B42568
:104B800080918C0790918D07891B089590918D07D6
:104B900080918C07981748F4E92FF0E0E257F84F1E
:104BA00080819F5F90938D07089580E00895CF9353
:104BB000DF93EC010E94D52A1E82DF91CF910895E8
:104BC00040914708509148086091490870914A08FF
:104BD0004170FC0140834091470850914808609122
:104BE000490870914A0876956795579547954170A1
:104BF00041838091470890914808A0914908B0915D
:104C00004A0884FD49C08091470890914808A091C6
:104C10004908B0914A0885FD3FC0809147089091AE
:104C20004808A0914908B0914A0886FD35C0809196
:104C3000470890914808A0914908B0914A0887FD1B
:104C40002BC08091470890914808A0914908B091E5
:104C50004A0890FD21C08091470890914808A09192
:104C60004908B0914A0891FD17C08091470890917A
:104C70004808A0914908B0914A0893FD0DC00895D5
:104C800040E060E084E495E00E94C60E40E061E010
:104C900084E495E00C94C60E80916707882381F325
:104CA0000895CF93DF93EC018091470890914808D5
:104CB000A0914908B0914A0884FD58C080914708E6
:104CC00090914808A0914908B0914A0885FD4EC0CE
:104CD0008091470890914808A0914908B0914A08EE
:104CE00086FD44C08091470890914808A0914908EA
:104CF000B0914A0887FD3AC08091470890914808D2
:104D0000A0914908B0914A0890FD30C040914708F1
:104D1000509148086091490870914A0851FD26C099
:104D200040914708509148086091490870914A089D
:104D300053FD1CC020C041E060E084E495E00E9487
:104D4000C60E0CC08981811106C041E060E084E498
:104D500095E00E94C60E888181110DC041E061E09E
:104D600084E495E0DF91CF910C94C60E80916707A3
:104D70008111E8CFE0CFDF91CF910895CF93DF93FA
:104D80001F92CDB7DEB7698380916807882389F0C9
:104D9000809169078032D0F480916A07E82FF0E0B3
:104DA000E559F84F60838F5F80936A0780936907A6
:104DB0000DC080E697E00E94E02561E0CE010196FB
:104DC0000E94B62A80E697E00E9451260F90DF915C
:104DD000CF9108950C94BE26CF9380E697E00E9471
:104DE000E02521E0409169076BE677E080918B0731
:104DF0000E94792BC82F10926A07109269071092AF
:104E0000680780E697E00E9451268C2FCF91089585
:104E1000CF93DF93D62FC42F80E697E00E94E02542
:104E2000C13208F0C0E24C2F6EE877E08D2F0E946F
:104E3000DE2BD82F10928D07C0938C0780E697E069
:104E40000E9451268D2FDF91CF9108950C94082751
:104E50001092670710926007109261078AEF90E046
:104E6000A0E0B0E08093620790936307A09364078B
:104E7000B093650708951F920F920FB60F921124F9
:104E80000BB60F922F933F934F935F936F937F9344
:104E90008F939F93AF93BF93EF93FF938091AE0750
:104EA0009091AF07892B29F0E091AE07F091AF0701
:104EB0000995FF91EF91BF91AF919F918F917F9154
:104EC0006F915F914F913F912F910F900BBE0F907B
:104ED0000FBE0F901F9018951F920F920FB60F9252
:104EE00011240BB60F922F933F934F935F936F93C1
:104EF0007F938F939F93AF93BF93EF93FF93809193
:104F0000B0079091B107892B29F0E091B007F0919B
:104F1000B1070995FF91EF91BF91AF919F918F914B
:104F20007F916F915F914F913F912F910F900BBEA9
:104F30000F900FBE0F901F9018951F920F920FB6F3
:104F40000F9211240BB60F922F933F934F935F93C1
:104F50006F937F938F939F93AF93BF93EF93FF9341
:104F60008091B2079091B307892B29F0E091B207A5
:104F7000F091B3070995FF91EF91BF91AF919F9188
:104F80008F917F916F915F914F913F912F910F90F2
:104F90000BBE0F900FBE0F901F9018951F920F928F
:104FA0000FB60F9211240BB60F922F933F934F938E
:104FB0005F936F937F938F939F93AF93BF93EF9381
:104FC000FF938091B4079091B507892B29F0E09168
:104FD000B407F091B5070995FF91EF91BF91AF919B
:104FE0009F918F917F916F915F914F913F912F9101
:104FF0000F900BBE0F900FBE0F901F9018951F9231
:105000000F920FB60F9211240BB60F922F933F936E
:105010004F935F936F937F938F939F93AF93BF93C0
:10502000EF93FF938091B6079091B707892B29F0F2
:10503000E091B607F091B7070995FF91EF91BF9105
:10504000AF919F918F917F916F915F914F913F9120
:105050002F910F900BBE0F900FBE0F901F901895C1
:105060001F920F920FB60F9211240BB60F922F932F
:105070003F934F935F936F937F938F939F93AF93E0
:10508000BF93EF93FF938091B8079091B907892B55
:1050900029F0E091B807F091B9070995FF91EF91D8
:1050A000BF91AF919F918F917F916F915F914F9140
:1050B0003F912F910F900BBE0F900FBE0F901F903E
:1050C00018951F920F920FB60F9211240BB60F92E4
:1050D0002F933F934F935F936F937F938F939F9300
:1050E000AF93BF93EF93FF938091BA079091BB0763
:1050F000892B29F0E091BA07F091BB070995FF9140
:10510000EF91BF91AF919F918F917F916F915F913F
:105110004F913F912F910F900BBE0F900FBE0F90AC
:105120001F9018951F920F920FB60F9211240BB675
:105130000F922F933F934F935F936F937F938F9330
:105140009F93AF93BF93EF93FF938091BC07909190
:10515000BD07892B29F0E091BC07F091BD070995A7
:10516000FF91EF91BF91AF919F918F917F916F913F
:105170005F914F913F912F910F900BBE0F900FBEFB
:105180000F901F901895CF92DF92EF92FF926B01D4
:105190007C01411134C088E00E945F04C701B60160
:1051A00022E030E040E050E00E94D22D305F414FDD
:1051B0005F4FCA01B901A70196010E94D22DDA0101
:1051C000C9010197A109B109892F9A2FAB2FBB27DC
:1051D000A7FDBA958093C50021502093C40080910B
:1051E000C10080618093C1008091C100886080937C
:1051F000C1008091C10080688093C10033C080E10C
:105200000E945F04C701B60122E030E040E050E0B8
:105210000E94D22D305F414F5F4FCA01B901A701F3
:1052200096010E94D22DDA01C9010197A109B109A5
:10523000892F9A2FAB2FBB27A7FDBA958093CD005E
:1052400021502093CC008091C90080618093C900D7
:105250008091C90088608093C9008091C9008068EE
:105260008093C900FF90EF90DF90CF900895611177
:1052700007C09091C00095FFFCCF8093C6000895B1
:105280009091C80095FFFCCF8093CE0008951F92A7
:105290000F920FB60F9211242F933F934F935F936A
:1052A0006F937F938F939F93AF93BF93EF93E0910F
:1052B000C6002091C4073091C507C901019660E07E
:1052C00072E00E949C2D4091C2075091C307841741
:1052D000950741F0D901A75AB54FEC939093C507B4
:1052E0008093C407EF91BF91AF919F918F917F9170
:1052F0006F915F914F913F912F910F900FBE0F9043
:105300001F9018951F920F920FB60F9211242F9392
:105310003F934F935F936F937F938F939F93AF933D
:10532000BF93EF93E091CE002091C0073091C10769
:10533000C901019660E072E00E949C2D4091BE0779
:105340005091BF078417950741F0D901A75AB74F6D
:10535000EC939093C1078093C007EF91BF91AF91F9
:105360009F918F917F916F915F914F913F912F917D
:105370000F900FBE0F901F9018950C943729CF9364
:10538000C82F682F8DE00E9437296C2F8AE0CF91BB
:105390000C9437291F93CF93DF93162FEC0103C092
:1053A000612F0E94372989918111FACFDF91CF9126
:1053B0001F9108954F925F926F927F928F929F926A
:1053C000AF92BF92CF92DF92EF92FF920F93CF9363
:1053D000DF93CDB7DEB7A0970FB6F894DEBF0FBE50
:1053E000CDBF29013A016115710581059105C9F407
:1053F000602F80E3A0960FB6F894DEBF0FBECDBF3E
:10540000DF91CF910F91FF90EF90DF90CF90BF9001
:10541000AF909F908F907F906F905F904F900C9483
:105420003729EE24E394F12CEC0EFD1E812C912CF7
:105430005401A30192010E94B02DF70161937F01F5
:10544000FFEF8F1A9F0AAF0ABF0AB901CA0161159F
:1054500071058105910569F7CC24CA94DC2C76018D
:10546000C80CD91CEA1CFB1C14C0E1E0F0E0EC0FF6
:10547000FD1FEC0DFD1D80818A3010F4805D01C0A0
:10548000895C602F0E94372981E0C81AD108E108A1
:10549000F108EFEFCE16DE06EE06FE0631F7A09617
:1054A0000FB6F894DEBF0FBECDBFDF91CF910F9145
:1054B000FF90EF90DF90CF90BF90AF909F908F9034
:1054C0007F906F905F904F900895CF92DF92EF9210
:1054D000FF920F936B017C01042F97FF0CC0642F88
:1054E0008DE20E943729F094E094D094C094C11CBE
:1054F000D11CE11CF11C2AE030E040E050E0C70183
:10550000B6010E94DA290F91FF90EF90DF90CF90C3
:1055100008951092CF07E4E6F0E080818F778083D2
:10552000589A599AE9EBF0E080818E7F80838081E0
:105530008D7F808381E48093B80085E48093BC00F4
:1055400080E2E0EDF7E0DF01982F1D929A95E9F7F0
:10555000E0EFF7E0DF01982F1D929A95E9F7E0E17F
:10556000F8E0DF011D928A95E9F70895613298F419
:105570002091CF07243089F46093CC07FC0180EFA1
:1055800097E0DC0102C021912D932A2F281B2617BA
:10559000D0F380E0089581E0089582E0089585ECDD
:1055A0008093BC001092CF07089558985998809125
:1055B000B90081608093B9008091B90082608093C6
:1055C000B9008091BC0080688093BC008091BC00D1
:1055D00080618093BC008091BC008F7B8093BC0075
:1055E0008091BC008F7D8093BC008091BC00877F40
:1055F0008093BC008091470890914808A091490889
:10560000B0914A0886FD14C08091470890914808DF
:10561000A0914908B0914A0890FD0AC080914708BE
:1056200090914808A0914908B0914A0893FF04C09E
:105630008091BC008B7F03C08091BC00846080930C
:10564000BC008091BC008E7F8093BC008091640080
:105650008068809364000895882349F01092C607FB
:105660001092C7071092C8071092C90713C0809103
:10567000C6079091C707A091C807B091C9070196C6
:10568000A11DB11D8093C6079093C707A093C807BB
:10569000B093C9078091C6079091C707A091C8072A
:1056A000B091C907803A9648A140B10560F01092C8
:1056B000C6071092C7071092C8071092C9070E9428
:1056C000892A81E0089580E0089585ED8093BC00EB
:1056D00081E00E942C2B08C080E00E942C2B8823A4
:1056E00019F01092CF0708958091BC0084FDF4CF8B
:1056F000F8CFFF920F931F93CF93DF93182F062FAE
:10570000F72EC42FD22F81E0413208F051C00E9401
:105710002C2B15C080E00E942C2B882381F082E086
:105720008093CF078FEF8093CA071092CE07C09364
:105730003008E02FFF2D60ED77E0DB0107C080919E
:10574000CF078111E7CFEBCF81918D938A2F861BF5
:105750008C17D0F3812F90E0880F991F8093310828
:1057600085EE8093BC0081E00E942C2BD11105C0F6
:105770008091CA078F3F59F414C08091CF078230BF
:10578000B9F780E00E942C2B81110DC0F6CF8091DB
:10579000CA07803251F08091CA07803341F483E018
:1057A00007C080E005C085E003C082E001C084E05E
:1057B000DF91CF911F910F91FF9008950F931F9349
:1057C000CF93DF93082FD62F172FC42F81E04132BC
:1057D000E0F50E942C2B1DC080E00E942C2B88231A
:1057E000C1F081E08093CF078FEF8093CA071092BA
:1057F000CE07C0933008802F90E0880F991F8160FA
:105800008093310885EE8093BC0081E00E942C2BB0
:1058100010C08091CF078111DFCFE3CF80E00E94DD
:105820002C2B882331F080ED97E0ED2FF12FDC0158
:1058300007C08091CF07813089F3F5CF2D91219357
:105840002A2F281B2C17D0F380E0DF91CF911F91D6
:105850000F9108951F920F920FB60F9211240BB65D
:105860000F922F933F934F935F936F937F938F93F9
:105870009F93AF93BF93CF93EF93FF93C091B900E2
:10588000C87FC03609F49FC058F5C83209F45BC020
:1058900090F4C03109F452C038F4CC2309F4F2C0BA
:1058A000C83009F0F3C04AC0C83109F44CC0C03256
:1058B00009F0ECC05DC0C03409F473C038F4C033E3
:1058C00009F45BC0C83309F0E1C05AC0C03509F41F
:1058D0005CC0C83509F46AC0C83409F0D7C0D4C068
:1058E000C83909F4C5C0A8F4C83709F46CC038F445
:1058F000C83609F468C0C03709F0C8C064C0C838E9
:1059000009F4B6C0C03909F464C0C03809F0BEC09B
:1059100060C0C03B09F484C038F4C03A09F46BC0DD
:10592000C83A09F0B3C07CC0C03C09F4A5C0C83C6B
:1059300009F4A2C0C83B09F0A9C087C08091310812
:105940008093BB0013C09091CE07809130089817C8
:1059500008F09AC08091CE07E82FF0E0E053F84FAE
:1059600090819093BB008F5F8093CE0785EC81C0C0
:105970000E94652BC093CA0789C0C093CA0784C020
:10598000C093CA070E94CF2A81C08091CE07909110
:10599000BB00E82FF0E0E053F84F90838F5F8093D7
:1059A000CE079091CE07809130085FC08091CE07DE
:1059B0009091BB00E82FF0E0E053F84F90838F5FA9
:1059C0008093CE0761C083E08093CF071092CB070E
:1059D000CDCF8091CB07803208F04AC08091CB07B1
:1059E0009091BB00E82FF0E0E05FF74F90838F5F6E
:1059F0008093CB07BBCF8091CB07803230F4E0910E
:105A0000CB07F0E0E05FF74F10826091CB07E091A9
:105A10003208F091330870E080E198E009952CC0DD
:105A200084E08093CF071092CD071092CC07E091CD
:105A30003408F091350809958091CC07811105C093
:105A400081E08093CC071092F0078091CD07E82F7A
:105A5000F0E0E051F84F90819093BB008F5F80930E
:105A6000CD079091CD078091CC07981708F47ECF91
:105A700085E88093BC000AC085EC8093BC0010923E
:105A8000CF0704C01092CA070E94652BFF91EF91C7
:105A9000CF91BF91AF919F918F917F916F915F91C6
:105AA0004F913F912F910F900BBE0F900FBE0F9013
:105AB0001F90189510923B0882E0809337088CE184
:105AC00080933C0880EC91E090933E0880933D08E1
:105AD0000895A29FB001B39FC001A39F01D0B29FC0
