:100000000C94C2010C9413150C9444150C947515A2
:100010000C94A6150C94D7150C9408160C9439164C
:100020000C946A160C94F1010C94F1010C94F101FA
:100030000C94CD120C94F1010C94F1010C94291341
:100040000C94F1010C94F1010C94F1010C94F10168
:100050000C94F1010C94F1010C94F1010C94041333
:100060000C94F1010C941F170C94F1010C94F10104
:100070000C94F1010C94F1010C94F1010C94F10138
:100080000C94F1010C94F1010C94F1010C94F10128
:100090000C945A170C94F1010C94F1010C94511921
:1000A0000C94F1010C94F1010C94F1010C94F10108
:1000B0000C94F1010C94F1010C94F1010C94F101F8
:1000C0000C94F1010C94F1010C94F101F40008017D
:1000D0002E01550175018D019B01AB01C001D601B7
:1000E000E701F301FA01170235024B0259026902D6
:1000F0008C029202416C61726D204D6F6465206DBF
:1001000061746368657320005B446179203A2068FC
:100110006F757273203A206D696E75746573203A3D
:10012000207365636F6E64735D202D3E20005B4419
:10013000617465203A20686F757273203A206D698A
:100140006E75746573203A207365636F6E64735DBA
:10015000202D3E20005B486F757273203A206D6938
:100160006E75746573203A207365636F6E64735D9A
:10017000202D3E20005B4D696E75746573203A201A
:100180007365636F6E64735D202D3E20005B536565
:10019000636F6E64735D202D3E20004F6E6365209B
:1001A000706572207365636F6E6400496E636F7271
:1001B0007265637420616C61726D206D6F6465009F
:1001C0005B253032753A253032753A253032753A32
:1001D000253032755D005B253032753A2530327539
:1001E0003A253032755D005B253032753A25303264
:1001F000755D005B253032755D005B446179203AA6
:1002000020686F757273203A206D696E757465731E
:10021000205D202D3E20005B44617465203A2068FB
:100220006F757273203A206D696E75746573205D09
:10023000202D3E20005B486F757273203A206D6957
:100240006E757465735D202D3E20005B4D696E7583
:100250007465735D202D3E20004F6E6365207065D0
:1002600072206D696E7574650025732C20253032FF
:10027000752F253032752F253032752C20253032E0
:10028000753A253032753A25303275006572726FD5
:10029000720025303275256325303275256325308F
:1002A0003275256325303275256325303275256317
:1002B00025303275256325303275000000080900AD
:1002C000000000000000000000000000000000002E
:1002D000000000000000000000000000000000001E
:1002E000000000000000000000000000000001020B
:1002F000081010204080040810204002020408105A
:1003000020408001028020400420010102040810E6
:10031000200140804080010208040880041004028B
:100320000105050505030303030101010404030698
:10033000060606060606060104050105010302027B
:10034000020202020102020505040403040401037F
:100350000407070700202326292C2F3200222528F6
:100360002B2E3134002124272A2D30336364696E0B
:100370006F70737578585B00510CD10D7E0EBA12F8
:10038000811AA81A11241FBECFEFD1E2DEBFCDBF64
:1003900012E0A0E0B2E0E2EEF5E400E00BBF02C044
:1003A00007900D92A43BB107D9F71AE0A4EBB2E095
:1003B00001C01D92AE37B107E1F713E0C4E8D3E006
:1003C00000E006C022970109FE010BBF0E94B41B8A
:1003D000C837D10780E00807A9F70E94BE020C9435
:1003E000EF220C94000082EC93E00E94DE0D87E285
:1003F00093E00C94C60A4F925F926F927F928F9215
:100400009F92AF92BF92CF92DF92EF92FF920F93A3
:100410001F93CF93DF936BE072E087E293E00E943B
:10042000440B87E293E00E94A209AB01BC01409318
:100430001F0350932003609321037093220328E14C
:1004400033E087E293E00E94C10988E1682E83E0EF
:10045000782EF30180811F928F9399E1892E93E08A
:10046000992EF40180811F928F932AE1A22E23E01E
:10047000B22EF50180811F928F933BE1C32E33E0B2
:10048000D32EF60180811F928F9380911C031F92BF
:100490008F934DE1E42E43E0F42EF70180811F920B
:1004A0008F930EE113E0F80180811F928F93C0E2D9
:1004B000D2E0DF93CF9354EB452E52E0552E5F925E
:1004C0004F920E94801C63E472E082EC93E00E94F1
:1004D0006B0EB20182EC93E00E94550EF301708026
:1004E000F4019080F501B080F6012081F701408190
:1004F000F801608130E050E070E087E293E00E9414
:10050000D2061F927F921F929F921F92BF929F933B
:100510008F93F60180811F928F93F70180811F9244
:100520008F93F80180811F928F93DF93CF935F9217
:100530004F920E94801CEDB7FEB7B4960FB6F894A8
:10054000FEBF0FBEEDBF6FE472E082EC93E00E944D
:100550006B0EB20182EC93E0DF91CF911F910F916E
:10056000FF90EF90DF90CF90BF90AF909F908F90D3
:100570007F906F905F904F900C94550E0E94D9130E
:1005800087EC93E00E94DD0F853440F061E081E369
:100590000E946E1461E081E30E94871461E070E0C4
:1005A00087EC93E00E94B90E8130B1F480916C0623
:1005B00090916D06A0916E06B0916F069068809341
:1005C0006C0690936D06A0936E06B0936F0660E084
:1005D00081E090E00E94C02187E20E94CD14892B27
:1005E00059F160E070E087EC93E00E94B90E8A3028
:1005F00019F5C1C06CE3629FA001639F500D1124E7
:10060000840F951F0EC02115310559F06CE3629FD0
:10061000A001639F500D11249A01205F314F820F7A
:10062000931F039748F480917B0690917C0680622B
:1006300090937C0680937B0687E293E00E94C60A33
:1006400087E293E00E94960887E293E00E94A50863
:1006500087E293E00E94130463E070E080E090E0A2
:100660000E94A01380916C0690916D06A0916E0679
:10067000B0916F06A1FF5EC063E070E080E090E0A3
:100680000E94A01361E086E10E946E1463E070E0B6
:1006900080E090E00E94A01361E086E10E94871450
:1006A00063E070E080E090E00E94A0130E94C50C1F
:1006B00063E070E080E090E00E94A01381E00E947F
:1006C000E80C63E070E080E090E00E94A01384E01A
:1006D0000E94F60C63E070E080E090E00E94A013BE
:1006E00080E00E94F10C63E070E080E090E00E9406
:1006F000A0130E94E40C63E070E080E090E00E94B0
:10070000A01366E08CEB93E00E94010D63E070E0C3
:1007100080E090E00E94A01361E086E10E946E14E8
:1007200060E086E10E94871463E070E080E090E082
:100730000E94A01363E070E080E090E00E94A013AC
:1007400087EC93E00E94B70F609323037093240318
:100750008093250390932603809123039091240393
:10076000A0912503B09126030E940C1C0E94F30166
:100770000E94FB01FDCF87E293E00E94C60A87E258
:1007800093E00E94270787E293E00E941C07809174
:10079000400390E020914203821B910920913F0386
:1007A00030E040914303241B3109121613060CF468
:1007B00021CF29CF8091CE03882341F08091A304DB
:1007C000811104C08AEB93E00C94B90C08950F9347
:1007D0001F93CF93DF93EC01042F68A761E080E3C0
:1007E0000E946E1418A5112379F0113091F461E084
:1007F00080E30E948714013019F482E08B8B09C0DA
:10080000011107C01B8B05C060E080E30E948714C4
:100810001B8A6AE070E080E090E0DF91CF911F9149
:100820000F910C94A013CF93DF93EC010E94DA0395
:1008300040E060E0CE01DF91CF910C94E703FC0132
:10084000148A158A168A178A108E118E128E138EAC
:10085000148E158E168E178E10A211A212A213A23C
:1008600014A215A216A217A20895EF92FF920F9359
:100870001F93CF93DF93CDB7DEB7EC970FB6F89405
:10088000DEBF0FBECDBF8C01EEEEF0E085919491FE
:10089000BC01EE24E394F12CEC0EFD1EC7010E9476
:1008A000171CE0EFF0E085919491BC01CE01899690
:1008B0000E94171CF8018689843009F466C040F450
:1008C000823029F108F04BC0813009F0B6C009C070
:1008D000863009F486C008F46EC0873009F0ADC0D8
:1008E00096C0F801818D1F928F93808D1F928F93F8
:1008F00087891F928F93828D1F928F9385891F9274
:100900008F9384891F928F938BE592E015C0F80135
:10091000818D1F928F93808D1F928F9387891F9255
:100920008F93828D1F928F9385891F928F938489D5
:100930001F928F938FE592E09F938F93FF92EF9298
:100940001F9284E68F93C80189969F938F930E948C
:10095000431C0FB6F894DEBF0FBECDBF81C0F801B7
:10096000818D1F928F93808D1F928F9387891F9205
:100970008F93828D1F928F9385891F928F93848985
:100980001F928F9383E692E0D7CFF801818D1F925B
:100990008F93808D1F928F9387891F928F93828D63
:1009A0001F928F9385891F928F9384891F928F93B3
:1009B00087E692E0C1CFF801818D1F928F93808DE1
:1009C0001F928F9387891F928F93828D1F928F938F
:1009D00085891F928F9384891F928F938BE692E073
:1009E000ABCFF801818D1F928F93808D1F928F93D3
:1009F00087891F928F93828D1F928F9385891F9273
:100A00008F9384891F928F938FE692E095CFF801A0
:100A1000818D1F928F93808D1F928F9387891F9254
:100A20008F93828D1F928F9385891F928F938489D4
:100A30001F928F9383E792E07FCFCE0189969F9399
:100A40008F931F9284E68F93C80189969F938F930B
:100A50000E94431C0F900F900F900F900F900F90DB
:100A6000075D1F4FC801EC960FB6F894DEBF0FBEAE
:100A7000CDBFDF91CF911F910F91FF90EF9008951F
:100A8000CF92DF92EF92FF920F931F93CF93DF935A
:100A90008C01C62E8091CE03811104C088EC93E0B6
:100AA0000E94231168E670E088EC93E00E945011E8
:100AB00060E070E088EC93E00E947C1288EC93E0A8
:100AC0000E947E1243E150E068E670E088EC93E01B
:100AD0000E94B812E12CF12CC0E0D0E0D12CE4C08F
:100AE00088EC93E00E945811F801EC0FFD1F808301
:100AF000C630D10509F467C098F4C230D10509F4B5
:100B00003EC038F4209729F1C130D10509F0C7C0A3
:100B10002BC0C430D10509F440C008F049C03AC028
:100B2000CA30D10509F484C048F4282F30E0C83019
:100B3000D10509F461C008F06DC050C0CC30D105BA
:100B400009F492C008F482C0CD30D10509F0A7C0E5
:100B500099C0982F92959F708F702AE0929F800D78
:100B60001124F801818F9BC0982F92959F708F70F0
:100B7000FAE09F9F800D1124F801808F90C0982F7C
:100B800092959F708F70FAE09F9F800D1124F8015D
:100B9000878B85C0F801868B82C0982F92959F70B5
:100BA0008F70FAE09F9F800D1124F801828F77C02B
:100BB000982F92959F708F70FAE09F9F800D11245F
:100BC000F801858B6CC0982F92959F708F70FAE01A
:100BD0009F9F800D1124F801848B61C054E03595EE
:100BE00027955A95E1F727708F70FAE02F9F800DB7
:100BF0001124F801838F53C044E0359527954A9519
:100C0000E1F727708F70FAE02F9F800D1124F80113
:100C1000848F45C094E0359527959A95E1F7237028
:100C20008F70FAE02F9F800D1124F801858F37C057
:100C3000282F2695269526952670922F990F990F85
:100C4000920F8F70980FF801968F29C0282F269544
:100C5000269526952E70922F990F990F920F8F70CF
:100C6000980FF801978F1BC0282F2695269526955B
:100C70002670922F990F990F920F8F70980FF8018D
:100C800090A30DC0282F2695269526952670922F85
:100C9000990F990F920F8F70980FF80191A32196D9
:100CA00003C0FFEFEF1AFF0ACC16DD0658F02AE06A
:100CB000E216F10438F488EC93E00E945211882384
:100CC00081F30ECFDF91CF911F910F91FF90EF90A5
:100CD000DF90CF9008951F93CF93DF93EC01162FF1
:100CE0008091CE03811104C088EC93E00E9423110F
:100CF00068E670E088EC93E00E945011612F88EC68
:100D000093E00E945012C10FD11D688188EC93E0DE
:100D10000E94501288EC93E0DF91CF911F910C94C8
:100D20007E12FF920F931F93CF93DF938C01F62EC9
:100D30008091CE03811104C088EC93E00E942311BE
:100D400068E670E088EC93E00E9450116F2D88EC0B
:100D500093E00E94501288EC93E00E947E1241E0E2
:100D600050E068E670E088EC93E00E94B812CBE0B7
:100D7000D0E088EC93E00E945211811102C02197CB
:100D8000C1F788EC93E00E945811F801EF0DF11DB6
:100D9000808388EC93E0DF91CF911F910F91FF90BA
:100DA0000C947E120F931F93CF93DF938A01C90196
:100DB00001974F97C8F5CA0101970C97A8F581E0F4
:100DC00090E04330510514F080E090E0EB01C81B47
:100DD000D90BFE01D7FD3396F595E795F595E79587
:100DE000EC0FFD1FCE016CE97FEF0E94EB1AE60FBE
:100DF000F71FCE0160E971E00E94EB1AE60FF71FC2
:100E0000D801AA0FBB1FA257BD4F8D919C91E80F2F
:100E1000F91FE20FF31FCF0167E070E00E94EB1AA9
:100E20009C012F5F3F4F02C021E030E0C901DF91FC
:100E3000CF911F910F910895CF93DF93EC0166E05E
:100E40000E944005CE01DF91CF910C943504CF92E2
:100E5000DF92EF92FF920F931F93CF93DF93CDB763
:100E6000DEB7C857D1090FB6F894DEBF0FBECDBFAD
:100E70007C016AE00E9440058701075D1F4F84E600
:100E8000F80111928A95E9F7ECECF0E085919491E4
:100E9000BC01CE018F5A9F4F0E94171CBE016F5A92
:100EA0007F4FC8010E941E1CF70182A1823009F405
:100EB0006AC030F4882369F0813009F00BC122C088
:100EC000843009F4C7C008F493C0853009F002C12A
:100ED000F0C0EEECF0E085919491BC01CE018F5A08
:100EE0009F4F0E94171CBE016F5A7F4FC8010E947E
:100EF0001E1CECEDF0E0859194916E01F9E2CF0EAD
:100F0000D11C18C0E0EDF0E085919491BC01CE01B8
:100F10008F5A9F4F0E94171CBE016F5A7F4FC80106
:100F20000E941E1CECEDF0E0859194916E01E9E2C7
:100F3000CE0ED11CBC01C6010E94171CF701838D87
:100F40001F928F93848D1F928F93858D1F928F9305
:100F5000868D1F928F93DF92CF921F9288E28F939C
:100F6000EE24E394F12CEC0EFD1EFF92EF920E9412
:100F7000431CB701C8010E941E1C0FB6F894DEBFC7
:100F80000FBECDBFC2C0E2EDF0E085919491BC01EF
:100F9000CE018F5A9F4F0E94171CBE016F5A7F4F80
:100FA000C8010E941E1CEEEDF0E0859194916E0147
:100FB000E9E2CE0ED11CBC01C6010E94171CF7014C
:100FC000838D1F928F93848D1F928F93858D1F9297
:100FD0008F93DF92CF921F9288E28F93EE24E39457
:100FE000F12CEC0EFD1EFF92EF920E94431CC1CF2C
:100FF000E4EDF0E085919491BC01CE018F5A9F4FB2
:101000000E94171CBE016F5A7F4FC8010E941E1C10
:10101000E0EEF0E0859194916E01E9E2CE0ED11CF4
:10102000BC01C6010E94171CF701838D1F928F938C
:10103000848D1F928F93DF92CF921F9288E28F93BD
:10104000EE24E394F12CEC0EFD1EFF92EF920E9431
:10105000431C8FCFE6EDF0E085919491BC01CE0169
:101060008F5A9F4F0E94171CBE016F5A7F4FC801B5
:101070000E941E1CE2EEF0E0859194916E01E9E27F
:10108000CE0ED11CBC01C6010E94171CF701838D36
:101090001F928F93DF92CF921F9288E28F93EE245C
:1010A000E394F12CEC0EFD1EFF92EF920E94431C84
:1010B00060CFE8EDF0E085919491BC01CE018F5AAC
:1010C0009F4F0E94171CBE016F5A7F4FC8010E949C
:1010D0001E1C1BC0EAEDF0E0859194917E01E1E5D4
:1010E000EE0EF11CBC01C7010E94171CFF92EF928B
:1010F0001F9284E68F931F930F930E94431C0F90BF
:101100000F900F900F900F900F90C801C858DF4FAD
:101110000FB6F894DEBF0FBECDBFDF91CF911F9108
:101120000F91FF90EF90DF90CF900895CF93DF93D2
:10113000EC016EE00E9491068E858E7F8E876EE0B8
:10114000CE01DF91CF910C946B06CF93DF93EC012E
:101150006EE00E9491068E858D7F8E876EE0CE01B7
:10116000DF91CF910C946B062F923F924F925F923A
:101170006F927F928F929F92AF92BF92CF92DF92A7
:10118000EF92FF920F931F93CF93DF931C01162FC3
:10119000742E622E5E2C4C2C6C018DE8C80ED11C76
:1011A000A62FB0E020E833E341EE51E00E94B81AE8
:1011B00060587C4B8249974CE601688379838A8327
:1011C0009B83E0E0F0E07D0124E630E050E9852EED
:1011D0009924939424C0CF0183709927892BF1F42B
:1011E0005F01D0E3AD1AD8EFBD0AC501B9010E9475
:1011F000EB1A892B31F4C501B4010E94EB1A892B3B
:1012000069F4E60188819981AA81BB8180589E4A50
:10121000AE4FBF4F88839983AA83BB833196EE1567
:10122000FF05CCF2D0E3ED1AD8EFFD0AC70164E662
:1012300070E00E94EB1A6C01C70160E971E00E9446
:10124000EB1A7C01E1E0F0E0A72CB12CE101C357DF
:10125000DF4F137030C0E230F105A9F4111113C053
:10126000C114D10419F4E114F10469F4888199815D
:10127000AA81BB818058944CA94DBF4F8883998324
:10128000AA83BB8317C0DF01A955BD4FAC91B0E065
:1012900020E831E541E050E00E94B81A2881398108
:1012A0004A815B81620F731F841F951F6883798356
:1012B0008A839B833196EA15FB056CF2202F30E080
:1012C000A0E1BEE00E94AC1A6B017C01888199818B
:1012D000AA81BB81C80ED91EEA1EFB1EA62DB0E056
:1012E000119720E831E541E050E00E94C31AC60E94
:1012F000D71EE81EF91E252D30E0ACE3B0E00E94B9
:10130000AC1AC60ED71EE81EF91EC40CD11CE11C77
:10131000F11CC882D982EA82FB82B601C701DF9143
:10132000CF911F910F91FF90EF90DF90CF90BF90E2
:10133000AF909F908F907F906F905F904F903F9075
:101340002F900895CF92EF920F93CF93DF93EC01FC
:1013500087E293E00E941C07C0904003E0903F03A7
:1013600000913E032091410340913C0360913B0377
:10137000CE010E94B408DF91CF910F91EF90CF90F2
:1013800008952F923F924F925F926F927F928F9229
:101390009F92AF92BF92CF92DF92EF92FF920F9304
:1013A0001F93CF93DF93E901ECE3CE2ED12CE12CF8
:1013B000F12CCB01BA01A70196010E94FF1A6883A4
:1013C000CA01B901A70196010E94FF1A6983CA01E7
:1013D000B90128E130E040E050E00E94FF1A190115
:1013E0002A016A83CA01B9016C5F7F4F8F4F9F4FFB
:1013F00027E030E040E050E00E94FF1A6F5F6B830F
:10140000812C912C540120E004E610E0F0E96F2ECD
:101410007724739401C02F5FE22FF0E0EE54F84F71
:1014200063E0E62EF12CEE22FF22E114F10489F4B0
:10143000CF01B8010E94EB1A892B29F08EE691E0CA
:10144000A0E0B0E00AC0CF01B3010E94EB1A892BE3
:10145000A9F38DE691E0A0E0B0E0880E991EAA1EE7
:10146000BB1ED501C401AA27BB27281639064A0688
:101470005B0688F62E512E83E114F10499F4CF0116
:1014800064E670E00E94EB1A892B29F08EE691E069
:10149000A0E0B0E00BC0CF0160E971E00E94EB1A60
:1014A000892BA1F38DE691E0A0E0B0E0881A990ABB
:1014B000AA0ABB0A92018101081919092A093B09E4
:1014C000CF0164E670E00E94EB1A6C01CF0160E985
:1014D00071E00E94EB1AE8EAF2E0A0E0A13059F4D2
:1014E000E114F10451F4C114D10411F04DE106C02E
:1014F0000097E1F302C0408101C04CE150E060E0A0
:1015000070E0041715072607370740F0041B150B7A
:10151000260B370BAF5F3196AC3001F7AF5FAD8371
:101520000F5F0C83DF91CF911F910F91FF90EF9090
:10153000DF90CF90BF90AF909F908F907F906F90F3
:101540005F904F903F902F900895CF93DF93EC01E1
:101550006FE00E9491068F858370DF91CF9108958F
:10156000CF93DF93EC010E94A50A882319F0CE5691
:10157000DF4F8883809136038C7F809336036FE042
:1015800087E293E0DF91CF910C946B06CF93DF93CA
:10159000EC0140E061E00E94E703CE010E94B00A46
:1015A000CE010E941F046DE0CE010E94400561E063
:1015B0008BE20E946E1460E08BE2DF91CF910C947D
:1015C0008714362F862F6AE00E94CB1A292F832F8B
:1015D00090E0821B91096AE070E00E94EB1AB4E08F
:1015E000660F771FBA95E1F7822F862B08950F9328
:1015F0001F93CF93DF93EC018091CE03811104C040
:1016000088EC93E00E94231168E670E088EC93E098
:101610000E94501160E070E088EC93E00E947C1220
:10162000698DCE010E94E10A8883688DCE010E94F7
:10163000E10A89836F89CE010E94E10A8A838E893B
:101640008B836A8DCE010E94E10A8C836D89CE0165
:101650000E94E10A8D836C89CE010E94E10A8E838B
:1016600000E010E0699188EC93E00E9450120F5F57
:101670001F4F07301105B1F788EC93E0DF91CF9150
:101680001F910F910C947E12AF92BF92CF92DF9276
:10169000EF92FF920F931F93CF93DF93CDB7DEB7F7
:1016A000ED970FB6F894DEBF0FBECDBF8C01B62EFE
:1016B000A72E7E0129E2E20EF11C87E0F7011192CC
:1016C0008A95E9F7E2EFF0E085919491BC01CC2492
:1016D000C394D12CCC0EDD1EC6010E94171CEB2D2D
:1016E000FA2DDF010D900020E9F75597AE17BF07DF
:1016F00011F081E0C5C0CE01C0969F938F93CE01BB
:101700008E969F938F93CE01C2969F938F93CE0117
:101710008D969F938F93CE01C4969F938F93CE0106
:101720008C969F938F93CE01C6969F938F93CE01F5
:101730008B969F938F93CE01C8969F938F93CE01E4
:101740008A969F938F93CE01CA969F938F93FF9211
:10175000EF92CE01CC969F938F93DF92CF92AF9270
:10176000BF920E94AF1C69E872E0C7010E94291C69
:101770000FB6F894DEBF0FBECDBF892B09F4B9CFE9
:101780008CAD9DAD8436910508F0B3CFF801848B04
:101790002AAD3BADA901415051094C30510508F02B
:1017A000A8CF258B213061F0233051F0253041F056
:1017B000273031F0283021F02A3011F02C3029F474
:1017C00088AD99AD809770F194CF243031F02630F8
:1017D00021F0293011F02B3029F488AD99AD4F97C5
:1017E00008F187CF2230F1F4282F2370B1F49C0147
:1017F0002053384FC90164E670E00E94EB1A892B30
:1018000039F4C90160E971E00E94EB1A892B29F4CF
:1018100088AD99AD4E9730F06CCF88AD99AD4D97AE
:1018200008F067CF88AD99AD9C01215031092F3167
:10183000310508F05ECFF801828F8EA99FA99C0127
:10184000215031092730310508F053CF868B8CA900
:101850009DA98831910508F04CCF878B8AA99BA957
:101860008C33910508F045CF808F88A999A98C33D6
:10187000910508F03ECF818FC8010E94F70A80E0F1
:10188000ED960FB6F894DEBF0FBECDBFDF91CF91BE
:101890001F910F91FF90EF90DF90CF90BF90AF908E
:1018A00008951092B80310923A0308951F93CF93AE
:1018B000DF931F92CDB7DEB7162F61E08AE149832F
:1018C0000E946E1461E088E10E946E144981112328
:1018D00021F0113009F048C020C041110EC061E074
:1018E0008AE10E94871480916C0690916D06A09108
:1018F0006E06B0916F0682602FC04130A9F560E09E
:101900008AE10E94871480916C0690916D06A091E7
:101910006E06B0916F068D7F1FC041110EC061E051
:1019200088E10E94871480916C0690916D06A091C9
:101930006E06B0916F0681600FC04130A9F460E07F
:1019400088E10E94871480916C0690916D06A091A9
:101950006E06B0916F068E7F80936C0690936D0635
:10196000A0936E06B0936F060F90DF91CF911F91F9
:10197000089561E089E20E946E1461E088E20E94AD
:101980006E1488EC93E00C94691161E08EE10E9482
:101990006E1461E08FE10E946E1461E08DE10E949F
:1019A0006E1460E08EE10E94871460E08FE10E9477
:1019B000871461E08DE10E9487148CB580618CBD35
:1019C0008CB580648CBD08958CB58F7B8CBD0895DB
:1019D000811103C08CB5806202C08CB58F7D8CBD37
:1019E00008959CB5937F982B9CBD08952CB5982F96
:1019F00093702C7F922B9CBD9DB580FB90F99DBD73
:101A00000895CF93C62F61E08DE10E946E1461E0CE
:101A100082E20E946E1461E08DE10E94871461E011
:101A200082E20E94871480916C0690916D06A091CD
:101A30006E06B0916F06A2FF08C061E088E00E94C8
:101A40006E1461E088E00E94871480916C0690918A
:101A50006D06A0916E06B0916F0696FF08C061E01A
:101A600089E00E946E1461E089E00E9487148091F1
:101A70006C0690916D06A0916E06B0916F06A3FF63
:101A800008C061E082E00E946E1461E082E00E9482
:101A9000871480916C0690916D06A0916E06B091AE
:101AA0006F06A4FF08C061E082E20E946E1461E04C
:101AB00082E20E948714C330C9F020F4C13061F083
:101AC00070F407C0C53061F1F0F0C63009F067C0AE
:101AD00033C060E08DE160C060E082E25DC087EC11
:101AE00093E00E94A10E60E08CE256C080916C06EB
:101AF00090916D06A0916E06B0916F06A2FF4FC047
:101B000060E088E049C080916C0690916D06A091DC
:101B10006E06B0916F0696FF42C060E089E03CC05F
:101B200080916C0690916D06A0916E06B0916F0643
:101B3000A3FF35C060E02FC061E08DE10E948714F3
:101B400061E082E20E94871480916C0690916D069C
:101B5000A0916E06B0916F06A2FF04C061E088E01C
:101B60000E94871480916C0690916D06A0916E067C
:101B7000B0916F0696FF04C061E089E00E9487146F
:101B800080916C0690916D06A0916E06B0916F06E3
:101B9000A3FF05C061E082E0CF910C948714CF9140
:101BA00008951092BD031092BC031092BE031092D0
:101BB000BF031092C0031092C1030895FC0140813D
:101BC00060E072EC81E090E00E949B1661E087E1AA
:101BD0000E946E1461E087E10E94871461E08BE04F
:101BE0000E946E1460E08BE00E94871461E08DE239
:101BF0000E946E1460E08DE20C948714DC018091E9
:101C0000C50011968C9311978091C40012968C9305
:101C10001297E2ECF0E0808113968C9313978091F9
:101C2000CA0014968C93149780818F7D8083808165
:101C30008F7E80838081877F80834C9160E072EC0F
:101C400081E090E00E949B1661E087E10E9487148A
:101C500060E08BE00C948714CF93DF93EC0140910C
:101C60006C0650916D0660916E0670916F0663E090
:101C700070E080E090E042FF07C00E94A01361E0A6
:101C80008BE00E94871402C00E94A0138981809378
:101C9000C5008A818093C4008B818093C2008C81AF
:101CA0008093CA00DF91CF9108950F931F93CF9334
:101CB000DF93EC018B010E94FE0D6881C8010E9438
:101CC000A01788810E949517CE01DF91CF911F91B7
:101CD0000F910C942C0E0F931F93CF93DF93EC0175
:101CE0008B010E94FE0D6881C8010E94A017CE01E1
:101CF000DF91CF911F910F910C942C0E1092C20383
:101D000008951F93CF93DF931F92CDB7DEB7162FA1
:101D100061E0812F49830E946E144981413011F4A2
:101D200061E003C0411108C060E0812F0F90DF9196
:101D3000CF911F910C9487140F90DF91CF911F9139
:101D4000089561E087E10E946E1461E084E20E94E0
:101D50006E1461E085E20E946E1461E087E10E94EA
:101D6000871461E084E20E94871461E085E20C94AC
:101D70008714CB010C94B2218F929F92AF92BF92A5
:101D8000CF92DF92EF92FF920F931F93CF93DF9347
:101D9000CDB7DEB7C75FD1090FB6F894DEBF0FBE6F
:101DA000CDBF8E0100511F4F580128E0A20EB11C7B
:101DB0007E0181E8E80EF11CCC24C394D12CCC0E1A
:101DC000DD1E6DE0CE018F519F4F0E94051140E056
:101DD0006CE087EC93E00E94810E40E06DE087ECC0
:101DE00093E00E94810EF801108211821282138208
:101DF00061E08CE00E946E1461E08CE00E94871428
:101E0000CE018F519F4F0E94E50F41E06DE087ECBE
:101E100093E00E94810E6AE070E080E090E00E9412
:101E2000A01340E063E3CE018F519F4F0E94B61094
:101E300062E370E080E090E00E94A0134701CE01D1
:101E40008F519F4F0E948B10F2E08F1A9108F4017E
:101E50008083118261E070E080E090E00E94A01336
:101E60008C149D0461F7FE017196D701C60180595B
:101E70009F4F219131912D933D93E817F907C9F7B1
:101E800031EE832E912C8C0E9D1E81E090E0A0E01F
:101E9000B0E0F401329122914F012130310569F413
:101EA000F8014081518162817381480F591F6A1F77
:101EB0007B1F4083518362837383880F991FAA1FFE
:101EC000BB1F8E149F0429F7F80180819181A281A4
:101ED000B3818F3F9F4FAF4FBF4F29F4F80110825E
:101EE00011821282138260E08CE00E94871440E02D
:101EF0006CE087EC93E00E94810E40E06DE087EC9F
:101F000093E00E94810E0C5F1F4F0A151B0509F01C
:101F100058CFC051DF4F088119812A813B81C05FB2
:101F2000D040CC50DF4F88819981AA81BB81C45FAA
:101F3000D040081719072A073B0719F000E010E006
:101F40009801B801C901C950DF4F0FB6F894DEBF40
:101F50000FBECDBFDF91CF911F910F91FF90EF90FA
:101F6000DF90CF90BF90AF909F908F900895CF92C9
:101F7000DF92EF92FF920E94BC0E6B017C01611513
:101F800071058105910591F483EE90E00E94BA21DC
:101F90006A302AE072078207920741F06F3F2FEF05
:101FA00072078207920711F06B017C01B601C7012D
:101FB000FF90EF90DF90CF9008958FED90E00E941A
:101FC000B2218F3F09F480E00895CF92DF92EF9223
:101FD000FF921F93CF93DF93EC0160E08E850E9408
:101FE0006E140E944E136B017C011EE7115089F1A3
:101FF00082E090E00E94CA130E944E136C157D058A
:102000008E059F0520F40E944E136B017C018E8586
:102010000E94CD14892BF9F40E944E136C197D098E
:102020008E099F09643F714081059105F8F213C044
:102030000E944E136B017C011130C1F10E944E13BE
:102040006C197D098E099F09643F714081059105D6
:10205000D0F010E02BC061E08E850E946E1460E02D
:102060008E850E94871484E591E00E94CA130E9425
:102070004E136B017C018E850E94CD1411E0892BDB
:10208000D9F210E0D9CF8E850E94CD1411E0892BB2
:1020900009F010E089E090E00E94CA130E944E13FC
:1020A0006C157D058E059F0538F6C2CF812FDF9117
:1020B000CF911F91FF90EF90DF90CF9008951F93E5
:1020C000CF93DF93FC011081C181D281912F909534
:1020D000F8948A8189238A838981812B898360FF8F
:1020E0000BC089E090E00E94CA138A81812B8A8309
:1020F00078948FE290E00AC087E390E00E94CA13D0
:102100008A81812B8A83789485E090E0DF91CF915A
:102110001F910C94CA130F931F93CF93DF93FC016D
:102120001081C181D281F8948981812B89838A8130
:10213000012F009580238A8382E090E00E94CA13D9
:1021400089818023898387E090E00E94CA13C88137
:1021500078948DE290E00E94CA131C2381E009F478
:1021600080E0DF91CF911F910F910895CF92DF9280
:10217000EF92FF920F931F93CF93DF931F92CDB7F0
:10218000DEB76C01E62E08E010E0FF24F3949F2DEB
:102190009E2161E009F460E0C60149830E945F105E
:1021A000FF0C0150110949810115110581F74111F9
:1021B00015C0F894D6011196ED91FC91129791817A
:1021C0008C918095892381831196ED91FC911297D2
:1021D00092818C9180958923828378940F90DF91EE
:1021E000CF911F910F91FF90EF90DF90CF900895C6
:1021F000FC011386158614861286118610861782B6
:1022000016821582148213820895CF93DF93EC0116
:10221000862F6E8760E00E946E148E8590E0FC0130
:10222000E251FD4FE491E883FC01EF5DFC4FE49146
:10223000F0E0EC5AFC4FE491E9831A82CE01DF9181
:10224000CF910C94F810CF93DF93EC0180E2E6EF8E
:10225000F3E0DF01982F1D929A95E9F71092F503AC
:102260001092F403E3EDF3E0DF011D928A95E9F7A4
:102270001092D2031092D1030E94B01781E08E8396
:1022800084E090E0DF91CF910C94CA1381E08093B9
:10229000D0036093F3031092D2031092D1030895F8
:1022A0000C9446118091F4039091F503891B0895D5
:1022B0009091F5038091F403981748F4E92FF0E02A
:1022C000EA50FC4F80819F5F9093F503089580E072
:1022D0000895CF93DF93EC010E94FC171E82DF91DB
:1022E000CF91089540916C0650916D0660916E06F5
:1022F00070916F064170FC01408340916C065091D3
:102300006D0660916E0670916F067695679557958C
:1023100047954170418380916C0690916D06A09124
:102320006E06B0916F0684FD49C080916C06909155
:102330006D06A0916E06B0916F0685FD3FC080913D
:102340006C0690916D06A0916E06B0916F0686FDA9
:1023500035C080916C0690916D06A0916E06B0918B
:102360006F0687FD2BC080916C0690916D06A09141
:102370006E06B0916F0690FD21C080916C06909121
:102380006D06A0916E06B0916F0691FD17C0809109
:102390006C0690916D06A0916E06B0916F0693FD4C
:1023A0000DC0089540E060E08AEB93E00E94560C77
:1023B00040E061E08AEB93E00C94560C8091CF03EF
:1023C000882381F30895CF93DF93EC0180916C060D
:1023D00090916D06A0916E06B0916F0684FD58C075
:1023E00080916C0690916D06A0916E06B0916F067B
:1023F00085FD4EC080916C0690916D06A0916E0691
:10240000B0916F0686FD44C080916C0690916D0678
:10241000A0916E06B0916F0687FD3AC080916C0660
:1024200090916D06A0916E06B0916F0690FD30C040
:1024300040916C0650916D0660916E0670916F062A
:1024400051FD26C040916C0650916D0660916E065C
:1024500070916F0653FD1CC020C041E060E08AEB24
:1024600093E00E94560C0CC08981811106C041E0A6
:1024700060E08AEB93E00E94560C888181110DC0C8
:1024800041E061E08AEB93E0DF91CF910C94560C30
:102490008091CF038111E8CFE0CFDF91CF910895F4
:1024A000CF93DF931F92CDB7DEB769838091D003BE
:1024B000882389F08091D1038032D0F48091D203B7
:1024C000E82FF0E0ED52FC4F60838F5F8093D203E2
:1024D0008093D1030DC088EC93E00E94721161E0FB
:1024E000CE0101960E94DD1788EC93E00E94E31173
:1024F0000F90DF91CF9108950C945012CF9388ECF8
:1025000093E00E94721121E04091D10363ED73E0EA
:102510008091F3030E94A018C82F1092D20310924A
:10252000D1031092D00388EC93E00E94E3118C2F2A
:10253000CF910895CF93DF93D62FC42F88EC93E0EB
:102540000E947211C13208F0C0E24C2F66EF73E0B6
:102550008D2F0E940519D82F1092F503C093F40314
:1025600088EC93E00E94E3118D2FDF91CF910895C5
:102570000C949A121092CF031092C8031092C903C0
:102580008AEF90E0A0E0B0E08093CA039093CB0381
:10259000A093CC03B093CD0308951F920F920FB672
:1025A0000F9211240BB60F922F933F934F935F938B
:1025B0006F937F938F939F93AF93BF93EF93FF930B
:1025C000F89481E080930A02E0E6F0E08081806880
:1025D000808380818F7B808360E083E00E9487140A
:1025E0007894FF91EF91BF91AF919F918F917F91DF
:1025F0006F915F914F913F912F910F900BBE0F9074
:102600000FBE0F901F9018951F920F920FB60F924A
:1026100011248F939F93AF93BF9380916406909101
:102620006506A0916606B09167060196A11DB11DD1
:102630008093640690936506A0936606B093670640
:10264000BF91AF919F918F910F900FBE0F901F90F0
:1026500018951F920F920FB60F9211248F939F938C
:10266000AF93BF938091680690916906A0916A0626
:10267000B0916B060196A11DB11D809368069093E1
:102680006906A0936A06B0936B06BF91AF919F91C4
:102690008F910F900FBE0F901F9018958F929F9261
:1026A000AF92BF92CF92DF92EF92FF920F931F9360
:1026B000CF93DF932FB7F8948091640690916506CD
:1026C000A0916606B09167062FBF9C01AD0160E046
:1026D00070E080E090E001E00E949C1B4901D42F53
:1026E000C52FB62FA72FF82FE92F02E00E949C1BC1
:1026F00059016A017B018C0194014D2F5C2F6B2FD6
:102700007A2F8F2F9E2F0E94AB1BE9E0AE2EB12CAB
:10271000C12CD12CE12CF12C00E010E00E943F1BD9
:10272000952FB901842FDF91CF911F910F91FF90C9
:10273000EF90DF90CF90BF90AF909F908F900895D3
:102740008F929F92AF92BF92CF92DF92EF92FF92C1
:102750004B015C0107C00E944E136C157D058E0570
:102760009F0520F40E944E136B017C010E944E13C2
:102770006C197D098E099F09681579058A059B05E5
:1027800050F3FF90EF90DF90CF90BF90AF909F906D
:102790008F900895019761F0019751F0880F991F6C
:1027A000880F991F02972FB7F8940197F1F72FBF61
:1027B0000895789484B7877F84BF1092640610923E
:1027C0006506109266061092670684B5826084BD25
:1027D00084B5816084BD85B5826085BD85B5816025
:1027E00085BDEEE6F0E0808181608083E1E8F0E085
:1027F000808182608083808181608083E0E8F0E076
:10280000808181608083E1EBF0E08081846080835F
:10281000E1E9F0E0808184608083E0EBF0E080819A
:1028200081608083E0E9F0E0808181608083E4E67C
:10283000F0E080818E7F8083ECE7F0E080818F770D
:102840008083808180648083EAE7F0E08081846017
:102850008083808182608083808180688083109201
:10286000C1001092C900089590911604982B90937E
:10287000160480FF32C0809164008E7F80936400D4
:1028800080917C008F7780937C0080917C008064B5
:1028900080937C0080917A00846080937A0080919C
:1028A0007A00826080937A0080917A0080688093B9
:1028B0007A00809164008F77809364008091640037
:1028C0008B7F80936400809164008D7F809364008F
:1028D000809165008E7F80936500089590E0FC01F3
:1028E000E251FD4F2491FC01EF5DFC4FE491EE239A
:1028F00069F0F0E0EC59FC4FA491B0E08C916111CB
:1029000003C02095822301C0822B8C93089590E010
:10291000FC01E554FD4F2491FC01E251FD4F34913F
:10292000FC01EF5DFC4F84918823B1F1222331F14A
:10293000233021F4909180009F7705C0243031F43A
:10294000909180009F7D9093800018C0213019F4F1
:1029500094B59F7704C0223021F494B59F7D94BD37
:102960000DC0263021F49091B0009F7705C027302C
:1029700029F49091B0009F7D9093B000E82FF0E093
:10298000E45AFC4FA491B0E08C91611103C03095E2
:10299000832301C0832B8C93089590E0FC01E554C0
:1029A000FD4F2491FC01E251FD4F3491FC01EF5D9C
:1029B000FC4F8491882399F1222331F1233021F4B3
:1029C000909180009F7705C0243031F49091800071
:1029D0009F7D9093800018C0213019F494B59F77A3
:1029E00004C0223021F494B59F7D94BD0DC02630E3
:1029F00021F49091B0009F7705C0273029F4909181
:102A0000B0009F7D9093B000E82FF0E0EC5AFC4FAF
:102A1000E491F0E08081832321E030E011F420E0B4
:102A200030E0C90108951F920F920FB60F92112442
:102A30000BB60F922F933F934F935F936F937F93B8
:102A40008F939F93AF93BF93EF93FF93809117045E
:102A500090911804892B29F0E0911704F091180443
:102A60000995FF91EF91BF91AF919F918F917F91C8
:102A70006F915F914F913F912F910F900BBE0F90EF
:102A80000FBE0F901F9018951F920F920FB60F92C6
:102A900011240BB60F922F933F934F935F936F9335
:102AA0007F938F939F93AF93BF93EF93FF93809107
:102AB000190490911A04892B29F0E0911904F091DE
:102AC0001A040995FF91EF91BF91AF919F918F915A
:102AD0007F916F915F914F913F912F910F900BBE1E
:102AE0000F900FBE0F901F9018951F920F920FB668
:102AF0000F9211240BB60F922F933F934F935F9336
:102B00006F937F938F939F93AF93BF93EF93FF93B5
:102B100080911B0490911C04892B29F0E0911B04E7
:102B2000F0911C040995FF91EF91BF91AF919F9196
:102B30008F917F916F915F914F913F912F910F9066
:102B40000BBE0F900FBE0F901F9018951F920F9203
:102B50000FB60F9211240BB60F922F933F934F9302
:102B60005F936F937F938F939F93AF93BF93EF93F5
:102B7000FF9380911D0490911E04892B29F0E09110
:102B80001D04F0911E040995FF91EF91BF91AF9143
:102B90009F918F917F916F915F914F913F912F9175
:102BA0000F900BBE0F900FBE0F901F9018951F92A5
:102BB0000F920FB60F9211240BB60F922F933F93E3
:102BC0004F935F936F937F938F939F93AF93BF9335
:102BD000EF93FF9380911F0490912004892B29F09B
:102BE000E0911F04F09120040995FF91EF91BF91AE
:102BF000AF919F918F917F916F915F914F913F9195
:102C00002F910F900BBE0F900FBE0F901F90189535
:102C10001F920F920FB60F9211240BB60F922F93A3
:102C20003F934F935F936F937F938F939F93AF9354
:102C3000BF93EF93FF938091210490912204892BFD
:102C400029F0E0912104F09122040995FF91EF9180
:102C5000BF91AF919F918F917F916F915F914F91B4
:102C60003F912F910F900BBE0F900FBE0F901F90B2
:102C700018951F920F920FB60F9211240BB60F9258
:102C80002F933F934F935F936F937F938F939F9374
:102C9000AF93BF93EF93FF9380912304909124040B
:102CA000892B29F0E0912304F09124040995FF91E8
:102CB000EF91BF91AF919F918F917F916F915F91B4
:102CC0004F913F912F910F900BBE0F900FBE0F9021
:102CD0001F9018951F920F920FB60F9211240BB6EA
:102CE0000F922F933F934F935F936F937F938F93A5
:102CF0009F93AF93BF93EF93FF938091250490919F
:102D00002604892B29F0E0912504F09126040995E9
:102D1000FF91EF91BF91AF919F918F917F916F91B3
:102D20005F914F913F912F910F900BBE0F900FBE6F
:102D30000F901F901895CF92DF92EF92FF926B0148
:102D40007C01411134C088E00E943414C701B601EF
:102D500022E030E040E050E00E94211B305F414F14
:102D60005F4FCA01B901A70196010E94211BDA0138
:102D7000C9010197A109B109892F9A2FAB2FBB2750
:102D8000A7FDBA958093C50021502093C40080917F
:102D9000C10080618093C1008091C10088608093F0
:102DA000C1008091C10080688093C10033C080E180
:102DB0000E943414C701B60122E030E040E050E048
:102DC0000E94211B305F414F5F4FCA01B901A7012B
:102DD00096010E94211BDA01C9010197A109B109DD
:102DE000892F9A2FAB2FBB27A7FDBA958093CD00D3
:102DF00021502093CC008091C90080618093C9004C
:102E00008091C90088608093C9008091C900806862
:102E10008093C900FF90EF90DF90CF9008956111EB
:102E200007C09091C00095FFFCCF8093C600089525
:102E30009091C80095FFFCCF8093CE0008951F921B
:102E40000F920FB60F9211242F933F934F935F93DE
:102E50006F937F938F939F93AF93BF93EF93E09183
:102E6000C60020912D0430912E04C901019660E026
:102E700072E00E94EB1A40912B0450912C048417AD
:102E8000950741F0D901A258B74FEC9390932E04C7
:102E900080932D04EF91BF91AF919F918F917F917E
:102EA0006F915F914F913F912F910F900FBE0F90B7
:102EB0001F9018951F920F920FB60F9211242F9307
:102EC0003F934F935F936F937F938F939F93AF93B2
:102ED000BF93EF93E091CE002091290430912A0412
:102EE000C901019660E072E00E94EB1A409127044C
:102EF000509128048417950741F0D901A258B94F81
:102F0000EC9390932A0480932904EF91BF91AF91A1
:102F10009F918F917F916F915F914F913F912F91F1
:102F20000F900FBE0F901F901895CF93C82F682F4A
:102F30008DE00E940F176C2F8AE0CF910C940F1731
:102F40001F93CF93DF93162FEC0103C0612F0E94D4
:102F50000F1789918111FACFDF91CF911F910895B9
:102F600010923804E4E6F0E080818F778083589AED
:102F7000599AE9EBF0E080818E7F808380818D7F9C
:102F8000808381E48093B80085E48093BC0080E274
:102F9000E9E3F4E0DF01982F1D929A95E9F7E9E55E
:102FA000F4E0DF01982F1D929A95E9F7E9E7F4E044
:102FB000DF011D928A95E9F70895613298F4209116
:102FC0003804243089F460933504FC0189E594E0E9
:102FD000DC0102C021912D932A2F281B2617D0F344
:102FE00080E0089581E0089582E0089585EC809363
:102FF000BC00109238040895589859988091B900EF
:1030000081608093B9008091B90082608093B9009B
:103010008091BC0080688093BC008091BC0080617E
:103020008093BC008091BC008F7B8093BC0080911A
:10303000BC008F7D8093BC008091BC00877F809313
:10304000BC0080916C0690916D06A0916E06B091C7
:103050006F0686FD14C080916C0690916D06A0915C
:103060006E06B0916F0690FD0AC080916C0690913B
:103070006D06A0916E06B0916F0693FF04C080911B
:10308000BC008B7F03C08091BC0084608093BC0037
:103090008091BC008E7F8093BC008091640080682A
:1030A000809364000895882349F010922F041092B1
:1030B0003004109231041092320413C080912F0416
:1030C00090913004A0913104B09132040196A11D79
:1030D000B11D80932F0490933004A0933104B093DA
:1030E000320480912F0490913004A0913104B0916A
:1030F0003204803A9648A140B10560F010922F0446
:103100001092300410923104109232040E94B017D1
:1031100081E0089580E0089585ED8093BC0081E012
:103120000E94531808C080E00E945318882319F0A9
:103130001092380408958091BC0084FDF4CFF8CF3C
:10314000FF920F931F93CF93DF93182F062FF72E25
:10315000C42FD22F81E0413208F051C00E94531891
:1031600015C080E00E945318882381F082E080938C
:1031700038048FEF8093330410923704C09399047E
:10318000E02FFF2D69E374E0DB0107C08091380474
:103190008111E7CFEBCF81918D938A2F861B8C17FE
:1031A000D0F3812F90E0880F991F80939A0485EEC9
:1031B0008093BC0081E00E945318D11105C080911A
:1031C00033048F3F59F414C0809138048230B9F72A
:1031D00080E00E94531881110DC0F6CF8091330416
:1031E000803251F080913304803341F483E007C092
:1031F00080E005C085E003C082E001C084E0DF918B
:10320000CF911F910F91FF9008950F931F93CF932C
:10321000DF93082FD62F172FC42F81E04132E0F51E
:103220000E9453181DC080E00E9453188823C1F0EB
:1032300081E0809338048FEF809333041092370439
:10324000C0939904802F90E0880F991F816080932C
:103250009A0485EE8093BC0081E00E94531810C050
:10326000809138048111DFCFE3CF80E00E945318B2
:10327000882331F089E394E0ED2FF12FDC0107C0C2
:1032800080913804813089F3F5CF2D9121932A2F35
:10329000281B2C17D0F380E0DF91CF911F910F9165
:1032A00008951F920F920FB60F9211240BB60F9232
:1032B0002F933F934F935F936F937F938F939F933E
:1032C000AF93BF93CF93EF93FF93C091B900C87FA3
:1032D000C03609F49FC058F5C83209F45BC090F4B9
:1032E000C03109F452C038F4CC2309F4F2C0C8301C
:1032F00009F0F3C04AC0C83109F44CC0C03209F02B
:10330000ECC05DC0C03409F473C038F4C03309F4B4
:103310005BC0C83309F0E1C05AC0C03509F45CC0D5
:10332000C83509F46AC0C83409F0D7C0D4C0C83958
:1033300009F4C5C0A8F4C83709F46CC038F4C8361D
:1033400009F468C0C03709F0C8C064C0C83809F4BF
:10335000B6C0C03909F464C0C03809F0BEC060C04E
:10336000C03B09F484C038F4C03A09F46BC0C83AD1
:1033700009F0B3C07CC0C03C09F4A5C0C83C09F446
:10338000A2C0C83B09F0A9C087C080919A0480936D
:10339000BB0013C09091370480919904981708F0EE
:1033A0009AC080913704E82FF0E0E75CFB4F9081F2
:1033B0009093BB008F5F8093370485EC81C00E949F
:1033C0008C18C093330489C0C093330484C0C09365
:1033D00033040E94F61781C0809137049091BB009E
:1033E000E82FF0E0E75CFB4F90838F5F809337041A
:1033F00090913704809199045FC080913704909137
:10340000BB00E82FF0E0E75CFB4F90838F5F809379
:10341000370461C083E08093380410923404CDCF28
:1034200080913404803208F04AC080913404909135
:10343000BB00E82FF0E0E758FB4F90838F5F80934D
:103440003404BBCF80913404803230F4E0913404F2
:10345000F0E0E758FB4F108260913404E0919B0448
:10346000F0919C0470E089E794E009952CC084E019
:10347000809338041092360410923504E0919D0434
:10348000F0919E04099580913504811105C081E079
:10349000809335041092590480913604E82FF0E0AF
:1034A000E75AFB4F90819093BB008F5F8093360467
:1034B0009091360480913504981708F47ECF85E802
:1034C0008093BC000AC085EC8093BC001092380445
:1034D00004C0109233040E948C18FF91EF91CF9199
:1034E000BF91AF919F918F917F916F915F914F911C
:1034F0003F912F910F900BBE0F900FBE0F901F901A
:1035000018951092A40482E08093A0048CE180932B
:10351000A50480EC91E09093A7048093A6040895FD
:10352000FC01128A118E138EDC01A356BE4F89E175
:1035300011968C93119714961C92DF01AE55BE4FD5
:103540001C9212961C92E956FE4F11821082089529
:1035500088EA94E00C94901AA29FB001B39FC00136
:10356000A39F01D0B29F700D811D1124911D08955C
:103570000E94AC1AA59F900DB49F900DA49F800D42
:10358000911D11240895B7FF0C94B81A0E94B81A1F
:10359000821B930B0895991B79E004C0991F96171D
:1035A00008F0961B881F7A95C9F780950895AA1B85
:1035B000BB1B51E107C0AA1FBB1FA617B70710F01E
:1035C000A61BB70B881F991F5A95A9F78095909550
:1035D000BC01CD01089597FB072E16F4009407D087
:1035E00077FD09D00E94D71A07FC05D03EF49095CC
:1035F00081959F4F0895709561957F4F0895A1E241
:103600001A2EAA1BBB1BFD010DC0AA1FBB1FEE1F5C
:10361000FF1FA217B307E407F50720F0A21BB30BA7
:10362000E40BF50B661F771F881F991F1A9469F723
:1036300060957095809590959B01AC01BD01CF017F
:103640000895052E97FB16F4009407D057FD0DD072
:103650000E94FF1A07FC09D07EF490958095709522
:1036600061957F4F8F4F9F4F0895509540953095AE
:1036700021953F4F4F4F5F4F0895689401C0E894E4
:103680008F929F92CF93DF930E944B1BDF91CF913C
:103690009F908F90089588249924F401E401B0E468
:1036A0009F93AA279A158B049C04ED05FE05CF0570
:1036B000D007A10798F4AD2FDC2FCF2FFE2FE92DD7
:1036C000982C892E982F872F762F652F542F432FD4
:1036D000322F2227B85031F7BF9127C01B2EBF9140
:1036E000BB27220F331F441F551F661F771F881FDC
:1036F000991F881C991CEE1FFF1FCC1FDD1FAA1FDE
:10370000BB1F8A149B04EC05FD05CE05DF05A00751
:10371000B10748F08A189B08EC09FD09CE09DF09BA
:10372000A00BB10B21601A94E1F62EF49401AF01C5
:10373000BE01CD01000C08950F930F7351F0220FBD
:10374000331F441F551F661F771F881F991F0A9537
:10375000B1F70F9108952A0D3B1D4C1D5D1D6E1D87
:103760007F1D801F911F08950790F691E02D099409
:103770008F929F92AF92BF92CF92DF92EF92FF9281
:10378000CF93DF93EC01688179818A819B816115F8
:1037900071058105910521F464E279ED8BE597E0EF
:1037A0002DE133EF41E050E00E94211B49015A0115
:1037B0009B01AC01A7EAB1E40E94B81A6B017C013D
:1037C000ACEEB4EFA50194010E94C61AC60ED71E36
:1037D000E81EF91EF7FE06C081E0C81AD108E1080C
:1037E00080E8F80AC882D982EA82FB82E894D7F896
:1037F000EE24FF24C601DF91CF91FF90EF90DF9080
:10380000CF90BF90AF909F908F9008950C94B81B6D
:1038100086E092E00C94B81BA0E0B0E08093060232
:1038200090930702A0930802B09309020895FB0148
:10383000DC0105900D920020E1F70895FB01DC0109
:103840000D900020E9F7119701900D920020E1F70B
:103850000895FB0151915523A9F0BF01DC014D9161
:1038600045174111E1F759F4CD010190002049F0CD
:103870004D9140154111C9F3FB014111EFCF81E09A
:1038800090E0019708950F931F93CF93DF93CDB7E7
:10389000DEB72E970FB6F894DEBF0FBECDBF0D89F1
:1038A0001E898F89988D26E02C831A83098397FFC0
:1038B00002C080E090E801979E838D83CE014B96F5
:1038C000AC01698D7A8DCE0101960E94D11C4D818B
:1038D0005E8157FD0AC02F813885421753070CF4CB
:1038E0009A01F801E20FF31F10822E960FB6F8949A
:1038F000DEBF0FBECDBFDF91CF911F910F91089515
:103900000F931F93CF93DF93CDB7DEB72E970FB6EC
:10391000F894DEBF0FBECDBF0D891E8986E08C8373
:103920001A8309838FEF9FE79E838D83CE0149968B
:10393000AC016F89788DCE0101960E94D11CEF8178
:10394000F885E00FF11F10822E960FB6F894DEBFB7
:103950000FBECDBFDF91CF911F910F910895CF93EF
:10396000DF93CDB7DEB72E970FB6F894DEBF0FBE4C
:10397000CDBF85E08C838B899C899A838983CE0116
:103980004796AC016D897E89CE0101960E94842004
:103990002E960FB6F894DEBF0FBECDBFDF91CF914C
:1039A00008952F923F924F925F926F927F928F92E3
:1039B0009F92AF92BF92CF92DF92EF92FF920F93BE
:1039C0001F93CF93DF93CDB7DEB72C970FB6F89444
:1039D000DEBF0FBECDBF7C016B018A01FC011782E7
:1039E0001682838181FFC6C188248394912C8C0E1A
:1039F0009D1EF7019381F60193FD859193FF8191BF
:103A00006F01882309F4B2C1853239F493FD8591A1
:103A100093FF81916F01853229F4B70190E00E94F4
:103A20003722E7CF512C312C20E02032A8F48B3202
:103A300061F028F4803251F0833271F40BC08D3282
:103A400039F0803349F4216028C02260246025C009
:103A5000286023C0206121C027FD27C0382F3053A4
:103A60003A3078F426FF06C0FAE05F9E300D11244C
:103A7000532E13C08AE0389E300D1124332E20625D
:103A80000CC08E3221F426FD71C1206406C08C3634
:103A900011F4206802C0883641F4F60193FD859147
:103AA00093FF81916F018111C0CF982F955493306E
:103AB00018F09052933028F40C5F1F4FFFE3F98306
:103AC0000DC0833631F0833771F0833509F05EC065
:103AD00023C0F801808189830E5F1F4F44244394E3
:103AE000512C540115C03801F2E06F0E711CF80121
:103AF000A080B18026FF03C0652D70E002C06FEF8B
:103B00007FEFC5012C870E94EC212C0183012C85BD
:103B10006FE7262E222218C03801F2E06F0E711CCA
:103B2000F801A080B18026FF03C0652D70E002C0BF
:103B30006FEF7FEFC5012C870E94E1212C012C85BE
:103B400050E8252E222A830123FC1CC006C0B701A1
:103B500080E290E00E9437223A94832D90E048164C
:103B60005906A8F30FC0F50127FC859127FE819126
:103B70005F01B70190E00E94372231103A94F1E0E2
:103B80004F1A51084114510471F7EDC0843611F0F9
:103B9000893641F5F80127FF07C060817181828174
:103BA00093810C5F1F4F08C060817181882777FD6A
:103BB0008095982F0E5F1F4F4FE6B42EB22297FFCD
:103BC00009C090958095709561957F4F8F4F9F4F5D
:103BD000F0E8BF2A2AE030E0A4010E947E22A82E4D
:103BE000A81843C0853731F43FEEB32EB2222AE045
:103BF00030E024C099EFB92EB2228F36B9F020F40C
:103C0000883509F0B3C00DC0803721F0883709F03E
:103C1000ADC002C020E1B22AB4FE0BC084E0B82AD5
:103C200008C024FF09C0E6E0BE2A06C028E030E054
:103C300005C020E130E002C020E132E0F801B7FE2B
:103C400007C060817181828193810C5F1F4F06C024
:103C50006081718180E090E00E5F1F4FA4010E949F
:103C60007E22A82EA818FFE7BF22B6FE0BC02B2D80
:103C70002E7FA51450F4B4FE0AC0B2FC08C02B2D50
:103C80002E7E05C07A2C2B2D03C07A2C01C0752CFA
:103C900024FF0DC0FE01EA0DF11D8081803311F477
:103CA000297E09C022FF06C07394739404C0822F3A
:103CB000867809F0739423FD14C020FF0FC05A2C9E
:103CC000731460F4530C5718732C08C0B70180E2CA
:103CD00090E02C870E94372273942C857314B0F3E4
:103CE00004C0731410F4371801C0312C24FF12C023
:103CF000B70180E390E02C870E9437222C8522FFB9
:103D00001EC021FF03C088E590E002C088E790E074
:103D1000B7010CC0822F867891F021FD02C080E2AD
:103D200001C08BE227FD8DE2B70190E00E943722AF
:103D300006C0B70180E390E00E9437225A94A51490
:103D4000C0F3AA94F401EA0DF11DB701808190E05F
:103D50000E943722A110F5CF06C0B70180E290E0A3
:103D60000E9437223A943110F8CF43CEF7012681D2
:103D7000378102C02FEF3FEFC9012C960FB6F894A0
:103D8000DEBF0FBECDBFDF91CF911F910F91FF908E
:103D9000EF90DF90CF90BF90AF909F908F907F90EB
:103DA0006F905F904F903F902F90089520FD09C035
:103DB000FC0123FD05C022FF02C07383628351838F
:103DC00040830895CF92DF92EF92FF920F931F935B
:103DD00044FD10C046FD10C0DB01FC01AA0FBB1F53
:103DE000EE1FFF1F1094D1F76A0F7B1F8E1F9F1FBE
:103DF00031E003C033E001C034E0660F771F881F55
:103E0000991F3150D1F76B017C01C20ED11CE11C0E
:103E1000F11C97018601B601C9011F910F91FF9016
:103E2000EF90DF90CF9008950F931F93CF93DF9380
:103E30008C01C8010E94F721EC0197FD08C00E9487
:103E4000CE21892BB1F7B801CE010E946322CE01A9
:103E5000DF91CF911F910F9108958F929F92AF9212
:103E6000CF92DF92EF92FF920F931F93CF93DF9346
:103E7000EC01A62E4A01022F0E94F721AC01552722
:103E80004B32510521F04D32510551F40068AA948E
:103E900011F480E063C0CE010E94F72197FDF9CFB5
:103EA000102F1D7F302F3073E1F48033D1F4AA94AA
:103EB00009F440C0CE010E94F72197FD3BC088372E
:103EC00011F0883549F41264AA94A1F1CE010E9440
:103ED000F72197FF06C02EC006FF02C0126001C086
:103EE0001261C12CD12C7601282F2053283080F06C
:103EF00014FF04C0BE010E94632219C02A3040F0A2
:103F000016FFF8CF2F7D322F3151363098F72750DA
:103F1000412FC701B6010E94E21E6B017C011260B5
:103F2000AA9459F0CE010E94F72197FFDDCF11FD31
:103F300004C0AFCFC12CD12C760117FF08C0F0947C
:103F4000E094D094C094C11CD11CE11CF11C212F21
:103F5000B701A601C4010E94D61E81E0DF91CF9176
:103F60001F910F91FF90EF90DF90CF90AF909F90B7
:103F70008F9008956F927F929F92AF92BF92CF924F
:103F8000DF92EF92FF920F931F93CF93DF93CDB702
:103F9000DEB7A1970FB6F894DEBF0FBECDBF6C01A0
:103FA0007A018901FE01319680E2DF011D928A9536
:103FB000E9F7D60113969C9020E030E0A12CA0E018
:103FC000B12CCF0141E050E0F80193FC759193FED4
:103FD00071918F01711103C000E010E080C07E3547
:103FE00019F42115310559F1EB2DF0E0E217F30733
:103FF0003CF47D3569F17D3219F4AA2319F103C02F
:10400000A11101C0A72EE72FE695E695E6953C01A4
:104010006E0E711CF301A72FA7703A0102C0660C47
:10402000771CAA95E2F7D301B081BA2BB0837A1539
:1040300059F07A1510F47F5FE6CF7150E4CFBB24BE
:10404000B39403C0A1E001C0A0E02F5F3F4FBCCFFD
:10405000AA2319F08E8180628E83B11003C0BB2425
:10406000B3940BC0FE013196CE018196208120953C
:104070002193E817F907D1F7F2CFC60169A30E948F
:10408000F72169A197FD24C0282F2695269526950E
:10409000E1E0F0E0EC0FFD1FE20FF11D208130E0C8
:1040A000AC014770552702C0359527954A95E2F730
:1040B00020FD04C0B6010E9463220AC0E114F1048D
:1040C00019F0D7018D937D016150B12CB1F602C07A
:1040D000B11082CFE114F10411F0F7011082C80190
:1040E000A1960FB6F894DEBF0FBECDBFDF91CF9182
:1040F0001F910F91FF90EF90DF90CF90BF90AF9006
:104100009F907F906F9008954F925F927F928F92D1
:104110009F92AF92BF92CF92DF92EF92FF920F9356
:104120001F93CF93DF931F92CDB7DEB78C012B0186
:104130007A01FC0117821682A12CF0C08C2D90E030
:104140000E94CE21892B21F0C8010E94141FE6C0D5
:10415000F5E2CF120AC0F201D3FC3591D3FE3191C2
:104160002F01353271F455E2C52EC8010E94F721A6
:1041700097FDDFC0C81609F4D1C0B8010E946322C0
:10418000DAC03A3241F4D3FC3591D3FE31912F019C
:10419000BB24B39401C0B12C712C10C0F2E0BF2A33
:1041A000672D70E080E090E040E20E94E21E762EF3
:1041B000F201D3FC3591D3FE31912F01232F2053EF
:1041C0002A3060F3B1FE03C0711003C0B4C077247D
:1041D0007A94383619F03C3699F40AC0F201D3FCCF
:1041E0003591D3FE31912F01383651F4F8E0BF2AD2
:1041F00084E0B82AF201D3FC3591D3FE31912F012E
:10420000332309F498C0632F70E08CE693E0398380
:104210000E94D6213981892B09F48DC0B0FC07C0DA
:10422000F701C080D18082E0E80EF11C02C0C12CF1
:10423000D12C3E3651F4F8014681578160E070E0A0
:104240002B2DC6010E94D61E69C0333691F4B1FCF5
:1042500002C077247394C8010E94F72197FD69C0BA
:10426000C114D10419F0F60181936F017A9499F782
:1042700053C03B3559F49201A601672DC8010E9435
:10428000BA1F2C01009709F047C041C0C80139830B
:104290000E94141F398197FD4CC03F3659F128F414
:1042A000343629F1393649F52AC0333719F0353714
:1042B00021F51DC0C8010E94F7214C0197FD11C0D6
:1042C0000E94CE21892B29F0B801C4010E946322EB
:1042D00008C0C114D10419F0F60181926F017A94DB
:1042E00049F7C114D104C1F0F601108215C0F0E203
:1042F000BF2A05C080E1B82A02C090E4B92A2B2D5C
:10430000A601672DC8010E942D1F811105C0F8016B
:104310008381807371F40FC0B0FEA394F801D38041
:10432000F201D3FCC590D3FEC1902F01C11006CF7E
:1043300002C0AA2019F02A2D30E002C02FEF3FEF73
:10434000C9010F90DF91CF911F910F91FF90EF90D6
:10435000DF90CF90BF90AF909F908F907F905F90B5
:104360004F900895F999FECF92BD81BDF89A992793
:1043700080B50895A6E1B0E044E050E00C94DE2260
:10438000262FF999FECF1FBA92BD81BD20BD0FB671
:10439000F894FA9AF99A0FBE0196089591111CC1EA
:1043A000803219F089508550D0F70895FC010590AE
:1043B000061621F00020D9F7C00108953197CF01EA
:1043C0000895FC010590615070400110D8F7809568
:1043D00090958E0F9F1F0895FC01615070400190D1
:1043E0000110D8F7809590958E0F9F1F0895CF9359
:1043F000DF93EC013B8130FF34C036FF0AC03F7BC6
:104400003B838E819F8101969F838E832A8130E03A
:104410002AC032FF0FC0E881F9818081992787FD8A
:104420009095009719F430623B831BC03196F98355
:10443000E8830EC0EA85FB85099597FF09C02B81AB
:10444000019611F480E101C080E2822B8B8309C0C8
:104450002E813F812F5F3F4F3F832E839C01332767
:1044600002C02FEF3FEFC901DF91CF9108950F9365
:104470001F93CF93DF938C01EB018B8181FD03C0F0
:104480000FEF1FEF1AC082FF0DC02E813F818C817C
:104490009D812817390764F4E881F9810193F98334
:1044A000E88306C0E885F985802F0995892B41F7B7
:1044B0008E819F8101969F838E83C801DF91CF916A
:1044C0001F910F910895FB01238120FF13C026FD4A
:1044D00011C08F3F3FEF930769F082832F7D2064E7
:1044E00023832681378121503109378326839C011C
:1044F000332702C02FEF3FEFC9010895FA01AA2721
:10450000283051F1203181F1E8946F936E7F6E5F16
:104510007F4F8F4F9F4FAF4FB1E03ED0B4E03CD0C4
:10452000670F781F891F9A1FA11D680F791F8A1FA7
:10453000911DA11D6A0F711D811D911DA11D20D00E
:1045400009F468943F912AE0269F11243019305DC8
:104550003193DEF6CF010895462F4770405D4193B9
:10456000B3E00FD0C9F7F6CF462F4F70405D4A3306
:1045700018F0495D31FD4052419302D0A9F7EACFCE
:10458000B4E0A6959795879577956795BA95C9F7FD
:1045900000976105710508959B01AC010A2E0694F0
:1045A0005795479537952795BA95C9F7620F731FA9
:1045B000841F951FA01D0895DC01CB01FC01F99912
:1045C000FECF06C0F2BDE1BDF89A319600B40D925F
:1045D00041505040B8F70895992788270895F894D6
:0245E000FFCF0B
:1045E20000007E0A2000010000000131363A303915
:1045F2003A32393A30373A31343A33383A3437008A
:10460200253032753A253032753A253032753A25E1
:104612003032753A253032753A253032753A2530C6
:1046220032750045706F636820726967687400456F
:10463200706F63682077726F6E670053756E004DFE
:104642006F6E0054756500576564005468750046C6
:1046520072690053617400496E76616C6964204727
:104662004D542076616C7565003A3A3A3A3A3A000E
:104672000000030002000500000003000500010025
:1046820004000600020004001F1C1F1E1F1E1F1F25
:044692001E1F1E1FAA
:00000001FF
