:100000000C94F8010C94801C0C94B11C0C94E21C10
:100010000C94131D0C94441D0C94751D0C94A61D7A
:100020000C94D71D0C9427020C9427020C942702E1
:100030000C94FB020C9427020C9427020C94570397
:100040000C9427020C9427020C9427020C9427028C
:100050000C9427020C9427020C9427020C94320370
:100060000C9427020C948C1E0C9427020C942702EB
:100070000C9427020C9427020C9427020C9427025C
:100080000C9427020C9427020C9427020C9427024C
:100090000C94C71E0C9427020C9427020C94501B3E
:1000A0000C9427020C9427020C9427020C9427022C
:1000B0000C9427020C9427020C9427020C9427021C
:1000C0000C9427020C9427020C94270253445F30AF
:1000D00039206578616D706C65002D2D2D2D2D2DCD
:1000E0002D2D2D2D2D2D2D2D2D2D2D2D2D0053680C
:1000F0006F772066696C653A00210135015B0182EA
:1001000001A201BA01C801D801ED010302140220C5
:1001100002270244026202780286029602B902BFF6
:1001200002416C61726D204D6F6465206D61746376
:1001300068657320005B446179203A20686F7572AE
:1001400073203A206D696E75746573203A2073656B
:10015000636F6E64735D202D3E20005B44617465A7
:10016000203A20686F757273203A206D696E75743D
:100170006573203A207365636F6E64735D202D3E56
:1001800020005B486F757273203A206D696E75743C
:100190006573203A207365636F6E64735D202D3E36
:1001A00020005B4D696E75746573203A207365633A
:1001B0006F6E64735D202D3E20005B5365636F6E30
:1001C00064735D202D3E20004F6E63652070657264
:1001D000207365636F6E6400496E636F727265634E
:1001E0007420616C61726D206D6F6465005B2530F9
:1001F00032753A253032753A253032753A2530322B
:10020000755D005B253032753A253032753A253000
:1002100032755D005B253032753A253032755D00F0
:100220005B253032755D005B446179203A20686F50
:10023000757273203A206D696E75746573205D2048
:100240002D3E20005B44617465203A20686F757212
:1002500073203A206D696E75746573205D202D3EA4
:1002600020005B486F757273203A206D696E75745B
:1002700065735D202D3E20005B4D696E757465735E
:100280005D202D3E20004F6E636520706572206DED
:10029000696E7574650025732C20253032752F2505
:1002A0003032752F253032752C20253032753A25A5
:1002B0003032753A25303275006572726F720025E2
:1002C000303275256325303275256325303275252A
:1002D000632530327525632530327525632530322C
:1002E00075256325303275000A2D2D2D2D2D2D2DD0
:1002F0002D2D2D2D2D2D2D2D2D2D2D2D000A2D2D7E
:100300002D2D2D2D2D2D2D2D2D2D2D2D2D2D2D2D1D
:100310002D0000000809000000000000000000009F
:1003200000000000000000000000000000000000CD
:1003300000000000000000000000000000000000BD
:100340000000000000010208101020408004081086
:100350002040020204081020408001028020400456
:1003600020010102040810200140804080010208A1
:1003700004088004100402010505050503030303B6
:10038000010101040403060606060606060601042A
:100390000501050103020202020202010202050533
:1003A000040403040401030407070700202326298B
:1003B0002C2F32002225282B2E3134002124272AED
:1003C0002D30337C3C3E5E2B3D3F2F5B5D3B2C2A2A
:1003D000225C00496E76616C69642066696C656EAA
:1003E000616D6500290B501371159E169C194C30D8
:1003F00011241FBECFEFD1E2DEBFCDBF13E0A0E0DE
:10040000B2E0E2E9FDE600E00BBF02C007900D920A
:10041000AA39B107D9F71DE0AAE9B3E001C01D92DE
:10042000A830B107E1F713E0C0EFD3E000E006C069
:1004300022970109FE010BBF0E940433C43ED1077D
:1004400080E00807A9F70E9441050C94C7360C9478
:10045000000089EF95E00E947E156CEC70E089EF5A
:1004600095E00E94401687E394E00E94CF0C6AE07A
:1004700072E087E394E00E94641080939E036AE038
:1004800072E087E394E00E949C1280939E0345E112
:1004900052E06AE072E087E394E00E94321288231F
:1004A00031F06BE372E089EF95E00E941D1645E4A0
:1004B00052E06AE072E087E394E00E9432128823FF
:1004C00031F06BE372E089EF95E00E941D164BE678
:1004D00052E06AE072E087E394E00E9432128823DF
:1004E00031F06BE372E089EF95E00E941D1641E95F
:1004F00052E06AE072E087E394E00E9432128823BF
:1005000031F06BE372E089EF95E00E941D1647EB36
:1005100052E06AE072E087E394E00E94321288239E
:1005200031F06BE372E089EF95E00E941D166AEDF1
:1005300070E089EF95E00E9440166EEE70E089EF62
:1005400095E00E94F5156AE072E087E394E00E946E
:10055000F01268EE73E080E090E00E94CE036DED53
:1005600072E089EF95E00E948B166AE072E087E303
:1005700094E00E947811AB01BC0140939A03509320
:100580009B0360939C0370939D0389EF95E00C940B
:100590005E160F931F931FC09C01AD0121503109BE
:1005A0004109510901E010E06AE072E087E394E05C
:1005B0000E943D0FBC0189EF95E00E941D166AE67E
:1005C00074E089EF95E00E941D1664EF71E080E011
:1005D00090E00E94CE0380919A0390919B03A0919A
:1005E0009C03B0919D03181619061A061B06A4F267
:1005F0001F910F9108951F920F920FB60F92112421
:100600000BB60F922F933F934F935F936F937F930C
:100610008F939F93AF93BF93EF93FF93F89481E0F1
:1006200080931402E0E6F0E080818068808380811E
:100630008F7B808360E083E00E94B5047894FF9113
:10064000EF91BF91AF919F918F917F916F915F914A
:100650004F913F912F910F900BBE0F900FBE0F90B7
:100660001F9018951F920F920FB60F9211248F931F
:100670009F93AF93BF938091EE089091EF08A09164
:10068000F008B091F1080196A11DB11D8093EE080C
:100690009093EF08A093F008B093F108BF91AF9149
:1006A0009F918F910F900FBE0F901F9018951F92E2
:1006B0000F920FB60F9211248F939F93AF93BF9316
:1006C0008091F2089091F308A091F408B091F50898
:1006D0000196A11DB11D8093F2089093F308A09399
:1006E000F408B093F508BF91AF919F918F910F904F
:1006F0000FBE0F901F9018958F929F92AF92BF924E
:10070000CF92DF92EF92FF920F931F93CF93DF93DD
:100710002FB7F8948091EE089091EF08A091F0081F
:10072000B091F1082FBF9C01AD0160E070E080E066
:1007300090E001E00E94EC324901D42FC52FB62F82
:10074000A72FF82FE92F02E00E94EC3259016A012D
:100750007B018C0194014D2F5C2F6B2F7A2F8F2FF3
:100760009E2F0E94FB32E9E0AE2EB12CC12CD12C81
:10077000E12CF12C00E010E00E948F32952FB9019E
:10078000842FDF91CF911F910F91FF90EF90DF9019
:10079000CF90BF90AF909F908F9008958F929F922F
:1007A000AF92BF92CF92DF92EF92FF924B015C012A
:1007B00007C00E947C036C157D058E059F0520F403
:1007C0000E947C036B017C010E947C036C197D09F3
:1007D0008E099F09681579058A059B0550F3FF90DE
:1007E000EF90DF90CF90BF90AF909F908F90089543
:1007F000019761F0019751F0880F991F880F991F99
:1008000002972FB7F8940197F1F72FBF08957894C6
:1008100084B7877F84BF1092EE081092EF08109281
:10082000F0081092F10884B5826084BD84B58160BF
:1008300084BD85B5826085BD85B5816085BDEEE6E8
:10084000F0E0808181608083E1E8F0E08081826077
:100850008083808181608083E0E8F0E08081816036
:100860008083E1EBF0E0808184608083E1E9F0E067
:10087000808184608083E0EBF0E080818160808310
:10088000E0E9F0E0808181608083E4E6F0E080814F
:100890008E7F8083ECE7F0E080818F77808380819A
:1008A00080648083EAE7F0E08081846080838081D7
:1008B000826080838081806880831092C100109262
:1008C000C900089590919F03982B90939F0380FFF8
:1008D00032C0809164008E7F8093640080917C00A0
:1008E0008F7780937C0080917C00806480937C0073
:1008F00080917A00846080937A0080917A0082608F
:1009000080937A0080917A00806880937A00809149
:1009100064008F7780936400809164008B7F809364
:100920006400809164008D7F8093640080916500F5
:100930008E7F80936500089590E0FC01EB5BFC4F97
:100940002491FC01E858FC4FE491EE2369F0F0E0BB
:10095000E554FC4FA491B0E08C91611103C0209547
:10096000822301C0822B8C93089590E0FC01EE5EFF
:10097000FC4F2491FC01EB5BFC4F3491FC01E858E7
:10098000FC4F84918823B1F1222331F1233021F4EB
:10099000909180009F7705C0243031F490918000C1
:1009A0009F7D9093800018C0213019F494B59F77F3
:1009B00004C0223021F494B59F7D94BD0DC0263033
:1009C00021F49091B0009F7705C0273029F49091D1
:1009D000B0009F7D9093B000E82FF0E0ED54FC4F05
:1009E000A491B0E08C91611103C03095832301C0C4
:1009F000832B8C93089590E0FC01EE5EFC4F2491D4
:100A0000FC01EB5BFC4F3491FC01E858FC4F8491F6
:100A1000882399F1222331F1233021F49091800031
:100A20009F7705C0243031F4909180009F7D909392
:100A3000800018C0213019F494B59F7704C022308B
:100A400021F494B59F7D94BD0DC0263021F4909182
:100A5000B0009F7705C0273029F49091B0009F7DAA
:100A60009093B000E82FF0E0E555FC4FE491F0E002
:100A70008081832321E030E011F420E030E0C901DF
:100A800008950E9407048EEF95E00E94FD178534BB
:100A900040F061E081E30E949C0461E081E30E94F8
:100AA000B50461E070E08EEF95E00E94D9168130C8
:100AB000B1F48091F6089091F708A091F808B091F0
:100AC000F90890688093F6089093F708A093F808C7
:100AD000B093F90860E081E090E00E94093687E277
:100AE0000E94FB04892B59F160E070E08EEF95E0E5
:100AF0000E94D9168A3019F5C1C06CE3629FA0012B
:100B0000639F500D1124840F951F0EC021153105D0
:100B100059F06CE3629FA001639F500D11249A016C
:100B2000205F314F820F931F039748F4809105098E
:100B3000909106098062909306098093050984EAE2
:100B400093E00E940E0B84EA93E00E94CF0A84EAAD
:100B500093E00E94DE0A84EA93E00E94960663E036
:100B600070E080E090E00E94CE038091F6089091C2
:100B7000F708A091F808B091F908A1FF5EC063E002
:100B800070E080E090E00E94CE0361E086E10E9488
:100B90009C0463E070E080E090E00E94CE0361E09E
:100BA00086E10E94B50463E070E080E090E00E947E
:100BB000CE030E94541363E070E080E090E00E9456
:100BC000CE0381E00E94771363E070E080E090E064
:100BD0000E94CE0384E00E94851363E070E080E011
:100BE00090E00E94CE0380E00E94801363E070E0FA
:100BF00080E090E00E94CE030E94731363E070E0F7
:100C000080E090E00E94CE0366E083EF95E00E94D2
:100C1000901363E070E080E090E00E94CE0361E01A
:100C200086E10E949C0460E086E10E94B50463E0D6
:100C300070E080E090E00E94CE0363E070E080E02E
:100C400090E00E94CE038EEF95E00E94D71760934C
:100C5000A0037093A1038093A2039093A3038091B8
:100C6000A0039091A103A091A203B091A3030E94BD
:100C70005C330E9429020E94C902FDCF84EA93E0FE
:100C80000E940E0B84EA93E00E94600984EA93E0DC
:100C90000E9455098091BD0390E02091BF03821B03
:100CA00091092091BC0330E04091C003241B31091D
:100CB000121613060CF421CF29CF80910506882344
:100CC00041F08091E708811104C08CEE98E00C940B
:100CD000FC3108950F931F93CF93DF93EC01042F02
:100CE00068A761E080E30E949C0418A5112379F0B5
:100CF000113091F461E080E30E94B504013019F4F1
:100D000082E08B8B09C0011107C01B8B05C060E01E
:100D100080E30E94B5041B8A6AE070E080E090E006
:100D2000DF91CF911F910F910C94CE03CF93DF935E
:100D3000EC010E945D0640E060E0CE01DF91CF91C2
:100D40000C946A06FC01148A158A168A178A108E7A
:100D5000118E128E138E148E158E168E178E10A273
:100D600011A212A213A214A215A216A217A20895EC
:100D7000EF92FF920F931F93CF93DF93CDB7DEB720
:100D8000EC970FB6F894DEBF0FBECDBF8C01EBE140
:100D9000F1E085919491BC01EE24E394F12CEC0EEA
:100DA000FD1EC7010E946733EDE1F1E0859194914A
:100DB000BC01CE0189960E946733F8018689843090
:100DC00009F466C040F4823029F108F04BC081304C
:100DD00009F0B6C009C0863009F486C008F46EC0B8
:100DE000873009F0ADC096C0F801818D1F928F93B6
:100DF000808D1F928F9387891F928F93828D1F9270
:100E00008F9385891F928F9384891F928F9385EF8B
:100E100092E015C0F801818D1F928F93808D1F92F3
:100E20008F9387891F928F93828D1F928F938589CD
:100E30001F928F9384891F928F9389EF92E09F93E3
:100E40008F93FF92EF921F9284E68F93C801899649
:100E50009F938F930E94B9330FB6F894DEBF0FBEF5
:100E6000CDBF81C0F801818D1F928F93808D1F921D
:100E70008F9387891F928F93828D1F928F9385897D
:100E80001F928F9384891F928F938DEF92E0D7CF1B
:100E9000F801818D1F928F93808D1F928F93878988
:100EA0001F928F93828D1F928F9385891F928F93AC
:100EB00084891F928F9381E093E0C1CFF801818DE7
:100EC0001F928F93808D1F928F9387891F928F938C
:100ED000828D1F928F9385891F928F9384891F9291
:100EE0008F9385E093E0ABCFF801818D1F928F93B4
:100EF000808D1F928F9387891F928F93828D1F926F
:100F00008F9385891F928F9384891F928F9389E095
:100F100093E095CFF801818D1F928F93808D1F9262
:100F20008F9387891F928F93828D1F928F938589CC
:100F30001F928F9384891F928F938DE093E07FCFD0
:100F4000CE0189969F938F931F9284E68F93C80159
:100F500089969F938F930E94B9330F900F900F90B3
:100F60000F900F900F90075D1F4FC801EC960FB6C2
:100F7000F894DEBF0FBECDBFDF91CF911F910F91CF
:100F8000FF90EF900895CF92DF92EF92FF920F9330
:100F90001F93CF93DF938C01C62E8091050681119C
:100FA00004C08FEF95E00E94051868E670E08FEFAF
:100FB00095E00E94321860E070E08FEF95E00E94AB
:100FC0005E198FEF95E00E94601943E150E068E6FA
:100FD00070E08FEF95E00E949A19E12CF12CC0E0AF
:100FE000D0E0D12CE4C08FEF95E00E943A18F801D0
:100FF000EC0FFD1F8083C630D10509F467C098F45B
:10100000C230D10509F43EC038F4209729F1C1302F
:10101000D10509F0C7C02BC0C430D10509F440C0C8
:1010200008F049C03AC0CA30D10509F484C048F478
:10103000282F30E0C830D10509F461C008F06DC038
:1010400050C0CC30D10509F492C008F482C0CD3034
:10105000D10509F0A7C099C0982F92959F708F7005
:101060002AE0929F800D1124F801818F9BC0982F58
:1010700092959F708F70FAE09F9F800D1124F80168
:10108000808F90C0982F92959F708F70FAE09F9FED
:10109000800D1124F801878B85C0F801868B82C0F2
:1010A000982F92959F708F70FAE09F9F800D11246A
:1010B000F801828F77C0982F92959F708F70FAE019
:1010C0009F9F800D1124F801858B6CC0982F9295FD
:1010D0009F708F70FAE09F9F800D1124F801848B20
:1010E00061C054E0359527955A95E1F727708F70C8
:1010F000FAE02F9F800D1124F801838F53C044E044
:10110000359527954A95E1F727708F70FAE02F9F64
:10111000800D1124F801848F45C094E03595279502
:101120009A95E1F723708F70FAE02F9F800D1124BC
:10113000F801858F37C0282F26952695269526708D
:10114000922F990F990F920F8F70980FF801968F29
:1011500029C0282F2695269526952E70922F990F17
:10116000990F920F8F70980FF801978F1BC0282F3F
:101170002695269526952670922F990F990F920FF6
:101180008F70980FF80190A30DC0282F26952695F3
:1011900026952670922F990F990F920F8F70980FA6
:1011A000F80191A3219603C0FFEFEF1AFF0ACC16B6
:1011B000DD0658F02AE0E216F10438F48FEF95E0EE
:1011C0000E943418882381F30ECFDF91CF911F91B5
:1011D0000F91FF90EF90DF90CF9008951F93CF93E2
:1011E000DF93EC01162F80910506811104C08FEF6B
:1011F00095E00E94051868E670E08FEF95E00E9488
:101200003218612F8FEF95E00E943219C10FD11D66
:1012100068818FEF95E00E9432198FEF95E0DF91A2
:10122000CF911F910C946019FF920F931F93CF934E
:10123000DF938C01F62E80910506811104C08FEF9B
:1012400095E00E94051868E670E08FEF95E00E9437
:1012500032186F2D8FEF95E00E9432198FEF95E0D5
:101260000E94601941E050E068E670E08FEF95E081
:101270000E949A19CBE0D0E08FEF95E00E943418DD
:10128000811102C02197C1F78FEF95E00E943A18B3
:10129000F801EF0DF11D80838FEF95E0DF91CF9185
:1012A0001F910F91FF900C946019CF93DF93EC0185
:1012B00066E00E94C307CE01DF91CF910C94B8067F
:1012C000CF92DF92EF92FF920F931F93CF93DF9312
:1012D000CDB7DEB7C857D1090FB6F894DEBF0FBE41
:1012E000CDBF7C016AE00E94C3078701075D1F4FE5
:1012F00084E6F80111928A95E9F7E9EFF0E085912B
:101300009491BC01CE018F5A9F4F0E946733BE015A
:101310006F5A7F4FC8010E948433F70182A1823047
:1013200009F46AC030F4882369F0813009F00BC1F8
:1013300022C0843009F4C7C008F493C0853009F096
:1013400002C1F0C0EBEFF0E085919491BC01CE01B9
:101350008F5A9F4F0E946733BE016F5A7F4FC8015B
:101360000E948433E9E0F1E0859194916E01F9E205
:10137000CF0ED11C18C0EDEFF0E085919491BC0127
:10138000CE018F5A9F4F0E946733BE016F5A7F4F25
:10139000C8010E948433E9E0F1E0859194916E01E7
:1013A000E9E2CE0ED11CBC01C6010E946733F701F1
:1013B000838D1F928F93848D1F928F93858D1F92A3
:1013C0008F93868D1F928F93DF92CF921F9288E228
:1013D0008F93EE24E394F12CEC0EFD1EFF92EF921E
:1013E0000E94B933B701C8010E9484330FB6F89444
:1013F000DEBF0FBECDBFC2C0EFEFF0E0859194918C
:10140000BC01CE018F5A9F4F0E946733BE016F5AB5
:101410007F4FC8010E948433EBE0F1E08591949105
:101420006E01E9E2CE0ED11CBC01C6010E946733F9
:10143000F701838D1F928F93848D1F928F93858DDB
:101440001F928F93DF92CF921F9288E28F93EE24A8
:10145000E394F12CEC0EFD1EFF92EF920E94B93343
:10146000C1CFE1E0F1E085919491BC01CE018F5AAA
:101470009F4F0E946733BE016F5A7F4FC8010E9481
:101480008433EDE0F1E0859194916E01E9E2CE0EB6
:10149000D11CBC01C6010E946733F701838D1F92E6
:1014A0008F93848D1F928F93DF92CF921F9288E249
:1014B0008F93EE24E394F12CEC0EFD1EFF92EF923D
:1014C0000E94B9338FCFE3E0F1E085919491BC01A4
:1014D000CE018F5A9F4F0E946733BE016F5A7F4FD4
:1014E000C8010E948433EFE0F1E0859194916E0190
:1014F000E9E2CE0ED11CBC01C6010E946733F701A0
:10150000838D1F928F93DF92CF921F9288E28F93E9
:10151000EE24E394F12CEC0EFD1EFF92EF920E945C
:10152000B93360CFE5E0F1E085919491BC01CE0143
:101530008F5A9F4F0E946733BE016F5A7F4FC80179
:101540000E9484331BC0E7E0F1E0859194917E0115
:10155000E1E5EE0EF11CBC01C7010E946733FF926A
:10156000EF921F9284E68F931F930F930E94B933DB
:101570000F900F900F900F900F900F90C801C858C8
:10158000DF4F0FB6F894DEBF0FBECDBFDF91CF9116
:101590001F910F91FF90EF90DF90CF900895CF9320
:1015A000DF93EC016EE00E9414098E858E7F8E879A
:1015B0006EE0CE01DF91CF910C94EE08CF93DF93D4
:1015C000EC016EE00E9414098E858D7F8E876EE09F
:1015D000CE01DF91CF910C94EE08CF93DF93EC0115
:1015E0006FE00E9414098F858370DF91CF91089579
:1015F000CF93DF93EC010E94ED0A882319F0CE56B9
:10160000DF4F88838091B3038C7F8093B3036FE0B7
:1016100084EA93E0DF91CF910C94EE08CF93DF93AF
:10162000EC0140E061E00E946A06CE010E94F80AE7
:10163000CE010E94A2066DE0CE010E94C30761E0C8
:101640008BE20E949C0460E08BE2DF91CF910C94CE
:10165000B504109235041092B70308952091B90390
:1016600040E2249F900111244091BE03242B40911D
:10167000B80350E04C5E5F4F542F4427550F242B86
:10168000352BFC01318320838091BC03F0E28F9FD6
:10169000C00111244091BB03342F330F330F330F9C
:1016A00020E0822B932B2091BD0330E035952795C8
:1016B000822B932BFB0191838083089541110C941D
:1016C0002E2A81E0089561E08BE10E94B5046AE072
:1016D00070E080E090E00C94CE03EF92FF920F93C5
:1016E0001F93CF93DF93EB0128813981FC01E20F37
:1016F000F31FE081EF3211F42F5F3F4FDA01E0E09A
:10170000F0E07C01E20EF31E87010E0F1F1FE801BF
:1017100018811F3289F0111119C00EC02F5F3F4F81
:10172000FB0131832083FC01E20FF31F81E09081F4
:10173000911114C080E012C0E40FF51F1082FC016B
:10174000E20FF31F40814F3259F7E8CF1D933196D6
:101750002F5F3F4FE233F10579F3D6CFDF91CF9181
:101760001F910F91FF90EF9008952F923F924F920B
:101770005F926F927F928F929F92AF92BF92CF9221
:10178000DF92EF92FF920F931F93CF93DF93CDB72A
:10179000DEB7CA56D1090FB6F894DEBF0FBECDBF73
:1017A0006C017B015A014901FE01E25BFF4F10828F
:1017B00012821CAA1EAADE01A859BF4F11961C92C4
:1017C0001E928B015E2E4F2E3A2E2B2E3E0184E36D
:1017D000680E711C08C0902F812F02C0962D872D96
:1017E000052D142D2C01AE014F5F5F4F632D722D1F
:1017F000C6010E946D0B582F41E048279401BE019D
:101800006F5F7F4FC801AB965FAFAB97F50109954E
:10181000AB965FADAB97811109C00E151F0509F49A
:1018200003C0C8010E94092780E026C05523C9F0E3
:1018300021E0AE014F5F5F4FB801852D942D0E94CE
:101840005C29282F0E151F05A1F0C801AB962FAFFC
:10185000AB970E940927AB962FADAB972111BBCF59
:10186000E3CF0E151F0519F0C8010E94092781E07A
:1018700003C08111B3CFD8CFC659DF4F0FB6F8944C
:10188000DEBF0FBECDBFDF91CF911F910F91FF90B3
:10189000EF90DF90CF90BF90AF909F908F907F9010
:1018A0006F905F904F903F902F900895FC01128AA7
:1018B000118E138EDC01A356BE4F89E111968C93D5
:1018C000119714961C92DF01AE55BE4F1C921296D2
:1018D0001C92E956FE4F1182108208958CE10E94FD
:1018E000FB0421E0892B09F420E0822F0895EF9278
:1018F000FF920F931F93CF93DF93EC010E946E0C26
:10190000811105C0C956DE4F81E090E00EC08E0106
:1019100003561E4F42E06DE1C8010E94182181115B
:1019200008C0C956DE4F82E090E09983888380E04A
:101930002FC07E0141E0B801CE010E94422F8111EB
:1019400008C040E0B801CE010E94422F811101C0C1
:10195000E8CF8E01075E1F4FB701C8010E947326B2
:101960009E0129563E4F811106C088E090E0F901A2
:1019700091838083DCCFDE01AE55BE4F8AE1F80152
:1019800001900D928A95E1F7F9011182108281E0B0
:10199000DF91CF911F910F91FF90EF900895CF931A
:1019A000DF93EC0161E08DE10E949C0460E08DE139
:1019B0000E94B5044091F6085091F7086091F8082C
:1019C0007091F90861604093F6085093F7086093AE
:1019D000F8087093F90864E670E080E090E00E94F7
:1019E000CE0361E08BE10E949C0460E08CE10E94E8
:1019F0009C0481E08093F4050E94630BCE01DF918B
:101A0000CF910C94770C4F925F926F927F928F924E
:101A10009F92AF92BF92CF92DF92EF92FF920F937D
:101A20001F93CF93DF93CDB7DEB7C154D1090FB663
:101A3000F894DEBF0FBECDBF5C014A012901FB0156
:101A4000EE55FE4F8AE1DE015B9601900D928A957C
:101A5000E1F719821B828A01EE24E394F12CEC0E4B
:101A6000FD1E6E018BE1C80ED11C35C0F80120812E
:101A70002F3219F40F5F1F4F2EC0801B8D3008F0DE
:101A80008CE0682E712CA301B801CE01C5960E948E
:101A9000AA33E5E3F0E0EC0FFD1FE60DF71D108221
:101AA000C7010E94092721E0AE014B5C5F4FB601E0
:101AB000C7010E945C29811104C0F50110821282C5
:101AC0001DC0060D171DC6010E9409279C2D8D2DD6
:101AD0006701E92EF82E6FE270E0C8010E948F3393
:101AE000009721F608191909F201118300838AE190
:101AF000F601D50101900D928A95E1F7C501CF5B02
:101B0000DF4F0FB6F894DEBF0FBECDBFDF91CF9190
:101B10001F910F91FF90EF90DF90CF90BF90AF900B
:101B20009F908F907F906F905F904F900895BF929D
:101B3000CF92DF92EF92FF920F931F93CF93DF9399
:101B4000CDB7DEB76C970FB6F894DEBF0FBECDBF32
:101B50007C016B018A01B22E9E01255E3F4FAB01D5
:101B6000BC01CE0101960E94030D4B8D5C8D4C0D86
:101B70005D1DFA018081811102C080E01CC08B8153
:101B80008823D9F38250823040F4B701675E7F4FDB
:101B90002B2DC8010E945C290EC02B2DBE016F5F4A
:101BA0007F4FC8010E945C29882339F3CE0101963A
:101BB0000E94092781E06C960FB6F894DEBF0FBE35
:101BC000CDBFDF91CF911F910F91FF90EF90DF90EC
:101BD000CF90BF900895CF92DF92EF92FF920F9334
:101BE0001F93CF93DF93CDB7DEB76A970FB6F89404
:101BF000DEBF0FBECDBF19821B8221E0AE014F5F59
:101C00005F4F0E94970D882359F0CB88DC88ED88C0
:101C1000FE88CE0101960E9409278601970103C024
:101C20000FEF1FEF9801B801C9016A960FB6F8943B
:101C3000DEBF0FBECDBFDF91CF911F910F91FF90FF
:101C4000EF90DF90CF9008954F925F926F927F92C6
:101C50008F929F92AF92BF92CF92DF92EF92FF92BC
:101C60000F931F93CF93DF93CDB7DEB7A4970FB633
:101C7000F894DEBF0FBECDBF7C01962E872E2901C2
:101C80003A0119821B820E946E0C47E9A42EBB24E4
:101C9000B394AE0CBF1C81110EC081E290E0F5013F
:101CA00091838083F3E3EF0EF11C6CE273E0C701D4
:101CB0000E94A333CAC00115110529F0013081E04B
:101CC000180708F402C000E011E0F501808191815D
:101CD0008F7C9D7F9183808321E0CC24C394D12C81
:101CE000CC0EDD1EA601692D782DC7010E94970D2F
:101CF000811117C0F3E3EF0EF11C8F929F9282E3E4
:101D000093E09F938F9381E08F931F92FF92EF92C6
:101D10000E94B933F5018081918180629183808333
:101D200020C0B301A201C6010E94752581111FC008
:101D300093E3E90EF11C8F929F9283E493E09F93CB
:101D40008F9381E08F931F92FF92EF920E94B9339D
:101D5000F50180819181926091838083C6010E9408
:101D600009270FB6F894DEBF0FBECDBF6EC05E016F
:101D70009BE1A90EB11C4AE050E0B501C6010E94EA
:101D8000FA23412C512C32019C2C8D2C23C0919193
:101D9000D701A40DB51DD3969C939FEF491A590AFC
:101DA000690A790A91E0C91AD10851F0411491E009
:101DB00059066104710421F0902F9C19981738F38B
:101DC0008A30B8F04AE050E0B501892D982D0E9484
:101DD000FA238601882369F00115110551F0EFEF10
:101DE0004E1651046104710409F070F4F5016801A4
:101DF000E3CFFFEF4F1651046104710428F4F7019B
:101E0000E40DF51D13AA1AC0F701E15DFE4F8EE344
:101E10008083F701E05DFE4F8083F701EF5CFE4FAA
:101E20008AE08083F701EE5CFE4F1082F701E956ED
:101E3000FE4F80819181806191838083CE010196E4
:101E40000E94092783E3E80EF11CC701A4960FB690
:101E5000F894DEBF0FBECDBFDF91CF911F910F91E0
:101E6000FF90EF90DF90CF90BF90AF909F908F90BA
:101E70007F906F905F904F9008954F925F926F9216
:101E80007F928F929F92AF92BF92CF92DF92EF920A
:101E9000FF920F931F93CF93DF93CDB7DEB76B976E
:101EA0000FB6F894DEBF0FBECDBF5C01962E872E15
:101EB00029013A0119821B820E946E0CF7E9EF2E6C
:101EC000FF24F394EA0CFB1C81110EC081E290E028
:101ED000F70191838083F3E3AF0EB11C6CE273E0F2
:101EE000C5010E94A333D8C00115110529F00130A6
:101EF00021E0120708F402C000E011E0F701808140
:101F000091818F7C9183808321E0CC24C394D12C58
:101F1000CC0EDD1EA601692D782DC5010E94970DFE
:101F200081111CC0F3E3AF0EB11C8F929F9282E32C
:101F300093E09F938F9381E08F931F92BF92AF9214
:101F40000E94B933F70180819181806291838083FF
:101F50000FB6F894DEBF0FBECDBF9EC07E019BE1E1
:101F6000E90EF11C41E050E0B701C6010E94FA23DE
:101F7000411451046104710409F5C12CD12C76017E
:101F800046C091919A3029F421E0421A5108610823
:101F90007108411451046104710489F09E2E9E1849
:101FA000981678F3411451046104710441F041E042
:101FB00050E0B701C6010E94FA2301C0912C8111A3
:101FC00007C08FEF981659F0C12CD12C760116C09E
:101FD0004114510461047104A1F3F701DFCF8B8D2B
:101FE000F50183AB8A3011F401501109C12CD12CB9
:101FF0007601C39403C00150110949F041E050E05B
:10200000BE01655E7F4FCE0101960E94FA238823B0
:10201000B9F001151105A1F0FFEFCF16D104E104CD
:10202000F10409F0C0F49B8DF501EC0DFD1D93AB9F
:102030002FEFC21AD20AE20AF20A9A30F9F6DBCF7F
:102040008FEFC816D104E104F10428F4F501EC0D7A
:10205000FD1D13AA1AC0F501E15DFE4F8EE38083DA
:10206000F501E05DFE4F8083F501EF5CFE4F8AE0F5
:102070008083F501EE5CFE4F1082F501E956FE4FBC
:1020800080819181806191838083CE0101960E943D
:10209000092793E3A90EB11CC5016B960FB6F894FE
:1020A000DEBF0FBECDBFDF91CF911F910F91FF908B
:1020B000EF90DF90CF90BF90AF909F908F907F90E8
:1020C0006F905F904F900895FB01BC016E557E4F5D
:1020D00020E030E04EE55BE0CF010C94B50B2F9291
:1020E0003F924F925F926F927F928F929F92CF9288
:1020F000DF92EF92FF920F931F93CF93DF93CDB7B1
:10210000DEB76A970FB6F894DEBF0FBECDBF6C0185
:10211000962E872E3A011801290119821B820E94EE
:102120006E0C860109561E4F81110CC081E091E0B2
:10213000D8018D939C936CE273E0C601C3960E9414
:10214000A3332DC0F801808191819C7F918380838E
:102150002BE0AE014F5F5F4F692D782DC6010E94C5
:10216000970D81111EC08F929F9289E593E09F93F6
:102170008F9381E08F931F92F3E3CF0ED11CDF92F8
:10218000CF920E94B933D8018D919C9111979160A3
:102190008D939C930FB6F894DEBF0FBECDBF80E049
:1021A00059C0B201A101CE0101960E94752581118D
:1021B0001AC08F929F9283E493E09F938F9381E064
:1021C0008F931F92F3E3CF0ED11CDF92CF920E9428
:1021D000B933CE0101960E940927D8018D919C91B7
:1021E00011979260D5CFD3010D900020E9F78D01B2
:1021F0000150110906191709E016F10608F48701C4
:10220000A801B301CE0101960E94372C80179107D7
:10221000E1F08F929F928CE693E09F938F9381E001
:102220008F931F92C601C3969F938F930E94B933D9
:10223000CE0101960E940927F601E956FE4F8081E2
:102240009181916091838083A5CFCE0101960E94F8
:10225000092781E06A960FB6F894DEBF0FBECDBFA6
:10226000DF91CF911F910F91FF90EF90DF90CF9072
:102270009F908F907F906F905F904F903F902F90A6
:102280000895EF92FF920F931F93FA01019000209F
:10229000E9F73197E41BF50B7F010E946F101F9146
:1022A0000F91FF90EF900895CF92DF92EF92FF92FF
:1022B0000F931F93CF93DF9300D0CDB7DEB76C01A0
:1022C0007B0149835A830E94EB0D8B019C0149815C
:1022D0005A81B701C6010E9441110F900F90DF9102
:1022E000CF911F910F91FF90EF90DF90CF900895C5
:1022F0009F92AF92BF92CF92DF92EF92FF920F9395
:102300001F93CF93DF93CDB7DEB7A4970FB6F894A2
:10231000DEBF0FBECDBF7C01D62EC72E19821B8219
:102320000E946E0C870109561E4F81110FC081E279
:1023300090E0F801918380836CE273E0C701C3965B
:102340000E94A3330FEF1FEF98015DC0F801808159
:1023500091818F7D9183808321E0AA24A394B12C65
:10236000AC0EBD1EA5016D2D7C2DC7010E94970DE1
:1023700081111FC0CF92DF9289E593E09F938F93E5
:1023800081E08F931F92F3E3EF0EF11CFF92EF9227
:102390000E94B933F80180819181806291838083AA
:1023A0000FB6F894DEBF0FBECDBF00E010E098017D
:1023B0002AC08E01055E1F4F4AE050E0B801C501FA
:1023C0000E94FA23C12CD12C7601902E12C091913B
:1023D0009A3029F49FEFC91AD90AE90AF90A9E2FFF
:1023E00099199817A0F34AE050E0B801C5010E947E
:1023F000FA23882311F0F801F2CFCE0101960E9452
:10240000092797018601B801C901A4960FB6F8946F
:10241000DEBF0FBECDBFDF91CF911F910F91FF9017
:10242000EF90DF90CF90BF90AF909F9008950F9363
:102430001F93CF93DF93EC018B014AE653E00E9498
:10244000541181110AC04AE653E0B801CE01DF9170
:10245000CF911F910F910C945411DF91CF911F9147
:102460000F910895FF920F931F93CF93DF93EC0189
:102470008B010E945411F82E882329F0B801CE0157
:102480000E941712F8228F2DDF91CF911F910F918B
:10249000FF9008958F929F92AF92BF92CF92DF925A
:1024A000EF92FF92C090F608D090F708E090F808FD
:1024B000F090F90881E0C822DD24EE24FF2480900A
:1024C000F6089090F708A090F808B090F90840E05E
:1024D00061E08CEE98E00E94993140E060E08CEE83
:1024E00098E00E94993184EA93E00E940E0B84EAFE
:1024F00093E00E94550981FC06C041E060E08CEE4B
:1025000098E00E949931CD28CE28CF2831F441E0BF
:1025100061E08CEE98E00E9499318EE29BE090930E
:10252000D6068093D506FF90EF90DF90CF90BF90B6
:10253000AF909F908F900895EF92FF920F931F930B
:10254000CF93DF93CDB7DEB76C970FB6F894DEBFAD
:102550000FBECDBF7C0119821B826B8F7C8F0E94C6
:102560004A12C7010E946E0C870109561E4F6B8DDF
:102570007C8D81110CC081E490E0F801918380830F
:102580006CE273E0C701C3960E94A33315C0F80143
:10259000808191818F7B9183808323ECAE014F5F9B
:1025A0005F4FC7010E94970D811108C0F80180811B
:1025B000918180649183808380E005C0CE01019683
:1025C0000E94092781E06C960FB6F894DEBF0FBE1B
:1025D000CDBFDF91CF911F910F91FF90EF900895A4
:1025E0008F929F92AF92BF92CF92DF92EF92FF9223
:1025F0000F931F93CF93DF93EB0187E394E00E9447
:10260000EB0D4B015C0168EE72E089EF95E00E94F2
:10261000401640E060E072EC81E090E00E94081E0D
:1026200061E087E10E94B50460E08BE00E94B504A0
:10263000C12CD12C760113C001E010E0A701960156
:10264000BE0187E394E00E94240E60E080916A045A
:102650000E94021F8FEFC81AD80AE80AF80AC814A5
:10266000D904EA04FB0444F363E070E080E090E006
:102670000E94CE0361E08BE00E94B5046DEF72E032
:1026800089EF95E0DF91CF911F910F91FF90EF902F
:10269000DF90CF90BF90AF909F908F900C9440169A
:1026A00087E394E00C94560C61E08EE10E949C0458
:1026B00061E08FE10E949C0461E08DE10E949C0436
:1026C00060E08EE10E94B50460E08FE10E94B504F5
:1026D00061E08DE10E94B5048CB580618CBD8CB544
:1026E00080648CBD08958CB58F7B8CBD089581115D
:1026F00003C08CB5806202C08CB58F7D8CBD0895FF
:102700009CB5937F982B9CBD08952CB5982F937002
:102710002C7F922B9CBD9DB580FB90F99DBD0895AB
:10272000CF93C62F61E08DE10E949C0461E082E2BC
:102730000E949C0461E08DE10E94B50461E082E2A8
:102740000E94B5048091F6089091F708A091F808CE
:10275000B091F908A2FF08C061E088E00E949C04E3
:1027600061E088E00E94B5048091F6089091F70836
:10277000A091F808B091F90896FF08C061E089E0DF
:102780000E949C0461E089E00E94B5048091F608F3
:102790009091F708A091F808B091F908A3FF08C03C
:1027A00061E082E00E949C0461E082E00E94B50446
:1027B0008091F6089091F708A091F808B091F90877
:1027C000A4FF08C061E082E20E949C0461E082E212
:1027D0000E94B504C330C9F020F4C13061F070F438
:1027E00007C0C53061F1F0F0C63009F067C033C0F2
:1027F00060E08DE160C060E082E25DC08EEF95E058
:102800000E94C11660E08CE256C08091F60890915B
:10281000F708A091F808B091F908A2FF4FC060E056
:1028200088E049C08091F6089091F708A091F808D7
:10283000B091F90896FF42C060E089E03CC0809109
:10284000F6089091F708A091F808B091F908A3FF55
:1028500035C060E02FC061E08DE10E94B50461E009
:1028600082E20E94B5048091F6089091F708A09149
:10287000F808B091F908A2FF04C061E088E00E9466
:10288000B5048091F6089091F708A091F808B091EE
:10289000F90896FF04C061E089E00E94B5048091C8
:1028A000F6089091F708A091F808B091F908A3FFF5
:1028B00005C061E082E0CF910C94B504CF910895FA
:1028C0008091F6089091F708A091F808B091F90866
:1028D000A2FF0EC08091F6089091F708A091F80829
:1028E000B091F90881FF04C08091F5058823C1F1FA
:1028F0008091F6089091F708A091F808B091F90836
:10290000A1FF0CC08091F305811108C061E086E150
:102910000E949C0461E086E10E94B5048091F40568
:10292000811108C061E08BE10E949C0461E08BE1B1
:102930000E94B5048091F6089091F708A091F808DC
:10294000B091F908A4FF11C08091F80581110DC064
:1029500061E086E10E949C0461E086E10C94B5048C
:1029600061E082E00E94B504C3CF08958091F6082B
:102970009091F708A091F808B091F908A2FF0EC055
:102980008091F6089091F708A091F808B091F908A5
:1029900081FF04C08091F5058823C1F18091F6087C
:1029A0009091F708A091F808B091F908A1FF0CC028
:1029B0008091F305811108C061E086E10E949C04CA
:1029C00060E086E10E94B5048091F405811108C0A1
:1029D00061E08BE10E949C0460E08BE10E94B50401
:1029E0008091F6089091F708A091F808B091F90845
:1029F000A4FF11C08091F80581110DC061E086E14E
:102A00000E949C0460E086E10C94B50460E082E0E2
:102A10000E94B504C3CF0895CF93C82F83EF95E0EC
:102A20000E946014CEBD0DB407FEFDCF83EF95E08C
:102A30000E94B6148EB5CF9108950F931F93CF9334
:102A4000DF938A01EB01060F171F03C089910E94D3
:102A50000C15C017D107D1F7DF91CF911F910F91BE
:102A600008950F931F93CF93DF93EB014115510509
:102A700019F18A010150110983EF95E00E94601459
:102A80008FEF8EBDFE012FEF06C00DB407FEFDCF08
:102A90008EB52EBD8193CF018C1B9D0B80179107A6
:102AA000A0F30DB407FEFDCF8EB5C00FD11F8883F4
:102AB00083EF95E00E94B61480E0DF91CF911F91E3
:102AC0000F91089583EF95E00E9460148FEF8EBD03
:102AD0000DB407FEFDCF83EF95E00E94B6148EB5CE
:102AE00008951092F4051092F3051092F5051092D6
:102AF000F6051092F7051092F8050895FC01408143
:102B000060E072EC81E090E00E94081E61E087E1E5
:102B10000E949C0461E087E10E94B50461E08BE0C3
:102B20000E949C0460E08BE00E94B50461E08DE2AD
:102B30000E949C0460E08DE20C94B504DC0180915D
:102B4000C50011968C9311978091C40012968C93B6
:102B50001297E2ECF0E0808113968C9313978091AA
:102B6000CA0014968C93149780818F7D8083808116
:102B70008F7E80838081877F80834C9160E072ECC0
:102B800081E090E00E94081E61E087E10E94B504A8
:102B900060E08BE00C94B504CF93DF93EC0140919F
:102BA000F6085091F7086091F8087091F90863E011
:102BB00070E080E090E042FF07C00E94CE0361E039
:102BC0008BE00E94B50402C00E94CE0389818093ED
:102BD000C5008A818093C4008B818093C2008C8160
:102BE0008093CA00DF91CF910895EF92FF920F93E7
:102BF0001F93CF93DF938C01EB010E949E157E0102
:102C000088E1E81A8CEFF80AFE0121968491882366
:102C100039F0F80160810E94021FCE15DF05A1F78F
:102C2000C8010E94CC1560E070E0CB01DF91CF912C
:102C30001F910F91FF90EF9008950F931F93CF93E3
:102C4000DF93EC018B010E949E156881C8010E94F0
:102C50000F1F88810E94041FCE01DF91CF911F9129
:102C60000F910C94CC15CF93DF93EC010E949E152D
:102C700088810E94041FCE01DF91CF910C94CC1566
:102C8000EF92FF920F931F93CF93DF9300D0CDB7B6
:102C9000DEB77C010E94F5158C01C70169837A8338
:102CA0000E94331669817A81C8010F900F90DF91DD
:102CB000CF911F910F91FF90EF900895CF92DF92E7
:102CC000EF92FF920F93CF93DF93EC016A017B01A8
:102CD0000E949E15F7FE0CC068818DE20E94021FC3
:102CE000F094E094D094C094C11CD11CE11CF11C60
:102CF00008812AE030E040E050E0C701B6010E94C0
:102D00001F1FCE01DF91CF910F91FF90EF90DF90C9
:102D1000CF900C94CC150F931F93CF93DF93EC01BE
:102D20008B010E949E156881C8010E940F1FCE0171
:102D3000DF91CF911F910F910C94CC151092F90552
:102D400008951F93CF93DF931F92CDB7DEB7162F51
:102D500061E0812F49830E949C044981413011F434
:102D600061E003C0411108C060E0812F0F90DF9146
:102D7000CF911F910C94B5040F90DF91CF911F91CB
:102D8000089561E087E10E949C0461E084E20E9472
:102D90009C0461E085E20E949C0461E087E10E945E
:102DA000B50461E084E20E94B50461E085E20C9420
:102DB000B504CB010C94FB358F929F92AF92BF92DA
:102DC000CF92DF92EF92FF920F931F93CF93DF93F7
:102DD000CDB7DEB7C75FD1090FB6F894DEBF0FBE1F
:102DE000CDBF8E0100511F4F580128E0A20EB11C2B
:102DF0007E0181E8E80EF11CCC24C394D12CCC0ECA
:102E0000DD1E6DE0CE018F519F4F0E947B3140E06F
:102E10006CE08EEF95E00E94A11640E06DE08EEF31
:102E200095E00E94A116F80110821182128213828D
:102E300061E08CE00E949C0461E08CE00E94B5049B
:102E4000CE018F519F4F0E945B3041E06DE08EEFCD
:102E500095E00E94A1166AE070E080E090E00E9498
:102E6000CE0340E063E3CE018F519F4F0E942C318F
:102E700062E370E080E090E00E94CE034701CE0163
:102E80008F519F4F0E940131F2E08F1A9108F40197
:102E90008083118261E070E080E090E00E94CE03C8
:102EA0008C149D0461F7FE017196D701C60180590B
:102EB0009F4F219131912D933D93E817F907C9F761
:102EC00031EE832E912C8C0E9D1E81E090E0A0E0CF
:102ED000B0E0F401329122914F012130310569F4C3
:102EE000F8014081518162817381480F591F6A1F27
:102EF0007B1F4083518362837383880F991FAA1FAE
:102F0000BB1F8E149F0429F7F80180819181A28153
:102F1000B3818F3F9F4FAF4FBF4F29F4F80110820D
:102F200011821282138260E08CE00E94B50440E0BE
:102F30006CE08EEF95E00E94A11640E06DE08EEF10
:102F400095E00E94A1160C5F1F4F0A151B0509F0A2
:102F500058CFC051DF4F088119812A813B81C05F62
:102F6000D040CC50DF4F88819981AA81BB81C45F5A
:102F7000D040081719072A073B0719F000E010E0B6
:102F80009801B801C901C950DF4F0FB6F894DEBFF0
:102F90000FBECDBFDF91CF911F910F91FF90EF90AA
:102FA000DF90CF90BF90AF909F908F900895CF9279
:102FB000DF92EF92FF920E94DC166B017C0161159B
:102FC00071058105910591F483EE90E00E9403362E
:102FD0006A302AE072078207920741F06F3F2FEFB5
:102FE00072078207920711F06B017C01B601C701DD
:102FF000FF90EF90DF90CF9008958FED90E00E94CA
:10300000FB358F3F09F480E00895CF93DF93EC0107
:1030100080E2EDE2F6E0DF01982F1D929A95E9F744
:1030200010922C0610922B06EAE0F6E0DF011D92CA
:103030008A95E9F710920906109208060E94AF19C6
:1030400081E08E8384E090E0DF91CF910C94F803CF
:1030500081E08093070660932A0610920906109279
:10306000080608950C94281880912B0690912C0640
:10307000891B089590912C0680912B06981748F48F
:10308000E92FF0E0E35DF94F80819F5F90932C067C
:10309000089580E00895CF93DF93EC010E94FB191F
:1030A0001E82DF91CF9108954091F6085091F70864
:1030B0006091F8087091F9084170FC0140834091DB
:1030C000F6085091F7086091F8087091F908769524
:1030D000679557954795417041838091F608909187
:1030E000F708A091F808B091F90884FD49C08091D3
:1030F000F6089091F708A091F808B091F90885FDBD
:103100003FC08091F6089091F708A091F808B0911F
:10311000F90886FD35C08091F6089091F708A091D6
:10312000F808B091F90887FD2BC08091F6089091BE
:10313000F708A091F808B091F90890FD21C080919E
:10314000F6089091F708A091F808B091F90891FD60
:1031500017C08091F6089091F708A091F808B091F7
:10316000F90893FD0DC0089540E060E08CEE98E012
:103170000E94993140E061E08CEE98E00C94993126
:1031800080910606882381F30895CF93DF93EC01A5
:103190008091F6089091F708A091F808B091F9088D
:1031A00084FD58C08091F6089091F708A091F80826
:1031B000B091F90885FD4EC08091F6089091F7080E
:1031C000A091F808B091F90886FD44C08091F608F6
:1031D0009091F708A091F808B091F90887FD3AC0DE
:1031E0008091F6089091F708A091F808B091F9083D
:1031F00090FD30C04091F6085091F7086091F808B2
:103200007091F90851FD26C04091F6085091F708D9
:103210006091F8087091F90853FD1CC020C041E08E
:1032200060E08CEE98E00E9499310CC08981811198
:1032300006C041E060E08CEE98E00E949931888100
:1032400081110DC041E061E08CEE98E0DF91CF91FB
:103250000C949931809106068111E8CFE0CFDF917F
:10326000CF910895CF93DF931F92CDB7DEB76983D7
:1032700080910706882389F0809108068032D0F477
:1032800080910906E82FF0E0E65FF94F60838F5FD9
:1032900080930906809308060DC08FEF95E00E9489
:1032A000541861E0CE0101960E94DC198FEF95E081
:1032B0000E94C5180F90DF91CF9108950C94321998
:1032C000CF938FEF95E00E94541821E040910806BB
:1032D0006AE076E080912A060E949F1AC82F109219
:1032E000090610920806109207068FEF95E00E94DB
:1032F000C5188C2FCF910895CF93DF93D62FC42F6D
:103300008FEF95E00E945418C13208F0C0E24C2FB4
:103310006DE276E08D2F0E94041BD82F10922C06B0
:10332000C0932B068FEF95E00E94C5188D2FDF917B
:10333000CF9108950C947C19109206061092FF0507
:10334000109200068AEF90E0A0E0B0E080930106C2
:1033500090930206A0930306B0930406089510927A
:103360005606E4E6F0E080818F778083589A599A78
:10337000E9EBF0E080818E7F808380818D7F808388
:1033800081E48093B80085E48093BC0080E2E7E5A7
:10339000F6E0DF01982F1D929A95E9F7E7E7F6E04E
:1033A000DF01982F1D929A95E9F7E7E9F6E0DF0132
:1033B0001D928A95E9F70895613298F42091560696
:1033C000243089F460935306FC0187E796E0DC0122
:1033D00002C021912D932A2F281B2617D0F380E0BD
:1033E000089581E0089582E0089585EC8093BC0003
:1033F000109256060895589859988091B9008160A6
:103400008093B9008091B90082608093B900809167
:10341000BC0080688093BC008091BC008061809378
:10342000BC008091BC008F7B8093BC008091BC006D
:103430008F7D8093BC008091BC00877F8093BC000F
:103440008091F6089091F708A091F808B091F908DA
:1034500086FD14C08091F6089091F708A091F808B5
:10346000B091F90890FD0AC08091F6089091F70894
:10347000A091F808B091F90893FF04C08091BC00B6
:103480008B7F03C08091BC0084608093BC008091DE
:10349000BC008E7F8093BC00809164008068809324
:1034A00064000895882349F010924D0610924E064C
:1034B00010924F061092500613C080914D069091C5
:1034C0004E06A0914F06B09150060196A11DB11D68
:1034D00080934D0690934E06A0934F06B0935006EE
:1034E00080914D0690914E06A0914F06B0915006E6
:1034F000803A9648A140B10560F010924D061092B6
:103500004E0610924F06109250060E94AF1981E0AD
:10351000089580E0089585ED8093BC0081E00E94CD
:10352000521A08C080E00E94521A882319F01092A3
:10353000560608958091BC0084FDF4CFF8CFFF9229
:103540000F931F93CF93DF93182F062FF72EC42FBF
:10355000D22F81E0413208F051C00E94521A15C0AA
:1035600080E00E94521A882381F082E08093560600
:103570008FEF8093510610925506C093B706E02F47
:10358000FF2D67E576E0DB0107C0809156068111CB
:10359000E7CFEBCF81918D938A2F861B8C17D0F3C9
:1035A000812F90E0880F991F8093B80685EE809355
:1035B000BC0081E00E94521AD11105C080915106D1
:1035C0008F3F59F414C0809156068230B9F780E0DD
:1035D0000E94521A81110DC0F6CF8091510680329F
:1035E00051F080915106803341F483E007C080E0C0
:1035F00005C085E003C082E001C084E0DF91CF9187
:103600001F910F91FF9008950F931F93CF93DF9316
:10361000082FD62F172FC42F81E04132E0F50E94EA
:10362000521A1DC080E00E94521A8823C1F081E026
:10363000809356068FEF8093510610925506C093E3
:10364000B706802F90E0880F991F81608093B8069D
:1036500085EE8093BC0081E00E94521A10C08091D8
:1036600056068111DFCFE3CF80E00E94521A8823F3
:1036700031F087E596E0ED2FF12FDC0107C0809156
:103680005606813089F3F5CF2D9121932A2F281BDF
:103690002C17D0F380E0DF91CF911F910F91089507
:1036A0001F920F920FB60F9211240BB60F922F9309
:1036B0003F934F935F936F937F938F939F93AF93BA
:1036C000BF93CF93EF93FF93C091B900C87FC036EB
:1036D00009F49FC058F5C83209F45BC090F4C031BA
:1036E00009F452C038F4CC2309F4F2C0C83009F010
:1036F000F3C04AC0C83109F44CC0C03209F0ECC074
:103700005DC0C03409F473C038F4C03309F45BC041
:10371000C83309F0E1C05AC0C03509F45CC0C835EF
:1037200009F46AC0C83409F0D7C0D4C0C83909F454
:10373000C5C0A8F4C83709F46CC038F4C83609F419
:1037400068C0C03709F0C8C064C0C83809F4B6C042
:10375000C03909F464C0C03809F0BEC060C0C03BC5
:1037600009F484C038F4C03A09F46BC0C83A09F0CF
:10377000B3C07CC0C03C09F4A5C0C83C09F4A2C0D9
:10378000C83B09F0A9C087C08091B8068093BB00F0
:1037900013C0909155068091B706981708F09AC00B
:1037A00080915506E82FF0E0E95AF94F9081909307
:1037B000BB008F5F8093550685EC81C00E948B1AF9
:1037C000C093510689C0C093510684C0C09351066E
:1037D0000E94F51981C0809155069091BB00E82F99
:1037E000F0E0E95AF94F90838F5F809355069091EE
:1037F00055068091B7065FC0809155069091BB0039
:10380000E82FF0E0E95AF94F90838F5F80935506D7
:1038100061C083E08093560610925206CDCF80910E
:103820005206803208F04AC0809152069091BB0047
:10383000E82FF0E0E956F94F90838F5F80935206AE
:10384000BBCF80915206803230F4E0915206F0E016
:10385000E956F94F108260915206E091B906F09155
:10386000BA0670E087E996E009952CC084E0809361
:1038700056061092540610925306E091BB06F09142
:10388000BC06099580915306811105C081E08093A3
:1038900053061092770680915406E82FF0E0E9581D
:1038A000F94F90819093BB008F5F80935406909165
:1038B000540680915306981708F47ECF85E88093CC
:1038C000BC000AC085EC8093BC001092560604C070
:1038D000109251060E948B1AFF91EF91CF91BF91E8
:1038E000AF919F918F917F916F915F914F913F9198
:1038F0002F910F900BBE0F900FBE0F901F90189539
:103900001F920F920FB60F9211240BB60F922F93A6
:103910003F934F935F936F937F938F939F93AF9357
:10392000BF93EF93FF938091BD069091BE06892BC4
:1039300029F0E091BD06F091BE060995FF91EF9147
:10394000BF91AF919F918F917F916F915F914F91B7
:103950003F912F910F900BBE0F900FBE0F901F90B5
:1039600018951F920F920FB60F9211240BB60F925B
:103970002F933F934F935F936F937F938F939F9377
:10398000AF93BF93EF93FF938091BF069091C006D2
:10399000892B29F0E091BF06F091C0060995FF91AF
:1039A000EF91BF91AF919F918F917F916F915F91B7
:1039B0004F913F912F910F900BBE0F900FBE0F9024
:1039C0001F9018951F920F920FB60F9211240BB6ED
:1039D0000F922F933F934F935F936F937F938F93A8
:1039E0009F93AF93BF93EF93FF938091C106909104
:1039F000C206892B29F0E091C106F091C206099513
:103A0000FF91EF91BF91AF919F918F917F916F91B6
:103A10005F914F913F912F910F900BBE0F900FBE72
:103A20000F901F9018951F920F920FB60F921124AE
:103A30000BB60F922F933F934F935F936F937F93A8
:103A40008F939F93AF93BF93EF93FF938091C306A0
:103A50009091C406892B29F0E091C306F091C40629
:103A60000995FF91EF91BF91AF919F918F917F91B8
:103A70006F915F914F913F912F910F900BBE0F90DF
:103A80000FBE0F901F9018951F920F920FB60F92B6
:103A900011240BB60F922F933F934F935F936F9325
:103AA0007F938F939F93AF93BF93EF93FF938091F7
:103AB000C5069091C606892B29F0E091C506F091C4
:103AC000C6060995FF91EF91BF91AF919F918F919C
:103AD0007F916F915F914F913F912F910F900BBE0E
:103AE0000F900FBE0F901F9018951F920F920FB658
:103AF0000F9211240BB60F922F933F934F935F9326
:103B00006F937F938F939F93AF93BF93EF93FF93A5
:103B10008091C7069091C806892B29F0E091C706CD
:103B2000F091C8060995FF91EF91BF91AF919F91D8
:103B30008F917F916F915F914F913F912F910F9056
:103B40000BBE0F900FBE0F901F9018951F920F92F3
:103B50000FB60F9211240BB60F922F933F934F93F2
:103B60005F936F937F938F939F93AF93BF93EF93E5
:103B7000FF938091C9069091CA06892B29F0E091A4
:103B8000C906F091CA060995FF91EF91BF91AF91D7
:103B90009F918F917F916F915F914F913F912F9165
:103BA0000F900BBE0F900FBE0F901F9018951F9295
:103BB0000F920FB60F9211240BB60F922F933F93D3
:103BC0004F935F936F937F938F939F93AF93BF9325
:103BD000EF93FF938091CB069091CC06892B29F02F
:103BE000E091CB06F091CC060995FF91EF91BF9142
:103BF000AF919F918F917F916F915F914F913F9185
:103C00002F910F900BBE0F900FBE0F901F90189525
:103C1000CF92DF92EF92FF926B017C01411134C091
:103C200088E00E946204C701B60122E030E040E073
:103C300050E00E947132305F414F5F4FCA01B901BD
:103C4000A70196010E947132DA01C9010197A10909
:103C5000B109892F9A2FAB2FBB27A7FDBA95809367
:103C6000C50021502093C4008091C10080618093E1
:103C7000C1008091C10088608093C1008091C10023
:103C800080688093C10033C080E10E946204C70154
:103C9000B60122E030E040E050E00E947132305F37
:103CA000414F5F4FCA01B901A70196010E947132CD
:103CB000DA01C9010197A109B109892F9A2FAB2F08
:103CC000BB27A7FDBA958093CD0021502093CC004F
:103CD0008091C90080618093C9008091C90088608B
:103CE0008093C9008091C90080688093C900FF90CB
:103CF000EF90DF90CF900895611107C09091C000C0
:103D000095FFFCCF8093C60008959091C80095FF61
:103D1000FCCF8093CE0008951F920F920FB60F92A2
:103D200011242F933F934F935F936F937F938F93C0
:103D30009F93AF93BF93EF93E091C6002091D3067A
:103D40003091D406C901019660E072E00E943B32D6
:103D50004091D1065091D2068417950741F0D901C0
:103D6000A85FB44FEC939093D4068093D306EF9161
:103D7000BF91AF919F918F917F916F915F914F9183
:103D80003F912F910F900FBE0F901F9018951F928B
:103D90000F920FB60F9211242F933F934F935F937F
:103DA0006F937F938F939F93AF93BF93EF93E09124
:103DB000CE002091CF063091D006C901019660E077
:103DC00072E00E943B324091CD065091CE0684179E
:103DD000950741F0D901A85FB64FEC939093D006B8
:103DE0008093CF06EF91BF91AF919F918F917F917B
:103DF0006F915F914F913F912F910F900FBE0F9058
:103E00001F9018950C947C1ECF93C82F682F8DE0BF
:103E10000E947C1E6C2F8AE0CF910C947C1E1F9315
:103E2000CF93DF93162FEC0103C0612F0E947C1EFD
:103E300089918111FACFDF91CF911F9108954F920F
:103E40005F926F927F928F929F92AF92BF92CF922A
:103E5000DF92EF92FF920F93CF93DF93CDB7DEB750
:103E6000A0970FB6F894DEBF0FBECDBF29013A016F
:103E70006115710581059105C9F4602F80E3A09655
:103E80000FB6F894DEBF0FBECDBFDF91CF910F917B
:103E9000FF90EF90DF90CF90BF90AF909F908F906A
:103EA0007F906F905F904F900C947C1EEE24E39473
:103EB000F12CEC0EFD1E812C912C5401A3019201DA
:103EC0000E944F32F70161937F01FFEF8F1A9F0A23
:103ED000AF0ABF0AB901CA016115710581059105D3
:103EE00069F7CC24CA94DC2C7601C80CD91CEA1CD6
:103EF000FB1C14C0E1E0F0E0EC0FFD1FEC0DFD1D1C
:103F000080818A3010F4805D01C0895C602F0E943E
:103F10007C1E81E0C81AD108E108F108EFEFCE1647
:103F2000DE06EE06FE0631F7A0960FB6F894DEBF69
:103F30000FBECDBFDF91CF910F91FF90EF90DF903B
:103F4000CF90BF90AF909F908F907F906F905F9039
:103F50004F90089561E0FC0180810E94B5048FEFCD
:103F60000C940C150E94541380E00E94801384E08E
:103F70000E94851360E083EF95E00C9490138F927C
:103F80009F92AF92BF92CF92DF92EF92FF920F93E8
:103F90001F93CF93DF93EC018B017A0113C00E9432
:103FA0007C036C197D096D32714010F081E122C0F3
:103FB0000E947C034601A12CB12C681579058A0565
:103FC0009B0518F40E947C036B0183EF95E00E942F
:103FD00062158B838F3F19F38E3F11F08FE00AC07B
:103FE000A701B80183EF95E00E9431158B838823E8
:103FF00019F08CE189830DC083EF95E00E94621572
:1040000083EF95E00E946215CE010E94AA1F81E015
:1040100004C0CE010E94AA1F80E0DF91CF911F91C2
:104020000F91FF90EF90DF90CF90BF90AF909F9057
:104030008F9008950F931F93CF93DF9300D0CDB748
:10404000DEB78C0169837A830E94B21F40E052E0A0
:1040500069817A81C8010F900F90DF91CF911F91F4
:104060000F910C94BF1FCF92DF92EF92FF920F93AC
:104070001F93CF93DF93EB0111C00E947C03601B61
:10408000710B6C177D07A8F40E947C036801E12C7A
:10409000F12C6C157D058E059F0518F40E947C039C
:1040A0008B0183EF95E00E9462158F3F31F781E02D
:1040B00001C080E0DF91CF911F910F91FF90EF90B1
:1040C000DF90CF900895FF920F931F93CF93DF93CC
:1040D00000D000D0CDB7DEB78C01F62E29833A830D
:1040E0004B835C830E94B21F68E572E0C8010E94A6
:1040F00033208F2D80640E940C158C810E940C153A
:104100008B810E940C158A810E940C1589810E9466
:104110000C15F11002C085E901C087E80E940C155A
:104120008CE0F81204C083EF95E00E946215F12C38
:1041300083EF95E00E946215F801838387FF05C035
:10414000FFEFFF1611F0F394F3CF0F900F900F9045
:104150000F90DF91CF911F910F91FF900895CF9312
:10416000DF93EC0120E030E0A9016CE00E946320C5
:10417000882339F083E08983CE010E94AA1F80E062
:1041800004C0CE010E94AA1F81E0DF91CF91089563
:10419000CF93DF93EC018C81833039F089E0440FB9
:1041A000551F661F771F8A95D1F79A01AB0162E10F
:1041B000CE010E946320882339F085E08983CE01F7
:1041C0000E94AA1F80E004C0CE010E94AA1F81E0C5
:1041D000DF91CF9108950F931F93CF93DF93EC015D
:1041E00089018C81833039F0E9E0440F551F661F47
:1041F000771FEA95D1F79A01AB0161E1CE010E94E8
:10420000632081110AC040E052E0B801CE01DF9185
:10421000CF911F910F910C94BF1F84E08983CE0131
:104220000E94AA1F80E0DF91CF911F910F91089506
:104230004F925F926F927F92BF92CF92DF92EF92F6
:10424000FF920F931F93CF93DF93EC01B42E1C8248
:10425000198268830E947C038B0161E088810E943F
:104260009C0461E088810E94B5040E94541380E0A0
:104270000E94801384E00E9485138AE0F82E8FEF5D
:104280000E940C15FA94D9F716C00E947C03601B9B
:10429000710B613D774010F081E08CC00E947C037F
:1042A0006801E12CF12C6C157D058E059F0518F435
:1042B0000E947C038B0120E030E0A90160E0CE0188
:1042C0000E946320813009F7E12CB2E0FB2E2AEA3C
:1042D00031E040E050E068E0CE010E94632085308C
:1042E00011F481E00CC0A4E0DA2E83EF95E00E9487
:1042F00062158B83DA94C9F78A3A19F482E08C83C9
:104300001AC00E947C03601B710B613D774010F066
:1043100082E050C00E947C032801612C712C64153E
:1043200075058605970518F40E947C038B0181E0D2
:10433000E81AF10861F68C81823031F4C12CD12C5D
:10434000E12CF0E4FF2E1AC0C12CD12C760116C04E
:104350000E947C03601B710B613D774010F08AE086
:1043600029C00E947C032801612C712C64157505FD
:104370008605970518F40E947C038B0120E030E04D
:10438000A90167E3CE010E946320A701960169E2BB
:10439000CE010E9463208111DBCF8C81823009F530
:1043A00020E030E0A9016AE3CE010E946320882367
:1043B00019F088E089831BC083EF95E00E946215A5
:1043C000807C803C11F483E08C8383EF95E00E9435
:1043D000621583EF95E00E94621583EF95E00E94DD
:1043E0006215CE010E94AA1FBA8281E004C0CE01EC
:1043F0000E94AA1F80E0DF91CF911F910F91FF9043
:10440000EF90DF90CF90BF907F906F905F904F9034
:1044100008950F931F93CF93DF93EC01862F8A01AA
:104420000E940C1540E052E0B80183EF95E00E9435
:104430001D158FEF0E940C158FEF0E940C1583EF56
:1044400095E00E9462158B838F71853039F083E18E
:104450008983CE010E94AA1F80E001C081E0DF9124
:10446000CF911F910F9108950F931F93CF93DF93D7
:10447000EC018B010E94B21F68E572E0CE010E9440
:104480003320882361F0A8016CEFCE010E9409223D
:10449000882329F0CE010E94AA1F81E006C085E191
:1044A0008983CE010E94AA1F80E0DF91CF911F91E6
:1044B0000F9108950F931F93CF93DF93EC01890120
:1044C0008C81833039F039E0440F551F661F771F08
:1044D0003A95D1F79A01AB0168E1CE010E946320C1
:1044E000882319F086E089830CC0A8016EEFCE0105
:1044F0000E940922882329F0CE010E94AA1F81E090
:1045000004C0CE010E94AA1F80E0DF91CF911F91CD
:104510000F9108958F929F92AF92BF92CF92DF92A8
:10452000EF92FF920F931F93CF93DF93EC016A01F9
:104530007B014801590120E030E0A90167E30E94B6
:104540006320A501940167E1CE010E9463208823C6
:1045500011F089E013C08C81833039F049E0CC0C34
:10456000DD1CEE1CFF1C4A95D1F7A701960169E1FD
:10457000CE010E946320882319F087E0898305C05B
:10458000CE010E94AA1F81E004C0CE010E94AA1F92
:1045900080E0DF91CF911F910F91FF90EF90DF901E
:1045A000CF90BF90AF909F908F900895CF93DF935F
:1045B000EC010E94B21F68E572E0CE010E94332038
:1045C000882379F08DEF0E940C1568E572E0CE012A
:1045D0000E943320882329F0CE010E94AA1F81E087
:1045E00006C082E18983CE010E94AA1F80E0DF918C
:1045F000CF910895CF93DF93EC019C012A5F3F4F49
:1046000041E050E060E070E08C819D810E94D22DFD
:104610008823A1F04E895F89688D798D452B462BC3
:10462000472B71F44E815F81688579854E8B5F8B56
:10463000688F798F89818068898302C080E001C09A
:1046400081E0DF91CF910895BF92CF92DF92EF92F8
:10465000FF920F931F93CF93DF938C01FC0182890C
:104660009389A489B589803E9F4FAF41B10508F079
:104670001AC0C8010E94FA228823A9F0D801169610
:104680004D915D916D917C91199714968D919C91AE
:1046900015970E94D52C6B017C0145E00E94802C6F
:1046A000EC01009719F4C0E0D0E03AC080E092E05D
:1046B000FE019C01119221503040E1F7BB24B394DC
:1046C00010C0B701A6014B0D511D611D711D9E014A
:1046D0008091D7069091D8060E945A22882319F318
:1046E000B394D8011496ED91FC9115978481B81676
:1046F00040F390E0A0E0B0E029E0880F991FAA1FE6
:10470000BB1F2A95D1F7F8014289538964897589BD
:10471000480F591F6A1F7B1F428B538B648B758B0D
:10472000CE01DF91CF911F910F91FF90EF90DF901D
:10473000CF90BF900895CF93DF93EC01462F6E8505
:104740007F85888999890E94802C009749F02B8168
:10475000AC0160E2269F400D511D11249A0102C058
:1047600020E030E0C901DF91CF910895CF93DF932E
:10477000FB012BE030E231932150E9F7DC0130E01E
:10478000C7E01DC0CA3059F138E0CAE018C0E217CE
:1047900031F1FC010196E491E111F9CFC317F8F072
:1047A0002132E8F02F37D8F4FB01E30FF11D822FFF
:1047B00081568A3110F4D22FD052D0833F5FCD0181
:1047C0002D91211109C0FA018083918381E0FB01C1
:1047D0009081903261F403C02F3219F4F4CF80E05D
:1047E00006C0D22F2E3271F283EC93E0D2CFDF914C
:1047F000CF9108953F924F925F926F927F928F92E6
:104800009F92AF92BF92CF92DF92EF92FF920F935F
:104810001F93CF93DF9300D000D0CDB7DEB79C833A
:104820008B839B015A01FC018281811103C02FEF10
:104830003FEF2CC1EB81FC81818180FFF8CFF8C074
:104840005A01A81AB90A650179018B819C810696E3
:104850009A838983E7C0EB81FC814284538464841A
:104860007584D301C2019170AA27BB274C018481B2
:104870009581B301A20139E07695679557954795E3
:104880003A95D1F7FC0134803A943422EB81FC81D3
:104890002281223051F4FC01458856886788708C4B
:1048A000440E551E661E771E2FC081149104E1F43C
:1048B00031101AC0EB81FC8145284628472849F46D
:1048C00086899789A08DB18D86839783A087B187CC
:1048D0000BC0468157816085718529813A810E948C
:1048E000F12C882309F4A3CFEB81FC814681578109
:1048F00060857185848195810E94D52C2B013C01B6
:10490000430C511C611C711C8114910409F0AAC054
:10491000C114F2E0DF0608F4A5C08091DA06909198
:10492000DB06A091DC06B091DD06481659066A0642
:104930007B0609F0A0C096C020E032E028193909B2
:1049400086012C153D0508F48901880E991EA801E1
:10495000B401C7010E947B3353C09701B301A20188
:104960008091D7069091D8060E94EB20811146C015
:104970005ECF9D2C9694EB81FC812281223041F008
:1049800024813581F90124812319291508F4922EF7
:10499000481659066A067B0658F4B301A2018091B5
:1049A000D7069091D8060E94C82081110CC03FCF35
:1049B000890D911DA11DB11D481659066A067B0679
:1049C00008F45FC0EACF2701812C09C0B2010E9420
:1049D0001A20FEEF5F1A882309F429CF839480916F
:1049E000D7069091D8068910F1CF0E94AF20882376
:1049F00009F41DCF182D110F00E002C000E012E0F5
:104A0000E00EF11EEB81FC8182859385A485B5853E
:104A1000800F911FA11DB11D82879387A487B58741
:104A2000C01AD10AC114D10409F015CF95012EC0C6
:104A3000EB81FC81428953896489758982859385DC
:104A4000A485B5852501612C712C6A017B01C81AEA
:104A5000D90AEA0AFB0A4C145D046E047F0408F0CC
:104A6000EFCEF1CE40E0C301B2010E94802C00974E
:104A700009F062CFDCCEC114F4E0DF0608F079CF94
:104A80006CCF0E94392C811188CFD1CEC9010F90F3
:104A90000F900F900F90DF91CF911F910F91FF908A
:104AA000EF90DF90CF90BF90AF909F908F907F90CE
:104AB0006F905F904F903F900895CF93DF931F9238
:104AC000CDB7DEB741E050E0BE016F5F7F4F0E947F
:104AD000FA23019719F4298130E002C02FEF3FEF4C
:104AE000C9010F90DF91CF9108958F929F92AF925D
:104AF000BF92CF92DF92EF92FF920F931F93CF93CB
:104B0000DF93EC014A015B012A81222309F475C07D
:104B10008A899B89AC89BD8984179507A607B70741
:104B200008F46BC06CC081149104A104B10449F471
:104B30001E821F82188619861A861B861C861D8671
:104B40005AC04A855B856C857D85EC81FD81218518
:104B500030E0275F3F4FDB01CA010197A109B1098E
:104B6000022E04C0B695A795979587950A94D2F71B
:104B7000CC24CA94DC2C7601C80CD91CEA1CFB1C82
:104B800004C0F694E794D794C7942A95D2F7C81630
:104B9000D906EA06FB0620F0452B462B472B49F4A5
:104BA0008E899F89A88DB98D8E839F83A887B987A9
:104BB00016C0C81AD90AEA0AFB0A11C04E815F81E1
:104BC0006885798598018C819D810E94F12C91E006
:104BD000C91AD108E108F108811104C014C08E017E
:104BE0000A5F1F4FC114D104E104F10439F78A862A
:104BF0009B86AC86BD8681E006C080E004C0223082
:104C000009F091CFF4CFDF91CF911F910F91FF90D9
:104C1000EF90DF90CF90BF90AF909F908F900895CE
:104C2000EF92FF920F931F93CF93DF9300D000D0AA
:104C3000CDB7DEB78C01FC0186899789A08DB18D37
:104C400089839A83AB83BC83E12CF12C49815A81FF
:104C50006B817C819E012F5F3F4FD80114968D910F
:104C60009C9115970E94F12C882389F1D801149604
:104C7000ED91FC9115978481E80EF11CE114B0E1EF
:104C8000FB0628F589819A81AB81BC81228920317C
:104C900031F4883F9F4FA105B10530F4D7CF883F4D
:104CA0009F4FAF4FBF4090F2A70160E070E0E9E096
:104CB000440F551F661F771FEA95D1F7D80152960A
:104CC0004D935D936D937C93559781E001C080E097
:104CD0000F900F900F900F90DF91CF911F910F9138
:104CE000FF90EF900895CF93DF93EC01FB018A8151
:104CF000882311F080E03EC07D836C8382898031FF
:104D000001F522C083E08A83458956896789708DC1
:104D10004E8B5F8B688F798FCE010E94102688237F
:104D200049F381E089831E821F82188619861A86BC
:104D30001B861C861D861E861F86188A198A1B8262
:104D400019C08032B9F6DECF82E08A831E8A1F8ABC
:104D5000188E198E4389548960E070E0F5E0440FA5
:104D6000551F661F771FFA95D1F74A8B5B8B6C8BAB
:104D70007D8BD7CFDF91CF9108950F931F93CF9362
:104D8000DF93EC018A818823E1F1898187FF33C0B9
:104D900061E0CE010E949B238C01009791F1FC0100
:104DA0008081853E71F18A81823040F44A895B8935
:104DB0006C897D89448F558F668F778F4E895F8987
:104DC000688D798DF801538F428F758B648BE091DC
:104DD000D506F091D606309759F0B8016A5E7F4F3C
:104DE000C80148960995F801808D918D938B828B2F
:104DF00089818F778983DF91CF911F910F910C94D7
:104E0000392C81E0888380E0DF91CF911F910F9151
:104E10000895CF93DF93EC010E94BD261A82DF91A3
:104E2000CF9108954F925F926F927F92AF92BF920F
:104E3000CF92DF92EF92FF920F931F93CF93DF9366
:104E400000D000D0CDB7DEB75C016A017B01FC0168
:104E50008281813009F083C0818181FF80C081C05F
:104E6000892B8A2B8B2B09F478C0F501428453845B
:104E700064847584B701A601C5010E94752581115E
:104E800001C06DC0F50184819581C114D104E10494
:104E9000F10479F446895789608D718D0E94EA2E5C
:104EA000882309F45CC0F501168A178A108E118ECA
:104EB0003AC0F50146815781608571859E012F5F5B
:104EC0003F4F0E94F12C882309F449C049815A813F
:104ED0006B817C81F50184819581FC0122892031DF
:104EE00039F4483FFFEF5F0761057105E0F407C043
:104EF000483F2FEF520762072FE07207A0F40E948D
:104F0000EA2E882361F1F50146815781608571851C
:104F10000FEF1FEF2FEF3FE0848195810E94652DF9
:104F2000811101C01CC0F501C28AD38AE48AF58AC6
:104F3000818180688183C5010E94BD26882379F024
:104F4000B701A6014C145D046E047F0410F4B30194
:104F5000A201C5010E94752510C081E00EC080E04D
:104F60000CC0F50182899389A489B58984179507B6
:104F7000A607B70708F074CFF2CF0F900F900F90ED
:104F80000F90DF91CF911F910F91FF90EF90DF90E5
:104F9000CF90BF90AF907F906F905F904F900895AB
:104FA000CF93DF93EC0140E050E0BA010E9412275A
:104FB000882371F061E0CE010E949B23009741F0AD
:104FC00025EEFC0120831A82DF91CF910C94392CBD
:104FD00080E0DF91CF910895FF920F931F93CF93BD
:104FE000DF93EC01F42E80E2689FF0011124E2527D
:104FF000F94F8385817121F0842F827109F058C0A7
:105000008091DA069091DB06A091DC06B091DD0676
:105010008E879F87A88BB98B6B830489158920E0C5
:1050200030E0980111270027828D938DA0E0B0E039
:10503000082B192B2A2B3B2B0E8B1F8B288F398F7C
:105040008385887151F4848D958DA68DB78D8A8B5B
:105050009B8BAC8BBD8B81E008C0803149F5CE01C4
:105060000E941026882321F184E08A838F2D8F707F
:1050700089831E821F82188619861A861B861C86C3
:105080001D86F4FE18C040E050E0BA01CE010E9437
:105090001227811110C00CC04A895B896C897D89F7
:1050A000CE01DF91CF911F910F91FF900C94752548
:1050B0001A8280E003C0F5FCEFCF81E0DF91CF9151
:1050C0001F910F91FF9008953F924F925F926F92C0
:1050D0007F928F929F92AF92BF92CF92DF92EF9288
:1050E000FF920F931F93CF93DF937C01EB016A0133
:1050F000922E8C819D81F7019583848340E050E05E
:10510000BA01CE010E947525812C50C0CE010E94AB
:105110005D2597FDBEC00A851B852C853D85015008
:105120001E4F2F4F3F4F0A871B872C873D8740908C
:10513000DA065090DB066090DC067090DD0600E039
:1051400010E0302E580145E0AA0CBB1C4A95E1F74F
:105150008EED96E0A80EB91EF5018081882311F02E
:10516000853EB1F467E973E0C6010E949A33009767
:1051700079F0811008C0F70146865786608A718AE7
:10518000338288248394F501808181110AC07FC015
:105190004BE050E0B501C6010E946E33009709F460
:1051A00073C00F5F1F4F0031110559F64A855B85AB
:1051B0006C857D858A899B89AC89BD89481759078B
:1051C0006A077B0708F4A2CF62C091FE62C0882004
:1051D00051F0F701338061E0C7010E949B23EC018D
:1051E000009769F456C08A81823009F452C0CE011A
:1051F0000E942423009709F44CC0EC01312C80E27A
:10520000FE0111928A95E9F78BE0F601DE0101902B
:105210000D928A95E1F7E091D506F091D606309788
:1052200039F0BE01625F7F4FCE014096099508C0FC
:1052300081E298E2998B888B80E098E09F878E8747
:10524000888999899B8B8A8B998F888F8E859F857A
:105250009F8B8E8B0E94392C8823D9F0492D632D8A
:10526000C701DF91CF911F910F91FF90EF90DF90D9
:10527000CF90BF90AF909F908F907F906F905F90F6
:105280004F903F900C94EC2797FEE8CF02C096FC1D
:105290009CCF80E0DF91CF911F910F91FF90EF9015
:1052A000DF90CF90BF90AF909F908F907F906F9046
:1052B0005F904F903F9008953F924F925F926F9210
:1052C0007F928F929F92AF92BF92CF92DF92EF9296
:1052D000FF920F931F93CF93DF93CDB7DEB7C154E7
:1052E000D1090FB6F894DEBF0FBECDBF4C016B01E4
:1052F00022965FAF4EAF2297422E1B8E1D8E1982D3
:105300001B826115710509F457C0FC01828181116E
:1053100053C02296EEADFFAD229780818F3239F0D7
:1053200076011EC031962296FFAFEEAF22972296ED
:10533000EEADFFAD229780818F32A1F3F60182811D
:105340008250823068F364817581CE0101960E949B
:105350007326882389F1EE24E394F12CEC0EFD1ED4
:1053600053E0A52EB12C8E01055E1F4F3801502E43
:10537000312EAE01405C5F4FBE016B5C7F4F2296C9
:105380008EAD9FAD22970E94B62381111CC067E9A4
:1053900073E022968EAD9FAD22970E949A330097BC
:1053A00029F48EE29EE29EAB8DAB37C063ED73E0D5
:1053B00089EF95E00E94401680E037C03196229632
:1053C000FFAFEEAF22972296EEADFFAD2297808120
:1053D0008F32A1F3882309F121E0AE014B5C5F4FCE
:1053E000B701C8010E946428882331F3EC14FD043E
:1053F00019F0C7010E9409270615170521F0780149
:10540000052D132D05C08E010F5F1F4FE52CF32CCA
:10541000F1E0AF1AB10809F0ACCF242DAE014B5C1E
:105420005F4FB701C4010E946428CF5BDF4F0FB606
:10543000F894DEBF0FBECDBFDF91CF911F910F91CA
:10544000FF90EF90DF90CF90BF90AF909F908F90A4
:105450007F906F905F904F903F900895CF93DF9330
:10546000CDB7DEB76A970FB6F894DEBF0FBECDBFDB
:10547000AB0119821B8222E0BC01CE0101960E9481
:105480005C29882329F0CE0101960E94D02701C013
:1054900080E06A960FB6F894DEBF0FBECDBFDF91F5
:1054A000CF9108952F923F924F925F926F927F9289
:1054B0008F929F92AF92BF92CF92DF92EF92FF9224
:1054C0000F931F93CF93DF93CDB7DEB729970FB616
:1054D000F894DEBF0FBECDBF7C01162F072F1A0137
:1054E000DC0112968C911297813009F09DC11196C2
:1054F0008C9181FF99C19EC1F701428953896489CA
:10550000758982859385A485B58584179507A60737
:10551000B70721F45101812E902E4CC1C7010E9482
:1055200075258111F7CF80C1D70114968D919C917B
:105530001597FC01F481F150B901A801E9E07695D5
:10554000679557954795EA95D1F7F423FD83117038
:1055500022273327F11145C00115110509F041C07B
:1055600016964D915D916D917C911997411551055C
:105570006105710511F19E012F5F3F4F0E94F12CD3
:10558000882309F451C189819A81AB81BC81F701DB
:1055900024813581F9012289203139F4883FFFEFD8
:1055A0009F07A105B10590F417C0883F2FEF920720
:1055B000A2072FE0B20780F009C0F701868997891A
:1055C000A08DB18D0097A105B10531F4C7010E94EE
:1055D000FA22811106C028C1F70186839783A0872C
:1055E000B187D70116964D915D916D917C91199778
:1055F00014968D919C9115970E94D52C2B013C01FE
:10560000BD814B0E511C611C711C0115110521F44B
:10561000A114E2E0BE06D8F580E092E0801B910B79
:1056200065018A159B0508F46C0101151105A1F4AB
:10563000D7011A964D915D916D917C911D9752966F
:105640008D919D910D90BC91A02D481759076A0727
:105650007B0710F045E001C041E0C301B2010E94A8
:10566000802C009709F4E0C09C01200F311FA60197
:10567000B401C9010E947B330C0D1D1D01151240A0
:1056800009F087C00E94C52C811183C0CDC0A11430
:10569000E4E0BE06D8F48091DA069091DB06A09192
:1056A000DC06B091DD0684159505A605B70511F455
:1056B0000E94C72C9401B301A2018091D70690915A
:1056C000D8060E945A22811161C0AEC0D70114963B
:1056D000ED91FC9115978481BD818B1BEB2DE69597
:1056E000ED838E1708F48D83FD810F2F10E020E0ED
:1056F00030E0B301A2018091D7069091D8060E94B4
:105700008A22882309F490C084014E825F826886D1
:1057100079862AC08091DA069091DB06A091DC069A
:10572000B091DD062E813F814885598528173907BC
:105730004A075B0711F40E94C72CB8018091D70675
:105740009091D8060E9434221E5F2E813F814885A9
:1057500059852F5F3F4F4F4F5F4F2E833F834887C1
:105760005987882309F460C08E8184193D8183178D
:1057700088F28091D7069091D8060E94D62288237D
:1057800009F452C0DD80DD0CC12C03C0C12CF2E055
:10579000DF2EF70182859385A485B5858C0D9D1D2F
:1057A000A11DB11D82879387A487B5878C0C9D1C92
:1057B000AC18BD08D7011A960D911D912D913C9101
:1057C0001D97A114B10409F0AFCE52968D919D9111
:1057D0000D90BC91A02D80179107A207B30748F444
:1057E000F701028B138B248B358B81818068818339
:1057F00010C08091D5069091D606892B51F02114C6
:10580000310439F0D70111968C9111978068119667
:105810008C93F701818183FD02C091010EC0C70105
:105820000E94BD268111F9CF81E0D7018C932FEF23
:105830003FEF03C082FD60CE6DCEC90129960FB641
:10584000F894DEBF0FBECDBFDF91CF911F910F91B6
:10585000FF90EF90DF90CF90BF90AF909F908F9090
:105860007F906F905F904F903F902F9008950C9491
:10587000522A8091D90680FF41C04091DA065091AA
:10588000DB066091DC067091DD062EED36E080913E
:10589000D7069091D8060E945A22811102C080E05A
:1058A00008958091D90681FD06C08091D9068E7F2A
:1058B0008093D90623C08091E2088230B0F34091F2
:1058C000DE085091DF086091E0087091E108809156
:1058D000DA069091DB06A091DC06B091DD06480F58
:1058E000591F6A1F7B1F2EED36E08091D7069091DD
:1058F000D8060E945A228111D8CFD1CF81E00895D5
:10590000CF92DF92EF92FF92CF936B017C01C42F75
:105910008091DA069091DB06A091DC06B091DD065D
:105920008C159D05AE05BF0509F10E94392C81112A
:1059300003C020E030E022C0C2FF0BC01092D906A5
:10594000C092DA06D092DB06E092DC06F092DD0629
:105950000DC02EED36E0B701A6018091D7069091DB
:10596000D8060E94EB208111E9CFE3CFC37080916C
:10597000D9068C2B8093D9062EED36E0C901CF9144
:10598000FF90EF90DF90CF9008950C94392C8FEF1B
:105990009FEFDC018093DA069093DB06A093DC0690
:1059A000B093DD061092D90608950F931F93FC0162
:1059B0004250510961097109A481B0E09A01AB011B
:1059C0000E9414328B019C0182859385A485B58544
:1059D000080F191F2A1F3B1FB801C9011F910F9102
:1059E00008958F929F92AF92BF92CF92DF92EF92E3
:1059F000FF920F931F93CF93DF93EC016A017B011A
:105A000089018D819E81AF81B8850196A11DB11D4F
:105A100084179507A607B70708F449C08A8980311B
:105A200029F499278F2D7E2D6D2D0CC0803209F021
:105A30003EC0CB01BA0147E096958795779567956B
:105A40004A95D1F78E849F84A888B988680D791DFE
:105A50008A1D9B1D42E00E94802C009741F12A89FB
:105A6000203169F4DD24EE24FF24F601EE0FFF1F40
:105A7000E80FF91F80819181A0E0B0E011C0E894A7
:105A8000C7F8DD24EE24FF24F601EE0FFF1FEE0F12
:105A9000FF1FE80FF91F80819181A281B381BF7040
:105AA000F80180839183A283B38381E001C080E009
:105AB000DF91CF911F910F91FF90EF90DF90CF90EA
:105AC000BF90AF909F908F9008958F929F92AF92CA
:105AD000BF92CF92DF92EF92FF920F931F93CF93DB
