:100000000C9417020C94C31D0C94F41D0C94251E23
:100010000C94561E0C94871E0C94B81E0C94E91E6A
:100020000C941A1F0C9446020C9446020C9446023F
:100030000C94F9070C9446020C9446020C94550853
:100040000C9446020C9446020C9446020C94460210
:100050000C9446020C9446020C9446020C94300810
:100060000C9446020C94F6200C9446020C94460222
:100070000C9446020C9446020C9446020C944602E0
:100080000C9446020C9446020C9446020C944602D0
:100090000C9431210C9446020C9446020C94C9062F
:1000A0000C9446020C9446020C9446020C944602B0
:1000B0000C9446020C9446020C9446020C944602A0
:1000C0000C9446020C9446020C9446022D202D20DE
:1000D0002D202D202D202D202D202D202D202D20B8
:1000E0002D202D20004E6F773A200064743A2000B6
:1000F00070726576696F75733A20004E6F773A209B
:100100000064743A20004E6F773A200064743A20FD
:100110000045706F63683A200045706F63683A204D
:10012000004E6F773A200064743A20005761737074
:100130004D6F746520676F657320696E746F20481A
:10014000696265726E6174652E2E2E009D01B1018B
:10015000D701FE011E0236024402540269027F02E8
:1001600090029C02A302C002DE02F4020203120308
:1001700035033B0357726F6E672074696D652066A7
:100180006F726D61742E204D75737420626520222C
:1001900064643A68683A6D6D3A73732200416C6129
:1001A000726D204D6F6465206D61746368657320A6
:1001B000005B446179203A20686F757273203A20A1
:1001C0006D696E75746573203A207365636F6E6434
:1001D000735D202D3E20005B44617465203A2068E9
:1001E0006F757273203A206D696E75746573203A6D
:1001F000207365636F6E64735D202D3E20005B4845
:100200006F757273203A206D696E75746573203A4C
:10021000207365636F6E64735D202D3E20005B4D1F
:10022000696E75746573203A207365636F6E6473CD
:100230005D202D3E20005B5365636F6E64735D200F
:100240002D3E20004F6E63652070657220736563DC
:100250006F6E6400496E636F727265637420616CC7
:1002600061726D206D6F6465005B253032753A25D3
:100270003032753A253032753A253032755D005B83
:10028000253032753A253032753A253032755D00A9
:100290005B253032753A253032755D005B25303292
:1002A000755D005B446179203A20686F7572732038
:1002B0003A206D696E75746573205D202D3E2000B7
:1002C0005B44617465203A20686F757273203A2030
:1002D0006D696E75746573205D202D3E20005B484E
:1002E0006F757273203A206D696E757465735D2049
:1002F0002D3E20005B4D696E757465735D202D3E4B
:1003000020004F6E636520706572206D696E757494
:10031000650025732C20253032752F253032752F3E
:10032000253032752C20253032753A253032753A19
:1003300025303275006572726F7200253032752576
:1003400063253032752563253032752563253032BB
:100350007525632530327525632530327525632573
:1003600030327500000008090000000000000000A5
:10037000000000000000000000000000000000007D
:10038000000000000000000000000000000000006D
:10039000000000000000000102081010204080044E
:1003A0000810204002020408102040800102802032
:1003B0004004200101020408102001408040800117
:1003C0000208040880041004020105050505030362
:1003D00003030101010404030606060606060606D9
:1003E00001040501050103020202020202010202E8
:1003F0000505040403040401030407070700202380
:1004000026292C2F32002225282B2E31340021249E
:10041000272A2D30336364696E6F70737578585B6B
:1004200000004A1749185719761C14227923112401
:100430001FBECFEFD1E2DEBFCDBF12E0A0E0B2E041
:10044000E2EDF9E500E00BBF02C007900D92AA387B
:10045000B107D9F71AE0AAE8B2E001C01D92A730AF
:10046000B107E1F714E0CEE2D4E000E006C0229745
:100470000109FE010BBF0E94A225C232D10780E014
:100480000807A9F70E94520A0C94E72C0C9400006C
:10049000CF92DF92EF92FF92CF93DF93EC016A014C
:1004A0007B01BC0181EC93E00E94AD197727F7FC3A
:1004B0007A956F2D5E2D4D2DCE010196BC0181ECFC
:1004C00093E00E94AD19A701772757FD7095672F1C
:1004D000CE010296BC0181EC93E00E94AD194F2D34
:1004E0005527662777272396BE0181EC93E0DF919D
:1004F000CF91FF90EF90DF90CF900C94AD19EF92D9
:10050000FF920F931F93CF93DF93EC01BC0181EC1B
:1005100093E00E94AA19F82EBE016F5F7F4F81EC15
:1005200093E00E94AA19082FBE016E5F7F4F81ECF5
:1005300093E00E94AA19E82EBE016D5F7F4F81EC07
:1005400093E00E94AA1910E020E030E0322F212F22
:10055000102F00270F0D111D211D311D4E2D50E0B4
:1005600060E070E0BA0155274427040F151F261FCD
:10057000371F90E0A0E0B0E0B82FAA27992788277E
:10058000080F191F2A1F3B1FB801C901DF91CF9126
:100590001F910F91FF90EF900895CF92DF92EF920D
:1005A000FF92CF93DF93EC016A017B010E947F02EF
:1005B0006C157D058E059F0539F0B701A601CE01AA
:1005C0000E94480281E001C080E0DF91CF91FF905E
:1005D000EF90DF90CF9008950F931F9384E293E004
:1005E0000E947E1384E293E00E945A126093A90253
:1005F0007093AA028093AB029093AC0261E171E028
:100600008CEB93E00E94E2184091A9025091AA025B
:100610006091AB027091AC028CEB93E00E940A19DE
:100620008091A9029091AA02A091AB02B091AC0274
:100630000596A11DB11D8093A9029093AA02A093D3
:10064000AB02B093AC0269E171E08CEB93E00E94E5
:10065000E2184091A9025091AA026091AB027091F8
:10066000AC028CEB93E00E940A194091A9025091D0
:10067000AA026091AB027091AC022EE932E084E2F2
:1006800093E00E94791280919E021F928F93809135
:100690009F021F928F938091A0021F928F9380914F
:1006A000A2021F928F938BE092E09F938F931F92F1
:1006B0008CE08F930AE812E01F930F930E9431267B
:1006C0001F930F938FE192E09F938F938CEB93E0B6
:1006D0009F938F930E94A7188091FC059091FD0530
:1006E0002DB73EB72C5E3F4F0FB6F8943EBF0FBEFE
:1006F0002DBF85FF06C08091FC059091FD058F7D83
:100700000BC08091FC059091FD0581FF09C080918F
:10071000FC059091FD058D7F9093FD058093FC0570
:100720000E947A08609396027093970280939802D1
:100730009093990200919A0210919B0220919C0241
:1007400030919D02DC01CB01801B910BA20BB30BFE
:100750008093A5029093A602A093A702B093A8024B
:1007600061E271E08CEB93E00E94E2184091960206
:100770005091970260919802709199028CEB93E0EE
:100780000E940A1967E271E08CEB93E00E94E21884
:100790004091A5025091A6026091A7027091A80213
:1007A0008CEB93E00E940A196CE271E08CEB93E011
:1007B0000E9439190E947A08AB01BC0140939A0249
:1007C00050939B0260939C0270939D0284E194E09D
:1007D0000E94CD0221E041E06AE872E082E293E00B
:1007E0001F910F910C94D10B0F931F9382E293E012
:1007F0000E945D0C8091FC059091FD0585FF58C01D
:1008000084E194E00E947F0260939A0270939B02BD
:1008100080939C0290939D026CEC70E08CEB93E0D3
:100820000E9439190E947A08609396027093970289
:10083000809398029093990200919A0210919B02E2
:1008400020919C0230919D02DC01CB01801B910B19
:10085000A20BB30B8093A5029093A602A093A702CC
:10086000B093A80265EE70E08CEB93E00E94E21872
:10087000409196025091970260919802709199026E
:100880008CEB93E00E940A196BEE70E08CEB93E026
:100890000E94E2184091A5025091A6026091A70221
:1008A0007091A8028CEB93E01F910F910C940A19A0
:1008B0000E947A0860939A0270939B0280939C0234
:1008C00090939D0260EF70E08CEB93E00E94E21841
:1008D00040919A0250919B0260919C0270919D02FE
:1008E0008CEB93E00E940A190E947A0860939602AA
:1008F00070939702809398029093990200919A02C4
:1009000010919B0220919C0230919D02DC01CB0151
:10091000801B910BA20BB30B8093A5029093A602B0
:10092000A093A702B093A8026BEF70E08CEB93E06A
:100930000E94E218409196025091970260919802AD
:10094000709199028CEB93E00E940A1961E071E0CA
:100950008CEB93E00E94E2184091A5025091A60210
:100960006091A7027091A8028CEB93E00E940A1993
:1009700040919A0250919B0260919C0270919D025D
:1009800084E194E00E94CD020E947A08609396026E
:1009900070939702809398029093990200919A0223
:1009A00010919B0220919C0230919D02DC01CB01B1
:1009B000801B910BA20BB30B8093A5029093A60210
:1009C000A093A702B093A80266E071E08CEB93E0DD
:1009D0000E94E2184091960250919702609198020D
:1009E000709199028CEB93E00E940A196CE071E01F
:1009F0008CEB93E00E94E2184091A5025091A60270
:100A00006091A7027091A8028CEB93E00E940A19F2
:100A100084E293E00E947E1363E372E084E293E059
:100A20000E94441484E293E00E945A12AB01BC017C
:100A30004093A9025093AA026093AB027093AC0258
:100A40002EE932E084E293E01F910F910C94791229
:100A50001092B602E4E6F0E080818F778083589AA6
:100A6000599AE9EBF0E080818E7F808380818D7FD1
:100A7000808381E48093B80085E48093BC0080E2A9
:100A8000E7EBF2E0DF01982F1D929A95E9F7E7ED89
:100A9000F2E0DF01982F1D929A95E9F7E7EFF2E077
:100AA000DF011D928A95E9F70895613298F420914B
:100AB000B602243089F46093B302FC0187ED92E022
:100AC000DC0102C021912D932A2F281B2617D0F379
:100AD00080E0089581E0089582E0089585EC809398
:100AE000BC001092B6020895589859988091B900A8
:100AF00081608093B9008091B90082608093B900D1
:100B00008091BC0080688093BC008091BC008061B3
:100B10008093BC008091BC008F7B8093BC0080914F
:100B2000BC008F7D8093BC008091BC00877F809348
:100B3000BC008091ED059091EE05A091EF05B0917C
:100B4000F00586FD14C08091ED059091EE05A09111
:100B5000EF05B091F00590FD0AC08091ED059091F0
:100B6000EE05A091EF05B091F00593FF04C08091D0
:100B7000BC008B7F03C08091BC0084608093BC006C
:100B80008091BC008E7F8093BC008091640080685F
:100B9000809364000895882349F01092AD0210926A
:100BA000AE021092AF021092B00213C08091AD025B
:100BB0009091AE02A091AF02B091B0020196A11D3A
:100BC000B11D8093AD029093AE02A093AF02B0939B
:100BD000B0028091AD029091AE02A091AF02B091AF
:100BE000B002803A9648A140B10560F01092AD0283
:100BF0001092AE021092AF021092B0020E9428052D
:100C000081E0089580E0089585ED8093BC0081E047
:100C10000E94CB0508C080E00E94CB05882319F014
:100C20001092B60208958091BC0084FDF4CFF8CFF5
:100C3000FF920F931F93CF93DF93182F062FF72E5A
:100C4000C42FD22F81E0413208F051C00E94CB0561
:100C500015C080E00E94CB05882381F082E080935C
:100C6000B6028FEF8093B1021092B502C0931703C2
:100C7000E02FFF2D67EB72E0DB0107C08091B60229
:100C80008111E7CFEBCF81918D938A2F861B8C1733
:100C9000D0F3812F90E0880F991F8093180385EE81
:100CA0008093BC0081E00E94CB05D11105C08091EA
:100CB000B1028F3F59F414C08091B6028230B9F767
:100CC00080E00E94CB0581110DC0F6CF8091B1026A
:100CD000803251F08091B102803341F483E007C04B
:100CE00080E005C085E003C082E001C084E0DF91C0
:100CF000CF911F910F91FF9008950F931F93CF9362
:100D0000DF93082FD62F172FC42F81E04132E0F553
:100D10000E94CB051DC080E00E94CB058823C1F056
:100D200081E08093B6028FEF8093B1021092B502FA
:100D3000C0931703802F90E0880F991F81608093E4
:100D4000180385EE8093BC0081E00E94CB0510C0A3
:100D50008091B6028111DFCFE3CF80E00E94CB0506
:100D6000882331F087EB92E0ED2FF12FDC0107C0F3
:100D70008091B602813089F3F5CF2D9121932A2FEE
:100D8000281B2C17D0F380E0DF91CF911F910F919A
:100D900008951F920F920FB60F9211240BB60F9267
:100DA0002F933F934F935F936F937F938F939F9373
:100DB000AF93BF93CF93EF93FF93C091B900C87FD8
:100DC000C03609F49FC058F5C83209F45BC090F4EE
:100DD000C03109F452C038F4CC2309F4F2C0C83051
:100DE00009F0F3C04AC0C83109F44CC0C03209F060
:100DF000ECC05DC0C03409F473C038F4C03309F4EA
:100E00005BC0C83309F0E1C05AC0C03509F45CC00A
:100E1000C83509F46AC0C83409F0D7C0D4C0C8398D
:100E200009F4C5C0A8F4C83709F46CC038F4C83652
:100E300009F468C0C03709F0C8C064C0C83809F4F4
:100E4000B6C0C03909F464C0C03809F0BEC060C083
:100E5000C03B09F484C038F4C03A09F46BC0C83A06
:100E600009F0B3C07CC0C03C09F4A5C0C83C09F47B
:100E7000A2C0C83B09F0A9C087C080911803809325
:100E8000BB0013C09091B50280911703981708F02A
:100E90009AC08091B502E82FF0E0E954FD4F9081AF
:100EA0009093BB008F5F8093B50285EC81C00E9458
:100EB0000406C093B10289C0C093B10284C0C0933C
:100EC000B1020E946E0581C08091B5029091BB0075
:100ED000E82FF0E0E954FD4F90838F5F8093B502D7
:100EE0009091B502809117035FC08091B5029091F7
:100EF000BB00E82FF0E0E954FD4F90838F5F8093B3
:100F0000B50261C083E08093B6021092B202CDCFE9
:100F10008091B202803208F04AC08091B202909172
:100F2000BB00E82FF0E0E950FD4F90838F5F809386
:100F3000B202BBCF8091B202803230F4E091B202B3
:100F4000F0E0E950FD4F10826091B202E091190388
:100F5000F0911A0370E087EF92E009952CC084E0CD
:100F60008093B6021092B4021092B302E0911B0378
:100F7000F0911C0309958091B302811105C081E0B5
:100F80008093B3021092D7028091B402E82FF0E070
:100F9000E952FD4F90819093BB008F5F8093B40224
:100FA0009091B4028091B302981708F47ECF85E83F
:100FB0008093BC000AC085EC8093BC001092B602FE
:100FC00004C01092B1020E940406FF91EF91CF91EC
:100FD000BF91AF919F918F917F916F915F914F9151
:100FE0003F912F910F900BBE0F900FBE0F901F904F
:100FF00018951F920F920FB60F9211240BB60F92F5
:101000002F933F934F935F936F937F938F939F9310
:10101000AF93BF93EF93FF93F89481E080930A021C
:10102000E0E6F0E080818068808380818F7B808330
:1010300060E083E00E94C6097894FF91EF91BF9130
:10104000AF919F918F917F916F915F914F913F9160
:101050002F910F900BBE0F900FBE0F901F90189501
:101060001F920F920FB60F9211248F939F93AF93FD
:10107000BF938091FF0590910006A0910106B09169
:1010800002060196A11DB11D8093FF0590930006F5
:10109000A0930106B0930206BF91AF919F918F91EB
:1010A0000F900FBE0F901F9018951F920F920FB6C2
:1010B0000F9211248F939F93AF93BF938091030658
:1010C00090910406A0910506B09106060196A11D17
:1010D000B11D8093030690930406A0930506B09378
:1010E0000606BF91AF919F918F910F900FBE0F9009
:1010F0001F9018958F929F92AF92BF92CF92DF92DE
:10110000EF92FF920F931F93CF93DF932FB7F89433
:101110008091FF0590910006A0910106B091020612
:101120002FBF9C01AD0160E070E080E090E001E045
:101130000E948A254901D42FC52FB62FA72FF82F3B
:10114000E92F02E00E948A2559016A017B018C0186
:1011500094014D2F5C2F6B2F7A2F8F2F9E2F0E9483
:101160009925E9E0AE2EB12CC12CD12CE12CF12C2B
:1011700000E010E00E942D25952FB901842FDF910A
:10118000CF911F910F91FF90EF90DF90CF90BF9084
:10119000AF909F908F9008958F929F92AF92BF9241
:1011A000CF92DF92EF92FF924B015C0107C00E9449
:1011B0007A086C157D058E059F0520F40E947A083B
:1011C0006B017C010E947A086C197D098E099F09C8
:1011D000681579058A059B0550F3FF90EF90DF9025
:1011E000CF90BF90AF909F908F900895BC010497CF
:1011F00068F080E090E00E94A92326E636E646EEFD
:101200005FE30E9437240E947D2302C0660F771F90
:101210006150710961F06150710949F0FB01EE0FF5
:10122000FF1F31978FB7F8943197F1F78FBF08956B
:10123000789484B7877F84BF1092FF0510920006D0
:10124000109201061092020684B5826084BD84B5B6
:10125000816084BD85B5826085BD85B5816085BDB1
:10126000EEE6F0E0808181608083E1E8F0E080815B
:1012700082608083808181608083E0E8F0E080810B
:1012800081608083E1EBF0E0808184608083E1E92C
:10129000F0E0808184608083E0EBF0E08081816019
:1012A0008083E0E9F0E0808181608083E4E6F0E023
:1012B00080818E7F8083ECE7F0E080818F77808370
:1012C000808180648083EAE7F0E0808184608083AD
:1012D0008081826080838081806880831092C100D9
:1012E0001092C900089590911D03982B90931D03AF
:1012F00080FF32C0809164008E7F80936400809173
:101300007C008F7780937C0080917C008064809348
:101310007C0080917A00846080937A0080917A00CA
:10132000826080937A0080917A00806880937A004E
:10133000809164008F7780936400809164008B7F3C
:1013400080936400809164008D7F8093640080911D
:1013500065008E7F80936500089590E0FC01E9565A
:10136000FC4F2491FC01E653FC4FE491EE2369F01D
:10137000F0E0E35FFB4FA491B0E08C91611103C0FA
:101380002095822301C0822B8C93089590E0FC016C
:10139000EC59FC4F2491FC01E956FC4F3491FC01BF
:1013A000E653FC4F84918823B1F1222331F123309D
:1013B00021F4909180009F7705C0243031F4909102
:1013C00080009F7D9093800018C0213019F494B55F
:1013D0009F7704C0223021F494B59F7D94BD0DC049
:1013E000263021F49091B0009F7705C0273029F472
:1013F0009091B0009F7D9093B000E82FF0E0EB5FFC
:10140000FB4FA491B0E08C91611103C03095832310
:1014100001C0832B8C93089590E0FC01EC59FC4FA4
:101420002491FC01E956FC4F3491FC01E653FC4F3A
:101430008491882399F1222331F1233021F4909172
:1014400080009F7705C0243031F4909180009F7D0B
:101450009093800018C0213019F494B59F7704C090
:10146000223021F494B59F7D94BD0DC0263021F427
:101470009091B0009F7705C0273029F49091B0007B
:101480009F7D9093B000E82FF0E0E350FC4FE49193
:10149000F0E08081832321E030E011F420E030E0AF
:1014A000C90108950E94180981EC93E00E94D71A9F
:1014B000853440F061E081E30E94AD0961E081E3A1
:1014C0000E94C60961E070E081EC93E00E94AA19D5
:1014D0008130B1F48091ED059091EE05A091EF057A
:1014E000B091F00590688093ED059093EE05A09380
:1014F000EF05B093F00560E081E090E00E94B82B2A
:1015000087E20E940C0A892B59F160E070E081ECBF
:1015100093E00E94AA198A3019F5C1C06CE3629F5A
:10152000A001639F500D1124840F951F0EC021153B
:10153000310559F06CE3629FA001639F500D1124A7
:101540009A01205F314F820F931F039748F48091D7
:10155000FC059091FD0580629093FD058093FC054C
:1015600084E293E00E947E1384E293E00E944E1195
:1015700084E293E00E945D1184E293E00E94150DE5
:1015800063E070E080E090E00E94CC088091ED057F
:101590009091EE05A091EF05B091F005A1FF5EC01E
:1015A00063E070E080E090E00E94CC0861E086E1BA
:1015B0000E94AD0963E070E080E090E00E94CC08FA
:1015C00061E086E10E94C60963E070E080E090E09F
:1015D0000E94CC080E944F1763E070E080E090E02A
:1015E0000E94CC0881E00E94721763E070E080E006
:1015F00090E00E94CC0884E00E94801763E070E0D5
:1016000080E090E00E94CC0880E00E947B1763E0BD
:1016100070E080E090E00E94CC080E946E1763E0CA
:1016200070E080E090E00E94CC0866E087EB93E0F9
:101630000E948B1763E070E080E090E00E94CC088D
:1016400061E086E10E94AD0960E086E10E94C60982
:1016500063E070E080E090E00E94CC0863E070E01E
:1016600080E090E00E94CC0881EC93E00E94B11AE7
:1016700060931E0370931F038093200390932103B4
:1016800080911E0390911F03A0912003B09121032C
:101690000E94FA250E94F4030E94EC02FDCF84E22E
:1016A00093E00E947E1384E293E00E94DF0F84E2C5
:1016B00093E00E94D40F80913D0390E020913F037E
:1016C000821B910920913C0330E040914003241B90
:1016D0003109121613060CF421CF29CF1F93CF9393
:1016E000DF931F92CDB7DEB7162F61E08AE1498301
:1016F0000E94AD0961E088E10E94AD094981112392
:1017000021F0113009F048C020C041110EC061E045
:101710008AE10E94C6098091ED059091EE05A091A5
:10172000EF05B091F00582602FC04130A9F560E06F
:101730008AE10E94C6098091ED059091EE05A09185
:10174000EF05B091F0058D7F1FC041110EC061E023
:1017500088E10E94C6098091ED059091EE05A09167
:10176000EF05B091F00581600FC04130A9F460E051
:1017700088E10E94C6098091ED059091EE05A09147
:10178000EF05B091F0058E7F8093ED059093EE0507
:10179000A093EF05B093F0050F90DF91CF911F91CB
:1017A0000895EF92FF920F931F93CF93DF9300D092
:1017B000CDB7DEB78B016AE080E090E02A834983F1
:1017C0000E94B82B61E086E10E94AD0960E086E1ED
:1017D0000E94C60981EC93E00E94921984E293E092
:1017E0000E947E132A814981B80184E293E00E941D
:1017F0006C160091420310914103E0904003F09079
:101800003F0384E293E00E94DF0F809142030813BC
:101810003FC08091410318133BC080914003E81200
:1018200037C080913F03F81233C084E293E00E94F6
:10183000150D61E081E30E94AD0961E081E30E9442
:10184000C60962E370E080E090E00E94CC0860E0AE
:1018500081E30E94C60903E010E061E081E30E9499
:10186000AD0961E081E30E94C60962E370E080E0B7
:1018700090E00E94CC0860E081E30E94C60962E328
:1018800070E080E090E00E94CC080150110929F737
:101890000F900F90DF91CF911F910F91FF90EF90DC
:1018A000089561E089E20E94AD0961E088E20E944A
:1018B000AD0982EC93E00C94251BCF9360E080E0AF
:1018C00090E00E94B82B84E293E00E947E1384E2B1
:1018D00093E00E94150D8091FC059091FD0585FD1A
:1018E0004FC061E087E20E94AD0960E087E20E949C
:1018F000C6096AE070E080E090E00E94CC0861E0F8
:1019000087E20E94C609C3E035C060E087E20E941A
:10191000C6096AE070E080E090E00E94CC0861E0D7
:1019200087E20E94C609C15029F541E06CE081ECD4
:1019300093E00E945A1968EB7BE080E090E00E94FF
:10194000CC0840E06CE081EC93E00E945A1941E041
:101950006DE081EC93E00E945A1964EF71E080E041
:1019600090E00E94CC0840E06DE081EC93E00E94A2
:101970005A1906C081E20E940C0A892B31F2D5CF98
:1019800081EC93E00E94D71A853478F481E30E94B9
:101990000C0A892B31F487E20E940C0A892B09F486
:1019A00009C060E081E30E94C60960E087E2CF9150
:1019B0000C94C609CF9108958091C803882341F003
:1019C00080912C04811104C082E293E00C94510CAC
:1019D00008950F931F93CF93DF93EC01042F68A713
:1019E00061E080E30E94AD0918A5112379F0113060
:1019F00091F461E080E30E94C609013019F482E0AD
:101A00008B8B09C0011107C01B8B05C060E080E310
:101A10000E94C6091B8A6AE070E080E090E0DF91D6
:101A2000CF911F910F910C94CC08CF93DF93EC01D1
:101A30000E94DC0C40E060E0CE01DF91CF910C947D
:101A4000E90CFC01148A158A168A178A108E118EE9
:101A5000128E138E148E158E168E178E10A211A252
:101A600012A213A214A215A216A217A20895EF9211
:101A7000FF920F931F93CF93DF93CDB7DEB7EC9711
:101A80000FB6F894DEBF0FBECDBF8C01EEE6F1E0DD
:101A900085919491BC01EE24E394F12CEC0EFD1E93
:101AA000C7010E940526E0E7F1E085919491BC0111
:101AB000CE0189960E940526F8018689843009F4B2
:101AC00066C040F4823029F108F04BC0813009F043
:101AD000B6C009C0863009F486C008F46EC08730ED
:101AE00009F0ADC096C0F801818D1F928F93808D53
:101AF0001F928F9387891F928F93828D1F928F934E
:101B000085891F928F9384891F928F9388E492E036
:101B100015C0F801818D1F928F93808D1F928F9336
:101B200087891F928F93828D1F928F9385891F9231
:101B30008F9384891F928F938CE492E09F938F936D
:101B4000FF92EF921F9284E68F93C80189969F932C
:101B50008F930E9431260FB6F894DEBF0FBECDBF23
:101B600081C0F801818D1F928F93808D1F928F937A
:101B700087891F928F93828D1F928F9385891F92E1
:101B80008F9384891F928F9380E592E0D7CFF801DD
:101B9000818D1F928F93808D1F928F9387891F92C3
:101BA0008F93828D1F928F9385891F928F93848943
:101BB0001F928F9384E592E0C1CFF801818D1F922F
:101BC0008F93808D1F928F9387891F928F93828D21
:101BD0001F928F9385891F928F9384891F928F9371
:101BE00088E592E0ABCFF801818D1F928F93808DB5
:101BF0001F928F9387891F928F93828D1F928F934D
:101C000085891F928F9384891F928F938CE592E030
:101C100095CFF801818D1F928F93808D1F928F93A6
:101C200087891F928F93828D1F928F9385891F9230
:101C30008F9384891F928F9380E692E07FCFCE01AD
:101C400089969F938F931F9284E68F93C8018996FC
:101C50009F938F930E9431260F900F900F900F90BB
:101C60000F900F90075D1F4FC801EC960FB6F894C8
:101C7000DEBF0FBECDBFDF91CF911F910F91FF90BF
:101C8000EF900895CF92DF92EF92FF920F931F9300
:101C9000CF93DF938C01C62E8091C803811104C0BD
:101CA00082EC93E00E94DF1A68E670E082EC93E039
:101CB0000E940C1B60E070E082EC93E00E94381CF4
:101CC00082EC93E00E943A1C43E150E068E670E049
:101CD00082EC93E00E94741CE12CF12CC0E0D0E077
:101CE000D12CE4C082EC93E00E94141BF801EC0FAD
:101CF000FD1F8083C630D10509F467C098F4C23057
:101D0000D10509F43EC038F4209729F1C130D1053E
:101D100009F0C7C02BC0C430D10509F440C008F099
:101D200049C03AC0CA30D10509F484C048F4282F0C
:101D300030E0C830D10509F461C008F06DC050C072
:101D4000CC30D10509F492C008F482C0CD30D10561
:101D500009F0A7C099C0982F92959F708F702AE0C4
:101D6000929F800D1124F801818F9BC0982F92952E
:101D70009F708F70FAE09F9F800D1124F801808F73
:101D800090C0982F92959F708F70FAE09F9F800D62
:101D90001124F801878B85C0F801868B82C0982FAB
:101DA00092959F708F70FAE09F9F800D1124F8012B
:101DB000828F77C0982F92959F708F70FAE09F9FC7
:101DC000800D1124F801858B6CC0982F92959F701F
:101DD0008F70FAE09F9F800D1124F801848B61C001
:101DE00054E0359527955A95E1F727708F70FAE002
:101DF0002F9F800D1124F801838F53C044E0359547
:101E000027954A95E1F727708F70FAE02F9F800D94
:101E10001124F801848F45C094E0359527959A9553
:101E2000E1F723708F70FAE02F9F800D1124F801E5
:101E3000858F37C0282F2695269526952670922FB8
:101E4000990F990F920F8F70980FF801968F29C0F4
:101E5000282F2695269526952E70922F990F990F4B
:101E6000920F8F70980FF801978F1BC0282F26951F
:101E7000269526952670922F990F990F920F8F70A5
:101E8000980FF80190A30DC0282F2695269526952A
:101E90002670922F990F990F920F8F70980FF8015B
:101EA00091A3219603C0FFEFEF1AFF0ACC16DD06BF
:101EB00058F02AE0E216F10438F482EC93E00E9434
:101EC0000E1B882381F30ECFDF91CF911F910F91CD
:101ED000FF90EF90DF90CF9008951F93CF93DF9303
:101EE000EC01162F8091C803811104C082EC93E0AD
:101EF0000E94DF1A68E670E082EC93E00E940C1BFF
:101F0000612F82EC93E00E940C1CC10FD11D6881EF
:101F100082EC93E00E940C1C82EC93E0DF91CF9165
:101F20001F910C943A1CFF920F931F93CF93DF9352
:101F30008C01F62E8091C803811104C082EC93E0DD
:101F40000E94DF1A68E670E082EC93E00E940C1BAE
:101F50006F2D82EC93E00E940C1C82EC93E00E94B7
:101F60003A1C41E050E068E670E082EC93E00E94A9
:101F7000741CCBE0D0E082EC93E00E940E1B811138
:101F800002C02197C1F782EC93E00E94141BF80174
:101F9000EF0DF11D808382EC93E0DF91CF911F91D3
:101FA0000F91FF900C943A1CCF93DF93EC0166E005
:101FB0000E94420ECE01DF91CF910C94370DCF924B
:101FC000DF92EF92FF920F931F93CF93DF93CDB7E2
:101FD000DEB7C857D1090FB6F894DEBF0FBECDBF2C
:101FE0007C016AE00E94420E8701075D1F4F84E674
:101FF000F80111928A95E9F7ECE4F1E0859194916A
:10200000BC01CE018F5A9F4F0E940526BE016F5A18
:102010007F4FC8010E940C26F70182A1823009F48B
:102020006AC030F4882369F0813009F00BC122C006
:10203000843009F4C7C008F493C0853009F002C1A8
:10204000F0C0EEE4F1E085919491BC01CE018F5A8D
:102050009F4F0E940526BE016F5A7F4FC8010E9404
:102060000C26ECE5F1E0859194916E01F9E2CF0E3A
:10207000D11C18C0E0E5F1E085919491BC01CE013E
:102080008F5A9F4F0E940526BE016F5A7F4FC8018D
:102090000E940C26ECE5F1E0859194916E01E9E255
:1020A000CE0ED11CBC01C6010E940526F701838D0E
:1020B0001F928F93848D1F928F93858D1F928F9384
:1020C000868D1F928F93DF92CF921F9288E28F931B
:1020D000EE24E394F12CEC0EFD1EFF92EF920E9491
:1020E0003126B701C8010E940C260FB6F894DEBF56
:1020F0000FBECDBFC2C0E2E5F1E085919491BC0175
:10210000CE018F5A9F4F0E940526BE016F5A7F4F06
:10211000C8010E940C26EEE5F1E0859194916E01D4
:10212000E9E2CE0ED11CBC01C6010E940526F701D2
:10213000838D1F928F93848D1F928F93858D1F9215
:102140008F93DF92CF921F9288E28F93EE24E394D5
:10215000F12CEC0EFD1EFF92EF920E943126C1CFB2
:10216000E4E5F1E085919491BC01CE018F5A9F4F37
:102170000E940526BE016F5A7F4FC8010E940C269F
:10218000E0E6F1E0859194916E01E9E2CE0ED11C7A
:10219000BC01C6010E940526F701838D1F928F9313
:1021A000848D1F928F93DF92CF921F9288E28F933C
:1021B000EE24E394F12CEC0EFD1EFF92EF920E94B0
:1021C00031268FCFE6E5F1E085919491BC01CE01F7
:1021D0008F5A9F4F0E940526BE016F5A7F4FC8013C
:1021E0000E940C26E2E6F1E0859194916E01E9E20D
:1021F000CE0ED11CBC01C6010E940526F701838DBD
:102200001F928F93DF92CF921F9288E28F93EE24DA
:10221000E394F12CEC0EFD1EFF92EF920E9431260A
:1022200060CFE8E5F1E085919491BC01CE018F5A31
:102230009F4F0E940526BE016F5A7F4FC8010E9422
:102240000C261BC0EAE5F1E0859194917E01E1E561
:10225000EE0EF11CBC01C7010E940526FF92EF9211
:102260001F9284E68F931F930F930E9431260F9045
:102270000F900F900F900F900F90C801C858DF4F2C
:102280000FB6F894DEBF0FBECDBFDF91CF911F9187
:102290000F91FF90EF90DF90CF900895CF93DF9351
:1022A000EC016EE00E94930F8E858E7F8E876EE02C
:1022B000CE01DF91CF910C946D0FCF93DF93EC01A2
:1022C0006EE00E94930F8E858D7F8E876EE0CE012B
:1022D000DF91CF910C946D0F2F923F924F925F92AE
:1022E0006F927F928F929F92AF92BF92CF92DF9226
:1022F000EF92FF920F931F93CF93DF931C01162F42
:10230000742E622E5E2C4C2C6C018DE8C80ED11CF4
:10231000A62FB0E020E833E341EE51E00E94A6246E
:1023200060587C4B8249974CE601688379838A83A5
:102330009B83E0E0F0E07D0124E630E050E9852E6B
:102340009924939424C0CF0183709927892BF1F4A9
:102350005F01D0E3AD1AD8EFBD0AC501B9010E94F3
:10236000D924892B31F4C501B4010E94D924892BC9
:1023700069F4E60188819981AA81BB8180589E4ACF
:10238000AE4FBF4F88839983AA83BB833196EE15E6
:10239000FF05CCF2D0E3ED1AD8EFFD0AC70164E6E1
:1023A00070E00E94D9246C01C70160E971E00E94CD
:1023B000D9247C01E1E0F0E0A72CB12CE101C35766
:1023C000DF4F137030C0E230F105A9F4111113C0D2
:1023D000C114D10419F4E114F10469F488819981DC
:1023E000AA81BB818058944CA94DBF4F88839983A3
:1023F000AA83BB8317C0DF01A458BD4FAC91B0E0E6
:1024000020E831E541E050E00E94A624288139818E
:102410004A815B81620F731F841F951F68837983D4
:102420008A839B833196EA15FB056CF2202F30E0FE
:10243000A0E1BEE00E949A246B017C018881998111
:10244000AA81BB81C80ED91EEA1EFB1EA62DB0E0D4
:10245000119720E831E541E050E00E94B124C60E1A
:10246000D71EE81EF91E252D30E0ACE3B0E00E9437
:102470009A24C60ED71EE81EF91EC40CD11CE11CFE
:10248000F11CC882D982EA82FB82B601C701DF91C2
:10249000CF911F910F91FF90EF90DF90CF90BF9061
:1024A000AF909F908F907F906F905F904F903F90F4
:1024B0002F900895CF92EF920F93CF93DF93EC017B
:1024C00084E293E00E94D40FC0903D03E0903C036F
:1024D00000913B0320913E03409139036091380302
:1024E000CE010E946C11DF91CF910F91EF90CF90B0
:1024F00008952F923F924F925F926F927F928F92A8
:102500009F92AF92BF92CF92DF92EF92FF920F9382
:102510001F93CF93DF93E901ECE3CE2ED12CE12C76
:10252000F12CCB01BA01A70196010E94ED2468832A
:10253000CA01B901A70196010E94ED246983CA016D
:10254000B90128E130E040E050E00E94ED2419019B
:102550002A016A83CA01B9016C5F7F4F8F4F9F4F79
:1025600027E030E040E050E00E94ED246F5F6B8395
:10257000812C912C540120E004E610E0F0E96F2E4C
:102580007724739401C02F5FE22FF0E0EE54F84FF0
:1025900063E0E62EF12CEE22FF22E114F10489F42F
:1025A000CF01B8010E94D924892B29F08EE691E051
:1025B000A0E0B0E00AC0CF01B3010E94D924892B6A
:1025C000A9F38DE691E0A0E0B0E0880E991EAA1E66
:1025D000BB1ED501C401AA27BB27281639064A0607
:1025E0005B0688F62E512E83E114F10499F4CF0195
:1025F00064E670E00E94D924892B29F08EE691E0F0
:10260000A0E0B0E00BC0CF0160E971E00E94D924E6
:10261000892BA1F38DE691E0A0E0B0E0881A990A39
:10262000AA0ABB0A92018101081919092A093B0962
:10263000CF0164E670E00E94D9246C01CF0160E90B
:1026400071E00E94D924EDE7F2E0A0E0A13059F456
:10265000E114F10451F4C114D10411F04DE106C0AC
:102660000097E1F302C0408101C04CE150E060E01E
:1026700070E0041715072607370740F0041B150BF9
:10268000260B370BAF5F3196AC3001F7AF5FAD83F0
:102690000F5F0C83DF91CF911F910F91FF90EF900F
:1026A000DF90CF90BF90AF909F908F907F906F9072
:1026B0005F904F903F902F900895CF93DF93EC0160
:1026C0006FE00E94930F8F858370DF91CF91089503
:1026D000CF93DF93EC010E945D13882319F0CE564F
:1026E000DF4F8883809133038C7F809333036FE0C7
:1026F00084E293E0DF91CF910C946D0FCF93DF9341
:10270000EC0140E061E00E94E90CCE010E946813F8
:10271000CE010E94210D6DE0CE010E94420E61E0CB
:102720008BE20E94AD0960E08BE2DF91CF910C94C7
:10273000C609362F862F6AE00E94B924292F832FDD
:1027400090E0821B91096AE070E00E94D924B4E015
:10275000660F771FBA95E1F7822F862B08950F93A6
:102760001F93CF93DF93EC018091C803811104C0C4
:1027700082EC93E00E94DF1A68E670E082EC93E05E
:102780000E940C1B67E070E082EC93E00E94381C12
:102790006B8DCE010E9499138F778F836C8DCE0144
:1027A0000E9499138F7788876D8DCE010E949913AF
:1027B0008F7789876E8DCE010E9499138F738A87D8
:1027C00000E010E0FE01E00FF11F678182EC93E072
:1027D0000E940C1C0F5F1F4F0430110599F782EC0B
:1027E00093E0DF91CF911F910F910C943A1C0F93BE
:1027F0001F93CF93DF93EC018091C803811104C034
:1028000082EC93E00E94DF1A68E670E082EC93E0CD
:102810000E940C1B60E070E082EC93E00E94381C88
:10282000698DCE010E9499138883688DCE010E9424
:10283000991389836F89CE010E9499138A838E89A7
:102840008B836A8DCE010E9499138C836D89CE0192
:102850000E9499138D836C89CE010E9499138E83F7
:1028600000E010E0699182EC93E00E940C1C0F5F85
:102870001F4F07301105B1F782EC93E0DF91CF9144
:102880001F910F910C943A1CAF92BF92CF92DF929E
:10289000EF92FF920F931F93CF93DF93CDB7DEB7E5
:1028A000ED970FB6F894DEBF0FBECDBF8C01B62EEC
:1028B000A72E7E0129E2E20EF11C87E0F7011192BA
:1028C0008A95E9F7E2E7F1E085919491BC01CC2487
:1028D000C394D12CCC0EDD1EC6010E940526EB2D23
:1028E000FA2DDF010D900020E9F75597AE17BF07CD
:1028F00011F081E0C5C0CE01C0969F938F93CE01A9
:102900008E969F938F93CE01C2969F938F93CE0105
:102910008D969F938F93CE01C4969F938F93CE01F4
:102920008C969F938F93CE01C6969F938F93CE01E3
:102930008B969F938F93CE01C8969F938F93CE01D2
:102940008A969F938F93CE01CA969F938F93FF92FF
:10295000EF92CE01CC969F938F93DF92CF92AF925E
:10296000BF920E946E2666E772E0C7010E9417269A
:102970000FB6F894DEBF0FBECDBF892B09F4B9CFD7
:102980008CAD9DAD8436910508F0B3CFF801848BF2
:102990002AAD3BADA901415051094C30510508F019
:1029A000A8CF258B213061F0233051F0253041F044
:1029B000273031F0283021F02A3011F02C3029F462
:1029C00088AD99AD809770F194CF243031F02630E6
:1029D00021F0293011F02B3029F488AD99AD4F97B3
:1029E00008F187CF2230F1F4282F2370B1F49C0135
:1029F0002053384FC90164E670E00E94D924892B26
:102A000039F4C90160E971E00E94D924892B29F4C5
:102A100088AD99AD4E9730F06CCF88AD99AD4D979C
:102A200008F067CF88AD99AD9C01215031092F3155
:102A3000310508F05ECFF801828F8EA99FA99C0115
:102A4000215031092730310508F053CF868B8CA9EE
:102A50009DA98831910508F04CCF878B8AA99BA945
:102A60008C33910508F045CF808F88A999A98C33C4
:102A7000910508F03ECF818FC8010E94F71380E0D6
:102A8000ED960FB6F894DEBF0FBECDBFDF91CF91AC
:102A90001F910F91FF90EF90DF90CF90BF90AF907C
:102AA0000895CF93DF93EC010E944E11CE010E9456
:102AB0005D1162E070E080E090E00E94E81FCE01CE
:102AC000DF91CF910C9468131F93CF93DF93EC01A8
:102AD000142F613009F086C08E8585608E876EE088
:102AE000CE010E946D0F8F858C7F8F876FE0CE01A6
:102AF0000E946D0F133009F44EC028F48F811130FD
:102B000019F1C8F509C0153009F469C008F44DC0C1
:102B1000163009F0D8C0CDC08F778F8367E0CE0123
:102B20000E946D0F88858F77888768E0CE010E94AC
:102B30006D0F89858F77898769E0CE010E946D0FBF
:102B40008A858F77806448C08F778F8367E0CE0156
:102B50000E946D0F88858F77888768E0CE010E947C
:102B60006D0F89858F77898769E0CE010E946D0F8F
:102B70008A858F7331C08F778F8367E0CE010E9483
:102B80006D0F88858F77888768E0CE010E946D0F72
:102B900089858F771AC08F818F778F8367E0CE0109
:102BA0000E946D0F88858F7709C08F818F778F8303
:102BB00067E0CE010E946D0F88858068888768E095
:102BC000CE010E946D0F89858068898769E0CE01FA
:102BD0000E946D0F8A8580688A876AE066C08F814F
:102BE0008068E5CF623009F06EC08E8586608E8782
:102BF0006EE0CE010E946D0F8F858C7F8F876FE016
:102C0000CE010E946D0F123089F130F4112359F07A
:102C1000113009F058C019C01430A9F188F11530ED
:102C200009F051C046C08B858F778B876BE0CE0152
:102C30000E946D0F8C858F778C876CE0CE010E948F
:102C40006D0F8D858F7780642EC08B858F778B87F6
:102C50006BE0CE010E946D0F8C858F778C876CE0C6
:102C6000CE010E946D0F8D858F731DC08B858F7770
:102C70008B876BE0CE010E946D0F8C858F770CC027
:102C80008B858F7702C08B8580688B876BE0CE0148
:102C90000E946D0F8C8580688C876CE0CE010E944D
:102CA0006D0F8D8580688D876DE0CE010E946D0F60
:102CB0000AC08E85887F8E876EE0CE010E946D0FE0
:102CC000CE010E94511562E070E080E090E0DF915B
:102CD000CF911F910C944B1FCF92DF92FF920F93D5
:102CE0001F93CF93DF931F92CDB7DEB76C018B019B
:102CF000F22EDB010D900020E9F71C97A617B7070D
:102D000041F064E771E08CEB93E049830E9439194C
:102D10004981F8018181805390819053FAE09F9F0F
:102D2000800D1124F601868FF801848180539381F0
:102D30009053FAE09F9F800D1124F601858FF801D2
:102D40008781805396819053FAE09F9F800D1124D4
:102D5000F601848FF8018285805391859053FAE0C3
:102D60009F9F800D1124F601838F41117FC066E083
:102D7000C6010E94420EF601818D938D890F8C331E
:102D800010F4838F06C08C53F601838F848D8F5F80
:102D9000848FF601808D948D890F8C3310F4848F8D
:102DA00006C08C53F601848F858D8F5F858FF60169
:102DB0008789958D890F883110F4858F06C08851D9
:102DC000F601858F868D8F5F868FF601968DF110C7
:102DD00009C08689890F868F883008F447C08750DC
:102DE000868F44C0F601328D390F368F8589813048
:102DF00061F0833051F0853041F0873031F0883018
:102E000021F08A3011F08C3021F4303278F13F51CA
:102E10002BC0843031F0863021F0893011F08B30B6
:102E200021F43F3118F13E511FC08230F9F4E09196
:102E300038038E2F8370A9F4F0E0E053F84FCF01F0
:102E400064E670E00E94D924892B39F4CF0160E94F
:102E500071E00E94D924892B21F43E3138F03D5194
:102E600003C03D3118F03C51F601368FF601F2A255
:102E700084E293E00E94AF134F2D61E084E293E07F
:102E80000F90DF91CF911F910F91FF90DF90CF9026
:102E90000C9464151092B50310923703089561E005
:102EA0008EE10E94AD0961E08FE10E94AD0961E011
:102EB0008DE10E94AD0960E08EE10E94C60960E0EC
:102EC0008FE10E94C60961E08DE10E94C6098CB5C0
:102ED00080618CBD8CB580648CBD08958CB58F7B72
:102EE0008CBD0895811103C08CB5806202C08CB581
:102EF0008F7D8CBD08959CB5937F982B9CBD0895C4
:102F00002CB5982F93702C7F922B9CBD9DB580FB88
:102F100090F99DBD0895CF93C62F61E08DE10E9489
:102F2000AD0961E082E20E94AD0961E08DE10E949D
:102F3000C60961E082E20E94C6098091ED05909188
:102F4000EE05A091EF05B091F005A2FF08C061E089
:102F500088E00E94AD0961E088E00E94C609809186
:102F6000ED059091EE05A091EF05B091F00596FF6B
:102F700008C061E089E00E94AD0961E089E00E943B
:102F8000C6098091ED059091EE05A091EF05B091F5
:102F9000F005A3FF08C061E082E00E94AD0961E096
:102FA00082E00E94C609C330C9F020F4C13061F04C
:102FB00070F407C0C53061F1F0F0C63009F067C0A9
:102FC00033C060E08DE160C060E082E25DC081EC12
:102FD00093E00E947A1960E08CE256C08091ED0582
:102FE0009091EE05A091EF05B091F005A2FF4FC0C2
:102FF00060E088E049C08091ED059091EE05A091D8
:10300000EF05B091F00596FF42C060E089E03CC05A
:103010008091ED059091EE05A091EF05B091F0053E
:10302000A3FF35C060E02FC061E08DE10E94C609BA
:1030300061E082E20E94C6098091ED059091EE0563
:10304000A091EF05B091F005A2FF04C061E088E017
:103050000E94C6098091ED059091EE05A091EF05C3
:10306000B091F00596FF04C061E089E00E94C609B6
:103070008091ED059091EE05A091EF05B091F005DE
:10308000A3FF05C061E082E0CF910C94C609CF9107
:1030900008951092B8031092B7031092B9030895DF
:1030A000DC018091C50011968C9311978091C4002A
:1030B00012968C931297E2ECF0E0808113968C9339
:1030C00013978091CA0014968C93149780818F7DFA
:1030D000808380818F7E80838081877F80834C91F5
:1030E00060E072EC81E090E00E94722061E087E194
:1030F0000E94C60960E08BE00C94C609CF93DF9371
:10310000EC014091ED055091EE056091EF05709155
:10311000F00563E070E080E090E042FF07C00E94AD
:10312000CC0861E08BE00E94C60902C00E94CC0876
:1031300089818093C5008A818093C4008B818093AC
:10314000C2008C818093CA00DF91CF9108950F93C4
:103150001F93CF93DF93CDB7DEB7C058D1090FB619
:10316000F894DEBF0FBECDBFC957DF4F088119816C
:10317000C758D040C8010E945018CE0185579F4FB4
:103180009C01C757DF4F48815981C958D04060E83A
:1031900070E0CE0101960E949026F8016081CE0178
:1031A00001960E947921C8010E947E18C058DF4F05
:1031B0000FB6F894DEBF0FBECDBFDF91CF911F9148
:1031C0000F910895EF92FF920F931F93CF93DF9388
:1031D0008C01EB010E9450187E0188E1E81A8CEF07
:1031E000F80AFE0121968491882339F0F801608164
:1031F0000E946C21CE15DF05A1F7C8010E947E1840
:1032000060E070E0CB01DF91CF911F910F91FF90B3
:10321000EF900895CF92DF92EF92FF920F93CF93AA
:10322000DF93EC016A017B010E94501808812AE0BB
:1032300030E040E050E0C701B6010E94892188815A
:103240000E946E21CE01DF91CF910F91FF90EF9000
:10325000DF90CF900C947E18CF93DF93EC010E9407
:10326000501888810E946E21CE01DF91CF910C947D
:103270007E18EF92FF920F931F93CF93DF9300D0AE
:10328000CDB7DEB77C010E94E2188C01C7016983CB
:103290007A830E942C1969817A81C8010F900F905E
:1032A000DF91CF911F910F91FF90EF9008951092B1
:1032B000BC0308951F93CF93DF931F92CDB7DEB762
:1032C000162F61E0812F49830E94AD094981413069
:1032D00011F461E003C0411108C060E0812F0F903C
:1032E000DF91CF911F910C94C6090F90DF91CF9180
:1032F0001F91089561E087E10E94AD0961E084E2D9
:103300000E94AD0961E085E20E94AD0961E087E1BC
:103310000E94C60961E084E20E94C60961E085E27C
:103320000C94C60961E087E10E94AD0961E08BE081
:103330000E94AD0960E087E10E94C60960E08BE071
:103340000E94C60960E084E20E94C60960E085E24E
:103350000C94C609CB010C94AA2BCB01611524E077
:1033600072071CF0642F0C94B82B08958F929F92D3
:10337000AF92BF92CF92DF92EF92FF920F931F9383
:10338000CF93DF93CDB7DEB7C75FD1090FB6F894FF
:10339000DEBF0FBECDBF8E0100511F4F580128E088
:1033A000A20EB11C7E0181E8E80EF11CCC24C3946E
:1033B000D12CCC0EDD1E6DE0CE018F519F4F0E94AF
:1033C000432340E06CE081EC93E00E945A1940E016
:1033D0006DE081EC93E00E945A19F801108211828D
:1033E0001282138261E08CE00E94AD0961E08CE002
:1033F0000E94C609CE018F519F4F0E94232241E0B7
:103400006DE081EC93E00E945A196AE070E080E080
:1034100090E00E94CC0840E063E3CE018F519F4FC3
:103420000E94F42262E370E080E090E00E94CC0809
:103430004701CE018F519F4F0E94C922F2E08F1A9F
:103440009108F4018083118261E070E080E090E0F7
:103450000E94CC088C149D0461F7FE017196D7017F
:10346000C60180599F4F219131912D933D93E817CB
:10347000F907C9F731EE832E912C8C0E9D1E81E049
:1034800090E0A0E0B0E0F401329122914F012130B0
:10349000310569F4F8014081518162817381480FDF
:1034A000591F6A1F7B1F4083518362837383880F78
:1034B000991FAA1FBB1F8E149F0429F7F801808152
:1034C0009181A281B3818F3F9F4FAF4FBF4F29F4AE
:1034D000F801108211821282138260E08CE00E9457
:1034E000C60940E06CE081EC93E00E945A1940E08C
:1034F0006DE081EC93E00E945A190C5F1F4F0A1592
:103500001B0509F058CFC051DF4F088119812A816E
:103510003B81C05FD040CC50DF4F88819981AA8128
:10352000BB81C45FD040081719072A073B0719F071
:1035300000E010E09801B801C901C950DF4F0FB693
:10354000F894DEBF0FBECDBFDF91CF911F910F91D9
:10355000FF90EF90DF90CF90BF90AF909F908F90B3
:103560000895CF92DF92EF92FF920E94B6196B01FD
:103570007C01611571058105910591F483EE90E060
:103580000E94B22B6A302AE072078207920741F04C
:103590006F3F2FEF72078207920711F06B017C01DA
:1035A000B601C701FF90EF90DF90CF9008958FEDA7
:1035B00090E00E94AA2B8F3F09F480E00895CF93FA
:1035C000DF93EC0180E2E0EFF3E0DF01982F1D9242
:1035D0009A95E9F71092EF031092EE03EDECF3E009
:1035E000DF011D928A95E9F71092CC031092CB036C
:1035F0000E94280581E08E8384E090E0DF91CF91E6
:103600000C94F60881E08093CA036093ED03109256
:10361000CC031092CB0308950C94021B8091EE030F
:103620009091EF03891B08959091EF038091EE0331
:10363000981748F4E92FF0E0E051FC4F80819F5F3C
:103640009093EF03089580E00895CF93DF93EC010A
:103650000E9474051E82DF91CF9108954091ED057F
:103660005091EE056091EF057091F0054170FC01FD
:1036700040834091ED055091EE056091EF0570910A
:10368000F0057695679557954795417041838091F0
:10369000ED059091EE05A091EF05B091F00584FD48
:1036A00049C08091ED059091EE05A091EF05B09194
:1036B000F00585FD3FC08091ED059091EE05A0914C
:1036C000EF05B091F00586FD35C08091ED05909134
:1036D000EE05A091EF05B091F00587FD2BC080911C
:1036E000ED059091EE05A091EF05B091F00590FDEC
:1036F00021C08091ED059091EE05A091EF05B0916C
:10370000F00591FD17C08091ED059091EE05A09117
:10371000EF05B091F00593FD0DC0089540E060E025
:1037200082E293E00E946E0B40E061E082E293E06F
:103730000C946E0B8091C903882381F30895CF9375
:10374000DF93EC018091ED059091EE05A091EF05DE
:10375000B091F00584FD58C08091ED059091EE0583
:10376000A091EF05B091F00585FD4EC08091ED056B
:103770009091EE05A091EF05B091F00586FD44C053
:103780008091ED059091EE05A091EF05B091F005C7
:1037900087FD3AC08091ED059091EE05A091EF056F
:1037A000B091F00590FD30C04091ED055091EE05CF
:1037B0006091EF057091F00551FD26C04091ED0537
:1037C0005091EE056091EF057091F00553FD1CC01E
:1037D00020C041E060E082E293E00E946E0B0CC0EA
:1037E0008981811106C041E060E082E293E00E949D
:1037F0006E0B888181110DC041E061E082E293E0AF
:10380000DF91CF910C946E0B8091C9038111E8CFA9
:10381000E0CFDF91CF910895CF93DF931F92CDB783
:10382000DEB769838091CA03882389F08091CB0336
:103830008032D0F48091CC03E82FF0E0E353FC4FCA
:1038400060838F5F8093CC038093CB030DC082ECA9
:1038500093E00E942E1B61E0CE0101960E94550567
:1038600082EC93E00E949F1B0F90DF91CF9108950F
:103870000C940C1CCF9382EC93E00E942E1B21E051
:103880004091CB036DEC73E08091ED030E9418062C
:10389000C82F1092CC031092CB031092CA0382EC73
:1038A00093E00E949F1B8C2FCF910895CF93DF93BD
:1038B000D62FC42F82EC93E00E942E1BC13208F059
:1038C000C0E24C2F60EF73E08D2F0E947D06D82F51
:1038D0001092EF03C093EE0382EC93E00E949F1BD3
:1038E0008D2FDF91CF9108950C94561C1092C9032F
:1038F0001092C2031092C3038AEF90E0A0E0B0E000
:103900008093C4039093C503A093C603B093C703E9
:103910000895F8948091F9059091FA0580FF18C0F8
:1039200086E20E940C0A892B99F08091FB058F5F3B
:103930008093FB058091FC059091FD05816090933B
:10394000FD058093FC058091F1058F5F8093F10563
:103950008091F9059091FA0581FF18C087E20E94D5
:103960000C0A892B99F08091FB058F5F8093FB05F2
:103970008091FC059091FD0582609093FD058093F8
:10398000FC058091F2058F5F8093F2058091F90527
:103990009091FA0583FF1CC088E00E940C0A892BD5
:1039A000B9F08091FB058F5F8093FB0560E085E0B7
:1039B0000E94C6098091FC059091FD058860909356
:1039C000FD058093FC058091F4058F5F8093F405DD
:1039D0008091F9059091FA0587FF18C08DE20E9449
:1039E0000C0A892B99F08091FB058F5F8093FB0572
:1039F0008091FC059091FD0580689093FD05809372
:103A0000FC058091F7058F5F8093F7058091F9059C
:103A10009091FA0590FF18C082E10E940C0A892B50
:103A200099F08091FB058F5F8093FB058091FC05E9
:103A30009091FD0591609093FD058093FC05809128
:103A4000F8058F5F8093F8058091F9059091FA054C
:103A500084FF18C089E00E940C0A892B99F4809198
:103A6000FB058F5F8093FB058091FC059091FD0520
:103A700080619093FD058093FC058091F5058F5F33
:103A80008093F50578940895E82FF0E0EE0FFF1F7E
:103A9000E05FFB4F71836083823029F130F488232B
:103AA00051F0813009F046C010C0833059F18430A4
:103AB00009F040C036C0E898809169008C7F842B63
:103AC00080936900E09AE89A0895E99880916900E6
:103AD000440F551F440F551F837F842B809369002B
:103AE000E19AE99A0895EA988091690024E0440FE8
:103AF000551F2A95E1F78F7C842B80936900E29A09
:103B0000EA9A0895EB988091690096E0440F551F5A
:103B10009A95E1F78F73842B80936900E39AEB9A6F
:103B20000895EC9880916A008C7F842B80936A00C2
:103B3000E49AEC9A0895F894883018F5833091F05F
:103B400020F4813059F060F407C0863079F0873076
:103B500079F0843071F408C0E8980BC0E99809C086
:103B6000EA9807C0EB9805C0EC9803C0EE9801C036
:103B7000EF98E82FF0E0EE0FFF1FE05FFB4F1182A0
:103B80001082789408951F920F920FB60F9211240D
:103B90000BB60F922F933F934F935F936F937F9347
:103BA0008F939F93AF93BF93EF93FF9380911004F4
:103BB00090911104892B29F0E0911004F0911104E7
:103BC0000995FF91EF91BF91AF919F918F917F9157
:103BD0006F915F914F913F912F910F900BBE0F907E
:103BE0000FBE0F901F9018951F920F920FB60F9255
:103BF00011240BB60F922F933F934F935F936F93C4
:103C00007F938F939F93AF93BF93EF93FF93809195
:103C1000120490911304892B29F0E0911204F09181
:103C200013040995FF91EF91BF91AF919F918F91EF
:103C30007F916F915F914F913F912F910F900BBEAC
:103C40000F900FBE0F901F9018951F920F920FB6F6
:103C50000F9211240BB60F922F933F934F935F93C4
:103C60006F937F938F939F93AF93BF93EF93FF9344
:103C70008091140490911504892B29F0E09114048B
:103C8000F09115040995FF91EF91BF91AF919F912C
:103C90008F917F916F915F914F913F912F910F90F5
:103CA0000BBE0F900FBE0F901F9018951F920F9292
:103CB0000FB60F9211240BB60F922F933F934F9391
:103CC0005F936F937F938F939F93AF93BF93EF9384
:103CD000FF938091160490911704892B29F0E091AD
:103CE0001604F09117040995FF91EF91BF91AF91E0
:103CF0009F918F917F916F915F914F913F912F9104
:103D00000F900BBE0F900FBE0F901F9018951F9233
:103D10000F920FB60F9211240BB60F922F933F9371
:103D20004F935F936F937F938F939F93AF93BF93C3
:103D3000EF93FF938091180490911904892B29F037
:103D4000E0911804F09119040995FF91EF91BF914A
:103D5000AF919F918F917F916F915F914F913F9123
:103D60002F910F900BBE0F900FBE0F901F901895C4
:103D70001F920F920FB60F9211240BB60F922F9332
:103D80003F934F935F936F937F938F939F93AF93E3
:103D9000BF93EF93FF9380911A0490911B04892B9A
:103DA00029F0E0911A04F0911B040995FF91EF911D
:103DB000BF91AF919F918F917F916F915F914F9143
:103DC0003F912F910F900BBE0F900FBE0F901F9041
:103DD00018951F920F920FB60F9211240BB60F92E7
:103DE0002F933F934F935F936F937F938F939F9303
:103DF000AF93BF93EF93FF9380911C0490911D04A8
:103E0000892B29F0E0911C04F0911D040995FF9184
:103E1000EF91BF91AF919F918F917F916F915F9142
:103E20004F913F912F910F900BBE0F900FBE0F90AF
:103E30001F9018951F920F920FB60F9211240BB678
:103E40000F922F933F934F935F936F937F938F9333
:103E50009F93AF93BF93EF93FF9380911E04909134
:103E60001F04892B29F0E0911E04F0911F0409958D
:103E7000FF91EF91BF91AF919F918F917F916F9142
:103E80005F914F913F912F910F900BBE0F900FBEFE
:103E90000F901F901895CF92DF92EF92FF926B01D7
:103EA0007C018091F9059091FA058C299D299093C8
:103EB000FA058093F905C0FE0FC060E08BE20E9416
:103EC000AD0960E086E20E94AD0943E050E069E898
:103ED0007CE182E00E94441DC1FE0FC060E08BE2E5
:103EE0000E94AD0960E087E20E94AD0943E050E026
:103EF00069E87CE182E00E94441DC2FE0FC061E0DF
:103F000083E00E94AD0961E083E00E94C60942E0BF
:103F100050E069E270E284E00E94441DC3FE0FC0DD
:103F200060E08BE20E94AD0960E088E00E94AD098C
:103F300043E050E069E87CE182E00E94441DC4FE59
:103F40000BC060E08BE20E94AD0943E050E069E8FD
:103F50007CE182E00E94441DC6FE0FC060E084E068
:103F60000E94AD0960E08CE20E94AD0942E050E0A1
:103F700069E270E283E00E94441DC7FE0FC060E06A
:103F80008DE20E94AD0960E08BE20E94AD0943E042
:103F900050E069E87CE182E00E94441DD0FE13C03D
:103FA00060E08BE20E94AD0960E082E10E94AD0911
:103FB00043E050E069E87CE182E0FF90EF90DF9021
:103FC000CF900C94441DFF90EF90DF90CF90089518
:103FD000CF92DF92EF92FF926B017C01F89460FF29
:103FE00003C082E00E949B1DC1FE03C082E00E94CC
:103FF0009B1DC2FE03C084E00E949B1DC3FE03C044
:1040000082E00E949B1DC4FE03C082E00E949B1DB3
:10401000C7FE03C082E00E949B1DD0FE03C082E069
:104020000E949B1DC6FE03C083E00E949B1D8091E1
:10403000F9059091FA05C094D094C822D922D09263
:10404000FA05C092F9057894FF90EF90DF90CF9039
:104050000895F8948091F9059091FA0586FF1EC0A5
:1040600084E00E940C0A892BC9F48091FB058F5FC4
:104070008093FB058091FC059091FD0580649093F1
:10408000FD058093FC058091F6058F5F8093F60512
:1040900060E470E080E090E00E94E81F8091F90504
:1040A0009091FA0582FF1CC083E00E940C0A892BC4
:1040B000B9F48091FB058F5F8093FB058091FC052F
:1040C0009091FD0584609093FD058093FC0580919F
:1040D000F3058F5F8093F30561E083E00E94C609DA
:1040E00078940895CF92DF92EF92FF926B017C015A
:1040F000411134C088E00E947309C701B60122E073
:1041000030E040E050E00E940F25305F414F5F4FAC
:10411000CA01B901A70196010E940F25DA01C90160
:104120000197A109B109892F9A2FAB2FBB27A7FDB2
:10413000BA958093C50021502093C4008091C1009E
:1041400080618093C1008091C10088608093C1002C
:104150008091C10080688093C10033C080E10E94DB
:104160007309C701B60122E030E040E050E00E9450
:104170000F25305F414F5F4FCA01B901A70196017A
:104180000E940F25DA01C9010197A109B109892F00
:104190009A2FAB2FBB27A7FDBA958093CD00215056
:1041A0002093CC008091C90080618093C9008091E8
:1041B000C90088608093C9008091C900806880939D
:1041C000C900FF90EF90DF90CF900895611107C074
:1041D0009091C00095FFFCCF8093C6000895909108
:1041E000C80095FFFCCF8093CE0008951F920F92D8
:1041F0000FB60F9211242F933F934F935F936F93BA
:104200007F938F939F93AF93BF93EF93E091C600FB
:104210002091260430912704C901019660E072E0E4
:104220000E94D924409124045091250484179507B5
:1042300041F0D901A95FB74FEC9390932704809385
:104240002604EF91BF91AF919F918F917F916F91D4
:104250005F914F913F912F910F900FBE0F901F9044
:1042600018951F920F920FB60F9211242F933F9320
:104270004F935F936F937F938F939F93AF93BF936E
:10428000EF93E091CE002091220430912304C901E4
:10429000019660E072E00E94D92440912004509180
:1042A00021048417950741F0D901A95FB94FEC9318
:1042B0009093230480932204EF91BF91AF919F913B
:1042C0008F917F916F915F914F913F912F910F90BF
:1042D0000FBE0F901F9018950C94E620CF93C82F17
:1042E000682F8DE00E94E6206C2F8AE0CF910C941D
:1042F000E6201F93CF93DF93162FEC0103C0612FAD
:104300000E94E62089918111FACFDF91CF911F9110
:1043100008954F925F926F927F928F929F92AF9289
:10432000BF92CF92DF92EF92FF920F93CF93DF93E2
:10433000CDB7DEB7A0970FB6F894DEBF0FBECDBFE6
:1043400029013A016115710581059105C9F4602FB4
:1043500080E3A0960FB6F894DEBF0FBECDBFDF910D
:10436000CF910F91FF90EF90DF90CF90BF90AF90E3
:104370009F908F907F906F905F904F900C94E6206D
:10438000EE24E394F12CEC0EFD1E812C912C5401B3
:10439000A30192010E94ED24F70161937F01FFEFD9
:1043A0008F1A9F0AAF0ABF0AB901CA0161157105C8
:1043B0008105910569F7CC24CA94DC2C7601C80CE0
:1043C000D91CEA1CFB1C14C0E1E0F0E0EC0FFD1F5F
:1043D000EC0DFD1D80818A3010F4805D01C0895C88
:1043E000602F0E94E62081E0C81AD108E108F10898
:1043F000EFEFCE16DE06EE06FE0631F7A0960FB6FC
:10440000F894DEBF0FBECDBFDF91CF910F91FF902B
:10441000EF90DF90CF90BF90AF909F908F907F9064
:104420006F905F904F90089510922D0482E08093DA
:1044300029048CE180932E0480EC91E09093300469
:1044400080932F040895CF92DF92EF92FF921F93F3
:10445000CF93DF93EC0160E08E850E94AD090E944E
:104460007A086B017C011EE7115089F182E090E02F
:104470000E94F6080E947A086C157D058E059F053E
:1044800020F40E947A086B017C018E850E940C0A40
:10449000892BF9F40E947A086C197D098E099F090D
:1044A000643F714081059105F8F213C00E947A08BB
:1044B0006B017C011130C1F10E947A086C197D09F1
:1044C0008E099F09643F714081059105D0F010E08D
:1044D0002BC061E08E850E94AD0960E08E850E9450
:1044E000C60984E591E00E94F6080E947A086B01F3
:1044F0007C018E850E940C0A11E0892BD9F210E014
:10450000D9CF8E850E940C0A11E0892B09F010E0AA
:1045100089E090E00E94F6080E947A086C157D05FB
:104520008E059F0538F6C2CF812FDF91CF911F9165
:10453000FF90EF90DF90CF9008951F93CF93DF937C
:10454000FC011081C181D281912F9095F8948A81CC
:1045500089238A838981812B898360FF0BC089E04D
:1045600090E00E94F6088A81812B8A8378948FE2FA
:1045700090E00AC087E390E00E94F6088A81812BD0
:104580008A83789485E090E0DF91CF911F910C941D
:10459000F6080F931F93CF93DF93FC011081C18125
:1045A000D281F8948981812B89838A81012F00959A
:1045B00080238A8382E090E00E94F608898180232C
:1045C000898387E090E00E94F608C88178948DE2A4
:1045D00090E00E94F6081C2381E009F480E0DF915E
:1045E000CF911F910F910895CF92DF92EF92FF929A
:1045F0000F931F93CF93DF931F92CDB7DEB76C015C
:10460000E62E08E010E0FF24F3949F2D9E2161E048
:1046100009F460E0C60149830E949D22FF0C01500D
:10462000110949810115110581F7411115C0F8944F
:10463000D6011196ED91FC91129791818C91809504
:10464000892381831196ED91FC91129792818C912F
:1046500080958923828378940F90DF91CF911F9169
:104660000F91FF90EF90DF90CF900895FC0113869B
:104670001586148612861186108617821682158278
:10468000148213820895CF93DF93EC01862F6E87F7
:1046900060E00E94AD098E8590E0FC01E956FC4F78
:1046A000E491E883FC01E653FC4FE491F0E0E35031
:1046B000FC4FE491E9831A82CE01DF91CF910C94F3
:1046C0003623FC01128A118E138EDC01A356BE4FD5
:1046D00089E111968C93119714961C92DF01AE55C7
:1046E000BE4F1C9212961C92E956FE4F1182108208
:1046F000089581E394E00C94612398D088F09F574B
:1047000090F0B92F9927B751A0F0D1F0660F771F1D
:10471000881F991F1AF0BA95C9F712C0B13081F0FD
:104720009FD0B1E008959CC0672F782F8827B85F8D
:1047300039F0B93FCCF3869577956795B395D9F75E
:104740003EF490958095709561957F4F8F4F9F4F68
:104750000895E89409C097FB3EF490958095709574
:1047600061957F4F8F4F9F4F9923A9F0F92F96E9BD
:10477000BB279395F695879577956795B795F11132
:10478000F8CFFAF4BB0F11F460FF1BC06F5F7F4FCF
:104790008F4F9F4F16C0882311F096E911C07723E1
:1047A00021F09EE8872F762F05C0662371F096E8EA
:1047B000862F70E060E02AF09A95660F771F881FB9
:1047C000DAF7880F9695879597F9089597F99F6777
:1047D00080E870E060E008959FEF80EC0895002489
:1047E0000A941616170618060906089500240A9456
:1047F00012161306140605060895092E0394000CDC
:1048000011F4882352F0BB0F40F4BF2B11F460FF6A
:1048100004C06F5F7F4F8F4F9F4F089557FD905893
:10482000440F551F59F05F3F71F04795880F97FB74
:10483000991F61F09F3F79F087950895121613062E
:104840001406551FF2CF4695F1DF08C0161617065D
:104850001806991FF1CF8695710561050894089592
:10486000E894BB2766277727CB0197F908950BD0EB
:10487000C4CFB5DF28F0BADF18F0952309F0A6CF32
:10488000ABCF1124EECFCADFA0F3959FD1F3950FE4
:1048900050E0551F629FF001729FBB27F00DB11DC4
:1048A000639FAA27F00DB11DAA1F649F6627B00D54
:1048B000A11D661F829F2227B00DA11D621F739F3D
:1048C000B00DA11D621F839FA00D611D221F749F4B
:1048D0003327A00D611D231F849F600D211D822F92
:1048E000762F6A2F11249F5750408AF0E1F08823D9
:1048F0004AF0EE0FFF1FBB1F661F771F881F9150E6
:104900005040A9F79E3F510570F060CFAACF5F3F9E
:10491000ECF3983EDCF3869577956795B795F79518
:10492000E7959F5FC1F7FE2B880F911D96958795A0
:1049300097F90895A29FB001B39FC001A39F01D032
:10494000B29F700D811D1124911D08950E949A241B
:10495000A59F900DB49F900DA49F800D911D1124D3
:104960000895B7FF0C94A6240E94A624821B930BE3
:104970000895991B79E004C0991F961708F0961BBB
:10498000881F7A95C9F780950895AA1BBB1B51E132
:1049900007C0AA1FBB1FA617B70710F0A61BB70BAF
:1049A000881F991F5A95A9F780959095BC01CD0154
:1049B000089597FB072E16F4009407D077FD09D0D1
:1049C0000E94C52407FC05D03EF4909581959F4F29
:1049D0000895709561957F4F0895A1E21A2EAA1B44
:1049E000BB1BFD010DC0AA1FBB1FEE1FFF1FA2179F
:1049F000B307E407F50720F0A21BB30BE40BF50B9C
:104A0000661F771F881F991F1A9469F76095709524
:104A1000809590959B01AC01BD01CF010895052EB5
:104A200097FB16F4009407D057FD0DD00E94ED249B
:104A300007FC09D07EF490958095709561957F4F25
:104A40008F4F9F4F089550954095309521953F4F3A
:104A50004F4F5F4F0895689401C0E8948F929F92E2
:104A6000CF93DF930E943925DF91CF919F908F9054
:104A7000089588249924F401E401B0E49F93AA27BF
:104A80009A158B049C04ED05FE05CF05D007A10700
:104A900098F4AD2FDC2FCF2FFE2FE92D982C892EE7
:104AA000982F872F762F652F542F432F322F2227B1
:104AB000B85031F7BF9127C01B2EBF91BB27220FE3
:104AC000331F441F551F661F771F881F991F881C9F
:104AD000991CEE1FFF1FCC1FDD1FAA1FBB1F8A14CE
:104AE0009B04EC05FD05CE05DF05A007B10748F0E6
:104AF0008A189B08EC09FD09CE09DF09A00BB10B50
:104B000021601A94E1F62EF49401AF01BE01CD01AB
:104B1000000C08950F930F7351F0220F331F441FA1
:104B2000551F661F771F881F991F0A95B1F70F91B0
:104B300008952A0D3B1D4C1D5D1D6E1D7F1D801FA0
:104B4000911F08950790F691E02D09948F929F92FE
:104B5000AF92BF92CF92DF92EF92FF92CF93DF930B
:104B6000EC01688179818A819B81611571058105DC
:104B7000910521F464E279ED8BE597E02DE133EFC7
:104B800041E050E00E940F2549015A019B01AC0110
:104B9000A7EAB1E40E94A6246B017C01ACEEB4EF5D
:104BA000A50194010E94B424C60ED71EE81EF91E6A
:104BB000F7FE06C081E0C81AD108E10880E8F80ACB
:104BC000C882D982EA82FB82E894D7F8EE24FF24D7
:104BD000C601DF91CF91FF90EF90DF90CF90BF9013
:104BE000AF909F908F9008950C94A62586E092E058
:104BF0000C94A625A0E0B0E08093060290930702F3
:104C0000A0930802B09309020895FB01DC0105900E
:104C10000D920020E1F70895FB01DC010D900020CA
:104C2000E9F7119701900D920020E1F70895FB013B
:104C300051915523A9F0BF01DC014D914517411158
:104C4000E1F759F4CD010190002049F04D91401554
:104C50004111C9F3FB014111EFCF81E090E00197D1
:104C600008950F931F93CF93DF93CDB7DEB72E97A1
:104C70000FB6F894DEBF0FBECDBF0D891E898F8998
:104C8000988D26E02C831A83098397FF02C080E069
:104C900090E801979E838D83CE014B96AC01698D80
:104CA0007A8DCE0101960E94C9264D815E8157FD05
:104CB0000AC02F813885421753070CF49A01F80176
:104CC000E20FF31F10822E960FB6F894DEBF0FBED0
:104CD000CDBFDF91CF911F910F910895CF93DF93B7
:104CE000CDB7DEB72E970FB6F894DEBF0FBECDBF9F
:104CF00085E08C838B899C899A838983CE01479632
:104D0000AC016D897E89CE0101960E947C2A2E9687
:104D10000FB6F894DEBF0FBECDBFDF91CF910895DF
:104D20000F931F93CF93DF93CDB7DEB72E970FB6B8
:104D3000F894DEBF0FBECDBF8C01CA0146E04C83A4
:104D40001A83098377FF02C060E070E8615071093F
:104D50007E836D83A901BC01CE0101960E94C92604
:104D60004D815E8157FD0AC02F8138854217530758
:104D70000CF49A01F801E20FF31F10822E960FB681
:104D8000F894DEBF0FBECDBFDF91CF911F910F9181
:104D900008952F923F924F925F926F927F928F92DF
:104DA0009F92AF92BF92CF92DF92EF92FF920F93BA
:104DB0001F93CF93DF93CDB7DEB72C970FB6F89440
:104DC000DEBF0FBECDBF7C016B018A01FC011782E3
:104DD0001682838181FFC6C188248394912C8C0E16
:104DE0009D1EF7019381F60193FD859193FF8191BB
:104DF0006F01882309F4B2C1853239F493FD85919E
:104E000093FF81916F01853229F4B70190E00E94F0
:104E10002F2CE7CF512C312C20E02032A8F48B32FC
:104E200061F028F4803251F0833271F40BC08D327E
:104E300039F0803349F4216028C02260246025C005
:104E4000286023C0206121C027FD27C0382F3053A0
:104E50003A3078F426FF06C0FAE05F9E300D112448
:104E6000532E13C08AE0389E300D1124332E206259
:104E70000CC08E3221F426FD71C1206406C08C3630
:104E800011F4206802C0883641F4F60193FD859143
:104E900093FF81916F018111C0CF982F955493306A
:104EA00018F09052933028F40C5F1F4FFFE3F98302
:104EB0000DC0833631F0833771F0833509F05EC061
:104EC00023C0F801808189830E5F1F4F44244394DF
:104ED000512C540115C03801F2E06F0E711CF8011D
:104EE000A080B18026FF03C0652D70E002C06FEF87
:104EF0007FEFC5012C870E94E42B2C0183012C85B8
:104F00006FE7262E222218C03801F2E06F0E711CC6
:104F1000F801A080B18026FF03C0652D70E002C0BB
:104F20006FEF7FEFC5012C870E94D92B2C012C85B8
:104F300050E8252E222A830123FC1CC006C0B7019D
:104F400080E290E00E942F2C3A94832D90E0481646
:104F50005906A8F30FC0F50127FC859127FE819122
:104F60005F01B70190E00E942F2C31103A94F1E0DC
:104F70004F1A51084114510471F7EDC0843611F0F5
:104F8000893641F5F80127FF07C060817181828170
:104F900093810C5F1F4F08C060817181882777FD66
:104FA0008095982F0E5F1F4F4FE6B42EB22297FFC9
:104FB00009C090958095709561957F4F8F4F9F4F59
:104FC000F0E8BF2A2AE030E0A4010E94762CA82E47
:104FD000A81843C0853731F43FEEB32EB2222AE041
:104FE00030E024C099EFB92EB2228F36B9F020F408
:104FF000883509F0B3C00DC0803721F0883709F03B
:10500000ADC002C020E1B22AB4FE0BC084E0B82AD1
:1050100008C024FF09C0E6E0BE2A06C028E030E050
:1050200005C020E130E002C020E132E0F801B7FE27
:1050300007C060817181828193810C5F1F4F06C020
:105040006081718180E090E00E5F1F4FA4010E949B
:10505000762CA82EA818FFE7BF22B6FE0BC02B2D7A
:105060002E7FA51450F4B4FE0AC0B2FC08C02B2D4C
:105070002E7E05C07A2C2B2D03C07A2C01C0752CF6
:1050800024FF0DC0FE01EA0DF11D8081803311F473
:10509000297E09C022FF06C07394739404C0822F36
:1050A000867809F0739423FD14C020FF0FC05A2C9A
:1050B000731460F4530C5718732C08C0B70180E2C6
:1050C00090E02C870E942F2C73942C857314B0F3DE
:1050D00004C0731410F4371801C0312C24FF12C01F
:1050E000B70180E390E02C870E942F2C2C8522FFB3
:1050F0001EC021FF03C088E590E002C088E790E071
:10510000B7010CC0822F867891F021FD02C080E2A9
:1051100001C08BE227FD8DE2B70190E00E942F2CA9
:1051200006C0B70180E390E00E942F2C5A94A5148A
:10513000C0F3AA94F401EA0DF11DB701808190E05B
:105140000E942F2CA110F5CF06C0B70180E290E09D
:105150000E942F2C3A943110F8CF43CEF7012681CC
:10516000378102C02FEF3FEFC9012C960FB6F8949C
:10517000DEBF0FBECDBFDF91CF911F910F91FF908A
:10518000EF90DF90CF90BF90AF909F908F907F90E7
:105190006F905F904F903F902F90089520FD09C031
:1051A000FC0123FD05C022FF02C07383628351838B
:1051B00040830895CF92DF92EF92FF920F931F9357
:1051C00044FD10C046FD10C0DB01FC01AA0FBB1F4F
:1051D000EE1FFF1F1094D1F76A0F7B1F8E1F9F1FBA
:1051E00031E003C033E001C034E0660F771F881F51
:1051F000991F3150D1F76B017C01C20ED11CE11C0B
:10520000F11C97018601B601C9011F910F91FF9012
:10521000EF90DF90CF9008950F931F93CF93DF937C
:105220008C01C8010E94EF2BEC0197FD08C00E9481
:10523000C62B892BB1F7B801CE010E945B2CCE01A1
:10524000DF91CF911F910F9108958F929F92AF920E
:10525000CF92DF92EF92FF920F931F93CF93DF9342
:10526000EC01A62E4A01022F0E94EF2BAC0155271C
:105270004B32510521F04D32510551F40068AA948A
:1052800011F480E063C0CE010E94EF2B97FDF9CFAF
:10529000102F1D7F302F3073E1F48033D1F4AA94A6
:1052A00009F440C0CE010E94EF2B97FD3BC0883728
:1052B00011F0883549F41264AA94A1F1CE010E943C
:1052C000EF2B97FF06C02EC006FF02C0126001C080
:1052D0001261C12CD12C7601282F2053283080F068
:1052E00014FF04C0BE010E945B2C19C02A3040F09C
:1052F00016FFF8CF2F7D322F3151363098F72750D7
:10530000412FC701B6010E94DA286B017C011260AF
:10531000AA9459F0CE010E94EF2B97FFDDCF11FD2B
:1053200004C0AFCFC12CD12C760117FF08C0F09478
:10533000E094D094C094C11CD11CE11CF11C212F1D
:10534000B701A601C4010E94CE2881E0DF91CF9170
:105350001F910F91FF90EF90DF90CF90AF909F90B3
:105360008F9008956F927F929F92AF92BF92CF924B
:10537000DF92EF92FF920F931F93CF93DF93CDB7FE
:10538000DEB7A1970FB6F894DEBF0FBECDBF6C019C
:105390007A018901FE01319680E2DF011D928A9532
:1053A000E9F7D60113969C9020E030E0A12CA0E014
:1053B000B12CCF0141E050E0F80193FC759193FED0
:1053C00071918F01711103C000E010E080C07E3543
:1053D00019F42115310559F1EB2DF0E0E217F3072F
:1053E0003CF47D3569F17D3219F4AA2319F103C02B
:1053F000A11101C0A72EE72FE695E695E6953C01A1
:105400006E0E711CF301A72FA7703A0102C0660C43
:10541000771CAA95E2F7D301B081BA2BB0837A1535
:1054200059F07A1510F47F5FE6CF7150E4CFBB24BA
:10543000B39403C0A1E001C0A0E02F5F3F4FBCCFF9
:10544000AA2319F08E8180628E83B11003C0BB2421
:10545000B3940BC0FE013196CE0181962081209538
:105460002193E817F907D1F7F2CFC60169A30E948B
:10547000EF2B69A197FD24C0282F26952695269508
:10548000E1E0F0E0EC0FFD1FE20FF11D208130E0C4
:10549000AC014770552702C0359527954A95E2F72C
:1054A00020FD04C0B6010E945B2C0AC0E114F10487
:1054B00019F0D7018D937D016150B12CB1F602C076
:1054C000B11082CFE114F10411F0F7011082C8018C
:1054D000A1960FB6F894DEBF0FBECDBFDF91CF917E
:1054E0001F910F91FF90EF90DF90CF90BF90AF9002
:1054F0009F907F906F9008954F925F927F928F92CE
:105500009F92AF92BF92CF92DF92EF92FF920F9352
:105510001F93CF93DF931F92CDB7DEB78C012B0182
:105520007A01FC0117821682A12CF0C08C2D90E02C
:105530000E94C62B892B21F0C8010E940C29E6C0CD
:10554000F5E2CF120AC0F201D3FC3591D3FE3191BE
:105550002F01353271F455E2C52EC8010E94EF2BA0
:1055600097FDDFC0C81609F4D1C0B8010E945B2CBA
:10557000DAC03A3241F4D3FC3591D3FE31912F0198
:10558000BB24B39401C0B12C712C10C0F2E0BF2A2F
:10559000672D70E080E090E040E20E94DA28762EED
:1055A000F201D3FC3591D3FE31912F01232F2053EB
:1055B0002A3060F3B1FE03C0711003C0B4C0772479
:1055C0007A94383619F03C3699F40AC0F201D3FCCB
:1055D0003591D3FE31912F01383651F4F8E0BF2ACE
:1055E00084E0B82AF201D3FC3591D3FE31912F012A
:1055F000332309F498C0632F70E085E194E0398388
:105600000E94CE2B3981892B09F48DC0B0FC07C0D4
:10561000F701C080D18082E0E80EF11C02C0C12CED
:10562000D12C3E3651F4F8014681578160E070E09C
:105630002B2DC6010E94CE2869C0333691F4B1FCEF
:1056400002C077247394C8010E94EF2B97FD69C0B4
:10565000C114D10419F0F60181936F017A9499F77E
:1056600053C03B3559F49201A601672DC8010E9431
:10567000B2292C01009709F047C041C0C801398305
:105680000E940C29398197FD4CC03F3659F128F40E
:10569000343629F1393649F52AC0333719F0353710
:1056A00021F51DC0C8010E94EF2B4C0197FD11C0D0
:1056B0000E94C62B892B29F0B801C4010E945B2CE3
:1056C00008C0C114D10419F0F60181926F017A94D7
:1056D00049F7C114D104C1F0F601108215C0F0E2FF
:1056E000BF2A05C080E1B82A02C090E4B92A2B2D58
:1056F000A601672DC8010E942529811105C0F80166
:105700008381807371F40FC0B0FEA394F801D3803D
:10571000F201D3FCC590D3FEC1902F01C11006CF7A
:1057200002C0AA2019F02A2D30E002C02FEF3FEF6F
:10573000C9010F90DF91CF911F910F91FF90EF90D2
:10574000DF90CF90BF90AF909F908F907F905F90B1
:105750004F900895F999FECF92BD81BDF89A99278F
:1057600080B50895A6E1B0E044E050E00C94D62C5A
:10577000262FF999FECF1FBA92BD81BD20BD0FB66D
:10578000F894FA9AF99A0FBE0196089591111CC1E6
:10579000803219F089508550D0F70895FC010590AA
:1057A000061621F00020D9F7C00108953197CF01E6
:1057B0000895FC010590615070400110D8F7809564
:1057C00090958E0F9F1F0895FC01615070400190CD
:1057D0000110D8F7809590958E0F9F1F0895CF9355
:1057E000DF93EC013B8130FF34C036FF0AC03F7BC2
:1057F0003B838E819F8101969F838E832A8130E037
:105800002AC032FF0FC0E881F9818081992787FD86
:105810009095009719F430623B831BC03196F98351
:10582000E8830EC0EA85FB85099597FF09C02B81A7
:10583000019611F480E101C080E2822B8B8309C0C4
:105840002E813F812F5F3F4F3F832E839C01332763
:1058500002C02FEF3FEFC901DF91CF9108950F9361
:105860001F93CF93DF938C01EB018B8181FD03C0EC
:105870000FEF1FEF1AC082FF0DC02E813F818C8178
:105880009D812817390764F4E881F9810193F98330
:10589000E88306C0E885F985802F0995892B41F7B3
:1058A0008E819F8101969F838E83C801DF91CF9166
:1058B0001F910F910895FB01238120FF13C026FD46
:1058C00011C08F3F3FEF930769F082832F7D2064E3
:1058D00023832681378121503109378326839C0118
:1058E000332702C02FEF3FEFC9010895FA01AA271D
:1058F000283051F1203181F1E8946F936E7F6E5F13
:105900007F4F8F4F9F4FAF4FB1E03ED0B4E03CD0C0
:10591000670F781F891F9A1FA11D680F791F8A1FA3
:10592000911DA11D6A0F711D811D911DA11D20D00A
:1059300009F468943F912AE0269F11243019305DC4
:105940003193DEF6CF010895462F4770405D4193B5
:10595000B3E00FD0C9F7F6CF462F4F70405D4A3302
:1059600018F0495D31FD4052419302D0A9F7EACFCA
:10597000B4E0A6959795879577956795BA95C9F7F9
:1059800000976105710508959B01AC010A2E0694EC
:105990005795479537952795BA95C9F7620F731FA5
:1059A000841F951FA01D0895DC01CB01FC01F9990E
:1059B000FECF06C0F2BDE1BDF89A319600B40D925B
:1059C00041505040B8F70895992788270895F894D2
:0259D000FFCF07
:1059D2000000070A20000100000001253032753A5C
:1059E200253032753A253032753A25303275004EFF
:1059F200657720616C61726D2074696D653A20254E
:105A0200730A0031343A30313A30313A30313A3077
:105A1200303A30303A30300053756E004D6F6E00C0
:105A220054756500576564005468750046726900D4
:105A320053617400496E76616C696420474D54204D
:105A420076616C7565003A3A3A3A3A3A001F1C1F81
:0A5A52001E1F1E1F1F1E1F1E1F0037
:00000001FF
