:100000000C94F6010C941C160C944D160C947E1650
:100010000C94AF160C94E0160C9411170C94421724
:100020000C9473170C9425020C9425020C94250251
:100030000C94F8020C9425020C9425020C945403A1
:100040000C9425020C9425020C9425020C94250294
:100050000C9425020C9425020C9425020C942F0379
:100060000C9425020C9428180C9425020C9425025B
:100070000C9425020C9425020C9425020C94250264
:100080000C9425020C9425020C9425020C94250254
:100090000C9463180C9425020C9425020C94EC1417
:1000A0000C9425020C9425020C9425020C94250234
:1000B0000C9425020C9425020C9425020C94250224
:1000C0000C9425020C9425020C942502546573743B
:1000D0000042617474657279204C6576656C3A20D3
:1000E00000202500207C20426174746572792028EC
:1000F000566F6C7473293A200020560044533138EF
:1001000032302054656D70657261747572653A2085
:1001100000206465677265657300536F6C617220BF
:100120003A2000206269740044697374616E6365EB
:10013000203A2000207600562B203A20002076001E
:1001400068017C01A201C901E90101020F021F023D
:1001500034024A025B0267026E028B02A902BF02EE
:10016000CD02DD0200030603416C61726D204D6F0C
:100170006465206D61746368657320005B44617918
:10018000203A20686F757273203A206D696E75741D
:100190006573203A207365636F6E64735D202D3E36
:1001A00020005B44617465203A20686F757273208B
:1001B0003A206D696E75746573203A207365636FBC
:1001C0006E64735D202D3E20005B486F7572732056
:1001D0003A206D696E75746573203A207365636F9C
:1001E0006E64735D202D3E20005B4D696E757465F5
:1001F00073203A207365636F6E64735D202D3E201B
:10020000005B5365636F6E64735D202D3E20004F6D
:100210006E636520706572207365636F6E6400495C
:100220006E636F727265637420616C61726D206DB4
:100230006F6465005B253032753A253032753A259A
:100240003032753A253032755D005B253032753AB3
:10025000253032753A253032755D005B25303275B8
:100260003A253032755D005B253032755D005B44A8
:100270006179203A20686F757273203A206D696E3B
:1002800075746573205D202D3E20005B44617465AC
:10029000203A20686F757273203A206D696E75740C
:1002A0006573205D202D3E20005B486F75727320C2
:1002B0003A206D696E757465735D202D3E20005B7C
:1002C0004D696E757465735D202D3E20004F6E6321
:1002D0006520706572206D696E7574650025732CDC
:1002E00020253032752F253032752F253032752C70
:1002F00020253032753A253032753A253032750076
:100300006572726F72002530327525632530327543
:1003100025632530327525632530327525632530F8
:10032000327525632530327525632530327500001E
:1003300000080900000000000000000000000000AC
:1003400000000000000000000000000000000000AD
:10035000000000000000000000000000000000009D
:100360000000010208101020408004081020400204
:100370000204081020408001028020400420010176
:100380000204081020014080408001020804088017
:10039000041004020105050505030303030101011F
:1003A0000404030606060606060606010405010502
:1003B0000103020202020202010202050504040313
:1003C000040401030407070700202326292C2F32E9
:1003D000002225282B2E3134002124272A2D3033CA
:1003E0008E0C9F0D890F38135A19E41B11241FBE60
:1003F000CFEFD1E2DEBFCDBF12E0A0E0B2E0E8E097
:10040000F5E400E00BBF02C007900D92A034B107E5
:10041000D9F719E0A0E4B2E001C01D92AF39B107ED
:10042000E1F713E0CCEED3E000E006C0229701092B
:10043000FE010BBF0E94FF1EC03ED10780E00807EF
:10044000A9F70E947C050C9482220C94000084EE93
:1004500092E00E94AC0D6CEC70E084EE92E00C94A3
:10046000FD0E61ED70E084EE92E00E94230E89E4BF
:1004700092E00E94FB06482F50E060E070E02AE026
:1004800030E084EE92E00E941B0F61EE70E084EE9B
:1004900092E00E94230E64EE70E084EE92E00E94EF
:1004A000230E89E492E00E948707AB01BC0184EE31
:1004B00092E00E94ED0E69EF70E084EE92E00E94FF
:1004C000FD0E68EE73E080E090E00E94CB0340E018
:1004D00060E089E492E00E94980668EE73E080E0B4
:1004E00090E00E94CB0365E089EE92E00E949611B5
:1004F00060934002709341028093420290934302C2
:100500006CEF70E084EE92E00E94230E4091400276
:1005100050914102609142027091430284EE92E058
:100520000E94ED0E61E171E084EE92E00E94FD0E0A
:1005300068EE73E080E090E00E94CB036AE171E036
:1005400084EE92E00E94230E85E00E94AC04BC0180
:1005500084EE92E00E94820F63E271E084EE92E00A
:100560000E94FD0E68EE73E080E090E00E94CB03F5
:1005700068E271E084EE92E00E94230E84E00E9423
:10058000AC04BC0184EE92E00E94820F64E371E04F
:1005900084EE92E00E94FD0E68EE73E080E090E051
:1005A0000E94CB0367E371E084EE92E00E94230E89
:1005B00087E00E94AC04BC0184EE92E00E94820FAE
:1005C0006DE371E084EE92E00E94FD0E68EE73E050
:1005D00080E090E00E94CB0341E060E089E492E09B
:1005E0000E94980664E670E080E090E00C94CB03F3
:1005F0001F920F920FB60F9211240BB60F922F93EA
:100600003F934F935F936F937F938F939F93AF939A
:10061000BF93EF93FF93F89481E080930A02E0E6A2
:10062000F0E080818068808380818F7B808360E0C0
:1006300083E00E94F0047894FF91EF91BF91AF9115
:100640009F918F917F916F915F914F913F912F91EA
:100650000F900BBE0F900FBE0F901F9018951F921A
:100660000F920FB60F9211248F939F93AF93BF9366
:100670008091850590918605A0918705B0918805A8
:100680000196A11DB11D8093850590938605A093C9
:100690008705B0938805BF91AF919F918F910F907F
:1006A0000FBE0F901F9018951F920F920FB60F92CA
:1006B00011248F939F93AF93BF938091890590915D
:1006C0008A05A0918B05B0918C050196A11DB11DE5
:1006D0008093890590938A05A0938B05B0938C0530
:1006E000BF91AF919F918F910F900FBE0F901F9070
:1006F00018958F929F92AF92BF92CF92DF92EF9216
:10070000FF920F931F93CF93DF932FB7F8948091AD
:10071000850590918605A0918705B09188052FBF2A
:100720009C01AD0160E070E080E090E001E00E949B
:10073000E71E4901D42FC52FB62FA72FF82FE92F79
:1007400002E00E94E71E59016A017B018C019401BD
:100750004D2F5C2F6B2F7A2F8F2F9E2F0E94F61E0E
:10076000E9E0AE2EB12CC12CD12CE12CF12C00E013
:1007700010E00E948A1E952FB901842FDF91CF913E
:100780001F910F91FF90EF90DF90CF90BF90AF90AF
:100790009F908F9008958F929F92AF92BF92CF9229
:1007A000DF92EF92FF924B015C0107C00E94790338
:1007B0006C157D058E059F0520F40E9479036B0161
:1007C0007C010E9479036C197D098E099F096815C7
:1007D00079058A059B0550F3FF90EF90DF90CF904D
:1007E000BF90AF909F908F900895BC01049768F0E0
:1007F00080E090E00E94EA1C26E636E646EE5FE3E3
:100800000E94A01D0E94BE1C02C0660F771F61508F
:10081000710961F06150710949F0FB01EE0FFF1F92
:1008200031978FB7F8943197F1F78FBF0895789487
:1008300084B7877F84BF1092850510928605109239
:1008400087051092880584B5826084BD84B5816077
:1008500084BD85B5826085BD85B5816085BDEEE6C8
:10086000F0E0808181608083E1E8F0E08081826057
:100870008083808181608083E0E8F0E08081816016
:100880008083E1EBF0E0808184608083E1E9F0E047
:10089000808184608083E0EBF0E0808181608083F0
:1008A000E0E9F0E0808181608083E4E6F0E080812F
:1008B0008E7F8083ECE7F0E080818F77808380817A
:1008C00080648083EAE7F0E08081846080838081B7
:1008D000826080838081806880831092C100109242
:1008E000C900089590914402982B9093440280FF90
:1008F00032C0809164008E7F8093640080917C0080
:100900008F7780937C0080917C00806480937C0052
:1009100080917A00846080937A0080917A0082606E
:1009200080937A0080917A00806880937A00809129
:1009300064008F7780936400809164008B7F809344
:100940006400809164008D7F8093640080916500D5
:100950008E7F80936500089590917C0020917A00AD
:10096000206820937A009F70981769F090917C001E
:100970008F70907F892B80937C0061E070E080E035
:1009800090E00E94CB0380917A00806480937A008B
:1009900080917A0086FDFCCF20917800309179001B
:1009A000932F80E0AC01422B9A01C901089590E099
:1009B000FC01EE59FC4F2491FC01EB56FC4FE491F5
:1009C000EE2369F0F0E0E852FC4FA491B0E08C9186
:1009D000611103C02095822301C0822B8C9308955E
:1009E00090E0FC01E15DFC4F2491FC01EE59FC4FCD
:1009F0003491FC01EB56FC4F84918823B1F1222302
:100A000031F1233021F4909180009F7705C024308C
:100A100031F4909180009F7D9093800018C0213028
:100A200019F494B59F7704C0223021F494B59F7DCA
:100A300094BD0DC0263021F49091B0009F7705C081
:100A4000273029F49091B0009F7D9093B000E82F5B
:100A5000F0E0E053FC4FA491B0E08C91611103C031
:100A60003095832301C0832B8C93089590E0FC0183
:100A7000E15DFC4F2491FC01EE59FC4F3491FC01E7
:100A8000EB56FC4F8491882399F1222331F12330D6
:100A900021F4909180009F7705C0243031F490912B
:100AA00080009F7D9093800018C0213019F494B588
:100AB0009F7704C0223021F494B59F7D94BD0DC072
:100AC000263021F49091B0009F7705C0273029F49B
:100AD0009091B0009F7D9093B000E82FF0E0E85334
:100AE000FC4FE491F0E08081832321E030E011F4B9
:100AF00020E030E0C90108950E94170489EE92E0D9
:100B00000E949911853440F061E081E30E94D7048E
:100B100061E081E30E94F00461E070E089EE92E020
:100B20000E94C40F8130B1F480918D0590918E05A3
:100B3000A0918F05B0919005906880938D0590935A
:100B40008E05A0938F05B093900560E081E090E062
:100B50000E94C42187E20E943605892B59F160E08A
:100B600070E089EE92E00E94C40F8A3019F5C1C08E
:100B70006CE3629FA001639F500D1124840F951FA9
:100B80000EC02115310559F06CE3629FA001639FEF
:100B9000500D11249A01205F314F820F931F03974C
:100BA00048F480919C0590919D05806290939D05ED
:100BB00080939C058BE492E00E94730C8BE492E09E
:100BC0000E94340C8BE492E00E94430C8BE492E090
:100BD0000E94FB0763E070E080E090E00E94CB039E
:100BE00080918D0590918E05A0918F05B091900513
:100BF000A1FF5EC063E070E080E090E00E94CB0364
:100C000061E086E10E94D70463E070E080E090E05C
:100C10000E94CB0361E086E10E94F00463E070E093
:100C200080E090E00E94CB030E94930C63E070E0B0
:100C300080E090E00E94CB0381E00E94B60C63E06C
:100C400070E080E090E00E94CB0384E00E94C40C3E
:100C500063E070E080E090E00E94CB0380E00E94BF
:100C6000BF0C63E070E080E090E00E94CB030E9444
:100C7000B20C63E070E080E090E00E94CB0366E09D
:100C80008EED92E00E94CF0C63E070E080E090E097
:100C90000E94CB0361E086E10E94D70460E086E118
:100CA0000E94F00463E070E080E090E00E94CB03DB
:100CB00063E070E080E090E00E94CB0389EE92E078
:100CC0000E94C210609345027093460280934702CF
:100CD000909348028091450290914602A09147026C
:100CE000B09148020E94571F0E9427020E943102C1
:100CF000FDCF8BE492E00E94730C8BE492E00E94A3
:100D0000C50A8BE492E00E94BA0A8091640290E0E6
:100D100020916602821B91092091630230E040918C
:100D20006702241B3109121613060CF421CF29CFB8
:100D30001F93CF93DF931F92CDB7DEB7162F61E0DD
:100D40008AE149830E94D70461E088E10E94D704C8
:100D50004981112321F0113009F048C020C0411110
:100D60000EC061E08AE10E94F00480918D059091AF
:100D70008E05A0918F05B091900582602FC0413003
:100D8000A9F560E08AE10E94F00480918D059091C0
:100D90008E05A0918F05B09190058D7F1FC04111E8
:100DA0000EC061E088E10E94F00480918D05909171
:100DB0008E05A0918F05B091900581600FC04130E4
:100DC000A9F460E088E10E94F00480918D05909183
:100DD0008E05A0918F05B09190058E7F80938D0533
:100DE00090938E05A0938F05B09390050F90DF919F
:100DF000CF911F9108950F931F93CF93DF9361E0DD
:100E000089E10E94D70461E089E10E94F00461E079
:100E100070E080E090E00E94CB0380E00E94AC0490
:100E2000BC01882777FD8095982F0E94EC1C8B01D0
:100E3000D82FC92F20E030E040E054E4FE01712FAC
:100E40008F2F9E2F0E944D1C87FF06C060E089E116
:100E50000E94F004C0E055C020E030EC42E254E4CF
:100E6000FE01602F712F8F2F9E2F0E949C1D181640
:100E700034F460E089E10E94F004C4E642C020E05E
:100E800030EC42E254E4FE01602F712F8F2F9E2F31
:100E90000E944D1C1816ECF020E030EC47E054E4C2
:100EA000FE01602F712F8F2F9E2F0E949C1D181600
:100EB00084F425E535E545E55FE3FE01602F712FFC
:100EC0008F2F9E2F0E94A01D20E030E04DED53E4B7
:100ED0000FC020E030E040EA5EE3FE01602F712F9A
:100EE0008F2F9C2F0E94A01D20E030E040E253E4B1
:100EF0000E94E81B0E94BE1CC62F60E089E10E9490
:100F0000F0048C2FDF91CF911F910F910895CF9313
:100F1000DF9361E089E10E94D70461E089E10E94EA
:100F2000F00480E00E94AC0480E00E94AC04EC017C
:100F300060E089E10E94F004BE01882777FD80957A
:100F4000982F0E94EC1C23E333E343E550E40E9416
:100F5000A01D9B01AC010E94E91B20E030EC4FE793
:100F600054E40E94511CDF91CF91089561E089E221
:100F70000E94D70461E088E20E94D7048AEE92E0E2
:100F80000C94E7118091F002882341F08091C40312
:100F9000811104C089E492E00C94B60708950F9380
:100FA0001F93CF93DF93EC01042F68A761E080E3E8
:100FB0000E94D70418A5112379F0113091F461E053
:100FC00080E30E94F004013019F482E08B8B09C0A9
:100FD000011107C01B8B05C060E080E30E94F00494
:100FE0001B8A6AE070E080E090E0DF91CF911F9172
:100FF0000F910C94CB03CF93DF93EC010E94C207B7
:1010000040E060E0CE01DF91CF910C94CF07FC016E
:10101000148A158A168A178A108E118E128E138ED4
:10102000148E158E168E178E10A211A212A213A264
:1010300014A215A216A217A20895EF92FF920F9381
:101040001F93CF93DF93CDB7DEB7EC970FB6F8942D
:10105000DEBF0FBECDBF8C01E2E6F1E08591949139
:10106000BC01EE24E394F12CEC0EFD1EC7010E949E
:10107000621FE4E6F1E085919491BC01CE0189966E
:101080000E94621FF8018689843009F466C040F42A
:10109000823029F108F04BC0813009F0B6C009C098
:1010A000863009F486C008F46EC0873009F0ADC000
:1010B00096C0F801818D1F928F93808D1F928F9320
:1010C00087891F928F93828D1F928F9385891F929C
:1010D0008F9384891F928F938BE092E015C0F80163
:1010E000818D1F928F93808D1F928F9387891F927E
:1010F0008F93828D1F928F9385891F928F938489FE
:101100001F928F938FE092E09F938F93FF92EF92C5
:101110001F9284E68F93C80189969F938F930E94B4
:10112000741F0FB6F894DEBF0FBECDBF81C0F801AB
:10113000818D1F928F93808D1F928F9387891F922D
:101140008F93828D1F928F9385891F928F938489AD
:101150001F928F9383E192E0D7CFF801818D1F9288
:101160008F93808D1F928F9387891F928F93828D8B
:101170001F928F9385891F928F9384891F928F93DB
:1011800087E192E0C1CFF801818D1F928F93808D0E
:101190001F928F9387891F928F93828D1F928F93B7
:1011A00085891F928F9384891F928F938BE192E0A0
:1011B000ABCFF801818D1F928F93808D1F928F93FB
:1011C00087891F928F93828D1F928F9385891F929B
:1011D0008F9384891F928F938FE192E095CFF801CE
:1011E000818D1F928F93808D1F928F9387891F927D
:1011F0008F93828D1F928F9385891F928F938489FD
:101200001F928F9383E292E07FCFCE0189969F93C6
:101210008F931F9284E68F93C80189969F938F9333
:101220000E94741F0F900F900F900F900F900F90CF
:10123000075D1F4FC801EC960FB6F894DEBF0FBED6
:10124000CDBFDF91CF911F910F91FF90EF90089547
:10125000CF92DF92EF92FF920F931F93CF93DF9382
:101260008C01C62E8091F002811104C08AEE92E0BA
:101270000E94A11168E670E08AEE92E00E94CE1111
:1012800060E070E08AEE92E00E94FA128AEE92E04C
:101290000E94FC1243E150E068E670E08AEE92E0C2
:1012A0000E943613E12CF12CC0E0D0E0D12CE4C038
:1012B0008AEE92E00E94D611F801EC0FFD1F8083A8
:1012C000C630D10509F467C098F4C230D10509F4DD
:1012D0003EC038F4209729F1C130D10509F0C7C0CC
:1012E0002BC0C430D10509F440C008F049C03AC051
:1012F000CA30D10509F484C048F4282F30E0C83042
:10130000D10509F461C008F06DC050C0CC30D105E2
:1013100009F492C008F482C0CD30D10509F0A7C00D
:1013200099C0982F92959F708F702AE0929F800DA0
:101330001124F801818F9BC0982F92959F708F7018
:10134000FAE09F9F800D1124F801808F90C0982FA4
:1013500092959F708F70FAE09F9F800D1124F80185
:10136000878B85C0F801868B82C0982F92959F70DD
:101370008F70FAE09F9F800D1124F801828F77C053
:10138000982F92959F708F70FAE09F9F800D112487
:10139000F801858B6CC0982F92959F708F70FAE042
:1013A0009F9F800D1124F801848B61C054E0359516
:1013B00027955A95E1F727708F70FAE02F9F800DDF
:1013C0001124F801838F53C044E0359527954A9541
:1013D000E1F727708F70FAE02F9F800D1124F8013C
:1013E000848F45C094E0359527959A95E1F7237051
:1013F0008F70FAE02F9F800D1124F801858F37C080
:10140000282F2695269526952670922F990F990FAD
:10141000920F8F70980FF801968F29C0282F26956C
:10142000269526952E70922F990F990F920F8F70F7
:10143000980FF801978F1BC0282F26952695269583
:101440002670922F990F990F920F8F70980FF801B5
:1014500090A30DC0282F2695269526952670922FAD
:10146000990F990F920F8F70980FF80191A3219601
:1014700003C0FFEFEF1AFF0ACC16DD0658F02AE092
:10148000E216F10438F48AEE92E00E94D01188232B
:1014900081F30ECFDF91CF911F910F91FF90EF90CD
:1014A000DF90CF9008951F93CF93DF93EC01162F19
:1014B0008091F002811104C08AEE92E00E94A11195
:1014C00068E670E08AEE92E00E94CE11612F8AEE0B
:1014D00092E00E94CE12C10FD11D68818AEE92E087
:1014E0000E94CE128AEE92E0DF91CF911F910C9470
:1014F000FC12FF920F931F93CF93DF938C01F62E74
:101500008091F002811104C08AEE92E00E94A11144
:1015100068E670E08AEE92E00E94CE116F2D8AEEAE
:1015200092E00E94CE128AEE92E00E94FC1241E00C
:1015300050E068E670E08AEE92E00E943613CBE05D
:10154000D0E08AEE92E00E94D011811102C0219772
:10155000C1F78AEE92E00E94D611F801EF0DF11D5D
:1015600080838AEE92E0DF91CF911F910F91FF90DF
:101570000C94FC12CF93DF93EC0166E00E942809E3
:10158000CE01DF91CF910C941D08CF92DF92EF92A4
:10159000FF920F931F93CF93DF93CDB7DEB7C8575A
:1015A000D1090FB6F894DEBF0FBECDBF7C016AE053
:1015B0000E9428098701075D1F4F84E6F8011192F8
:1015C0008A95E9F7E0E4F1E085919491BC01CE01C0
:1015D0008F5A9F4F0E94621FBE016F5A7F4FC801F2
:1015E0000E94691FF70182A1823009F46AC030F4B9
:1015F000882369F0813009F00BC122C0843009F4DE
:10160000C7C008F493C0853009F002C1F0C0E2E41D
:10161000F1E085919491BC01CE018F5A9F4F0E94B9
:10162000621FBE016F5A7F4FC8010E94691FE0E52B
:10163000F1E0859194916E01F9E2CF0ED11C18C0B2
:10164000E4E4F1E085919491BC01CE018F5A9F4F63
:101650000E94621FBE016F5A7F4FC8010E94691F1E
:10166000E0E5F1E0859194916E01E9E2CE0ED11CA6
:10167000BC01C6010E94621FF701838D1F928F93E8
:10168000848D1F928F93858D1F928F93868D1F92CD
:101690008F93DF92CF921F9288E28F93EE24E39490
:1016A000F12CEC0EFD1EFF92EF920E94741FB70109
:1016B000C8010E94691F0FB6F894DEBF0FBECDBFF0
:1016C000C2C0E6E4F1E085919491BC01CE018F5A4D
:1016D0009F4F0E94621FBE016F5A7F4FC8010E9438
:1016E000691FE2E5F1E0859194916E01E9E2CE0E89
:1016F000D11CBC01C6010E94621FF701838D1F929D
:101700008F93848D1F928F93858D1F928F93DF927D
:10171000CF921F9288E28F93EE24E394F12CEC0E8B
:10172000FD1EFF92EF920E94741FC1CFE8E4F1E02A
:1017300085919491BC01CE018F5A9F4F0E94621FE8
:10174000BE016F5A7F4FC8010E94691FE4E5F1E0B6
:10175000859194916E01E9E2CE0ED11CBC01C601C7
:101760000E94621FF701838D1F928F93848D1F92B9
:101770008F93DF92CF921F9288E28F93EE24E394AF
:10178000F12CEC0EFD1EFF92EF920E94741F8FCF82
:10179000EAE4F1E085919491BC01CE018F5A9F4F0C
:1017A0000E94621FBE016F5A7F4FC8010E94691FCD
:1017B000E6E5F1E0859194916E01E9E2CE0ED11C4F
:1017C000BC01C6010E94621FF701838D1F928F9397
:1017D000DF92CF921F9288E28F93EE24E394F12C54
:1017E000EC0EFD1EFF92EF920E94741F60CFECE49E
:1017F000F1E085919491BC01CE018F5A9F4F0E94D8
:10180000621FBE016F5A7F4FC8010E94691F1BC033
:10181000EEE4F1E0859194917E01E1E5EE0EF11C9C
:10182000BC01C7010E94621FFF92EF921F9284E6E3
:101830008F931F930F930E94741F0F900F900F9020
:101840000F900F900F90C801C858DF4F0FB6F89453
:10185000DEBF0FBECDBFDF91CF911F910F91FF90E3
:10186000EF90DF90CF900895CF93DF93EC016EE07F
:101870000E94790A8E858E7F8E876EE0CE01DF9181
:10188000CF910C94530ACF93DF93EC016EE00E944A
:10189000790A8E858D7F8E876EE0CE01DF91CF91A4
:1018A0000C94530ACF93DF93EC016FE00E94790A06
:1018B0008F858370DF91CF910895CF93DF93EC01F3
:1018C0000E94520C882319F0CE56DF4F88838091F6
:1018D0005A028C7F80935A026FE08BE492E0DF9192
:1018E000CF910C94530ACF93DF93EC0140E061E079
:1018F0000E94CF07CE010E945D0CCE010E94070816
:101900006DE0CE010E94280961E08BE20E94D704BD
:1019100060E08BE2DF91CF910C94F0041092DC0236
:1019200010925E02089561E08EE10E94D70461E0AA
:101930008FE10E94D70461E08DE10E94D70460E04E
:101940008EE10E94F00460E08FE10E94F00461E00B
:101950008DE10E94F0048CB580618CBD8CB58064F3
:101960008CBD08958CB58F7B8CBD0895811103C00B
:101970008CB5806202C08CB58F7D8CBD08959CB5FE
:10198000937F982B9CBD08952CB5982F93702C7F36
:10199000922B9CBD9DB580FB90F99DBD0895CF9382
:1019A000C62F61E08DE10E94D70461E082E20E94CF
:1019B000D70461E08DE10E94F00461E082E20E94C0
:1019C000F00480918D0590918E05A0918F05B091C6
:1019D0009005A2FF08C061E088E00E94D70461E0A2
:1019E00088E00E94F00480918D0590918E05A09171
:1019F0008F05B091900596FF08C061E089E00E94D4
:101A0000D70461E089E00E94F00480918D059091F7
:101A10008E05A0918F05B0919005A3FF08C061E0ED
:101A200082E00E94D70461E082E00E94F00480918D
:101A30008D0590918E05A0918F05B0919005A4FF22
:101A400008C061E082E20E94D70461E082E20E9465
:101A5000F004C330C9F020F4C13061F070F407C065
:101A6000C53061F1F0F0C63009F067C033C060E006
:101A70008DE160C060E082E25DC089EE92E00E948C
:101A8000AC0F60E08CE256C080918D0590918E0580
:101A9000A0918F05B0919005A2FF4FC060E088E053
:101AA00049C080918D0590918E05A0918F05B091D0
:101AB000900596FF42C060E089E03CC080918D05B2
:101AC00090918E05A0918F05B0919005A3FF35C030
:101AD00060E02FC061E08DE10E94F00461E082E2ED
:101AE0000E94F00480918D0590918E05A0918F0544
:101AF000B0919005A2FF04C061E088E00E94F0046C
:101B000080918D0590918E05A0918F05B0919005E3
:101B100096FF04C061E089E00E94F00480918D0589
:101B200090918E05A0918F05B0919005A3FF05C0FF
:101B300061E082E0CF910C94F004CF91089510926F
:101B4000DF021092DE021092E0021092E102109287
:101B5000E2021092E3020895FC01408160E072EC21
:101B600081E090E00E94A41761E087E10E94D70421
:101B700061E087E10E94F00461E08BE00E94D704FD
:101B800060E08BE00E94F00461E08DE20E94D704E7
:101B900060E08DE20C94F004DC018091C5001196A8
:101BA0008C9311978091C40012968C931297E2EC5B
:101BB000F0E0808113968C9313978091CA0014965D
:101BC0008C93149780818F7D808380818F7E80832A
:101BD0008081877F80834C9160E072EC81E090E0AF
:101BE0000E94A41761E087E10E94F00460E08BE0AE
:101BF0000C94F004CF93DF93EC0140918D0550914C
:101C00008E0560918F057091900563E070E080E033
:101C100090E042FF07C00E94CB0361E08BE00E948E
:101C2000F00402C00E94CB0389818093C5008A81A1
:101C30008093C4008B818093C2008C818093CA0002
:101C4000DF91CF910895EF92FF920F931F93CF935F
:101C5000DF938C01EB010E94CC0D7E0188E1E81A34
:101C60008CEFF80AFE0121968491882339F0F8015F
:101C700060810E949E18CE15DF05A1F7C8010E9461
:101C8000FA0D60E070E0CB01DF91CF911F910F91D1
:101C9000FF90EF9008958F929F92AF92BF92CF9254
:101CA000DF92EF92FF920F931F93CF93DF93EC019C
:101CB0006A017B01122F0E94CC0D20E030E0A901C7
:101CC000C701B6010E944D1C87FF08C068818DE2E4
:101CD0000E949E18F7FAF094F7F8F094B12C60E0A7
:101CE00070E080E09FE307C020E030E040E251E494
:101CF0000E94511CB394B112F7CF262F372F482FD3
:101D0000592FC701B6010E94E91B4B015C01792DD7
:101D10009B2D0E94BE1C6B017C010E94EA1C9B0152
:101D2000AC01682D792D8A2D9B2D0E94E81BB62EC3
:101D3000A72E982E892E08812AE030E040E050E05E
:101D4000B601C7010E94AB181123B1F168818EE280
:101D50000E949E1831C020E030E040E251E4D501FD
:101D6000F4016B2F7A2D8F2F982D0E94A01D4B010F
:101D70005C01792D9B2D0E94B91C6B01EE24D7FCD0
:101D8000E094FE2C08812AE030E040E050E0C701FA
:101D9000B6010E94AB18C701B6010E94EC1C9B0162
:101DA000AC01682D792D8A2D9B2D0E94E81BB62E43
:101DB000A72E982E892E11501111CDCFCE01DF9173
:101DC000CF911F910F91FF90EF90DF90CF90BF9038
:101DD000AF909F908F900C94FA0D2AE00C944B0ECC
:101DE000CF93DF93EC010E94CC0D88810E94A01854
:101DF000CE01DF91CF910C94FA0DEF92FF920F93E9
:101E00001F93CF93DF9300D0CDB7DEB77C010E9444
:101E1000230E8C01C70169837A830E94F00E6981C9
:101E20007A81C8010F900F90DF91CF911F910F9190
:101E3000FF90EF900895AF92BF92DF92EF92FF92E2
:101E40000F931F93CF93DF93EC01142FD52E7B01BB
:101E500059010E94CC0DA114B10429F46881812F8D
:101E60000E949E1816C08AE0A816B10439F4488171
:101E7000612F7D2DC7010E9436190BC095014427A3
:101E800037FD4095542F0881612F7D2DC7010E9499
:101E9000AB18CE01DF91CF911F910F91FF90EF9082
:101EA000DF90BF90AF900C94FA0DCF92DF92EF923B
:101EB000FF920F93CF93DF93EC016A017B010E94A5
:101EC000CC0DF7FE0CC068818DE20E949E18F09444
:101ED000E094D094C094C11CD11CE11CF11C088179
:101EE0002AE030E040E050E0C701B6010E94AB18A4
:101EF000CE01DF91CF910F91FF90EF90DF90CF90C7
:101F00000C94FA0DAB01662757FD6095762F0C9463
:101F1000550F1092E40208951F93CF93DF931F9201
:101F2000CDB7DEB7162F61E0812F49830E94D70419
:101F30004981413011F461E003C0411108C060E003
:101F4000812F0F90DF91CF911F910C94F0040F908F
:101F5000DF91CF911F91089561E087E10E94D7043E
:101F600061E084E20E94D70461E085E20E94D70428
:101F700061E087E10E94F00461E084E20E94F004E5
:101F800061E085E20C94F004CB010C94B6218F92B1
:101F90009F92AF92BF92CF92DF92EF92FF920F93F8
:101FA0001F93CF93DF93CDB7DEB7C75FD1090FB6CD
:101FB000F894DEBF0FBECDBF8E0100511F4F5801F8
:101FC00028E0A20EB11C7E0181E8E80EF11CCC24B1
:101FD000C394D12CCC0EDD1E6DE0CE018F519F4FEE
:101FE0000E940F1B40E06CE089EE92E00E948C0F93
:101FF00040E06DE089EE92E00E948C0FF8011082C3
:1020000011821282138261E08CE00E94D70461E0A9
:102010008CE00E94F004CE018F519F4F0E94AB19BB
:1020200041E06DE089EE92E00E948C0F6AE070E082
:1020300080E090E00E94CB0340E063E3CE018F514B
:102040009F4F0E947C1A62E370E080E090E00E9463
:10205000CB034701CE018F519F4F0E94511AF2E0EE
:102060008F1A9108F4018083118261E070E080E0B2
:1020700090E00E94CB038C149D0461F7FE017196E1
:10208000D701C60180599F4F219131912D933D93E6
:10209000E817F907C9F731EE832E912C8C0E9D1E9F
:1020A00081E090E0A0E0B0E0F401329122914F0194
:1020B0002130310569F4F8014081518162817381D9
:1020C000480F591F6A1F7B1F4083518362837383AC
:1020D000880F991FAA1FBB1F8E149F0429F7F801B0
:1020E00080819181A281B3818F3F9F4FAF4FBF4FBE
:1020F00029F4F801108211821282138260E08CE0D0
:102100000E94F00440E06CE089EE92E00E948C0FA7
:1021100040E06DE089EE92E00E948C0F0C5F1F4F53
:102120000A151B0509F058CFC051DF4F08811981EE
:102130002A813B81C05FD040CC50DF4F888199819C
:10214000AA81BB81C45FD040081719072A073B0743
:1021500019F000E010E09801B801C901C950DF4F43
:102160000FB6F894DEBF0FBECDBFDF91CF911F91A8
:102170000F91FF90EF90DF90CF90BF90AF909F9026
:102180008F900895CF92DF92EF92FF920E94C70F37
:102190006B017C01611571058105910591F483EE58
:1021A00090E00E94BE216A302AE0720782079207FF
:1021B00041F06F3F2FEF72078207920711F06B011A
:1021C0007C01B601C701FF90EF90DF90CF9008959A
:1021D000AF92BF92DF92EF92FF920F931F93CF9334
:1021E000DF93CDB7DEB7A3970FB6F894DEBF0FBE6F
:1021F000CDBF162FD42E442361F040E060E089E487
:1022000092E00E9498066AE070E080E090E00E9410
:10221000CB03612FCE0101960E940F1BBE01645EAD
:102220007F4FCE0101960E942D1B811105C0CE016A
:1022300001960E94021B62C067E0CE014C960E948C
:10224000B71B9BA189135AC08C8D803119F088323D
:1022500009F054C08E010F5F1F4FC8010E94691919
:10226000BE01645E7F4FC8010E94DA1A40E064E458
:10227000C8010E947C1A6EEE72E080E090E00E943D
:10228000CB03C8010E946919BE01645E7F4FC8017B
:102290000E94DA1A40E06EEBC8010E947C1A7E01AF
:1022A00080E1E80EF11C5E01E9E1AE0EB11CC8014F
:1022B0000E94BE1AF70181937F01EA15FB05B9F769
:1022C000C8010E94021B798960E08889682B8827F1
:1022D00077FD8095982F0E94EC1C20E030E040E8CC
:1022E0005DE30E94A01D7B018C01DD2059F041E0DF
:1022F00060E089E492E00E94980604C0E12CF12C91
:102300000AE714EC6E2D7F2D802F912FA3960FB628
:10231000F894DEBF0FBECDBFDF91CF911F910F911B
:10232000FF90EF90DF90BF90AF90089541E00C9444
:10233000E8108FED90E00E94B6218F3F09F480E015
:102340000895CF93DF93EC0180E2E8E1F3E0DF0151
:10235000982F1D929A95E9F7109217031092160381
:10236000E5EFF2E0DF011D928A95E9F71092F402A1
:102370001092F3020E944B1381E08E8384E090E080
:10238000DF91CF910C94F50381E08093F20260938A
:1023900015031092F4021092F30208950C94C411E4
:1023A0008091160390911703891B0895909117034C
:1023B00080911603981748F4E92FF0E0E85EFC4F8F
:1023C00080819F5F90931703089580E00895CF93D5
:1023D000DF93EC010E9497131E82DF91CF91089545
:1023E00040918D0550918E0560918F0570919005FB
:1023F0004170FC01408340918D0550918E056091A4
:102400008F05709190057695679557954795417022
:10241000418380918D0590918E05A0918F05B0919B
:10242000900584FD49C080918D0590918E05A09105
:102430008F05B091900585FD3FC080918D059091ED
:102440008E05A0918F05B091900586FD35C08091D5
:102450008D0590918E05A0918F05B091900587FD17
:102460002BC080918D0590918E05A0918F05B09124
:10247000900590FD21C080918D0590918E05A091D1
:102480008F05B091900591FD17C080918D059091B9
:102490008E05A0918F05B091900593FD0DC0089514
:1024A00040E060E089E492E00E94980640E061E04C
:1024B00089E492E00C9498068091F102882381F3DC
:1024C0000895CF93DF93EC0180918D0590918E0557
:1024D000A0918F05B091900584FD58C080918D0525
:1024E00090918E05A0918F05B091900585FD4EC00D
:1024F00080918D0590918E05A0918F05B0919005EA
:1025000086FD44C080918D0590918E05A0918F0528
:10251000B091900587FD3AC080918D0590918E0510
:10252000A0918F05B091900590FD30C040918D0530
:1025300050918E0560918F057091900551FD26C0D8
:1025400040918D0550918E0560918F057091900599
:1025500053FD1CC020C041E060E089E492E00E948D
:1025600098060CC08981811106C041E060E089E4D1
:1025700092E00E949806888181110DC041E061E0DF
:1025800089E492E0DF91CF910C9498068091F1025A
:102590008111E8CFE0CFDF91CF910895CF93DF9302
:1025A0001F92CDB7DEB769838091F202882389F04C
:1025B0008091F3028032D0F48091F402E82FF0E0B1
:1025C000EB50FD4F60838F5F8093F4028093F302A2
:1025D0000DC08AEE92E00E94F01161E0CE010196FA
:1025E0000E9478138AEE92E00E9461120F90DF91B0
:1025F000CF9108950C94CE12CF938AEE92E00E9470
:10260000F01121E04091F30265EF72E08091150333
:102610000E943B14C82F1092F4021092F302109201
:10262000F2028AEE92E00E9461128C2FCF910895FF
:10263000CF93DF93D62FC42F8AEE92E00E94F01141
:10264000C13208F0C0E24C2F68E173E08D2F0E9488
:10265000A014D82F10921703C09316038AEE92E0AD
:102660000E9461128D2FDF91CF9108950C94181361
:102670001092F1021092EA021092EB028AEF90E0BF
:10268000A0E0B0E08093EC029093ED02A093EE0204
:10269000B093EF02089510924103E4E6F0E08081E8
:1026A0008F778083589A599AE9EBF0E080818E7F8A
:1026B000808380818D7F808381E48093B80085E46E
:1026C0008093BC0080E2E2E4F3E0DF01982F1D92EA
:1026D0009A95E9F7E2E6F3E0DF01982F1D929A95CB
:1026E000E9F7E2E8F3E0DF011D928A95E9F7089542
:1026F000613298F420914103243089F460933E03C1
:10270000FC0182E693E0DC0102C021912D932A2F87
:10271000281B2617D0F380E0089581E0089582E019
:10272000089585EC8093BC00109241030895589859
:1027300059988091B90081608093B9008091B90067
:1027400082608093B9008091BC0080688093BC0057
:102750008091BC0080618093BC008091BC008F7B25
:102760008093BC008091BC008F7D8093BC008091E1
:10277000BC00877F8093BC0080918D0590918E0571
:10278000A0918F05B091900586FD14C080918D05B4
:1027900090918E05A0918F05B091900590FD0AC093
:1027A00080918D0590918E05A0918F05B091900537
:1027B00093FF04C08091BC008B7F03C08091BC005C
:1027C00084608093BC008091BC008E7F8093BC00AD
:1027D000809164008068809364000895882349F0A4
:1027E000109238031092390310923A0310923B036F
:1027F00013C08091380390913903A0913A03B091AE
:102800003B030196A11DB11D8093380390933903BA
:10281000A0933A03B0933B0380913803909139031E
:10282000A0913A03B0913B03803A9648A140B1058C
:1028300060F0109238031092390310923A0310920C
:102840003B030E944B1381E0089580E0089585EDDD
:102850008093BC0081E00E94EE1308C080E00E94DB
:10286000EE13882319F01092410308958091BC0063
:1028700084FDF4CFF8CFFF920F931F93CF93DF9394
:10288000182F062FF72EC42FD22F81E0413208F0E7
:1028900051C00E94EE1315C080E00E94EE13882301
:1028A00081F082E0809341038FEF80933C0310928C
:1028B0004003C093A203E02FFF2D62E473E0DB012D
:1028C00007C0809141038111E7CFEBCF81918D93B8
:1028D0008A2F861B8C17D0F3812F90E0880F991FC9
:1028E0008093A30385EE8093BC0081E00E94EE13E9
:1028F000D11105C080913C038F3F59F414C08091E1
:1029000041038230B9F780E00E94EE1381110DC0BF
:10291000F6CF80913C03803251F080913C038033AC
:1029200041F483E007C080E005C085E003C082E099
:1029300001C084E0DF91CF911F910F91FF90089526
:102940000F931F93CF93DF93082FD62F172FC42FEA
:1029500081E04132E0F50E94EE131DC080E00E944C
:10296000EE138823C1F081E0809341038FEF8093C1
:102970003C0310924003C093A203802F90E0880F85
:10298000991F81608093A30385EE8093BC0081E052
:102990000E94EE1310C0809141038111DFCFE3CF7D
:1029A00080E00E94EE13882331F082E493E0ED2F63
:1029B000F12FDC0107C080914103813089F3F5CF0D
:1029C0002D9121932A2F281B2C17D0F380E0DF9123
:1029D000CF911F910F9108951F920F920FB60F92F2
:1029E00011240BB60F922F933F934F935F936F93E6
:1029F0007F938F939F93AF93BF93CF93EF93FF9367
:102A0000C091B900C87FC03609F49FC058F5C832DC
:102A100009F45BC090F4C03109F452C038F4CC23FF
:102A200009F4F2C0C83009F0F3C04AC0C83109F453
:102A30004CC0C03209F0ECC05DC0C03409F473C0B2
:102A400038F4C03309F45BC0C83309F0E1C05AC0A0
:102A5000C03509F45CC0C83509F46AC0C83409F04F
:102A6000D7C0D4C0C83909F4C5C0A8F4C83709F420
:102A70006CC038F4C83609F468C0C03709F0C8C063
:102A800064C0C83809F4B6C0C03909F464C0C0389D
:102A900009F0BEC060C0C03B09F484C038F4C03A3D
:102AA00009F46BC0C83A09F0B3C07CC0C03C09F45B
:102AB000A5C0C83C09F4A2C0C83B09F0A9C087C0A2
:102AC0008091A3038093BB0013C090914003809139
:102AD000A203981708F09AC080914003E82FF0E015
:102AE000EE5BFC4F90819093BB008F5F809340031F
:102AF00085EC81C00E942714C0933C0389C0C09319
:102B00003C0384C0C0933C030E94911381C0809118
:102B100040039091BB00E82FF0E0EE5BFC4F908308
:102B20008F5F80934003909140038091A2035FC028
:102B3000809140039091BB00E82FF0E0EE5BFC4FEA
:102B400090838F5F8093400361C083E08093410353
:102B500010923D03CDCF80913D03803208F04AC0F2
:102B600080913D039091BB00E82FF0E0EE57FC4FC1
:102B700090838F5F80933D03BBCF80913D03803274
:102B800030F4E0913D03F0E0EE57FC4F108260918D
:102B90003D03E091A403F091A50370E082E893E087
:102BA00009952CC084E08093410310923F0310925A
:102BB0003E03E091A603F091A703099580913E039F
:102BC000811105C081E080933E03109262038091E1
:102BD0003F03E82FF0E0EE59FC4F90819093BB004B
:102BE0008F5F80933F0390913F0380913E0398173E
:102BF00008F47ECF85E88093BC000AC085EC809302
:102C0000BC001092410304C010923C030E942714A0
:102C1000FF91EF91CF91BF91AF919F918F917F9154
:102C20006F915F914F913F912F910F900BBE0F903D
:102C30000FBE0F901F9018951F920F920FB60F9214
:102C400011240BB60F922F933F934F935F936F9383
:102C50007F938F939F93AF93BF93EF93FF93809155
:102C6000A8039091A903892B29F0E091A803F09182
:102C7000A9030995FF91EF91BF91AF919F918F911A
:102C80007F916F915F914F913F912F910F900BBE6C
:102C90000F900FBE0F901F9018951F920F920FB6B6
:102CA0000F9211240BB60F922F933F934F935F9384
:102CB0006F937F938F939F93AF93BF93EF93FF9304
:102CC0008091AA039091AB03892B29F0E091AA038C
:102CD000F091AB030995FF91EF91BF91AF919F9157
:102CE0008F917F916F915F914F913F912F910F90B5
:102CF0000BBE0F900FBE0F901F9018951F920F9252
:102D00000FB60F9211240BB60F922F933F934F9350
:102D10005F936F937F938F939F93AF93BF93EF9343
:102D2000FF938091AC039091AD03892B29F0E09142
:102D3000AC03F091AD030995FF91EF91BF91AF9175
:102D40009F918F917F916F915F914F913F912F91C3
:102D50000F900BBE0F900FBE0F901F9018951F92F3
:102D60000F920FB60F9211240BB60F922F933F9331
:102D70004F935F936F937F938F939F93AF93BF9383
:102D8000EF93FF938091AE039091AF03892B29F0CD
:102D9000E091AE03F091AF030995FF91EF91BF91E0
:102DA000AF919F918F917F916F915F914F913F91E3
:102DB0002F910F900BBE0F900FBE0F901F90189584
:102DC0001F920F920FB60F9211240BB60F922F93F2
:102DD0003F934F935F936F937F938F939F93AF93A3
:102DE000BF93EF93FF938091B0039091B103892B30
:102DF00029F0E091B003F091B1030995FF91EF91B3
:102E0000BF91AF919F918F917F916F915F914F9102
:102E10003F912F910F900BBE0F900FBE0F901F9000
:102E200018951F920F920FB60F9211240BB60F92A6
:102E30002F933F934F935F936F937F938F939F93C2
:102E4000AF93BF93EF93FF938091B2039091B3033D
:102E5000892B29F0E091B203F091B3030995FF911A
:102E6000EF91BF91AF919F918F917F916F915F9102
:102E70004F913F912F910F900BBE0F900FBE0F906F
:102E80001F9018951F920F920FB60F9211240BB638
:102E90000F922F933F934F935F936F937F938F93F3
:102EA0009F93AF93BF93EF93FF938091B40390915F
:102EB000B503892B29F0E091B403F091B50309958E
:102EC000FF91EF91BF91AF919F918F917F916F9102
:102ED0005F914F913F912F910F900BBE0F900FBEBE
:102EE0000F901F9018951F920F920FB60F921124FA
:102EF0000BB60F922F933F934F935F936F937F93F4
:102F00008F939F93AF93BF93EF93FF938091B603FB
:102F10009091B703892B29F0E091B603F091B703A4
:102F20000995FF91EF91BF91AF919F918F917F9103
:102F30006F915F914F913F912F910F900BBE0F902A
:102F40000FBE0F901F901895CF92DF92EF92FF92D5
:102F50006B017C01411134C088E00E947204C701FA
:102F6000B60122E030E040E050E00E946C1E305F8D
:102F7000414F5F4FCA01B901A70196010E946C1E23
:102F8000DA01C9010197A109B109892F9A2FAB2F45
:102F9000BB27A7FDBA958093C50021502093C4009C
:102FA0008091C10080618093C1008091C1008860E0
:102FB0008093C1008091C10080688093C10033C0BC
:102FC00080E10E947204C701B60122E030E040E0D7
:102FD00050E00E946C1E305F414F5F4FCA01B90143
:102FE000A70196010E946C1EDA01C9010197A1098F
:102FF000B109892F9A2FAB2FBB27A7FDBA958093D4
:10300000CD0021502093CC008091C9008061809335
:10301000C9008091C90088608093C9008091C9006F
:1030200080688093C900FF90EF90DF90CF90089563
:10303000611107C09091C00095FFFCCF8093C6003E
:1030400008959091C80095FFFCCF8093CE0008951D
:103050001F920F920FB60F9211242F933F934F930D
:103060005F936F937F938F939F93AF93BF93EF93F0
:10307000E091C6002091BE033091BF03C9010196C3
:1030800060E072E00E94361E4091BC035091BD0387
:103090008417950741F0D901A156B84FEC9390934E
:1030A000BF038093BE03EF91BF91AF919F918F912A
:1030B0007F916F915F914F913F912F910F900FBE34
:1030C0000F901F9018951F920F920FB60F92112418
:1030D0002F933F934F935F936F937F938F939F9320
:1030E000AF93BF93EF93E091CE002091BA0330915C
:1030F000BB03C901019660E072E00E94361E409158
:10310000B8035091B9038417950741F0D901A1562E
:10311000BA4FEC939093BB038093BA03EF91BF91A6
:10312000AF919F918F917F916F915F914F913F915F
:103130002F910F900FBE0F901F9018950C94181898
:10314000CF93C82F682F8DE00E9418186C2F8AE04B
:10315000CF910C9418184F925F926F927F928F923A
:103160009F92AF92BF92CF92DF92EF92FF920F9316
:10317000CF93DF93CDB7DEB7A0970FB6F894DEBF3D
:103180000FBECDBF29013A01611571058105910579
:10319000C9F4602F80E3A0960FB6F894DEBF0FBE8F
:1031A000CDBFDF91CF910F91FF90EF90DF90CF9047
:1031B000BF90AF909F908F907F906F905F904F9057
:1031C0000C941818EE24E394F12CEC0EFD1E812CC7
:1031D000912C5401A30192010E944A1EF7016193B0
:1031E0007F01FFEF8F1A9F0AAF0ABF0AB901CA0118
:1031F000611571058105910569F7CC24CA94DC2C11
:103200007601C80CD91CEA1CFB1C14C0E1E0F0E0FC
:10321000EC0FFD1FEC0DFD1D80818A3010F4805DE8
:1032200001C0895C602F0E94181881E0C81AD1087B
:10323000E108F108EFEFCE16DE06EE06FE0631F7E6
:10324000A0960FB6F894DEBF0FBECDBFDF91CF9131
:103250000F91FF90EF90DF90CF90BF90AF909F9035
:103260008F907F906F905F904F900895CF92DF92F4
:10327000EF92FF920F936B017C01042F97FF0CC01C
:10328000642F8DE20E941818F094E094D094C094BA
:10329000C11CD11CE11CF11C2AE030E040E050E0F0
:1032A000C701B6010E94AB180F91FF90EF90DF901D
:1032B000CF9008951092C50382E08093C1038CE102
:1032C0008093C60380EC91E09093C8038093C7037A
:1032D0000895FF920F931F93CF93DF93FC0110810A
:1032E000C181D281F8948981012F0095802389833F
:1032F00078948DE7F82EFA9431F182E090E00E9404
:10330000F50388818123B9F3F8948A8180238A8325
:103310008981812B898378948AE991E00E94F50361
:10332000F8948981802389838CE390E00E94F503DF
:1033300088818123C1E009F0C0E078948DE591E0B7
:103340000E94F50301C0C0E08C2FDF91CF911F9147
:103350000F91FF900895CF92DF92EF92FF921F930B
:10336000CF93DF93EC0160E08E850E94D7040E942A
:1033700079036B017C011EE7115089F182E090E036
:103380000E94F5030E9479036C157D058E059F054B
:1033900020F40E9479036B017C018E850E94360522
:1033A000892BF9F40E9479036C197D098E099F0914
:1033B000643F714081059105F8F213C00E947903C2
:1033C0006B017C011130C1F10E9479036C197D09F8
:1033D0008E099F09643F714081059105D0F010E08E
:1033E0002BC061E08E850E94D70460E08E850E942C
:1033F000F00484E591E00E94F5030E9479036B01DB
:103400007C018E850E94360511E0892BD9F210E0EF
:10341000D9CF8E850E94360511E0892B09F010E086
:1034200089E090E00E94F5030E9479036C157D0508
:103430008E059F0538F6C2CF812FDF91CF911F9166
:10344000FF90EF90DF90CF9008951F93CF93DF937D
:10345000FC011081C181D281912F9095F8948A81CD
:1034600089238A838981812B898360FF0BC089E04E
:1034700090E00E94F5038A81812B8A8378948FE201
:1034800090E00AC087E390E00E94F5038A81812BD7
:103490008A83789485E090E0DF91CF911F910C941E
:1034A000F5030F931F93CF93DF93FC011081C1812C
:1034B000D281F8948981812B89838A81012F00959B
:1034C00080238A8382E090E00E94F5038981802333
:1034D000898387E090E00E94F503C88178948DE2AB
:1034E00090E00E94F5031C2381E009F480E0DF9165
:1034F000CF911F910F910895CF92DF92EF92FF929B
:103500000F931F93CF93DF931F92CDB7DEB76C015C
:10351000E62E08E010E0FF24F3949F2D9E2161E049
:1035200009F460E0C60149830E94251AFF0C01508E
:10353000110949810115110581F7411115C0F89450
:10354000D6011196ED91FC91129791818C91809505
:10355000892381831196ED91FC91129792818C9130
:1035600080958923828378940F90DF91CF911F916A
:103570000F91FF90EF90DF90CF900895EF92FF9220
:103580000F931F93CF93DF938C01C8E0D0E0F12C11
:10359000EE24E394C8010E94511A8111FE28EE0C1A
:1035A0002197C1F78F2DDF91CF911F910F91FF9040
:1035B000EF900895CF92DF92FF920F931F93CF93D6
:1035C000DF931F92CDB7DEB78C01F62E40E065E5A4
:1035D00079830E947C1ACF2C7981D72E98E0F92E1E
:1035E000F60161916F0140E0C8010E947C1AFA94D3
:1035F000B9F70F90DF91CF911F910F91FF90DF905E
:10360000CF900895FC0113861586148612861186C4
:103610001086178216821582148213820895CF9322
:10362000DF93EC01862F6E8760E00E94D7048E85C1
:1036300090E0FC01EE59FC4FE491E883FC01EB566D
:10364000FC4FE491F0E0E853FC4FE491E9831A82E7
:10365000CE01DF91CF910C94021BBF92CF92DF92EB
:10366000EF92FF920F931F93CF93DF93EC01C62E3F
:10367000B72E8D85811156C0CE010E946919811126
:1036800004C01B861D861C8668C040E060EFCE012A
:103690000E947C1A01E0F12CE12C11E0CE010E9485
:1036A000511AD82ECE010E94511A91E0D91203C0AE
:1036B0008130A1F42FC0D81219C08B85181738F4A7
:1036C000FE01EF0DF11D8381802341F402C0181724
:1036D00029F060E01930D0F51C8738C0FE01EF0DED
:1036E000F11D8381802B838361E009C06D2DFE0174
:1036F000EF0DF11D202F2095938192239383CE010E
:103700000E94251A1F5F000F11F4F39401E087E077
:103710008F1520F6113430F0EB86E11019C081E0EE
:103720008D8716C01B861D861C8680E0EC2DFB2D28
:1037300020E030E0DE01A20FB31F13969C9191931D
:103740002F5F3F4F28303105A9F707C0E12ECFCFBB
:103750008B81882339F381E0E9CFDF91CF911F91ED
:103760000F91FF90EF90DF90CF90BF900895FC01F4
:1037700080E00FC0419198E0282F30E035952795E3
:10378000842780FF02C08CE82827822F469591501D
:1037900099F7615078F70895FC01128A118E138E03
:1037A000DC01A356BE4F89E111968C9311971496B4
:1037B0001C92DF01AE55BE4F1C9212961C92E95628
:1037C000FE4F11821082089589EC93E00C94CC1B7B
:1037D0005058BB27AA270ED075C166D130F06BD1E7
:1037E00020F031F49F3F11F41EF45BC10EF4E0951C
:1037F000E7FB51C1E92F77D180F3BA17620773074E
:103800008407950718F071F49EF58FC10EF4E095CA
:103810000B2EBA2FA02D0B01B90190010C01CA018A
:10382000A0011124FF27591B99F0593F50F4503E35
:1038300068F11A16F040A22F232F342F4427585F27
:10384000F3CF469537952795A795F0405395C9F73F
:103850007EF41F16BA0B620B730B840BBAF09150F7
:10386000A1F0FF0FBB1F661F771F881FC2F70EC096
:10387000BA0F621F731F841F48F487957795679569
:10388000B795F7959E3F08F0B3CF9395880F08F052
:103890009927EE0F979587950895D9D008F481E080
:1038A00008950CD00FC107D140F0FED030F021F4C4
:1038B0005F3F19F0F0C0511139C1F3C014D198F332
:1038C0009923C9F35523B1F3951B550BBB27AA27A1
:1038D00062177307840738F09F5F5F4F220F331F13
:1038E000441FAA1FA9F333D00E2E3AF0E0E830D0DF
:1038F00091505040E695001CCAF729D0FE2F27D0E2
:10390000660F771F881FBB1F261737074807AB07AF
:10391000B0E809F0BB0B802DBF01FF2793585F4F24
:103920002AF09E3F510568F0B6C000C15F3FECF33E
:10393000983EDCF3869577956795B795F7959F5FE9
:10394000C9F7880F911D9695879597F90895E1E03D
:10395000660F771F881FBB1F621773078407BA079C
:1039600020F0621B730B840BBA0BEE1F88F7E095F7
:10397000089504D06894B111D9C00895BCD088F0DE
:103980009F5790F0B92F9927B751A0F0D1F0660F4B
:10399000771F881F991F1AF0BA95C9F712C0B13066
:1039A00081F0C3D0B1E00895C0C0672F782F882779
:1039B000B85F39F0B93FCCF3869577956795B395A5
:1039C000D9F73EF490958095709561957F4F8F4F14
:1039D0009F4F0895E89409C097FB3EF49095809519
:1039E000709561957F4F8F4F9F4F9923A9F0F92FC5
:1039F00096E9BB279395F695879577956795B79543
:103A0000F111F8CFFAF4BB0F11F460FF1BC06F5F28
:103A10007F4F8F4F9F4F16C0882311F096E911C03A
:103A2000772321F09EE8872F762F05C0662371F05B
:103A300096E8862F70E060E02AF09A95660F771F6F
:103A4000881FDAF7880F9695879597F90895990F4B
:103A50000008550FAA0BE0E8FEEF16161706E80758
:103A6000F907C0F012161306E407F50798F0621B79
:103A7000730B840B950B39F40A2661F0232B242B4E
:103A8000252B21F408950A2609F4A140A6958FEF6D
:103A9000811D811D089597F99F6780E870E060E0BF
:103AA00008959FEF80EC089500240A9416161706D7
:103AB00018060906089500240A941216130614061F
:103AC00005060895092E0394000C11F4882352F082
:103AD000BB0F40F4BF2B11F460FF04C06F5F7F4F3A
:103AE0008F4F9F4F089557FD9058440F551F59F021
:103AF0005F3F71F04795880F97FB991F61F09F3FDB
:103B000079F087950895121613061406551FF2CF03
:103B10004695F1DF08C0161617061806991FF1CF53
:103B200086957105610508940895E894BB2766277A
:103B30007727CB0197F908958ADF08F48FEF08956E
:103B40000BD0C0CFB1DF28F0B6DF18F0952309F015
:103B5000A2CFA7CF1124EACFC6DFA0F3959FD1F360
:103B6000950F50E0551F629FF001729FBB27F00D2B
:103B7000B11D639FAA27F00DB11DAA1F649F662780
:103B8000B00DA11D661F829F2227B00DA11D621FCF
:103B9000739FB00DA11D621F839FA00D611D221F89
:103BA000749F3327A00D611D231F849F600D211D6D
:103BB000822F762F6A2F11249F5750408AF0E1F010
:103BC00088234AF0EE0FFF1FBB1F661F771F881F59
:103BD00091505040A9F79E3F510570F05CCFA6CFA1
:103BE0005F3FECF3983EDCF3869577956795B79544
:103BF000F795E7959F5FC1F7FE2B880F911D96956E
:103C0000879597F90895A29FB001B39FC001A39F24
:103C100001D0B29F700D811D1124911D08950E9445
:103C2000031EA59F900DB49F900DA49F800D911D24
:103C300011240895B7FF0C940F1E0E940F1E821BC3
:103C4000930B0895AA1BBB1B51E107C0AA1FBB1F02
:103C5000A617B70710F0A61BB70B881F991F5A9518
:103C6000A9F780959095BC01CD01089597FB072E8B
:103C700016F4009407D077FD09D00E94221E07FC9D
:103C800005D03EF4909581959F4F0895709561956C
:103C90007F4F0895A1E21A2EAA1BBB1BFD010DC088
:103CA000AA1FBB1FEE1FFF1FA217B307E407F507EC
:103CB00020F0A21BB30BE40BF50B661F771F881FC8
:103CC000991F1A9469F760957095809590959B015E
:103CD000AC01BD01CF010895052E97FB16F40094A9
:103CE00007D057FD0DD00E944A1E07FC09D07EF474
:103CF00090958095709561957F4F8F4F9F4F089558
:103D000050954095309521953F4F4F4F5F4F089507
:103D1000689401C0E8948F929F92CF93DF930E94A2
:103D2000961EDF91CF919F908F90089588249924BB
:103D3000F401E401B0E49F93AA279A158B049C0434
:103D4000ED05FE05CF05D007A10798F4AD2FDC2FB8
:103D5000CF2FFE2FE92D982C892E982F872F762F85
:103D6000652F542F432F322F2227B85031F7BF91A0
:103D700027C01B2EBF91BB27220F331F441F551F87
:103D8000661F771F881F991F881C991CEE1FFF1F35
:103D9000CC1FDD1FAA1FBB1F8A149B04EC05FD0569
:103DA000CE05DF05A007B10748F08A189B08EC098B
:103DB000FD09CE09DF09A00BB10B21601A94E1F6D1
:103DC0002EF49401AF01BE01CD01000C08950F93B4
:103DD0000F7351F0220F331F441F551F661F771FAB
:103DE000881F991F0A95B1F70F9108952A0D3B1D61
:103DF0004C1D5D1D6E1D7F1D801F911F0895079036
:103E0000F691E02D09948F929F92AF92BF92CF923C
:103E1000DF92EF92FF92CF93DF93EC01688179817B
:103E20008A819B81611571058105910521F464E208
:103E300079ED8BE597E02DE133EF41E050E00E9412
:103E40006C1E49015A019B01AC01A7EAB1E40E9432
:103E50000F1E6B017C01ACEEB4EFA50194010E9432
:103E60001D1EC60ED71EE81EF91EF7FE06C081E015
:103E7000C81AD108E10880E8F80AC882D982EA8223
:103E8000FB82E894D7F8EE24FF24C601DF91CF919E
:103E9000FF90EF90DF90CF90BF90AF909F908F906A
:103EA00008950C94031F86E092E00C94031FA0E099
:103EB000B0E08093060290930702A0930802B093AB
:103EC00009020895FB01DC0105900D920020E1F745
:103ED0000895FB01DC010D900020E9F71197019096
:103EE0000D920020E1F708950F931F93CF93DF9376
:103EF000CDB7DEB72E970FB6F894DEBF0FBECDBF9D
:103F00000D891E898F89988D26E02C831A83098359
:103F100097FF02C080E090E801979E838D83CE01D9
:103F20004B96AC01698D7A8DCE0101960E94B11F2E
:103F30004D815E8157FD0AC02F8138854217530796
:103F40000CF49A01F801E20FF31F10822E960FB6BF
:103F5000F894DEBF0FBECDBFDF91CF911F910F91BF
:103F600008952F923F924F925F926F927F928F921D
:103F70009F92AF92BF92CF92DF92EF92FF920F93F8
:103F80001F93CF93DF93CDB7DEB72C970FB6F8947E
:103F9000DEBF0FBECDBF7C016B018A01FC01178221
:103FA0001682838181FFC6C188248394912C8C0E54
:103FB0009D1EF7019381F60193FD859193FF8191F9
:103FC0006F01882309F4B2C1853239F493FD8591DC
:103FD00093FF81916F01853229F4B70190E00E942F
:103FE000E821E7CF512C312C20E02032A8F48B328D
:103FF00061F028F4803251F0833271F40BC08D32BD
:1040000039F0803349F4216028C02260246025C043
:10401000286023C0206121C027FD27C0382F3053DE
:104020003A3078F426FF06C0FAE05F9E300D112486
:10403000532E13C08AE0389E300D1124332E206297
:104040000CC08E3221F426FD71C1206406C08C366E
:1040500011F4206802C0883641F4F60193FD859181
:1040600093FF81916F018111C0CF982F95549330A8
:1040700018F09052933028F40C5F1F4FFFE3F98340
:104080000DC0833631F0833771F0833509F05EC09F
:1040900023C0F801808189830E5F1F4F442443941D
:1040A000512C540115C03801F2E06F0E711CF8015B
:1040B000A080B18026FF03C0652D70E002C06FEFC5
:1040C0007FEFC5012C870E94DD212C0183012C8507
:1040D0006FE7262E222218C03801F2E06F0E711C05
:1040E000F801A080B18026FF03C0652D70E002C0FA
:1040F0006FEF7FEFC5012C870E94D2212C012C8508
:1041000050E8252E222A830123FC1CC006C0B701DB
:1041100080E290E00E94E8213A94832D90E04816D6
:104120005906A8F30FC0F50127FC859127FE819160
:104130005F01B70190E00E94E82131103A94F1E06C
:104140004F1A51084114510471F7EDC0843611F033
:10415000893641F5F80127FF07C0608171818281AE
:1041600093810C5F1F4F08C060817181882777FDA4
:104170008095982F0E5F1F4F4FE6B42EB22297FF07
:1041800009C090958095709561957F4F8F4F9F4F97
:10419000F0E8BF2A2AE030E0A4010E941422A82EF1
:1041A000A81843C0853731F43FEEB32EB2222AE07F
:1041B00030E024C099EFB92EB2228F36B9F020F446
:1041C000883509F0B3C00DC0803721F0883709F079
:1041D000ADC002C020E1B22AB4FE0BC084E0B82A10
:1041E00008C024FF09C0E6E0BE2A06C028E030E08F
:1041F00005C020E130E002C020E132E0F801B7FE66
:1042000007C060817181828193810C5F1F4F06C05E
:104210006081718180E090E00E5F1F4FA4010E94D9
:104220001422A82EA818FFE7BF22B6FE0BC02B2D24
:104230002E7FA51450F4B4FE0AC0B2FC08C02B2D8A
:104240002E7E05C07A2C2B2D03C07A2C01C0752C34
:1042500024FF0DC0FE01EA0DF11D8081803311F4B1
:10426000297E09C022FF06C07394739404C0822F74
:10427000867809F0739423FD14C020FF0FC05A2CD8
:10428000731460F4530C5718732C08C0B70180E204
:1042900090E02C870E94E82173942C857314B0F36E
:1042A00004C0731410F4371801C0312C24FF12C05D
:1042B000B70180E390E02C870E94E8212C8522FF43
:1042C0001EC021FF03C088E590E002C088E790E0AF
:1042D000B7010CC0822F867891F021FD02C080E2E8
:1042E00001C08BE227FD8DE2B70190E00E94E8213A
:1042F00006C0B70180E390E00E94E8215A94A5141B
:10430000C0F3AA94F401EA0DF11DB701808190E099
:104310000E94E821A110F5CF06C0B70180E290E02D
:104320000E94E8213A943110F8CF43CEF70126815C
:10433000378102C02FEF3FEFC9012C960FB6F894DA
:10434000DEBF0FBECDBFDF91CF911F910F91FF90C8
:10435000EF90DF90CF90BF90AF909F908F907F9025
:104360006F905F904F903F902F900895F999FECFF6
:1043700092BD81BDF89A992780B50895A6E1B0E075
:1043800044E050E00C947422262FF999FECF1FBA16
:1043900092BD81BD20BD0FB6F894FA9AF99A0FBE6E
:1043A00001960895FC010590615070400110D8F706
:1043B000809590958E0F9F1F0895FC01615070406D
:1043C00001900110D8F7809590958E0F9F1F08954A
:1043D0000F931F93CF93DF938C01EB018B8181FDB2
:1043E00003C00FEF1FEF1AC082FF0DC02E813F8167
:1043F0008C819D812817390764F4E881F981019344
:10440000F983E88306C0E885F985802F0995892B13
:1044100041F78E819F8101969F838E83C801DF9132
:10442000CF911F910F910895FA01AA27283051F1D9
:10443000203181F1E8946F936E7F6E5F7F4F8F4FD5
:104440009F4FAF4FB1E03ED0B4E03CD0670F781F34
:10445000891F9A1FA11D680F791F8A1F911DA11D19
:104460006A0F711D811D911DA11D20D009F4689452
:104470003F912AE0269F11243019305D3193DEF6FA
:10448000CF010895462F4770405D4193B3E00FD0B0
:10449000C9F7F6CF462F4F70405D4A3318F0495D9B
:1044A00031FD4052419302D0A9F7EACFB4E0A6957E
:1044B0009795879577956795BA95C9F700976105A0
:1044C000710508959B01AC010A2E069457954795F6
:1044D00037952795BA95C9F7620F731F841F951FEB
:1044E000A01D0895DC01CB01FC01F999FECF06C0A7
:1044F000F2BDE1BDF89A319600B40D9241505040A2
:08450000B8F70895F894FFCF0D
:1045080000009F092000010000000153756E004D56
:104518006F6E0054756500576564005468750046F1
:1045280072690053617400496E76616C6964204752
:104538004D542076616C7565003A3A3A3A3A3A0039
:00000001FF
