:100000000C9414040C9406300C9437300C94683023
:100010000C9499300C94CA300C94FB300C942C3115
:100020000C945D310C9443040C9443040C944304ED
:100030000C94A8090C9443040C9443040C94040AF3
:100040000C9443040C9443040C9443040C94430414
:100050000C9443040C9443040C9443040C94DF0963
:100060000C9443040C94210D0C9443040C9443040D
:100070000C9443040C9443040C9443040C944304E4
:100080000C9443040C9443040C9443040C944304D4
:100090000C945C0D0C9443040C9443040C94780869
:1000A0000C9443040C9443040C9443040C944304B4
:1000B0000C9443040C9443040C9443040C944304A4
:1000C0000C9443040C9443040C94430454696D65EC
:1000D000204D6573686C69756D3A20000A77616B15
:1000E00065207570002D2D2D2D2D2D2D2D2D2D2DB7
:1000F0002D2D2D2D2D2D2D2D2D2D005254432049EC
:100100004E54206361707475726564002D2D2D2D21
:100110002D2D2D2D2D2D2D2D2D2D2D2D2D2D2D2D0F
:100120002D0054696D653A200058626565204F4E78
:100130000058626565204F4646008B019F01C5014E
:10014000EC010C0224023202420257026D027E02CE
:100150008A029102AE02CC02E202F0020003230303
:10016000290357726F6E672074696D6520666F7220
:100170006D61742E204D7573742062652022646455
:100180003A68683A6D6D3A73732200416C61726D22
:10019000204D6F6465206D61746368657320005B3A
:1001A000446179203A20686F757273203A206D6936
:1001B0006E75746573203A207365636F6E64735D4A
:1001C000202D3E20005B44617465203A20686F75E5
:1001D0007273203A206D696E75746573203A2073CE
:1001E00065636F6E64735D202D3E20005B486F7504
:1001F0007273203A206D696E75746573203A2073AE
:1002000065636F6E64735D202D3E20005B4D696EEB
:1002100075746573203A207365636F6E64735D2037
:100220002D3E20005B5365636F6E64735D202D3E31
:1002300020004F6E636520706572207365636F6E7A
:100240006400496E636F727265637420616C6172E1
:100250006D206D6F6465005B253032753A25303254
:10026000753A253032753A253032755D005B2530A0
:1002700032753A253032753A253032755D005B258E
:100280003032753A253032755D005B253032755D50
:10029000005B446179203A20686F757273203A20C0
:1002A0006D696E75746573205D202D3E20005B4482
:1002B000617465203A20686F757273203A206D6909
:1002C0006E75746573205D202D3E20005B486F7550
:1002D0007273203A206D696E757465735D202D3ED2
:1002E00020005B4D696E757465735D202D3E2000A6
:1002F0004F6E636520706572206D696E7574650060
:1003000025732C20253032752F253032752F25305E
:1003100032752C20253032753A253032753A253029
:100320003275006572726F72002530327525632553
:1003300030327525632530327525632530327525B9
:1003400063253032752563253032752563253032BB
:100350007500B203C303D403E903FA030D042004B8
:100360003304480469047A048D049E04B304CA0467
:10037000DF04F60409051A052B053E05530564053F
:10038000770588059905AE05BF05D0050106140659
:100390002506380649065A066B067C068F06A00617
:1003A000B106C206D306E606F70608071B072E07A6
:1003B0003F07374530303034303835323533344309
:1003C000303600374530303034303835323533341C
:1003D00038304100374530303036303835323444EB
:1003E000353930303030303000374530303034300F
:1003F00038353234443539464600374530303035AB
:1004000030383532343234343030303000374530E3
:1004100030303530383532343135303030303000EE
:10042000374530303035303835323431344630307D
:1004300030300037453030303630383532343934AA
:1004400034303030303030003745303030433038A1
:100450003532343934343030303030303030303080
:10046000303030303030303000374530303034309C
:10047000383532343934343138003745303030355E
:100480003038353235333444303030300037453051
:100490003030343038353235333444303500374538
:1004A0003030303630383532353335343030303026
:1004B000303000374530303037303835323533352D
:1004C0003430303030303030300037453030303636
:1004D0003038353235333530303030303030003729
:1004E00045303030373038353235333530303030D4
:1004F00030303030300037453030303530383532FC
:1005000034333438303030300037453030303430E8
:1005100038353234333438314100374530303034B7
:100520003038353234453439304500374530303095
:100530003530383532344535343030303000374599
:100540003030303630383532344535343030303074
:10055000303000374530303034303835323445357E
:10056000343033003745303030353038353234456B
:100570003446303030300037453030303430383564
:100580003234453446303800374530303034303836
:100590003532353735324643003745303030363026
:1005A0003835323533343330303030303000374541
:1005B000303030343038353235333433304600372C
:1005C000453030303430383532353334343045000E
:1005D00037453030313430383532344235393030C7
:1005E000303030303030303030303030303030300B
:1005F00030303030303030303030303030303030FB
:1006000000374530303035303835323435343530D8
:1006100030303000374530303034303835323435D2
:1006200034353142003745303030353038353235A9
:1006300030344330303030003745303030343038AB
:10064000353235303443303900374530303034308E
:100650003835323434343231460037453030303476
:100660003038353234383536303700374530303071
:10067000343038353235363532464400374530303F
:100680003035303835323532353030303030003773
:100690004530303034303835323532353030330053
:1006A000374530303034303835323431343332310C
:1006B000003745303030343038353234363532302A
:1006C0004400374530303034303835323532343507
:1006D00030450037453030303530383532353334F9
:1006E00046303030300037453030303430383532F5
:1006F00035333446303300374530303034303835D8
:1007000032344534343133003745303030353038C9
:1007100035323435343430303030003745303030D5
:1007200035303835323533343430303030003745B9
:1007300030303034303835323434344331350025BC
:10074000327525327525327525327525327525327B
:100750007525327525632532752532750000000830
:100760000900000000000000000000000000000080
:100770000000000000000000000000000000000079
:100780000000000000000000000000000000000069
:1007900001020810102040800408102040020204CA
:1007A0000810204080010280204004200101020442
:1007B00008102001408040800102080408800410D5
:1007C00004020105050505030303030101010404F7
:1007D00003060606060606060601040501050103D2
:1007E00002020202020201020205050404030404DB
:1007F00001030407070700202326292C2F3200229B
:1008000025282B2E3134002124272A2D30336364F0
:10081000696E6F70737578585B00B2067E198F1A17
:100820007C1BB92EF134563611241FBECFEFD1E216
:10083000DEBFCDBF12E0A0E0B2E0E0E9FFE700E0FC
:100840000BBF02C007900D92A639B107D9F71DE082
:10085000A6E9B2E001C01D92A03EB107E1F718E0A1
:10086000C8E2D8E000E006C022970109FE010BBFF4
:100870000E946237CA31D10780E00807A9F70E94B9
:10088000B40D0C94C63F0C94000080E097E00E94E9
:10089000501686E992E00E944E2868EE73E080E0F0
:1008A00090E00E947B0A6AE072E086E992E00E9492
:1008B0003B2B68EE73E080E090E00E947B0A6CECDA
:1008C00070E089E997E00E94131B80E097E00E94A6
:1008D0009714BC0189E997E00E943B1B86E992E0EE
:1008E0000C94C81D0F9303E024E041E064E372E040
:1008F0008EEF96E00E949C1089E997E00E949C1A76
:100900006CED70E089E997E00E945E1B8091D1094F
:100910009091D20981FF4FC080E097E00E9450166D
:1009200065EE70E089E997E00E945E1B6BEF70E076
:1009300089E997E00E945E1B6CE071E089E997E02D
:100940000E945E1B62E271E089E997E00E94131B3E
:1009500080E097E00E949714BC0189E997E00E942B
:100960003B1B809118076AE00E94793691111AC0EA
:1009700069E271E089E997E00E945E1B86E992E0F6
:100980000E944E2868ED76ED80E090E00E947B0AA0
:1009900086E992E00E94C81D61E371E089E997E071
:1009A0000E945E1B8091D1099091D2098D7F909316
:1009B000D2098093D1090F9108955F926F927F922F
:1009C0008F929F92AF92BF92CF92DF92EF92FF925F
:1009D0000F931F93CF93DF93CDB7DEB7C957D109DC
:1009E0000FB6F894DEBF0FBECDBF6C017B01EA9657
:1009F0001FAEEA973C010E94AB20F601E552FE4F84
:100A000082E080838E010F5F1F4F98E7D8011D920F
:100A10009A95E9F79EE7998391E09D83F601ED545D
:100A2000FC4F11821082F601E752FE4F8083F701DE
:100A3000908588E3A82EBB24B394AE0CBF1CD501CF
:100A40008C919230E0F5825F8B8380E18C839130D2
:100A500019F48FEF8C8710C0F70184818E83858114
:100A60008F83868188878781898780818A87818132
:100A70008B8782818C8783818D878FEF8E878EEF26
:100A80008F8721E1AE014F5F5F4FB701C3010E9425
:100A9000591FF701E85CFE4F008111810F5E1F4F67
:100AA000BE016F5F7F4FC3010E949620E1E0F0E03E
:100AB000EC0FFD1FE00FF11F808312E146C08C5E3A
:100AC0008B8381E18C83F70184818E8385818F8381
:100AD000868188878781898780818A8781818B87C2
:100AE00082818C8783818D878FEF8E878EEF8F87B2
:100AF000E65CFE4F8081888BF701E55CFE4F8081CC
:100B0000898BF701E45CFE4F80818B8BF701E25CFF
:100B1000FE4F80818C8BF701E15CFE4F80818D8BD5
:100B200027E1A801B701C6010E94591FD501AD9068
:100B3000BC90B7E1AB0EB11CB801C6010E94962073
:100B4000F801EA0DFB1D808318E1012F9E01275853
:100B50003F4FAE014F5F5F4FB701C3010E94741F4B
:100B6000F601E258FC4F8081813021F48EE997E054
:100B70000E94C41B512C5701E8ECAE1AEEEFBE0ADE
:100B8000012F10E04601F2E88F1AFCEF9F0A0CC01B
:100B9000E1E0F0E0EC0FFD1FE80FF91FD4016C91CC
:100BA00080810E94970D5394852D90E0EA964FAD79
:100BB000EA97F50120813181240F311D200F311F6B
:100BC0008217930728F3C3010E949D25F601E55281
:100BD000FE4F8083F601EA52FC4F9081F701EE5AF6
:100BE000FE4F9083F601E952FC4F9081F701ED5AD8
:100BF000FE4F9083F601E852FC4F9081F701EC5ACA
:100C0000FE4F9083F601E752FC4F9081F701EB5ABB
:100C1000FE4F9083F601E652FC4F9081F701EA5AAD
:100C2000FE4F9083C758DF4F0FB6F894DEBF0FBE5C
:100C3000CDBFDF91CF911F910F91FF90EF90DF908B
:100C4000CF90BF90AF909F908F907F906F905F906C
:100C50000895CF93DF93EC01FC01E358FC4F83E050
:100C60008083FE01E258FC4F6083611104C08EE96D
:100C700097E00E94F41BFE01E158FC4F11821082A4
:100C8000FE01ED54FC4F11821082FE01EB54FC4F2B
:100C90001082FE01E95AFF4F1082FE01E25CFE4F16
:100CA0001082FE01E45CFE4F1082FE01E35CFE4F09
:100CB00082E88083FE01E959FE4F1082FE01E75968
:100CC000FE4F80E28083FE01EF5DFE4F1082FE0149
:100CD000EE5DFE4F87E08083FE01ED5DFE4F90EDFF
:100CE0009083FE01EC5DFE4F1082FE01EB5DFE4F36
:100CF0001082FE01EA5DFE4F98EC9083FE01EE58F3
:100D0000FE4F1082FE01E859FE4F94E09083FE01F1
:100D1000E951FC4F8083FE01E851FC4F83E0808362
:100D2000FE01E751FC4F81E08083FE01E552FC4F5C
:100D30001082FE01E852FE4F82E08083FE01E752FE
:100D4000FE4F8083FE01E652FE4F8083FE01E55296
:100D5000FE4F8083CE010E94D220CE01DF91CF9141
:100D60000C94AB201092980210929A021092B20248
:100D70001092B40289E1809374061092770683E0A2
:100D80008093120684E492E09093970280939602F7
:100D900084E1EEEBF3E0DF011D928A95E9F781E152
:100DA000ECEEF3E0DF011D928A95E9F708951092C9
:100DB0008A06E4E6F0E080818F778083589A599A1A
:100DC000E9EBF0E080818E7F808380818D7F80835E
:100DD00081E48093B80085E48093BC0080E2EBE876
:100DE000F6E0DF01982F1D929A95E9F7EBEAF6E01D
:100DF000DF01982F1D929A95E9F7EBECF6E0DF0101
:100E00001D928A95E9F70895613298F420918A0637
:100E1000243089F460938706FC018BEA96E0DC01BC
:100E200002C021912D932A2F281B2617D0F380E092
:100E3000089581E0089582E0089585EC8093BC00D8
:100E400010928A060895589859988091B900816047
:100E50008093B9008091B90082608093B90080913D
:100E6000BC0080688093BC008091BC00806180934E
:100E7000BC008091BC008F7B8093BC008091BC0043
:100E80008F7D8093BC008091BC00877F8093BC00E5
:100E90008091C2099091C309A091C409B091C5097C
:100EA00086FD14C08091C2099091C309A091C40924
:100EB000B091C50990FD0AC08091C2099091C30903
:100EC000A091C409B091C50993FF04C08091BC00F2
:100ED0008B7F03C08091BC0084608093BC008091B4
:100EE000BC008E7F8093BC008091640080688093FA
:100EF00064000895882349F01092810610928206BA
:100F0000109283061092840613C0809181069091FE
:100F10008206A0918306B09184060196A11DB11DA1
:100F20008093810690938206A0938306B0938406F3
:100F30008091810690918206A0918306B0918406EB
:100F4000803A9648A140B10560F010928106109257
:100F5000820610928306109284060E94D70681E0D2
:100F6000089580E0089585ED8093BC0081E00E94A3
:100F70007A0708C080E00E947A07882319F010924F
:100F80008A0608958091BC0084FDF4CFF8CFFF92CB
:100F90000F931F93CF93DF93182F062FF72EC42F95
:100FA000D22F81E0413208F051C00E947A0715C06B
:100FB00080E00E947A07882381F082E080938A068D
:100FC0008FEF8093850610928906C093EB06E02F81
:100FD000FF2D6BE876E0DB0107C080918A06811166
:100FE000E7CFEBCF81918D938A2F861B8C17D0F39F
:100FF000812F90E0880F991F8093EC0685EE8093F7
:10100000BC0081E00E947A07D11105C0809185065D
:101010008F3F59F414C080918A068230B9F780E07E
:101020000E947A0781110DC0F6CF8091850680322B
:1010300051F080918506803341F483E007C080E061
:1010400005C085E003C082E001C084E0DF91CF915C
:101050001F910F91FF9008950F931F93CF93DF93EC
:10106000082FD62F172FC42F81E04132E0F50E94C0
:101070007A071DC080E00E947A078823C1F081E0D2
:1010800080938A068FEF8093850610928906C0931D
:10109000EB06802F90E0880F991F81608093EC060B
:1010A00085EE8093BC0081E00E947A0710C0809199
:1010B0008A068111DFCFE3CF80E00E947A07882380
:1010C00031F08BE896E0ED2FF12FDC0107C0809125
:1010D0008A06813089F3F5CF2D9121932A2F281B81
:1010E0002C17D0F380E0DF91CF911F910F910895DD
:1010F0001F920F920FB60F9211240BB60F922F93DF
:101100003F934F935F936F937F938F939F93AF938F
:10111000BF93CF93EF93FF93C091B900C87FC036C0
:1011200009F49FC058F5C83209F45BC090F4C0318F
:1011300009F452C038F4CC2309F4F2C0C83009F0E5
:10114000F3C04AC0C83109F44CC0C03209F0ECC049
:101150005DC0C03409F473C038F4C03309F45BC017
:10116000C83309F0E1C05AC0C03509F45CC0C835C5
:1011700009F46AC0C83409F0D7C0D4C0C83909F42A
:10118000C5C0A8F4C83709F46CC038F4C83609F4EF
:1011900068C0C03709F0C8C064C0C83809F4B6C018
:1011A000C03909F464C0C03809F0BEC060C0C03B9B
:1011B00009F484C038F4C03A09F46BC0C83A09F0A5
:1011C000B3C07CC0C03C09F4A5C0C83C09F4A2C0AF
:1011D000C83B09F0A9C087C08091EC068093BB0092
:1011E00013C0909189068091EB06981708F09AC079
:1011F00080918906E82FF0E0E557F94F90819093B0
:10120000BB008F5F8093890685EC81C00E94B30785
:10121000C093850689C0C093850684C0C0938506A7
:101220000E941D0781C0809189069091BB00E82F24
:10123000F0E0E557F94F90838F5F80938906909196
:1012400089068091EB065FC0809189069091BB0072
:10125000E82FF0E0E557F94F90838F5F8093890680
:1012600061C083E080938A0610928606CDCF80917C
:101270008606803208F04AC0809186069091BB00B5
:10128000E82FF0E0E553F94F90838F5F8093860657
:10129000BBCF80918606803230F4E0918606F0E084
:1012A000E553F94F108260918606E091ED06F091CA
:1012B000EE0670E08BEC96E009952CC084E08093FC
:1012C0008A061092880610928706E091EF06F09148
:1012D000F006099580918706811105C081E0809311
:1012E00087061092AB0680918806E82FF0E0E5555E
:1012F000F94F90819093BB008F5F80938806909107
:10130000880680918706981708F47ECF85E8809339
:10131000BC000AC085EC8093BC0010928A0604C011
:10132000109285060E94B307FF91EF91CF91BF9174
:10133000AF919F918F917F916F915F914F913F916D
:101340002F910F900BBE0F900FBE0F901F9018950E
:101350001F920F920FB60F9211240BB60F922F937C
:101360003F934F935F936F937F938F939F93AF932D
:10137000BF93EF93FF93F89481E080931B02E0E624
:10138000F0E080818068808380818F7B808360E053
:1013900083E00E948A0B7894FF91EF91BF91AF9107
:1013A0009F918F917F916F915F914F913F912F917D
:1013B0000F900BBE0F900FBE0F901F9018951F92AD
:1013C0000F920FB60F9211248F939F93AF93BF93F9
:1013D0008091D4099091D509A091D609B091D709EF
:1013E0000196A11DB11D8093D4099093D509A093B6
:1013F000D609B093D709BF91AF919F918F910F906C
:101400000FBE0F901F9018951F920F920FB60F925C
:1014100011248F939F93AF93BF938091D80990919C
:10142000D909A091DA09B091DB090196A11DB11D7E
:101430008093D8099093D909A093DA09B093DB0976
:10144000BF91AF919F918F910F900FBE0F901F9002
:1014500018958F929F92AF92BF92CF92DF92EF92A8
:10146000FF920F931F93CF93DF932FB7F894809140
:10147000D4099091D509A091D609B091D7092FBF71
:101480009C01AD0160E070E080E090E001E00E942E
:101490004A374901D42FC52FB62FA72FF82FE92F90
:1014A00002E00E944A3759016A017B018C019401D4
:1014B0004D2F5C2F6B2F7A2F8F2F9E2F0E94593725
:1014C000E9E0AE2EB12CC12CD12CE12CF12C00E0A6
:1014D00010E00E94ED36952FB901842FDF91CF9156
:1014E0001F910F91FF90EF90DF90CF90BF90AF9042
:1014F0009F908F9008958F929F92AF92BF92CF92BC
:10150000DF92EF92FF924B015C0107C00E94290A13
:101510006C157D058E059F0520F40E94290A6B013C
:101520007C010E94290A6C197D098E099F096815A2
:1015300079058A059B0550F3FF90EF90DF90CF90DF
:10154000BF90AF909F908F900895019761F00197A1
:1015500051F0880F991F880F991F02972FB7F894A1
:101560000197F1F72FBF0895789484B7877F84BFE0
:101570001092D4091092D5091092D6091092D70969
:1015800084B5826084BD84B5816084BD85B5826088
:1015900085BD85B5816085BDEEE6F0E08081816026
:1015A0008083E1E8F0E080818260808380818160D7
:1015B0008083E0E8F0E0808181608083E1EBF0E00F
:1015C000808184608083E1E9F0E0808184608083B1
:1015D000E0EBF0E0808181608083E0E9F0E08081F1
:1015E00081608083E4E6F0E080818E7F8083ECE799
:1015F000F0E080818F778083808180648083EAE758
:10160000F0E080818460808380818260808380813B
:10161000806880831092C1001092C9000895909153
:10162000F106982B9093F10680FF32C08091640000
:101630008E7F8093640080917C008F7780937C0004
:1016400080917C00806480937C0080917A0084602B
:1016500080937A0080917A00826080937A008091F2
:101660007A00806880937A00809164008F778093FD
:101670006400809164008B7F80936400809164009B
:101680008D7F80936400809165008E7F80936500DC
:101690000895282F20959091F10692239093F106BA
:1016A00080FF1EC080917A008F7780937A008091AE
:1016B00064008160809364008091640080688093FE
:1016C0006400809164008460809364008091640071
:1016D00082608093640080916500816080936500E2
:1016E000089590E0FC01E057F84F2491FC01ED5380
:1016F000F84FE491EE2369F0F0E0EA5FF74FA49130
:10170000B0E08C91611103C02095822301C0822B2F
:101710008C93089590E0FC01E35AF84F2491FC016A
:10172000E057F84F3491FC01ED53F84F8491882332
:10173000B1F1222331F1233021F4909180009F7781
:1017400005C0243031F4909180009F7D90938000FB
:1017500018C0213019F494B59F7704C0223021F4C9
:1017600094B59F7D94BD0DC0263021F49091B000BA
:101770009F7705C0273029F49091B0009F7D90930A
:10178000B000E82FF0E0E250F84FA491B0E08C9167
:10179000611103C03095832301C0832B8C9308957E
:1017A00090E0FC01E35AF84F2491FC01E057F84F18
:1017B0003491FC01ED53F84F8491882399F1222351
:1017C00031F1233021F4909180009F7705C02430BF
:1017D00031F4909180009F7D9093800018C021305B
:1017E00019F494B59F7704C0223021F494B59F7DFD
:1017F00094BD0DC0263021F49091B0009F7705C0B4
:10180000273029F49091B0009F7D9093B000E82F8D
:10181000F0E0EA50F84FE491F0E08081832321E08A
:1018200030E011F420E030E0C9010895CF92DF925A
:10183000EF92FF926B017C01411134C088E00E945D
:101840000F0BC701B60122E030E040E050E00E94FB
:10185000CF36305F414F5F4FCA01B901A7019601F2
:101860000E94CF36DA01C9010197A109B109892F78
:101870009A2FAB2FBB27A7FDBA958093C5002150A7
:101880002093C4008091C10080618093C100809149
:10189000C10088608093C1008091C10080688093FE
:1018A000C10033C080E10E940F0BC701B60122E0E6
:1018B00030E040E050E00E94CF36305F414F5F4F54
:1018C000CA01B901A70196010E94CF36DA01C90108
:1018D0000197A109B109892F9A2FAB2FBB27A7FD2B
:1018E000BA958093CD0021502093CC008091C900FF
:1018F00080618093C9008091C90088608093C9008D
:101900008091C90080688093C900FF90EF90DF90BC
:10191000CF90089581110EC088E00E94490B8091FC
:10192000C1008F7E8093C1008091C100877F80932A
:10193000C100089580E10E94490B8091C9008F7E0B
:101940008093C9008091C900877F8093C900089562
:10195000611107C09091C00095FFFCCF8093C60035
:1019600008959091C80095FFFCCF8093CE00089514
:1019700081110AC08091F8069091F9069E5F20912E
:10198000F6063091F70609C08091F4069091F506AD
:101990009E5F2091F2063091F306821B930B60E06C
:1019A00072E00E9499360895811119C08091F6065F
:1019B0009091F7062091F8063091F906281739071B
:1019C00041F1FC01E452F44F2081019660E072E0A5
:1019D0000E9499369093F7068093F60618C080917E
:1019E000F2069091F3062091F4063091F50628173F
:1019F000390779F0FC01E452F64F2081019660E04E
:101A000072E00E9499369093F3068093F20630E0DC
:101A100002C02FEF3FEFC9010895811109C0109254
:101A2000F7061092F6061092F9061092F80608953D
:101A30001092F3061092F2061092F5061092F40638
:101A400008951F920F920FB60F9211242F933F9378
:101A50004F935F936F937F938F939F93AF93BF93B6
:101A6000EF93E091C6002091F8063091F906C90184
:101A7000019660E072E00E9499364091F60650911E
:101A8000F7068417950741F0D901A452B44FEC939F
:101A90009093F9068093F806EF91BF91AF919F91D3
:101AA0008F917F916F915F914F913F912F910F9007
:101AB0000FBE0F901F9018951F920F920FB60F92A6
:101AC00011242F933F934F935F936F937F938F9343
:101AD0009F93AF93BF93EF93E091CE002091F406D4
:101AE0003091F506C901019660E072E00E949936D6
:101AF0004091F2065091F3068417950741F0D90101
:101B0000A452B64FEC939093F5068093F406EF91B0
:101B1000BF91AF919F918F917F916F915F914F9105
:101B20003F912F910F900FBE0F901F9018950C941E
:101B3000A80CCF93C82F682F8DE00E94A80C6C2FA3
:101B40008AE0CF910C94A80C1F93CF93DF93162FAC
:101B5000EC0103C0612F0E94A80C89918111FACF7A
:101B6000DF91CF911F9108950E94B40A8EE997E00A
:101B70000E945D1D853440F061E081E30E94710B9D
:101B800061E081E30E948A0B61E070E08EE997E0FA
:101B90000E94041C8130B1F48091C2099091C30964
:101BA000A091C409B091C50990688093C20990932F
:101BB000C309A093C409B093C50960E081E090E037
:101BC0000E94973E87E20E94D00B892B59F160E07A
:101BD00070E08EE997E00E94041C8A3019F5C1C0BC
:101BE0006CE3629FA001639F500D1124840F951F29
:101BF0000EC02115310559F06CE3629FA001639F6F
:101C0000500D11249A01205F314F820F931F0397CB
:101C100048F48091D1099091D20980629093D209C1
:101C20008093D10980E097E00E94501680E097E011
:101C30000E94111680E097E00E94201680E097E055
:101C40000E948E1163E070E080E090E00E947B0AC9
:101C50008091C2099091C309A091C409B091C509AE
:101C6000A1FF5EC063E070E080E090E00E947B0A2C
:101C700061E086E10E94710B63E070E080E090E03B
:101C80000E947B0A61E086E10E948A0B63E070E0BB
:101C900080E090E00E947B0A0E94831963E070E07C
:101CA00080E090E00E947B0A81E00E94A61963E038
:101CB00070E080E090E00E947B0A84E00E94B4190A
:101CC00063E070E080E090E00E947B0A80E00E9488
:101CD000AF1963E070E080E090E00E947B0A0E9410
:101CE000A21963E070E080E090E00E947B0A66E069
:101CF00083E997E00E94BF1963E070E080E090E024
:101D00000E947B0A61E086E10E94710B60E086E13F
:101D10000E948A0B63E070E080E090E00E947B0A02
:101D200063E070E080E090E00E947B0A8EE997E03B
:101D30000E94021D6093FA067093FB068093FC06D6
:101D40009093FD068091FA069091FB06A091FC0607
:101D5000B091FD060E9412390E9445040E9472044F
:101D6000FDCF80E097E00E94501680E097E00E944F
:101D7000A21480E097E00E9497148091190790E0E8
:101D800020911B07821B91092091180730E0409198
:101D90001C07241B3109121613060CF421CF29CF7E
:101DA0001F93CF93DF931F92CDB7DEB7162F61E05D
:101DB0008AE149830E94710B61E088E10E94710B06
:101DC0004981112321F0113009F048C020C0411190
:101DD0000EC061E08AE10E948A0B8091C209909155
:101DE000C309A091C409B091C50982602FC04130D8
:101DF000A9F560E08AE10E948A0B8091C209909166
:101E0000C309A091C409B091C5098D7F1FC04111BC
:101E10000EC061E088E10E948A0B8091C209909116
:101E2000C309A091C409B091C50981600FC04130B8
:101E3000A9F460E088E10E948A0B8091C209909128
:101E4000C309A091C409B091C5098E7F8093C209CE
:101E50009093C309A093C409B093C5090F90DF9173
:101E6000CF911F91089580917A00806880937A00C5
:101E700060FF10C061E08AE10E94710B61E08AE1BD
:101E80000E948A0B61E088E10E94710B61E088E1A9
:101E90000C948A0B089561E089E20E94710B61E065
:101EA00088E20E94710B8FE997E00C94682D0F93E4
:101EB0001F93CF93DF93EC01162F61E081E30E9423
:101EC000710B60E081E30E948A0B61E089E20E946D
:101ED000710B60E089E20E948A0B61E088E20E9457
:101EE000710B60E088E20E948A0B80917A008F7704
:101EF00080937A0061E08DE10E94710B60E08DE1DA
:101F00000E948A0B61E08BE10E94710B60E08BE123
:101F10000E948A0B61E082E20E94710B60E082E223
:101F20000E948A0B012F017010FF0EC041E060E09B
:101F30008EEF96E00E94D00E41E061E08EEF96E0D9
:101F40000E94D00E1092A60780E00E948A0C11FF1A
:101F500019C061E086E10E94710B60E086E10E9499
:101F60008A0B4091C2095091C3096091C4097091D4
:101F7000C5094B7F4093C2095093C3096093C409BC
:101F80007093C50981E00E948A0C0023A1F0809122
:101F9000C2099091C309A091C409B091C50990FDEF
:101FA0000AC08091C2099091C309A091C409B0915F
:101FB000C50991FF72C080E097E00E94551161E071
:101FC00080E30E94710B60E080E30E948A0BCE01E7
:101FD0000E944B0F61E089E10E94710B60E089E192
:101FE0000E948A0B4091C2095091C3096091C409B3
:101FF0007091C50944FF15C040E060E0CE010E9429
:10200000D00E61E08AE00E94710B61E089E00E94DD
:10201000710B61E08AE00E948A0B61E089E00E9416
:102020008A0B8091C2099091C309A091C409B09113
:10203000C50986FF04C060E089E00E948A0B809198
:10204000C2099091C309A091C409B091C50985FF47
:1020500018C060E084E00E948A0B60E082E00E9489
:102060008A0B60E087E00E948A0B60E08AE00E94B1
:102070008A0B60E086E00E948A0B60E08EE00E949E
:102080008A0B60E08BE20E94710B60E08BE2DF91D3
:10209000CF911F910F910C948A0B61E086E00E9412
:1020A000710B60E086E00E948A0B85CF61E08DE2D3
:1020B0000E94710B60E08DE20E948A0B87E20E9411
:1020C000D00B892B41F080E097E00E94501680E011
:1020D00097E00E943A1686E20E94D00B019721F504
:1020E0008DEF97E00E94ED3480910208823071F00C
:1020F00018F48130C9F405C0833069F08430A1F44C
:102100000FC08DEF97E00E94BA340EC08DEF97E0BC
:102110000E94183409C08DEF97E00E94AA3304C0D2
:102120008DEF97E00E946F3360E08BE20E94710BAD
:1021300060E08BE20C948A0BCF92DF92EF92FF92D9
:102140000F931F93CF93DF93EC017B01D42EC22E0C
:102150008EE997E00E94DC1B61E08DE20E94710B2A
:1021600060E08DE20E948A0B602FCE010E94570F23
:1021700064E670E080E090E00E947B0A1BE00DC006
:1021800061E070E080E090E00E947B0A8EEF96E0D4
:102190000E945610115009F47FC08BE20E94D00BB0
:1021A000019771F380E097E00E9450162C2D4D2D81
:1021B000B70180E097E00E94A018D0901E07E09041
:1021C0001D07F0901C0710911B0780E097E00E940C
:1021D000A21480911E07D8120CC080911D07E8122E
:1021E00008C080911C07F81204C080911B071817C3
:1021F00081F080E097E00E94111680E097E0DF9187
:10220000CF911F910F91FF90EF90DF90CF900C94A2
:102210008E1180E097E00E948E1183B7817F8460E9
:1022200083BF83B7816083BF83B7816083BF889595
:1022300083B78E7F83BF83B78E7F83BF602FCE012E
:102240000E94330F80E097E00E94501680E097E0F4
:102250000E94111680E097E00E943A1680E097E015
:102260000E948E1100FF18C061E08AE10E94710B8C
:1022700060E08AE10E948A0B61E088E10E94710BB4
:1022800060E088E1DF91CF911F910F91FF90EF9077
:10229000DF90CF900C948A0BDF91CF911F910F911B
:1022A000FF90EF90DF90CF9008958091A50788234D
:1022B00041F080910108811104C08EEF96E00C94EA
:1022C0004B0F08950F931F93CF93DF93EC01042FCF
:1022D00068A761E080E30E94710B18A5112379F0D3
:1022E000113091F461E080E30E948A0B013019F40F
:1022F00082E08B8B09C0011107C01B8B05C060E019
:1023000080E30E948A0B1B8A6AE070E080E090E024
:10231000DF91CF911F910F910C947B0ACF93DF93A4
:10232000EC010E94551140E060E0CE01DF91CF91B9
:102330000C946211FC01148A158A168A178A108E71
:10234000118E128E138E148E158E168E178E10A26D
:1023500011A212A213A214A215A216A217A20895E6
:10236000EF92FF920F931F93CF93DF93CDB7DEB71A
:10237000EC970FB6F894DEBF0FBECDBF8C01ECE535
:10238000F1E085919491BC01EE24E394F12CEC0EE4
:10239000FD1EC7010E941D39EEE5F1E08591949183
:1023A000BC01CE0189960E941D39F80186898430CE
:1023B00009F466C040F4823029F108F04BC0813046
:1023C00009F0B6C009C0863009F486C008F46EC0B2
:1023D000873009F0ADC096C0F801818D1F928F93B0
:1023E000808D1F928F9387891F928F93828D1F926A
:1023F0008F9385891F928F9384891F928F9388E48E
:1024000092E015C0F801818D1F928F93808D1F92ED
:102410008F9387891F928F93828D1F928F938589C7
:102420001F928F9384891F928F938CE492E09F93E5
:102430008F93FF92EF921F9284E68F93C801899643
:102440009F938F930E9449390FB6F894DEBF0FBE59
:10245000CDBF81C0F801818D1F928F93808D1F9217
:102460008F9387891F928F93828D1F928F93858977
:102470001F928F9384891F928F9380E592E0D7CF2C
:10248000F801818D1F928F93808D1F928F93878982
:102490001F928F93828D1F928F9385891F928F93A6
:1024A00084891F928F9384E592E0C1CFF801818DDA
:1024B0001F928F93808D1F928F9387891F928F9386
:1024C000828D1F928F9385891F928F9384891F928B
:1024D0008F9388E592E0ABCFF801818D1F928F93A7
:1024E000808D1F928F9387891F928F93828D1F9269
:1024F0008F9385891F928F9384891F928F938CE588
:1025000092E095CFF801818D1F928F93808D1F925D
:102510008F9387891F928F93828D1F928F938589C6
:102520001F928F9384891F928F9380E692E07FCFD2
:10253000CE0189969F938F931F9284E68F93C80153
:1025400089969F938F930E9449390F900F900F9017
:102550000F900F900F90075D1F4FC801EC960FB6BC
:10256000F894DEBF0FBECDBFDF91CF911F910F91C9
:10257000FF90EF900895CF92DF92EF92FF920F932A
:102580001F93CF93DF938C01C62E8091A5078111F5
:1025900004C08FE997E00E94222D68E670E08FE981
:1025A00097E00E944F2D60E070E08FE997E00E9475
:1025B0007B2E8FE997E00E947D2E43E150E068E694
:1025C00070E08FE997E00E94B72EE12CF12CC0E07B
:1025D000D0E0D12CE4C08FE997E00E94572DF8019C
:1025E000EC0FFD1F8083C630D10509F467C098F455
:1025F000C230D10509F43EC038F4209729F1C1302A
:10260000D10509F0C7C02BC0C430D10509F440C0C2
:1026100008F049C03AC0CA30D10509F484C048F472
:10262000282F30E0C830D10509F461C008F06DC032
:1026300050C0CC30D10509F492C008F482C0CD302E
:10264000D10509F0A7C099C0982F92959F708F70FF
:102650002AE0929F800D1124F801818F9BC0982F52
:1026600092959F708F70FAE09F9F800D1124F80162
:10267000808F90C0982F92959F708F70FAE09F9FE7
:10268000800D1124F801878B85C0F801868B82C0EC
:10269000982F92959F708F70FAE09F9F800D112464
:1026A000F801828F77C0982F92959F708F70FAE013
:1026B0009F9F800D1124F801858B6CC0982F9295F7
:1026C0009F708F70FAE09F9F800D1124F801848B1A
:1026D00061C054E0359527955A95E1F727708F70C2
:1026E000FAE02F9F800D1124F801838F53C044E03E
:1026F000359527954A95E1F727708F70FAE02F9F5F
:10270000800D1124F801848F45C094E035952795FC
:102710009A95E1F723708F70FAE02F9F800D1124B6
:10272000F801858F37C0282F269526952695267087
:10273000922F990F990F920F8F70980FF801968F23
:1027400029C0282F2695269526952E70922F990F11
:10275000990F920F8F70980FF801978F1BC0282F39
:102760002695269526952670922F990F990F920FF0
:102770008F70980FF80190A30DC0282F26952695ED
:1027800026952670922F990F990F920F8F70980FA0
:10279000F80191A3219603C0FFEFEF1AFF0ACC16B0
:1027A000DD0658F02AE0E216F10438F48FE997E0EC
:1027B0000E94512D882381F30ECFDF91CF911F917D
:1027C0000F91FF90EF90DF90CF9008951F93CF93DC
:1027D000DF93EC01162F8091A507811104C08FE9CA
:1027E00097E00E94222D68E670E08FE997E00E9452
:1027F0004F2D612F8FE997E00E944F2EC10FD11D01
:1028000068818FE997E00E944F2E8FE997E0DF9172
:10281000CF911F910C947D2EFF920F931F93CF9316
:10282000DF938C01F62E8091A507811104C08FE9FA
:1028300097E00E94222D68E670E08FE997E00E9401
:102840004F2D6F2D8FE997E00E944F2E8FE997E073
:102850000E947D2E41E050E068E670E08FE997E04D
:102860000E94B72ECBE0D0E08FE997E00E94512D77
:10287000811102C02197C1F78FE997E00E94572D7F
:10288000F801EF0DF11D80838FE997E0DF91CF9183
:102890001F910F91FF900C947D2E0F931F93CF9358
:1028A000DF938A01C90101974F97C8F5CA010197C3
:1028B0000C97A8F581E090E04330510514F080E0DA
:1028C00090E0EB01C81BD90BFE01D7FD3396F595BF
:1028D000E795F595E795EC0FFD1FCE016CE97FEFCD
:1028E0000E949936E60FF71FCE0160E971E00E9461
:1028F0009936E60FF71FD801AA0FBB1FA558BD4F89
:102900008D919C91E80FF91FE20FF31FCF0167E053
:1029100070E00E9499369C012F5F3F4F02C021E07A
:1029200030E0C901DF91CF911F910F910895CF93AE
:10293000DF93EC0166E00E94BB12CE01DF91CF91E4
:102940000C94B011CF92DF92EF92FF920F931F93EE
:10295000CF93DF93CDB7DEB7C857D1090FB6F89440
:10296000DEBF0FBECDBF7C016AE00E94BB128701B3
:10297000075D1F4F84E6F80111928A95E9F7EAE3B3
:10298000F1E085919491BC01CE018F5A9F4F0E9436
:102990001D39BE016F5A7F4FC8010E943439F701BB
:1029A00082A1823009F46AC030F4882369F0813052
:1029B00009F00BC122C0843009F4C7C008F493C0E9
:1029C000853009F002C1F0C0ECE3F1E0859194910B
:1029D000BC01CE018F5A9F4F0E941D39BE016F5A14
:1029E0007F4FC8010E943439EAE4F1E08591949167
:1029F0006E01F9E2CF0ED11C18C0EEE3F1E0859133
:102A00009491BC01CE018F5A9F4F0E941D39BE0187
:102A10006F5A7F4FC8010E943439EAE4F1E0859192
:102A200094916E01E9E2CE0ED11CBC01C6010E9458
:102A30001D39F701838D1F928F93848D1F928F9381
:102A4000858D1F928F93868D1F928F93DF92CF92E9
:102A50001F9288E28F93EE24E394F12CEC0EFD1E7E
:102A6000FF92EF920E944939B701C8010E943439A0
:102A70000FB6F894DEBF0FBECDBFC2C0E0E4F1E0F8
:102A800085919491BC01CE018F5A9F4F0E941D39B0
:102A9000BE016F5A7F4FC8010E943439ECE4F1E067
:102AA000859194916E01E9E2CE0ED11CBC01C60164
:102AB0000E941D39F701838D1F928F93848D1F9281
:102AC0008F93858D1F928F93DF92CF921F9288E212
:102AD0008F93EE24E394F12CEC0EFD1EFF92EF9207
:102AE0000E944939C1CFE2E4F1E085919491BC01A3
:102AF000CE018F5A9F4F0E941D39BE016F5A7F4FE2
:102B0000C8010E943439EEE4F1E0859194916E01A0
:102B1000E9E2CE0ED11CBC01C6010E941D39F701AD
:102B2000838D1F928F93848D1F928F93DF92CF920C
:102B30001F9288E28F93EE24E394F12CEC0EFD1E9D
:102B4000FF92EF920E9449398FCFE4E4F1E0859142
:102B50009491BC01CE018F5A9F4F0E941D39BE0136
:102B60006F5A7F4FC8010E943439E0E5F1E085914A
:102B700094916E01E9E2CE0ED11CBC01C6010E9407
:102B80001D39F701838D1F928F93DF92CF921F9291
:102B900088E28F93EE24E394F12CEC0EFD1EFF925D
:102BA000EF920E94493960CFE6E4F1E0859194917B
:102BB000BC01CE018F5A9F4F0E941D39BE016F5A32
:102BC0007F4FC8010E9434391BC0E8E4F1E08591D1
:102BD00094917E01E1E5EE0EF11CBC01C7010E945B
:102BE0001D39FF92EF921F9284E68F931F930F93EC
:102BF0000E9449390F900F900F900F900F900F90F7
:102C0000C801C858DF4F0FB6F894DEBF0FBECDBF66
:102C1000DF91CF911F910F91FF90EF90DF90CF90B8
:102C20000895CF93DF93EC016EE00E940C148E8523
:102C30008E7F8E876EE0CE01DF91CF910C94E613EC
:102C4000CF93DF93EC016EE00E940C148E858D7F94
:102C50008E876EE0CE01DF91CF910C94E613CF9377
:102C6000DF93EC016FE00E940C148F858370DF917D
:102C7000CF910895CF93DF93EC010E942F16882304
:102C800019F0CE56DF4F888380910F078C7F809399
:102C90000F076FE080E097E0DF91CF910C94E6138F
:102CA000CF93DF93EC0140E061E00E946211CE011E
:102CB0000E943A16CE010E949A116DE0CE010E9448
:102CC000BB1261E08BE20E94710B60E08BE2DF914E
:102CD000CF910C948A0B362F862F6AE00E947936AA
:102CE000292F832F90E0821B91096AE070E00E94F7
:102CF0009936B4E0660F771FBA95E1F7822F862BDD
:102D000008950F931F93CF93DF93EC018091A50754
:102D1000811104C08FE997E00E94222D68E670E0DF
:102D20008FE997E00E944F2D67E070E08FE997E010
:102D30000E947B2E6B8DCE010E946B168F778F8346
:102D40006C8DCE010E946B168F7788876D8DCE01BA
:102D50000E946B168F7789876E8DCE010E946B164D
:102D60008F738A8700E010E0FE01E00FF11F67819A
:102D70008FE997E00E944F2E0F5F1F4F043011051F
:102D800099F78FE997E0DF91CF911F910F910C9404
:102D90007D2E0F931F93CF93DF93EC018091A507B6
:102DA000811104C08FE997E00E94222D68E670E04F
:102DB0008FE997E00E944F2D60E070E08FE997E087
:102DC0000E947B2E698DCE010E946B168883688DD0
:102DD000CE010E946B1689836F89CE010E946B160B
:102DE0008A838E898B836A8DCE010E946B168C83B9
:102DF0006D89CE010E946B168D836C89CE010E9475
:102E00006B168E8300E010E069918FE997E00E94D5
:102E10004F2E0F5F1F4F07301105B1F78FE997E075
:102E2000DF91CF911F910F910C947D2EAF92CF9295
:102E3000EF920F93CF93DF93FC01643610F081E0A3
:102E40005DC0648B842F81508C30C8F7458B413036
:102E500061F0433051F0453041F0473031F04830B7
:102E600021F04A3011F04C3019F4203248F1E7CF0C
:102E7000443031F0463021F0493011F04B3019F434
:102E80002F31F0F0DCCF4230D9F4862F8370A9F4D3
:102E9000C62FD0E0C053D84FCE0164E670E00E9448
:102EA0009936892B39F4CE0160E971E00E94993698
:102EB000892B19F42E3120F0C2CF2D3108F0BFCF6D
:102EC000822F81508F3108F0BACF228F802F81500E
:102ED000873008F0B4CF068B87E18E1508F4AFCFAA
:102EE000E78A8BE38C1508F4AACFC08E8A1508F404
:102EF000A6CFA18ECF010E94C91680E0DF91CF91AD
:102F00000F91EF90CF90AF900895CF93DF93EC01A6
:102F10000E941116CE010E94201662E070E080E04F
:102F200090E00E942B32CE01DF91CF910C943A16A3
:102F30001F93CF93DF93EC01142F613009F086C00B
:102F40008E8585608E876EE0CE010E94E6138F85A8
:102F50008C7F8F876FE0CE010E94E613133009F457
:102F60004EC028F48F81113019F1C8F509C0153011
:102F700009F469C008F44DC0163009F0D8C0CDC0BE
:102F80008F778F8367E0CE010E94E61388858F7765
:102F9000888768E0CE010E94E61389858F7789874C
:102FA00069E0CE010E94E6138A858F77806448C06D
:102FB0008F778F8367E0CE010E94E61388858F7735
:102FC000888768E0CE010E94E61389858F7789871C
:102FD00069E0CE010E94E6138A858F7331C08F7736
:102FE0008F8367E0CE010E94E61388858F778887FC
:102FF00068E0CE010E94E61389858F771AC08F8121
:103000008F778F8367E0CE010E94E61388858F77E4
:1030100009C08F818F778F8367E0CE010E94E6130E
:1030200088858068888768E0CE010E94E6138985DC
:103030008068898769E0CE010E94E6138A858068EE
:103040008A876AE066C08F818068E5CF623009F0C8
:103050006EC08E8586608E876EE0CE010E94E6137C
:103060008F858C7F8F876FE0CE010E94E613123030
:1030700089F130F4112359F0113009F058C019C00A
:103080001430A9F188F1153009F051C046C08B8584
:103090008F778B876BE0CE010E94E6138C858F774C
:1030A0008C876CE0CE010E94E6138D858F7780645B
:1030B0002EC08B858F778B876BE0CE010E94E61345
:1030C0008C858F778C876CE0CE010E94E6138D850E
:1030D0008F731DC08B858F778B876BE0CE010E942D
:1030E000E6138C858F770CC08B858F7702C08B851C
:1030F00080688B876BE0CE010E94E6138C85806828
:103100008C876CE0CE010E94E6138D8580688D87E8
:103110006DE0CE010E94E6130AC08E85887F8E87FF
:103120006EE0CE010E94E613CE010E94851762E098
:1031300070E080E090E0DF91CF911F910C948E3190
:10314000CF92DF92FF920F931F93CF93DF931F9243
:10315000CDB7DEB76C018B01F22EDB010D900020A4
:10316000E9F71C97A617B70741F062E671E089E915
:1031700097E049830E945E1B4981F8018181805359
:1031800090819053FAE09F9F800D1124F601868F65
:10319000F8018481805393819053FAE09F9F800DC2
:1031A0001124F601858FF801878180539681905311
:1031B000FAE09F9F800D1124F601848FF80182852B
:1031C000805391859053FAE09F9F800D1124F60162
:1031D000838F41117FC066E0C6010E94BB12F601D9
:1031E000818D938D890F8C3310F4838F06C08C539F
:1031F000F601838F848D8F5F848FF601808D948D8F
:10320000890F8C3310F4848F06C08C53F601848FA1
:10321000858D8F5F858FF6018789958D890F883120
:1032200010F4858F06C08851F601858F868D8F5FDB
:10323000868FF601968DF11009C08689890F868FD9
:10324000883008F447C08750868F44C0F601328D1D
:10325000390F368F8589813061F0833051F08530A8
:1032600041F0873031F0883021F08A3011F08C3015
:1032700021F4303278F13F512BC0843031F0863068
:1032800021F0893011F08B3021F43F3118F13E519B
:103290001FC08230F9F4E09114078E2F8370A9F4D7
:1032A000F0E0E053F84FCF0164E670E00E949936F9
:1032B000892B39F4CF0160E971E00E949936892B9E
:1032C00021F43E3138F03D5103C03D3118F03C51FE
:1032D000F601368FF601F2A280E097E00E94811697
:1032E0004F2D61E080E097E00F90DF91CF911F912B
:1032F0000F91FF90DF90CF900C9498171092910748
:1033000010921307089561E08EE10E94710B61E055
:103310008FE10E94710B61E08DE10E94710B60E012
:103320008EE10E948A0B60E08FE10E948A0B61E0CF
:103330008DE10E948A0B8CB580618CBD8CB5806458
:103340008CBD08958CB58F7B8CBD0895811103C011
:103350008CB5806202C08CB58F7D8CBD08959CB504
:10336000937F982B9CBD08952CB5982F93702C7F3C
:10337000922B9CBD9DB580FB90F99DBD0895CF9388
:10338000C62F61E08DE10E94710B61E082E20E9434
:10339000710B61E08DE10E948A0B61E082E20E9484
:1033A0008A0B8091C2099091C309A091C409B09180
:1033B000C509A2FF08C061E088E00E94710B61E0CE
:1033C00088E00E948A0B8091C2099091C309A09164
:1033D000C409B091C50996FF08C061E089E00E9468
:1033E000710B61E089E00E948A0B8091C209909183
:1033F000C309A091C409B091C509A3FF08C061E049
:1034000082E00E94710B61E082E00E948A0B809151
:10341000C2099091C309A091C409B091C509A4FF44
:1034200008C061E082E20E94710B61E082E20E94CA
:103430008A0BC330C9F020F4C13061F070F407C0CA
:10344000C53061F1F0F0C63009F067C033C060E00C
:103450008DE160C060E082E25DC08EE997E00E948D
:10346000C41B60E08CE256C08091C2099091C309F0
:10347000A091C409B091C509A2FF4FC060E088E0E7
:1034800049C08091C2099091C309A091C409B0912B
:10349000C50996FF42C060E089E03CC08091C20946
:1034A0009091C309A091C409B091C509A3FF35C08B
:1034B00060E02FC061E08DE10E948A0B61E082E252
:1034C0000E948A0B8091C2099091C309A091C409FE
:1034D000B091C509A2FF04C061E088E00E948A0B98
:1034E0008091C2099091C309A091C409B091C50906
:1034F00096FF04C061E089E00E948A0B8091C209B6
:103500009091C309A091C409B091C509A3FF05C05A
:1035100061E082E0CF910C948A0BCF9108951092D4
:1035200094071092930710929507109296071092A5
:103530009707109298070895FC01408160E072ECB3
:1035400081E090E00E94160C61E087E10E94710B1F
:1035500061E087E10E948A0B61E08BE00E94710BC1
:1035600060E08BE00E948A0B61E08DE20E94710BAB
:1035700060E08DE20C948A0BDC018091C50011960D
:103580008C9311978091C40012968C931297E2EC61
:10359000F0E0808113968C9313978091CA00149663
:1035A0008C93149780818F7D808380818F7E808330
:1035B0008081877F80834C9160E072EC81E090E0B5
:1035C0000E94160C61E087E10E948A0B60E08BE0AC
:1035D0000C948A0BCF93DF93EC014091C209509178
:1035E000C3096091C4097091C50963E070E080E08F
:1035F00090E042FF07C00E947B0A61E08BE00E94DE
:103600008A0B02C00E947B0A89818093C5008A814F
:103610008093C4008B818093C2008C818093CA0008
:10362000DF91CF910895EF92FF920F931F93CF9365
:10363000DF938C01EB010E94BC1A7E0188E1E81A3D
:103640008CEFF80AFE0121968491882339F0F80165
:1036500060810E94970DCE15DF05A1F7C8010E9479
:10366000EA1A60E070E0CB01DF91CF911F910F91DA
:10367000FF90EF9008950F931F93CF93DF93EC018A
:103680008B010E94BC1A6881C8010E94A40D888128
:103690000E94990DCE01DF91CF911F910F910C9453
:1036A000EA1ACF93DF93EC010E94BC1A88810E9432
:1036B000990DCE01DF91CF910C94EA1AEF92FF920F
:1036C0000F931F93CF93DF9300D0CDB7DEB77C016C
:1036D0000E94131B8C01C70169837A830E94511BCE
:1036E00069817A81C8010F900F90DF91CF911F916E
:1036F0000F91FF90EF9008951092990708951F93EE
:10370000CF93DF931F92CDB7DEB7162F61E0812FE5
:1037100049830E94710B4981413011F461E003C07B
:10372000411108C060E0812F0F90DF91CF911F9170
:103730000C948A0B0F90DF91CF911F9108951F93E6
:10374000CF93DF931F92CDB7DEB7162F61E087E1ED
:1037500049830E94710B61E084E20E94710B61E079
:1037600085E20E94710B61E087E10E948A0B612F64
:1037700084E20E948A0B4981642F85E20F90DF91D9
:10378000CF911F910C948A0B61E087E10E94710B2D
:1037900061E084E20E94710B61E085E20E94710B9E
:1037A00061E087E10E948A0B61E084E20E948A0B5B
:1037B00061E085E20C948A0B61E087E10E94710B65
:1037C00061E08BE00E94710B60E087E10E948A0B50
:1037D00060E08BE00E948A0B60E084E20E948A0B2A
:1037E00060E085E20C948A0B61E087E10E94710B36
:1037F00061E08BE00E94710B61E087E10E948A0B1F
:1038000061E08BE00C948A0BCB010C94893E8F9283
:103810009F92AF92BF92CF92DF92EF92FF920F935F
:103820001F93CF93DF93CDB7DEB7C75FD1090FB634
:10383000F894DEBF0FBECDBF8E0100511F4F58015F
:1038400028E0A20EB11C7E0181E8E80EF11CCC2418
:10385000C394D12CCC0EDD1E6DE0CE018F519F4F55
:103860000E94203640E06CE08EE997E00E947F1BCA
:1038700040E06DE08EE997E00E947F1BF801108226
:1038800011821282138261E08CE00E94710B61E070
:103890008CE00E948A0BCE018F519F4F0E94003511
:1038A00041E06DE08EE997E00E947F1B6AE070E0E6
:1038B00080E090E00E947B0A40E063E3CE018F51FC
:1038C0009F4F0E94D13562E370E080E090E00E945B
:1038D0007B0A4701CE018F519F4F0E94A635F2E02F
:1038E0008F1A9108F4018083118261E070E080E01A
:1038F00090E00E947B0A8C149D0461F7FE01719692
:10390000D701C60180599F4F219131912D933D934D
:10391000E817F907C9F731EE832E912C8C0E9D1E06
:1039200081E090E0A0E0B0E0F401329122914F01FB
:103930002130310569F4F801408151816281738140
:10394000480F591F6A1F7B1F408351836283738313
:10395000880F991FAA1FBB1F8E149F0429F7F80117
:1039600080819181A281B3818F3F9F4FAF4FBF4F25
:1039700029F4F801108211821282138260E08CE037
:103980000E948A0B40E06CE08EE997E00E947F1B6A
:1039900040E06DE08EE997E00E947F1B0C5F1F4FB7
:1039A0000A151B0509F058CFC051DF4F0881198156
:1039B0002A813B81C05FD040CC50DF4F8881998104
:1039C000AA81BB81C45FD040081719072A073B07AB
:1039D00019F000E010E09801B801C901C950DF4FAB
:1039E0000FB6F894DEBF0FBECDBFDF91CF911F9110
:1039F0000F91FF90EF90DF90CF90BF90AF909F908E
:103A00008F900895CF92DF92EF92FF920E94071C51
:103A10006B017C01611571058105910591F483EEBF
:103A200090E00E94913E6A302AE072078207920776
:103A300041F06F3F2FEF72078207920711F06B0181
:103A40007C01B601C701FF90EF90DF90CF90089501
:103A5000FB012081822F80538A3030F4332727FDE9
:103A600030952053310909C0822F8154863040F4AB
:103A7000332727FD3095275331096F5F7F4F02C0F1
:103A800020E030E0FB018081982F90539A3028F499
:103A9000992787FD9095C0970BC0982F9154963029
:103AA00028F4992787FD9095C79702C080E090E0A1
:103AB000F0E12F9F800D112408958FED90E00E947A
:103AC000893E8F3F09F480E00895E62FCA01B901CD
:103AD0004E2F0E94160C61E086E10E94710B61E09E
:103AE00087E10E94710B61E08BE00E94710B61E045
:103AF00087E10E948A0B61E08BE00C948A0B6130B5
:103B000019F0633071F514C0FC01E258FC4F80815C
:103B1000811102C061E013C0813019F58EE997E090
:103B20000E94C41B61E086E00E94710B61E016C038
:103B3000FC01E258FC4F8081811103C060E086E106
:103B40000EC0813071F440E060E08EE997E00E94A1
:103B50009F1B61E086E00E94710B60E086E00C94A0
:103B60008A0B089582589C4FFC0180810E948A0C28
:103B700061E087E10E94710B61E08BE00E94710BB4
:103B800060E087E10E948A0B60E08BE00C948A0B76
:103B9000CF93DF93EC010E94B21D63E0CE010E943F
:103BA0007F1DFE01E258FC4F808181110AC04091C7
:103BB000C2095091C3096091C4097091C5094B7F36
:103BC0000BC0813089F44091C2095091C3096091C2
:103BD000C4097091C509477F4093C2095093C30936
:103BE0006093C4097093C5091EAA80E0DF91CF914C
:103BF00008950F931F93CF93DF9300D0CDB7DEB717
:103C00008C018EE997E069837A830E94F41BF801A6
:103C1000ED54FC4F11821082F801E358FC4F808173
:103C200069817A81833009F449C028F4813059F0E0
:103C3000823031F41CC08430C1F1853009F450C0A9
:103C400020E030E04FC0F801E959FE4F8081882321
:103C500009F446C0DB0118968C911897813089F1E0
:103C600019968C91811130C022E630E03BC0F801FA
:103C7000E959FE4F9081FB018085911105C081308B
:103C800031F52CE530E02EC0F801E452FC4F8130D4
:103C900031F480818823F1F026E430E023C0808174
:103CA0008823D9F02EE330E01DC0F801E959FE4F1A
:103CB00080818823A9F020E530E014C029E430E0B9
:103CC00011C02FE530E00EC02EE530E00BC024E53A
:103CD00030E008C02AE430E005C022E430E002C051
:103CE00024E630E0FB01E85CFE4F808191812817DB
:103CF000390710F431832083D801ED91FC910280C3
:103D0000F381E02DC8010F900F90DF91CF911F91AB
:103D10000F9109942F923F924F925F927F928F92D0
:103D20009F92AF92BF92CF92DF92EF92FF920F934A
:103D30001F93CF93DF93CDB7DEB72A970FB6F894D2
:103D4000DEBF0FBECDBF4C016B015A01722EF32EA8
:103D5000CA010E943F3921E0E21242C04424439448
:103D6000512C4C0E5D1E212C312CF501E20DF31D62
:103D70008081898781818A87BE01675F7F4F8EE955
:103D800097E00E94281DD2018D932D01B2E02B0EE9
:103D9000311CE0E12E16310441F78981D6011496D9
:103DA0008C9314978A8115968C9315978B81169610
:103DB0008C9316978C8117968C9317978D818C9383
:103DC0008E8111968C9311978F8112968C931297F6
:103DD000888513968C93139781E019968C9324C051
:103DE000E11022C0F5018081898781818A87BE0127
:103DF000675F7F4F8EE997E00E94281D8983D50178
:103E000012968C911297898713968C918A87BE019E
:103E1000675F7F4F8EE997E00E94281D8A83998112
:103E2000F601928783871186D401AC52BC4F11965C
:103E30001C921E92E72DFF2D0E0F1F1FAD0113C008
:103E4000DA018D919C9121918C0D9D1DDC011C96B8
:103E50002C93DA018D919C91119701968D939C93EF
:103E60008C32914018F4E017F10751F7F601E85C45
:103E7000FE4FD401AC52BC4F8D919C9191838083B5
:103E800081E02A960FB6F894DEBF0FBECDBFDF915A
:103E9000CF911F910F91FF90EF90DF90CF90BF9047
:103EA000AF909F908F907F905F904F903F902F901A
:103EB0000895CF93DF9380E090E0FB01E85CFE4F34
:103EC000420F511D09C0DA01A80FB91FEB01C80F3D
:103ED000D91F2C852C93019620813181821793075D
:103EE00090F3DF91CF9108956F927F929F92AF925E
:103EF000BF92CF92DF92EF92FF920F931F93CF93D7
:103F0000DF93FA013901319681E090E010E0685CBE
:103F10007E4F30E2B32E4DE7A42E43C020812131E5
:103F200049F0233139F02E3729F02D3719F0019659
:103F3000319637C02B252083D3012C912F5F2C93F2
:103F40009080A0829C012E5F3F4FEF01229617C008
:103F50009880D8827901BFEFEB1AFB0A2E5F3F4FA2
:103F60002296D3014C916801C40ED11CA601DB013D
:103F7000CD90DC904C0D5D1DE416F506C0F6DE011B
:103F8000DE909C92D3014C91D801A40FB11DAD01DC
:103F9000DB01ED90FC904E0D5F1D24173507C0F23C
:103FA000C6CFD3012C916801C20ED11C9601DB0152
:103FB0004D915C91240F351F8217930708F4AECF03
:103FC000DF91CF911F910F91FF90EF90DF90CF90F5
:103FD000BF90AF909F907F906F900895AF92BF92E7
:103FE000CF92DF92EF92FF920F931F93CF93DF93C5
:103FF000E0E0F0E0A3E1CA2EBEE7BB2EC1E1AC2EAB
:10400000EB01C20FD31F3BC0FC01E20FF31FE60F11
:10401000F71F7C01E20EF31EDF013196DC901DE7F5
:10402000D11621F08417950779F52AC084179507D2
:1040300038F58C010F5F1F4FFB01EE0DFF1DE18175
:10404000E33359F018F4E13369F405C0ED3549F074
:10405000EE3541F404C0AC9205C0CC9203C0BC92D2
:1040600001C0DC924150510905C0FE01E80FF91F63
:10407000A181A0830196F80184179507B0F3CF01C1
:104080008417950708F202C00196C3CFDF91CF9144
:104090001F910F91FF90EF90DF90CF90BF90AF9066
:1040A0000895CF93DF93DC01AD54BC4F2D5F3F4F9C
:1040B00011963C932E9320E030E00AC0EB01CE0F26
:1040C000DF1F8881280F311D31961196FC93EE93E6
:1040D000ED91FC911197E417F50780F32F3F31051F
:1040E00019F081E02F3F09F480E0DF91CF9108952E
:1040F000EF92FF920F931F93CF93DF93EC017B011D
:1041000089010E945120811109C0F701E00FF11FC0
:104110008481C952DE4F888380E001C081E0DF9155
:10412000CF911F910F91FF90EF900895FB01918126
:1041300080E02281820F911D339620E030E040E044
:1041400004C05191450F2F5F3F4F28173907C9F71A
:10415000842F809508958A549C4FFC018EE1DF01E5
:104160001D928A95E9F70895DC01AD54BC4F119674
:104170001C921E920FC0F901B696EE0FFF1FE80FBA
:10418000F91F40815181452B59F02F5F3F4F119608
:104190003C932E932D913C9111972530310558F386
:1041A000822F08950F931F93CF93DF938C01EC011F
:1041B000CD54DC4F1982188216C0B696EE0FFF1F41
:1041C000E00FF11F808191810E941F3888819981C1
:1041D000FC01B696EE0FFF1FE00FF11F1182108257
:1041E000019699838883E881F981E530F10528F308
:1041F000DF91CF911F910F910895AF92BF92CF920F
:10420000DF92EF92FF920F931F93CF93DF937C0186
:10421000E0E0F0E010E05F01812F8E1BEF01A69639
:10422000CC0FDD1FCE0DDF1D27C065012FEFC21A99
:10423000D20A68817981625B7E4F9601220F331F1B
:104240002E0D3F1D245B3F4FD9014D915C91425B88
:104250005E4FDB010D911D912D913C91DA014D9145
:104260005D916D917C9104171507260737071CF0A7
:10427000943069F408C05601982F9A0DB4E0AB163B
:10428000B10498F2F5CF1E2FE5E0F0E002C01E2F3A
:104290001F5F3196E530F10508F4BDCFF701ED540D
:1042A000FC4FB182A082C12FD0E0A696CC0FDD1FBB
:1042B000CE0DDF1D888199810E941F3819821882D6
:1042C000812FDF91CF911F910F91FF90EF90DF90A1
:1042D000CF90BF90AF900895AF92BF92CF92DF92F0
:1042E000EF92FF920F931F93CF93DF937C01E0E057
:1042F000F0E010E05F01812F8E1BEF01A696CC0F3E
:10430000DD1FCE0DDF1D27C065012FEFC21AD20AB7
:1043100068817981625B7E4F9601220F331F2E0DDB
:104320003F1D245B3F4FD9014D915C91425B5E4F35
:10433000DB010D911D912D913C91DA014D915D9123
:104340006D917C9140175107620773071CF0943000
:1043500069F408C05601982F9A0DB4E0AB16B10469
:1043600098F2F5CF1E2FE5E0F0E002C01E2F1F5F90
:104370003196E530F10508F4BDCFF701ED54FC4F5F
:10438000B182A082C12FD0E0A696CC0FDD1FCE0D4A
:10439000DF1D888199810E941F3819821882812F20
:1043A000DF91CF911F910F91FF90EF90DF90CF9011
:1043B000BF90AF9008958F929F92AF92BF92CF928D
:1043C000DF92EF92FF920F931F93CF93DF931F9291
:1043D000CDB7DEB76C018B017C0187E5E80EF11CDF
:1043E000D7018C918F5F8C93C6010E94B420F70196
:1043F00020812630B8F0F601E852FE4F90819130CE
:1044000021F038F0923071F408C0C6010E94FD20FE
:1044100009C0C6010E946C2105C02150D7012C9310
:1044200082E0E6C2E82EF12C67E571E081E090E0E1
:104430000E9466375C014701B6E28B0E911C880C26
:10444000991C8C0C9D1CF401B182A082A114B104B2
:1044500009F4CBC2F601EB54FC4F2081213009F462
:104460007EC038F0223009F427C1233009F0BFC2E2
:10447000D5C1F501E35BFE4F1082D401AD90BC9035
:104480000E94290AF501E25BFE4F608371838283FB
:104490009383D401ED91FC91D8018C91E65BFE4FA2
:1044A0008083D401ED91FC91D80111968C91E55B4C
:1044B000FE4F8083D401ED91FC91D80112968C912E
:1044C000E45BFE4F8083D401ED91FC91D8011396FB
:1044D0008C91EF5BFE4F8083D401ED91FC91DF0165
:1044E000AF5BBE4F8C918150823018F481E08087A1
:1044F00001C01086F601E158FC4F8081918104973C
:1045000020F484E090E091838083B6E2EB0EF11C0E
:10451000EE0CFF1CEC0CFD1CD7018D919C91DC0175
:10452000A85CBE4F8081918104978D939C93F80184
:10453000349680E090E007C04191D901A80FB91FDF
:104540001C964C930196D7012D913C91D901A85C02
:10455000BE4F4D915C918417950770F348C2F501E9
:10456000E35BFE4F2083F401A080B18029830E9489
:10457000290AF501E25BFE4F608371838283938396
:10458000D401ED91FC91D8018C91EA5BFE4F8083C0
:10459000D401ED91FC91D80111968C91E95BFE4F0D
:1045A0008083D401ED91FC91D80112968C91E85B47
:1045B000FE4F8083D401ED91FC91D80113968C912C
:1045C000E75BFE4F8083D401ED91FC91D8011496F6
:1045D0008C91EE5BFE4F8083D401ED91FC91D8016C
:1045E00015968C91ED5BFE4F8083D401ED91FC918B
:1045F000D80116968C91EC5BFE4F8083D401ED912F
:10460000FC91D80117968C91EB5BFE4F8083D4010F
:10461000ED91FC91D80118968C91E45BFE4F80835C
:10462000D401ED91FC91D80119968C91EF5BFE4F6E
:104630008083D401ED91FC91DF01AF5BBE4F8C9183
:1046400081502981823010F4208701C01086F60144
:10465000E158FC4F808191810A9720F48AE090E034
:1046600091838083B6E2EB0EF11CEE0CFF1CEC0C88
:10467000FD1CD7018D919C91DC01A85CBE4F80810F
:1046800091810A978D939C93F8013A9680E090E08F
:1046900007C04191D901A80FB91F1C964C930196F0
:1046A000D7012D913C91D901A85CBE4F4D915C91F1
:1046B0008417950770F39BC10E94290AF501E25BFC
:1046C000FE4F6083718382839383D401ED91FC91CB
:1046D000D8018C91EA5BFE4F8083D401ED91FC916F
:1046E000D80111968C91E95BFE4F8083D401ED9146
:1046F000FC91D80112968C91E85BFE4F8083D40127
:10470000ED91FC91D80113968C91E75BFE4F80836D
:10471000D401ED91FC91D80114968C91EE5BFE4F83
:104720008083D401ED91FC91D80115968C91ED5BBD
:10473000FE4F8083D401ED91FC91D80116968C91A7
:10474000EC5BFE4F8083D401ED91FC91D80117966C
:104750008C91EB5BFE4F8083D401ED91FC91D801ED
:1047600018968C91E65BFE4F8083D401ED91FC910D
:10477000D80119968C91E55BFE4F8083D401ED91B1
:10478000FC91D8011A968C91EF5BFE4F8083D40187
:10479000ED91FC91DF01AF5BBE4F8C918F70823049
:1047A00019F481E0808701C01086F601E158FC4FC2
:1047B000808191810B9720F48BE090E0918380833E
:1047C000B6E2EB0EF11CEE0CFF1CEC0CFD1CD7014D
:1047D0008D919C91DC01A85CBE4F808191810B97EB
:1047E0008D939C93F8013B9680E090E007C0419147
:1047F000D901A80FB91F1C964C930196D7012D9192
:104800003C91D901A85CBE4F4D915C9184179507EE
:1048100070F3F901E45BFE4F1082E9C00E94290A9F
:10482000F501E25BFE4F6083718382839383D40141
:10483000ED91FC91D8018C91EA5BFE4F8083D4010D
:10484000ED91FC91D80111968C91E95BFE4F80832C
:10485000D401ED91FC91D80112968C91E85BFE4F4A
:104860008083D401ED91FC91D80113968C91E75B84
:10487000FE4F8083D401ED91FC91D80114968C9168
:10488000EE5BFE4F8083D401ED91FC91D80115962B
:104890008C91ED5BFE4F8083D401ED91FC91D801AA
:1048A00016968C91EC5BFE4F8083D401ED91FC91C8
:1048B000D80117968C91EB5BFE4F8083D401ED916C
:1048C000FC91D80118968C91E65BFE4F8083D40151
:1048D000ED91FC91D80119968C91E55BFE4F808398
:1048E000D401ED91FC91119782E08087ED91FC91CC
:1048F000D8011A968C91E65CFE4F8083D401ED912D
:10490000FC91D8011B968C91E55CFE4F8083D4010D
:10491000ED91FC91D8011C968C91E45CFE4F808354
:10492000D401ED91FC91D8011D968C91E35CFE4F72
:104930008083D401ED91FC91D8011E968C91E25CAC
:10494000FE4F8083D401ED91FC91D8011F968C918C
:10495000E15CFE4F8083D401ED91FC91D80150962B
:104960008C91EF5BFE4F8083D401ED91FC91DF01D0
:10497000AF5BBE4F8C918F70823011F481E08087E5
:10498000F601E158FC4F80819181419720F481E14B
:1049900090E091838083B6E2EB0EF11CEE0CFF1CDD
:1049A000EC0CFD1CD7018D919C91DC01A85CBE4FE5
:1049B0008081918141978D939C93F801719680E05D
:1049C00090E007C04191D901A80FB91F1C964C93E4
:1049D0000196D7012D913C91D901A85CBE4F4D9114
:1049E0005C918417950770F302C081E001C080E0FC
:1049F0000F90DF91CF911F910F91FF90EF90DF907B
:104A0000CF90BF90AF909F908F90089582589C4F09
:104A1000FC0180810E94B80C089582589C4FFC01D3
:104A200080810C940D0DAF92BF92CF92DF92EF92E6
:104A3000FF920F931F93CF93DF93CDB7DEB7C85785
:104A4000D1090FB6F894DEBF0FBECDBF8C016B014C
:104A50005A0179010E94B532863991050CF45AC089
:104A60009701A501B601C8010E945120882329F0B1
:104A7000C8010E940D2581E04EC0D801A158BC4F4D
:104A800011961C921E92C7010496AE014F5F5F4FB4
:104A900021E0A21AB10811C09601280F391FF901AF
:104AA0002081FA012193AF012D913C9111972F5F45
:104AB0003F4F11963C932E9301968A159B0560F308
:104AC000F601EE0DFF1D8381813871F018F48038F6
:104AD000D1F405C0803969F08139A9F40FC0F8011B
:104AE000EB54FC4F81E00EC0F801EB54FC4F1082F8
:104AF0000AC0F801EB54FC4F82E004C0F801EB540B
:104B0000FC4F83E08083BE016F5F7F4FC8010E942E
:104B1000DB2101C08FEFC858DF4F0FB6F894DEBF1E
:104B20000FBECDBFDF91CF911F910F91FF90EF90FE
:104B3000DF90CF90BF90AF9008952F923F924F9209
:104B40005F926F927F928F929F92AF92BF92CF921D
:104B5000DF92EF92FF920F931F93CF93DF93CDB726
:104B6000DEB7C753D1400FB6F894DEBF0FBECDBF3E
:104B70001C010E94290A6B017C01F101E552FE4FE4
:104B800082E08083FE0131968CE291E0DF019C019E
:104B90001D9221503040E1F7F101E552FC4F808138
:104BA000882369F08EE78983108231E0C35DDE4F90
:104BB0003883CD52D14044244394512C07C0C35D67
:104BC000DE4F1882CD52D140412C512C612C712CDA
:104BD0000BE010E0910125523C4FC25DDE4F39835E
:104BE0002883CE52D140910122583C4FC05DDE4F08
:104BF00039832883C053D140B1C0C05DDE4FA88146
:104C0000B981C053D1408C910E94D40C88248394E4
:104C1000912C8C0E9D1E840C951CF40180835201F6
:104C2000FFEFAF1ABF0A0E94290A6B017C01D40171
:104C30002C912E37D9F48BE291E0841995098E36A8
:104C4000910548F431E0C25DDE4FE881F981CE5232
:104C5000D14030830BC0C35DDE4F8881CD52D1403F
:104C60008F5FC35DDE4F8883CD52D14091E0A9169E
:104C7000B10441F481E090E02E3711F080E090E043
:104C80005C0105C0ACE2AA16A1E0BA0618F4250141
:104C9000912C03C0250199249394B6E06B9E90015A
:104CA0001124872D90E00496820F931FFE01EA0DD8
:104CB000FB1DA816B90651F481E0781651F08081E9
:104CC0008A58823050F00D5F1F4F03C091E0791277
:104CD00004C00F5F1F4F7724739480818D3729F4B0
:104CE000711018C00F5F1F4F15C08A3849F42C5F30
:104CF0003F4FA216B30671F40A5F1F4F63940AC0B8
:104D00008E3741F4A1E07A1205C00150110939EF44
:104D1000732E700EA016B10611F4992493940E947C
:104D2000290A6C157D058E059F0520F40E94290A2D
:104D30006B017C010E94290A6C197D098E099F096B
:104D4000613D77408105910538F0F101E258FC4F53
:104D500080810E940D0D25C1911023C1C25DDE4FDF
:104D6000E881F981CE52D1408081882309F40AC1BB
:104D700018C100E010E05101FDE4AF1AFCEFBF0ADA
:104D8000910128523C4FC25DDE4F39832883CE52B9
:104D9000D140D101A752BC4FC05DDE4FB983A8837B
:104DA000C053D140F101E652FC4FCE5CDE4FF98397
:104DB000E883C253D140910129523C4FCC5CDE4F75
:104DC00039832883C453D140D101AA52BC4FCA5C55
:104DD000DE4FB983A883C653D1402BED822E992490
:104DE0009394820C931C3101B6E26B1ABEEF7B0ADE
:104DF000BBC0FE01329681E090E021912E3709F48C
:104E0000B8CF8415950508F4D3C0B3CFE1E0F0E046
:104E1000EC0FFD1FEE0DFF1D80818E3771F4A70191
:104E2000401B510BF50111821082D12C21E030E0A2
:104E30002C0F3D1F200F311F10C0E414F50408F49F
:104E4000B9C0EDCFF901E80FF91F60816D3709F4A2
:104E5000D3940196D5018D939C93F5018081918126
:104E60008417950778F3DD2039F09801BE016F5F54
:104E70007F4FC1010E94EE1FE4E0F0E0EC0FFD1F48
:104E8000E00FF11F80818B3811F120F48A3809F08E
:104E90005DC005C08059823008F058C00BC0A70122
:104EA0004D1951099801BE016F5F7F4FC1010E94EA
:104EB00078204CC0A7014D1951099801BE016F5FC0
:104EC0007F4FC1010E941325D3018C933FC0FE0187
:104ED000E00FF11F8681C25DDE4FE881F981CE527D
:104EE000D1408083FE01E00FF11F8781C05DDE4F5E
:104EF000A881B981C053D1408C93FE01E00FF11F0E
:104F00008085CE5CDE4FE881F981C253D140808339
:104F1000FE01E00FF11F8285CC5CDE4FA881B981D4
:104F2000C453D1408C93FE01E00FF11F8185CA5C10
:104F3000DE4FE881F981C653D1408083811103C0DF
:104F4000D4011C9203C081E0F4018083C35DDE4F75
:104F5000F881CD52D140F150C35DDE4FF883CD5280
:104F6000D140C70101968701C35DDE4F2881CD5234
:104F7000D140222311F07C0149CFF101E552FE4FCF
:104F800080811CC0C05DDE4FA881B981C053D14073
:104F90008C910E94B80C181619060CF42ECE912C88
:104FA000BECE89818E3709F024CF81E090E0E1CE3A
:104FB000019623CFBFEFEB1AFB0A28CFC95CDE4F67
:104FC0000FB6F894DEBF0FBECDBFDF91CF911F911A
:104FD0000F91FF90EF90DF90CF90BF90AF909F9098
:104FE0008F907F906F905F904F903F902F9008959B
:104FF0001F93CF93DF93EC01162FE881F981019085
:10500000F081E02D0995FE01E258FC4F20E032ECE2
:1050100041E050E06081CE010E94651D61E0CE015B
:105020000E947F1D11110AC04091C2095091C3090D
:105030006091C4097091C50944600BC0113089F4B6
:105040004091C2095091C3096091C4097091C5098A
:1050500048604093C2095093C3096093C409709398
:10506000C509FE01E358FC4F8081823029F464EFCA
:1050700071E080E090E006C08330C9F362E370E045
:1050800080E090E00E947B0A81E08EABCE010E941E
:105090000D2580E0DF91CF911F91089560E00C9481
:1050A000F8272F923F924F925F926F927F928F924A
:1050B0009F92AF92BF92CF92DF92EF92FF920F93A7
:1050C0001F93CF93DF93CDB7DEB7CF53D1400FB649
:1050D000F894DEBF0FBECDBF1C01C85CDE4F488315
:1050E00059836A837B83C853D1408CE291E08E015F
:1050F0000F5F1F4FF8019C01119221503040E1F7E2
:1051000091012E5B3D4FC25DDE4F39832883CE5225
:10511000D140F9019C01119221503040E1F7F80192
:105120009C01119221503040E1F70E94290A6B0145
:105130007C01C35DDE4F1882CD52D140CC5CDE4F86
:105140001882C453D140CB5CDE4F1882C553D14086
:10515000CE5CDE4F1882C253D140612C712C812C61
:10516000912C412C512CA10142585C4FC05DDE4F67
:1051700059834883C053D1405801910122593C4F73
:10518000C25CDE4F39832883CE53D14026C27720BC
:1051900069F08EE78983CE5CDE4F1882C253D1401E
:1051A000812C912C44244394512C02C0611031C2B3
:1051B000C1010E940625682E712C00E010E01BC082
:1051C000C05DDE4FE881F981C053D14080810E94EB
:1051D000D40C8E3771F4F5012CE231E0119221509C
:1051E0003040E1F789836624639444244394512C2E
:1051F00010C20F5F1F4F0615170514F312C2C1012D
:105200000E940625833008F4CDC1C05DDE4FE881E1
:10521000F981C053D14080810E94D40C8E3709F4AB
:10522000DAC1C95CDE4F8883C753D140CA5CDE4F08
:105230001882C653D140CA5CDE4F28813981C653DB
:10524000D140820E931EC05DDE4FE881F981C053CC
:10525000D14080810E94D40C8E3709F4BCC1880EE5
:10526000911CC05DDE4FE881F981C053D14080813F
:105270000E94D40CC35DDE4F8883CD52D1408E375F
:1052800009F4A9C18058823048F0C35DDE4F2881FF
:10529000CD52D140203911F02139D9F4F501E40D76
:1052A000F51D9082E2E0F0E0EC0FFD1FE40DF51D2E
:1052B0008082E3E0F0E0EC0FFD1FE40DF51DC35D1F
:1052C000DE4F3881CD52D140308343E0440E511C33
:1052D000AAC1F5012CE231E0119221503040E1F7F2
:1052E000812C912C412C512C9CC1C1010E9406257E
:1052F000482F50E0CE5CDE4F59834883C253D140E3
:1053000000E010E0712C94012D5F3F4FC45CDE4F34
:1053100039832883CC53D1406BC0C05DDE4FE88118
:10532000F981C053D14080810E94D40C8E3709F49A
:105330005BC08D3701F5C1010E9406258823B1F1BC
:10534000C05DDE4FE881F981C053D14080810E9469
:10535000D40CF501E40DF51D20E2822780833FEF98
:10536000431A530A0F5F1F4F4CE2441641E05406A4
:1053700020F187E066C1CC5CDE4F5881C453D14038
:10538000F501E40DF51D552339F020E282278083D5
:105390003FEF431A530AE8CF80835FEF451A550A5F
:1053A0008CE2481681E0580668F0E3CF21E0CC5C3F
:1053B000DE4F2883C453D14005C0CC5CDE4F188239
:1053C000C453D140C45CDE4F48815981CC53D14095
:1053D0004416550658F0C25CDE4FE881F981CE5381
:1053E000D1405182408227C1772473940F5F1F4FB1
:1053F000CE5CDE4F28813981C253D140021713079A
:105400000CF48BCF31E0CE5CDE4F3883C253D140F9
:10541000CAC0C05DDE4FE881F981C053D1408081B0
:105420000E94D40C8E3709F4CAC08D3789F4C101AB
:105430000E940625882309F4E6C0C05DDE4FE8819E
:10544000F981C053D14080810E94D40CF0E28F27B3
:10545000182FBE016F5F7F4FC1010E9496208113FC
:10546000D4C0C35DDE4F2881CD52D140203841F5F4
:10547000F101E259FC4F808191810E9791838083E5
:105480009E01215F3F4FAC01B901C25DDE4F8881B3
:10549000CE52D140C15DDE4F9881CF52D1400E94A3
:1054A0002439D101A059BC4F88E0FE013596019006
:1054B0000D928A95E1F7F101E658FC4F8D852BC0DE
:1054C000C35DDE4F3881CD52D140313861F5F101F5
:1054D000E259FC4F808191810897918380839E01DE
:1054E000275F3F4FAC01B901C25DDE4F8881CE52CC
:1054F000D140C15DDE4F9881CF52D1400E94243906
:10550000F101E858FC4F8D819E8191838083F101E8
:10551000E658FC4F8F8190E0919581959109918398
:10552000808380E08EC0C35DDE4F4881CD52D14084
:10553000403961F4F101E259FC4F808191810F976C
:10554000918380839E01205F3F4F13C0C35DDE4F78
:105550005881CD52D140513909F059C0F101E25979
:10556000FC4F808191814597918380839E012A5EC3
:105570003F4FAC01B901C25DDE4F8881CE52D140B0
:10558000C15DDE4F9881CF52D1400E942439D101B4
:10559000A059BC4F88E0FE01359601900D928A9586
:1055A000E1F7BFCF712C0E94290A6C157D058E058D
:1055B0009F0598F40E94290A6B017C010EC021E02E
:1055C000CB5CDE4F2883C553D14031E0CE5CDE4F4B
:1055D0003883C253D140772473940E94290A6C19EE
:1055E0007D098E099F09C85CDE4F288139814A8177
:1055F0005B81C853D140621773078407950708F48D
:10560000C6CD81E01EC085E01CC084E01AC082E0E7
:1056100018C0CE5CDE4F3881C253D140311103C077
:10562000EECD612CBFCFCB5CDE4F4881C553D1405E
:10563000442309F45ACEC1010E9406258111E9CE06
:1056400083E0C15CDE4F0FB6F894DEBF0FBECDBF66
:10565000DF91CF911F910F91FF90EF90DF90CF904E
:10566000BF90AF909F908F907F906F905F904F9082
:105670003F902F9008952F923F924F925F926F929A
:105680007F928F929F92AF92BF92CF92DF92EF92D2
:10569000FF920F931F93CF93DF93CDB7DEB7CD5516
:1056A000D2400FB6F894DEBF0FBECDBF4C01AB01A8
:1056B0003E0124E4621A2EEF720A84E6F30111928D
:1056C0008A95E9F7BE016F5F7F4F27E531E0FB0167
:1056D000C90111920197E9F728E1ECE1F2E0DE015E
:1056E000A05EBD4F01900D922A95E1F7EE24E39460
:1056F00008E110E09E01205E3D4FC4010E948A1E19
:10570000C4010E940D2503E0202E312CF401E55246
:10571000FE4FC85ADD4FF983E883C855D240940143
:1057200022593C4FC65ADD4F39832883CA55D2408F
:10573000C95ADD4F6882C755D240F72CC4018E5B31
:105740009D4FC45ADD4F99838883CC55D240E0EBFE
:10575000F3E025913491CB5ADD4F39832883C55529
:10576000D240CE01885A9E4FC55BDD4F9983888316
:10577000CB54D240FE01E85CFD4FC35BDD4FF983A3
:10578000E883CD54D2409E01265C3D4FC15BDD4F86
:1057900039832883CF54D240CE01865B9D4FCF5AA8
:1057A000DD4F99838883C155D240FE01E45CFD4FF3
:1057B000CD5ADD4FF983E883C355D2403E01F2EC68
:1057C0006F1AFDEF7F0A2E0120EC421A2DEF520ACC
:1057D0000CC148E853E160E070E0C4010E94512828
:1057E0008111BAC0C65ADD4FE881F981CA55D2404D
:1057F00080819181439709F0AFC083E1C45ADD4FA6
:10580000E881F981CC55D240C95ADD4FA881C755EE
:10581000D240BF2D01900D928A95E1F7CB5ADD4F12
:105820006881C555D240CA5ADD4F7881C655D240ED
:10583000CE01885A9E4F0E941D39C25BDD4FF88110
:10584000CE54D240FF93C35BDD4F2881CD54D2406C
:105850002F93C05BDD4F3881C055D2403F93C15B71
:10586000DD4F8881CF54D2408F93CE5ADD4F98813F
:10587000C255D2409F93CF5ADD4FE881C155D240E7
:10588000EF93CC5ADD4FF881C455D240FF93CD5AE7
:10589000DD4F2881C355D2402F937F926F925F9244
:1058A0004F926E013EEBC31A3DEFD30ADF92CF92C7
:1058B0005E018CEBA81A8DEFB80ABF92AF928E01F1
:1058C000085B1D4F1F930F93CE018A5B9D4F9F93E3
:1058D0008F93C45BDD4F9881CC54D2409F93C55BBE
:1058E000DD4FE881CB54D240EF93FF92C95ADD4F90
:1058F000F881C755D240FF930E9486390FB6F894BD
:10590000DEBF0FBECDBF0A9711F081E081C0F80164
:1059100080819181892B01F1F5018081918100972E
:10592000D9F00D97C8F4F601808191810097A1F01C
:10593000809790F4F20180819181489768F4F30197
:1059400080819181CC9740F4C45CDD4F888199813E
:10595000CC53D240CC9770F0F1E02F1A310868EEAA
:1059600073E080E090E00E947B0A12141304ECF1D3
:1059700090E04CC080E097E00E945016C45CDD4F80
:10598000A880CC53D240F301C080F201E080CE5B0E
:10599000DD4F28813981C254D240CC5BDD4F488134
:1059A0005981C454D240C85BDD4F68817981C854A5
:1059B000D24080E097E00E944D14082FCE5BDD4F6F
:1059C0002881C254D240CC5BDD4F4881C454D240C0
:1059D000C85BDD4F6881C854D24080E097E00E94E8
:1059E000161791E0882391F0B7CFBE016F5F7F4F0C
:1059F000C4010E94F91DC85ADD4FE881F981C855DC
:105A0000D2408081882309F4E4CEA6CF81E08927A3
:105A1000C35ADD4F0FB6F894DEBF0FBECDBFDF9186
:105A2000CF911F910F91FF90EF90DF90CF90BF909B
:105A3000AF909F908F907F906F905F904F903F902E
:105A40002F900895CF93DF93EC0180E2EDECF7E027
:105A5000DF01982F1D929A95E9F71092CC071092CA
:105A6000CB07EAEAF7E0DF011D928A95E9F7109289
:105A7000A9071092A8070E94D70681E08E8384E0D0
:105A800090E0DF91CF910C94A50A81E08093A70765
:105A90006093CA071092A9071092A80708950C9462
:105AA000452D8091CB079091CC07891B089590914B
:105AB000CC078091CB07981748F4E92FF0E0E35327
:105AC000F84F80819F5F9093CC07089580E0089500
:105AD000CF93DF93EC010E9423071E82DF91CF91C9
