:100000000C9409040C94E70E0C94180F0C94490FEF
:100010000C947A0F0C94AB0F0C94DC0F0C940D1015
:100020000C943E100C9438040C9438040C9438044E
:100030000C946F100C9438040C9438040C94CB106E
:100040000C9438040C9438040C9438040C94380440
:100050000C9438040C9438040C9438040C94A610B6
:100060000C9438040C94FB130C9438040C9438044E
:100070000C9438040C9438040C9438040C94380410
:100080000C9438040C9438040C9438040C94380400
:100090000C9436140C9438040C9438040C945D239E
:1000A0000C9438040C9438040C9438040C943804E0
:1000B0000C9438040C9438040C9438040C943804D0
:1000C0000C9438040C9438040C9438045553422092
:1000D000706F727420737461727465642E2E2E00BA
:1000E0003347206D6F64756C652072656164792E8D
:1000F0002E2E005374617274696E6720696E2073CE
:1001000074616E642D616C6F6E65206D6F64650047
:1001100047505320737461727465640047505320D4
:100120004E4F542073746172746564003347206DC0
:100130006F64756C65206E6F742073746172746582
:1001400064000A2A2A2A2A2A2A2A2A2A2A2A2A2A1F
:100150002A2A2A2A2A2A2A2A2A2A2A2A2A2A2A2AFF
:100160002A2A2A004C617469747564652028696EB6
:100170002064656772656573293A20004C6F6E676D
:1001800069747564652028696E20646567726565A9
:1001900073293A2000446174653A20005554435F46
:1001A00074696D653A2000416C7469747564653AD0
:1001B000200053706565644F473A2000436F7572A5
:1001C00073653A20000044617461206E6F74206191
:1001D0007661696C61626C652E2E2E2E004750533D
:1001E000206E6F74207374617274656400BE02C601
:1001F00002CE02D602DC02E302EB02F502FF0208A5
:100200000311031E032C0333033B0344034A03512E
:10021000035A0361036B0376037E0385038B03900C
:100220000396039C03A203A903B003B703BF03C84B
:1002300003D203DA03E103E703ED03F503FC030351
:10024000041D0426042C0434043B044204490451D4
:10025000045804610467046D0475047C04860491E9
:100260000497049D04A404AE04B6042A2A2A2A2A68
:100270002A2A2A2A2A2A2A2A2A2A2A2A2A2A2A0008
:1002800044616E67657221204C6F772062617474DF
:1002900065727921002A2A2A2A2A2A2A2A2A2A2A1F
:1002A0002A2A2A2A2A2A2A2A2A00C104CA04D40469
:1002B000DD04E504EF04FB04050510051C052B43D4
:1002C00046554E3D31002B4346554E3D34002B43A1
:1002D00046554E3D30002B43504F46002B43434C78
:1002E0004B3D002B43474154543F002B434741545F
:1002F000543A2031002B43474154543A2030002BCC
:1003000043474154543D31002B43474154543D3001
:10031000002B4347534F434B434F4E543D002B4319
:10032000534F434B415554483D312C002B435049CA
:100330004E3D002B53494D45493F002B53494D45F8
:10034000493A20002B43494D49002B465343443D35
:10035000002B465343443D2E2E002B465343443A34
:10036000002B465341545452493D002B46534154AF
:100370005452493A20002B465344454C3D002B46ED
:10038000534D454D002B46534C53002B43535100C6
:100390002B434F5053002B434E4D50002B434E42A6
:1003A00050002B434E414F50002B434E53445000BE
:1003B0002B435053493F002B435053493A20002BC5
:1003C000434E534D4F443F002B434E534D4F443A01
:1003D00020002B4343494E464F002B435343484E86
:1003E000002B43535250002B43525553002B435282
:1003F00055533A20002B434E535653002B434E5334
:10040000564E004E6574776F726B20737572766509
:100410007920737461727465642E2E2E002B4653FE
:100420004C4F43413D002B4950523D002B43534418
:1004300056433D002B434D55543D002B434D4943FE
:100440003D002B434C564C3D002B564D5554453DDD
:10045000002B434C564C3D002B43545846494C45C9
:10046000002B43474D4D002B43474D52002B434734
:100470004D523A20002B435245473F002B435245F3
:10048000473A20302C002B435245473A20302C3538
:10049000002B434C4950002B434D5449002B4350F3
:1004A00057443D002B43525846494C453D002B4391
:1004B000475245473F002B43475245473A20302C8F
:1004C000002B434750533D312C002B43475053439F
:1004D0004F4C44002B43475053484F54002B434745
:1004E00050533D30002B4347505355524C3D002B49
:1004F0004341475053494E464F3A002B43475053D0
:10050000494E464F002B43475053494E464F3A0001
:100510002B434750534155544F3D31002B434750D7
:10052000534155544F3D3000500564058A05B105CF
:10053000D105E905F70507061C06320643064F06F6
:10054000560673069106A706B506C506E806EE062A
:10055000416C61726D204D6F6465206D61746368DC
:10056000657320005B446179203A20686F7572736F
:10057000203A206D696E75746573203A2073656347
:100580006F6E64735D202D3E20005B4461746520B6
:100590003A20686F757273203A206D696E757465C4
:1005A00073203A207365636F6E64735D202D3E2067
:1005B000005B486F757273203A206D696E757465C3
:1005C00073203A207365636F6E64735D202D3E2047
:1005D000005B4D696E75746573203A207365636FB7
:1005E0006E64735D202D3E20005B5365636F6E6407
:1005F000735D202D3E20004F6E6365207065722074
:100600007365636F6E6400496E636F7272656374C5
:1006100020616C61726D206D6F6465005B25303206
:10062000753A253032753A253032753A25303275B3
:100630005D005B253032753A253032753A2530320F
:10064000755D005B253032753A253032755D005B93
:10065000253032755D005B446179203A20686F7502
:100660007273203A206D696E75746573205D202D5C
:100670003E20005B44617465203A20686F75727398
:10068000203A206D696E75746573205D202D3E20C3
:10069000005B486F757273203A206D696E757465E2
:1006A000735D202D3E20005B4D696E757465735D32
:1006B000202D3E20004F6E636520706572206D69AD
:1006C0006E7574650025732C20253032752F25300A
:1006D00032752F253032752C20253032753A253071
:1006E00032753A25303275006572726F72002530AE
:1006F00032752563253032752563253032752563C3
:1007000025303275256325303275256325303275E5
:100710002563253032750000000809000000000044
:1007200000000000000000000000000000000000C9
:1007300000000000000000000000000000000000B9
:10074000000000000000000000000102081010205E
:10075000408004081020400202040810204080015C
:100760000280204004200101020408102001408082
:1007700040800102080408800410040201050505F8
:10078000050303030301010104040306060606062C
:100790000606060104050105010302020202020227
:1007A000010202050504040304040103040707070A
:1007B00000202326292C2F32002225282B2E3134ED
:1007C000002124272A2D3033494E46494E49545999
:1007D0004E414E000020410000C84200401C46200F
:1007E000BCBE4CCA1B0E5AAEC59D74CDCCCC3D0AC6
:1007F000D7233C17B7D13877CC2B329595E6241FF9
:10080000B14F0A00BB0EFC1B191C171DAB1EA92102
:10081000B82411241FBECFEFD1E2DEBFCDBF15E05B
:10082000A0E0B2E0ECE3FDE500E00BBF02C0079002
:100830000D92A43BB107D9F710E1A4EBB5E001C0DC
:100840001D92AE34B107E1F718E0C2E1D8E000E054
:1008500006C022970109FE010BBF0E941C29C4306B
:10086000D10780E00807A9F70E9419150C949C2E67
:100870000C94000085E69BE00E941E1D6CEC70E06D
:1008800085E69BE00E94821E88EB95E00E94430B68
:100890008093B705813011F08D3FD1F460EE70E0A8
:1008A00085E69BE00E94821E63EF70E085E69BE098
:1008B0000E94821E88EB95E00E94F70C8093B6059B
:1008C000813019F460E171E005C06CE171E002C0B3
:1008D0006CE271E085E69BE00C94821E62E471E0BC
:1008E00085E69BE00E94821E8091B605813009F06A
:1008F00077C088EB95E00E94FD0C8093B7058130AE
:1009000009F067C064E671E085E69BE00E94951DF2
:1009100061EB78E088EB95E00E94390EAB01BC01F9
:1009200085E69BE00E94A01E6CE771E085E69BE0F7
:100930000E94951D6EEB78E088EB95E00E94390EE1
:10094000AB01BC0185E69BE00E94A01E65E971E059
:1009500085E69BE00E94951D6CEC78E085E69BE0C7
:100960000E945F1E6CE971E085E69BE00E94951D88
:1009700063ED78E085E69BE00E945F1E67EA71E028
:1009800085E69BE00E94951D6CED78E085E69BE096
:100990000E945F1E62EB71E085E69BE00E94951D60
:1009A00066EE78E085E69BE00E945F1E6CEB71E0EE
:1009B00085E69BE00E94951D6CEE78E085E69BE065
:1009C0000E945F1E65EC71E085E69BE00E94821E3E
:1009D00013C066EC71E085E69BE00E94951D0CC09B
:1009E0006DED71E085E69BE00E94951D60E972EE79
:1009F00080E090E00E94421160ED77E080E090E0BE
:100A00000C944211CF93DF93FC01E753FF4F21E099
:100A10002083FC01E553FF4F40E052EC61E070E0C1
:100A20004083518362837383FC01E653FF4F20832D
:100A3000DC011C92FC01EA50FF4F1082BC0163579D
:100A40007F4F24E1EB01E22F1992EA95E9F7AF55C8
:100A5000BF4FED01E22F1992EA95E9F7EC01CB5473
:100A6000DF4FFE0111922A95E9F721E630E74EE6C5
:100A7000FB0120833183428325E0EBE0F2E001902B
:100A80000D922A95E1F728E0E1E1F2E0DE01019024
:100A90000D922A95E1F7DF91CF9108952F923F9221
:100AA0004F925F926F927F928F929F92AF92BF927E
:100AB000CF92DF92EF92FF920F931F93CF93DF932A
:100AC000CDB7DEB7C257D1090FB6F894DEBF0FBE5F
:100AD000CDBF1C01AA966FAFAA97AB967FAFAB971D
:100AE000AC964FAFAC97AD965FAFAD97AE962FAFCC
:100AF000AE97AF963FAFAF97E0960FAFE097E19616
:100B00001FAFE197C957DF4F08811981C758D040FF
:100B1000FE01319684E6DF011D928A95E9F7AA96D7
:100B2000AFADAA97AB96BFADAB97FD01019000208A
:100B3000E9F73197EA1BFB0BC757DF4F8881998193
:100B4000C958D04002970CF4C1C2AC968FADAC9797
:100B5000AD969FADAD97DC010D900020E9F71197A0
:100B6000A81BB90BAE17BF072CF0EA17FB072CF038
:100B70003F0101C03D012F0102C02D013F01C757B8
:100B8000DF4FA881B981C958D0401297D9F1AE96EC
:100B9000AFADAE97AF96BFADAF97FD01019000200E
:100BA000E9F73197EA1BFB0BE615F7050CF43F015B
:100BB0004E165F060CF42F01C757DF4FE881F9810D
:100BC000C958D0403397F1F0E096AFADE097E19689
:100BD000BFADE197FD0101900020E9F73197EA1BD5
:100BE000FB0BE615F7050CF43F014E165F0654F4B7
:100BF0002F0108C068EE73E080E090E00E9442118F
:100C00000150110910161106ACF3F1E0A696FFAFE2
:100C1000A697C10186539F4FA9969FAF8EAFA99704
:100C20008E010F5F1F4F44C20E94F0104B015C0108
:100C3000A996AEADBFADA9978C910E949213892B56
:100C400009F021C20E94F010681979098A099B09EC
:100C50006C157D058E059F0508F43BC214C2A6964F
:100C6000BFADA697B13091F5A7961FAF0EAFA7976E
:100C700016C0A996EEADFFADA99780810E94AE1374
:100C8000A796AEADBFADA7978D93A796BFAFAEAFFA
:100C9000A79764E170E080E090E00E944211A7967F
:100CA0008EAD9FADA797801B910B861597050CF312
:100CB000C757DF4FE881F981C958D04032970CF40B
:100CC00064C0641475040CF45BC05FC0A696FFADED
:100CD000A697A996AEADBFADA9978C91F23049F514
:100CE0000E949213892B09F193012F5F3F4FA99620
:100CF000EEADFFADA9978081E2962FAFE297E39624
:100D00003FAFE3970E94AE13D801A60DB71D8C9399
:100D100064E170E080E090E00E944211E2962FAD25
:100D2000E297E3963FADE3973901641475046CF5DF
:100D30002FC00E949213892B59F1DE011296F801FF
:100D400002C08D918193CF01801B910B8415950575
:100D5000C4F3A996EEADFFADA99780810E94AE13B2
:100D6000920157FE02C020E030E0FE01E20FF31FC7
:100D7000808364E170E080E090E00E94421108C04E
:100D8000F2E0A696FFAFA69703C0A6961FAEA69761
:100D9000AA966FADAA97AB967FADAB97C8010E949C
:100DA000C729892B09F44CC06AE172E0AA968FAD7D
:100DB000AA97AB969FADAB970E94B729009759F4BD
:100DC00071018AECE80EF11CD7018C910E94AE13E0
:100DD0008097D1F70DC066E272E0AA968FADAA9710
:100DE000AB969FADAB970E94B729009749F326C0F9
:100DF000810109501F4FF80111821082D7018C9197
:100E00000E94AE133AE0D32E7101BAECEB0EF11C46
:100E1000992787FD9095C097F80140815181D49E14
:100E20009001D59E300D1124820F931F91838083F2
:100E3000D7018C910E94AE138D3051F781E058C1DB
:100E4000AC966FADAC97AD967FADAD97C8010E94E3
:100E5000C729892B09F455C0C757DF4FE881F981AD
:100E6000C958D04032970CF44CC06AE172E0AC969D
:100E70008FADAC97AD969FADAD970E94B729009707
:100E800059F47101FAECEF0EF11CD7018C910E941C
:100E9000AE138097D1F70DC066E272E0AC968FADCD
:100EA000AC97AD969FADAD970E94B729009749F3D7
:100EB00026C0810109501F4FF80111821082D7010D
:100EC0008C910E94AE132AE0D22E7101BAECEB0E87
:100ED000F11C992787FD9095C097F80140815181B9
:100EE000D49E9001D59E300D1124820F931F9183C3
:100EF0008083D7018C910E94AE138D3051F782E030
:100F0000F7C0AE966FADAE97AF967FADAF97C80105
:100F10000E94C729892B09F455C0C757DF4FE881C4
:100F2000F981C958D04033970CF44CC06AE172E0A3
:100F3000AE968FADAE97AF969FADAF970E94B72993
:100F4000009759F47101FAECEF0EF11CD7018C9166
:100F50000E94AE138097D1F70DC066E272E0AE96A4
:100F60008FADAE97AF969FADAF970E94B729009710
:100F700049F326C0810109501F4FF80111821082E8
:100F8000D7018C910E94AE139AE0D92E7101BAEC70
:100F9000EB0EF11C992787FD9095C097F8014081D1
:100FA0005181D49E9001D59E300D1124820F931F44
:100FB00091838083D7018C910E94AE138D3051F7BD
:100FC00083E096C0E0966FADE097E1967FADE19744
:100FD000C8010E94C729892B09F455C0C757DF4FA4
:100FE000E881F981C958D04034970CF44CC06AE1CB
:100FF00072E0E0968FADE097E1969FADE1970E9499
:10100000B729009759F47101FAECEF0EF11CD701E2
:101010008C910E94AE138097D1F70DC066E272E00A
:10102000E0968FADE097E1969FADE1970E94B729DA
:10103000009749F326C0810109501F4FF801118222
:101040001082D7018C910E94AE13BAE0DB2E7101A1
:10105000BAECEB0EF11C992787FD9095C097F8012B
:1010600040815181D49E9001D59E300D1124820F74
:10107000931F91838083D7018C910E94AE138D3092
:1010800051F784E035C0A996EEADFFADA9978081F8
:101090000E949213892B09F0E2CD0E94F01068158E
:1010A00079058A059B0520F40E94F0104B015C0134
:1010B0000E94F010681979098A099B096C157D0551
:1010C0008E059F0508F4B4CD80E012C02F013F01CA
:1010D00099CD6AE070E080E090E00E9442110E94A9
:1010E000F010681579058A059B0508F0A1CD9CCD07
:1010F000CE58DF4F0FB6F894DEBF0FBECDBFDF91E5
:10110000CF911F910F91FF90EF90DF90CF90BF9004
:10111000AF909F908F907F906F905F904F903F9097
:101120002F9008958F929F92AF92BF92CF92DF92AD
:10113000EF92FF920F931F93470158011F92E1E036
:10114000EF931F921F9269017A018B019B01AB0102
:101150000E944E050F900F900F900F901F910F91CE
:10116000FF90EF90DF90CF90BF90AF909F908F90C7
:101170000895CF92DF92EF92FF920F931F93CF9338
:10118000DF93EC018C0106531F4FF801608182E36D
:1011900092E00E947E14F80160818DE00E9471143B
:1011A000F80160818AE00E94711468EC70E080E0D0
:1011B00090E00E9442110E94F010C12CD12C7B01C2
:1011C0008C0128EE33E040E050E065E372E0CE01B0
:1011D0000E949208813011F4888301C01882DF9147
:1011E000CF911F910F91FF90EF90DF90CF900895D6
:1011F0002F923F924F925F926F927F928F929F9227
:10120000AF92BF92CF92DF92EF92FF920F931F9314
:10121000CF93DF9300D000D000D0CDB7DEB71C0154
:101220007A8369835C834B833E832D832701380156
:101230000E94F0104B015C01810106531F4FF80121
:1012400080810E94E7131BC0F801608182E392E075
:101250000E947E14F801608189819A810E947E1427
:10126000F801608189E195E00E947E14F1E0CF1AD7
:10127000D1086AEF70E080E090E00E944211F8012E
:1012800080810E949213892B79F40E94F0106819D2
:1012900079098A099B09641575058605970520F467
:1012A0001C141D048CF2E5CF1F9282E08F931F92D5
:1012B0001F92730162010D811E819801A8016B814B
:1012C0007C81C1010E944E050F900F900F900F90EE
:1012D00026960FB6F894DEBF0FBECDBFDF91CF913B
:1012E0001F910F91FF90EF90DF90CF90BF90AF9044
:1012F0009F908F907F906F905F904F903F902F9036
:101300000895CF92DF92EF92FF920F931F93EAE03E
:10131000CE2ED12C10E1E12E17E2F12E00E010E0EC
:101320000E94F8081F910F91FF90EF90DF90CF90EF
:1013300008952F923F924F925F926F927F928F9279
:101340009F92AF92BF92CF92DF92EF92FF920F9354
:101350001F93CF93DF931C016B01EA012801390130
:101360000E94F0104B015C01810106531F4FF801F0
:1013700080810E94E7131AC0F801608182E392E045
:101380000E947E14F8016081C6010E947E14F8015B
:10139000608189E195E00E947E14F1E0EF1AF10886
:1013A0006AEF70E080E090E00E944211F8018081D5
:1013B0000E949213892B79F40E94F0106819790920
:1013C0008A099B09641575058605970520F41E1486
:1013D0001F0494F2E5CF1F9281E08F931F921F921A
:1013E000730162018E019E01AE01BE01C1010E9426
:1013F0004E050F900F900F900F90DF91CF911F919E
:101400000F91FF90EF90DF90CF90BF90AF909F90A3
:101410008F907F906F905F904F903F902F900895A6
:10142000EF92FF920F931F932AE0E22EF12C00E13E
:1014300017E220E030E00E9499091F910F91FF9080
:10144000EF900895CF93DF93EC018AE69BE00E9432
:10145000CE1EFE01E553FF4F40E052EC61E070E02C
:101460004083518362837383C653DF4F488160E0BA
:1014700072EC81E090E0DF91CF910C94F012EF924A
:10148000FF920F931F93CF93DF93EC01F62E82E030
:10149000681709F48BC0861738F0662309F4C2C0B8
:1014A00091E06913E8C00BC084E0681709F48AC0B2
:1014B000681708F493C095E06913DDC0ACC08FE0F5
:1014C00099E00E949816E82EFE01E753FF4F8081B5
:1014D000853019F4CE010E94220A61E08AE20E945E
:1014E0004B1260E08AE20E94641268EC70E080E0D7
:1014F00090E00E94421161E08AE20E946412CE01F3
:101500000E94B90813E00FC060E08AE20E946412F2
:1015100068EB7BE080E090E00E94421161E08AE2AB
:101520000E94641211500FE08881811103C01111D3
:1015300095C0A1C0112309F49EC045E352E06DE6B9
:1015400072E0CE010E94100A45E352E065E772E0C6
:10155000CE010E94100AEDEEF1E0259134918E014A
:101560000F5F1F4FB901C8010E94A1292AE132E093
:1015700045E352E0B801CE010E9481099DE19E152C
:1015800008F461C06BE672E085E69BE00E94821E73
:1015900060E872E085E69BE00E94821E65E972E0E9
:1015A00085E69BE00E94821E83E056C0FE01E75361
:1015B000FF4F8081853019F4CE010E94220AEDEEA2
:1015C000F1E017C0FE01E753FF4F8081853019F429
:1015D000CE010E94220AEFEEF1E00BC0FE01E753BC
:1015E000FF4F8081853019F4CE010E94220AE1EF7D
:1015F000F1E0859194918E010F5F1F4FBC01C801EE
:101600000E94A1292AE132E045E352E0B801CE016F
:101610000E94810918C0FE01E653FF4F80810E949D
:10162000641313C060E08AE20E94641268EE73E003
:1016300080E090E00E944211CE010E94B9088881AA
:10164000882319F018C0813029F4C753DF4FF8827E
:1016500081E012C0823084F081950EC064EF71E0A9
:1016600080E090E00E944211CE010E94B908015032
:1016700009F05ACF49CF80E0DF91CF911F910F91B0
:10168000FF90EF900895CF93DF93EC0182E00E94EA
:10169000BF0E83E00E94BF0E8091240981110DC00E
:1016A00081E199E00E94E11B81E199E00E94CB1B5E
:1016B00081E199E00E94691704C081E199E00E94EC
:1016C000CB1BCE010E94220A61E0CE01DF91CF91B7
:1016D0000C943F0A7F928F929F92AF92BF92CF92CB
:1016E000DF92EF92FF920F931F93CF93DF93EC0162
:1016F000962ED42EC52E822E732E8C010F5F1F4F77
:1017000021E0621323C0EAEAF2E085919491BC01E2
:10171000C8010E94A1291F929F921F930F9389EBEA
:1017200092E09F938F9382E08F931F92CE01875018
:101730009F4F9F938F930E94102A8DB79EB70A9652
:101740000FB6F8949EBF0FBE8DBFECC0E1E0F2E093
:1017500085919491BC01C8010E94A1295E0199EF75
:10176000A90EB11CCE0183579F4F9F938F931F9358
:101770000F9388E392E09F938F9382E08F931F9261
:10178000BF92AF920E94102AEDB7FEB73A960FB6FD
:10179000F894FEBF0FBEEDBF95E0F92E26E432E0CF
:1017A00045E352E0B501CE010E948109FA948130EF
:1017B00021F0F110F3CF8EEF0CC1FF20E1F37E0199
:1017C000F1EAEF0EF11CF7018081E3E0F2E0811114
:1017D0001CC085919491BC01C8010E94A1291F934E
:1017E0000F938CE492E09F938F9382E08F931F92EC
:1017F000BF92AF920E94102A8DB79EB708960FB67F
:10180000F8949EBF0FBE8DBF22C085919491BC01FC
:10181000C8010E94A129FF92EF92CE018B549F4FE5
:101820009F938F931F930F9380E592E09F938F93E5
:1018300082E08F931F92BF92AF920E94102AEDB761
:10184000FEB73C960FB6F894FEBF0FBEEDBF85E025
:10185000F82E2AE132E045E352E0B501CE010E94C4
:101860008109813041F0FA94A1F7882309F4A3CFCC
:10187000823009F4A0CFE2EBF2E085919491BC01B3
:10188000C8010E94A1297F928F92CF92DF921F936D
:101890000F9384E593E09F938F9382E08F931F9241
:1018A000BF92AF920E94102A8DB79EB70C960FB6CA
:1018B000F8949EBF0FBE8DBFBAE0FB2E26E432E047
:1018C00045E352E0B501CE010E948109FA948130CE
:1018D00019F0F110F3CF76C0FF2009F473C0EAEAE3
:1018E000F2E085919491BC01C8010E94A129892D43
:1018F000992787FD90959F939F921F930F9389EB54
:1019000092E09F938F9382E08F931F92BF92AF924A
:101910000E94102AEDB7FEB73A960FB6F894FEBFB4
:101920000FBEEDBFBE0167507F4FCC24C394D12CB6
:1019300018ECE12E1FEAF12E00E010E026E432E080
:1019400045E352E0CE010E94F808813009F03CC026
:10195000F3E09F123BC0E4EBF2E0859194915E01CD
:101960002FEFA21AB20ABC01C5010E94A1290E9450
:10197000F010C12CD12C7B018C0120E63AEE40E026
:1019800050E0B501CE010E949208813009F5F12C9A
:101990008E0106531F4FF80180810E94AE13FE0195
:1019A000EF0DF11DE750FF4F8083F394F801808124
:1019B0000E949213892B79F7CF0DD11DC750DF4FAD
:1019C000188204C08DEF05C08CEF03C081E001C018
:1019D0008BEFDF91CF911F910F91FF90EF90DF90F0
:1019E000CF90BF90AF909F908F907F9008952BE104
:1019F00035E0A90161E00C946A0B7F928F929F926F
:101A0000AF92BF92CF92DF92EF92FF920F931F930C
:101A1000CF93DF93EC01E6EBF2E0859194918E0198
:101A20000F5F1F4FBC01C8010E94A129E8EBF2E043
:101A3000859194917E0125E1E20EF11CBC01C70164
:101A40000E94A129A701B801CE010E94100A81308D
:101A500011F08EEF00C18E0107501F4F80E092E021
:101A6000F8019C01119221503040E1F70E94F010E2
:101A70006B017C01712C5E013AECA30EB11C04C019
:101A80000E94F0106B017C01F50180810E9492138D
:101A9000892B09F0C0C00E94F0106C197D098E09D5
:101AA0009F09683873418105910508F4ABC0B3C044
:101AB0000E94F0106B017C014E01870C911CF40117
:101AC000E850FF4F80818D3009F4B9C00E94F010BA
:101AD0006C197D098E099F0968387341810591054C
:101AE00098F2ADC0882309F48BC07E0137E0E31A79
:101AF0003DEFF30A80E2F7018083FE01E650FD4FDF
:101B000010826EE573E0C8010E94A829BC01C701DC
:101B10000E94AC296EE573E080E090E00E94A82965
:101B2000BC0180E693E00E94B729009711F48BE294
:101B300001C08DE2F70180838E010A5F1C4F80E2B5
:101B4000F8018083FE01E95FFC4F10826EE573E0CF
:101B500080E090E00E94A829BC01C8010E94AC2945
:101B60006EE573E080E090E00E94A829BC0182E667
:101B700093E00E94B729009711F48DE201C08BE237
:101B8000F80180836EE573E080E090E00E94A82970
:101B9000BC01CE018C5E9C4F0E94C0296EE573E0B3
:101BA00080E090E00E94A829BC01CE01855E9C4F98
:101BB0000E94C0296EE573E080E090E00E94A829B1
:101BC000BC01CE018C5D9C4F0E94C0296EE573E084
:101BD00080E090E00E94A829BC01CE01825D9C4F6C
:101BE0000E94C0296EE573E080E090E00E94A82981
:101BF000BC01CE018C5C9C4F0E94C02981E02BC0AF
:101C000080E029C00E94F0106C157D058E059F05AF
:101C100008F03ACF35CFF50180810E94AE13FE0166
:101C2000E70DF11DE750FF4F808373940E94F01081
:101C30006C157D058E059F0508F03ECF39CFF40168
:101C4000E750FF4F1082FE01E750FF4F80818C323A
:101C500009F048CFFECEDF91CF911F910F91FF90F9
:101C6000EF90DF90CF90BF90AF909F908F907F903C
:101C70000895CF92DF92EF92FF920F931F93CF932D
:101C8000DF93CDB7DEB72B970FB6F894DEBF0FBE4C
:101C9000CDBF8B01FB0125812E3251F486818E321E
:101CA00009F453C08181898382818A831B8208C0A1
:101CB000FB018181898382818A8383818B831C825A
:101CC000CE0101962B870E948329BC01882777FDCE
:101CD0008095982F0E9409276B017C01CE010A96FE
:101CE0002B85D8012E3249F41396FE0131962D91A1
:101CF0002193E817F907D9F708C01496FE01319629
:101D00002D912193E817F907D9F71886CE0101968E
:101D10000E947F2920E030E040E752E40E946E26D6
:101D20009B01AC016C2D7D2D8E2D9F2D0E940626D2
:101D3000472F382F292F862F942FA32FB22FF8014A
:101D400020812D3229F4B05803C080E090E0DC01FE
:101D5000682F792F8A2F9B2F2B960FB6F894DEBF12
:101D60000FBECDBFDF91CF911F910F91FF90EF90EC
:101D7000DF90CF90089588EB95E00C940205F894DD
:101D8000883018F5833091F020F4813059F060F4F8
:101D900007C0863079F0873079F0843071F408C05C
:101DA000E8980BC0E99809C0EA9807C0EB9805C00D
:101DB000EC9803C0EE9801C0EF98E82FF0E0EE0F2A
:101DC000FF1FEE50F74F11821082789408951F92F2
:101DD0000F920FB60F9211240BB60F922F933F93D1
:101DE0004F935F936F937F938F939F93AF93BF9323
:101DF000EF93FF938091F2089091F308892B29F0DB
:101E0000E091F208F091F3080995FF91EF91BF91ED
:101E1000AF919F918F917F916F915F914F913F9182
:101E20002F910F900BBE0F900FBE0F901F90189523
:101E30001F920F920FB60F9211240BB60F922F9391
:101E40003F934F935F936F937F938F939F93AF9342
:101E5000BF93EF93FF938091F4089091F508892B3D
:101E600029F0E091F408F091F5080995FF91EF91C0
:101E7000BF91AF919F918F917F916F915F914F91A2
:101E80003F912F910F900BBE0F900FBE0F901F90A0
:101E900018951F920F920FB60F9211240BB60F9246
:101EA0002F933F934F935F936F937F938F939F9362
:101EB000AF93BF93EF93FF938091F6089091F7084B
:101EC000892B29F0E091F608F091F7080995FF9128
:101ED000EF91BF91AF919F918F917F916F915F91A2
:101EE0004F913F912F910F900BBE0F900FBE0F900F
:101EF0001F9018951F920F920FB60F9211240BB6D8
:101F00000F922F933F934F935F936F937F938F9392
:101F10009F93AF93BF93EF93FF938091F8089091B5
:101F2000F908892B29F0E091F808F091F908099552
:101F3000FF91EF91BF91AF919F918F917F916F91A1
:101F40005F914F913F912F910F900BBE0F900FBE5D
:101F50000F901F9018951F920F920FB60F92112499
:101F60000BB60F922F933F934F935F936F937F9393
:101F70008F939F93AF93BF93EF93FF938091FA0852
:101F80009091FB08892B29F0E091FA08F091FB0869
:101F90000995FF91EF91BF91AF919F918F917F91A3
:101FA0006F915F914F913F912F910F900BBE0F90CA
:101FB0000FBE0F901F9018951F920F920FB60F92A1
:101FC00011240BB60F922F933F934F935F936F9310
:101FD0007F938F939F93AF93BF93EF93FF938091E2
:101FE000FC089091FD08892B29F0E091FC08F09104
:101FF000FD080995FF91EF91BF91AF919F918F914E
:102000007F916F915F914F913F912F910F900BBEF8
:102010000F900FBE0F901F9018951F920F920FB642
:102020000F9211240BB60F922F933F934F935F9310
:102030006F937F938F939F93AF93BF93EF93FF9390
:102040008091FE089091FF08892B29F0E091FE080D
:10205000F091FF080995FF91EF91BF91AF919F918A
:102060008F917F916F915F914F913F912F910F9041
:102070000BBE0F900FBE0F901F9018951F920F92DE
:102080000FB60F9211240BB60F922F933F934F93DD
:102090005F936F937F938F939F93AF93BF93EF93D0
:1020A000FF938091000990910109892B29F0E0911B
:1020B0000009F09101090995FF91EF91BF91AF914E
:1020C0009F918F917F916F915F914F913F912F9150
:1020D0000F900BBE0F900FBE0F901F9018951F9280
:1020E0000F920FB60F9211240BB60F922F933F93BE
:1020F0004F935F936F937F938F939F93AF93BF9310
:10210000EF93FF93F89481E080930A02E0E6F0E019
:1021100080818068808380818F7B808360E083E022
:102120000E9464127894FF91EF91BF91AF919F91BB
:102130008F917F916F915F914F913F912F910F9070
:102140000BBE0F900FBE0F901F9018951F920F920D
:102150000FB60F9211248F939F93AF93BF938091EB
:10216000440C9091450CA091460CB091470C0196FF
:10217000A11DB11D8093440C9093450CA093460C77
:10218000B093470CBF91AF919F918F910F900FBE6D
:102190000F901F9018951F920F920FB60F92112457
:1021A0008F939F93AF93BF938091480C9091490C6C
:1021B000A0914A0CB0914B0C0196A11DB11D8093CA
:1021C000480C9093490CA0934A0CB0934B0CBF91D0
:1021D000AF919F918F910F900FBE0F901F90189508
:1021E0008F929F92AF92BF92CF92DF92EF92FF9227
:1021F0000F931F93CF93DF932FB7F8948091440CE4
:102200009091450CA091460CB091470C2FBF9C01BA
:10221000AD0160E070E080E090E001E00E94042900
:102220004901D42FC52FB62FA72FF82FE92F02E091
:102230000E94042959016A017B018C0194014D2FF0
:102240005C2F6B2F7A2F8F2F9E2F0E941329E9E08E
:10225000AE2EB12CC12CD12CE12CF12C00E010E0E1
:102260000E94A728952FB901842FDF91CF911F914C
:102270000F91FF90EF90DF90CF90BF90AF909F9025
:102280008F9008958F929F92AF92BF92CF92DF92DC
:10229000EF92FF924B015C0107C00E94F0106C1599
:1022A0007D058E059F0520F40E94F0106B017C01D6
:1022B0000E94F0106C197D098E099F096815790537
:1022C0008A059B0550F3FF90EF90DF90CF90BF9071
:1022D000AF909F908F900895BC01049768F080E0C4
:1022E00090E00E94072726E636E646EE5FE30E946E
:1022F000BD270E94DB2602C0660F771F615071095F
:1023000061F06150710949F0FB01EE0FFF1F319739
:102310008FB7F8943197F1F78FBF0895789484B709
:10232000877F84BF1092440C1092450C1092460C8B
:102330001092470C84B5826084BD84B5816084BDF1
:1023400085B5826085BD85B5816085BDEEE6F0E02E
:10235000808181608083E1E8F0E080818260808319
:10236000808181608083E0E8F0E08081816080830B
:10237000E1EBF0E0808184608083E1E9F0E080813E
:1023800084608083E0EBF0E0808181608083E0E91D
:10239000F0E0808181608083E4E6F0E080818E7FE0
:1023A0008083ECE7F0E080818F7780838081806498
:1023B0008083EAE7F0E080818460808380818260AE
:1023C00080838081806880831092C1001092C90050
:1023D000089590910209982B9093020980FF32C0D2
:1023E000809164008E7F8093640080917C008F7761
:1023F00080937C0080917C00806480937C0080913D
:102400007A00846080937A0080917A008260809361
:102410007A0080917A00806880937A0080916400CD
:102420008F7780936400809164008B7F8093640039
:10243000809164008D7F80936400809165008E7F21
:10244000809365000895282F20959091020992238A
:102450009093020980FF1EC080917A008F7780934D
:102460007A008091640081608093640080916400B0
:10247000806880936400809164008460809364002D
:102480008091640082608093640080916500816027
:1024900080936500089590E0FC01E65BF84F24917D
:1024A000FC01E358F84FE491EE2369F0F0E0E054CA
:1024B000F84FA491B0E08C91611103C02095822364
:1024C00001C0822B8C93089590E0FC01E95EF84FE7
:1024D0002491FC01E65BF84F3491FC01E358F84F7E
:1024E00084918823B1F1222331F1233021F490919A
:1024F00080009F7705C0243031F4909180009F7D4B
:102500009093800018C0213019F494B59F7704C0CF
:10251000223021F494B59F7D94BD0DC0263021F466
:102520009091B0009F7705C0273029F49091B000BA
:102530009F7D9093B000E82FF0E0E854F84FA4910D
:10254000B0E08C91611103C03095832301C0832BCF
:102550008C93089590E0FC01E95EF84F2491FC0112
:10256000E65BF84F3491FC01E358F84F84918823DF
:1025700099F1222331F1233021F4909180009F774B
:1025800005C0243031F4909180009F7D90938000AD
:1025900018C0213019F494B59F7704C0223021F47B
:1025A00094B59F7D94BD0DC0263021F49091B0006C
:1025B0009F7705C0273029F49091B0009F7D9093BC
:1025C000B000E82FF0E0E055F84FE491F0E08081B2
:1025D000832321E030E011F420E030E0C9010895C8
:1025E000CF92DF92EF92FF926B017C01411134C0D8
:1025F00088E00E94E911C701B60122E030E040E026
:1026000050E00E948928305F414F5F4FCA01B901F5
:10261000A70196010E948928DA01C9010197A10941
:10262000B109892F9A2FAB2FBB27A7FDBA958093AD
:10263000C50021502093C4008091C1008061809327
:10264000C1008091C10088608093C1008091C10069
:1026500080688093C10033C080E10E94E911C70106
:10266000B60122E030E040E050E00E948928305F6F
:10267000414F5F4FCA01B901A70196010E94892805
:10268000DA01C9010197A109B109892F9A2FAB2F4E
:10269000BB27A7FDBA958093CD0021502093CC0095
:1026A0008091C90080618093C9008091C9008860D1
:1026B0008093C9008091C90080688093C900FF9011
:1026C000EF90DF90CF90089581110EC088E00E94B6
:1026D00023128091C1008F7E8093C1008091C10040
:1026E000877F8093C100089580E10E94231280912A
:1026F000C9008F7E8093C9008091C900877F809335
:10270000C9000895611107C09091C00095FFFCCFEA
:102710008093C60008959091C80095FFFCCF8093E8
:10272000CE00089581110AC08091090990910A098B
:102730009E5F209107093091080909C08091050921
:10274000909106099E5F2091030930910409821B34
:10275000930B60E072E00E9453280895811119C024
:1027600080910709909108092091090930910A097F
:102770002817390741F1FC01E45BF14F20810196F4
:1027800060E072E00E945328909308098093070943
:1027900018C0809103099091040920910509309196
:1027A00006092817390779F0FC01E45BF34F208113
:1027B000019660E072E00E94532890930409809390
:1027C000030930E002C02FEF3FEFC90108958111E6
:1027D00009C0109208091092070910920A09109274
:1027E000090908951092040910920309109206092C
:1027F0001092050908951F920F920FB60F9211249F
:102800002F933F934F935F936F937F938F939F93F8
:10281000AF93BF93EF93E091C600209109093091E7
:102820000A09C901019660E072E00E9453284091B4
:102830000709509108098417950741F0D901A45B55
:10284000B14FEC9390930A0980930909EF91BF91DE
:10285000AF919F918F917F916F915F914F913F9138
:102860002F910F900FBE0F901F9018951F920F92EF
:102870000FB60F9211242F933F934F935F936F9353
:102880007F938F939F93AF93BF93EF93E091CE008D
:102890002091050930910609C901019660E072E0B6
:1028A0000E94532840910309509104098417950709
:1028B00041F0D901A45BB34FEC9390930609809348
:1028C0000509EF91BF91AF919F918F917F916F918A
:1028D0005F914F913F912F910F900FBE0F901F90DE
:1028E00018950C948213CF93C82F682F8DE00E9407
:1028F00082136C2F8AE0CF910C9482131F93CF9395
:10290000DF93162FEC0103C0612F0E94821389917F
:102910008111FACFDF91CF911F9108954F925F926D
:102920006F927F928F929F92AF92BF92CF92DF92DF
:10293000EF92FF920F93CF93DF93CDB7DEB7A097BF
:102940000FB6F894DEBF0FBECDBF29013A01611565
:10295000710581059105C9F4602F80E3A0960FB63B
:10296000F894DEBF0FBECDBFDF91CF910F91FF90E6
:10297000EF90DF90CF90BF90AF909F908F907F901F
:102980006F905F904F900C948213EE24E394F12C9F
:10299000EC0EFD1E812C912C5401A30192010E948A
:1029A0006728F70161937F01FFEF8F1A9F0AAF0A33
:1029B000BF0AB901CA01611571058105910569F761
:1029C000CC24CA94DC2C7601C80CD91CEA1CFB1C54
:1029D00014C0E1E0F0E0EC0FFD1FEC0DFD1D808167
:1029E0008A3010F4805D01C0895C602F0E948213E0
:1029F00081E0C81AD108E108F108EFEFCE16DE0633
:102A0000EE06FE0631F7A0960FB6F894DEBF0FBEB5
:102A1000CDBFDF91CF910F91FF90EF90DF90CF90DE
:102A2000BF90AF909F908F907F906F905F904F90EE
:102A300008950E948E118AE69BE00E940A20853448
:102A400040F061E081E30E944B1261E081E30E946B
:102A5000641261E070E08AE69BE00E94E61E81302D
:102A6000B1F48091320C9091330CA091340CB09160
:102A7000350C90688093320C9093330CA093340CF7
:102A8000B093350C60E081E090E00E94602C87E21A
:102A90000E94AA12892B59F160E070E08AE69BE05F
:102AA0000E94E61E8A3019F5C1C06CE3629FA00146
:102AB000639F500D1124840F951F0EC02115310501
:102AC00059F06CE3629FA001639F500D11249A019D
:102AD000205F314F820F931F039748F48091410C80
:102AE0009091420C80629093420C8093410C81E162
:102AF00099E00E94E11B81E199E00E94A21B81E123
:102B000099E00E94B11B81E199E00E94691763E09E
:102B100070E080E090E00E9442118091320C909130
:102B2000330CA091340CB091350CA1FF5EC063E072
:102B300070E080E090E00E94421161E086E10E9436
:102B40004B1263E070E080E090E00E94421161E08F
:102B500086E10E94641263E070E080E090E00E94F1
:102B600042110E941D1C63E070E080E090E00E9432
:102B7000421181E00E94401C63E070E080E090E040
:102B80000E94421184E00E944E1C63E070E080E0ED
:102B900090E00E94421180E00E94491C63E070E0D6
:102BA00080E090E00E9442110E943C1C63E070E0D3
:102BB00080E090E00E94421166E080E69BE00E9487
:102BC000591C63E070E080E090E00E94421161E0F7
:102BD00086E10E944B1260E086E10E94641263E08D
:102BE00070E080E090E00E94421163E070E080E0DD
:102BF00090E00E9442118AE69BE00E94E41F6093ED
:102C00000B0970930C0980930D0990930E09809124
:102C10000B0990910C09A0910D09B0910E090E9429
:102C200074290E943A040E946E04FDCF81E199E06C
:102C30000E94E11B81E199E00E94331A81E199E051
:102C40000E94281A80912A0990E020912C09821B69
:102C500091092091290930E040912D09241B310967
:102C6000121613060CF421CF29CF1F93CF93DF93B5
:102C70001F92CDB7DEB7162F61E08AE149830E942B
:102C80004B1261E088E10E944B124981112321F02F
:102C9000113009F048C020C041110EC061E08AE146
:102CA0000E9464128091320C9091330CA091340CEC
:102CB000B091350C82602FC04130A9F560E08AE107
:102CC0000E9464128091320C9091330CA091340CCC
:102CD000B091350C8D7F1FC041110EC061E088E1BD
:102CE0000E9464128091320C9091330CA091340CAC
:102CF000B091350C81600FC04130A9F460E088E1EB
:102D00000E9464128091320C9091330CA091340C8B
:102D1000B091350C8E7F8093320C9093330CA0933E
:102D2000340CB093350C0F90DF91CF911F91089523
:102D30000F931F93CF93DF9361E089E10E944B12C1
:102D400061E089E10E94641261E070E080E090E05F
:102D50000E94421180E00E948D24BC01882777FDEB
:102D60008095982F0E9409278B01D82FC92F20E02A
:102D700030E040E054E4FE01712F8F2F9E2F0E941F
:102D80006A2687FF06C060E089E10E946412C0E005
:102D900055C020E030EC42E254E4FE01602F712F78
:102DA0008F2F9E2F0E94B927181634F460E089E116
:102DB0000E946412C4E642C020E030EC42E254E4D7
:102DC000FE01602F712F8F2F9E2F0E946A261816EA
:102DD000ECF020E030EC47E054E4FE01602F712F6E
:102DE0008F2F9E2F0E94B927181684F425E535E50C
:102DF00045E55FE3FE01602F712F8F2F9E2F0E940C
:102E0000BD2720E030E04DED53E40FC020E030E07E
:102E100040EA5EE3FE01602F712F8F2F9C2F0E94EE
:102E2000BD2720E030E040E253E40E9405260E94E6
:102E3000DB26C62F60E089E10E9464128C2FDF91AF
:102E4000CF911F910F91089561E089E20E944B128A
:102E500061E088E20E944B128BE69BE00C945820C4
:102E60008091710B882341F080912D0C811104C059
:102E70008FE099E00C94241708950F931F93CF933C
:102E8000DF93EC01042F68A761E080E30E944B12FE
:102E900018A5112379F0113091F461E080E30E94CC
:102EA0006412013019F482E08B8B09C0011107C054
:102EB0001B8B05C060E080E30E9464121B8A6AE0FD
:102EC00070E080E090E0DF91CF911F910F910C9422
:102ED0004211CF93DF93EC010E94301740E060E095
:102EE000CE01DF91CF910C943D17FC01148A158A15
:102EF000168A178A108E118E128E138E148E158ECE
:102F0000168E178E10A211A212A213A214A215A23D
:102F100016A217A20895EF92FF920F931F93CF93DB
:102F2000DF93CDB7DEB7EC970FB6F894DEBF0FBED8
:102F3000CDBF8C01EAE4F5E085919491BC01EE24CB
:102F4000E394F12CEC0EFD1EC7010E94A129ECE4D4
:102F5000F5E085919491BC01CE0189960E94A1294A
:102F6000F8018689843009F466C040F4823029F182
:102F700008F04BC0813009F0B6C009C0863009F4B2
:102F800086C008F46EC0873009F0ADC096C0F80165
:102F9000818D1F928F93808D1F928F9387891F92AF
:102FA0008F93828D1F928F9385891F928F9384892F
:102FB0001F928F938EE795E015C0F801818D1F92C7
:102FC0008F93808D1F928F9387891F928F93828D0D
:102FD0001F928F9385891F928F9384891F928F935D
:102FE00082E895E09F938F93FF92EF921F9284E681
:102FF0008F93C80189969F938F930E94102A0FB6D2
:10300000F894DEBF0FBECDBF81C0F801818D1F9245
:103010008F93808D1F928F9387891F928F93828DBC
:103020001F928F9385891F928F9384891F928F930C
:1030300086E895E0D7CFF801818D1F928F93808D20
:103040001F928F9387891F928F93828D1F928F93E8
:1030500085891F928F9384891F928F938AE895E0C8
:10306000C1CFF801818D1F928F93808D1F928F9316
:1030700087891F928F93828D1F928F9385891F92CC
:103080008F9384891F928F938EE895E0ABCFF801E0
:10309000818D1F928F93808D1F928F9387891F92AE
:1030A0008F93828D1F928F9385891F928F9384892E
:1030B0001F928F9382E995E095CFF801818D1F9241
:1030C0008F93808D1F928F9387891F928F93828D0C
:1030D0001F928F9385891F928F9384891F928F935C
:1030E00086E995E07FCFCE0189969F938F931F92BB
:1030F00084E68F93C80189969F938F930E94102A2C
:103100000F900F900F900F900F900F90075D1F4F33
:10311000C801EC960FB6F894DEBF0FBECDBFDF91AD
:10312000CF911F910F91FF90EF900895CF92DF9272
:10313000EF92FF920F931F93CF93DF938C01C62ED4
:103140008091710B811104C08BE69BE00E941220DC
:1031500068E670E08BE69BE00E943F2060E070E054
:103160008BE69BE00E946B218BE69BE00E946D2129
:1031700043E150E068E670E08BE69BE00E94A72107
:10318000E12CF12CC0E0D0E0D12CE4C08BE69BE038
:103190000E944720F801EC0FFD1F8083C630D10547
:1031A00009F467C098F4C230D10509F43EC038F480
:1031B000209729F1C130D10509F0C7C02BC0C43018
:1031C000D10509F440C008F049C03AC0CA30D10561
:1031D00009F484C048F4282F30E0C830D10509F440
:1031E00061C008F06DC050C0CC30D10509F492C068
:1031F00008F482C0CD30D10509F0A7C099C0982F3E
:1032000092959F708F702AE0929F800D1124F80193
:10321000818F9BC0982F92959F708F70FAE09F9F2F
:10322000800D1124F801808F90C0982F92959F7087
:103230008F70FAE09F9F800D1124F801878B85C065
:10324000F801868B82C0982F92959F708F70FAE05C
:103250009F9F800D1124F801828F77C0982F92953F
:103260009F708F70FAE09F9F800D1124F801858B6D
:103270006CC0982F92959F708F70FAE09F9F800D81
:103280001124F801848B61C054E0359527955A9537
:10329000E1F727708F70FAE02F9F800D1124F8015D
:1032A000838F53C044E0359527954A95E1F7277001
:1032B0008F70FAE02F9F800D1124F801848F45C094
:1032C00094E0359527959A95E1F723708F70FAE091
:1032D0002F9F800D1124F801858F37C0282F269548
:1032E000269526952670922F990F990F920F8F7021
:1032F000980FF801968F29C0282F26952695269598
:103300002E70922F990F990F920F8F70980FF801CE
:10331000978F1BC0282F2695269526952670922FCD
:10332000990F990F920F8F70980FF80190A30DC00D
:10333000282F2695269526952670922F990F990F5E
:10334000920F8F70980FF80191A3219603C0FFEFA1
:10335000EF1AFF0ACC16DD0658F02AE0E216F10457
:1033600038F48BE69BE00E944120882381F30ECF46
:10337000DF91CF911F910F91FF90EF90DF90CF9051
:1033800008951F93CF93DF93EC01162F8091710B5B
:10339000811104C08BE69BE00E94122068E670E079
:1033A0008BE69BE00E943F20612F8BE69BE00E9412
:1033B0003F21C10FD11D68818BE69BE00E943F2118
:1033C0008BE69BE0DF91CF911F910C946D21FF92D2
:1033D0000F931F93CF93DF938C01F62E8091710B87
:1033E000811104C08BE69BE00E94122068E670E029
:1033F0008BE69BE00E943F206F2D8BE69BE00E94B6
:103400003F218BE69BE00E946D2141E050E068E6A1
:1034100070E08BE69BE00E94A721CBE0D0E08BE63A
:103420009BE00E944120811102C02197C1F78BE6E9
:103430009BE00E944720F801EF0DF11D80838BE691
:103440009BE0DF91CF911F910F91FF900C946D2124
:10345000CF93DF93EC0166E00E949618CE01DF91D6
:10346000CF910C948B17CF92DF92EF92FF920F9334
:103470001F93CF93DF93CDB7DEB7C857D1090FB6EF
:10348000F894DEBF0FBECDBF7C016AE00E949618A3
:103490008701075D1F4F84E6F80111928A95E9F7CD
:1034A000E8E2F5E085919491BC01CE018F5A9F4FDF
:1034B0000E94A129BE016F5A7F4FC8010E94AC290A
:1034C000F70182A1823009F46AC030F4882369F0E0
:1034D000813009F00BC122C0843009F4C7C008F460
:1034E00093C0853009F002C1F0C0EAE2F5E08591B1
:1034F0009491BC01CE018F5A9F4F0E94A129BE0119
:103500006F5A7F4FC8010E94AC29E8E3F5E085912E
:1035100094916E01F9E2CF0ED11C18C0ECE2F5E0F7
:1035200085919491BC01CE018F5A9F4F0E94A12991
:10353000BE016F5A7F4FC8010E94AC29E8E3F5E055
:10354000859194916E01E9E2CE0ED11CBC01C601B9
:103550000E94A129F701838D1F928F93848D1F9262
:103560008F93858D1F928F93868D1F928F93DF92FD
:10357000CF921F9288E28F93EE24E394F12CEC0E0D
:10358000FD1EFF92EF920E94102AB701C8010E940F
:10359000AC290FB6F894DEBF0FBECDBFC2C0EEE2BD
:1035A000F5E085919491BC01CE018F5A9F4F0E9406
:1035B000A129BE016F5A7F4FC8010E94AC29EAE3DE
:1035C000F5E0859194916E01E9E2CE0ED11CBC012B
:1035D000C6010E94A129F701838D1F928F93848DCC
:1035E0001F928F93858D1F928F93DF92CF921F92A0
:1035F00088E28F93EE24E394F12CEC0EFD1EFF92F3
:10360000EF920E94102AC1CFE0E3F5E085919491FA
:10361000BC01CE018F5A9F4F0E94A129BE016F5A53
:103620007F4FC8010E94AC29ECE3F5E085919491AD
:103630006E01E9E2CE0ED11CBC01C6010E94A12997
:10364000F701838D1F928F93848D1F928F93DF924A
:10365000CF921F9288E28F93EE24E394F12CEC0E2C
:10366000FD1EFF92EF920E94102A8FCFE2E3F5E059
:1036700085919491BC01CE018F5A9F4F0E94A12940
:10368000BE016F5A7F4FC8010E94AC29EEE3F5E0FE
:10369000859194916E01E9E2CE0ED11CBC01C60168
:1036A0000E94A129F701838D1F928F93DF92CF9201
:1036B0001F9288E28F93EE24E394F12CEC0EFD1E12
:1036C000FF92EF920E94102A60CFE4E3F5E085912B
:1036D0009491BC01CE018F5A9F4F0E94A129BE0137
:1036E0006F5A7F4FC8010E94AC291BC0E6E3F5E08A
:1036F000859194917E01E1E5EE0EF11CBC01C701BC
:103700000E94A129FF92EF921F9284E68F931F934C
:103710000F930E94102A0F900F900F900F900F9010
:103720000F90C801C858DF4F0FB6F894DEBF0FBE28
:10373000CDBFDF91CF911F910F91FF90EF90DF9060
:10374000CF900895CF93DF93EC016EE00E94E719CC
:103750008E858E7F8E876EE0CE01DF91CF910C94A7
:10376000C119CF93DF93EC016EE00E94E7198E85BB
:103770008D7F8E876EE0CE01DF91CF910C94C119C1
:10378000CF93DF93EC016FE00E94E7198F85837080
:10379000DF91CF910895CF93DF93EC010E94C01B7E
:1037A000882319F0CE56DF4F8883809120098C7FC3
:1037B000809320096FE081E199E0DF91CF910C9433
:1037C000C119CF93DF93EC0140E061E00E943D1707
:1037D000CE010E94CB1BCE010E9475176DE0CE0179
:1037E0000E94961861E08BE20E944B1260E08BE22F
:1037F000DF91CF910C9464121092A20910922409C7
:103800000895FC01128A118E138EDC01A356BE4F5F
:1038100089E111968C93119714961C92DF01AE5595
:10382000BE4F1C9212961C92E956FE4F11821082D6
:10383000089584EA99E00C94011C61E08EE10E94F5
:103840004B1261E08FE10E944B1261E08DE10E941A
:103850004B1260E08EE10E94641260E08FE10E94F2
:10386000641261E08DE10E9464128CB580618CBDB0
:103870008CB580648CBD08958CB58F7B8CBD08950C
:10388000811103C08CB5806202C08CB58F7D8CBD68
:1038900008959CB5937F982B9CBD08952CB5982FC7
:1038A00093702C7F922B9CBD9DB580FB90F99DBDA4
:1038B0000895CF93C62F61E08DE10E944B1261E025
:1038C00082E20E944B1261E08DE10E94641261E08D
:1038D00082E20E9464128091320C9091330CA0918C
:1038E000340CB091350CA2FF08C061E088E00E9462
:1038F0004B1261E088E00E9464128091320C90913A
:10390000330CA091340CB091350C96FF08C061E0E7
:1039100089E00E944B1261E089E00E94641280916C
:10392000320C9091330CA091340CB091350CA3FF64
:1039300008C061E082E00E944B1261E082E00E94D8
:103940006412C330C9F020F4C13061F070F407C0D4
:10395000C53061F1F0F0C63009F067C033C060E0F7
:103960008DE160C060E082E25DC08AE69BE00E947B
:10397000CE1E60E08CE256C08091320C9091330CE8
:10398000A091340CB091350CA2FF4FC060E088E0EC
:1039900049C08091320C9091330CA091340CB091BD
:1039A000350C96FF42C060E089E03CC08091320C4B
:1039B0009091330CA091340CB091350CA3FF35C01D
:1039C00060E02FC061E08DE10E94641261E082E25C
:1039D0000E9464128091320C9091330CA091340CAF
:1039E000B091350CA2FF04C061E088E00E9464122F
:1039F0008091320C9091330CA091340CB091350C25
:103A000096FF04C061E089E00E9464128091320C4C
:103A10009091330CA091340CB091350CA3FF05C0EC
:103A200061E082E0CF910C946412CF9108951092DE
:103A3000610B1092600B1092620B0895FC014081A3
:103A400060E072EC81E090E00E94F01261E087E1BA
:103A50000E944B1261E087E10E94641261E08BE0FA
:103A60000E944B1260E08BE00E94641261E08DE2E4
:103A70000E944B1260E08DE20C946412DC01809194
:103A8000C50011968C9311978091C40012968C9367
:103A90001297E2ECF0E0808113968C93139780915B
:103AA000CA0014968C93149780818F7D80838081C7
:103AB0008F7E80838081877F80834C9160E072EC71
:103AC00081E090E00E94F01261E087E10E946412C0
:103AD00060E08BE00C946412CF93DF93EC01409193
:103AE000320C5091330C6091340C7091350C63E0C2
:103AF00070E080E090E042FF07C00E94421161E068
:103B00008BE00E94641202C00E944211898180935E
:103B1000C5008A818093C4008B818093C2008C8110
:103B20008093CA00DF91CF910895EF92FF920F9397
:103B30001F93CF93DF938C01EB010E943E1D7E010A
:103B400088E1E81A8CEFF80AFE0121968491882317
:103B500039F0F80160810E947114CE15DF05A1F7DC
:103B6000C8010E946C1D60E070E0CB01DF91CF9135
:103B70001F910F91FF90EF9008958F929F92AF92B7
:103B8000BF92CF92DF92EF92FF920F931F93CF934A
:103B9000DF93EC016A017B01122F0E943E1D20E0A1
:103BA00030E0A901C701B6010E946A2687FF08C05C
:103BB00068818DE20E947114F7FAF094F7F8F0949E
:103BC000B12C60E070E080E09FE307C020E030E0CF
:103BD00040E251E40E946E26B394B112F7CF262F33
:103BE000372F482F592FC701B6010E9406264B01D7
:103BF0005C01792D9B2D0E94DB266B017C010E94CC
:103C000007279B01AC01682D792D8A2D9B2D0E94E1
:103C10000526B62EA72E982E892E08812AE030E0A0
:103C200040E050E0B601C7010E948E141123B1F1AB
:103C300068818EE20E94711431C020E030E040E2E1
:103C400051E4D501F4016B2F7A2D8F2F982D0E940E
:103C5000BD274B015C01792D9B2D0E94D6266B015F
:103C6000EE24D7FCE094FE2C08812AE030E040E00E
:103C700050E0C701B6010E948E14C701B6010E9430
:103C800009279B01AC01682D792D8A2D9B2D0E945F
:103C90000526B62EA72E982E892E11501111CDCFA4
:103CA000CE01DF91CF911F910F91FF90EF90DF90A8
:103CB000CF90BF90AF909F908F900C946C1D0F93FE
:103CC0001F93CF93DF93EC018B010E943E1D68810F
:103CD000C8010E947E1488810E947314CE01DF9176
:103CE000CF911F910F910C946C1DCF93DF93EC013A
:103CF0000E943E1D88810E947314CE01DF91CF91F6
:103D00000C946C1DEF92FF920F931F93CF93DF9350
:103D100000D0CDB7DEB77C010E94951D8C01C70194
:103D200069837A830E94751E69817A81C8010F9028
:103D30000F90DF91CF911F910F91FF90EF90089519
:103D4000CF93DF93EC012AE00E94BD1DCE01DF91ED
:103D5000CF910C94751E1092650B08951F93CF930D
:103D6000DF931F92CDB7DEB7162F61E0812F498315
:103D70000E944B124981413011F461E003C04111AE
:103D800008C060E0812F0F90DF91CF911F910C94BC
:103D900064120F90DF91CF911F91089561E087E148
:103DA0000E944B1261E084E20E944B1261E085E2C6
:103DB0000E944B1261E087E10E94641261E084E29C
:103DC0000E94641261E085E20C946412CB010C94B1
:103DD000522C8F929F92AF92BF92CF92DF92EF922E
:103DE000FF920F931F93CF93DF93CDB7DEB7C75FDB
:103DF000D1090FB6F894DEBF0FBECDBF8E010051C2
:103E00001F4F580128E0A20EB11C7E0181E8E80E88
:103E1000F11CCC24C394D12CCC0EDD1E6DE0CE0160
:103E20008F519F4F0E94E72540E06CE08AE69BE0BF
:103E30000E94AE1E40E06DE08AE69BE00E94AE1E4E
:103E4000F801108211821282138261E08CE00E94DC
:103E50004B1261E08CE00E946412CE018F519F4FA3
:103E60000E94C72441E06DE08AE69BE00E94AE1EFE
:103E70006AE070E080E090E00E94421140E063E37D
:103E8000CE018F519F4F0E94982562E370E080E041
:103E900090E00E9442114701CE018F519F4F0E9436
:103EA0006D25F2E08F1A9108F4018083118261E0A0
:103EB00070E080E090E00E9442118C149D0461F754
:103EC000FE017196D701C60180599F4F2191319112
:103ED0002D933D93E817F907C9F731EE832E912C06
:103EE0008C0E9D1E81E090E0A0E0B0E0F4013291E4
:103EF00022914F012130310569F4F801408151814F
:103F000062817381480F591F6A1F7B1F4083518351
:103F100062837383880F991FAA1FBB1F8E149F048F
:103F200029F7F80180819181A281B3818F3F9F4F52
:103F3000AF4FBF4F29F4F801108211821282138211
:103F400060E08CE00E94641240E06CE08AE69BE056
:103F50000E94AE1E40E06DE08AE69BE00E94AE1E2D
:103F60000C5F1F4F0A151B0509F058CFC051DF4FDA
:103F7000088119812A813B81C05FD040CC50DF4F3E
:103F800088819981AA81BB81C45FD0400817190735
:103F90002A073B0719F000E010E09801B801C901B9
:103FA000C950DF4F0FB6F894DEBF0FBECDBFDF9113
:103FB000CF911F910F91FF90EF90DF90CF90BF9026
:103FC000AF909F908F900895CF92DF92EF92FF92E3
:103FD0000E94E91E6B017C01611571058105910547
:103FE00091F483EE90E00E945A2C6A302AE0720726
:103FF0008207920741F06F3F2FEF72078207920707
:1040000011F06B017C01B601C701FF90EF90DF90CA
:10401000CF9008958FED90E00E94522C8F3F09F4CD
:1040200080E00895CF93DF93EC0180E2E9E9FBE0C3
:10403000DF01982F1D929A95E9F71092980B109234
:10404000970BE6E7FBE0DF011D928A95E9F71092F6
:10405000750B1092740B0E94BC2181E08E8384E06A
:1040600090E0DF91CF910C946C1181E08093730B01
:104070006093960B1092750B1092740B08950C942C
:1040800035208091970B9091980B891B0895909102
:10409000980B8091970B981748F4E92FF0E0E756BA
:1040A000F44F80819F5F9093980B089580E008956E
:1040B000CF93DF93EC010E9408221E82DF91CF9103
:1040C00008954091320C5091330C6091340C7091F2
:1040D000350C4170FC0140834091320C5091330CFF
:1040E0006091340C7091350C76956795579547958E
:1040F000417041838091320C9091330CA091340C2B
:10410000B091350C84FD49C08091320C9091330CF4
:10411000A091340CB091350C85FD3FC08091320CDC
:104120009091330CA091340CB091350C86FD35C0C4
:104130008091320C9091330CA091340CB091350CDD
:1041400087FD2BC08091320C9091330CA091340CE0
:10415000B091350C90FD21C08091320C9091330CC0
:10416000A091340CB091350C91FD17C08091320CA8
:104170009091330CA091340CB091350C93FD0DC08F
:10418000089540E060E08FE099E00E94351640E03D
:1041900061E08FE099E00C9435168091720B8823D2
:1041A00081F30895CF93DF93EC018091320C9091CD
:1041B000330CA091340CB091350C84FD58C0809123
:1041C000320C9091330CA091340CB091350C85FDDC
:1041D0004EC08091320C9091330CA091340CB09170
:1041E000350C86FD44C08091320C9091330CA09127
:1041F000340CB091350C87FD3AC08091320C90910F
:10420000330CA091340CB091350C90FD30C040912E
:10421000320C5091330C6091340C7091350C51FD7F
:1042200026C04091320C5091330C6091340C709147
:10423000350C53FD1CC020C041E060E08FE099E0E8
:104240000E9435160CC08981811106C041E060E0F2
:104250008FE099E00E943516888181110DC041E000
:1042600061E08FE099E0DF91CF910C943516809159
:10427000720B8111E8CFE0CFDF91CF910895CF93FA
:10428000DF931F92CDB7DEB769838091730B8823CC
:1042900089F08091740B8032D0F48091750BE82FF7
:1042A000F0E0EA58F44F60838F5F8093750B809342
:1042B000740B0DC08BE69BE00E94612061E0CE0193
:1042C00001960E94E9218BE69BE00E94D2200F908C
:1042D000DF91CF9108950C943F21CF938BE69BE023
:1042E0000E94612021E04091740B66E77BE08091A1
:1042F000960B0E94AC22C82F1092750B1092740B73
:104300001092730B8BE69BE00E94D2208C2FCF91F2
:104310000895CF93DF93D62FC42F8BE69BE00E94A6
:104320006120C13208F0C0E24C2F69E97BE08D2F9B
:104330000E941123D82F1092980BC093970B8BE6F5
:104340009BE00E94D2208D2FDF91CF9108950C9495
:1043500089211092720B10926B0B10926C0B8AEFEA
:1043600090E0A0E0B0E080936D0B90936E0BA09373
:104370006F0BB093700B08951092C20BE4E6F0E05F
:1043800080818F778083589A599AE9EBF0E0808199
:104390008E7F808380818D7F808381E48093B800CD
:1043A00085E48093BC0080E2E3ECFBE0DF01982F22
:1043B0001D929A95E9F7E3EEFBE0DF01982F1D923D
:1043C0009A95E9F7E3E0FCE0DF011D928A95E9F7B1
:1043D0000895613298F42091C20B243089F46093DF
:1043E000BF0BFC0183EE9BE0DC0102C021912D9309
:1043F0002A2F281B2617D0F380E0089581E0089526
:1044000082E0089585EC8093BC001092C20B089561
:10441000589859988091B90081608093B900809133
:10442000B90082608093B9008091BC00806880935D
:10443000BC008091BC0080618093BC008091BC0076
:104440008F7B8093BC008091BC008F7D8093BC00EB
:104450008091BC00877F8093BC008091320C90914A
:10446000330CA091340CB091350C86FD14C08091B2
:10447000320C9091330CA091340CB091350C90FD1E
:104480000AC08091320C9091330CA091340CB09101
:10449000350C93FF04C08091BC008B7F03C08091DA
:1044A000BC0084608093BC008091BC008E7F8093B0
:1044B000BC00809164008068809364000895882324
:1044C00049F01092B90B1092BA0B1092BB0B1092DC
:1044D000BC0B13C08091B90B9091BA0BA091BB0B90
:1044E000B091BC0B0196A11DB11D8093B90B9093A7
:1044F000BA0BA093BB0BB093BC0B8091B90B9091FE
:10450000BA0BA091BB0BB091BC0B803A9648A1406E
:10451000B10560F01092B90B1092BA0B1092BB0B60
:104520001092BC0B0E94BC2181E0089580E00895A8
:1045300085ED8093BC0081E00E945F2208C080E08E
:104540000E945F22882319F01092C20B0895809177
:10455000BC0084FDF4CFF8CFFF920F931F93CF934D
:10456000DF93182F062FF72EC42FD22F81E0413270
:1045700008F051C00E945F2215C080E00E945F22B7
:10458000882381F082E08093C20B8FEF8093BD0B74
:104590001092C10BC093230CE02FFF2D63EC7BE046
:1045A000DB0107C08091C20B8111E7CFEBCF819176
:1045B0008D938A2F861B8C17D0F3812F90E0880F64
:1045C000991F8093240C85EE8093BC0081E00E94AB
:1045D0005F22D11105C08091BD0B8F3F59F414C0EB
:1045E0008091C20B8230B9F780E00E945F22811176
:1045F0000DC0F6CF8091BD0B803251F08091BD0B84
:10460000803341F483E007C080E005C085E003C04B
:1046100082E001C084E0DF91CF911F910F91FF9064
:1046200008950F931F93CF93DF93082FD62F172F43
:10463000C42F81E04132E0F50E945F221DC080E07E
:104640000E945F228823C1F081E08093C20B8FEF2C
:104650008093BD0B1092C10BC093230C802F90E070
:10466000880F991F81608093240C85EE8093BC0095
:1046700081E00E945F2210C08091C20B8111DFCFC8
:10468000E3CF80E00E945F22882331F083EC9BE03F
:10469000ED2FF12FDC0107C08091C20B813089F32F
:1046A000F5CF2D9121932A2F281B2C17D0F380E0D2
:1046B000DF91CF911F910F9108951F920F920FB626
:1046C0000F9211240BB60F922F933F934F935F934A
:1046D0006F937F938F939F93AF93BF93CF93EF93FA
:1046E000FF93C091B900C87FC03609F49FC058F548
:1046F000C83209F45BC090F4C03109F452C038F4F8
:10470000CC2309F4F2C0C83009F0F3C04AC0C83164
:1047100009F44CC0C03209F0ECC05DC0C03409F4EB
:1047200073C038F4C03309F45BC0C83309F0E1C08A
:104730005AC0C03509F45CC0C83509F46AC0C83431
:1047400009F0D7C0D4C0C83909F4C5C0A8F4C83727
:1047500009F46CC038F4C83609F468C0C03709F0F1
:10476000C8C064C0C83809F4B6C0C03909F464C010
:10477000C03809F0BEC060C0C03B09F484C038F442
:10478000C03A09F46BC0C83A09F0B3C07CC0C03C61
:1047900009F4A5C0C83C09F4A2C0C83B09F0A9C0EF
:1047A00087C08091240C8093BB0013C09091C10BF3
:1047B0008091230C981708F09AC08091C10BE82FC4
:1047C000F0E0ED53F44F90819093BB008F5F8093A6
:1047D000C10B85EC81C00E949822C093BD0B89C09B
:1047E000C093BD0B84C0C093BD0B0E94022281C048
:1047F0008091C10B9091BB00E82FF0E0ED53F44F96
:1048000090838F5F8093C10B9091C10B8091230C9B
:104810005FC08091C10B9091BB00E82FF0E0ED5399
:10482000F44F90838F5F8093C10B61C083E08093CE
:10483000C20B1092BE0BCDCF8091BE0B803208F020
:104840004AC08091BE0B9091BB00E82FF0E0ED5F75
:10485000F34F90838F5F8093BE0BBBCF8091BE0BD5
:10486000803230F4E091BE0BF0E0ED5FF34F108248
:104870006091BE0BE091250CF091260C70E083E076
:104880009CE009952CC084E08093C20B1092C00B71
:104890001092BF0BE091270CF091280C09958091A4
:1048A000BF0B811105C081E08093BF0B1092E30B19
:1048B0008091C00BE82FF0E0ED51F44F9081909380
:1048C000BB008F5F8093C00B9091C00B8091BF0B9A
:1048D000981708F47ECF85E88093BC000AC085EC69
:1048E0008093BC001092C20B04C01092BD0B0E94BA
:1048F0009822FF91EF91CF91BF91AF919F918F91AE
:104900007F916F915F914F913F912F910F900BBECF
:104910000F900FBE0F901F90189590917C002091E2
:104920007A00206820937A009F70981769F0909120
:104930007C008F70907F892B80937C0061E070E019
:1049400080E090E00E94421180917A008064809320
:104950007A0080917A0086FDFCCF2091780030911A
:104960007900932F80E0AC01422B9A01C901089590
:1049700010922E0C82E080932A0C8CE180932F0CF5
:1049800080EC91E09093310C8093300C0895CF929D
:10499000DF92EF92FF921F93CF93DF93EC0160E0E1
:1049A0008E850E944B120E94F0106B017C011EE765
:1049B000115089F182E090E00E946C110E94F01089
:1049C0006C157D058E059F0520F40E94F0106B018B
:1049D0007C018E850E94AA12892BF9F40E94F010A6
:1049E0006C197D098E099F09643F7140810591050D
:1049F000F8F213C00E94F0106B017C011130C1F17C
:104A00000E94F0106C197D098E099F09643F714066
:104A100081059105D0F010E02BC061E08E850E94E9
:104A20004B1260E08E850E94641284E591E00E9442
:104A30006C110E94F0106B017C018E850E94AA12FD
:104A400011E0892BD9F210E0D9CF8E850E94AA12ED
:104A500011E0892B09F010E089E090E00E946C11D0
:104A60000E94F0106C157D058E059F0538F6C2CFAB
:104A7000812FDF91CF911F91FF90EF90DF90CF902A
:104A800008951F93CF93DF93FC011081C181D281E0
:104A9000912F9095F8948A8189238A838981812B2B
:104AA000898360FF0BC089E090E00E946C118A81CD
:104AB000812B8A8378948FE290E00AC087E390E0AC
:104AC0000E946C118A81812B8A83789485E090E022
:104AD000DF91CF911F910C946C110F931F93CF9383
:104AE000DF93FC011081C181D281F8948981812BEF
:104AF00089838A81012F009580238A8382E090E058
:104B00000E946C1189818023898387E090E00E9454
:104B10006C11C88178948DE290E00E946C111C2386
:104B200081E009F480E0DF91CF911F910F9108950A
:104B3000CF92DF92EF92FF920F931F93CF93DF9369
:104B40001F92CDB7DEB76C01E62E08E010E0FF241F
:104B5000F3949F2D9E2161E009F460E0C601498332
:104B60000E944125FF0C01501109498101151105D1
:104B700081F7411115C0F894D6011196ED91FC9181
:104B8000129791818C918095892381831196ED9163
:104B9000FC91129792818C918095892382837894DD
:104BA0000F90DF91CF911F910F91FF90EF90DF90C9
:104BB000CF900895FC0113861586148612861186FF
:104BC0001086178216821582148213820895CF935D
:104BD000DF93EC01862F6E8760E00E944B128E857A
:104BE00090E0FC01E65BF84FE491E883FC01E358B8
:104BF000F84FE491F0E0E055F84FE491E9831A8230
:104C0000CE01DF91CF910C94DA255058BB27AA270B
:104C10000ED075C166D130F06BD120F031F49F3FDA
:104C200011F41EF45BC10EF4E095E7FB51C1E92FCE
:104C300077D180F3BA17620773078407950718F0D6
:104C400071F49EF58FC10EF4E0950B2EBA2FA02DB6
:104C50000B01B90190010C01CA01A0011124FF2729
:104C6000591B99F0593F50F4503E68F11A16F04024
:104C7000A22F232F342F4427585FF3CF4695379523
:104C80002795A795F0405395C9F77EF41F16BA0BE8
:104C9000620B730B840BBAF09150A1F0FF0FBB1F96
:104CA000661F771F881FC2F70EC0BA0F621F731FDF
:104CB000841F48F4879577956795B795F7959E3F3C
:104CC00008F0B3CF9395880F08F09927EE0F9795CA
:104CD00087950895D9D008F481E008950CD00FC1CC
:104CE00007D140F0FED030F021F45F3F19F0F0C062
:104CF000511139C1F3C014D198F39923C9F3552345
:104D0000B1F3951B550BBB27AA27621773078407BE
:104D100038F09F5F5F4F220F331F441FAA1FA9F374
:104D200033D00E2E3AF0E0E830D091505040E69566
:104D3000001CCAF729D0FE2F27D0660F771F881FC7
:104D4000BB1F261737074807AB07B0E809F0BB0BB6
:104D5000802DBF01FF2793585F4F2AF09E3F5105DA
:104D600068F0B6C000C15F3FECF3983EDCF3869577
:104D700077956795B795F7959F5FC9F7880F911D50
:104D80009695879597F90895E1E0660F771F881F3C
:104D9000BB1F621773078407BA0720F0621B730BEF
:104DA000840BBA0BEE1F88F7E095089504D0689441
:104DB000B111D9C00895BCD088F09F5790F0B92F99
:104DC0009927B751A0F0D1F0660F771F881F991F60
:104DD0001AF0BA95C9F712C0B13081F0C3D0B1E072
:104DE0000895C0C0672F782F8827B85F39F0B93F82
:104DF000CCF3869577956795B395D9F73EF4909562
:104E00008095709561957F4F8F4F9F4F0895E894DF
:104E100009C097FB3EF490958095709561957F4F02
:104E20008F4F9F4F9923A9F0F92F96E9BB279395B0
:104E3000F695879577956795B795F111F8CFFAF4C0
:104E4000BB0F11F460FF1BC06F5F7F4F8F4F9F4FF1
:104E500016C0882311F096E911C0772321F09EE84F
:104E6000872F762F05C0662371F096E8862F70E0B5
:104E700060E02AF09A95660F771F881FDAF7880F8F
:104E80009695879597F90895990F0008550FAA0BE5
:104E9000E0E8FEEF16161706E807F907C0F012164D
:104EA0001306E407F50798F0621B730B840B950B50
:104EB00039F40A2661F0232B242B252B21F40895A5
:104EC0000A2609F4A140A6958FEF811D811D089542
:104ED00097F99F6780E870E060E008959FEF80ECAD
:104EE000089500240A941616170618060906089550
:104EF00000240A9412161306140605060895092EB6
:104F00000394000C11F4882352F0BB0F40F4BF2B24
:104F100011F460FF04C06F5F7F4F8F4F9F4F089564
:104F200057FD9058440F551F59F05F3F71F047955A
:104F3000880F97FB991F61F09F3F79F0879508953F
:104F4000121613061406551FF2CF4695F1DF08C05E
:104F5000161617061806991FF1CF8695710561057B
:104F600008940895E894BB2766277727CB0197F923
:104F700008958ADF08F48FEF08950BD0C0CFB1DF1A
:104F800028F0B6DF18F0952309F0A2CFA7CF11249F
:104F9000EACFC6DFA0F3959FD1F3950F50E0551FE0
:104FA000629FF001729FBB27F00DB11D639FAA277E
:104FB000F00DB11DAA1F649F6627B00DA11D661FCD
:104FC000829F2227B00DA11D621F739FB00DA11DEE
:104FD000621F839FA00D611D221F749F3327A00DA8
:104FE000611D231F849F600D211D822F762F6A2F44
:104FF00011249F5750408AF0E1F088234AF0EE0FC9
:10500000FF1FBB1F661F771F881F91505040A9F7D5
:105010009E3F510570F05CCFA6CF5F3FECF3983E0A
:10502000DCF3869577956795B795F795E7959F5F3C
:10503000C1F7FE2B880F911D9695879597F90895D6
:10504000A29FB001B39FC001A39F01D0B29F700D7A
:10505000811D1124911D08950E942028A59F900D67
:10506000B49F900DA49F800D911D11240895B7FF4A
:105070000C942C280E942C28821B930B0895AA1BA9
:10508000BB1B51E107C0AA1FBB1FA617B70710F033
:10509000A61BB70B881F991F5A95A9F78095909565
:1050A000BC01CD01089597FB072E16F4009407D09C
:1050B00077FD09D00E943F2807FC05D03EF490956B
:1050C00081959F4F0895709561957F4F0895A1E256
:1050D0001A2EAA1BBB1BFD010DC0AA1FBB1FEE1F72
:1050E000FF1FA217B307E407F50720F0A21BB30BBD
:1050F000E40BF50B661F771F881F991F1A9469F739
:1051000060957095809590959B01AC01BD01CF0194
:105110000895052E97FB16F4009407D057FD0DD087
:105120000E94672807FC09D07EF4909580957095C1
:1051300061957F4F8F4F9F4F0895509540953095C3
:1051400021953F4F4F4F5F4F0895689401C0E894F9
:105150008F929F92CF93DF930E94B328DF91CF91DC
:105160009F908F90089588249924F401E401B0E47D
:105170009F93AA279A158B049C04ED05FE05CF0585
:10518000D007A10798F4AD2FDC2FCF2FFE2FE92DEC
:10519000982C892E982F872F762F652F542F432FE9
:1051A000322F2227B85031F7BF9127C01B2EBF9155
:1051B000BB27220F331F441F551F661F771F881FF1
:1051C000991F881C991CEE1FFF1FCC1FDD1FAA1FF3
:1051D000BB1F8A149B04EC05FD05CE05DF05A00767
:1051E000B10748F08A189B08EC09FD09CE09DF09D0
:1051F000A00BB10B21601A94E1F62EF49401AF01DB
:10520000BE01CD01000C08950F930F7351F0220FD2
:10521000331F441F551F661F771F881F991F0A954C
:10522000B1F70F9108952A0D3B1D4C1D5D1D6E1D9C
:105230007F1D801F911F08950790F691E02D09941E
:105240008F929F92AF92BF92CF92DF92EF92FF9296
:10525000CF93DF93EC01688179818A819B8161150D
:1052600071058105910521F464E279ED8BE597E004
:105270002DE133EF41E050E00E94892849015A01B5
:105280009B01AC01A7EAB1E40E942C286B017C01D0
:10529000ACEEB4EFA50194010E943A28C60ED71EC9
:1052A000E81EF91EF7FE06C081E0C81AD108E10821
:1052B00080E8F80AC882D982EA82FB82E894D7F8AB
:1052C000EE24FF24C601DF91CF91FF90EF90DF9095
:1052D000CF90BF90AF909F908F9008950C9420290D
:1052E00086E092E00C942029A0E0B0E080930602D2
:1052F00090930702A0930802B093090208956627CD
:1053000077270C946E2CFC0188279927E89421912B
:105310002032E9F3293010F02E30C8F32B3241F05F
:105320002D3239F4689404C00E94082A820F911D1E
:10533000219120532A30C0F31EF4909581959F4F00
:105340000895FB01DC0105900D920020E1F708951E
:1053500044EB55E00C94E129FB01DC010D900020A9
:10536000E9F7119701900D920020E1F70895FB01F4
:10537000DC018D91019080190110D9F3990B0895EA
:10538000FB01DC0101900D920020E1F70895FB0183
:1053900051915523A9F0BF01DC014D9145174111F1
:1053A000E1F759F4CD010190002049F04D914015ED
:1053B0004111C9F3FB014111EFCF81E090E001976A
:1053C0000895FA01A191B081009719F41097E1F0C6
:1053D000CD01DC01CD010D90002011F4C00113C0FE
:1053E000FB012191222319F02015D9F7F3CFFB01FE
:1053F0002191201519F41E92119606C02223C1F79F
:105400000D900020A1F7D001FA01A193B083089577
:105410007AE0979F902D879F802D910D11240895FC
:105420000F931F93CF93DF93CDB7DEB72E970FB6B1
:10543000F894DEBF0FBECDBF0D891E898F89988D70
:1054400026E02C831A83098397FF02C080E090E84E
:1054500001979E838D83CE014B96AC01698D7A8D29
:10546000CE0101960E944D2A4D815E8157FD0AC0F2
:105470002F813885421753070CF49A01F801E20F87
:10548000F31F10822E960FB6F894DEBF0FBECDBF6D
:10549000DF91CF911F910F9108952F923F924F92DC
:1054A0005F926F927F928F929F92AF92BF92CF92B4
:1054B000DF92EF92FF920F931F93CF93DF93CDB7BD
:1054C000DEB72C970FB6F894DEBF0FBECDBF7C01C0
:1054D0006B018A01FC0117821682838181FFC6C19C
:1054E00088248394912C8C0E9D1EF7019381F601E4
:1054F00093FD859193FF81916F01882309F4B2C1D7
:10550000853239F493FD859193FF81916F01853246
:1055100029F4B70190E00E94FF2DE7CF512C312CE8
:1055200020E02032A8F48B3261F028F4803251F070
:10553000833271F40BC08D3239F0803349F421602D
:1055400028C02260246025C0286023C0206121C0BB
:1055500027FD27C0382F30533A3078F426FF06C095
:10556000FAE05F9E300D1124532E13C08AE0389E5E
:10557000300D1124332E20620CC08E3221F426FD12
:1055800071C1206406C08C3611F4206802C08836D0
:1055900041F4F60193FD859193FF81916F01811193
:1055A000C0CF982F9554933018F09052933028F430
:1055B0000C5F1F4FFFE3F9830DC0833631F0833753
:1055C00071F0833509F05EC023C0F80180818983C2
:1055D0000E5F1F4F44244394512C540115C03801D1
:1055E000F2E06F0E711CF801A080B18026FF03C0AD
:1055F000652D70E002C06FEF7FEFC5012C870E9420
:10560000F42D2C0183012C856FE7262E222218C051
:105610003801F2E06F0E711CF801A080B18026FF06
:1056200003C0652D70E002C06FEF7FEFC5012C87CE
:105630000E94E92D2C012C8550E8252E222A830179
:1056400023FC1CC006C0B70180E290E00E94FF2D41
:105650003A94832D90E048165906A8F30FC0F5013F
:1056600027FC859127FE81915F01B70190E00E94A0
:10567000FF2D31103A94F1E04F1A510841145104B2
:1056800071F7EDC0843611F0893641F5F80127FF36
:1056900007C060817181828193810C5F1F4F08C0B8
:1056A00060817181882777FD8095982F0E5F1F4F4D
:1056B0004FE6B42EB22297FF09C090958095709561
:1056C00061957F4F8F4F9F4FF0E8BF2A2AE030E06F
:1056D000A4010E942B2EA82EA81843C0853731F4B0
:1056E0003FEEB32EB2222AE030E024C099EFB92E6B
:1056F000B2228F36B9F020F4883509F0B3C00DC05E
:10570000803721F0883709F0ADC002C020E1B22A0D
:10571000B4FE0BC084E0B82A08C024FF09C0E6E04C
:10572000BE2A06C028E030E005C020E130E002C01B
:1057300020E132E0F801B7FE07C06081718182810B
:1057400093810C5F1F4F06C06081718180E090E003
:105750000E5F1F4FA4010E942B2EA82EA818FFE752
:10576000BF22B6FE0BC02B2D2E7FA51450F4B4FE25
:105770000AC0B2FC08C02B2D2E7E05C07A2C2B2D22
:1057800003C07A2C01C0752C24FF0DC0FE01EA0D68
:10579000F11D8081803311F4297E09C022FF06C0EB
:1057A0007394739404C0822F867809F0739423FD58
:1057B00014C020FF0FC05A2C731460F4530C5718F8
:1057C000732C08C0B70180E290E02C870E94FF2D67
:1057D00073942C857314B0F304C0731410F4371849
:1057E00001C0312C24FF12C0B70180E390E02C8768
:1057F0000E94FF2D2C8522FF1EC021FF03C088E5DB
:1058000090E002C088E790E0B7010CC0822F867854
:1058100091F021FD02C080E201C08BE227FD8DE204
:10582000B70190E00E94FF2D06C0B70180E390E031
:105830000E94FF2D5A94A514C0F3AA94F401EA0D16
:10584000F11DB701808190E00E94FF2DA110F5CFDE
:1058500006C0B70180E290E00E94FF2D3A9431101B
:10586000F8CF43CEF7012681378102C02FEF3FEFFB
:10587000C9012C960FB6F894DEBF0FBECDBFDF91E5
:10588000CF911F910F91FF90EF90DF90CF90BF903D
:10589000AF909F908F907F906F905F904F903F90D0
:1058A0002F900895F999FECF92BD81BDF89A99275E
:1058B00080B50895A6E1B0E044E050E00C948B2E52
:1058C000262FF999FECF1FBA92BD81BD20BD0FB61C
:1058D000F894FA9AF99A0FBE019608958F929F92C2
:1058E000AF92BF92CF92DF92EF92FF920F931F93EE
:1058F000CF93DF937B016115710521F0DB018C9360
:1059000011969C93EC01C9908E018C2D90E00E9421
:10591000C92D892BC1F7BDE2CB1206C0FE01C19093
:105920008F01DD24D39407C0FBE2CF1203C0DE0158
:10593000CD908D01D12CE801219743E050E068EC37
:1059400077E0CE010E94D12D892BC9F4E80122967F
:1059500045E050E06BEC77E0CE010E94D12D892B21
:1059600011F4E8012796E114F10419F0F701D1834D
:10597000C083812C912C90E8D110F3C0F7C043E094
:1059800050E060ED77E0CE010E94D12D892B51F4DB
:10599000E114F10409F4E7C00E5F1F4FD7010D9326
:1059A0001C93E1C060E070E0CB01C0E0D0E0EC2DE2
:1059B000E053EA3020F5FD2DF2602D2D2870D2FE47
:1059C00004C0211122C0219620C021112197A5E0F9
:1059D000B0E09B01AC010E942C28660F771F881F46
:1059E000991F6E0F711D811D911D6839B9E97B07E3
:1059F0008B07B9E19B0748F0FD2DF66006C0EE3F2E
:105A000049F4D3FC43C0FD2DF860D801CD908D0141
:105A1000DF2ECDCFE53311F0E531C1F5F801A081DE
:105A2000AD3219F4F0E1DF2A07C0AB3229F00F5F85
:105A30001F4F21E030E006C0F801A1810E5F1F4F2B
:105A400022E030E0A053AA3018F0021B130B1EC056
:105A5000F80120E030E020384CE034075CF4A90184
:105A6000440F551F440F551F240F351F220F331F9E
:105A70002A0F311DA191A0538F01AA3060F3D4FEEB
:105A800003C0319521953109C20FD31FD1FE08C043
:105A9000E114F10429F001501109D7010D931C9371
:105AA0000E9407272D2D2370233019F04B015C0134
:105AB00005C0DC01CB01B0584C015D0120E030E0B5
:105AC000A901682D792D8A2D9B2D0E946A26882395
:105AD00009F444C0D7FF06C0D195C195D1090FEF95
