:100000000C94D9010C942A160C945B160C948C1643
:100010000C94BD160C94EE160C941F170C945017EC
:100020000C9481170C9408020C9408020C9408029A
:100030000C9450020C9408020C9408020C94AC022C
:100040000C9408020C9408020C9408020C94080208
:100050000C9408020C9408020C9408020C94870279
:100060000C9408020C9472110C9408020C9408026F
:100070000C9408020C9408020C9408020C940802D8
:100080000C9408020C9408020C9408020C940802C8
:100090000C94AD110C9408020C9408020C945514A5
:1000A0000C9408020C9408020C9408020C940802A8
:1000B0000C9408020C9408020C9408020C94080298
:1000C0000C9408020C9408020C9408025057525FDA
:1000D00034206578616D706C65004261747465727E
:1000E00079204C6576656C3A2000202500207C2024
:1000F000426174746572792028566F6C7473293A62
:1001000020002056002D01410167018E01AE01C67D
:1001100001D401E401F9010F0220022C0233025044
:10012000026E0284029202A202C502CB02416C61FD
:10013000726D204D6F6465206D6174636865732016
:10014000005B446179203A20686F757273203A2011
:100150006D696E75746573203A207365636F6E64A4
:10016000735D202D3E20005B44617465203A206859
:100170006F757273203A206D696E75746573203ADD
:10018000207365636F6E64735D202D3E20005B48B5
:100190006F757273203A206D696E75746573203ABD
:1001A000207365636F6E64735D202D3E20005B4D90
:1001B000696E75746573203A207365636F6E64733E
:1001C0005D202D3E20005B5365636F6E64735D2080
:1001D0002D3E20004F6E636520706572207365634D
:1001E0006F6E6400496E636F727265637420616C38
:1001F00061726D206D6F6465005B253032753A2544
:100200003032753A253032753A253032755D005BF3
:10021000253032753A253032753A253032755D0019
:100220005B253032753A253032755D005B25303202
:10023000755D005B446179203A20686F75727320A8
:100240003A206D696E75746573205D202D3E200027
:100250005B44617465203A20686F757273203A20A0
:100260006D696E75746573205D202D3E20005B48BE
:100270006F757273203A206D696E757465735D20B9
:100280002D3E20005B4D696E757465735D202D3EBB
:1002900020004F6E636520706572206D696E757405
:1002A000650025732C20253032752F253032752FAF
:1002B000253032752C20253032753A253032753A8A
:1002C00025303275006572726F72002530327525E7
:1002D000632530327525632530327525632530322C
:1002E00075256325303275256325303275256325E4
:1002F0003032750000000809000000000000000016
:1003000000000000000000000000000000000000ED
:1003100000000000000000000000000000000000DD
:1003200000000000000000010208101020408004BE
:1003300008102040020204081020408001028020A2
:100340004004200101020408102001408040800187
:1003500002080408800410040201050505050303D2
:100360000303010101040403060606060606060649
:100370000104050105010302020202020201020258
:1003800005050404030404010304070707002023F0
:1003900026292C2F32002225282B2E31340021240F
:1003A000272A2D303300DF065E08580E9B0FB6104B
:1003B000491911241FBECFEFD1E2DEBFCDBF13E03C
:1003C000A0E0B2E0E0EFFFE300E00BBF02C0079067
:1003D0000D92A438B107D9F71AE0A4E8B3E001C040
:1003E0001D92AF3DB107E1F713E0C2EBD3E000E0AF
:1003F00006C022970109FE010BBF0E94731CC63A7A
:10040000D10780E00807A9F70E9404040C94F61FA6
:100410000C94000089E893E00E9420056CEC70E0E9
:1004200089E893E00E9487066AE072E089E893E039
:100430000C9464066AED70E089E893E00E949705E9
:100440008BE495E00E94C508482F50E060E070E022
:100450002AE030E089E893E00E94A5066AEE70E0A9
:1004600089E893E00E9497056DEE70E089E893E0DB
:100470000E9497058BE495E00E945109AB01BC01F5
:1004800089E893E00E94610662E071E089E893E008
:100490000E94870668E873E180E090E00C942303F3
:1004A0001F920F920FB60F9211240BB60F922F933B
:1004B0003F934F935F936F937F938F939F93AF93EC
:1004C000BF93EF93FF93F89481E080934D03E0E6B0
:1004D000F0E080818068808380818F7B808360E012
:1004E00083E00E949E157894FF91EF91BF91AF91A8
:1004F0009F918F917F916F915F914F913F912F913C
:100500000F900BBE0F900FBE0F901F9018951F926B
:100510000F920FB60F9211248F939F93AF93BF93B7
:100520008091C5069091C606A091C706B091C806F5
:100530000196A11DB11D8093C5069093C606A09398
:10054000C706B093C806BF91AF919F918F910F904E
:100550000FBE0F901F9018951F920F920FB60F921B
:1005600011248F939F93AF93BF938091C90690916D
:10057000CA06A091CB06B091CC060196A11DB11D73
:100580008093C9069093CA06A093CB06B093CC067D
:10059000BF91AF919F918F910F900FBE0F901F90C1
:1005A00018958F929F92AF92BF92CF92DF92EF9267
:1005B000FF920F931F93CF93DF932FB7F8948091FF
:1005C000C5069091C606A091C706B091C8062FBF78
:1005D0009C01AD0160E070E080E090E001E00E94ED
:1005E0005B1C4901D42FC52FB62FA72FF82FE92F59
:1005F00002E00E945B1C59016A017B018C0194019D
:100600004D2F5C2F6B2F7A2F8F2F9E2F0E946A1CED
:10061000E9E0AE2EB12CC12CD12CE12CF12C00E064
:1006200010E00E94FE1B952FB901842FDF91CF911E
:100630001F910F91FF90EF90DF90CF90BF90AF9000
:100640009F908F9008958F929F92AF92BF92CF927A
:10065000DF92EF92FF924B015C0107C00E94D10232
:100660006C157D058E059F0520F40E94D1026B015B
:100670007C010E94D1026C197D098E099F096815C1
:1006800079058A059B0550F3FF90EF90DF90CF909E
:10069000BF90AF909F908F900895BC01049768F031
:1006A00080E090E00E945E1A26E636E646EE5FE3C2
:1006B0000E94141B0E94321A02C0660F771F6150FD
:1006C000710961F06150710949F0FB01EE0FFF1FE4
:1006D00031978FB7F8943197F1F78FBF08957894D9
:1006E00084B7877F84BF1092C5061092C606109209
:1006F000C7061092C80684B5826084BD84B5816047
:1007000084BD85B5826085BD85B5816085BDEEE619
:10071000F0E0808181608083E1E8F0E080818260A8
:100720008083808181608083E0E8F0E08081816067
:100730008083E1EBF0E0808184608083E1E9F0E098
:10074000808184608083E0EBF0E080818160808341
:10075000E0E9F0E0808181608083E4E6F0E0808180
:100760008E7F8083ECE7F0E080818F7780838081CB
:1007700080648083EAE7F0E0808184608083808108
:10078000826080838081806880831092C100109293
:10079000C900089590918403982B9093840380FF5F
:1007A00032C0809164008E7F8093640080917C00D1
:1007B0008F7780937C0080917C00806480937C00A4
:1007C00080917A00846080937A0080917A008260C0
:1007D00080937A0080917A00806880937A0080917B
:1007E00064008F7780936400809164008B7F809396
:1007F0006400809164008D7F809364008091650027
:100800008E7F8093650008950E946F038EE893E0C9
:100810000E943E08853440F061E081E30E94851526
:1008200061E081E30E949E1561E070E08EE893E054
:100830000E941A078130B1F48091CD0A9091CE0ABE
:10084000A091CF0AB091D00A90688093CD0A90937E
:10085000CE0AA093CF0AB093D00A60E081E090E086
:100860000E94381F87E20E94E415892B59F160E04D
:1008700070E08EE893E00E941A078A3019F5C1C033
:100880006CE3629FA001639F500D1124840F951F9C
:100890000EC02115310559F06CE3629FA001639FE2
:1008A000500D11249A01205F314F820F931F03973F
:1008B00048F48091DC0A9091DD0A80629093DD0A11
:1008C0008093DC0A8DE495E00E943D0E8DE495E076
:1008D0000E94FE0D8DE495E00E940D0E8DE495E0E2
:1008E0000E94C50963E070E080E090E00E9423036D
:1008F0008091CD0A9091CE0AA091CF0AB091D00AF2
:10090000A1FF5EC063E070E080E090E00E942303FE
:1009100061E086E10E94851563E070E080E090E090
:100920000E94230361E086E10E949E1563E070E06F
:1009300080E090E00E9423030E94AA0F63E070E031
:1009400080E090E00E94230381E00E94CD0F63E0ED
:1009500070E080E090E00E94230384E00E94DB0FBF
:1009600063E070E080E090E00E94230380E00E945A
:10097000D60F63E070E080E090E00E9423030E94C5
:10098000C90F63E070E080E090E00E94230366E01E
:1009900089EE95E00E94E60F63E070E080E090E071
:1009A0000E94230361E086E10E94851560E086E1F4
:1009B0000E949E1563E070E080E090E00E942303B7
:1009C00063E070E080E090E00E9423038EE893E013
:1009D0000E941808609385037093860380938703B1
:1009E000909388038091850390918603A09187035B
:1009F000B09188030E94CB1C0E940A020E941A0236
:100A0000FDCF8DE495E00E943D0E8DE495E00E94BF
:100A10008F0C8DE495E00E94840C8091660590E037
:100A200020916805821B91092091650530E0409175
:100A30006905241B3109121613060CF421CF29CFA6
:100A4000FC01408160E072EC81E090E00E94EE10D9
:100A500061E087E10E94851561E087E10E949E15B3
:100A600061E08BE00E94851560E08BE00E949E159E
:100A700061E08DE20E94851560E08DE20C949E1588
:100A8000DC018091C50011968C9311978091C40070
:100A900012968C931297E2ECF0E0808113968C937F
:100AA00013978091CA0014968C93149780818F7D40
:100AB000808380818F7E80838081877F80834C913B
:100AC00060E072EC81E090E00E94EE1061E087E16E
:100AD0000E949E1560E08BE00C949E15CF93DF93EF
:100AE000EC014091CD0A5091CE0A6091CF0A7091ED
:100AF000D00A63E070E080E090E042FF07C00E940F
:100B0000230361E08BE00E949E1502C00E94230334
:100B100089818093C5008A818093C4008B818093F2
:100B2000C2008C818093CA00DF91CF910895EF922B
:100B3000FF920F931F93CF93DF938C01EB010E94E1
:100B400040057E0188E1E81A8CEFF80AFE01219643
:100B50008491882339F0F80160810E94E811CE1554
:100B6000DF05A1F7C8010E946E0560E070E0CB01CF
:100B7000DF91CF911F910F91FF90EF9008958F9289
:100B80009F92AF92BF92CF92DF92EF92FF920F931C
:100B90001F93CF93DF93EC016A017B01122F0E9418
:100BA000400520E030E0A901C701B6010E94C1194B
:100BB00087FF08C068818DE20E94E811F7FAF0947F
:100BC000F7F8F094B12C60E070E080E09FE307C09C
:100BD00020E030E040E251E40E94C519B394B11224
:100BE000F7CF262F372F482F592FC701B6010E9464
:100BF0005D194B015C01792D9B2D0E94321A6B010E
:100C00007C010E945E1A9B01AC01682D792D8A2D12
:100C10009B2D0E945C19B62EA72E982E892E088136
:100C20002AE030E040E050E0B601C7010E94051222
:100C30001123B1F168818EE20E94E81131C020E0F9
:100C400030E040E251E4D501F4016B2F7A2D8F2F73
:100C5000982D0E94141B4B015C01792D9B2D0E9445
:100C60002D1A6B01EE24D7FCE094FE2C08812AE0BB
:100C700030E040E050E0C701B6010E940512C70114
:100C8000B6010E94601A9B01AC01682D792D8A2D56
:100C90009B2D0E945C19B62EA72E982E892E1150DE
:100CA0001111CDCFCE01DF91CF911F910F91FF9008
:100CB000EF90DF90CF90BF90AF909F908F900C946B
:100CC0006E052AE00C94BF050F931F93CF93DF931B
:100CD000EC018B010E9440056881C8010E94F5115A
:100CE00088810E94EA11CE01DF91CF911F910F916F
:100CF0000C946E05CF93DF93EC010E944005888130
:100D00000E94EA11CE01DF91CF910C946E05EF9213
:100D1000FF920F931F93CF93DF9300D0CDB7DEB731
:100D20007C010E9497058C01C70169837A830E9428
:100D30007A0669817A81C8010F900F90DF91CF9177
:100D40001F910F91FF90EF900895AF92BF92DF92A5
:100D5000EF92FF920F931F93CF93DF93EC01142F29
:100D6000D52E7B0159010E944005A114B10429F43C
:100D70006881812F0E94E81116C08AE0A816B1048C
:100D800039F44881612F7D2DC7010E9490120BC05C
:100D90009501442737FD4095542F0881612F7D2D03
:100DA000C7010E940512CE01DF91CF911F910F91D3
:100DB000FF90EF90DF90BF90AF900C946E05109273
:100DC000890308951F93CF93DF931F92CDB7DEB7AA
:100DD000162F61E0812F49830E948515498141309A
:100DE00011F461E003C0411108C060E0812F0F9051
:100DF000DF91CF911F910C949E150F90DF91CF91B1
:100E00001F91089561E087E10E94851561E084E209
:100E10000E94851561E085E20E94851561E087E109
:100E20000E949E1561E084E20E949E1561E085E2C9
:100E30000C949E15CB010C942A1F8F929F92AF9217
:100E4000BF92CF92DF92EF92FF920F931F93CF93B7
:100E5000DF93CDB7DEB7C75FD1090FB6F894DEBF19
:100E60000FBECDBF8E0100511F4F580128E0A20ECA
:100E7000B11C7E0181E8E80EF11CCC24C394D12C76
:100E8000CC0EDD1E6DE0CE018F519F4F0E947D0F75
:100E900040E06CE08EE893E00E94E20640E06DE006
:100EA0008EE893E00E94E206F8011082118212821D
:100EB000138261E08CE00E94851561E08CE00E9465
:100EC0009E15CE018F519F4F0E945D0E41E06DE057
:100ED0008EE893E00E94E2066AE070E080E090E035
:100EE0000E94230340E063E3CE018F519F4F0E9495
:100EF0002E0F62E370E080E090E00E942303470140
:100F0000CE018F519F4F0E94030FF2E08F1A91087C
:100F1000F4018083118261E070E080E090E00E9443
:100F200023038C149D0461F7FE017196D701C6015D
:100F300080599F4F219131912D933D93E817F907E7
:100F4000C9F731EE832E912C8C0E9D1E81E090E02E
:100F5000A0E0B0E0F401329122914F01213031053F
:100F600069F4F8014081518162817381480F591FF2
:100F70006A1F7B1F4083518362837383880F991F8D
:100F8000AA1FBB1F8E149F0429F7F801808191814D
:100F9000A281B3818F3F9F4FAF4FBF4F29F4F8011C
:100FA000108211821282138260E08CE00E949E15F2
:100FB00040E06CE08EE893E00E94E20640E06DE0E5
:100FC0008EE893E00E94E2060C5F1F4F0A151B0596
:100FD00009F058CFC051DF4F088119812A813B8128
:100FE000C05FD040CC50DF4F88819981AA81BB81FE
:100FF000C45FD040081719072A073B0719F000E023
:1010000010E09801B801C901C950DF4F0FB6F8943C
:10101000DEBF0FBECDBFDF91CF911F910F91FF902B
:10102000EF90DF90CF90BF90AF909F908F900895FA
:10103000CF92DF92EF92FF920E941D076B017C011D
:10104000611571058105910591F483EE90E00E9490
:10105000321F6A302AE072078207920741F06F3F21
:101060002FEF72078207920711F06B017C01B60126
:10107000C701FF90EF90DF90CF9008958FED90E043
:101080000E942A1F8F3F09F480E00895FC01128A14
:10109000118E138EDC01A356BE4F89E111968C93FD
:1010A000119714961C92DF01AE55BE4F1C921296FA
:1010B0001C92E956FE4F1182108208958FE893E04A
:1010C0000C9446081F93CF93DF931F92CDB7DEB7E2
:1010D000162F61E08AE149830E94851561E088E16D
:1010E0000E9485154981112321F0113009F048C073
:1010F00020C041110EC061E08AE10E949E158091DE
:10110000CD0A9091CE0AA091CF0AB091D00A826008
:101110002FC04130A9F560E08AE10E949E158091C0
:10112000CD0A9091CE0AA091CF0AB091D00A8D7FBE
:101130001FC041110EC061E088E10E949E158091A0
:10114000CD0A9091CE0AA091CF0AB091D00A8160C9
:101150000FC04130A9F460E088E10E949E158091A3
:10116000CD0A9091CE0AA091CF0AB091D00A8E7F7D
:101170008093CD0A9093CE0AA093CF0AB093D00A61
:101180000F90DF91CF911F9108950F931F93CF93ED
:10119000DF9361E089E10E94851561E089E10E94A9
:1011A0009E1561E070E080E090E00E94230380E003
:1011B0000E94C310BC01882777FD8095982F0E945C
:1011C000601A8B01D82FC92F20E030E040E054E4B2
:1011D000FE01712F8F2F9E2F0E94C11987FF06C01D
:1011E00060E089E10E949E15C0E055C020E030EC2F
:1011F00042E254E4FE01602F712F8F2F9E2F0E9438
:10120000101B181634F460E089E10E949E15C4E6B4
:1012100042C020E030EC42E254E4FE01602F712F26
:101220008F2F9E2F0E94C1191816ECF020E030EC91
:1012300047E054E4FE01602F712F8F2F9E2F0E94F4
:10124000101B181684F425E535E545E55FE3FE013E
:10125000602F712F8F2F9E2F0E94141B20E030E0F3
:101260004DED53E40FC020E030E040EA5EE3FE01C4
:10127000602F712F8F2F9C2F0E94141B20E030E0D5
:1012800040E253E40E945C190E94321AC62F60E0CB
:1012900089E10E949E158C2FDF91CF911F910F91B4
:1012A0000895CF93DF9361E089E10E94851561E0A5
:1012B00089E10E949E1580E00E94C31080E00E9498
:1012C000C310EC0160E089E10E949E15BE018827F1
:1012D00077FD8095982F0E94601A23E333E343E55E
:1012E00050E40E94141B9B01AC010E945D1920E098
:1012F00030EC4FE754E40E94C519DF91CF91089577
:1013000061E089E20E94851561E088E20E9485150E
:1013100087E796E00C94F81780917D06882341F0CA
:101320008091E405811104C08BE495E00C94800960
:1013300008950F931F93CF93DF93EC01042F68A7B9
:1013400061E080E30E94851518A5112379F0113022
:1013500091F461E080E30E949E15013019F482E06F
:101360008B8B09C0011107C01B8B05C060E080E3B7
:101370000E949E151B8A6AE070E080E090E0DF9199
:10138000CF911F910F910C942303CF93DF93EC0126
:101390000E948C0940E060E0CE01DF91CF910C9477
:1013A0009909FC01148A158A168A178A108E118EE3
:1013B000128E138E148E158E168E178E10A211A2F9
:1013C00012A213A214A215A216A217A20895EF92B8
:1013D000FF920F931F93CF93DF93CDB7DEB7EC97B8
:1013E0000FB6F894DEBF0FBECDBF8C01E7E2F1E08F
:1013F00085919491BC01EE24E394F12CEC0EFD1E3A
:10140000C7010E94D61CE9E2F1E085919491BC01EC
:10141000CE0189960E94D61CF8018689843009F491
:1014200066C040F4823029F108F04BC0813009F0E9
:10143000B6C009C0863009F486C008F46EC0873093
:1014400009F0ADC096C0F801818D1F928F93808DF9
:101450001F928F9387891F928F93828D1F928F93F4
:1014600085891F928F9384891F928F938EE493E0D6
:1014700015C0F801818D1F928F93808D1F928F93DD
:1014800087891F928F93828D1F928F9385891F92D8
:101490008F9384891F928F9382E593E09F938F931C
:1014A000FF92EF921F9284E68F93C80189969F93D3
:1014B0008F930E94E81C0FB6F894DEBF0FBECDBF1D
:1014C00081C0F801818D1F928F93808D1F928F9321
:1014D00087891F928F93828D1F928F9385891F9288
:1014E0008F9384891F928F9386E593E0D7CFF8017D
:1014F000818D1F928F93808D1F928F9387891F926A
:101500008F93828D1F928F9385891F928F938489E9
:101510001F928F938AE593E0C1CFF801818D1F92CE
:101520008F93808D1F928F9387891F928F93828DC7
:101530001F928F9385891F928F9384891F928F9317
:101540008EE593E0ABCFF801818D1F928F93808D54
:101550001F928F9387891F928F93828D1F928F93F3
:1015600085891F928F9384891F928F9382E693E0DF
:1015700095CFF801818D1F928F93808D1F928F934D
:1015800087891F928F93828D1F928F9385891F92D7
:101590008F9384891F928F9386E693E07FCFCE014D
:1015A00089969F938F931F9284E68F93C8018996A3
:1015B0009F938F930E94E81C0F900F900F900F90B5
:1015C0000F900F90075D1F4FC801EC960FB6F8946F
:1015D000DEBF0FBECDBFDF91CF911F910F91FF9066
:1015E000EF900895CF92DF92EF92FF920F931F93A7
:1015F000CF93DF938C01C62E80917D06811104C0AC
:1016000087E796E00E94B21768E670E087E796E009
:101610000E94DF1760E070E087E796E00E940B19F8
:1016200087E796E00E940D1943E150E068E670E01C
:1016300087E796E00E944719E12CF12CC0E0D0E04A
:10164000D12CE4C087E796E00E94E717F801EC0F81
:10165000FD1F8083C630D10509F467C098F4C230FD
:10166000D10509F43EC038F4209729F1C130D105E5
:1016700009F0C7C02BC0C430D10509F440C008F040
:1016800049C03AC0CA30D10509F484C048F4282FB3
:1016900030E0C830D10509F461C008F06DC050C019
:1016A000CC30D10509F492C008F482C0CD30D10508
:1016B00009F0A7C099C0982F92959F708F702AE06B
:1016C000929F800D1124F801818F9BC0982F9295D5
:1016D0009F708F70FAE09F9F800D1124F801808F1A
:1016E00090C0982F92959F708F70FAE09F9F800D09
:1016F0001124F801878B85C0F801868B82C0982F52
:1017000092959F708F70FAE09F9F800D1124F801D1
:10171000828F77C0982F92959F708F70FAE09F9F6D
:10172000800D1124F801858B6CC0982F92959F70C5
:101730008F70FAE09F9F800D1124F801848B61C0A7
:1017400054E0359527955A95E1F727708F70FAE0A8
:101750002F9F800D1124F801838F53C044E03595ED
:1017600027954A95E1F727708F70FAE02F9F800D3B
:101770001124F801848F45C094E0359527959A95FA
:10178000E1F723708F70FAE02F9F800D1124F8018C
:10179000858F37C0282F2695269526952670922F5F
:1017A000990F990F920F8F70980FF801968F29C09B
:1017B000282F2695269526952E70922F990F990FF2
:1017C000920F8F70980FF801978F1BC0282F2695C6
:1017D000269526952670922F990F990F920F8F704C
:1017E000980FF80190A30DC0282F269526952695D1
:1017F0002670922F990F990F920F8F70980FF80102
:1018000091A3219603C0FFEFEF1AFF0ACC16DD0665
:1018100058F02AE0E216F10438F487E796E00E94D7
:10182000E117882381F30ECFDF91CF911F910F91A4
:10183000FF90EF90DF90CF9008951F93CF93DF93A9
:10184000EC01162F80917D06811104C087E796E098
:101850000E94B21768E670E087E796E00E94DF1703
:10186000612F87E796E00E94DF18C10FD11D6881C4
:1018700087E796E00E94DF1887E796E0DF91CF9137
:101880001F910C940D19FF920F931F93CF93DF9329
:101890008C01F62E80917D06811104C087E796E0C9
:1018A0000E94B21768E670E087E796E00E94DF17B3
:1018B0006F2D87E796E00E94DF1887E796E00E9489
:1018C0000D1941E050E068E670E087E796E00E947D
:1018D0004719CBE0D0E087E796E00E94E11781113D
:1018E00002C02197C1F787E796E00E94E717F80149
:1018F000EF0DF11D808387E796E0DF91CF911F9177
:101900000F91FF900C940D19CF93DF93EC0166E0DB
:101910000E94F20ACE01DF91CF910C94E709CF9299
:10192000DF92EF92FF920F931F93CF93DF93CDB788
:10193000DEB7C857D1090FB6F894DEBF0FBECDBFD2
:101940007C016AE00E94F20A8701075D1F4F84E66E
:10195000F80111928A95E9F7E5E0F1E0859194911B
:10196000BC01CE018F5A9F4F0E94D61CBE016F5AF8
:101970007F4FC8010E94DD1CF70182A1823009F46B
:101980006AC030F4882369F0813009F00BC122C0AD
:10199000843009F4C7C008F493C0853009F002C14F
:1019A000F0C0E7E0F1E085919491BC01CE018F5A3F
:1019B0009F4F0E94D61CBE016F5A7F4FC8010E94E4
:1019C000DD1CE5E1F1E0859194916E01F9E2CF0E25
:1019D000D11C18C0E9E0F1E085919491BC01CE01E1
:1019E0008F5A9F4F0E94D61CBE016F5A7F4FC8016D
:1019F0000E94DD1CE5E1F1E0859194916E01E9E240
:101A0000CE0ED11CBC01C6010E94D61CF701838DED
:101A10001F928F93848D1F928F93858D1F928F932A
:101A2000868D1F928F93DF92CF921F9288E28F93C1
:101A3000EE24E394F12CEC0EFD1EFF92EF920E9437
:101A4000E81CB701C8010E94DD1C0FB6F894DEBF88
:101A50000FBECDBFC2C0EBE0F1E085919491BC0117
:101A6000CE018F5A9F4F0E94D61CBE016F5A7F4FE6
:101A7000C8010E94DD1CE7E1F1E0859194916E01BF
:101A8000E9E2CE0ED11CBC01C6010E94D61CF701B2
:101A9000838D1F928F93848D1F928F93858D1F92BC
:101AA0008F93DF92CF921F9288E28F93EE24E3947C
:101AB000F12CEC0EFD1EFF92EF920E94E81CC1CFAC
:101AC000EDE0F1E085919491BC01CE018F5A9F4FDA
:101AD0000E94D61CBE016F5A7F4FC8010E94DD1CB8
:101AE000E9E1F1E0859194916E01E9E2CE0ED11C1D
:101AF000BC01C6010E94D61CF701838D1F928F93F3
:101B0000848D1F928F93DF92CF921F9288E28F93E2
:101B1000EE24E394F12CEC0EFD1EFF92EF920E9456
:101B2000E81C8FCFEFE0F1E085919491BC01CE01EC
:101B30008F5A9F4F0E94D61CBE016F5A7F4FC8011B
:101B40000E94DD1CEBE1F1E0859194916E01E9E2E8
:101B5000CE0ED11CBC01C6010E94D61CF701838D9C
:101B60001F928F93DF92CF921F9288E28F93EE2481
:101B7000E394F12CEC0EFD1EFF92EF920E94E81C04
:101B800060CFE1E1F1E085919491BC01CE018F5AE3
:101B90009F4F0E94D61CBE016F5A7F4FC8010E9402
:101BA000DD1C1BC0E3E1F1E0859194917E01E1E54C
:101BB000EE0EF11CBC01C7010E94D61CFF92EF92F1
:101BC0001F9284E68F931F930F930E94E81C0F903F
:101BD0000F900F900F900F900F90C801C858DF4FD3
:101BE0000FB6F894DEBF0FBECDBFDF91CF911F912E
:101BF0000F91FF90EF90DF90CF900895CF93DF93F8
:101C0000EC016EE00E94430C8E858E7F8E876EE025
:101C1000CE01DF91CF910C941D0CCF93DF93EC019B
:101C20006EE00E94430C8E858D7F8E876EE0CE0124
:101C3000DF91CF910C941D0CCF93DF93EC016FE0FB
:101C40000E94430C8F858370DF91CF910895CF93CD
:101C5000DF93EC010E941C0E882319F0CE56DF4F53
:101C6000888380915C058C7F80935C056FE08DE4B8
:101C700095E0DF91CF910C941D0CCF93DF93EC0195
:101C800040E061E00E949909CE010E94270ECE013A
:101C90000E94D1096DE0CE010E94F20A61E08BE260
:101CA0000E94851560E08BE2DF91CF910C949E1528
:101CB0001092DE05109260050895CF92DF92EF92A8
:101CC000FF921F93CF93DF93EC0160E08E850E941B
:101CD00085150E94D1026B017C011EE7115089F12C
:101CE00082E090E00E944D030E94D1026C157D05B8
:101CF0008E059F0520F40E94D1026B017C018E8528
:101D00000E94E415892BF9F40E94D1026C197D0917
:101D10008E099F09643F714081059105F8F213C057
:101D20000E94D1026B017C011130C1F10E94D102ED
:101D30006C197D098E099F09643F714081059105E9
:101D4000D0F010E02BC061E08E850E94851560E028
:101D50008E850E949E1584E591E00E944D030E94AD
:101D6000D1026B017C018E850E94E41511E0892B64
:101D7000D9F210E0D9CF8E850E94E41511E0892BAD
:101D800009F010E089E090E00E944D030E94D1022A
:101D90006C157D058E059F0538F6C2CF812FDF912A
:101DA000CF911F91FF90EF90DF90CF9008951F93F8
:101DB000CF93DF93FC011081C181D281912F909547
:101DC000F8948A8189238A838981812B898360FFA2
:101DD0000BC089E090E00E944D038A81812B8A83A9
:101DE00078948FE290E00AC087E390E00E944D0370
:101DF0008A81812B8A83789485E090E0DF91CF916E
:101E00001F910C944D030F931F93CF93DF93FC010D
:101E10001081C181D281F8948981812B89838A8143
:101E2000012F009580238A8382E090E00E944D0379
:101E300089818023898387E090E00E944D03C881D7
:101E400078948DE290E00E944D031C2381E009F418
:101E500080E0DF91CF911F910F910895CF92DF9293
:101E6000EF92FF920F931F93CF93DF931F92CDB703
:101E7000DEB76C01E62E08E010E0FF24F3949F2DFE
:101E80009E2161E009F460E0C60149830E94D70EFB
:101E9000FF0C0150110949810115110581F741110C
:101EA00015C0F894D6011196ED91FC91129791818D
:101EB0008C918095892381831196ED91FC911297E5
:101EC00092818C9180958923828378940F90DF9101
:101ED000CF911F910F91FF90EF90DF90CF900895D9
:101EE000FC011386158614861286118610861782C9
:101EF00016821582148213820895CF93DF93EC012A
:101F0000862F6E8760E00E9485158E8590E0FC012B
:101F1000E95DFC4FE491E883FC01E65AFC4FE49153
:101F2000F0E0E357FC4FE491E9831A82CE01DF91A0
:101F3000CF910C94700F1092E50582E08093E1053B
:101F40008CE18093E60580EC91E09093E805809326
:101F5000E705089561E08EE10E94851561E08FE15B
:101F60000E94851561E08DE10E94851560E08EE19B
:101F70000E949E1560E08FE10E949E1561E08DE158
:101F80000E949E158CB580618CBD8CB580648CBD23
:101F900008958CB58F7B8CBD0895811103C08CB5DD
:101FA000806202C08CB58F7D8CBD08959CB5937FF7
:101FB000982B9CBD08952CB5982F93702C7F922B55
:101FC0009CBD9DB580FB90F99DBD0895CF93C62F14
:101FD00061E08DE10E94851561E082E20E94851535
:101FE00061E08DE10E949E1561E082E20E949E15F3
:101FF0008091CD0A9091CE0AA091CF0AB091D00ADB
:10200000A2FF08C061E088E00E94851561E088E0D9
:102010000E949E158091CD0A9091CE0AA091CF0A80
:10202000B091D00A96FF08C061E089E00E94851552
:1020300061E089E00E949E158091CD0A9091CE0AC0
:10204000A091CF0AB091D00AA3FF08C061E082E05E
:102050000E94851561E082E00E949E158091CD0A64
:102060009091CE0AA091CF0AB091D00AA4FF08C0E7
:1020700061E082E20E94851561E082E20E949E1585
:10208000C330C9F020F4C13061F070F407C0C5302E
:1020900061F1F0F0C63009F067C033C060E08DE157
:1020A00060C060E082E25DC08EE893E00E940207BB
:1020B00060E08CE256C08091CD0A9091CE0AA0914A
:1020C000CF0AB091D00AA2FF4FC060E088E049C0BB
:1020D0008091CD0A9091CE0AA091CF0AB091D00AFA
:1020E00096FF42C060E089E03CC08091CD0A9091AB
:1020F000CE0AA091CF0AB091D00AA3FF35C060E00C
:102100002FC061E08DE10E949E1561E082E20E9495
:102110009E158091CD0A9091CE0AA091CF0AB091E0
:10212000D00AA2FF04C061E088E00E949E15809161
:10213000CD0A9091CE0AA091CF0AB091D00A96FF15
:1021400004C061E089E00E949E158091CD0A9091C3
:10215000CE0AA091CF0AB091D00AA3FF05C061E0DA
:1021600082E0CF910C949E15CF9108951092EA05CC
:102170001092E9051092EB051092EC051092ED0516
:102180001092EE05089590917C0020917A002068CD
:1021900020937A009F70981769F090917C008F705F
:1021A000907F892B80937C0061E070E080E090E07C
:1021B0000E94230380917A00806480937A0080914A
:1021C0007A0086FDFCCF2091780030917900932F22
:1021D00080E0AC01422B9A01C9010895CF92DF92B1
:1021E000EF92FF926B017C01411134C088E00E94A4
:1021F000CA03C701B60122E030E040E050E00E948F
:10220000E01B305F414F5F4FCA01B901A701960142
:102210000E94E01BDA01C9010197A109B109892FC8
:102220009A2FAB2FBB27A7FDBA958093C5002150ED
:102230002093C4008091C10080618093C10080918F
:10224000C10088608093C1008091C1008068809344
:10225000C10033C080E10E94CA03C701B60122E079
:1022600030E040E050E00E94E01B305F414F5F4FA4
:10227000CA01B901A70196010E94E01BDA01C90158
:102280000197A109B109892F9A2FAB2FBB27A7FD71
:10229000BA958093CD0021502093CC008091C90045
:1022A00080618093C9008091C90088608093C900D3
:1022B0008091C90080688093C900FF90EF90DF9003
:1022C000CF900895611107C09091C00095FFFCCF99
:1022D0008093C60008959091C80095FFFCCF80932D
:1022E000CE0008951F920F920FB60F9211242F93D4
:1022F0003F934F935F936F937F938F939F93AF938E
:10230000BF93EF93E091C6002091F5053091F6055B
:10231000C901019660E072E00E94AA1B4091F3059A
:102320005091F4058417950741F0D901A353B74F95
:10233000EC939093F6058093F505EF91BF91AF91E3
:102340009F918F917F916F915F914F913F912F91CD
:102350000F900FBE0F901F9018951F920F920FB6FF
:102360000F9211242F933F934F935F936F937F931B
:102370008F939F93AF93BF93EF93E091CE00209103
:10238000F1053091F205C901019660E072E00E940A
:10239000AA1B4091EF055091F0058417950741F075
:1023A000D901A353B94FEC939093F2058093F105B3
:1023B000EF91BF91AF919F918F917F916F915F91BD
:1023C0004F913F912F910F900FBE0F901F90189536
:1023D0000C946211CF93C82F682F8DE00E94621178
:1023E0006C2F8AE0CF910C9462111F93CF93DF93EF
:1023F000162FEC0103C0612F0E9462118991811197
:10240000FACFDF91CF911F9108954F925F926F9213
:102410007F928F929F92AF92BF92CF92DF92EF9274
:10242000FF920F93CF93DF93CDB7DEB7A0970FB690
:10243000F894DEBF0FBECDBF29013A0161157105C9
:1024400081059105C9F4602F80E3A0960FB6F8943A
:10245000DEBF0FBECDBFDF91CF910F91FF90EF9008
:10246000DF90CF90BF90AF909F908F907F906F90B4
:102470005F904F900C946211EE24E394F12CEC0EDB
:10248000FD1E812C912C5401A30192010E94BE1BC0
:10249000F70161937F01FFEF8F1A9F0AAF0ABF0A0E
:1024A000B901CA01611571058105910569F7CC244F
:1024B000CA94DC2C7601C80CD91CEA1CFB1C14C085
:1024C000E1E0F0E0EC0FFD1FEC0DFD1D80818A3096
:1024D00010F4805D01C0895C602F0E94621181E070
:1024E000C81AD108E108F108EFEFCE16DE06EE06B5
:1024F000FE0631F7A0960FB6F894DEBF0FBECDBF33
:10250000DF91CF910F91FF90EF90DF90CF90BF9030
:10251000AF909F908F907F906F905F904F900895B5
:10252000CF92DF92EF92FF920F936B017C01042F09
:1025300097FF0CC0642F8DE20E946211F094E0942A
:10254000D094C094C11CD11CE11CF11C2AE030E0E5
:1025500040E050E0C701B6010E9405120F91FF90C4
:10256000EF90DF90CF90089510920006E4E6F0E03F
:1025700080818F778083589A599AE9EBF0E08081C7
:102580008E7F808380818D7F808381E48093B800FB
:1025900085E48093BC0080E2E1E0F6E0DF01982F63
:1025A0001D929A95E9F7E1E2F6E0DF01982F1D927E
:1025B0009A95E9F7E1E4F6E0DF011D928A95E9F7E3
:1025C0000895613298F420910006243089F46093D4
:1025D000FD05FC0181E296E0DC0102C021912D9312
:1025E0002A2F281B2617D0F380E0089581E0089554
:1025F00082E0089585EC8093BC0010920006089557
:10260000589859988091B90081608093B900809161
:10261000B90082608093B9008091BC00806880938B
:10262000BC008091BC0080618093BC008091BC00A4
:102630008F7B8093BC008091BC008F7D8093BC0019
:102640008091BC00877F8093BC008091CD0A9091DF
:10265000CE0AA091CF0AB091D00A86FD14C0809115
:10266000CD0A9091CE0AA091CF0AB091D00A90FDE8
:102670000AC08091CD0A9091CE0AA091CF0AB09164
:10268000D00A93FF04C08091BC008B7F03C080916F
:10269000BC0084608093BC008091BC008E7F8093DE
:1026A000BC00809164008068809364000895882352
:1026B00049F01092F7051092F8051092F905109262
:1026C000FA0513C08091F7059091F805A091F905DE
:1026D000B091FA050196A11DB11D8093F705909365
:1026E000F805A093F905B093FA058091F70590914C
:1026F000F805A091F905B091FA05803A9648A140F5
:10270000B10560F01092F7051092F8051092F905E6
:102710001092FA050E94B41281E0089580E00895B5
:1027200085ED8093BC0081E00E94571308C080E0D3
:102730000E945713882319F0109200060895809183
:10274000BC0084FDF4CFF8CFFF920F931F93CF937B
:10275000DF93182F062FF72EC42FD22F81E041329E
:1027600008F051C00E94571315C080E00E94571313
:10277000882381F082E0809300068FEF8093FB0531
:102780001092FF05C0936106E02FFF2D61E076E017
:10279000DB0107C0809100068111E7CFEBCF81916B
:1027A0008D938A2F861B8C17D0F3812F90E0880F92
:1027B000991F8093620685EE8093BC0081E00E94A1
:1027C0005713D11105C08091FB058F3F59F414C0F8
:1027D000809100068230B9F780E00E945713811182
:1027E0000DC0F6CF8091FB05803251F08091FB0542
:1027F000803341F483E007C080E005C085E003C07A
:1028000082E001C084E0DF91CF911F910F91FF9092
:1028100008950F931F93CF93DF93082FD62F172F71
:10282000C42F81E04132E0F50E9457131DC080E0C3
:102830000E9457138823C1F081E0809300068FEF38
:102840008093FB051092FF05C0936106802F90E0F6
:10285000880F991F81608093620685EE8093BC008B
:1028600081E00E94571310C0809100068111DFCFD4
:10287000E3CF80E00E945713882331F081E096E097
:10288000ED2FF12FDC0107C080910006813089F324
:10289000F5CF2D9121932A2F281B2C17D0F380E000
:1028A000DF91CF911F910F9108951F920F920FB654
:1028B0000F9211240BB60F922F933F934F935F9378
:1028C0006F937F938F939F93AF93BF93CF93EF9328
:1028D000FF93C091B900C87FC03609F49FC058F576
:1028E000C83209F45BC090F4C03109F452C038F426
:1028F000CC2309F4F2C0C83009F0F3C04AC0C83193
:1029000009F44CC0C03209F0ECC05DC0C03409F419
:1029100073C038F4C03309F45BC0C83309F0E1C0B8
:102920005AC0C03509F45CC0C83509F46AC0C8345F
:1029300009F0D7C0D4C0C83909F4C5C0A8F4C83755
:1029400009F46CC038F4C83609F468C0C03709F01F
:10295000C8C064C0C83809F4B6C0C03909F464C03E
:10296000C03809F0BEC060C0C03B09F484C038F470
:10297000C03A09F46BC0C83A09F0B3C07CC0C03C8F
:1029800009F4A5C0C83C09F4A2C0C83B09F0A9C01D
:1029900087C0809162068093BB0013C09091FF05B1
:1029A00080916106981708F09AC08091FF05E82F82
:1029B000F0E0EF5FF94F90819093BB008F5F8093C1
:1029C000FF0585EC81C00E949013C093FB0589C070
:1029D000C093FB0584C0C093FB050E94FA1281C01E
:1029E0008091FF059091BB00E82FF0E0EF5FF94F79
:1029F00090838F5F8093FF059091FF058091610622
:102A00005FC08091FF059091BB00E82FF0E0EF5F81
:102A1000F94F90838F5F8093FF0561C083E08093BF
:102A200000061092FC05CDCF8091FC05803208F0A5
:102A30004AC08091FC059091BB00E82FF0E0EF5B6D
:102A4000F94F90838F5F8093FC05BBCF8091FC058D
:102A5000803230F4E091FC05F0E0EF5BF94F10823A
:102A60006091FC05E0916306F091640670E081E4FA
:102A700096E009952CC084E0809300061092FE0534
:102A80001092FD05E0916506F0916606099580912A
:102A9000FD05811105C081E08093FD05109221069E
:102AA0008091FE05E82FF0E0EF5DF94F9081909363
:102AB000BB008F5F8093FE059091FE058091FD0520
:102AC000981708F47ECF85E88093BC000AC085EC97
:102AD0008093BC001092000604C01092FB050E9477
:102AE0009013FF91EF91CF91BF91AF919F918F91F3
:102AF0007F916F915F914F913F912F910F900BBEFE
:102B00000F900FBE0F901F90189590E0FC01E95DAB
:102B1000FC4F2491FC01E65AFC4FE491EE2369F04E
:102B2000F0E0E356FC4FA491B0E08C91611103C03A
:102B30002095822301C0822B8C93089590E0FC01A4
:102B4000EC50FD4F2491FC01E95DFC4F3491FC01F8
:102B5000E65AFC4F84918823B1F1222331F12330CE
:102B600021F4909180009F7705C0243031F490913A
:102B700080009F7D9093800018C0213019F494B597
:102B80009F7704C0223021F494B59F7D94BD0DC081
:102B9000263021F49091B0009F7705C0273029F4AA
:102BA0009091B0009F7D9093B000E82FF0E0EB563D
:102BB000FC4FA491B0E08C91611103C03095832348
:102BC00001C0832B8C93089590E0FC01EC50FD4FE5
:102BD0002491FC01E95DFC4F3491FC01E65AFC4F65
:102BE0008491882399F1222331F1233021F49091AB
:102BF00080009F7705C0243031F4909180009F7D44
:102C00009093800018C0213019F494B59F7704C0C8
:102C1000223021F494B59F7D94BD0DC0263021F45F
:102C20009091B0009F7705C0273029F49091B000B3
:102C30009F7D9093B000E82FF0E0E357FC4FE491C4
:102C4000F0E08081832321E030E011F420E030E0E7
:102C5000C90108951F920F920FB60F9211240BB65F
:102C60000F922F933F934F935F936F937F938F9325
:102C70009F93AF93BF93EF93FF93809167069091DB
:102C80006806892B29F0E0916706F091680609959E
:102C9000FF91EF91BF91AF919F918F917F916F9134
:102CA0005F914F913F912F910F900BBE0F900FBEF0
:102CB0000F901F9018951F920F920FB60F9211242C
:102CC0000BB60F922F933F934F935F936F937F9326
:102CD0008F939F93AF93BF93EF93FF938091690678
:102CE00090916A06892B29F0E0916906F0916A06B5
:102CF0000995FF91EF91BF91AF919F918F917F9136
:102D00006F915F914F913F912F910F900BBE0F905C
:102D10000FBE0F901F9018951F920F920FB60F9233
:102D200011240BB60F922F933F934F935F936F93A2
:102D30007F938F939F93AF93BF93EF93FF93809174
:102D40006B0690916C06892B29F0E0916B06F0914F
:102D50006C060995FF91EF91BF91AF919F918F9173
:102D60007F916F915F914F913F912F910F900BBE8B
:102D70000F900FBE0F901F9018951F920F920FB6D5
:102D80000F9211240BB60F922F933F934F935F93A3
:102D90006F937F938F939F93AF93BF93EF93FF9323
:102DA00080916D0690916E06892B29F0E0916D0659
:102DB000F0916E060995FF91EF91BF91AF919F91B0
:102DC0008F917F916F915F914F913F912F910F90D4
:102DD0000BBE0F900FBE0F901F9018951F920F9271
:102DE0000FB60F9211240BB60F922F933F934F9370
:102DF0005F936F937F938F939F93AF93BF93EF9363
:102E0000FF9380916F0690917006892B29F0E091D5
:102E10006F06F09170060995FF91EF91BF91AF9108
:102E20009F918F917F916F915F914F913F912F91E2
:102E30000F900BBE0F900FBE0F901F9018951F9212
:102E40000F920FB60F9211240BB60F922F933F9350
:102E50004F935F936F937F938F939F93AF93BF93A2
:102E6000EF93FF938091710690917206892B29F060
:102E7000E0917106F09172060995FF91EF91BF9173
:102E8000AF919F918F917F916F915F914F913F9102
:102E90002F910F900BBE0F900FBE0F901F901895A3
:102EA0001F920F920FB60F9211240BB60F922F9311
:102EB0003F934F935F936F937F938F939F93AF93C2
:102EC000BF93EF93FF938091730690917406892BC3
:102ED00029F0E0917306F09174060995FF91EF9146
:102EE000BF91AF919F918F917F916F915F914F9122
:102EF0003F912F910F900BBE0F900FBE0F901F9020
:102F000018951F920F920FB60F9211240BB60F92C5
:102F10002F933F934F935F936F937F938F939F93E1
:102F2000AF93BF93EF93FF938091750690917606D0
:102F3000892B29F0E0917506F09176060995FF91AD
:102F4000EF91BF91AF919F918F917F916F915F9121
:102F50004F913F912F910F900BBE0F900FBE0F908E
:102F60001F901895CF93DF93EC0180E2E5EAF6E03D
:102F7000DF01982F1D929A95E9F71092A4061092FE
:102F8000A306E2E8F6E0DF011D928A95E9F71092C8
:102F90008106109280060E94B41281E08E8384E044
:102FA00090E0DF91CF910C944D0381E080937F06F8
:102FB0006093A206109281061092800608950C94E8
:102FC000D5178091A3069091A406891B089590912E
:102FD000A4068091A306981748F4E92FF0E0EB557A
:102FE000F94F80819F5F9093A406089580E0089533
:102FF000CF93DF93EC010E9400131E82DF91CF91EB
:1030000008954091CD0A5091CE0A6091CF0A7091F7
:10301000D00A4170FC0140834091CD0A5091CE0A04
:103020006091CF0A7091D00A76956795579547952C
:10303000417041838091CD0A9091CE0AA091CF0A30
:10304000B091D00A84FD49C08091CD0A9091CE0AFA
:10305000A091CF0AB091D00A85FD3FC08091CD0AE2
:103060009091CE0AA091CF0AB091D00A86FD35C0CA
:103070008091CD0A9091CE0AA091CF0AB091D00A4A
:1030800087FD2BC08091CD0A9091CE0AA091CF0AE6
:10309000B091D00A90FD21C08091CD0A9091CE0AC6
:1030A000A091CF0AB091D00A91FD17C08091CD0AAE
:1030B0009091CE0AA091CF0AB091D00A93FD0DC095
:1030C000089540E060E08BE495E00E94620840E0F3
:1030D00061E08BE495E00C94620880917E06882381
:1030E00081F30895CF93DF93EC018091CD0A909105
:1030F000CE0AA091CF0AB091D00A84FD58C0809129
:10310000CD0A9091CE0AA091CF0AB091D00A85FD48
:103110004EC08091CD0A9091CE0AA091CF0AB09175
:10312000D00A86FD44C08091CD0A9091CE0AA0912C
:10313000CF0AB091D00A87FD3AC08091CD0A909114
:10314000CE0AA091CF0AB091D00A90FD30C0409134
:10315000CD0A5091CE0A6091CF0A7091D00A51FDEC
:1031600026C04091CD0A5091CE0A6091CF0A70914D
:10317000D00A53FD1CC020C041E060E08BE495E024
:103180000E9462080CC08981811106C041E060E0A4
:103190008BE495E00E946208888181110DC041E0B6
:1031A00061E08BE495E0DF91CF910C94620880910F
:1031B0007E068111E8CFE0CFDF91CF910895CF93C4
:1031C000DF931F92CDB7DEB7698380917F06882396
:1031D00089F0809180068032D0F480918106E82FBA
:1031E000F0E0EE57F94F60838F5F80938106809304
:1031F00080060DC087E796E00E94011861E0CE01CD
:1032000001960E94E11287E796E00E9472180F90E3
:10321000DF91CF9108950C94DF18CF9387E796E064
:103220000E94011821E04091800662E876E08091DA
:10323000A2060E94A413C82F109281061092800645
:1032400010927F0687E796E00E9472188C2FCF912C
:103250000895CF93DF93D62FC42F87E796E00E947F
:103260000118C13208F0C0E24C2F65EA76E08D2FDC
:103270000E940914D82F1092A406C093A30687E7D2
:1032800096E00E9472188D2FDF91CF9108950C94D3
:10329000291910927E0610927706109278068AEF0E
:1032A00090E0A0E0B0E08093790690937A06A09336
:1032B0007B06B0937C0608955058BB27AA270ED0F2
:1032C00075C166D130F06BD120F031F49F3F11F41D
:1032D0001EF45BC10EF4E095E7FB51C1E92F77D1F5
:1032E00080F3BA17620773078407950718F071F423
:1032F0009EF58FC10EF4E0950B2EBA2FA02D0B0179
:10330000B90190010C01CA01A0011124FF27591B2A
:1033100099F0593F50F4503E68F11A16F040A22F30
:10332000232F342F4427585FF3CF469537952795A1
:10333000A795F0405395C9F77EF41F16BA0B620BA0
:10334000730B840BBAF09150A1F0FF0FBB1F661FE7
:10335000771F881FC2F70EC0BA0F621F731F841F2A
:1033600048F4879577956795B795F7959E3F08F050
:10337000B3CF9395880F08F09927EE0F979587950F
:103380000895D9D008F481E008950CD00FC107D179
:1033900040F0FED030F021F45F3F19F0F0C0511141
:1033A00039C1F3C014D198F39923C9F35523B1F36C
:1033B000951B550BBB27AA2762177307840738F0A4
:1033C0009F5F5F4F220F331F441FAA1FA9F333D003
:1033D0000E2E3AF0E0E830D091505040E695001CB7
:1033E000CAF729D0FE2F27D0660F771F881FBB1F73
:1033F000261737074807AB07B0E809F0BB0B802D4D
:10340000BF01FF2793585F4F2AF09E3F510568F098
:10341000B6C000C15F3FECF3983EDCF3869577952C
:103420006795B795F7959F5FC9F7880F911D96959A
:10343000879597F90895E1E0660F771F881FBB1FF6
:10344000621773078407BA0720F0621B730B840BA3
:10345000BA0BEE1F88F7E095089504D06894B11177
:10346000D9C00895BCD088F09F5790F0B92F992704
:10347000B751A0F0D1F0660F771F881F991F1AF07F
:10348000BA95C9F712C0B13081F0C3D0B1E0089548
:10349000C0C0672F782F8827B85F39F0B93FCCF3C9
:1034A000869577956795B395D9F73EF49095809575
:1034B000709561957F4F8F4F9F4F0895E89409C095
:1034C00097FB3EF490958095709561957F4F8F4F57
:1034D0009F4F9923A9F0F92F96E9BB279395F6956D
:1034E000879577956795B795F111F8CFFAF4BB0FEB
:1034F00011F460FF1BC06F5F7F4F8F4F9F4F16C04F
:10350000882311F096E911C0772321F09EE8872FD8
:10351000762F05C0662371F096E8862F70E060E094
:103520002AF09A95660F771F881FDAF7880F96950D
:10353000879597F90895990F0008550FAA0BE0E8B1
:10354000FEEF16161706E807F907C0F01216130665
:10355000E407F50798F0621B730B840B950B39F4A5
:103560000A2661F0232B242B252B21F408950A260B
:1035700009F4A140A6958FEF811D811D089597F94B
:103580009F6780E870E060E008959FEF80EC089509
:1035900000240A9416161706180609060895002432
:1035A0000A9412161306140605060895092E0394AC
:1035B000000C11F4882352F0BB0F40F4BF2B11F420
:1035C00060FF04C06F5F7F4F8F4F9F4F089557FD7F
:1035D0009058440F551F59F05F3F71F04795880F81
:1035E00097FB991F61F09F3F79F087950895121618
:1035F00013061406551FF2CF4695F1DF08C01616C4
:1036000017061806991FF1CF869571056105089474
:103610000895E894BB2766277727CB0197F908958B
:103620008ADF08F48FEF08950BD0C0CFB1DF28F008
:10363000B6DF18F0952309F0A2CFA7CF1124EACF67
:10364000C6DFA0F3959FD1F3950F50E0551F629F01
:10365000F001729FBB27F00DB11D639FAA27F00DEB
:10366000B11DAA1F649F6627B00DA11D661F829F12
:103670002227B00DA11D621F739FB00DA11D621FF7
:10368000839FA00D611D221F749F3327A00D611D14
:10369000231F849F600D211D822F762F6A2F1124F6
:1036A0009F5750408AF0E1F088234AF0EE0FFF1F49
:1036B000BB1F661F771F881F91505040A9F79E3F80
:1036C000510570F05CCFA6CF5F3FECF3983EDCF382
:1036D000869577956795B795F795E7959F5FC1F7BD
:1036E000FE2B880F911D9695879597F90895A29FB7
:1036F000B001B39FC001A39F01D0B29F700D811D87
:103700001124911D08950E94771BA59F900DB49FD1
:10371000900DA49F800D911D11240895B7FF0C9466
:10372000831B0E94831B821B930B0895AA1BBB1B48
:1037300051E107C0AA1FBB1FA617B70710F0A61BB1
:10374000B70B881F991F5A95A9F780959095BC01D2
:10375000CD01089597FB072E16F4009407D077FD4E
:1037600009D00E94961B07FC05D03EF490958195E8
:103770009F4F0895709561957F4F0895A1E21A2E8D
:10378000AA1BBB1BFD010DC0AA1FBB1FEE1FFF1F05
:10379000A217B307E407F50720F0A21BB30BE40B55
:1037A000F50B661F771F881F991F1A9469F760959C
:1037B0007095809590959B01AC01BD01CF01089556
:1037C000052E97FB16F4009407D057FD0DD00E94EC
:1037D000BE1B07FC09D07EF490958095709561958D
:1037E0007F4F8F4F9F4F089550954095309521956D
:1037F0003F4F4F4F5F4F0895689401C0E8948F92F8
:103800009F92CF93DF930E940A1CDF91CF919F90EC
:103810008F90089588249924F401E401B0E49F93E3
:10382000AA279A158B049C04ED05FE05CF05D00749
:10383000A10798F4AD2FDC2FCF2FFE2FE92D982C68
:10384000892E982F872F762F652F542F432F322FB5
:103850002227B85031F7BF9127C01B2EBF91BB273D
:10386000220F331F441F551F661F771F881F991F84
:10387000881C991CEE1FFF1FCC1FDD1FAA1FBB1F3A
:103880008A149B04EC05FD05CE05DF05A007B107F2
:1038900048F08A189B08EC09FD09CE09DF09A00B46
:1038A000B10B21601A94E1F62EF49401AF01BE0130
:1038B000CD01000C08950F930F7351F0220F331FA9
:1038C000441F551F661F771F881F991F0A95B1F760
:1038D0000F9108952A0D3B1D4C1D5D1D6E1D7F1D12
:1038E000801F911F08950790F691E02D09948F9203
:1038F0009F92AF92BF92CF92DF92EF92FF92CF93BF
:10390000DF93EC01688179818A819B816115710562
:103910008105910521F464E279ED8BE597E02DE1D5
:1039200033EF41E050E00E94E01B49015A019B0146
:10393000AC01A7EAB1E40E94831B6B017C01ACEEF1
:10394000B4EFA50194010E94911BC60ED71EE81E7C
:10395000F91EF7FE06C081E0C81AD108E10880E828
:10396000F80AC882D982EA82FB82E894D7F8EE246A
:10397000FF24C601DF91CF91FF90EF90DF90CF90B1
:10398000BF90AF909F908F9008950C94771C86E025
:1039900092E00C94771CA0E0B0E080930602909334
:1039A0000702A0930802B09309020895FB01DC010D
:1039B00005900D920020E1F70895FB01DC010D90C8
:1039C0000020E9F7119701900D920020E1F708958A
:1039D0000F931F93CF93DF93CDB7DEB72E970FB61C
:1039E000F894DEBF0FBECDBF0D891E898F89988DDB
:1039F00026E02C831A83098397FF02C080E090E8B9
:103A000001979E838D83CE014B96AC01698D7A8D93
:103A1000CE0101960E94251D4D815E8157FD0AC091
:103A20002F813885421753070CF49A01F801E20FF1
:103A3000F31F10822E960FB6F894DEBF0FBECDBFD7
:103A4000DF91CF911F910F9108952F923F924F9246
:103A50005F926F927F928F929F92AF92BF92CF921E
:103A6000DF92EF92FF920F931F93CF93DF93CDB727
:103A7000DEB72C970FB6F894DEBF0FBECDBF7C012A
:103A80006B018A01FC0117821682838181FFC6C106
:103A900088248394912C8C0E9D1EF7019381F6014E
:103AA00093FD859193FF81916F01882309F4B2C141
:103AB000853239F493FD859193FF81916F018532B1
:103AC00029F4B70190E00E945C1FE7CF512C312C04
:103AD00020E02032A8F48B3261F028F4803251F0DB
:103AE000833271F40BC08D3239F0803349F4216098
:103AF00028C02260246025C0286023C0206121C026
:103B000027FD27C0382F30533A3078F426FF06C0FF
:103B1000FAE05F9E300D1124532E13C08AE0389EC8
:103B2000300D1124332E20620CC08E3221F426FD7C
:103B300071C1206406C08C3611F4206802C088363A
:103B400041F4F60193FD859193FF81916F018111FD
:103B5000C0CF982F9554933018F09052933028F49A
:103B60000C5F1F4FFFE3F9830DC0833631F08337BD
:103B700071F0833509F05EC023C0F801808189832C
:103B80000E5F1F4F44244394512C540115C038013B
:103B9000F2E06F0E711CF801A080B18026FF03C017
:103BA000652D70E002C06FEF7FEFC5012C870E948A
:103BB000511F2C0183012C856FE7262E222218C06D
:103BC0003801F2E06F0E711CF801A080B18026FF71
:103BD00003C0652D70E002C06FEF7FEFC5012C8739
:103BE0000E94461F2C012C8550E8252E222A830195
:103BF00023FC1CC006C0B70180E290E00E945C1F5D
:103C00003A94832D90E048165906A8F30FC0F501A9
:103C100027FC859127FE81915F01B70190E00E940A
:103C20005C1F31103A94F1E04F1A510841145104CD
:103C300071F7EDC0843611F0893641F5F80127FFA0
:103C400007C060817181828193810C5F1F4F08C022
:103C500060817181882777FD8095982F0E5F1F4FB7
:103C60004FE6B42EB22297FF09C0909580957095CB
:103C700061957F4F8F4F9F4FF0E8BF2A2AE030E0D9
:103C8000A4010E94881FA82EA81843C0853731F4CC
:103C90003FEEB32EB2222AE030E024C099EFB92ED5
:103CA000B2228F36B9F020F4883509F0B3C00DC0C8
:103CB000803721F0883709F0ADC002C020E1B22A78
:103CC000B4FE0BC084E0B82A08C024FF09C0E6E0B7
:103CD000BE2A06C028E030E005C020E130E002C086
:103CE00020E132E0F801B7FE07C060817181828176
:103CF00093810C5F1F4F06C06081718180E090E06E
:103D00000E5F1F4FA4010E94881FA82EA818FFE76E
:103D1000BF22B6FE0BC02B2D2E7FA51450F4B4FE8F
:103D20000AC0B2FC08C02B2D2E7E05C07A2C2B2D8C
:103D300003C07A2C01C0752C24FF0DC0FE01EA0DD2
:103D4000F11D8081803311F4297E09C022FF06C055
:103D50007394739404C0822F867809F0739423FDC2
:103D600014C020FF0FC05A2C731460F4530C571862
:103D7000732C08C0B70180E290E02C870E945C1F82
:103D800073942C857314B0F304C0731410F43718B3
:103D900001C0312C24FF12C0B70180E390E02C87D2
:103DA0000E945C1F2C8522FF1EC021FF03C088E5F6
:103DB00090E002C088E790E0B7010CC0822F8678BF
:103DC00091F021FD02C080E201C08BE227FD8DE26F
:103DD000B70190E00E945C1F06C0B70180E390E04D
:103DE0000E945C1F5A94A514C0F3AA94F401EA0D32
:103DF000F11DB701808190E00E945C1FA110F5CFFA
:103E000006C0B70180E290E00E945C1F3A94311036
:103E1000F8CF43CEF7012681378102C02FEF3FEF65
:103E2000C9012C960FB6F894DEBF0FBECDBFDF914F
:103E3000CF911F910F91FF90EF90DF90CF90BF90A7
:103E4000AF909F908F907F906F905F904F903F903A
:103E50002F900895F999FECF92BD81BDF89A9927C8
:103E600080B50895A6E1B0E044E050E00C94E81F6E
:103E7000262FF999FECF1FBA92BD81BD20BD0FB686
:103E8000F894FA9AF99A0FBE01960895FC010590EC
:103E9000615070400110D8F7809590958E0F9F1F4C
:103EA0000895FC016150704001900110D8F7809591
:103EB00090958E0F9F1F08950F931F93CF93DF93BD
:103EC0008C01EB018B8181FD03C00FEF1FEF1AC046
:103ED00082FF0DC02E813F818C819D81281739077B
:103EE00064F4E881F9810193F983E88306C0E885E9
:103EF000F985802F0995892B41F78E819F81019645
:103F00009F838E83C801DF91CF911F910F910895F8
:103F1000FA01AA27283051F1203181F1E8946F93FA
:103F20006E7F6E5F7F4F8F4F9F4FAF4FB1E03ED0A0
:103F3000B4E03CD0670F781F891F9A1FA11D680F3E
:103F4000791F8A1F911DA11D6A0F711D811D911D71
:103F5000A11D20D009F468943F912AE0269F1124E6
:103F60003019305D3193DEF6CF010895462F47704A
:103F7000405D4193B3E00FD0C9F7F6CF462F4F70A5
:103F8000405D4A3318F0495D31FD4052419302D003
:103F9000A9F7EACFB4E0A6959795879577956795A9
:103FA000BA95C9F700976105710508959B01AC01A9
:103FB0000A2E06945795479537952795BA95C9F7D0
:103FC000620F731F841F951FA01D0895DC01CB0194
:103FD000FC01F999FECF06C0F2BDE1BDF89A319619
:103FE00000B40D9241505040B8F70895F894FFCFB7
:103FF0000000DF0A2000010000000A2D2D2D2D2DCC
:104000002D2D2D2D2D2D2D2D2D2D2D2D2D2D2D2DE0
:104010002D2D2D2D2D2D2D2D2D2D2D2D2D2D2D2DD0
:104020002D2D2D2D2D2D2D2D2D2D2D2D2D2D2D2DC0
:104030002D2D2D2D2D2D2D2D2D2D2D2D2D2D0A57A9
:1040400041524E494E473A20546869732065786161
:104050006D706C65206973207375697461626C653D
:1040600020666F7220726563686172676561626C59
:104070006520626174746572696573206F6E6C7916
:104080002E0A4E6F6E2D726563686172676561629C
:104090006C652062617474657269657320616C7708
:1040A0006179732073686F77206120706C61696E2D
:1040B00020646973636861726765206375727665F1
:1040C0002C0A736F206974206973206E6F742070DE
:1040D0006F737369626C6520746F206B6E6F7720ED
:1040E000686F77206D75636820706F7765722069DF
:1040F00073206C6566742E0A2D2D2D2D2D2D2D2DE2
:104100002D2D2D2D2D2D2D2D2D2D2D2D2D2D2D2DDF
:104110002D2D2D2D2D2D2D2D2D2D2D2D2D2D2D2DCF
:104120002D2D2D2D2D2D2D2D2D2D2D2D2D2D2D2DBF
:104130002D2D2D2D2D2D2D2D2D2D2D0A00015375BD
:104140006E004D6F6E0054756500576564005468CD
:1041500075004672690053617400496E76616C693E
:104160006420474D542076616C7565003A3A3A3ABE
:044170003A3A0000D7
:00000001FF
