:100000000C948C060C94FE380C942F390C946039A7
:100010000C9491390C94C2390C94F3390C94243A11
:100020000C94553A0C94BB060C94BB060C94BB067E
:100030000C9416190C94BB060C94BB060C94721904
:100040000C94BB060C94BB060C94BB060C94BB062C
:100050000C94BB060C94BB060C94BB060C944D1977
:100060000C94BB060C94A21C0C94BB060C94BB060F
:100070000C94BB060C94BB060C94BB060C94BB06FC
:100080000C94BB060C94BB060C94BB060C94BB06EC
:100090000C94DD1C0C94BB060C94BB060C94CE3760
:1000A0000C94BB060C94BB060C94BB060C94BB06CC
:1000B0000C94BB060C94BB060C94BB060C94BB06BC
:1000C0000C94BB060C94BB060C94BB064750535FC4
:1000D0003035206578616D706C65000A2D2D2D2DF1
:1000E0002D2D2D2D2D2D2D2D2D2D2D2D2D2D2D2D40
:1000F0002D2D00436F6E6E6563746564002D2D2D8C
:100100002D2D2D2D2D2D2D2D2D2D2D2D2D2D2D2D1F
:100110002D2D2D000A2D2D2D2D2D2D2D2D2D2D2D5F
:100120002D2D2D2D2D2D2D2D2D2D2D0047505320D6
:1001300054494D454F55542E204E4F5420636F6EF9
:100140006E6563746564002D2D2D2D2D2D2D2D2DA7
:100150002D2D2D2D2D2D2D2D2D2D2D2D2D0073657E
:100160006E64206F6B006572726F720082019D0178
:10017000C101C801CF01D601DD01E401EB01F001AD
:10018000FC0124505352463130302C302C31313563
:100190003230302C382C312C302A3030002450535F
:1001A00052463130342C25732C25732C25732C2585
:1001B000732C25732C25732C25732C25732A303032
:1001C00000244750524D43002447504747410024E4
:1001D0004750475341002447504753560024475047
:1001E000474C4C002447505654470025730D0A00D5
:1001F00024505352463132352A3030002450535265
:100200004631393500DD05E005E405E705EB05EF8E
:1002100005F305F705FB05FE050206050609060DB3
:10022000061106160619061C06210625062A062DA5
:10023000063006340638063B063F06430647064AA4
:10024000064F065206550658065C06600665066BA4
:10025000067006730677067A067D06800683068793
:10026000068A068E069206950698069B069E06A2AC
:1002700006A606AB06AF06B206B606BB06C006C4A7
:1002800006C806D006D406DB06DF06E306E906ED5F
:1002900006F006F306F706FA06FF06020707070C44
:1002A00007100715071A071E07240728072E07340B
:1002B000073B07410747074B0754075E076207677D
:1002C000076C07710775077A077F0784078B07920A
:1002D000079907A007A607AC07B207B607BD07C373
:1002E00007C907CF07D507DA07DF07E407E907EEF5
:1002F00007F307FA07010808080D08120816081B7B
:1003000008200826082C0833083908400846084DFC
:100310000854085B08620868086F0875087C088341
:10032000088A08900897089D08A308AA08B208B58B
:1003300008B808BA08BE08C408C908CE08D408DA44
:1003400008E008E608EC08F208F808FE0804090AC4
:1003500009100915091A091F0925092B09020202AA
:10036000020202020202020202020202020202006F
:10037000000000020002000002020202010002026C
:10038000020202020202020202020002020202024F
:100390000200020103030300000101020104030340
:1003A000030303020202020202020202020202022A
:1003B0000202000000040202020202020002020223
:1003C0000202020202020202020202020200000013
:1003D000000000000000020204020000000202020D
:1003E00002020202020202020202020202020202ED
:1003F00002020202020202020202020202020202DD
:1004000002020202020202020203030303030303C5
:1004100003030303030202010203030000000003BD
:1004200000030000030303020000020201020203B2
:100430000202030303020002060203030300060094
:1004400000000000000000020000000000000002A8
:100450000301010203030303030303030303000077
:10046000000302020203030300020202020202026C
:100470000202020202020303030000000000000067
:100480000000030300010000000303030303030350
:100490000303030303030303030302020002020036
:1004A000040404000303030303030303030303021D
:1004B00002020303034552522073656E736F72206C
:1004C0007479706520262076616C7565206D69737E
:1004D0006D617463682C20002076732000455252B1
:1004E0002073656E736F7220747970652026207694
:1004F000616C7565206D69736D617463682C200093
:1005000020767320000101010101010101010101B7
:1005100001010101010101010101010101010101CB
:1005200001010101030101010101010101010101B9
:1005300001010101010101010101020101010103A8
:100540000301010103010101010101010101010197
:100550000101010101010101010101030301010187
:10056000010101010101010101010101010101017B
:10057000010101010101010101010101010101016B
:10058000010101010101010101010101010101015B
:10059000010101010101010101010101010101024A
:1005A000010101010101010101010101010101013B
:1005B000014552522073656E736F722074797065B5
:1005C0002026206E756D626572206F6620666965F3
:1005D0006C6473206D69736D6174636800434F00D0
:1005E000434F32004F3200434834004C5047004ED6
:1005F00048330041503100415032005356004E4FB5
:1006000032004F3300564F4300544341005446419B
:100610000048554D410050410050570042454E445E
:10062000005642520048414C4C004C50004C4C008B
:100630004C554D00504952005354004D4350004317
:10064000444700435047004C440044555354005520
:1006500053004D460050530054434200544642005C
:1006600048554D4200534F494C5400534F494C009C
:100670004C5700504152005556005444005344001A
:10068000464400414E4500575600504C56005241DA
:1006900044004355005746004C4300444600424145
:1006A00054004750530052535349004D4143004EAC
:1006B00041004E494400444154450054494D4500D1
:1006C000474D540052414D00494E5F54454D500036
:1006D000414343004D494C4C495300535452004D43
:1006E0004254004D57494649005549440052420082
:1006F0005048004F525000444F00434F4E44005763
:10070000540044494E410044494341004449460095
:100710004449434C00444942520044494900444939
:100720004355320044494B0044494D473200444947
:100730004E4F330054585F50575200444D5F53544E
:1007400000444D5F5350004C5558005350454544AC
:100750005F4F4700434F555253455F4F4700414C51
:10076000540048444F500056444F500050444F509E
:100770000046534D00504C563100504C56320050FC
:100780004C563300534F494C5F4300534F494C5F25
:100790004400534F494C5F4500534F494C5F46005E
:1007A000534F494C3100534F494C3200534F494C41
:1007B00033005443430055535F3356330055535F62
:1007C0003556004C554D5F44004C554D5F45004C2F
:1007D000554D5F46004C505F44004C505F45004C07
:1007E000505F46004C4C5F44004C4C5F45004C4C05
:1007F0005F460048414C4C5F440048414C4C5F45CB
:100800000048414C4C5F460057465F430057465FE7
:10081000450054535400545552420056415049002B
:100820005650524F470056424F4F540047505F4377
:100830004C320047505F434F0047505F45544F00D4
:1008400047505F48320047505F4832530047505F7F
:1008500048434C0047505F48434E0047505F4E4866
:10086000330047505F4E4F0047505F4E4F320047B6
:10087000505F4F320047505F5048330047505F533E
:100880004F320047505F4348340047505F4F3300BA
:1008900047505F434F320047505F54430047505F1B
:1008A00054460047505F48554D0047505F505245F1
:1008B00053005443005446005000504D3100504DF9
:1008C000325F3500504D3130005041525400535783
:1008D00049434100535749464C005357494642004B
:1008E0005357494E4F0053574942520053574943BB
:1008F0004C00535749435500535749494F005357EC
:100900004950420053574941470053574950480006
:1009100050485F410050485F420050485F43004FDD
:1009200052505F41004F52505F42004F52505F4360
:100930000059096D099309BA09DA09F209000A1088
:100940000A250A3B0A4C0A580A5F0A7C0A9A0AB02E
:100950000ABE0ACE0AF10AF70A416C61726D204D97
:100960006F6465206D61746368657320005B44612A
:1009700079203A20686F757273203A206D696E7520
:10098000746573203A207365636F6E64735D202D08
:100990003E20005B44617465203A20686F75727375
:1009A000203A206D696E75746573203A2073656313
:1009B0006F6E64735D202D3E20005B486F7572730F
:1009C000203A206D696E75746573203A20736563F3
:1009D0006F6E64735D202D3E20005B4D696E7574F3
:1009E0006573203A207365636F6E64735D202D3EDE
:1009F00020005B5365636F6E64735D202D3E2000A5
:100A00004F6E636520706572207365636F6E64005E
:100A1000496E636F727265637420616C61726D20E0
:100A20006D6F6465005B253032753A253032753A5A
:100A3000253032753A253032755D005B25303275D0
:100A40003A253032753A253032755D005B253032FB
:100A5000753A253032755D005B253032755D005B7F
:100A6000446179203A20686F757273203A206D696D
:100A70006E75746573205D202D3E20005B446174AB
:100A800065203A20686F757273203A206D696E7523
:100A9000746573205D202D3E20005B486F75727376
:100AA000203A206D696E757465735D202D3E2000BF
:100AB0005B4D696E757465735D202D3E20004F6E31
:100AC000636520706572206D696E757465002573AD
:100AD0002C20253032752F253032752F2530327578
:100AE0002C20253032753A253032753A2530327552
:100AF000006572726F7200253032752563253032C1
:100B000075256325303275256325303275256325BB
:100B100030327525632530327525632530327500F6
:100B200000000809000000000000000000000000B4
:100B300000000000000000000000000000000000B5
:100B400000000000000000000000000000000000A5
:100B5000000000010208101020408004081020400E
:100B6000020204081020408001028020400420017D
:100B7000010204081020014080408001020804089E
:100B800080041004020105050505030303030101A8
:100B9000010404030606060606060606010405010E
:100BA0000501030202020202020102020505040419
:100BB00003040401030407070700202326292C2F20
:100BC00032002225282B2E3134002124272A2D30D3
:100BD00033494E46494E4954594E414E000020413A
:100BE0000000C84200401C4620BCBE4CCA1B0E5A26
:100BF000AEC59D74CDCCCC3D0AD7233C17B7D138B8
:100C000077CC2B329595E6241FB14F0A00407A101D
:100C1000F35A00A0724E18090010A5D4E80000E8AD
:100C20007648170000E40B54020000CA9A3B00000B
:100C300000E1F505000080969800000040420F009A
:100C40000000A08601000000102700000000E8035B
:100C5000000000006400000000000A000000000026
:100C60000100000000002C76D888DC674F0823DFE5
:100C7000C1DFAE59E1B1B796E5E3E453C63AE651B8
:100C8000997696E8E6C28426EB898C9B62ED407CDF
:100C90006FFCEFBC9C9F40F2BAA56FA5F490055A7B
:100CA0002AF75C936B6CF9676DC11BFCE0E40D47A0
:100CB000FEF520E6B500D0ED902E030094357705C3
:100CC0000080841E080000204E0A000000C80C337B
:100CD0003333330F986E12831141EF8D2114893B0A
:100CE000E65516CFFEE6DB18D1844B381BF77C1D8A
:100CF000901DA4BBE424203284725E228100C9F1DD
:100D000024ECA1E53D271512EE131219CC23E9239B
:100D1000F92407271A36A23A11241FBECFEFD1E2D9
:100D2000DEBFCDBF13E0A0E0B2E0E2E1F2E900E017
:100D30000BBF02C007900D92AE39B107D9F711E190
:100D4000AEE9B3E001C01D92A138B107E1F71DE0A3
:100D5000C8E1DDE000E006C022970109FE010BBFFB
:100D60000E94713FC630D10780E00807A9F70E94B2
:100D7000E41D0C9407490C94000082E89CE00E945A
:100D800006256CEC70E082E89CE00E94912686E8E3
:100D900095E00E94803483EA93E00E94D90E6DE2D0
:100DA00072E081E799E00C94F816CF92DF92EF920F
:100DB000FF920F931F9340EF50E060E070E083EAF2
:100DC00093E00E948D108093A203882379F06BED4D
:100DD00070E082E89CE00E94912663EF70E082E878
:100DE0009CE00E9491266DEF70E00EC064E171E01E
:100DF00082E89CE00E9491266CE271E082E89CE02F
:100E00000E94912667E471E082E89CE00E949126AE
:100E100061E081E799E00E94A6178091A2038823F0
:100E200009F448C083EA93E00E9496116DE772E0EE
:100E300082E89CE00E94F42640911D0562E175E085
:100E400083EA93E00E94F910AB01BC0182E89CE0C8
:100E50000E94AF2661E972E082E89CE00E94F426DD
:100E6000409129056EE175E083EA93E00E94F91054
:100E7000AB01BC0182E89CE00E94AF2640912905AD
:100E80006EE175E083EA93E00E94F9106B017C014A
:100E900040911D0562E175E083EA93E00E94F9103C
:100EA0009B01AC018701760165E381E799E00E942F
:100EB0007F1407C04BE152E061E481E799E00E94B2
:100EC000B41567E571E081E090E00E94753FBC01D8
:100ED0009093A1038093A00381E0FB0180870091A0
:100EE0001E0A10911F0A27E839E04AE052E086E81E
:100EF00095E00E94872B6091A0037091A10386E882
:100F000095E00E94272A80916107811103C06EE558
:100F100071E002C066E671E082E89CE00E949126E2
:100F20008091A0039091A1030E944F401092A103D1
:100F30001092A00368E873E180E090E01F910F91A8
:100F4000FF90EF90DF90CF900C94E919CF93DF934F
:100F5000EC0187E89CE00E944F27688179818A81B3
:100F60009B814C81DF91CF910C94971BFC01848174
:100F70000E940B1C40E060E087E89CE00C942A276C
:100F8000FB0101900020E9F7E61BF70B3497DB012A
:100F9000119680E002C09D9189279D01261B370B89
:100FA0002E173F07C0F30895CF93DF93FC0180E035
:100FB000DB01A80FB11D9C91903BE9F411969C9127
:100FC0001197933BC1F4ED012197188212971C925F
:100FD000DB01149620E030E08D91803B71F49C9110
:100FE000933B59F42F3F310519F014F0318701C0BC
:100FF0001186228706C08F5FDBCF280F311D3F7718
:10100000EBCFDF91CF9108950F931F93CF93DF9391
:101010008C01EB010E94C007F8018087982F929500
:101020009F708F709A3010F4905D01C0995C8A3087
:1010300010F4805D01C0895CAC2FBD2FFD010190D3
:101040000020E9F73197EA1BFB0B9E012E0F311DA3
:10105000F90132979083F90131978083CE01DF91B6
:10106000CF911F910F9108953F924F925F926F928F
:101070007F928F929F92AF92BF92CF92DF92EF9228
:10108000FF920F931F93CF93DF93CDB7DEB7619796
:101090000FB6F894DEBF0FBECDBF7C011B861C8649
:1010A0001D861E861F86188A198A0E9497192B0191
:1010B0003C016E0121E1C20ED11C96E0392E5E0189
:1010C00085E0A80EB11CE0E7F1E0059114914EC057
:1010D000D70114968C910E94551C8B878432C1F5E0
:1010E000F70184810E94391C05970CF0F7C10E941A
:1010F00097196419750986099709603D774081053C
:10110000910570F3EBC1D70114968C910E94551C88
:10111000F40181934F01EC15FD05A9F7198A198295
:101120001A821B821C82D501E32D1D92EA95E9F7F4
:10113000B801CE0101960E946F41BE016F5F7F4FE3
:10114000CE010B960E94954199249394009709F043
:10115000912C0E949719641575058605970520F452
:101160000E9497192B013C019110BEC10E94971952
:101170006419750986099709603D774081059105D5
:1011800008F4B7C1912CB0C1992009F4A3C10E9401
:1011900097192B013C0110E024C0C12ED12CD7019E
:1011A00014968C910E94551CF701EC0DFD1D838750
:1011B0008A3211F0843219F4148601E001C000E093
:1011C0001F5F0E949719641575058605970520F421
:1011D0000E9497192B013C01011194C1123508F0AE
:1011E00091C10E9497196419750986099709603D94
:1011F00077408105910508F4B4C184C1E12FF02F37
:10120000DF010D900020E9F7AD01415051094E1B5F
:101210005F0B612F702FC7018A539E4F0E949E4122
:10122000A12FB02F37C0E12FF02FDF010D9000204C
:10123000E9F7AD01415051094E1B5F0B612F702F33
:10124000C701835B9E4F0E949E41A12FB02FFD01DD
:1012500001900020E9F73197EA1BFB0BEE0DFF1D13
:10126000E35BFE4F108266EA72E080E090E00E944D
:1012700076418C01DC010D900020E9F7AD01415071
:101280005109481B590BBC01C7018A539E4F0E944C
:101290009E41D801FD0101900020E9F73197EA1B3A
:1012A000FB0BEE0DFF1DEA53FE4F1082F701EA53D0
:1012B000FE4F8081813409F009C166EA72E080E066
:1012C00090E00E9476418C01DC010D900020E9F74E
:1012D000AD0141505109481B590BBC01C70181594F
:1012E0009E4F0E949E41F80101900020E9F731973E
:1012F000E01BF10BEE0DFF1DE159FE4F108266EA77
:1013000072E080E090E00E947641FC018081F7016C
:10131000E658FE4F808366EA72E080E090E00E942B
:1013200076418C01DC010D900020E9F7AD014150C0
:101330005109481B590BBC01C70185589E4F0E949B
:101340009E41F80101900020E9F73197E01BF10B75
:10135000EE0DFF1DE558FE4F108266EA72E080E058
:1013600090E00E947641FC018081F701EA57FE4F30
:10137000808366EA72E080E090E00E9476418C0112
:10138000DC010D900020E9F7AD0141505109481BE7
:10139000590B6701B9E7CB1ABEEFDB0ABC01C601E6
:1013A0000E949E41F80101900020E9F73197E01B6F
:1013B000F10BEE0DFF1DE957FE4F1082C6010E9492
:1013C0004D4126E53EE04DEE5FE30E94123EAB014B
:1013D000BC0102E010E0960187E89CE00E94E8284A
:1013E000F60101900020E9F73197EC19FD09C701DA
:1013F0008E0F911DFC01E957FE4F108266EA72E0E4
:1014000080E090E00E9476418C01DC010D9000208C
:10141000E9F7AD0141505109481B590BBC01C70107
:1014200081559E4F0E949E41F80101900020E9F7EE
:101430003197E01BF10BEE0DFF1DE155FE4F1082C1
:1014400066EA72E080E090E00E9476418C01DC0167
:101450000D900020E9F7AD0141505109481B590B8F
:10146000BC01C701885A9E4F0E949E41F80101901D
:101470000020E9F73197E01BF10BEE0DFF1DE85A54
:10148000FE4F108266EA72E080E090E00E947641B2
:101490008C01DC010D900020E9F7AD0141505109AC
:1014A000481B590BBC01C7018D539E4F0E949E41A2
:1014B000F80101900020E9F73197E01BF10BEE0DE8
:1014C000FF1DED53FE4F108281E055C0863511F4AB
:1014D00080E051C08FEF4FC08EEF4DC08CE0882E62
:1014E000912C8C0E9D1E0FCE8B85843209F44CCE30
:1014F000F3CFF70184810E94391C181619060CF4E9
:10150000E7CD26CE8701055F1F4FD8010D90002043
:10151000E9F7AD0141505109401B510B6701BBEA8E
:10152000CB0ED11CB801C6010E949E41F80101906A
:101530000020E9F73197E01BF10BEE0DFF1DE5559B
:10154000FF4F108266EA72E0C6010E947641182FB2
:10155000092F68EA72E00E949541009709F44ECE87
:1015600062CEF70184810E94391C181619060CF40A
:1015700014CE00E026CE61960FB6F894DEBF0FBE03
:10158000CDBFDF91CF911F910F91FF90EF90DF9032
:10159000CF90BF90AF909F908F907F906F905F9013
:1015A0004F903F9008952F923F924F925F926F928B
:1015B0007F929F92AF92BF92CF92DF92EF92FF9273
:1015C0000F931F93CF93DF93CDB7DEB761970FB61D
:1015D000F894DEBF0FBECDBF8C011B861C861D8616
:1015E0001E861F86188A198A0E9497192B013C01B2
:1015F0006E0121E1C20ED11C36E0932E5E0185E022
:10160000A80EB11CE2E7F1E0E590F4904EC0D801DD
:1016100014968C910E94551C8B878432C1F5F80179
:1016200084810E94391C05970CF0C2C10E94971951
:101630006419750986099709603D77408105910510
:1016400070F3B6C1D80114968C910E94551CF1011B
:1016500081931F01EC15FD05A9F7198A19821A82D9
:101660001B821C82D501E92D1D92EA95E9F7B7018D
:10167000CE0101960E946F41BE016F5F7F4FCE0188
:101680000B960E94954133243394009709F0312C36
:101690000E949719641575058605970520F40E9428
:1016A00097192B013C01311089C10E9497196419C7
:1016B000750986099709603D77408105910508F411
:1016C00082C1312C7BC1332009F46EC10E9497196D
:1016D0006B017C01B12C26C06B2C712CD8011496A7
:1016E0008C910E94551CF801E60DF71D83878A3204
:1016F00011F0843221F41486AA24A39401C0A12CF1
:10170000B3940E9497196C157D058E059F0520F4F2
:101710000E9497196B017C01A1105EC1B1E5BB1558
:1017200008F45AC10E9497196C197D098E099F0906
:10173000603D77408105910508F47EC14DC1EF2DD4
:10174000FE2DDF010D900020E9F7AD014150510958
:101750004E1B5F0B6F2D7E2DC8018A539E4F0E943A
:101760009E41AF2DBE2D3EC0EF2DFE2DDF010D9011
:101770000020E9F7AD01415051094E1B5F0B6F2D61
:101780007E2DC801835B9E4F0E949E41AF2DBE2DD2
:10179000FD0101900020E9F73197EA1BFB0BE00FF8
:1017A000F11FE35BFE4F108266EA72E080E090E09A
:1017B0000E9476417C0167EB72E00E9495419C019A
:1017C000D7010D900020E9F7AD01415051094E19A4
:1017D0005F09B701C801232B99F48A539E4F0E94D9
:1017E0009E41D701FD0101900020E9F73197EA1BE6
:1017F000FB0BE00FF11FEA53FE4F108280E026C181
:1018000081599E4F0E949E41F70101900020E9F707
:101810003197EE19FF09E00FF11FE159FE4F1082D9
:1018200066EA72E080E090E00E947641FC018081EF
:10183000F801E658FE4F808366EA72E080E090E0AF
:101840000E9476417C01DC010D900020E9F7AD019A
:1018500041505109481B590BBC01C80185589E4F86
:101860000E949E41F70101900020E9F73197EE199F
:10187000FF09E00FF11FE558FE4F108266EA72E0A3
:1018800080E090E00E947641FC018081F801EA57F7
:10189000FE4F808366EA72E080E090E00E9476412D
:1018A0007C01DC010D900020E9F7AD0141505109A8
:1018B000481B590BBC01C8018A539E4F0E949E4190
:1018C000F70101900020E9F73197EE19FF09E00FC9
:1018D000F11FEA53FE4F108266EA72E080E090E06A
:1018E0000E9476417C01DC010D900020E9F7AD01FA
:1018F00041505109481B590BBC01C80188539E4FE8
:101900000E949E41F70101900020E9F73197EE19FE
:10191000FF09E00FF11FE853FE4F108266EA72E004
:1019200080E090E00E9476417C01DC010D90002077
:10193000E9F7AD0141505109481B590BBC01C801E1
:1019400085539E4F0E949E41F70101900020E9F7C8
:101950003197EE19FF09E00FF11FE553FE4F10829A
:1019600066EA72E080E090E00E9476417C01DC0152
:101970000D900020E9F7AD0141505109481B590B6A
:10198000BC01C80185569E4F0E949E41F7010190FF
:101990000020E9F73197EE19FF09E00FF11FE55636
:1019A000FE4F108281E052C08FEF50C08EEF4EC0CC
:1019B0002CE0222E312C2C0E3D1E44CE8B85843201
:1019C00009F481CEF3CFF80184810E94391C1816E6
:1019D00019060CF41CCE5BCE7801FBE0EF0EF11C77
:1019E000D7010D900020E9F7AD01415051094E1982
:1019F0005F096801BBEACB0ED11CB701C6010E948A
:101A00009E41F70101900020E9F73197EE19FF0997
:101A1000E00FF11FE555FF4F108266EA72E0C60144
:101A20000E947641F82EE92E67EB72E00E94954104
:101A3000009709F099CE83CEF80184810E94391C69
:101A4000181619060CF448CEA12C5BCE61960FB681
:101A5000F894DEBF0FBECDBFDF91CF911F910F91E4
:101A6000FF90EF90DF90CF90BF90AF909F907F90CE
:101A70006F905F904F903F902F9008959F92AF92FC
:101A8000BF92CF92DF92EF92FF920F931F93CF936B
:101A9000DF93CDB7DEB72A970FB6F894DEBF0FBE3F
:101AA000CDBF7C015B018C01055F1F4F80EA982E42
:101AB000D801E92D1D92EA95E9F719821A821B8255
:101AC0001C82FE01359686E0DF011D928A95E9F7BA
:101AD000ECE7F1E085919491BC01CC24C394D12C26
:101AE000CC0EDD1EC6010E946F41B501C7010E94E8
:101AF00004089F938F93DF92CF921F929F921F9320
:101B00000F930E941642F70184810E948E1CD70118
:101B100014966C91C8010E94251D64E670E080E077
:101B200090E00E94E9190FB6F894DEBF0FBECDBF5A
:101B30002A960FB6F894DEBF0FBECDBFDF91CF91CE
:101B40001F910F91FF90EF90DF90CF90BF90AF90DB
:101B50009F900895EF92FF920F931F93CF93DF937F
:101B60007C018B01EA010E94D407F7018185C00F37
:101B7000D11FFE0134978083F7018285FE013397E0
:101B8000808381E00E948E1C06C061E0F801819193
:101B90008F010E94181D0C171D07B9F7DF91CF9117
:101BA0001F910F91FF90EF9008950F931F93CF9384
:101BB000DF93CDB7DEB7A8970FB6F894DEBF0FBEA0
:101BC000CDBF8C01262F30E0FC018581968128173E
:101BD000390709F46EC0662321F0613009F06BC04B
:101BE00031C0F80116821582ECE6F1E085919491FE
:101BF000BC01CE0101960E946F41BE016F5F7F4F15
:101C0000C8010E943E0D64E670E080E090E00E9412
:101C1000E919F80184810E940B1C6AE070E080E001
:101C200090E00E94E91980E092ECA1E0B0E0F801B8
:101C300080839183A283B383448160E072EC81E06E
:101C400090E034C081E090E0F8019683858380E2E3
:101C5000EBE4F2E0DE01119601900D928A95E1F736
:101C600040E250E0BE016F5F7F4FC8010E94AA0DA5
:101C700064E670E080E090E00E94E919F801848158
:101C80000E940B1C6AE070E080E090E00E94E9197D
:101C900040EC52E160E070E0F801408351836283E0
:101CA0007383448160EC72E180E090E00E94971BB6
:101CB00002C080E001C081E0A8960FB6F894DEBFB4
:101CC0000FBECDBFDF91CF911F910F910895FC0101
:101CD00040EC52E160E070E04083518362837383A3
:101CE00081E08483DF01A55BBE4F1D921C9281E0E1
:101CF00090E09683858317821086DF01A15ABE4F3C
:101D00008CEA92E08D939C93DF01AF59BE4F82EB3A
:101D100092E08D939C93DF01AD59BE4F89EB92E029
:101D20008D939C93DF01AB59BE4F8EEB92E08D9368
:101D30009C93DF01A959BE4F8CEB92E08D939C934D
:101D4000DF01A759BE4F81EC92E08D939C93DF0198
:101D5000A559BE4F8BEC92E08D939C93E359FE4FB7
:101D600085ED92E0918380830895CF93DF93EC011A
:101D70006F8361E083E20E94F21A8F81882319F059
:101D8000813049F402C061E001C060E083E2DF918C
:101D9000CF910C940B1BDF91CF910895CF93DF93DC
:101DA000EC010E94B60761E0CE01DF91CF910C9467
:101DB000B50ECF93DF93EC0160E00E94B50ECE012B
:101DC0000E94A607CE01DF91CF910C9401102F92B3
:101DD0003F924F925F926F927F928F929F92AF92BB
:101DE000BF92CF92DF92EF92FF920F931F93CF9308
:101DF000DF93CDB7DEB7E4970FB6F894DEBF0FBE22
:101E0000CDBF3C016DA77EA74FA758AB29AB3AAB1E
:101E100019A61AA61BA61CA60E9497191B012C0125
:101E200060E0C3010E94D50D64E670E080E090E0C0
:101E30000E94E91961E0C3010E94D50D64E670E0DB
:101E400080E090E00E94E91938C0D30114968C918B
:101E50000E94551C89A7843209F0B7C0F301848120
:101E60000E94551C8AA7D30114968C910E94551C80
:101E70008BA71CA669ED72E0CE0189960E94954160
:101E8000009751F06DED72E0CE0189960E94954168
:101E900021E0009711F099C021E02CAB0E94971926
:101EA0002CA9621573058405950528F40E949719DD
:101EB0001B012C012CA9211117C00E94971962192E
:101EC000730984099509603D77408105910508F4FF
:101ED00074C020E00AC0C3012CAB0E94CE0EC30127
:101EE0000E94D90E2CA973C021E02301EBE04E0E15
:101EF000511C30EAD201E32F1D92EA95E9F71982CD
:101F00001A821B821C82FE01359684E2DF011D923B
:101F10008A95E9F7EEE6F1E085919491BC012224DF
:101F20002394312C2C0E3D1EC1012CAB3BAB0E94E7
:101F30006F419F928F92BF92AF92DF92CF92FF92AA
:101F4000EF921F930F93BAA9BF93E9A9EF93F8A952
:101F5000FF938FA58F939EA59F93ADA5AF933F92BF
:101F60002F921F923BA93F935F924F923BAB0E94EF
:101F70001642B201C3010E9404085F924F9281EEA3
:101F800092E09F938F931F923BA93F935F924F9252
:101F90000E941642F30184810E948E1CD301149684
:101FA0006C91C2010E94251D0FB6F894DEBF0FBED2
:101FB000CDBF2CA921110BC08ECFD30114968C91CB
:101FC0000E94391C04970CF040CF20E066CF822F8E
:101FD000E4960FB6F894DEBF0FBECDBFDF91CF9170
:101FE0001F910F91FF90EF90DF90CF90BF90AF9037
:101FF0009F908F907F906F905F904F903F902F9029
:1020000008958F929F92AF92BF92CF92DF92EF92FC
:10201000FF920F931F93FC01E959FE4F808091803E
:10202000FC01EB59FE4FA080B180FC01ED59FE4F41
:10203000C080D180FC01EF59FE4FE080F180FC01AF
:10204000E15AFE4F00811181FC01E359FE4F2081CE
:102050003181FC01E559FE4F40815181FC01E75976
:10206000FE4F608171810E94E70E1F910F91FF90DA
:10207000EF90DF90CF90BF90AF909F908F9008959A
:10208000AF92BF92CF92DF92EF92FF920F931F9386
:10209000CF93DF938C0187E89CE00E944F27F801E3
:1020A00084810E948E1CE801CB53DE4F18820E946F
:1020B00097196B017C015E0104C00E9497196B01A6
:1020C0007C01F5018081811118C00E9497196C195B
:1020D0007D098E099F09683873418105910568F46F
:1020E000C8010E943408F50180830E9497196C157D
:1020F0007D058E059F0528F7E0CF81E0988191301E
:1021000009F080E0DF91CF911F910F91FF90EF9048
:10211000DF90CF90BF90AF9008952F923F924F9253
:102120005F926F927F928F929F92AF92BF92CF9267
:10213000DF92EF92FF921F93CF93DF9300D000D0F6
:10214000CDB7DEB71C019A01AB0129833A834B83DB
:102150005C830E9497194B015C01A8EEB3E02981D2
:102160003A814B815C810E94813E2B013C01C12C54
:10217000D12C760106C00E9497194B015C01111108
:102180001FC0C414D504E604F704E0F4C1010E94A2
:102190004010182F64E670E080E090E00E94E9199A
:1021A0000E9497196B017C01C818D908EA08FB083E
:1021B0000E949719681579058A059B0500F7DBCF02
:1021C00081E001C080E00F900F900F900F90DF91A1
:1021D000CF911F91FF90EF90DF90CF90BF90AF9085
:1021E0009F908F907F906F905F904F903F902F9037
:1021F0000895BF92CF92DF92EF92FF920F931F93B9
:10220000CF93DF93CDB7DEB72A970FB6F894DEBF32
:102210000FBECDBF7B01142F19821A821B821C8234
:10222000FE01359686E0DF011D928A95E9F74E346E
:1022300041F0433531F0453451F0473509F05FC086
:1022400006C0F7018081898381818A830AC0D70112
:102250008C91898311968C9111978A8312968C9117
:102260008B83CE0101960E945141BC01882777FDE6
:102270008095982F0E94623DB62EC72ED82E092F2A
:102280001E3411F0133561F4D7011296FE01319618
:10229000CE0108962D912193E817F907D9F70FC0C1
:1022A000153411F0173561F4D7011396FE013196FC
:1022B000CE0108962D912193E817F907D9F71886D2
:1022C000CE0101960E944D4120E030E040E752E40B
:1022D0000E94C73C9B01AC016B2D7C2D8D2D902F56
:1022E0000E945F3C472F382F292F862F942FA32F32
:1022F000B22F133511F0173529F4B05803C080E020
:1023000090E0DC01682F792F8A2F9B2F2A960FB639
:10231000F894DEBF0FBECDBFDF91CF911F910F911B
:10232000FF90EF90DF90CF90BF900895CF92DF9213
:10233000EF92FF920F931F93CF93DF93EC010E94D4
:1023400097196B017C01FE01E55BFE4F1182108243
:10235000DE01AB53BE4F8C91813031F02DC00E9415
:1023600097196B017C0101C08F01F8018081918177
:102370000197B9F10E9497196C197D098E099F097F
:102380006838734181059105D8F02BC00E949719D8
:102390006B017C01113059F10E9497196C197D096C
:1023A0008E099F09683873418105910540F11FC06E
:1023B00081E0113089F102C08FEF2EC080E02CC087
:1023C000CE010E943408992787FD9095F8019183EA
:1023D00080830E9497196C157D058E059F0528F650
:1023E000BECF0E9497196B017C0110E0D5CFC55B71
:1023F000DE4F288139812130310501F7D9CFCE0157
:102400000E94D30A182F0E9497196C157D058E051E
:102410009F0508F0BFCFBACFDF91CF911F910F91E9
:10242000FF90EF90DF90CF90089583EA93E00C94B3
:10243000670E5F926F927F928F929F92AF92BF9240
:10244000CF92DF92EF92FF920F931F93CF93DF9380
:10245000CDB7DEB7C957D1090FB6F894DEBF0FBEAE
:10246000CDBF6C017B01EA961FAEEA973C010E944A
:10247000E42CF601E552FE4F82E080838E010F5F6F
:102480001F4F98E7D8011D929A95E9F79EE7998327
:1024900091E09D83F601ED54FC4F11821082F6010C
:1024A000E752FE4F8083F701908588E3A82EBB2476
:1024B000B394AE0CBF1CD5018C919230E0F5825FD5
:1024C0008B8380E18C83913019F48FEF8C8710C05F
:1024D000F70184818E8385818F83868188878781B8
:1024E000898780818A8781818B8782818C8783819C
:1024F0008D878FEF8E878EEF8F8721E1AE014F5F43
:102500005F4FB701C3010E94922BF701E85CFE4FB9
:10251000008111810F5E1F4FBE016F5F7F4FC301AE
:102520000E94CF2CE1E0F0E0EC0FFD1FE00FF11F67
:10253000808312E146C08C5E8B8381E18C83F7013E
:1025400084818E8385818F8386818887878189872F
:1025500080818A8781818B8782818C8783818D8727
:102560008FEF8E878EEF8F87E65CFE4F8081888BA2
:10257000F701E55CFE4F8081898BF701E45CFE4F3B
:1025800080818B8BF701E25CFE4F80818C8BF701A1
:10259000E15CFE4F80818D8B27E1A801B701C60168
:1025A0000E94922BD501AD90BC90B7E1AB0EB11C4F
:1025B000B801C6010E94CF2CF801EA0DFB1D8083F3
:1025C00018E1012F9E0127583F4FAE014F5F5F4F2B
:1025D000B701C3010E94AD2BF601E258FC4F808188
:1025E000813021F487E89CE00E946727512C570135
:1025F000E8ECAE1AEEEFBE0A012F10E04601F2E859
:102600008F1AFCEF9F0A0CC0E1E0F0E0EC0FFD1F19
:10261000E80FF91FD4016C9180810E94181D53941A
:10262000852D90E0EA964FADEA97F5012081318142
:10263000240F311D200F311F8217930728F3C30188
:102640000E94CF31F601E552FE4F8083F601EA5237
:10265000FC4F9081F701EE5AFE4F9083F601E9524C
:10266000FC4F9081F701ED5AFE4F9083F601E8523E
:10267000FC4F9081F701EC5AFE4F9083F601E75230
:10268000FC4F9081F701EB5AFE4F9083F601E65222
:10269000FC4F9081F701EA5AFE4F9083C758DF4FF5
:1026A0000FB6F894DEBF0FBECDBFDF91CF911F9163
:1026B0000F91FF90EF90DF90CF90BF90AF909F90E1
:1026C0008F907F906F905F900895CF93DF93EC0190
:1026D000FC01E358FC4F83E08083FE01E258FC4F8D
:1026E0006083611104C087E89CE00E947F27FE019F
:1026F000E158FC4F11821082FE01ED54FC4F118213
:102700001082FE01EB54FC4F1082FE01E95AFF4F8C
:102710001082FE01E25CFE4F1082FE01E45CFE4F7F
:102720001082FE01E35CFE4F82E88083FE01E959DE
:10273000FE4F1082FE01E759FE4F80E28083FE01CA
:10274000EF5DFE4F1082FE01EE5DFE4F87E080835D
:10275000FE01ED5DFE4F90ED9083FE01EC5DFE4FBE
:102760001082FE01EB5DFE4F1082FE01EA5DFE4F1E
:1027700098EC9083FE01EE58FE4F1082FE01E8595E
:10278000FE4F94E09083FE01E951FC4F8083FE01EF
:10279000E851FC4F83E08083FE01E751FC4F81E06C
:1027A0008083FE01E552FC4F1082FE01E852FE4F8D
:1027B00082E08083FE01E752FE4F8083FE01E652F5
:1027C000FE4F8083FE01E552FE4F8083CE010E94C2
:1027D0000B2DCE01DF91CF910C94E42C1092880543
:1027E00010928A051092A2051092A40589E18093A7
:1027F00064091092670983E08093020984EF92E0F4
:10280000909387058093860584E1EEEAF6E0DF0188
:102810001D928A95E9F781E1ECEDF6E0DF011D926A
:102820008A95E9F70895CF93DF93C42F70E0FB01F9
:10283000E35AFC4F85919491D82F8130A9F442300E
:10284000B0F165EB74E082E89CE00E947D252AE00F
:1028500030E041E050E060E070E082E89CE00E94FF
:10286000BA2668ED74E014C0841709F16DED74E0C8
:1028700082E89CE00E947D254D2F50E060E070E0F2
:102880002AE030E082E89CE00E94BA2660E075E031
:1028900082E89CE00E947D254C2F50E060E070E0D3
:1028A0002AE030E082E89CE00E9447260DC0FB0150
:1028B000EB5FFA4F85919491281741F061EB75E039
:1028C00082E89CE00E9491268FEF01C081E0DF91B9
:1028D000CF910895FC01E355FF4F20813181620FB4
:1028E000731FDC0113968D919C911497861797079F
:1028F00020F07183608381E0089580E008952F9235
:102900003F924F925F926F927F928F929F92AF927F
:10291000BF92CF92DF92EF92FF920F931F93CF93CC
:10292000DF93CDB7DEB7E4970FB6F894DEBF0FBEE6
:10293000CDBF6C01462E822E942E302E212EDC012E
:1029400012968C91813009F0C0C0512CF201E75FE2
:10295000FB4F659074905E01B5E1AB0EB11C850133
:10296000262D462D682D732F892D952F0E94933F7C
:1029700088248394912C8C0E9D1E8401262D462D37
:10298000B701832D922D0E94933FF201EE0FFF1F9E
:10299000EB5FFD4F859194918E01075D1F4FBC0148
:1029A000C8010E946F41F80101900020E9F7BF01C2
:1029B00061507109601B710BD5010D900020E9F782
:1029C0001197AA19BB09F40101900020E9F731978A
:1029D000E819F9096A0F7B1F6D5F7F4F6E0F7F1F2C
:1029E000C6010E946A14811101C07AC0F601E35544
:1029F000FF4F60807180F80101900020E9F7319766
:102A0000E01BF10BD5010D900020E9F7CD010197F6
:102A10008A199B09D4010D900020E9F71197A81994
:102A2000B9097301E81AF90AEA1AFB0A23014A1ADA
:102A30005B0A93012E1B3F0B281B390B2A1B3B0BF8
:102A40002D5E3F4F2C0D3D1DAF01B801C9010E9405
:102A50007A41F601EE0DFF1D8AE3838BF5010190AB
:102A60000020E9F73197EA19FB09B4E1EB0EF11CFC
:102A7000EC0CFD1CAF01B501C7010E947A41F601C3
:102A8000E40DF51D8BE3848BF40101900020E9F740
:102A90003197E819F90985E1480E511C4C0C5D1C71
:102AA000AF01B401C2010E947A41F601E60DF71DA3
:102AB00083E2858BD60111968C9111978F5F1196C9
:102AC0008C9311975A968C9332C022E042E0C60153
:102AD0003BAB5CAB0E9413143BA95CA98F3F11F484
:102AE0008FEF29C069E070E0C6013BAB5CAB0E9490
:102AF0006A143BA95CA9882399F3F601E355FF4FBB
:102B00000190F081E02DEC0DFD1D4586868637870E
:102B1000908A518BE28AF38A048B158B168AF60110
:102B200081818F5F818380911E0A8550828FF6019B
:102B3000E355FF4F8081E4960FB6F894DEBF0FBED9
:102B4000CDBFDF91CF911F910F91FF90EF90DF905C
:102B5000CF90BF90AF909F908F907F906F905F903D
:102B60004F903F902F9008955F926F927F928F9237
:102B70009F92AF92BF92CF92DF92EF92FF920F930C
:102B80001F93CF93DF93CDB7DEB72A970FB6F89494
:102B9000DEBF0FBECDBF8C01962E542E852EADB656
:102BA000BEB6E42FF52FDF010D900020E9F7AE1B34
:102BB000BF0BA03981E0B80710F0A0E9B1E06D01CA
:102BC00091E0C91AD108EDB7FEB7EA1BFB0B0FB6AF
:102BD000F894FEBF0FBEEDBFEDB6FEB68FEFE81A5C
:102BE000F80A3701AD0160E070E0C7010E9483413F
:102BF000A601652D782DC7010E949E416701D7016E
:102C00002FE505C08C91833209F42C931196F301C2
:102C100001900020E9F73197E619F709CD018C19E9
:102C20009D098E179F0770F3D80112968C91813001
:102C300009F075C0E92DF0E0EE0FFF1FEB5FFD4FCF
:102C400085919491BC01EE24E394F12CEC0EFD1ED1
:102C5000C7010E946F41F70101900020E9F7BF0111
:102C6000615071096E197F09D3010D900020E9F7B9
:102C70001197A619B7096A0F7B1F6E5F7F4FC801B6
:102C80000E946A14811101C052C0F801E355FF4F40
:102C9000C080D180F70101900020E9F73197EE194B
:102CA000FF09D3010D900020E9F71197A619B70984
:102CB00046018A1A9B0A96012E1B3F0B2A1B3B0BCF
:102CC0002C5E3F4F200F311FAF01B701C9010E9499
:102CD0007A41F801E80DF91D8AE3848BF301019034
:102CE0000020E9F73197E619F70985E1880E911C74
:102CF000800E911EAF01B301C4010E947A41F80118
:102D0000EC0DFD1D83E2858BD80111968C911197F6
:102D10008F5F11968C9311975A968C934AC021E03D
:102D200043E0692DC8010E9413148F3F11F48FEF07
:102D300044C0D3010D900020E9F77D0181E0E81A3D
:102D4000F108E618F708B7016E5F7F4FC8010E94CF
:102D50006A14882361F3F801E355FF4F2081318124
:102D6000F30101900020E9F73197E619F709C9014D
:102D700002978E1B9F0BF801E80FF91F968AE78ACE
:102D8000029608C0D6014D916D01F801E80FF91FB8
:102D9000468B019682179307A8F3F801E20FF31F01
:102DA000168AF80181818F5F818380911E0A855088
:102DB000828FF801E355FF4F80810FB6F894BEBEB5
:102DC0000FBEADBE2A960FB6F894DEBF0FBECDBFC4
:102DD000DF91CF911F910F91FF90EF90DF90CF90F7
:102DE000BF90AF909F908F907F906F905F9008956D
:102DF0008F929F92AF92BF92CF92DF92EF92FF920B
:102E00000F931F93CF93DF931F92CDB7DEB77C0153
:102E1000162F33E9C32ED12C60E0C60179830E94BE
:102E200066448FEFC81AD80A7981A3EACA16D1047A
:102E300099F7C7010596FC0181E1DF011D928A9592
:102E4000E9F7812E972E03E910E05401F401608127
:102E50006701C00ED11E633249F0C8010E9466446A
:102E6000D4018C91F601EE58F10908C06FE5C80154
:102E70000E946644F601EE58F1098FE58083BFEFAA
:102E80008B1A9B0AF5018081882329F00F5F1F4F61
:102E9000033A1105D1F60F90DF91CF911F910F9159
:102EA000FF90EF90DF90CF90BF90AF909F908F906A
:102EB0000895CF92DF92EF92FF920F931F93CF93DB
:102EC000DF936C018B010596FC0181E1DF011D920E
:102ED0008A95E9F77B01C3E9D0E0BE0187E89CE071
:102EE0000E948F27F601EC0FFD1FEE58F109808339
:102EF000F70181937F012196C33AD10571F7D8017B
:102F000050961C92DF91CF911F910F91FF90EF90FF
:102F1000DF90CF900895CF93DF93EC0160E083EAD8
:102F200090E00E94664486E990E09C838B83BE011A
:102F30006B5F7F4F81E799E0DF91CF910C94591738
:102F400063EA70E087E89CE00C948F27AF92BF9211
:102F5000CF92DF92EF92FF920F931F93CF93DF9365
:102F6000CDB7DEB764970FB6F894DEBF0FBECDBF06
:102F70008C01DC0112966C934696FC0187E9DF0117
:102F80001D928A95E9F7F80111828CE3868B8DE317
:102F9000878B8EE3808F8281813009F0C9C080E801
:102FA000818F128E83E2838F6801FDEACF0ED11CE0
:102FB00086E090E0D6018D939C934091290A509130
:102FC0002A0A60912B0A70912C0A7F936F935F936A
:102FD0004F9384E693E09F938F931F9280E18F93AA
:102FE000EE24E394F12CEC0EFD1EFF92EF920E9472
:102FF0001642C7010FB6F894DEBF0FBECDBF9701D2
:10300000D60111C0FC016191CF016623C9F04D9139
:103010005C911197F801E40FF51F668B4F5F5F4FCE
:1030200011965C934E93F90101900020E9F73197D6
:10303000E21BF30BAC01421B530B4E175F0710F35F
:103040008D919C911197F801E80FF91F23E2268BCF
:1030500001968D939C9380E090E0F801E355FF4F3B
:103060004FE5D801A80FB91F15962C91211149C021
:103070006801FDEACF0ED11CD6018D919C9111976C
:10308000F801E80FF91F43E2A42EA68A01968D935A
:103090009C93C8010E94A017B82E7E01B1E1EB0EEF
:1030A000F11C4AE050E0B70190E00E94DE41F701D8
:1030B00001900020E9F73197EE19FF09D6012D9113
:1030C0003C912A5E3F4F200F311FAF01B701C9016C
:1030D0000E947A41F70101900020E9F73197EE193B
:1030E000FF09D6018D919C91E80FF91FD801AE0F11
:1030F000BF1F5696AC923196D601ED93FC936B2D83
:1031000063C0A081B181A00FB11F233219F456967C
:103110004C9302C056962C93208131812F5F3F4FF4
:103120003183208301968031910509F09ACFA0CF99
:10313000811102C0F801118E20912A0A90912B0A68
:1031400080912C0A3091290AD8015B963C935B97B9
:103150005C962C935C975D969C935D975E968C93A2
:10316000F801E355FF4F89E090E09183808380E090
:1031700090E04FE5D801A80FB91F15962C912111A9
:1031800029C07801BDEAEB0EF11CF7018081918125
:10319000F801E80FF91F23E2268B0196D7018D93E2
:1031A0009C93C8010E94A017F70120813181F8018A
:1031B000E20FF31F868B2F5F3F4FD7012D933C9378
:1031C0002550F801228F682F6F5F83EA90E00E94FC
:1031D000664417C0A081B181A00FB11F233219F43A
:1031E00056964C9302C056962C93208131812F5FC6
:1031F0003F4F3183208301968031910509F0BACF8A
:10320000C0CF64960FB6F894DEBF0FBECDBFDF917E
:10321000CF911F910F91FF90EF90DF90CF90BF90D3
:10322000AF90089581E799E00C948B171F920F924D
:103230000FB60F9211240BB60F922F933F934F931B
:103240005F936F937F938F939F93AF93BF93EF930E
:10325000FF93F89481E080933A02E0E6F0E0808109
:103260008068808380818F7B808360E083E00E9420
:103270000B1B7894FF91EF91BF91AF919F918F912C
:103280007F916F915F914F913F912F910F900BBE66
:103290000F900FBE0F901F9018951F920F920FB6B0
:1032A0000F9211248F939F93AF93BF938091610DE1
:1032B0009091620DA091630DB091640D0196A11DD6
:1032C000B11D8093610D9093620DA093630DB09337
:1032D000640DBF91AF919F918F910F900FBE0F9092
:1032E0001F9018951F920F920FB60F9211248F9373
:1032F0009F93AF93BF938091650D9091660DA091C0
:10330000670DB091680D0196A11DB11D8093650DEB
:103310009093660DA093670DB093680DBF91AF9128
:103320009F918F910F900FBE0F901F9018958F92C5
:103330009F92AF92BF92CF92DF92EF92FF920F9344
:103340001F93CF93DF932FB7F8948091610D9091E5
:10335000620DA091630DB091640D2FBF9C01AD0172
:1033600060E070E080E090E001E00E94593F490198
:10337000D42FC52FB62FA72FF82FE92F02E00E94D8
:10338000593F59016A017B018C0194014D2F5C2F3B
:103390006B2F7A2F8F2F9E2F0E94683FE9E0AE2E71
:1033A000B12CC12CD12CE12CF12C00E010E00E94BA
:1033B000FC3E952FB901842FDF91CF911F910F9182
:1033C000FF90EF90DF90CF90BF90AF909F908F9045
:1033D00008958F929F92AF92BF92CF92DF92EF9219
:1033E000FF924B015C0107C00E9497196C157D0587
:1033F0008E059F0520F40E9497196B017C010E94A5
:1034000097196C197D098E099F09681579058A0538
:103410009B0550F3FF90EF90DF90CF90BF90AF905F
:103420009F908F900895BC01049768F080E090E031
:103430000E94603D26E636E646EE5FE30E94123EBD
:103440000E94343D02C0660F771F6150710961F020
:103450006150710949F0FB01EE0FFF1F31978FB7E3
:10346000F8943197F1F78FBF0895789484B7877FE8
:1034700084BF1092610D1092620D1092630D109234
:10348000640D84B5826084BD84B5816084BD85B5DA
:10349000826085BD85B5816085BDEEE6F0E0808106
:1034A00081608083E1E8F0E08081826080838081B8
:1034B00081608083E0E8F0E0808181608083E1EBDF
:1034C000F0E0808184608083E1E9F0E080818460C5
:1034D0008083E0EBF0E0808181608083E0E9F0E0D0
:1034E000808181608083E4E6F0E080818E7F80834C
:1034F000ECE7F0E080818F77808380818064808337
:10350000EAE7F0E08081846080838081826080834C
:103510008081806880831092C1001092C900089554
:103520009091200A982B9093200A80FF32C08091BE
:1035300064008E7F8093640080917C008F778093FD
:103540007C0080917C00806480937C0080917A0074
:10355000846080937A0080917A00826080937A0000
:1035600080917A00806880937A00809164008F77E0
:1035700080936400809164008B7F809364008091CD
:1035800064008D7F80936400809165008E7F8093BE
:1035900065000895282F20959091200A92239093FA
:1035A000200A80FF1EC080917A008F7780937A0076
:1035B00080916400816080936400809164008068E1
:1035C00080936400809164008460809364008091A3
:1035D00064008260809364008091650081608093C4
:1035E0006500089590E0FC01ED5AF44F2491FC0130
:1035F000EA57F44FE491EE2369F0F0E0E753F44F1B
:10360000A491B0E08C91611103C02095822301C088
:10361000822B8C93089590E0FC01E05EF44F24919E
:10362000FC01ED5AF44F3491FC01EA57F44F8491B8
:103630008823B1F1222331F1233021F490918000CD
:103640009F7705C0243031F4909180009F7D909346
:10365000800018C0213019F494B59F7704C022303F
:1036600021F494B59F7D94BD0DC0263021F4909136
:10367000B0009F7705C0273029F49091B0009F7D5E
:103680009093B000E82FF0E0EF53F44FA491B0E036
:103690008C91611103C03095832301C0832B8C93DF
:1036A000089590E0FC01E05EF44F2491FC01ED5A96
:1036B000F44F3491FC01EA57F44F8491882399F137
:1036C000222331F1233021F4909180009F7705C0AF
:1036D000243031F4909180009F7D9093800018C039
:1036E000213019F494B59F7704C0223021F494B5A9
:1036F0009F7D94BD0DC0263021F49091B0009F773E
:1037000005C0273029F49091B0009F7D9093B000C0
:10371000E82FF0E0E754F44FE491F0E08081832358
:1037200021E030E011F420E030E0C9010895CF92AB
:10373000DF92EF92FF926B017C01411134C088E06F
:103740000E94901AC701B60122E030E040E050E04C
:103750000E94DE3E305F414F5F4FCA01B901A701B1
:1037600096010E94DE3EDA01C9010197A109B10963
:10377000892F9A2FAB2FBB27A7FDBA958093C50041
:1037800021502093C4008091C10080618093C100CA
:103790008091C10088608093C1008091C1008068E1
:1037A0008093C10033C080E10E94901AC701B60126
:1037B00022E030E040E050E00E94DE3E305F414FCA
:1037C0005F4FCA01B901A70196010E94DE3EDA01EE
:1037D000C9010197A109B109892F9A2FAB2FBB27E6
:1037E000A7FDBA958093CD0021502093CC00809105
:1037F000C90080618093C9008091C900886080936E
:10380000C9008091C90080688093C900FF90EF9043
:10381000DF90CF90089581110EC088E00E94CA1AEF
:103820008091C1008F7E8093C1008091C100877F0D
:103830008093C100089580E10E94CA1A8091C90056
:103840008F7E8093C9008091C900877F8093C900D3
:103850000895611107C09091C00095FFFCCF80933F
:10386000C60008959091C80095FFFCCF8093CE00CC
:10387000089581110AC08091270A9091280A9E5FBD
:103880002091250A3091260A09C08091230A90913F
:10389000240A9E5F2091210A3091220A821B930BF9
:1038A00060E072E00E94A83E0895811119C08091E5
:1038B000250A9091260A2091270A3091280A281774
:1038C000390741F1FC01E759F04F2081019660E092
:1038D00072E00E94A83E9093260A8093250A18C0A1
:1038E0008091210A9091220A2091230A3091240A82
:1038F0002817390779F0FC01E759F24F208101962A
:1039000060E072E00E94A83E9093220A8093210A10
:1039100030E002C02FEF3FEFC9010895811109C0C7
:103920001092260A1092250A1092280A1092270A4D
:1039300008951092220A1092210A1092240A1092DD
:10394000230A08951F920F920FB60F9211242F93FE
:103950003F934F935F936F937F938F939F93AF9317
:10396000BF93EF93E091C6002091270A3091280A77
:10397000C901019660E072E00E94A83E4091250ACC
:103980005091260A8417950741F0D901A759B04FE5
:10399000EC939093280A8093270AEF91BF91AF91FF
:1039A0009F918F917F916F915F914F913F912F9157
:1039B0000F900FBE0F901F9018951F920F920FB689
:1039C0000F9211242F933F934F935F936F937F93A5
:1039D0008F939F93AF93BF93EF93E091CE0020918D
:1039E000230A3091240AC901019660E072E00E9426
:1039F000A83E4091210A5091220A8417950741F070
:103A0000D901A759B24FEC939093240A8093230ACB
:103A1000EF91BF91AF919F918F917F916F915F9146
:103A20004F913F912F910F900FBE0F901F901895BF
:103A30000C94291CCF93C82F682F8DE00E94291C5D
:103A40006C2F8AE0CF910C94291C1F93CF93DF93A6
:103A5000162FEC0103C0612F0E94291C899181114E
:103A6000FACFDF91CF911F9108954F925F926F929D
:103A70007F928F929F92AF92BF92CF92DF92EF92FE
:103A8000FF920F93CF93DF93CDB7DEB7A0970FB61A
:103A9000F894DEBF0FBECDBF29013A016115710553
:103AA00081059105C9F4602F80E3A0960FB6F894C4
:103AB000DEBF0FBECDBFDF91CF910F91FF90EF9092
:103AC000DF90CF90BF90AF909F908F907F906F903E
:103AD0005F904F900C94291CEE24E394F12CEC0E93
:103AE000FD1E812C912C5401A30192010E94BC3E29
:103AF000F70161937F01FFEF8F1A9F0AAF0ABF0A98
:103B0000B901CA01611571058105910569F7CC24D8
:103B1000CA94DC2C7601C80CD91CEA1CFB1C14C00E
:103B2000E1E0F0E0EC0FFD1FEC0DFD1D80818A301F
:103B300010F4805D01C0895C602F0E94291C81E027
:103B4000C81AD108E108F108EFEFCE16DE06EE063E
:103B5000FE0631F7A0960FB6F894DEBF0FBECDBFBC
:103B6000DF91CF910F91FF90EF90DF90CF90BF90BA
:103B7000AF909F908F907F906F905F904F9008953F
:103B8000CF92DF92EF92FF920F936B017C01042F93
:103B900097FF0CC0642F8DE20E94291CF094E094E2
:103BA000D094C094C11CD11CE11CF11C2AE030E06F
:103BB00040E050E0C701B6010E94351D0F91FF9013
:103BC000EF90DF90CF9008950E94351A87E89CE02F
:103BD0000E94D229853440F061E081E30E94F21A0C
:103BE00061E081E30E940B1B61E070E087E89CE0EC
:103BF0000E948F278130B1F48091691190916A11F0
:103C0000A0916B11B0916C119068809369119093A1
:103C10006A11A0936B11B0936C1160E081E090E0A9
:103C20000E94664487E20E94511B892B59F160E093
:103C300070E087E89CE00E948F278A3019F5C1C0A8
:103C40006CE3629FA001639F500D1124840F951FA8
:103C50000EC02115310559F06CE3629FA001639FEE
:103C6000500D11249A01205F314F820F931F03974B
:103C700048F4809178119091791180629093791134
:103C8000809378118DE29AE00E94B1238DE29AE050
:103C90000E9472238DE29AE00E9481238DE29AE0D5
:103CA0000E94391F63E070E080E090E00E94E91913
:103CB0008091691190916A11A0916B11B0916C1172
:103CC000A1FF5EC063E070E080E090E00E94E9192F
:103CD00061E086E10E94F21A63E070E080E090E02B
:103CE0000E94E91961E086E10E940B1B63E070E02D
:103CF00080E090E00E94E9190E94ED2363E070E00B
:103D000080E090E00E94E91981E00E94102463E0C5
:103D100070E080E090E00E94E91984E00E941E2497
:103D200063E070E080E090E00E94E91980E00E948A
:103D3000192463E070E080E090E00E94E9190E949D
:103D40000C2463E070E080E090E00E94E91966E0F6
:103D50008CE79CE00E94292463E070E080E090E022
:103D60000E94E91961E086E10E94F21A60E086E1B2
:103D70000E940B1B63E070E080E090E00E94E91974
:103D800063E070E080E090E00E94E91987E89CE041
:103D90000E948D286093290A70932A0A80932B0A27
:103DA00090932C0A8091290A90912A0AA0912B0ABB
:103DB000B0912C0A0E9442410E94BD060E94D50685
:103DC000FDCF8DE29AE00E94B1238DE29AE00E943D
:103DD00003228DE29AE00E94F8218091460A90E049
:103DE0002091480A821B91092091450A30E04091B8
:103DF000490A241B3109121613060CF421CF29CFCE
:103E000080918E0C882341F080915A0D811104C05D
:103E10008FE59DE00C94523C08950F931F93CF9330
:103E2000DF93EC01042F68A761E080E30E94F21A9F
:103E300018A5112379F0113091F461E080E30E941C
:103E40000B1B013019F482E08B8B09C0011107C0F4
:103E50001B8B05C060E080E30E940B1B1B8A6AE09D
:103E600070E080E090E0DF91CF911F910F910C9472
:103E7000E919CF93DF93EC010E94001F40E060E05E
:103E8000CE01DF91CF910C940D1FFC01148A158A8D
:103E9000168A178A108E118E128E138E148E158E1E
:103EA000168E178E10A211A212A213A214A215A28E
:103EB00016A217A20895EF92FF920F931F93CF932C
:103EC000DF93CDB7DEB7EC970FB6F894DEBF0FBE29
:103ED000CDBF8C01E3E5F9E085919491BC01EE241E
:103EE000E394F12CEC0EFD1EC7010E946F41E5E545
:103EF000F9E085919491BC01CE0189960E946F41B1
:103F0000F8018689843009F466C040F4823029F1D2
:103F100008F04BC0813009F0B6C009C0863009F402
:103F200086C008F46EC0873009F0ADC096C0F801B5
:103F3000818D1F928F93808D1F928F9387891F92FF
:103F40008F93828D1F928F9385891F928F9384897F
:103F50001F928F9388E693E015C0F801818D1F9220
:103F60008F93808D1F928F9387891F928F93828D5D
:103F70001F928F9385891F928F9384891F928F93AD
:103F80008CE693E09F938F93FF92EF921F9284E6CB
:103F90008F93C80189969F938F930E9416420FB604
:103FA000F894DEBF0FBECDBF81C0F801818D1F9296
:103FB0008F93808D1F928F9387891F928F93828D0D
:103FC0001F928F9385891F928F9384891F928F935D
:103FD00080E793E0D7CFF801818D1F928F93808D7A
:103FE0001F928F9387891F928F93828D1F928F9339
:103FF00085891F928F9384891F928F9384E793E022
:10400000C1CFF801818D1F928F93808D1F928F9366
:1040100087891F928F93828D1F928F9385891F921C
:104020008F9384891F928F9388E793E0ABCFF80139
:10403000818D1F928F93808D1F928F9387891F92FE
:104040008F93828D1F928F9385891F928F9384897E
:104050001F928F938CE793E095CFF801818D1F928B
:104060008F93808D1F928F9387891F928F93828D5C
:104070001F928F9385891F928F9384891F928F93AC
:1040800080E893E07FCFCE0189969F938F931F9214
:1040900084E68F93C80189969F938F930E9416425E
:1040A0000F900F900F900F900F900F90075D1F4F84
:1040B000C801EC960FB6F894DEBF0FBECDBFDF91FE
:1040C000CF911F910F91FF90EF900895CF92DF92C3
:1040D000EF92FF920F931F93CF93DF938C01C62E25
:1040E00080918E0C811104C088E89CE00E9483348A
:1040F00068E670E088E89CE00E94B03460E070E020
:1041000088E89CE00E94DC3588E89CE00E94DE356F
:1041100043E150E068E670E088E89CE00E941836D1
:10412000E12CF12CC0E0D0E0D12CE4C088E89CE088
:104130000E94B834F801EC0FFD1F8083C630D10512
:1041400009F467C098F4C230D10509F43EC038F4D0
:10415000209729F1C130D10509F0C7C02BC0C43068
:10416000D10509F440C008F049C03AC0CA30D105B1
:1041700009F484C048F4282F30E0C830D10509F490
:1041800061C008F06DC050C0CC30D10509F492C0B8
:1041900008F482C0CD30D10509F0A7C099C0982F8E
:1041A00092959F708F702AE0929F800D1124F801E4
:1041B000818F9BC0982F92959F708F70FAE09F9F80
:1041C000800D1124F801808F90C0982F92959F70D8
:1041D0008F70FAE09F9F800D1124F801878B85C0B6
:1041E000F801868B82C0982F92959F708F70FAE0AD
:1041F0009F9F800D1124F801828F77C0982F929590
:104200009F708F70FAE09F9F800D1124F801858BBD
:104210006CC0982F92959F708F70FAE09F9F800DD1
:104220001124F801848B61C054E0359527955A9587
:10423000E1F727708F70FAE02F9F800D1124F801AD
:10424000838F53C044E0359527954A95E1F7277051
:104250008F70FAE02F9F800D1124F801848F45C0E4
:1042600094E0359527959A95E1F723708F70FAE0E1
:104270002F9F800D1124F801858F37C0282F269598
:10428000269526952670922F990F990F920F8F7071
:10429000980FF801968F29C0282F269526952695E8
:1042A0002E70922F990F990F920F8F70980FF8011F
:1042B000978F1BC0282F2695269526952670922F1E
:1042C000990F990F920F8F70980FF80190A30DC05E
:1042D000282F2695269526952670922F990F990FAF
:1042E000920F8F70980FF80191A3219603C0FFEFF2
:1042F000EF1AFF0ACC16DD0658F02AE0E216F104A8
:1043000038F488E89CE00E94B234882381F30ECF11
:10431000DF91CF911F910F91FF90EF90DF90CF90A1
:1043200008951F93CF93DF93EC01162F80918E0C8D
:10433000811104C088E89CE00E94833468E670E044
:1043400088E89CE00E94B034612F88E89CE00E94DD
:10435000B035C10FD11D688188E89CE00E94B0355E
:1043600088E89CE0DF91CF911F910C94DE35FF929D
:104370000F931F93CF93DF938C01F62E80918E0CB9
:10438000811104C088E89CE00E94833468E670E0F4
:1043900088E89CE00E94B0346F2D88E89CE00E9481
:1043A000B03588E89CE00E94DE3541E050E068E6E8
:1043B00070E088E89CE00E941836CBE0D0E088E806
:1043C0009CE00E94B234811102C02197C1F788E8B5
:1043D0009CE00E94B834F801EF0DF11D808388E85D
:1043E0009CE0DF91CF911F910F91FF900C94DE35EF
:1043F000CF93DF93EC0166E00E946620CE01DF914F
:10440000CF910C945B1FCF92DF92EF92FF920F93AC
:104410001F93CF93DF93CDB7DEB7C857D1090FB63F
:10442000F894DEBF0FBECDBF7C016AE00E9466201B
:104430008701075D1F4F84E6F80111928A95E9F71D
:10444000E1E3F9E085919491BC01CE018F5A9F4F31
:104450000E946F41BE016F5A7F4FC8010E948A417E
:10446000F70182A1823009F46AC030F4882369F030
:10447000813009F00BC122C0843009F4C7C008F4B0
:1044800093C0853009F002C1F0C0E3E3F9E0859103
:104490009491BC01CE018F5A9F4F0E946F41BE0183
:1044A0006F5A7F4FC8010E948A41E1E4F9E085918B
:1044B00094916E01F9E2CF0ED11C18C0E5E3F9E04A
:1044C00085919491BC01CE018F5A9F4F0E946F41FC
:1044D000BE016F5A7F4FC8010E948A41E1E4F9E0B2
:1044E000859194916E01E9E2CE0ED11CBC01C6010A
:1044F0000E946F41F701838D1F928F93848D1F92CD
:104500008F93858D1F928F93868D1F928F93DF924D
:10451000CF921F9288E28F93EE24E394F12CEC0E5D
:10452000FD1EFF92EF920E941642B701C8010E9441
:104530008A410FB6F894DEBF0FBECDBFC2C0E7E31D
:10454000F9E085919491BC01CE018F5A9F4F0E9452
:104550006F41BE016F5A7F4FC8010E948A41E3E458
:10456000F9E0859194916E01E9E2CE0ED11CBC0177
:10457000C6010E946F41F701838D1F928F93848D36
:104580001F928F93858D1F928F93DF92CF921F92F0
:1045900088E28F93EE24E394F12CEC0EFD1EFF9243
:1045A000EF920E941642C1CFE9E3F9E08591949120
:1045B000BC01CE018F5A9F4F0E946F41BE016F5ABE
:1045C0007F4FC8010E948A41E5E4F9E0859194910A
:1045D0006E01E9E2CE0ED11CBC01C6010E946F4102
:1045E000F701838D1F928F93848D1F928F93DF929B
:1045F000CF921F9288E28F93EE24E394F12CEC0E7D
:10460000FD1EFF92EF920E9416428FCFEBE3F9E07E
:1046100085919491BC01CE018F5A9F4F0E946F41AA
:10462000BE016F5A7F4FC8010E948A41E7E4F9E05A
:10463000859194916E01E9E2CE0ED11CBC01C601B8
:104640000E946F41F701838D1F928F93DF92CF926B
:104650001F9288E28F93EE24E394F12CEC0EFD1E62
:10466000FF92EF920E94164260CFEDE3F9E0859150
:104670009491BC01CE018F5A9F4F0E946F41BE01A1
:104680006F5A7F4FC8010E948A411BC0EFE3F9E0D7
:10469000859194917E01E1E5EE0EF11CBC01C7010C
:1046A0000E946F41FF92EF921F9284E68F931F93B7
:1046B0000F930E9416420F900F900F900F900F9043
:1046C0000F90C801C858DF4F0FB6F894DEBF0FBE79
:1046D000CDBFDF91CF911F910F91FF90EF90DF90B1
:1046E000CF900895CF93DF93EC016EE00E94B72145
:1046F0008E858E7F8E876EE0CE01DF91CF910C94F8
:104700009121CF93DF93EC016EE00E94B7218E855B
:104710008D7F8E876EE0CE01DF91CF910C94912139
:10472000CF93DF93EC016FE00E94B7218F858370F8
:10473000DF91CF910895CF93DF93EC010E949023F6
:10474000882319F0CE56DF4F888380913C0A8C7FF6
:1047500080933C0A6FE08DE29AE0DF91CF910C9458
:104760009121CF93DF93EC0140E061E00E940D1FA7
:10477000CE010E949B23CE010E94451F6DE0CE0119
:104780000E94662061E08BE20E94F21A60E08BE2F8
:10479000DF91CF910C940B1B1092BE0A1092400A2D
:1047A0000895FC01128A118E138EDC01A356BE4FB0
:1047B00089E111968C93119714961C92DF01AE55E6
:1047C000BE4F1C9212961C92E956FE4F1182108227
:1047D000089580EC9AE00C94D12361E08EE10E9470
:1047E000F21A61E08FE10E94F21A61E08DE10E940D
:1047F000F21A60E08EE10E940B1B60E08FE10E94E4
:104800000B1B61E08DE10E940B1B8CB580618CBDA0
:104810008CB580648CBD08958CB58F7B8CBD08955C
:10482000811103C08CB5806202C08CB58F7D8CBDB8
:1048300008959CB5937F982B9CBD08952CB5982F17
:1048400093702C7F922B9CBD9DB580FB90F99DBDF4
:104850000895CF93C62F61E08DE10E94F21A61E0C6
:1048600082E20E94F21A61E08DE10E940B1B61E07E
:1048700082E20E940B1B8091691190916A11A091B4
:104880006B11B0916C11A2FF08C061E088E00E943A
:10489000F21A61E088E00E940B1B809169119091EF
:1048A0006A11A0916B11B0916C1196FF08C061E084
:1048B00089E00E94F21A61E089E00E940B1B80915E
:1048C000691190916A11A0916B11B0916C11A3FFC5
:1048D00008C061E082E00E94F21A61E082E00E947A
:1048E0000B1B8091691190916A11A0916B11B0918D
:1048F0006C11A4FF08C061E082E20E94F21A61E03C
:1049000082E20E940B1BC330C9F020F4C13061F079
:1049100070F407C0C53061F1F0F0C63009F067C02F
:1049200033C060E08DE160C060E082E25DC087E896
:104930009CE00E94672760E08CE256C0809169117C
:1049400090916A11A0916B11B0916C11A2FF4FC0B0
:1049500060E088E049C08091691190916A11A0914E
:104960006B11B0916C1196FF42C060E089E03CC0D1
:104970008091691190916A11A0916B11B0916C11A5
:10498000A3FF35C060E02FC061E08DE10E940B1BEA
:1049900061E082E20E940B1B8091691190916A1183
:1049A000A0916B11B0916C11A2FF04C061E088E08E
:1049B0000E940B1B8091691190916A11A0916B115B
:1049C000B0916C1196FF04C061E089E00E940B1B5E
:1049D0008091691190916A11A0916B11B0916C1145
:1049E000A3FF05C061E082E0CF910C940B1BCF9137
:1049F000089510927D0C10927C0C10927E0C1092F7
:104A00007F0C1092800C1092810C0895FC01408163
:104A100060E072EC81E090E00E94971B61E087E12A
:104A20000E94F21A61E087E10E940B1B61E08BE0BB
:104A30000E94F21A60E08BE00E940B1B61E08DE2A5
:104A40000E94F21A60E08DE20C940B1BDC01809155
:104A5000C50011968C9311978091C40012968C9387
:104A60001297E2ECF0E0808113968C93139780917B
:104A7000CA0014968C93149780818F7D80838081E7
:104A80008F7E80838081877F80834C9160E072EC91
:104A900081E090E00E94971B61E087E10E940B1B80
:104AA00060E08BE00C940B1BCF93DF93EC01409103
:104AB000691150916A1160916B1170916C1163E0F2
:104AC00070E080E090E042FF07C00E94E91961E0D9
:104AD0008BE00E940B1B02C00E94E9198981809320
:104AE000C5008A818093C4008B818093C2008C8131
:104AF0008093CA00DF91CF910895EF92FF920F93B8
:104B00001F93CF93DF938C01EB010E9426257E013A
:104B100088E1E81A8CEFF80AFE0121968491882337
:104B200039F0F80160810E94181DCE15DF05A1F74C
:104B3000C8010E94542560E070E0CB01DF91CF9165
:104B40001F910F91FF90EF9008958F929F92AF92D7
:104B5000BF92CF92DF92EF92FF920F931F93CF936A
:104B6000DF93EC016A017B01122F0E94262520E0D1
:104B700030E0A901C701B6010E94C33C87FF08C00D
:104B800068818DE20E94181DF7FAF094F7F8F0940E
:104B9000B12C60E070E080E09FE307C020E030E0EF
:104BA00040E251E40E94C73CB394B112F7CF262FE4
:104BB000372F482F592FC701B6010E945F3C4B0188
:104BC0005C01792D9B2D0E94343D6B017C010E947C
:104BD000603D9B01AC01682D792D8A2D9B2D0E9493
:104BE0005E3CB62EA72E982E892E08812AE030E052
:104BF00040E050E0B601C7010E94351D1123B1F11C
:104C000068818EE20E94181D31C020E030E040E251
:104C100051E4D501F4016B2F7A2D8F2F982D0E942E
:104C2000123E4B015C01792D9B2D0E942F3D6B01A3
:104C3000EE24D7FCE094FE2C08812AE030E040E02E
:104C400050E0C701B6010E94351DC701B6010E94A0
:104C5000623D9B01AC01682D792D8A2D9B2D0E9410
:104C60005E3CB62EA72E982E892E11501111CDCF55
:104C7000CE01DF91CF911F910F91FF90EF90DF90C8
:104C8000CF90BF90AF909F908F900C945425AF928F
:104C9000BF92DF92EF92FF920F931F93CF93DF9318
:104CA000EC01142FD52E7B0159010E942625A11459
:104CB000B10429F46881812F0E94181D16C08AE072
:104CC000A816B10439F44881612F7D2DC7010E94D7
:104CD000C01D0BC09501442737FD4095542F088116
:104CE000612F7D2DC7010E94351D88810E941A1DEC
:104CF000CE01DF91CF911F910F91FF90EF90DF9048
:104D0000BF90AF900C945425CF93DF93EC010E9499
:104D1000262588810E941A1DCE01DF91CF910C9427
:104D20005425EF92FF920F931F93CF93DF9300D000
:104D3000CDB7DEB77C010E947D258C01C701698358
:104D40007A830E94842669817A81C8010F900F902E
:104D5000DF91CF911F910F91FF90EF900895CF9326
:104D6000DF93EC012AE00E94A525CE01DF91CF91CF
:104D70000C948426AF92BF92DF92EF92FF920F9332
:104D80001F93CF93DF93EC01142FD52E7B01590194
:104D90000E942625A114B10429F46881812F0E9464
:104DA000181D16C08AE0A816B10439F44881612F95
:104DB0007D2DC7010E94C01D0BC09501442737FD02
:104DC0004095542F0881612F7D2DC7010E94351D0C
:104DD000CE01DF91CF911F910F91FF90EF90DF9067
:104DE000BF90AF900C9454250F931F93CF93DF93F4
:104DF000EC018B010E9426256881C8010E94251DB7
:104E0000CE01DF91CF911F910F910C9454251092F8
:104E1000820C08951F93CF93DF931F92CDB7DEB717
:104E2000162F61E0812F49830E94F21A4981413097
:104E300011F461E003C0411108C060E0812F0F90C0
:104E4000DF91CF911F910C940B1B0F90DF91CF91AD
:104E50001F9108951F93CF93DF931F92CDB7DEB7B5
:104E6000162F61E087E149830E94F21A61E084E233
:104E70000E94F21A61E085E20E94F21A61E087E185
:104E80000E940B1B612F84E20E940B1B4981642F3F
:104E900085E20F90DF91CF911F910C940B1B61E085
:104EA00087E10E94F21A61E084E20E94F21A61E056
:104EB00085E20E94F21A61E087E10E940B1B60E02C
:104EC00084E20E940B1B61E085E20C940B1B61E005
:104ED00087E10E94F21A61E084E20E94F21A61E026
:104EE00085E20E94F21A61E087E10E940B1B61E0FB
:104EF00084E20E940B1B61E085E20C940B1B61E0D5
:104F000087E10E94F21A61E08BE00E94F21A61E0F0
:104F100087E10E940B1B61E08BE00C940B1BCB0123
:104F20000C9458448F929F92AF92BF92CF92DF928F
:104F3000EF92FF920F931F93CF93DF93CDB7DEB71E
:104F4000C75FD1090FB6F894DEBF0FBECDBF8E018B
:104F500000511F4F580128E0A20EB11C7E0181E8CC
:104F6000E80EF11CCC24C394D12CCC0EDD1E6DE0D8
:104F7000CE018F519F4F0E94D13B40E06CE087E80B
:104F80009CE00E940A2740E06DE087E89CE00E94D8
:104F90000A27F801108211821282138261E08CE0EC
:104FA0000E94F21A61E08CE00E940B1BCE018F512F
:104FB0009F4F0E94B13A41E06DE087E89CE00E947B
:104FC0000A276AE070E080E090E00E94E91940E082
:104FD00063E3CE018F519F4F0E94823B62E370E0FA
:104FE00080E090E00E94E9194701CE018F519F4F68
:104FF0000E94573BF2E08F1A9108F40180831182DE
:1050000061E070E080E090E00E94E9198C149D045A
:1050100061F7FE017196D701C60180599F4F21911A
:1050200031912D933D93E817F907C9F731EE832E9F
:10503000912C8C0E9D1E81E090E0A0E0B0E0F40188
:10504000329122914F012130310569F4F8014081FC
:10505000518162817381480F591F6A1F7B1F4083F2
:10506000518362837383880F991FAA1FBB1F8E14FD
:105070009F0429F7F80180819181A281B3818F3F3C
:105080009F4FAF4FBF4F29F4F80110821182128257
:10509000138260E08CE00E940B1B40E06CE087E82C
:1050A0009CE00E940A2740E06DE087E89CE00E94B7
:1050B0000A270C5F1F4F0A151B0509F058CFC05176
:1050C000DF4F088119812A813B81C05FD040CC50DD
:1050D000DF4F88819981AA81BB81C45FD0400817C6
:1050E00019072A073B0719F000E010E09801B80102
:1050F000C901C950DF4F0FB6F894DEBF0FBECDBF58
:10510000DF91CF911F910F91FF90EF90DF90CF90A3
:10511000BF90AF909F908F900895CF92DF92EF92C3
:10512000FF920E9492276B017C0161157105810538
:10513000910591F483EE90E00E9460446A302AE089
:1051400072078207920741F06F3F2FEF72078207C5
:10515000920711F06B017C01B601C701FF90EF903F
:10516000DF90CF900895FB012081822F80538A30F9
:1051700030F4332727FD30952053310909C0822FA1
:105180008154863040F4332727FD30952753310969
:105190006F5F7F4F02C020E030E0FB018081982FDD
:1051A00090539A3028F4992787FD9095C0970BC0AB
:1051B000982F9154963028F4992787FD9095C7979A
:1051C00002C080E090E0F0E12F9F800D112408954F
:1051D0002F923F924F925F926F927F928F929F9207
:1051E000AF92BF92CF92DF92EF92FF920F931F93F5
:1051F000CF93DF93CDB7DEB767970FB6F894DEBFD6
:105200000FBECDBF6A017B015901380120E030E0BB
:10521000A901C701B6010E94C33C87FF07C0F7FA86
:10522000F094F7F8F09421E02D8B01C01D8AC7019E
:10523000B6010E942F3D9B01AC01CE0101969F8BD0
:105240008E8B00E010E06AE0262E312C412C512C90
:1052500001C0840148019FEF891A990ACA01B90166
:10526000A20191010E94DE3EEE89FF896193719354
:10527000FF8BEE8B211531054105510551F7FD8955
:10528000FF2331F08DE2F501808381E090E002C0E0
:1052900080E090E0F501E80FF91F9801220F331F1D
:1052A000BE016F5F7F4F620F731F980140E050E0B7
:1052B000DB01A40FB51FAC91A05DA1932150310972
:1052C000425051092F3FAFEF3A0791F70196800FF7
:1052D000911F8501080F191F2EE2F80120834C0150
:1052E000FFEF8F1A9F0AC701B6010E942F3D882742
:1052F00077FD8095982F0E94623D9B01AC01C7010C
:10530000B6010E945E3CEE24E394F12C25C020E01F
:1053100030E040E251E40E94123E362E472E582ED5
:10532000C92E0E942F3DD62E6D2D882777FD8095A2
:10533000982F0E94623D9B01AC01632D742D852D39
:105340009C2D0E945E3CF801EE0DFF1D2D2D205D71
:1053500020832FEFE21AF20A6E147F04C4F677FE60
:1053600002C0612C712CF501E80DF91DE60DF71D49
:10537000108267960FB6F894DEBF0FBECDBFDF91E7
:10538000CF911F910F91FF90EF90DF90CF90BF9042
:10539000AF909F908F907F906F905F904F903F90D5
:1053A0002F9008958FED90E00E9458448F3F09F4AC
:1053B00080E00895E62FCA01B9014E2F0E94971B85
:1053C00061E086E10E94F21A61E087E10E94F21A30
:1053D00061E08BE00E94F21A61E087E10E940B1B02
:1053E00061E08BE00C940B1B613019F0633071F5B8
:1053F00014C0FC01E258FC4F8081811102C061E0C1
:1054000013C0813019F587E89CE00E94672761E0AE
:1054100086E00E94F21A61E016C0FC01E258FC4FDF
:105420008081811103C060E086E10EC0813071F49B
:1054300040E060E087E89CE00E942A2761E086E087
:105440000E94F21A60E086E00C940B1B08950F9303
:105450001F93CF93DF9300D0CDB7DEB78C0187E8E1
:105460009CE069837A830E947F27F801ED54FC4F0A
:1054700011821082F801E358FC4F808169817A81A2
:10548000833009F449C028F4813059F0823031F476
:105490001CC08430C1F1853009F450C020E030E0F8
:1054A0004FC0F801E959FE4F8081882309F446C0B6
:1054B000DB0118968C911897813089F119968C919F
:1054C000811130C022E630E03BC0F801E959FE4FBF
:1054D0009081FB018085911105C0813031F52CE56B
:1054E00030E02EC0F801E452FC4F813031F480816D
:1054F0008823F1F026E430E023C080818823D9F0AE
:105500002EE330E01DC0F801E959FE4F8081882369
:10551000A9F020E530E014C029E430E011C02FE507
:1055200030E00EC02EE530E00BC024E530E008C0CE
:105530002AE430E005C022E430E002C024E630E096
:10554000FB01E85CFE4F808191812817390710F438
:1055500031832083D801ED91FC910280F381E02D0D
:10556000C8010F900F90DF91CF911F910F91099477
:105570002F923F924F925F927F928F929F92AF9223
:10558000BF92CF92DF92EF92FF920F931F93CF9330
:10559000DF93CDB7DEB72A970FB6F894DEBF0FBE04
:1055A000CDBF4C016B015A01722EF32ECA010E942D
:1055B000D44121E0E21242C044244394512C4C0EC9
:1055C0005D1E212C312CF501E20DF31D80818987B0
:1055D00081818A87BE01675F7F4F87E89CE00E94D8
:1055E000B328D2018D932D01B2E02B0E311CE0E1E6
:1055F0002E16310441F78981D60114968C931497A5
:105600008A8115968C9315978B8116968C93169795
:105610008C8117968C9317978D818C938E81119620
:105620008C9311978F8112968C931297888513967D
:105630008C93139781E019968C9324C0E11022C0BB
:10564000F5018081898781818A87BE01675F7F4FED
:1056500087E89CE00E94B3288983D50112968C913B
:105660001297898713968C918A87BE01675F7F4F57
:1056700087E89CE00E94B3288A839981F60192878B
:1056800083871186D401AC52BC4F11961C921E9296
:10569000E72DFF2D0E0F1F1FAD0113C0DA018D91F5
:1056A0009C9121918C0D9D1DDC011C962C93DA019F
:1056B0008D919C91119701968D939C938C32914082
:1056C00018F4E017F10751F7F601E85CFE4FD4013A
:1056D000AC52BC4F8D919C919183808381E02A963E
:1056E0000FB6F894DEBF0FBECDBFDF91CF911F91F3
:1056F0000F91FF90EF90DF90CF90BF90AF909F9071
:105700008F907F905F904F903F902F900895EF92F1
:105710000F931F93EE24E3940E94B82A1F910F91D8
:10572000EF900895CF93DF9380E090E0FB01E85C79
:10573000FE4F420F511D09C0DA01A80FB91FEB013E
:10574000C80FD91F2C852C93019620813181821797
:10575000930790F3DF91CF9108956F927F929F927C
:10576000AF92BF92CF92DF92EF92FF920F931F936F
:10577000CF93DF93FA013901319681E090E010E098
:10578000685C7E4F30E2B32E4DE7A42E43C02081EB
:10579000213149F0233139F02E3729F02D3719F016
:1057A0000196319637C02B252083D3012C912F5F92
:1057B0002C939080A0829C012E5F3F4FEF01229698
:1057C00017C09880D8827901BFEFEB1AFB0A2E5FD1
:1057D0003F4F2296D3014C916801C40ED11CA60103
:1057E000DB01CD90DC904C0D5D1DE416F506C0F696
:1057F000DE01DE909C92D3014C91D801A40FB11D23
:10580000AD01DB01ED90FC904E0D5F1D24173507B7
:10581000C0F2C6CFD3012C916801C20ED11C9601F3
:10582000DB014D915C91240F351F8217930708F41B
:10583000AECFDF91CF911F910F91FF90EF90DF904E
:10584000CF90BF90AF909F907F906F900895AF9250
:10585000BF92CF92DF92EF92FF920F931F93CF935D
:10586000DF93E0E0F0E0A3E1CA2EBEE7BB2EC1E18A
:10587000AC2EEB01C20FD31F3BC0FC01E20FF31FA4
:10588000E60FF71F7C01E20EF31EDF013196DC907C
:105890001DE7D11621F08417950779F52AC08417E2
:1058A000950738F58C010F5F1F4FFB01EE0DFF1DB3
:1058B000E181E33359F018F4E13369F405C0ED35C3
:1058C00049F0EE3541F404C0AC9205C0CC9203C05F
:1058D000BC9201C0DC924150510905C0FE01E80FA5
:1058E000F91FA181A0830196F80184179507B0F3F1
:1058F000CF018417950708F202C00196C3CFDF914C
:10590000CF911F910F91FF90EF90DF90CF90BF90BC
:10591000AF900895CF93DF93DC01AD54BC4F2D5F62
:105920003F4F11963C932E9320E030E00AC0EB01EC
:10593000CE0FDF1F8881280F311D31961196FC9301
:10594000EE93ED91FC911197E417F50780F32F3F4B
:10595000310519F081E02F3F09F480E0DF91CF910C
:105960000895EF92FF920F931F93CF93DF93EC0173
:105970007B0189010E948A2C811109C0F701E00F87
:10598000F11F8481C952DE4F888380E001C081E02D
:10599000DF91CF911F910F91FF90EF900895FB0140
:1059A000918180E02281820F911D339620E030E0CA
:1059B00040E004C05191450F2F5F3F4F2817390732
:1059C000C9F7842F809508958A549C4FFC018EE17D
:1059D000DF011D928A95E9F70895DC01AD54BC4FB3
:1059E00011961C921E920FC0F901B696EE0FFF1F82
:1059F000E80FF91F40815181452B59F02F5F3F4F30
:105A000011963C932E932D913C91119725303105A1
:105A100058F3822F08950F931F93CF93DF938C0138
:105A2000EC01CD54DC4F1982188216C0B696EE0FE9
:105A3000FF1FE00FF11F808191810E944F408881FC
:105A40009981FC01B696EE0FFF1FE00FF11F118246
:105A50001082019699838883E881F981E530F10508
:105A600028F3DF91CF911F910F910895AF92BF92CC
:105A7000CF92DF92EF92FF920F931F93CF93DF931A
:105A80007C01E0E0F0E010E05F01812F8E1BEF0170
:105A9000A696CC0FDD1FCE0DDF1D27C065012FEFB1
:105AA000C21AD20A68817981625B7E4F9601220F09
:105AB000331F2E0D3F1D245B3F4FD9014D915C914B
:105AC000425B5E4FDB010D911D912D913C91DA01FE
:105AD0004D915D916D917C9104171507260737074D
