:100000000C945C050C9414330C9445330C947633A7
:100010000C94A7330C94D8330C9409340C943A34D0
:100020000C946B340C948B050C948B050C948B0501
:100030000C9483090C948B050C948B050C94DF09AC
:100040000C948B050C948B050C948B050C948B05F0
:100050000C948B050C948B050C948B050C94BA09AD
:100060000C948B050C94C90C0C948B050C948B058B
:100070000C948B050C948B050C948B050C948B05C0
:100080000C948B050C948B050C948B050C948B05B0
:100090000C94040D0C948B050C948B050C94E4319A
:1000A0000C948B050C948B050C948B050C948B0590
:1000B0000C948B050C948B050C948B050C948B0580
:1000C0000C948B050C948B050C948B0507634236BE
:1000D000B79BD8A71A39685618AEBAAB558C1D3CD9
:1000E000B7CC5763BD6DEDFD753EF6177231BF009D
:1000F0000000803F08000000BE922449123EABAAD7
:10010000AA2ABECDCCCC4C3E00000080BEABAAAA31
:10011000AA3E00000000BF000000803F0000000079
:1001200000084178D3BB4387D1133D190E3CC3BDB2
:100130004282AD2B3E68EC8276BED98FE1A93E4C5F
:1001400080EFFFBE01C4FF7F3F0000000000576149
:10015000726E696E673A204E6F205344206361725D
:100160006420696E7374616C6C6564004C6F672009
:1001700066696C65206372656174656400576172BD
:100180006E696E673A204C6F672066696C65204E19
:100190004F5420637265617465642C206572726FC0
:1001A000723A2000436F6E66696775726520666FEC
:1001B000722046696E73652057534E00436F6E661A
:1001C000696775726520666F72206F74686572204A
:1001D00057534E004E6F20636F6E6669677572618C
:1001E00074696F6E002D2D2D2D2D2D2D2D2D2D2D66
:1001F0002D2D2D2D2D2D2D2D2D2D2D2D2D2D2D2D2F
:100200002D2D2D2D00436F6E666967757265205820
:1002100042656520446967696D657368002D2D2D01
:100220002D2D2D2D2D2D2D2D2D2D2D2D2D2D2D2DFE
:100230002D2D2D2D2D2D2D2D2D2D2D2D00312E2023
:100240004368616E6E656C20736574204F4B20743B
:100250006F3A20307800312E204572726F72206321
:10026000616C6C696E6720277365744368616E6E9C
:10027000656C28292700322E2050414E2049442009
:10028000736574204F4B20746F3A20307800322E03
:10029000204572726F722063616C6C696E672027F3
:1002A00073657450414E28292700332E2041455351
:1002B00020656E6372797074696F6E20636F6E660D
:1002C0006967757265642028313A656E61626C6594
:1002D000643B20303A64697361626C6564293A005A
:1002E000332E204572726F722063616C6C696E6789
:1002F0002027736574456E6372797074696F6E4DF3
:100300006F646528292700342E2041455320656EEF
:100310006372797074696F6E206B65792073657490
:10032000204F4B00342E204572726F722063616C37
:100330006C696E6720277365744C696E6B4B6579C9
:1003400028292700352E204368616E676573207366
:10035000746F726564204F4B00352E204572726FAA
:10036000722063616C6C696E6720277772697465AF
:1003700056616C756573282927002D2D2D2D2D2D87
:100380002D2D2D2D2D2D2D2D2D2D2D2D2D2D2D2D9D
:100390002D2D2D2D2D2D2D2D2D006368616E6E655B
:1003A0006C3A200070616E69643A2000656E637279
:1003B000797074696F6E206D6F64653A20002D2D21
:1003C0002D2D2D2D2D2D2D2D2D2D2D2D2D2D2D2D5D
:1003D0002D2D2D2D2D2D2D2D2D2D2D2D2D000604CA
:1003E0001A044004670487049F04AD04BD04D204CA
:1003F000E804F90405050C05290547055D056B05AD
:100400007B059E05A405416C61726D204D6F64658E
:10041000206D61746368657320005B446179203AE4
:1004200020686F757273203A206D696E75746573FC
:10043000203A207365636F6E64735D202D3E20004B
:100440005B44617465203A20686F757273203A20AE
:100450006D696E75746573203A207365636F6E64A1
:10046000735D202D3E20005B486F757273203A202B
:100470006D696E75746573203A207365636F6E6481
:10048000735D202D3E20005B4D696E757465732091
:100490003A207365636F6E64735D202D3E20005BB0
:1004A0005365636F6E64735D202D3E20004F6E6355
:1004B0006520706572207365636F6E6400496E63BA
:1004C0006F727265637420616C61726D206D6F6410
:1004D00065005B253032753A253032753A25303269
:1004E000753A253032755D005B253032753A25301E
:1004F00032753A253032755D005B253032753A250C
:100500003032755D005B253032755D005B4461798A
:10051000203A20686F757273203A206D696E757489
:100520006573205D202D3E20005B44617465203A98
:1005300020686F757273203A206D696E75746573EB
:10054000205D202D3E20005B486F757273203A209D
:100550006D696E757465735D202D3E20005B4D697D
:100560006E757465735D202D3E20004F6E636520AF
:10057000706572206D696E7574650025732C202579
:100580003032752F253032752F253032752C2025CD
:100590003032753A253032753A2530327500657241
:1005A000726F7200253032752563253032752563F0
:1005B0002530327525632530327525632530327537
:1005C000256325303275256325303275002D063EB2
:1005D000064F066406750688069B06AE06C306E44B
:1005E00006F506080719072E0745075A07710784FD
:1005F000079507A607B907CE07DF07F20703081418
:100600000829083A084B087C088F08A008B308C4DA
:1006100008D508E608F7080A091B092C093D094E08
:10062000096109720983099609A909BA0937453090
:100630003030343038353235333443303600374596
:10064000303030343038353235333438304100379B
:10065000453030303630383532344435393030304A
:100660003030300037453030303430383532344473
:10067000353946460037453030303530383532343C
:100680003234343030303000374530303035303867
:10069000353234313530303030300037453030305D
:1006A000353038353234313446303030300037452B
:1006B0003030303630383532343934343030303010
:1006C000303000374530303043303835323439340B
:1006D0003430303030303030303030303030303016
:1006E00030303000374530303034303835323439FE
:1006F00034343138003745303030353038353235E4
:1007000033344430303030003745303030343038D6
:1007100035323533344430350037453030303630BB
:1007200038353235333534303030303030003745BD
:100730003030303730383532353335343030303092
:1007400030303030003745303030363038353235A3
:10075000333530303030303030003745303030379E
:10076000303835323533353030303030303030306D
:100770000037453030303530383532343334383066
:100780003030300037453030303430383532343363
:100790003438314100374530303034303835323438
:1007A0004534393045003745303030353038353212
:1007B0003445353430303030003745303030363025
:1007C000383532344535343030303030300037450C
:1007D000303030343038353234453534303300370A
:1007E00045303030353038353234453446303030AD
:1007F00030003745303030343038353234453446C7
:1008000030380037453030303430383532353735D0
:1008100032464300374530303036303835323533A4
:1008200034333030303030300037453030303430D1
:100830003835323533343330460037453030303494
:100840003038353235333434304500374530303187
:100850003430383532344235393030303030303061
:100860003030303030303030303030303030303088
:10087000303030303030303030303000374530308C
:10088000303530383532343534353030303000376B
:10089000453030303430383532343534353142003B
:1008A00037453030303530383532353034433030FC
:1008B0003030003745303030343038353235303430
:1008C0004330390037453030303430383532343405
:1008D00034323146003745303030343038353234F8
:1008E00038353630370037453030303430383532EF
:1008F00035363532464400374530303035303835BE
:1009000032353235303030303000374530303034E9
:1009100030383532353235303033003745303030CD
:1009200034303835323431343332310037453030B9
:100930003034303835323436353230440037453093
:100940003030343038353235323435304500374583
:100950003030303530383532353334463030303061
:100960000037453030303430383532353334463066
:100970003300374530303034303835323445343454
:100980003133003745303030353038353234353456
:100990003430303030003745303030353038353253
:1009A0003533343430303030003745303030343047
:1009B00038353234343443313500253275253275BB
:1009C0002532752532752532752532752532752506
:1009D000632532752532750000000809000000000B
:1009E0000000000000000000000000000000000007
:1009F00000000000000000000000000000000000F7
:100A000000000000000000000000000102081010BB
:100A1000204080040810204002020408102040807A
:100A2000010280204004200101020408102001403E
:100A300080408001020804088004100402010505BA
:100A4000050503030303010101040403060606066A
:100A50000606060601040501050103020202020260
:100A6000020102020505040403040401030407074C
:100A70000700202326292C2F32002225282B2E3157
:100A800034002124272A2D30337C3C3E5E2B3D3F11
:100A90002F5B5D3B2C2A225C00496E76616C696499
:100AA0002066696C656E616D65005E098714981635
:100AB000B918371A3030924011241FBECFEFD1E25F
:100AC000DEBFCDBF12E0A0E0B2E0E8EEF6E900E064
:100AD0000BBF02C007900D92A63FB107D9F710E1F6
:100AE000A6EFB2E001C01D92AF34B107E1F71AE002
:100AF000C8EBDAE000E006C022970109FE010BBF57
:100B00000E942A46CA3AD10780E00807A9F70E9446
:100B1000300E0C94724B0C94000086EF92E00E9411
:100B20009D0565E673E786EF92E00E94D20566E0D8
:100B300086EF92E00C940507089586E499E00E9400
:100B4000C61884E897E00E94D414811106C06EE4B0
:100B500071E086E499E00E94081A6BE072E084E894
:100B600097E00E94C5158130E1F06BE072E084E807
:100B700097E00E944416882331F06CE671E086E429
:100B800099E00C94081A6DE771E086E499E00E9400
:100B90003D1960911B0970911C0986E499E00C9441
:100BA000C9190895CF93DF93CDB7DEB727970FB656
:100BB000F894DEBF0FBECDBF85E0E3E1F2E0DE01D9
:100BC000119601900D928A95E1F7623785E67807D4
:100BD00071F06536734771F464EA71E086E499E078
:100BE0000E94081A82E18E8384E38F8309C06CEB34
:100BF00071E002C064ED71E086E499E00E94081A99
:100C000086E499E00E94C61865EE71E086E499E0FA
:100C10000E94081A65E072E086E499E00E94081AD2
:100C20006DE172E086E499E00E94081A87EF92E095
:100C30000E94B42A6FE087EF92E00E94EE2C809130
:100C4000D004811111C06DE372E086E499E00E9446
:100C50003D1960911E0486E499E00E94261A86E4FC
:100C600099E00E94FB1906C066E572E086E499E00F
:100C70000E94081ABE016A5F7F4F87EF92E00E94D0
:100C8000D82D8091D004811117C066E772E086E408
:100C900099E00E943D1960913A0386E499E00E9430
:100CA000261A60913B0386E499E00E94261A86E4A6
:100CB00099E00E94FB1906C06EE872E086E499E0B4
:100CC0000E94081A60E087EF92E00E94E92B809171
:100CD000D004811112C06AEA72E086E499E00E94B1
:100CE0003D1940915E0450E060E070E02AE030E0A1
:100CF00086E499E00E94651906C060EE72E086E421
:100D000099E00E94081ABE016F5F7F4F87EF92E063
:100D10000E942B2C8091D004811103C067E073E006
:100D200002C064E273E086E499E00E94081A87EF4B
:100D300092E00E94802C8091D004811103C064E471
:100D400073E002C069E573E086E499E00E94081A46
:100D50006AE773E086E499E00E94081A87EF92E060
:100D60000E94B22C6AE973E086E499E00E943D1982
:100D700060911E0486E499E00E94261A86E499E0B8
:100D80000E94FB1987EF92E00E943E2D64EA73E017
:100D900086E499E00E943D1960913A0386E499E067
:100DA0000E94261A60913B0386E499E00E94261A6D
:100DB00086E499E00E94FB1987EF92E00E94AD2B38
:100DC0006CEA73E086E499E00E943D1960915E044C
:100DD00086E499E00E94261A86E499E00E94FB19B5
:100DE0006EEB73E086E499E00E94081A64E670E016
:100DF00080E090E00E94560A27960FB6F894DEBF76
:100E00000FBECDBFDF91CF910895AF92BF92CF9229
:100E1000DF92EF92FF920F931F93CF93DF9300D057
:100E200000D0CDB7DEB7C62E8BE499E00E94971AAA
:100E300040E060E08FEE96E00E944C0F68EE73E0B9
:100E400080E090E00E94560A41E060E875E280E0B0
:100E500090E00E94DC0B00E010E0D12C5E0145E048
:100E6000A40EB11C43C081E00E94B50C81E00E9439
:100E7000600C892BD9F381E00E947C0C82359105AE
:100E8000A9F7EE24E394F12CEC0EFD1E81E00E9404
:100E9000600C892BD9F381E00E947C0CF7018193CF
:100EA0007F01EA15FB0591F7CE0101960E94E54707
:100EB0009C012D5231402B35324158F068E172E0EF
:100EC00086E499E00E94E5196AE070E080E090E035
:100ED0000BC00F5F1F4FBC0186E499E00E94A2196E
:100EE00068EE73E080E090E00E94560A0C151D0544
:100EF0000CF4B9CF0F900F900F900F90DF91CF911E
:100F00001F910F91FF90EF90DF90CF90BF90AF9027
:100F100008955F926F927F928F929F92AF92BF924D
:100F2000CF92DF92EF92FF920F931F93CF93DF93B5
:100F3000CDB7DEB7C957D1090FB6F894DEBF0FBEE3
:100F4000CDBF6C017B01EA961FAEEA973C010E947F
:100F5000741FF601E552FE4F82E080838E010F5F21
:100F60001F4F98E7D8011D929A95E9F79EE799835C
:100F700091E09D83F601ED54FC4F11821082F60141
:100F8000E752FE4F8083F701908588E3A82EBB24AB
:100F9000B394AE0CBF1CD5018C919230E0F5825F0A
:100FA0008B8380E18C83913019F48FEF8C8710C094
:100FB000F70184818E8385818F83868188878781ED
:100FC000898780818A8781818B8782818C878381D1
:100FD0008D878FEF8E878EEF8F8721E1AE014F5F78
:100FE0005F4FB701C3010E947F1CF701E85CFE4F11
:100FF000008111810F5E1F4FBE016F5F7F4FC301E4
:101000000E945F1FE1E0F0E0EC0FFD1FE00FF11F19
:10101000808312E146C08C5E8B8381E18C83F70173
:1010200084818E8385818F83868188878781898764
:1010300080818A8781818B8782818C8783818D875C
:101040008FEF8E878EEF8F87E65CFE4F8081888BD7
:10105000F701E55CFE4F8081898BF701E45CFE4F70
:1010600080818B8BF701E25CFE4F80818C8BF701D6
:10107000E15CFE4F80818D8B27E1A801B701C6019D
:101080000E947F1CD501AD90BC90B7E1AB0EB11CA6
:10109000B801C6010E945F1FF801EA0DFB1D8083A5
:1010A00018E1012F9E0127583F4FAE014F5F5F4F60
:1010B000B701C3010E949A1CF601E258FC4F8081DF
:1010C000813021F48BE499E00E947F1A512C570162
:1010D000E8ECAE1AEEEFBE0A012F10E04601F2E88E
:1010E0008F1AFCEF9F0A0CC0E1E0F0E0EC0FFD1F4F
:1010F000E80FF91FD4016C9180810E943F0D539439
:10110000852D90E0EA964FADEA97F5012081318177
:10111000240F311D200F311F8217930728F3C301BD
:101120000E946625F601E552FE4F8083F601EA52E1
:10113000FC4F9081F701EE5AFE4F9083F601E95281
:10114000FC4F9081F701ED5AFE4F9083F601E85273
:10115000FC4F9081F701EC5AFE4F9083F601E75265
:10116000FC4F9081F701EB5AFE4F9083F601E65257
:10117000FC4F9081F701EA5AFE4F9083C758DF4F2A
:101180000FB6F894DEBF0FBECDBFDF91CF911F9198
:101190000F91FF90EF90DF90CF90BF90AF909F9016
:1011A0008F907F906F905F900895CF93DF93EC01C5
:1011B000FC01E358FC4F83E08083FE01E258FC4FC2
:1011C0006083611104C08BE499E00E94AF1AFE01B4
:1011D000E158FC4F11821082FE01ED54FC4F118248
:1011E0001082FE01EB54FC4F1082FE01E95AFF4FC2
:1011F0001082FE01E25CFE4F1082FE01E45CFE4FB5
:101200001082FE01E35CFE4F82E88083FE01E95913
:10121000FE4F1082FE01E759FE4F80E28083FE01FF
:10122000EF5DFE4F1082FE01EE5DFE4F87E0808392
:10123000FE01ED5DFE4F90ED9083FE01EC5DFE4FF3
:101240001082FE01EB5DFE4F1082FE01EA5DFE4F53
:1012500098EC9083FE01EE58FE4F1082FE01E85993
:10126000FE4F94E09083FE01E951FC4F8083FE0124
:10127000E851FC4F83E08083FE01E751FC4F81E0A1
:101280008083FE01E552FC4F1082FE01E852FE4FC2
:1012900082E08083FE01E752FE4F8083FE01E6522A
:1012A000FE4F8083FE01E552FE4F8083CE010E94F7
:1012B000A220CE01DF91CF910C94741F1092F902FD
:1012C0001092FB02109213031092150389E1809390
:1012D000D5061092D80683E08093730680E292E0F0
:1012E0009093F8028093F70284E1EFE1F4E0DF01EC
:1012F0001D928A95E9F781E1EDE4F4E0DF011D92AA
:101300008A95E9F708951F920F920FB60F92112454
:101310000BB60F922F933F934F935F936F937F93EF
:101320008F939F93AF93BF93EF93FF93F89481E0D4
:1013300080930A02E0E6F0E080818068808380810B
:101340008F7B808360E083E00E94500B7894FF9154
:10135000EF91BF91AF919F918F917F916F915F912D
:101360004F913F912F910F900BBE0F900FBE0F909A
:101370001F9018951F920F920FB60F9211248F9302
:101380009F93AF93BF938091310C9091320CA091B9
:10139000330CB091340C0196A11DB11D8093310C1A
:1013A0009093320CA093330CB093340CBF91AF9157
:1013B0009F918F910F900FBE0F901F9018951F92C5
:1013C0000F920FB60F9211248F939F93AF93BF93F9
:1013D0008091350C9091360CA091370CB091380C5F
:1013E0000196A11DB11D8093350C9093360CA093EE
:1013F000370CB093380CBF91AF919F918F910F90A4
:101400000FBE0F901F9018958F929F92AF92BF9230
:10141000CF92DF92EF92FF920F931F93CF93DF93C0
:101420002FB7F8948091310C9091320CA091330C2D
:10143000B091340C2FBF9C01AD0160E070E080E002
:1014400090E001E00E9412464901D42FC52FB62F2B
:10145000A72FF82FE92F02E00E94124659016A01D6
:101460007B018C0194014D2F5C2F6B2F7A2F8F2FD6
:101470009E2F0E942146E9E0AE2EB12CC12CD12C2A
:10148000E12CF12C00E010E00E94B545952FB90148
:10149000842FDF91CF911F910F91FF90EF90DF90FC
:1014A000CF90BF90AF909F908F9008958F929F9212
:1014B000AF92BF92CF92DF92EF92FF924B015C010D
:1014C00007C00E94040A6C157D058E059F0520F457
:1014D0000E94040A6B017C010E94040A6C197D09B8
:1014E0008E099F09681579058A059B0550F3FF90C1
:1014F000EF90DF90CF90BF90AF909F908F90089526
:10150000BC01049768F080E090E00E94D84226E693
:1015100036E646EE5FE30E9466430E94AC4202C09C
:10152000660F771F6150710961F06150710949F0D0
:10153000FB01EE0FFF1F31978FB7F8943197F1F74A
:101540008FBF0895789484B7877F84BF1092310C41
:101550001092320C1092330C1092340C84B58260CD
:1015600084BD84B5816084BD85B5826085BD85B547
:10157000816085BDEEE6F0E0808181608083E1E8F6
:10158000F0E0808182608083808181608083E0E8F8
:10159000F0E0808181608083E1EBF0E08081846015
:1015A0008083E1E9F0E0808184608083E0EBF0E01B
:1015B000808181608083E0E9F0E0808181608083C8
:1015C000E4E6F0E080818E7F8083ECE7F0E08081CC
:1015D0008F778083808180648083EAE7F0E0808178
:1015E0008460808380818260808380818068808342
:1015F0001092C1001092C90008959091E206982BB4
:101600009093E20680FF32C0809164008E7F8093C9
:10161000640080917C008F7780937C0080917C00B7
:10162000806480937C0080917A00846080937A004B
:1016300080917A00826080937A0080917A0080683D
:1016400080937A00809164008F778093640080910A
:1016500064008B7F80936400809164008D7F809311
:101660006400809165008E7F80936500089590E00E
:10167000FC01E55FF54F2491FC01E25CF54FE4913C
:10168000EE2369F0F0E0EF57F54FA491B0E08C91B4
:10169000611103C02095822301C0822B8C93089591
:1016A00090E0FC01E852F64F2491FC01E55FF54F14
:1016B0003491FC01E25CF54F84918823B1F122233F
:1016C00031F1233021F4909180009F7705C02430C0
:1016D00031F4909180009F7D9093800018C021305C
:1016E00019F494B59F7704C0223021F494B59F7DFE
:1016F00094BD0DC0263021F49091B0009F7705C0B5
:10170000273029F49091B0009F7D9093B000E82F8E
:10171000F0E0E758F54FA491B0E08C91611103C05F
:101720003095832301C0832B8C93089590E0FC01B6
:10173000E852F64F2491FC01E55FF54F3491FC012E
:10174000E25CF54F8491882399F1222331F1233013
:1017500021F4909180009F7705C0243031F490915E
:1017600080009F7D9093800018C0213019F494B5BB
:101770009F7704C0223021F494B59F7D94BD0DC0A5
:10178000263021F49091B0009F7705C0273029F4CE
:101790009091B0009F7D9093B000E82FF0E0EF585B
:1017A000F54FE491F0E08081832321E030E011F4F3
:1017B00020E030E0C9010895CF92DF92EF92FF92CE
:1017C0006B017C01411134C088E00E94FD0AC70111
:1017D000B60122E030E040E050E00E949745305FE3
:1017E000414F5F4FCA01B901A70196010E94974579
:1017F000DA01C9010197A109B109892F9A2FAB2FED
:10180000BB27A7FDBA958093C50021502093C40043
:101810008091C10080618093C1008091C100886087
:101820008093C1008091C10080688093C10033C063
:1018300080E10E94FD0AC701B60122E030E040E0ED
:1018400050E00E949745305F414F5F4FCA01B90198
:10185000A70196010E949745DA01C9010197A109E4
:10186000B109892F9A2FAB2FBB27A7FDBA9580937B
:10187000CD0021502093CC008091C90080618093DD
:10188000C9008091C90088608093C9008091C90017
:1018900080688093C900FF90EF90DF90CF9008950B
:1018A000611107C09091C00095FFFCCF8093C600E6
:1018B00008959091C80095FFFCCF8093CE000895C5
:1018C00081110AC08091E9069091EA069E5F2091FD
:1018D000E7063091E80609C08091E5069091E6069A
:1018E0009E5F2091E3063091E406821B930B60E03B
:1018F00072E00E9461450895811119C08091E70648
:101900009091E8062091E9063091EA0628173907F8
:1019100041F1FC01E75CF14F2081019660E072E04B
:101920000E9461459093E8068093E70618C0809175
:10193000E3069091E4062091E5063091E60628172B
:10194000390779F0FC01E75CF34F2081019660E0F4
:1019500072E00E9461459093E4068093E30630E0D4
:1019600002C02FEF3FEFC9010895811109C0109205
:10197000E8061092E7061092EA061092E90608952A
:101980001092E4061092E3061092E6061092E50625
:1019900008951F920F920FB60F9211242F933F9329
:1019A0004F935F936F937F938F939F93AF93BF9367
:1019B000EF93E091C6002091E9063091EA06C90153
:1019C000019660E072E00E9461454091E706509107
:1019D000E8068417950741F0D901A75CB14FEC9355
:1019E0009093EA068093E906EF91BF91AF919F91A2
:1019F0008F917F916F915F914F913F912F910F90B8
:101A00000FBE0F901F9018951F920F920FB60F9256
:101A100011242F933F934F935F936F937F938F93F3
:101A20009F93AF93BF93EF93E091CE002091E50693
:101A30003091E606C901019660E072E00E946145BE
:101A40004091E3065091E4068417950741F0D901CF
:101A5000A75CB34FEC939093E6068093E506EF9175
:101A6000BF91AF919F918F917F916F915F914F91B6
:101A70003F912F910F900FBE0F901F9018950C94CF
:101A8000500CCF93C82F682F8DE00E94500C6C2F04
:101A90008AE0CF910C94500C1F93CF93DF93162FB5
:101AA000EC0103C0612F0E94500C89918111FACF83
:101AB000DF91CF911F9108954F925F926F927F9225
:101AC0008F929F92AF92BF92CF92DF92EF92FF924E
:101AD0000F93CF93DF93CDB7DEB7A0970FB6F894EF
:101AE000DEBF0FBECDBF29013A0161157105810529
:101AF0009105C9F4602F80E3A0960FB6F894DEBF7D
:101B00000FBECDBFDF91CF910F91FF90EF90DF908F
:101B1000CF90BF90AF909F908F907F906F905F908D
:101B20004F900C94500CEE24E394F12CEC0EFD1E1F
:101B3000812C912C5401A30192010E947545F7015B
:101B400061937F01FFEF8F1A9F0AAF0ABF0AB901A5
:101B5000CA01611571058105910569F7CC24CA9404
:101B6000DC2C7601C80CD91CEA1CFB1C14C0E1E07B
:101B7000F0E0EC0FFD1FEC0DFD1D80818A3010F4AC
:101B8000805D01C0895C602F0E94500C81E0C81A02
:101B9000D108E108F108EFEFCE16DE06EE06FE06EC
:101BA00031F7A0960FB6F894DEBF0FBECDBFDF9120
:101BB000CF910F91FF90EF90DF90CF90BF90AF90BB
:101BC0009F908F907F906F905F904F900895CF93EC
:101BD000DF93C62F282F332727FD3095207F33270B
:101BE00064E0359527956A95E1F72A3014F0295C71
:101BF00001C0205D982F9F70D92F9A3014F0D95CC6
:101C000001C0D05D6C2F822F0E94500C6C2F8D2F45
:101C1000DF91CF910C94500CCF92DF92EF92FF9214
:101C20000F936B017C01042F97FF0CC0642F8DE292
:101C30000E94500CF094E094D094C094C11CD11C2C
:101C4000E11CF11C2AE030E040E050E0C701B601A1
:101C50000E945C0D0F91FF90EF90DF90CF90089560
:101C60000E94A20A8BE499E00E94FD1B853440F09B
:101C700061E081E30E94370B61E081E30E94500B39
:101C800061E070E08BE499E00E94BF1A8130B1F40A
:101C90008091391090913A10A0913B10B0913C1076
:101CA00090688093391090933A10A0933B10B093B2
:101CB0003C1060E081E090E00E94B44A87E20E941C
:101CC000960B892B59F160E070E08BE499E00E945B
:101CD000BF1A8A3019F5C1C06CE3629FA001639FEF
:101CE000500D1124840F951F0EC02115310559F098
:101CF0006CE3629FA001639F500D11249A01205F45
:101D0000314F820F931F039748F4809148109091B0
:101D100049108062909349108093481081EF96E0BB
:101D20000E946C1481EF96E00E942D1481EF96E0E2
:101D30000E943C1481EF96E00E94F40F63E070E093
:101D400080E090E00E94560A8091391090913A10FC
:101D5000A0913B10B0913C10A1FF5EC063E070E029
:101D600080E090E00E94560A61E086E10E94370B15
:101D700063E070E080E090E00E94560A61E086E156
:101D80000E94500B63E070E080E090E00E94560AF1
:101D90000E949C1663E070E080E090E00E94560A8A
:101DA00081E00E94BF1663E070E080E090E00E9456
:101DB000560A84E00E94CD1663E070E080E090E077
:101DC0000E94560A80E00E94C81663E070E080E03E
:101DD00090E00E94560A0E94BB1663E070E080E02B
:101DE00090E00E94560A66E080E499E00E94D816CE
:101DF00063E070E080E090E00E94560A61E086E1D6
:101E00000E94370B60E086E10E94500B63E070E0B7
:101E100080E090E00E94560A63E070E080E090E08D
:101E20000E94560A8BE499E00E94BD1B6093EB066A
:101E30007093EC068093ED069093EE068091EB068E
:101E40009091EC06A091ED06B091EE060E94DA4763
:101E50000E948D050E949C05FDCF81EF96E00E94B7
:101E60006C1481EF96E00E94BE1281EF96E00E9412
:101E7000B31280910A0790E020910C07821B910910
:101E80002091090730E040910D07241B31091216FB
:101E900013060CF421CF29CF1F93CF93DF931F920A
:101EA000CDB7DEB7162F61E08AE149830E94370B78
:101EB00061E088E10E94370B4981112321F0113044
:101EC00009F048C020C041110EC061E08AE10E94C3
:101ED000500B8091391090913A10A0913B10B09125
:101EE0003C1082602FC04130A9F560E08AE10E9479
:101EF000500B8091391090913A10A0913B10B09105
:101F00003C108D7F1FC041110EC061E088E10E942E
:101F1000500B8091391090913A10A0913B10B091E4
:101F20003C1081600FC04130A9F460E088E10E945C
:101F3000500B8091391090913A10A0913B10B091C4
:101F40003C108E7F8093391090933A10A0933B10F1
:101F5000B0933C100F90DF91CF911F91089561E0F5
:101F600089E20E94370B61E088E20E94370B8CE423
:101F700099E00C94DF2E80915209882341F08091E2
:101F80002C0C811104C08FEE96E00C94AF0F0895D5
:101F90000F931F93CF93DF93EC01042F68A761E0A9
:101FA00080E30E94370B18A5112379F0113091F4CA
:101FB00061E080E30E94500B013019F482E08B8BCA
:101FC00009C0011107C01B8B05C060E080E30E94BF
:101FD000500B1B8A6AE070E080E090E0DF91CF91C7
:101FE0001F910F910C94560ACF93DF93EC010E943E
:101FF000BB0F40E060E0CE01DF91CF910C94C80FA1
:10200000FC01148A158A168A178A108E118E128E78
:10201000138E148E158E168E178E10A211A212A278
:1020200013A214A215A216A217A20895EF92FF926E
:102030000F931F93CF93DF93CDB7DEB7EC970FB617
:10204000F894DEBF0FBECDBF8C01E0E0F4E08591D7
:102050009491BC01EE24E394F12CEC0EFD1EC7011B
:102060000E940348E2E0F4E085919491BC01CE0126
:1020700089960E940348F8018689843009F466C075
:1020800040F4823029F108F04BC0813009F0B6C02D
:1020900009C0863009F486C008F46EC0873009F0A4
:1020A000ADC096C0F801818D1F928F93808D1F92D5
:1020B0008F9387891F928F93828D1F928F9385892B
:1020C0001F928F9384891F928F9384E292E015C0B0
:1020D000F801818D1F928F93808D1F928F93878936
:1020E0001F928F93828D1F928F9385891F928F935A
:1020F00084891F928F9388E292E09F938F93FF923F
:10210000EF921F9284E68F93C80189969F938F93D5
:102110000E9464480FB6F894DEBF0FBECDBF81C0E9
:10212000F801818D1F928F93808D1F928F938789E5
:102130001F928F93828D1F928F9385891F928F9309
:1021400084891F928F938CE292E0D7CFF801818D22
:102150001F928F93808D1F928F9387891F928F93E9
:10216000828D1F928F9385891F928F9384891F92EE
:102170008F9380E392E0C1CFF801818D1F928F93FE
:10218000808D1F928F9387891F928F93828D1F92CC
:102190008F9385891F928F9384891F928F9384E3F5
:1021A00092E0ABCFF801818D1F928F93808D1F92AB
:1021B0008F9387891F928F93828D1F928F9385892A
:1021C0001F928F9384891F928F9388E392E095CF1B
:1021D000F801818D1F928F93808D1F928F93878935
:1021E0001F928F93828D1F928F9385891F928F9359
:1021F00084891F928F938CE392E07FCFCE018996E2
:102200009F938F931F9284E68F93C80189969F9323
:102210008F930E9464480F900F900F900F900F9033
:102220000F90075D1F4FC801EC960FB6F894DEBF04
:102230000FBECDBFDF91CF911F910F91FF90EF9017
:102240000895CF92DF92EF92FF920F931F93CF9357
:10225000DF938C01C62E80915209811104C08CE459
:1022600099E00E94992E68E670E08CE499E00E9463
:10227000C62E60E070E08CE499E00E94F22F8CE4BE
:1022800099E00E94F42F43E150E068E670E08CE4AE
:1022900099E00E942E30E12CF12CC0E0D0E0D12C4E
:1022A000E4C08CE499E00E94CE2EF801EC0FFD1FF3
:1022B0008083C630D10509F467C098F4C230D105D7
:1022C00009F43EC038F4209729F1C130D10509F056
:1022D000C7C02BC0C430D10509F440C008F049C0C4
:1022E0003AC0CA30D10509F484C048F4282F30E040
:1022F000C830D10509F461C008F06DC050C0CC30C1
:10230000D10509F492C008F482C0CD30D10509F09E
:10231000A7C099C0982F92959F708F702AE0929FC6
:10232000800D1124F801818F9BC0982F92959F708A
:102330008F70FAE09F9F800D1124F801808F90C06C
:10234000982F92959F708F70FAE09F9F800D1124B7
:10235000F801878B85C0F801868B82C0982F9295F3
:102360009F708F70FAE09F9F800D1124F801828F7B
:1023700077C0982F92959F708F70FAE09F9F800D85
:102380001124F801858B6CC0982F92959F708F70E7
:10239000FAE09F9F800D1124F801848B61C054E006
:1023A000359527955A95E1F727708F70FAE02F9FA2
:1023B000800D1124F801838F53C044E03595279593
:1023C0004A95E1F727708F70FAE02F9F800D112456
:1023D000F801848F45C094E0359527959A95E1F7EB
:1023E00023708F70FAE02F9F800D1124F801858FE4
:1023F00037C0282F2695269526952670922F990F5F
:10240000990F920F8F70980FF801968F29C0282F7F
:102410002695269526952E70922F990F990F920F3B
:102420008F70980FF801978F1BC0282F269526953F
:1024300026952670922F990F990F920F8F70980FF3
:10244000F80190A30DC0282F269526952695267075
:10245000922F990F990F920F8F70980FF80191A3F7
:10246000219603C0FFEFEF1AFF0ACC16DD0658F0E5
:102470002AE0E216F10438F48CE499E00E94C82EB8
:10248000882381F30ECFDF91CF911F910F91FF90A1
:10249000EF90DF90CF9008951F93CF93DF93EC01DF
:1024A000162F80915209811104C08CE499E00E949A
:1024B000992E68E670E08CE499E00E94C62E612FA8
:1024C0008CE499E00E94C62FC10FD11D68818CE475
:1024D00099E00E94C62F8CE499E0DF91CF911F9183
:1024E0000C94F42FFF920F931F93CF93DF938C01E3
:1024F000F62E80915209811104C08CE499E00E946B
:10250000992E68E670E08CE499E00E94C62E6F2D4B
:102510008CE499E00E94C62F8CE499E00E94F42F8D
:1025200041E050E068E670E08CE499E00E942E30D3
:10253000CBE0D0E08CE499E00E94C82E811102C06B
:102540002197C1F78CE499E00E94CE2EF801EF0D9F
:10255000F11D80838CE499E0DF91CF911F910F9161
:10256000FF900C94F42FCF93DF93EC0166E00E9470
:102570002111CE01DF91CF910C941610CF92DF92F2
:10258000EF92FF920F931F93CF93DF93CDB7DEB7F8
:10259000C857D1090FB6F894DEBF0FBECDBF7C017E
:1025A0006AE00E9421118701075D1F4F84E6F80150
:1025B00011928A95E9F7EEEDF3E085919491BC01D3
:1025C000CE018F5A9F4F0E940348BE016F5A7F4F22
:1025D000C8010E942748F70182A1823009F46AC02D
:1025E00030F4882369F0813009F00BC122C08430B7
:1025F00009F4C7C008F493C0853009F002C1F0C0E7
:10260000E0EEF3E085919491BC01CE018F5A9F4F8B
:102610000E940348BE016F5A7F4FC8010E9427489D
:10262000EEEEF3E0859194916E01F9E2CF0ED11CAC
:1026300018C0E2EEF3E085919491BC01CE018F5A6F
:102640009F4F0E940348BE016F5A7F4FC8010E94EE
:102650002748EEEEF3E0859194916E01E9E2CE0E0B
:10266000D11CBC01C6010E940348F701838D1F9253
:102670008F93848D1F928F93858D1F928F93868D5C
:102680001F928F93DF92CF921F9288E28F93EE2456
:10269000E394F12CEC0EFD1EFF92EF920E94644831
:1026A000B701C8010E9427480FB6F894DEBF0FBEDD
:1026B000CDBFC2C0E4EEF3E085919491BC01CE01A0
:1026C0008F5A9F4F0E940348BE016F5A7F4FC80127
:1026D0000E942748E0EFF3E0859194916E01E9E2D2
:1026E000CE0ED11CBC01C6010E940348F701838DA8
:1026F0001F928F93848D1F928F93858D1F928F933E
:10270000DF92CF921F9288E28F93EE24E394F12C14
:10271000EC0EFD1EFF92EF920E946448C1CFE6EEE0
:10272000F3E085919491BC01CE018F5A9F4F0E9496
:102730000348BE016F5A7F4FC8010E942748E2EF4D
:10274000F3E0859194916E01E9E2CE0ED11CBC01BB
:10275000C6010E940348F701838D1F928F93848DD9
:102760001F928F93DF92CF921F9288E28F93EE2475
:10277000E394F12CEC0EFD1EFF92EF920E94644850
:102780008FCFE8EEF3E085919491BC01CE018F5A92
:102790009F4F0E940348BE016F5A7F4FC8010E949D
:1027A0002748E4EFF3E0859194916E01E9E2CE0EC3
:1027B000D11CBC01C6010E940348F701838D1F9202
:1027C0008F93DF92CF921F9288E28F93EE24E3944F
:1027D000F12CEC0EFD1EFF92EF920E94644860CF38
:1027E000EAEEF3E085919491BC01CE018F5A9F4FA0
:1027F0000E940348BE016F5A7F4FC8010E942748BC
:102800001BC0ECEEF3E0859194917E01E1E5EE0EC4
:10281000F11CBC01C7010E940348FF92EF921F9276
:1028200084E68F931F930F930E9464480F900F903C
:102830000F900F900F900F90C801C858DF4F0FB640
:10284000F894DEBF0FBECDBFDF91CF911F910F91E6
:10285000FF90EF90DF90CF900895CF93DF93EC013E
:102860006EE00E9472128E858E7F8E876EE0CE01A2
:10287000DF91CF910C944C12CF93DF93EC016EE07B
:102880000E9472128E858D7F8E876EE0CE01DF9161
:10289000CF910C944C12CF93DF93EC016FE00E9428
:1028A00072128F858370DF91CF910895CF93DF935C
:1028B000EC010E944B14882319F0CE56DF4F888319
:1028C000809100078C7F809300076FE081EF96E096
:1028D000DF91CF910C944C12CF93DF93EC0140E049
:1028E00061E00E94C80FCE010E945614CE010E94E2
:1028F00000106DE0CE010E94211161E08BE20E9488
:10290000370B60E08BE2DF91CF910C94500B10926B
:1029100082071092040708952091060740E2249F41
:102920009001112440910B07242B4091050750E0A2
:102930004C5E5F4F542F4427550F242B352BFC0141
:102940003183208380910907F0E28F9FC001112419
:1029500040910807342F330F330F330F20E0822BC1
:10296000932B20910A0730E035952795822B932BE6
:10297000FB01918380830895FC01128A118E138ECE
:10298000DC01A356BE4F89E111968C9311971496E2
:102990001C92DF01AE55BE4F1C9212961C92E95656
:1029A000FE4F1182108208958CE10E94960B21E067
:1029B000892B09F420E0822F08954F925F926F9245
:1029C0007F928F929F92AF92BF92CF92DF92EF92BF
:1029D000FF920F931F93CF93DF93CDB7DEB7C15410
:1029E000D1090FB6F894DEBF0FBECDBF5C014A011E
:1029F0002901FB01EE55FE4F8AE1DE015B96019055
:102A00000D928A95E1F719821B828A01EE24E394E4
:102A1000F12CEC0EFD1E6E018BE1C80ED11C35C0F1
:102A2000F80120812F3219F40F5F1F4F2EC0801B39
:102A30008D3008F08CE0682E712CA301B801CE0116
:102A4000C5960E944D48E5E3F0E0EC0FFD1FE60D52
:102A5000F71D1082C7010E94903A21E0AE014B5C45
:102A60005F4FB601C7010E94C73C811104C0F50148
:102A7000108212821DC0060D171DC6010E94903AD9
:102A80009C2D8D2D6701E92EF82E6FE270E0C801B4
:102A90000E943248009721F608191909F2011183A2
:102AA00000838AE1F601D50101900D928A95E1F744
:102AB000C501CF5BDF4F0FB6F894DEBF0FBECDBFB1
:102AC000DF91CF911F910F91FF90EF90DF90CF900A
:102AD000BF90AF909F908F907F906F905F904F903E
:102AE0000895BF92CF92DF92EF92FF920F931F93C0
:102AF000CF93DF93CDB7DEB76C970FB6F894DEBFF8
:102B00000FBECDBF7C016B018A01B22E9E01255EF6
:102B10003F4FAB01BC01CE0101960E94DD144B8DED
:102B20005C8D4C0D5D1DFA018081811102C080E039
:102B30001CC08B818823D9F38250823040F4B701C6
:102B4000675E7F4F2B2DC8010E94C73C0EC02B2D06
:102B5000BE016F5F7F4FC8010E94C73C882339F3D5
:102B6000CE0101960E94903A81E06C960FB6F894DF
:102B7000DEBF0FBECDBFDF91CF911F910F91FF90B0
:102B8000EF90DF90CF90BF900895CF93DF93CDB7B4
:102B9000DEB76A970FB6F894DEBF0FBECDBF1982BD
:102BA0001B8221E0AE014F5F5F4F0E9471158823A9
:102BB00079F08B81813031F0CE0101960E94903AFC
:102BC00080E007C0CE0101960E94903A81E001C0EA
:102BD0008FEF6A960FB6F894DEBF0FBECDBFDF91C0
:102BE000CF9108958F929F92AF92BF92CF92DF9232
:102BF000EF92FF92C0903910D0903A10E0903B10C5
:102C0000F0903C1081E0C822DD24EE24FF24809067
:102C1000391090903A10A0903B10B0903C1040E0DA
:102C200061E08FEE96E00E944C0F40E060E08FEE96
:102C300096E00E944C0F81EF96E00E946C1481EFA9
:102C400096E00E94B31281FC06C041E060E08FEE86
:102C500096E00E944C0FCD28CE28CF2831F441E0D9
:102C600061E08FEE96E00E944C0F8CE894E1909327
:102C70001B0A80931A0AFF90EF90DF90CF90BF90CD
:102C8000AF909F908F900895EF92FF920F931F93B4
:102C9000CF93DF93CDB7DEB76C970FB6F894DEBF56
:102CA0000FBECDBF7C0119821B826B8F7C8F0E946F
:102CB000F215C7010E94D414870109561E4F6B8D6F
:102CC0007C8D81110CC081E490E0F80191838083B8
:102CD0006BE572E0C701C3960E94464815C0F80133
:102CE000808191818F7B9183808323ECAE014F5F44
:102CF0005F4FC7010E947115811108C0F8018081E2
:102D0000918180649183808380E005C0CE0101962B
:102D10000E94903A81E06C960FB6F894DEBF0FBE29
:102D2000CDBFDF91CF911F910F91FF90EF9008954C
:102D300084E897E00C94BC1461E08EE10E94370BAC
:102D400061E08FE10E94370B61E08DE10E94370B5B
:102D500060E08EE10E94500B60E08FE10E94500B1A
:102D600061E08DE10E94500B8CB580618CBD8CB50B
:102D700080648CBD08958CB58F7B8CBD08958111C6
:102D800003C08CB5806202C08CB58F7D8CBD089568
:102D90009CB5937F982B9CBD08952CB5982F93706C
:102DA0002C7F922B9CBD9DB580FB90F99DBD089515
:102DB000CF93C62F61E08DE10E94370B61E082E284
:102DC0000E94370B61E08DE10E94500B61E082E2CE
:102DD0000E94500B8091391090913A10A0913B10B5
:102DE000B0913C10A2FF08C061E088E00E94370B60
:102DF00061E088E00E94500B8091391090913A1068
:102E0000A0913B10B0913C1096FF08C061E089E0B2
:102E10000E94370B61E089E00E94500B80913910CD
:102E200090913A10A0913B10B0913C10A3FF08C0C4
:102E300061E082E00E94370B61E082E00E94500B6B
:102E40008091391090913A10A0913B10B0913C10B4
:102E5000A4FF08C061E082E20E94370B61E082E2D9
:102E60000E94500BC330C9F020F4C13061F070F4FF
:102E700007C0C53061F1F0F0C63009F067C033C05B
:102E800060E08DE160C060E082E25DC08BE499E0CB
:102E90000E947F1A60E08CE256C0809139109091B8
:102EA0003A10A0913B10B0913C10A2FF4FC060E0DF
:102EB00088E049C08091391090913A10A0913B1060
:102EC000B0913C1096FF42C060E089E03CC0809128
:102ED000391090913A10A0913B10B0913C10A3FF93
:102EE00035C060E02FC061E08DE10E94500B61E0D1
:102EF00082E20E94500B8091391090913A10A0917B
:102F00003B10B0913C10A2FF04C061E088E00E9439
:102F1000500B8091391090913A10A0913B10B091D4
:102F20003C1096FF04C061E089E00E94500B809144
:102F3000391090913A10A0913B10B0913C10A3FF32
:102F400005C061E082E0CF910C94500BCF910895C1
:102F50008091391090913A10A0913B10B0913C10A3
:102F6000A2FF0EC08091391090913A10A0913B10B1
:102F7000B0913C1081FF04C0809142098823C1F1C7
:102F80008091391090913A10A0913B10B0913C1073
:102F9000A1FF0CC080914009811108C061E086E169
:102FA0000E94370B61E086E10E94500B809141093D
:102FB000811108C061E08BE10E94370B61E08BE179
:102FC0000E94500B8091391090913A10A0913B10C3
:102FD000B0913C10A4FF11C08091450981110DC032
:102FE00061E086E10E94370B61E086E10C94500BB2
:102FF00061E082E00E94500BC3CF089580913910A8
:1030000090913A10A0913B10B0913C10A2FF0EC0DD
:103010008091391090913A10A0913B10B0913C10E2
:1030200081FF04C0809142098823C1F18091391049
:1030300090913A10A0913B10B0913C10A1FF0CC0B0
:1030400080914009811108C061E086E10E94370B40
:1030500060E086E10E94500B80914109811108C017
:1030600061E08BE10E94370B60E08BE10E94500B26
:103070008091391090913A10A0913B10B0913C1082
:10308000A4FF11C08091450981110DC061E086E166
:103090000E94370B60E086E10C94500B60E082E008
:1030A0000E94500BC3CF0895CF93C82F80E499E0BE
:1030B0000E94A817CEBD0DB407FEFDCF80E499E0B5
:1030C0000E94FE178EB5CF9108950F931F93CF9353
:1030D000DF938A01EB01060F171F03C089910E943D
:1030E0005418C017D107D1F7DF91CF911F910F91DD
:1030F00008950F931F93CF93DF93EB014115510573
:1031000019F18A010150110980E499E00E94A81781
:103110008FEF8EBDFE012FEF06C00DB407FEFDCF71
:103120008EB52EBD8193CF018C1B9D0B801791070F
:10313000A0F30DB407FEFDCF8EB5C00FD11F88835D
:1031400080E499E00E94FE1780E0DF91CF911F910B
:103150000F91089580E499E00E94A8178FEF8EBD2B
:103160000DB407FEFDCF80E499E00E94FE178EB5F6
:10317000089510924109109240091092420910924C
:10318000430910924409109245090895FC014081B9
:1031900060E072EC81E090E00E94DC0B61E087E18E
:1031A0000E94370B61E087E10E94500B61E08BE0E9
:1031B0000E94370B60E08BE00E94500B61E08DE2D3
:1031C0000E94370B60E08DE20C94500BDC01809183
:1031D000C50011968C9311978091C40012968C9320
:1031E0001297E2ECF0E0808113968C931397809114
:1031F000CA0014968C93149780818F7D8083808180
:103200008F7E80838081877F80834C9160E072EC29
:1032100081E090E00E94DC0B61E087E10E94500BAE
:1032200060E08BE00C94500BCF93DF93EC01409166
:10323000391050913A1060913B1070913C1063E04E
:1032400070E080E090E042FF07C00E94560A61E013
:103250008BE00E94500B02C00E94560A8981809325
:10326000C5008A818093C4008B818093C2008C81C9
:103270008093CA00DF91CF910895EF92FF920F9350
:103280001F93CF93DF938C01EB010E94E6187E0120
:1032900088E1E81A8CEFF80AFE01219684918823D0
:1032A00039F0F80160810E943F0DCE15DF05A1F7CE
:1032B000C8010E94141960E070E0CB01DF91CF914A
:1032C0001F910F91FF90EF900895AF92BF92DF9200
:1032D000EF92FF920F931F93CF93DF93EC01142F84
:1032E000D52E7B0159010E94E618A114B10429F4DE
:1032F0006881812F0E943F0D16C08AE0A816B10494
:1033000039F44881612F7D2DC7010E940C0E0BC03E
:103310009501442737FD4095542F0881612F7D2D5D
:10332000C7010E945C0D88810E94410DCE01DF9192
:10333000CF911F910F91FF90EF90DF90BF90AF90D2
:103340000C9414190F931F93CF93DF93EC018B010F
:103350000E94E61817FF07C068818DE20E943F0DAA
:10336000119501951109B801882777FD8095982F4F
:1033700008812AE030E040E050E00E945C0D888146
:103380000E94410DCE01DF91CF911F910F910C94BE
:1033900014190F931F93CF93DF93EC018B010E94BD
:1033A000E618B80180E090E008812AE030E040E0D3
:1033B00050E00E945C0D88810E94410DCE01DF919A
:1033C000CF911F910F910C9414190F931F93CF93CA
:1033D000DF93EC018B010E94E6186881C8010E940E
:1033E0004C0D88810E94410DCE01DF91CF911F913C
:1033F0000F910C941419CF93DF93EC010E94E618FF
:1034000088810E94410DCE01DF91CF910C94141957
:10341000EF92FF920F931F93CF93DF9300D0CDB71E
:10342000DEB77C010E943D198C01C70169837A8354
:103430000E94FB1969817A81C8010F900F90DF917A
:10344000CF911F910F91FF90EF9008951F93CF930D
:10345000DF93EC01162F0E94E61860E0812F0E9496
:10346000E70DCE01DF91CF911F910C9414191092AA
:10347000460908951F93CF93DF931F92CDB7DEB710
:10348000162F61E0812F49830E94370B498141301B
:1034900011F461E003C0411108C060E0812F0F907A
:1034A000DF91CF911F910C94500B0F90DF91CF9132
:1034B0001F9108951F93CF93DF931F92CDB7DEB76F
:1034C000162F61E087E149830E94370B61E084E2B7
:1034D0000E94370B61E085E20E94370B61E087E1D3
:1034E0000E94500B612F84E20E94500B4981642F8F
:1034F00085E20F90DF91CF911F910C94500B61E00A
:1035000087E10E94370B61E084E20E94370B61E0A3
:1035100085E20E94370B61E087E10E94500B61E079
:1035200084E20E94500B61E085E20C94500B61E054
:1035300087E10E94370B61E084E20E94370B61E073
:1035400085E20E94370B61E087E10E94500B61E049
:1035500084E20E94500B60E085E20C94500B61E025
:1035600087E10E94370B61E08BE00E94370B61E03E
:1035700087E10E94500B61E08BE00C94500BCB0173
:103580000C94A64A8F929F92AF92BF92CF92DF92F5
:10359000EF92FF920F931F93CF93DF93CDB7DEB7D8
:1035A000C75FD1090FB6F894DEBF0FBECDBF8E0145
:1035B00000511F4F580128E0A20EB11C7E0181E886
:1035C000E80EF11CCC24C394D12CCC0EDD1E6DE092
:1035D000CE018F519F4F0E94C14140E06CE08BE4CF
:1035E00099E00E943A1A40E06DE08BE499E00E9475
:1035F0003A1AF801108211821282138261E08CE083
:103600000E94370B61E08CE00E94500BCE018F517D
:103610009F4F0E94A14041E06DE08BE499E00E9441
:103620003A1A6AE070E080E090E00E94560A40E0BA
:1036300063E3CE018F519F4F0E94724162E370E0BD
:1036400080E090E00E94560A4701CE018F519F4FC3
:103650000E944741F2E08F1A9108F40180831182A1
:1036600061E070E080E090E00E94560A8C149D04B6
:1036700061F7FE017196D701C60180599F4F2191D4
:1036800031912D933D93E817F907C9F731EE832E59
:10369000912C8C0E9D1E81E090E0A0E0B0E0F40142
:1036A000329122914F012130310569F4F8014081B6
:1036B000518162817381480F591F6A1F7B1F4083AC
:1036C000518362837383880F991FAA1FBB1F8E14B7
:1036D0009F0429F7F80180819181A281B3818F3FF6
:1036E0009F4FAF4FBF4F29F4F80110821182128211
:1036F000138260E08CE00E94500B40E06CE08BE4B1
:1037000099E00E943A1A40E06DE08BE499E00E9453
:103710003A1A0C5F1F4F0A151B0509F058CFC0510C
:10372000DF4F088119812A813B81C05FD040CC5096
:10373000DF4F88819981AA81BB81C45FD04008177F
:1037400019072A073B0719F000E010E09801B801BB
:10375000C901C950DF4F0FB6F894DEBF0FBECDBF11
:10376000DF91CF911F910F91FF90EF90DF90CF905D
:10377000BF90AF909F908F900895CF92DF92EF927D
:10378000FF920E94C21A6B017C01611571058105CF
:10379000910591F483EE90E00E94AE4A6A302AE0EF
:1037A00072078207920741F06F3F2FEF720782077F
:1037B000920711F06B017C01B601C701FF90EF90F9
:1037C000DF90CF9008956153663130F4A62FB0E0BA
:1037D000AA53BD4F8C9101C080E04053473160F443
:1037E000E42FF0E0E452FD4F9081943629F020E17F
:1037F000829F900D1124892F08958FED90E00E94F3
:10380000A64A8F3F09F480E00895E62FCA01B90166
:103810004E2F0E94DC0B61E086E10E94370B61E0D5
:1038200087E10E94370B61E08BE00E94370B61E07B
:1038300087E10E94500B61E08BE00C94500B6130EB
:1038400019F0633071F514C0FC01E258FC4F80811F
:10385000811102C061E013C0813019F58BE499E059
:103860000E947F1A61E086E00E94370B61E016C07B
:10387000FC01E258FC4F8081811103C060E086E1C9
:103880000EC0813071F440E060E08BE499E00E946A
:103890005A1A61E086E00E94370B60E086E00C94E3
:1038A000500B0895CF93DF939C01DB010D90002016
:1038B000E9F71197A61BA695FC01ED54FC4F83E098
:1038C00090E09183808380E0B0E00BC0E901C40FF9
:1038D000D51FCA54DC4F9881890F4F5F5F4F5183CA
:1038E0004083408151814A175B0780F38095A20F86
:1038F000B31FAB54BC4F8C93DF91CF910895CF93FE
:10390000DF9380E090E0FB01E85CFE4F420F511D29
:1039100009C0DA01A80FB91FEB01C80FD91F2C8508
:103920002C930196208131818217930790F3DF91C8
:10393000CF9108956F927F929F92AF92BF92CF9254
:10394000DF92EF92FF920F931F93CF93DF93FA01D1
:103950003901319681E090E010E0685C7E4F30E202
:10396000B32E4DE7A42E43C02081213149F02331ED
:1039700039F02E3729F02D3719F00196319637C0DE
:103980002B252083D3012C912F5F2C939080A08234
:103990009C012E5F3F4FEF01229617C09880D8827E
:1039A0007901BFEFEB1AFB0A2E5F3F4F2296D3013E
:1039B0004C916801C40ED11CA601DB01CD90DC90B6
:1039C0004C0D5D1DE416F506C0F6DE01DE909C92FE
:1039D000D3014C91D801A40FB11DAD01DB01ED90D5
:1039E000FC904E0D5F1D24173507C0F2C6CFD301E2
:1039F0002C916801C20ED11C9601DB014D915C91A6
:103A0000240F351F8217930708F4AECFDF91CF91B3
:103A10001F910F91FF90EF90DF90CF90BF90AF90EC
:103A20009F907F906F900895AF92BF92CF92DF9258
:103A3000EF92FF920F931F93CF93DF93E0E0F0E0BC
:103A4000A3E1CA2EBEE7BB2EC1E1AC2EEB01C20F33
:103A5000D31F3BC0FC01E20FF31FE60FF71F7C01F1
:103A6000E20EF31EDF013196DC901DE7D11621F046
:103A70008417950779F52AC08417950738F58C01C6
:103A80000F5F1F4FFB01EE0DFF1DE181E33359F086
:103A900018F4E13369F405C0ED3549F0EE3541F431
:103AA00004C0AC9205C0CC9203C0BC9201C0DC92B1
:103AB0004150510905C0FE01E80FF91FA181A08303
:103AC0000196F80184179507B0F3CF018417950785
:103AD00008F202C00196C3CFDF91CF911F910F91E1
:103AE000FF90EF90DF90CF90BF90AF900895EF924E
:103AF000FF920F931F93CF93DF931F92CDB7DEB743
:103B00007C01FC01E05EFE4FE081E1500E2F10E0F1
:103B100088E2E89FF001112497012E0F3F1FA901B1
:103B2000485A5F4FC7018F579C4FDC018C91DA01D7
:103B30008C93A901475A5F4FC7018E579C4FDC01F8
:103B40008C91DA018C93A901465A5F4FC7018D57BA
:103B50009C4FDC018C91DA018C93A901455A5F4F8F
:103B6000C7018C579C4FDC018C91DA018C93A90121
:103B7000445A5F4FC7018B579C4FDC018C91DA018F
:103B80008C93A901435A5F4FC7018A579C4FDC01B0
:103B90008C91DA018C93A901425A5F4FC701895772
:103BA0009C4FDC018C91DA018C93A901415A5F4F43
:103BB000C70188579C4FDC018C91DA018C93A901D5
:103BC000405A5F4FC70187579C4FDC018C91DA0147
:103BD0008C93A9014F595F4FC70186579C4FDC0159
:103BE0008C91DA018C93EE59FF4FEE0DFF1D85E1AC
:103BF000DF011D928A95E9F7D701A358BC4F8C913C
:103C0000813019F521583F4FD701A557BC4F8C91F2
:103C1000D9018C93D701A158BC4F4D915C914D3087
:103C2000510508F479C04C50453108F044E1B70122
:103C300064577C4F50E0CF010F90DF91CF911F91DF
:103C40000F91FF90EF900C9417488250843008F049
:103C500063C0D701A158BC4F4D915C9144315105CF
:103C600008F45AC0242F2351253108F024E1C7015C
:103C700085579C4F422F50E0BC01CF0129830E9401
:103C8000174838E2309FC001319F900D11248E0DEE
:103C90009F1DFC01E958FF4F2981E20EF11CD7015D
:103CA000A457BC4F2C912083FC01E858FF4FD7014B
:103CB000A357BC4F2C912083FC01E758FF4FD7013D
:103CC000A257BC4F2C912083FC01E658FF4FD7012F
:103CD000A157BC4F2C912083FC01E558FF4FD70121
:103CE000A057BC4F2C912083FC01E458FF4FD70113
:103CF000AF56BC4F2C912083FC01E358FF4FD701F6
:103D0000AE56BC4F2C912083FC01E258FF4FD701E7
:103D1000AD56BC4F2C9120830F90DF91CF911F9116
:103D20000F91FF90EF900895CF93DF93DC01AD5496
:103D3000BC4F2D5F3F4F11963C932E9320E030E017
:103D40000AC0EB01CE0FDF1F8881280F311D31968D
:103D50001196FC93EE93ED91FC911197E417F50702
:103D600080F32F3F310519F081E02F3F09F480E007
:103D7000DF91CF910895EF92FF920F931F93CF930E
:103D8000DF93EC017B0189010E94941E811109C01F
:103D9000F701E00FF11F8481C952DE4F888380E074
:103DA00001C081E0DF91CF911F910F91FF90EF90C3
:103DB0000895AF92BF92CF92DF92EF92FF920F934E
:103DC0001F93CF93DF93EC016B017A0159019801A6
:103DD000A5010E94941E811164C0F601E00FF11F3D
:103DE0009581D70115968C91159798135AC0968195
:103DF00016968C91981355C0A01AB10AB9E0AB166B
:103E0000B10429F481E0978191114EC04CC0978193
:103E1000992351F0FE01E358FC4F80818350833099
:103E200008F03FC09034E9F5DE01AD54BC4F119667
:103E30001C921E92E9E0AE1AB10810C0F601E80F1C
:103E4000F91FE00FF11F2085FE01E80FF91FEF5762
:103E5000FC4F2083019611969C938E938D919C919B
:103E600011978A159B0550F3FE01E158FC4FB18272
:103E7000A082D70115968C9115978E34A1F41696D1
:103E80008C91843481F4B2E0AB16B10430F0FE01C1
:103E9000E05EFE4F80818F5F8083CE010E94771DA0
:103EA00002C081E001C080E0DF91CF911F910F91AE
:103EB000FF90EF90DF90CF90BF90AF900895FB01FF
:103EC000918180E02281820F911D339620E030E0C5
:103ED00040E004C05191450F2F5F3F4F281739072D
:103EE000C9F7842F809508958A549C4FFC018EE178
:103EF000DF011D928A95E9F708958F929F92BF92F4
:103F0000CF92DF92EF92FF920F931F93CF93DF93A5
:103F10001F92CDB7DEB74C016B018A010E94741F5E
:103F2000D6010D900020E9F711972A2F2C1926951C
:103F30008FEFC81AD80AB82C740115C0F601319752
:103F4000D6014C9160818BE499E029830E94E31BA8
:103F5000F701EA54FC4F8083B2E0CB0ED11CEFEFA7
:103F6000EE1AFE0A29818E2D8B19821738F328311B
:103F700079F4F80180E090E02191D401A80FB91FF5
:103F8000A354BC4F2C93019680319105A9F738C0FA
:103F9000203179F4F80180E090E02191D401A80F5C
:103FA000B91FA354BC4F2C93019688309105A9F7F3
:103FB00027C0D8018C912B3089F4F401E354FC4FD5
:103FC000808311968C911197F401E254FC4F808309
:103FD00012968C91F401E154FC4F11C02A3051F437
:103FE000F401E354FC4F8083F8018181F401E25431
:103FF000FC4F05C0820E911CF401EC54FC4F8083F1
:104000000F90DF91CF911F910F91FF90EF90DF9074
:10401000CF90BF909F908F900895DF92EF92FF9284
:104020000F931F93CF93DF93F82ED92E8B010E940D
:10403000741FD8010D900020E9F71197EA2EE01ABD
:10404000E6940F5F1F4FCF2DDD2D10C0F801319783
:10405000D8014C9160818BE499E00E94E31BFE0142
:10406000EA54FC4F80830E5F1F4F21968C2F8F19CF
:104070008E1560F3DF91CF911F910F91FF90EF901C
:10408000DF900895BF92CF92DF92EF92FF920F934D
:104090001F93CF93DF938C017B01D42E0E94741F5A
:1040A000D7010D900020E9F71197CA2ECE18C694BB
:1040B0008FEFE81AF80AB02EC02FD12F11C0F701E8
:1040C0003197D7014C9160818BE499E00E94E31B0A
:1040D000FE01EA54FC4F8083B2E0EB0EF11C219606
:1040E0008C2F8B198C1558F30C0D111DF801EC5405
:1040F000FC4FD082DF91CF911F910F91FF90EF90F5
:10410000DF90CF90BF900895DC01AD54BC4F119665
:104110001C921E920FC0F901B696EE0FFF1FE80F1A
:10412000F91F40815181452B59F02F5F3F4F119668
:104130003C932E932D913C9111972530310558F3E6
:10414000822F08950F931F93CF93DF938C01EC017F
:10415000CD54DC4F1982188216C0B696EE0FFF1FA1
:10416000E00FF11F808191810E94E746888199814B
:10417000FC01B696EE0FFF1FE00FF11F11821082B7
:10418000019699838883E881F981E530F10528F368
:10419000DF91CF911F910F910895AF92BF92CF926F
:1041A000DF92EF92FF920F931F93CF93DF937C01E7
:1041B000E0E0F0E010E05F01812F8E1BEF01A6969A
:1041C000CC0FDD1FCE0DDF1D27C065012FEFC21AFA
:1041D000D20A68817981625B7E4F9601220F331F7C
:1041E0002E0D3F1D245B3F4FD9014D915C91425BE9
:1041F0005E4FDB010D911D912D913C91DA014D91A6
:104200005D916D917C9104171507260737071CF007
:10421000943069F408C05601982F9A0DB4E0AB169B
:10422000B10498F2F5CF1E2FE5E0F0E002C01E2F9A
:104230001F5F3196E530F10508F4BDCFF701ED546D
:10424000FC4FB182A082C12FD0E0A696CC0FDD1F1B
:10425000CE0DDF1D888199810E94E7461982188260
:10426000812FDF91CF911F910F91FF90EF90DF9001
:10427000CF90BF90AF900895AF92BF92CF92DF9250
:10428000EF92FF920F931F93CF93DF937C01E0E0B7
:10429000F0E010E05F01812F8E1BEF01A696CC0F9E
:1042A000DD1FCE0DDF1D27C065012FEFC21AD20A18
:1042B00068817981625B7E4F9601220F331F2E0D3C
:1042C0003F1D245B3F4FD9014D915C91425B5E4F96
:1042D000DB010D911D912D913C91DA014D915D9184
:1042E0006D917C9140175107620773071CF0943061
:1042F00069F408C05601982F9A0DB4E0AB16B104CA
:1043000098F2F5CF1E2FE5E0F0E002C01E2F1F5FF0
:104310003196E530F10508F4BDCFF701ED54FC4FBF
:10432000B182A082C12FD0E0A696CC0FDD1FCE0DAA
:10433000DF1D888199810E94E74619821882812FAA
:10434000DF91CF911F910F91FF90EF90DF90CF9071
:10435000BF90AF9008958F929F92AF92BF92CF92ED
:10436000DF92EF92FF920F931F93CF93DF931F92F1
:10437000CDB7DEB76C018B017C0187E5E80EF11C3F
:10438000D7018C918F5F8C93C6010E948420F70126
:1043900020812630B8F0F601E852FE4F908191302E
:1043A00021F038F0923071F408C0C6010E94CD208F
:1043B00009C0C6010E943C2105C02150D7012C93A1
:1043C00082E0E6C2E82EF12C67E571E081E090E042
:1043D0000E942E465C014701B6E28B0E911C880CB0
:1043E000991C8C0C9D1CF401B182A082A114B10413
:1043F00009F4CBC2F601EB54FC4F2081213009F4C3
:104400007EC038F0223009F427C1233009F0BFC242
:10441000D5C1F501E35BFE4F1082D401AD90BC9095
:104420000E94040AF501E25BFE4F60837183828380
:104430009383D401ED91FC91D8018C91E65BFE4F02
:104440008083D401ED91FC91D80111968C91E55BAC
:10445000FE4F8083D401ED91FC91D80112968C918E
:10446000E45BFE4F8083D401ED91FC91D80113965B
:104470008C91EF5BFE4F8083D401ED91FC91DF01C5
:10448000AF5BBE4F8C918150823018F481E0808701
:1044900001C01086F601E158FC4F8081918104979C
:1044A00020F484E090E091838083B6E2EB0EF11C6F
:1044B000EE0CFF1CEC0CFD1CD7018D919C91DC01D6
:1044C000A85CBE4F8081918104978D939C93F801E5
:1044D000349680E090E007C04191D901A80FB91F40
:1044E0001C964C930196D7012D913C91D901A85C63
:1044F000BE4F4D915C918417950770F348C2F5014A
:10450000E35BFE4F2083F401A080B18029830E94E9
:10451000040AF501E25BFE4F60837183828393831B
:10452000D401ED91FC91D8018C91EA5BFE4F808320
:10453000D401ED91FC91D80111968C91E95BFE4F6D
:104540008083D401ED91FC91D80112968C91E85BA7
:10455000FE4F8083D401ED91FC91D80113968C918C
:10456000E75BFE4F8083D401ED91FC91D801149656
:104570008C91EE5BFE4F8083D401ED91FC91D801CC
:1045800015968C91ED5BFE4F8083D401ED91FC91EB
:10459000D80116968C91EC5BFE4F8083D401ED918F
:1045A000FC91D80117968C91EB5BFE4F8083D40170
:1045B000ED91FC91D80118968C91E45BFE4F8083BD
:1045C000D401ED91FC91D80119968C91EF5BFE4FCF
:1045D0008083D401ED91FC91DF01AF5BBE4F8C91E4
:1045E00081502981823010F4208701C01086F601A5
:1045F000E158FC4F808191810A9720F48AE090E095
:1046000091838083B6E2EB0EF11CEE0CFF1CEC0CE8
:10461000FD1CD7018D919C91DC01A85CBE4F80816F
:1046200091810A978D939C93F8013A9680E090E0EF
:1046300007C04191D901A80FB91F1C964C93019650
:10464000D7012D913C91D901A85CBE4F4D915C9151
:104650008417950770F39BC10E94040AF501E25B81
:10466000FE4F6083718382839383D401ED91FC912B
:10467000D8018C91EA5BFE4F8083D401ED91FC91CF
:10468000D80111968C91E95BFE4F8083D401ED91A6
:10469000FC91D80112968C91E85BFE4F8083D40187
:1046A000ED91FC91D80113968C91E75BFE4F8083CE
:1046B000D401ED91FC91D80114968C91EE5BFE4FE4
:1046C0008083D401ED91FC91D80115968C91ED5B1E
:1046D000FE4F8083D401ED91FC91D80116968C9108
:1046E000EC5BFE4F8083D401ED91FC91D8011796CD
:1046F0008C91EB5BFE4F8083D401ED91FC91D8014E
:1047000018968C91E65BFE4F8083D401ED91FC916D
:10471000D80119968C91E55BFE4F8083D401ED9111
:10472000FC91D8011A968C91EF5BFE4F8083D401E7
:10473000ED91FC91DF01AF5BBE4F8C918F708230A9
:1047400019F481E0808701C01086F601E158FC4F22
:10475000808191810B9720F48BE090E0918380839E
:10476000B6E2EB0EF11CEE0CFF1CEC0CFD1CD701AD
:104770008D919C91DC01A85CBE4F808191810B974B
:104780008D939C93F8013B9680E090E007C04191A7
:10479000D901A80FB91F1C964C930196D7012D91F2
:1047A0003C91D901A85CBE4F4D915C91841795074F
:1047B00070F3F901E45BFE4F1082E9C00E94040A25
:1047C000F501E25BFE4F6083718382839383D401A2
:1047D000ED91FC91D8018C91EA5BFE4F8083D4016E
:1047E000ED91FC91D80111968C91E95BFE4F80838D
:1047F000D401ED91FC91D80112968C91E85BFE4FAB
:104800008083D401ED91FC91D80113968C91E75BE4
:10481000FE4F8083D401ED91FC91D80114968C91C8
:10482000EE5BFE4F8083D401ED91FC91D80115968B
:104830008C91ED5BFE4F8083D401ED91FC91D8010A
:1048400016968C91EC5BFE4F8083D401ED91FC9128
:10485000D80117968C91EB5BFE4F8083D401ED91CC
:10486000FC91D80118968C91E65BFE4F8083D401B1
:10487000ED91FC91D80119968C91E55BFE4F8083F8
:10488000D401ED91FC91119782E08087ED91FC912C
:10489000D8011A968C91E65CFE4F8083D401ED918D
:1048A000FC91D8011B968C91E55CFE4F8083D4016E
:1048B000ED91FC91D8011C968C91E45CFE4F8083B5
:1048C000D401ED91FC91D8011D968C91E35CFE4FD3
:1048D0008083D401ED91FC91D8011E968C91E25C0D
:1048E000FE4F8083D401ED91FC91D8011F968C91ED
:1048F000E15CFE4F8083D401ED91FC91D80150968C
:104900008C91EF5BFE4F8083D401ED91FC91DF0130
:10491000AF5BBE4F8C918F70823011F481E0808745
:10492000F601E158FC4F80819181419720F481E1AB
:1049300090E091838083B6E2EB0EF11CEE0CFF1C3D
:10494000EC0CFD1CD7018D919C91DC01A85CBE4F45
:104950008081918141978D939C93F801719680E0BD
:1049600090E007C04191D901A80FB91F1C964C9344
:104970000196D7012D913C91D901A85CBE4F4D9174
:104980005C918417950770F302C081E001C080E05C
:104990000F90DF91CF911F910F91FF90EF90DF90DB
:1049A000CF90BF90AF909F908F90089582589C4F6A
:1049B000FC0180810C94B50CAF92BF92CF92DF9234
:1049C000EF92FF920F931F93CF93DF93CDB7DEB794
:1049D000C857D1090FB6F894DEBF0FBECDBF8C010A
:1049E0006B015A0179010E949C34863991050CF4BF
:1049F0005AC09701A501B601C8010E94941E8823E0
:104A000029F0C8010E94D62481E04EC0D801A158E7
:104A1000BC4F11961C921E92C7010496AE014F5FC7
:104A20005F4F21E0A21AB10811C09601280F391F6B
:104A3000F9012081FA012193AF012D913C91119749
:104A40002F5F3F4F11963C932E9301968A159B053D
:104A500060F3F601EE0DFF1D8381813871F018F4CB
:104A60008038D1F405C0803969F08139A9F40FC0CC
:104A7000F801EB54FC4F81E00EC0F801EB54FC4F01
:104A800010820AC0F801EB54FC4F82E004C0F80128
:104A9000EB54FC4F83E08083BE016F5F7F4FC80102
:104AA0000E94AB2101C08FEFC858DF4F0FB6F894BA
:104AB000DEBF0FBECDBFDF91CF911F910F91FF9051
:104AC000EF90DF90CF90BF90AF9008952F923F92DC
:104AD0004F925F926F927F928F929F92AF92BF920E
:104AE000CF92DF92EF92FF920F931F93CF93DF93BA
:104AF000CDB7DEB7C753D1400FB6F894DEBF0FBEB7
:104B0000CDBF1C010E94040A6B017C01F101E5523A
:104B1000FE4F82E08083FE0131968CE291E0DF015E
:104B20009C011D9221503040E1F7F101E552FC4F0C
:104B30008081882369F08EE78983108231E0C35D2C
:104B4000DE4F3883CD52D14044244394512C07C0CA
:104B5000C35DDE4F1882CD52D140412C512C612CC7
:104B6000712C0BE010E0910125523C4FC25DDE4FED
:104B700039832883CE52D140910122583C4FC05DE9
:104B8000DE4F39832883C053D140B1C0C05DDE4FB2
:104B9000A881B981C053D1408C910E947C0C88249B
:104BA0008394912C8C0E9D1E840C951CF4018083A3
:104BB0005201FFEFAF1ABF0A0E94040A6B017C0189
:104BC000D4012C912E37D9F48BE291E08419950908
:104BD0008E36910548F431E0C25DDE4FE881F981FF
:104BE000CE52D14030830BC0C35DDE4F8881CD52A1
:104BF000D1408F5FC35DDE4F8883CD52D14091E0BD
:104C0000A916B10441F481E090E02E3711F080E064
:104C100090E05C0105C0ACE2AA16A1E0BA0618F467
:104C20002501912C03C0250199249394B6E06B9E35
:104C300090011124872D90E00496820F931FFE01AE
:104C4000EA0DFB1DA816B90651F481E0781651F063
:104C500080818A58823050F00D5F1F4F03C091E071
:104C6000791204C00F5F1F4F7724739480818D37B2
:104C700029F4711018C00F5F1F4F15C08A3849F40E
:104C80002C5F3F4FA216B30671F40A5F1F4F639467
:104C90000AC08E3741F4A1E07A1205C00150110913
:104CA00039EF732E700EA016B10611F49924939467
:104CB0000E94040A6C157D058E059F0520F40E9454
:104CC000040A6B017C010E94040A6C197D098E099B
:104CD0009F09613D77408105910538F0F101E25867
:104CE000FC4F80810E94B50C25C1911023C1C25D8B
:104CF000DE4FE881F981CE52D1408081882309F4CA
:104D00000AC118C100E010E05101FDE4AF1AFCEF48
:104D1000BF0A910128523C4FC25DDE4F3983288380
:104D2000CE52D140D101A752BC4FC05DDE4FB983F6
:104D3000A883C053D140F101E652FC4FCE5CDE4F58
:104D4000F983E883C253D140910129523C4FCC5C96
:104D5000DE4F39832883C453D140D101AA52BC4FBE
:104D6000CA5CDE4FB983A883C653D1402BED822E97
:104D700099249394820C931C3101B6E26B1ABEEF16
:104D80007B0ABBC0FE01329681E090E021912E3774
:104D900009F4B8CF8415950508F4D3C0B3CFE1E08A
:104DA000F0E0EC0FFD1FEE0DFF1D80818E3771F4DA
:104DB000A701401B510BF50111821082D12C21E07B
:104DC00030E02C0F3D1F200F311F10C0E414F504FC
:104DD00008F4B9C0EDCFF901E80FF91F60816D3714
:104DE00009F4D3940196D5018D939C93F5018081AC
:104DF00091818417950778F3DD2039F09801BE0181
:104E00006F5F7F4FC1010E94141DE4E0F0E0EC0FE2
:104E1000FD1FE00FF11F80818B3811F120F48A38DB
:104E200009F05DC005C08059823008F058C00BC041
:104E3000A7014D1951099801BE016F5F7F4FC10154
:104E40000E94BB1E4CC0A7014D1951099801BE011B
:104E50006F5F7F4FC1010E94DC24D3018C933FC060
:104E6000FE01E00FF11F8681C25DDE4FE881F9810E
:104E7000CE52D1408083FE01E00FF11F8781C05DDB
:104E8000DE4FA881B981C053D1408C93FE01E00F61
:104E9000F11F8085CE5CDE4FE881F981C253D1409D
:104EA0008083FE01E00FF11F8285CC5CDE4FA8817C
:104EB000B981C453D1408C93FE01E00FF11F81856D
:104EC000CA5CDE4FE881F981C653D14080838111ED
:104ED00003C0D4011C9203C081E0F4018083C35D50
:104EE000DE4FF881CD52D140F150C35DDE4FF883E3
:104EF000CD52D140C70101968701C35DDE4F2881A5
:104F0000CD52D140222311F07C0149CFF101E5526D
:104F1000FE4F80811CC0C05DDE4FA881B981C053A7
:104F2000D1408C910E94600C181619060CF42ECEFC
:104F3000912CBECE89818E3709F024CF81E090E09C
:104F4000E1CE019623CFBFEFEB1AFB0A28CFC95C55
:104F5000DE4F0FB6F894DEBF0FBECDBFDF91CF910D
:104F60001F910F91FF90EF90DF90CF90BF90AF9087
:104F70009F908F907F906F905F904F903F902F9079
:104F800008952F923F924F925F926F927F928F92ED
:104F90009F92AF92BF92CF92DF92EF92FF920F93C8
:104FA0001F93CF93DF93CDB7DEB7CB53D1400FB66E
:104FB000F894DEBF0FBECDBF1C01C15DDE4F79830B
:104FC0006883CF52D140FC01E552FC4F8081882399
:104FD00091F010828EE7898321E0CF5CDE4F288339
:104FE000C153D14081E090E0C35DDE4F9983888357
:104FF000CD52D1400BC0CF5CDE4F1882C153D1409F
:10500000C35DDE4F19821882CD52D140C15DDE4FA3
:10501000E881F981CF52D14080818E3E39F01EE186
:1050200062E3C62ED12CE12CF12C06C01DE655E022
:10503000C52ED12CE12CF12CC15DDE4FE881F98128
:10504000CF52D1408581853481F58681843409F041
:105050005CC0F101E358FC4F8081813009F055C0FC
:10506000C15DDE4FE881F981CF52D140678170E0A8
:1050700080E090E00E94D8429B01AC0160E070E0CB
:1050800080E090E40E94C9430E94AC429B01AC01C5
:10509000A0EAB0E00E943A456B017C01F8EBCF0E2C
:1050A000FBE0DF1EE11CF11C30C0843459F4C15D0B
:1050B000DE4FE881F981CF52D14086818E3409F0EC
:1050C000B5C1ADC18E3409F5C15DDE4FE881F9810E
:1050D000CF52D14086818434C1F4F101E358FC4FB2
:1050E0008081833009F4A6C18450823008F4A9C1BC
:1050F00040E2C42E4EE4D42EE12CF12C06C034EF55
:10510000C32EDD24D394E12CF12C0E94040A2B0140
:105110003C010E94040A4B015C01910125523C4F65
:10512000CE5CDE4F39832883C253D140910122588F
:105130003C4FCC5CDE4F39832883C453D140212FB0
:1051400030E0C65CDE4F39832883CA53D14090C01B
:10515000CC5CDE4FE881F981C453D14080810E944C
:105160007C0CE1E0F0E0EC0FFD1FC35DDE4F288119
:105170003981CD52D140E20FF31F808389010F5F47
:105180001F4F8E3709F58BE291E0821B930BC65CB3
:10519000DE4F28813981CA53D1408217930748F4E2
:1051A00021E0CE5CDE4FE881F981C253D1402083FB
:1051B0000BC0CF5CDE4F3881C153D1403F5FCF5C25
:1051C000DE4F3883C153D1400E94040A2B013C01B9
:1051D000C35DDE4F19830883CD52D1400E94040A7B
:1051E000641575058605970520F40E94040A2B01B5
:1051F0003C010E94040A681579058A059B0520F484
:105200000E94040A4B015C010E94040ACA5CDE4F42
:10521000688379838A839B83C653D1400E94040AA2
:10522000CA5CDE4F088119812A813B81C653D14077
:105230000419150926093709C016D106E206F30636
:1052400008F413C1DC01CB0188199909AA09BB092B
:1052500081349C49A105B10508F007C1C35DDE4F4B
:1052600028813981CD52D1402C32314008F0FDC027
:10527000CE5CDE4FE881F981C253D1408081882322
:1052800009F4E6C0F2C0FE01329601E010E081911F
:105290008E3751F0C35DDE4F28813981CD52D14028
:1052A0000217130708F4E8C0C8010196C35DDE4F7A
:1052B000E881F981CD52D140E817F90708F4ACC074
:1052C000A12C22E0B22E6101FDE4CF1AFCEFDF0A2F
:1052D000210127E2421A2EEF520A310136E2631A07
:1052E0003EEF730A8CC0E1E0F0E0EC0FFD1FEE0D25
:1052F000FF1D80818E3771F4A701401B510BF60111
:1053000011821082912C61E070E06C0F7D1F600FA4
:10531000711F17C0C35DDE4F28813981CD52D14046
:10532000E216F30608F4ABC0E7CFFB01E20FF31F70
:1053300080818D3709F493942F5F3F4FF6013183BD
:105340002083F601208131812417350770F39920DD
:1053500039F09801BE016F5F7F4FC1010E94141D9B
:10536000E4E0F0E0EC0FFD1FE00FF11F80818838D2
:1053700051F010F4805804C08A38B9F078F180599F
:10538000823060F51EC0970129193109C15DDE4FD9
:1053900048815981CF52D140BE016F5F7F4FC1011B
:1053A0000E94D91EB82EF20118C0A701491951094F
:1053B0009801BE016F5F7F4FC1010E94BB1EB82ED6
:1053C0000DC0A701491951099801BE016F5F7F4FB8
:1053D000C1010E94DC24B82EF301B082CF5CDE4F05
:1053E000F881C153D140F150CF5CDE4FF883C153F7
:1053F000D140C7010196B11001C0A3948701CF5CD1
:10540000DE4F2881C153D140222311F07C016BCFA4
:10541000AA20C9F1B12C37C0BB24B39434C008EE24
:10542000C02E03E0D02EE12CF12C6FCE823409F097
:105430006CCE65CEB0E4CB2EBCE9DB2EE12CF12C9A
:1054400064CEA0EBCA2EA6E3DA2EE12CF12C5DCEC1
:10545000CC5CDE4FE881F981C453D14080810E9449
:10546000600C892B09F4BACE73CE89818E3709F08E
:105470000ACF00E010E018CF0F5F1F4F08CFFFEFFB
:10548000EF1AFF0A30CF8B2DC55CDE4F0FB6F894B4
:10549000DEBF0FBECDBFDF91CF911F910F91FF9067
:1054A000EF90DF90CF90BF90AF909F908F907F90C4
:1054B0006F905F904F903F902F9008951F93CF93E0
:1054C000DF93EC01162FE881F9810190F081E02D46
:1054D0000995FE01E258FC4F20E032EC41E050E03B
:1054E0006081CE010E94051C61E0CE010E941F1C5C
:1054F00011110AC04091391050913A1060913B103F
:1055000070913C1044600BC0113089F44091391007
:1055100050913A1060913B1070913C10486040935C
:10552000391050933A1060933B1070933C10FE0179
:10553000E358FC4F8081823029F464EF71E080E011
:1055400090E006C08330C9F362E370E080E090E051
:105550000E94560A81E08EABCE010E94D62480E0E4
:10556000DF91CF911F91089560E00C945E2A9F9285
:10557000AF92BF92CF92DF92EF92FF920F931F9361
:10558000CF93DF93DA0111965C91119740E0129668
:105590008C911297480F511D4C5F5F4F8C91EB011E
:1055A000888381E090E0E0E0F0E0CDE7FC2ED3E3FB
:1055B000ED2E1DE5D12E0EE5C02EC1E3BC2E8D01D2
:1055C000080F191FE801A880EB01CE0FDF1F0F2E77
:1055D000F1E19F2EF02DA91491F00F2EF3E19F2EF3
:1055E000F02DA91461F00F2EFDE79F2EF02DA914C8
:1055F00031F00F2EFEE79F2EF02DA9102DC0C80F01
:10560000D91FF8823196E8011881133181F018F41E
:10561000113129F505C01D3789F01E3701F515C078
:10562000EB01CE0FDF1FC80FD91FB88218C0EB01E6
:10563000CE0FDF1FC80FD91FE88211C0EB01CE0FBC
:10564000DF1FC80FD91FD8820AC0EB01CE0FDF1FA2
:10565000C80FD91FC88203C0C80FD91FA8820196DE
:10566000841795070CF4ABCFE40FF51FD901ED9328
:10567000FC93DF91CF911F910F91FF90EF90DF90FE
:10568000CF90BF90AF909F9008958F929F92AF92CE
:10569000BF92CF92DF92EF92FF920F931F93CF931F
:1056A000DF93CDB7DEB7C656D1090FB6F894DEBF8B
:1056B0000FBECDBF8C01A7961FAE1EAEA7976C0183
:1056C0008AE4C81A8CEFD80A9E012B593F4FA601D5
:1056D000BE016F5F7F4FC8010E94B72AF801E258F0
:1056E000FC4F8081813021F48BE499E00E947F1A85
:1056F000EE24E394F12CEC0EFD1E47015801E2E884
:10570000AE1AECEFBE0A07C0F5016081F701819186
:105710007F010E943F0D970128193909A7968EAD88
:105720009FADA797281739077CF3B601C8010E94DF
:10573000C127CA59DF4F0FB6F894DEBF0FBECDBFE9
:10574000DF91CF911F910F91FF90EF90DF90CF905D
:10575000BF90AF909F908F9008950F931F93CF931A
:10576000DF93CDB7DEB764970FB6F894DEBF0FBEF8
:10577000CDBF8C01FC01E752FE4F82E08083E9E05F
:10578000F6E085919491BC01CE0101960E940348F8
:10579000BE016F5F7F4FC8010E940D20BE016F5F89
:1057A0007F4FC8010E94452B811108C0F801E959BB
:1057B000FE4FD801AF57BC4F9C91908364960FB6B3
:1057C000F894DEBF0FBECDBFDF91CF911F910F9137
:1057D0000895FF920F931F93CF93DF93CDB7DEB75A
:1057E00064970FB6F894DEBF0FBECDBF8C01F62EC6
:1057F000FC01E752FE4F82E08083E7E0F6E085910E
:105800009491BC01CE0101960E9403484F2DBE0128
:105810006F5F7F4FC8010E944220BE016F5F7F4FC4
:10582000C8010E94521CBE016F5F7F4FC8010E94D9
:10583000452B811104C0F801E959FE4FF0826496AE
:105840000FB6F894DEBF0FBECDBFDF91CF911F9191
:105850000F91FF900895EF92FF920F931F93CF93B4
:10586000DF93CDB7DEB7E2970FB6F894DEBF0FBE79
:10587000CDBF8C017B01FC01E752FE4F82E08083AB
:10588000E5E0F6E085919491BC01CE0101960E947D
:105890000348A701BE016F5F7F4FC8010E947D1FB3
:1058A000BE016F5F7F4FC8010E94521CBE016F5F37
:1058B0007F4FC8010E94452B811115C0F70120E0E0
:1058C00030E0BF019191A801420F531F4A5A5E4F29
:1058D000DA019C93DB019C91992329F02F5F3F4FC4
:1058E0002031310571F7E2960FB6F894DEBF0FBE96
:1058F000CDBFDF91CF911F910F91FF90EF90089551
:105900000F931F93CF93DF93CDB7DEB764970FB696
:10591000F894DEBF0FBECDBF8C01FC01E752FE4FF5
:1059200082E08083EDEFF5E085919491BC01CE019A
:1059300001960E940348BE016F5F7F4FC8010E941D
:105940000D20BE016F5F7F4FC8010E94452B6496FA
:105950000FB6F894DEBF0FBECDBFDF91CF911F9180
:105960000F9108950F931F93CF93DF93CDB7DEB7B9
:1059700064970FB6F894DEBF0FBECDBF8C01FC015B
:10598000E752FE4F82E08083EFEEF5E0859194913F
:10599000BC01CE0101960E940348BE016F5F7F4F9C
:1059A000C8010E940D20BE016F5F7F4FC8010E9499
:1059B000452B811108C0F801E95DFE4FD801AF57B2
:1059C000BC4F9C91908364960FB6F894DEBF0FBED7
:1059D000CDBFDF91CF911F910F910895FF920F934B
:1059E0001F93CF93DF93CDB7DEB764970FB6F894CC
:1059F000DEBF0FBECDBF8C01F62EFC01E358FC4F7D
:105A00008081F801E752FE4F813021F0833011F0A0
:105A1000843009F582E08083EDEEF5E08591949184
:105A2000BC01CE0101960E9403484F2DBE016F5F5D
:105A30007F4FC8010E944220BE016F5F7F4FC801A7
:105A40000E94521CBE016F5F7F4FC8010E94452B10
:105A5000882321F007C08FEF808304C0F801E95D3F
:105A6000FE4FF08264960FB6F894DEBF0FBECDBF36
:105A7000DF91CF911F910F91FF900895EF92FF92C8
:105A80000F931F93CF93DF93CDB7DEB764970FB615
:105A9000F894DEBF0FBECDBF8C01FC01E752FE4F74
:105AA00082E08083EFEDF5E085919491BC01CE0119
:105AB00001960E940348BE016F5F7F4FC8010E949C
:105AC0000D20780183E8E81A8CEFF80ABE016F5FB9
:105AD0007F4FC8010E94452B81115DC0F701908165
